:020000022000DC
:1070000000000420197202000172020003720200E3
:1070100005720200077202000972020000000000FF
:107020000000000000000000000000000B720200E1
:107030000D720200000000000F72020011720200C7
:10704000C12A0300137202006138030025520300B5
:10705000137202001372020059370300693C0300E7
:107060001372020013720200137202001372020004
:1070700013720200137202001372020013720200F4
:10708000137202006D650300137202001372020096
:10709000137202001372020009A5030013720200AA
:1070A00013720200137202001372020013720200C4
:1070B00013720200137202000000000000000000C2
:1070C00013720200137202001372020013720200A4
:1070D0001372020013720200137202001372020094
:1070E000137202001372020013720200000000000B
:1070F0000000000013720200000000001372020082
:10710000000000000000000000000000000000007F
:10711000000000000000000000000000000000006F
:10712000000000000000000000000000000000005F
:10713000000000000000000000000000000000004F
:10714000000000000000000000000000000000003F
:10715000000000000000000000000000000000002F
:10716000000000000000000000000000000000001F
:10717000000000000000000000000000000000000F
:1071800000000000000000000000000000000000FF
:1071900000000000000000000000000000000000EF
:1071A00000000000000000000000000000000000DF
:1071B00000000000000000000000000000000000CF
:1071C00000000000000000000000000000000000BF
:1071D00000000000000000000000000000000000AF
:1071E000000000000000000000000000000000009F
:1071F000000000000000000000000000000000008F
:10720000FEE7FEE7FEE7FEE7FEE7FEE7FEE7FEE756
:10721000FEE7FEE700F002B8FFF7FCBF0F484FF0B3
:107220000701884385460E4880470E48016841F4AF
:1072300070010160BFF34F8FBFF36F8F00F01AB87A
:1072400009480A490A4A884207D0521A05D00378E9
:1072500001300B700131013AF9D170470000042070
:10726000B5D5020088ED00E02CB50300084B0020E6
:107270001C4B002039493A480A1A02D00722914390
:107280008D46384938480A1A06D00722914381F3BF
:107290000988022282F3148834483549354A00F0BF
:1072A0003EF835483549364A00F039F83548364910
:1072B000364A00F034F836483649374A00F02FF89D
:1072C00036483749374A00F02AF837483749384AAC
:1072D00000F025F837483849384A00F020F8384897
:1072E0003849002200F033F837483849002200F0CE
:1072F0002EF837483749091A13F007FF364A9047E6
:1073000024482549884205D00268043003B49047D8
:1073100003BCF7E700200021304A9047FEE788428F
:1073200014D0521A12D003460B43134303242342B2
:1073300006D1036804300B600431043AF9D1704778
:10734000037801300B700131013AF9D1704788425E
:1073500002D002700130FAE77047000000000420FC
:1073600000E003200000042000000420D0E303001C
:107370001C4B0020E8540020E0730200E073020080
:1073800090B30300D0E303001C4B00201C4B0020F3
:1073900040B5030040B5030040B5030040B503000D
:1073A00040B5030040B5030040B5030040B50300FD
:1073B000CDE303009CED0300E8540020E8540020D6
:1073C000E8540020206B0020206B0020206B002060
:1073D000206B0020208B0020417202001DC902009A
:1073E00082B003468DF80730114B1B789DF80720BB
:1073F0009A420BD99DF807300D4A12789B1A012B3F
:1074000010DD0B4A9DF8073013700BE0084B1B781A
:107410001A469DF80730D31A012B03DD044A9DF864
:1074200007301370024B1B78184602B0704700BF3C
:10743000F454002084B00346ADF80630BDF80630A1
:1074400041F26702934201D9642319E0BDF8063086
:1074500040F64852934201D8002311E0BDF80630AF
:10746000A3F64853642202FB03F303F5C873064AEC
:1074700082FB03121212DB17D31A0393039BDBB2B6
:10748000184604B0704700BF1F85EB51014B1B68C5
:1074900018467047F0540020014B1B68184670478F
:1074A000EC54002010B586B00190012001F0BCFE24
:1074B0000DF10E03194600200CF0EEFD0590BDF90C
:1074C0000E20314B1A80059B002B45D12E4B1B887B
:1074D0001BB21A464FF4166302FB03F39B0A049394
:1074E000049B5B00294A1360284B1B689BB218461B
:1074F000FFF7A0FF03461846FFF772FF03461A4640
:10750000234B1A60234A244BD31ADB081B0443F095
:1075100003041E4B1B689BB21846FFF78BFF034604
:107520001846FFF75DFF03461A46174B1B881BB230
:107530001A49204611F079FF164A174BD31ADB0877
:107540001B0443F00300114B1A680F4B1B881BB23E
:10755000134911F06AFF0BE00E4A0F4BD31ADB08F8
:107560001B0443F00103059A0E49184611F04DFF24
:10757000002001F059FE00F031F8034B1B881BB2CC
:107580009BB2184606B010BDE8540020F05400200D
:10759000EC540020A4B403007CB4030040B5030005
:1075A00060B5030070B5030000B585B00190019B84
:1075B0001B78002B0CD1019B5B68B3F90020064BB4
:1075C0001A80019B5B68012118460CF00FFE0390A6
:1075D00000BF05B000BD00BFE854002000BF7047E9
:1075E00000B589B01C4B1B68049300238DF8133041
:1075F00004AB1A4918460CF063FC0790079B0693EE
:10760000069B002B04D0164A8F2106980DF062FECF
:10761000144A01AB07CA03C31A7000238DF8073060
:1076200002238DF8063005238DF8083001AB19468A
:1076300000200CF0B5FC0790079B0593059B002BE1
:1076400004D0074A982105980DF044FE0020FFF76A
:1076500029FF00BF09B000BDD4B50300A975020021
:1076600084B50300D8B5030000B585B001900B4682
:10767000ADF8023013468DF80130019B0393BDF83D
:107680000230132B2CD9039B1B78F02B25D0F02B29
:1076900028DC302B1DD0302B24DC212B13D0212BC8
:1076A00020DC122B08D0202B1CD19DF9013019466B
:1076B000039800F0DBF816E09DF9013019460398B5
:1076C00000F020F80FE0039800F01EF901F02EFA08
:1076D00009E0039800F046F905E000F0B9FF02E088
:1076E00000BF00E000BF05B000BD000082B0019007
:1076F000034B1B680133024A136000BF02B070479E
:10770000FC54002000B58BB001900B468DF803307F
:1077100004AB14220021184613F096FD13238DF8B4
:107720001030FFF7B9FE03468DF82730234B1B6856
:10773000CDF811309DF827308DF81530FFF7A6FEF3
:1077400003461F4AA2FB03235B098DF826309DF8F0
:1077500026308DF8163001238DF8173001238DF86F
:10776000183001238DF819309DF803308DF81A3048
:107770009DF82630222B07D89DF81B30022262F399
:1077800001038DF81B3011E09DF82730272B07D817
:107790009DF81B30012262F301038DF81B3005E0D8
:1077A0009DF81B3023F003038DF81B3004AB14212C
:1077B000184604F027FE00BF0BB000BDFC540020AB
:1077C0001F85EB5100B58BB0019003AB1422002153
:1077D000184613F039FD11238DF80C301D4B1B8812
:1077E000DBB28DF80D3003AB184603F0DDFF034626
:1077F0008DF8273003AB1421184604F003FE0890DF
:10780000089B002B03D0144B00221A701FE09DF838
:107810002730012B0DD10F4B1B8801339AB20D4B32
:107820001A800E4B00224FF4005118460EF06CF9EE
:107830000DE0094B00221A70094A0A4BD31ADB08E3
:107840001B0443F003030849184611F0D1FD0BB0A7
:1078500000BD00BFF6540020F8540020204B00204B
:10786000A4B403007CB40300F0B5030000B58BB0F2
:1078700001900B468DF8033003F03EFE099000F0B6
:10788000DBFD089002AB14220021184613F0DCFC4B
:1078900004F01AF810238DF80830089BB3F8C030B4
:1078A000DBB28DF8093003F061FE03469BB2ADF800
:1078B0000A30124B1B7883F00103DBB2002B19D086
:1078C00002AB1421184604F09DFD0790079B002B86
:1078D00010D1BDF80A30002B0CD0094B00221A80C1
:1078E000064B01221A70074B00224FF40051184634
:1078F0000EF00AF900BF0BB000BD00BFF854002025
:10790000F6540020204B002000B585B0019003F014
:10791000F3FD0390019B5B781A460B4B1B889A4240
:107920000ED103F0C7FF094A094BD31ADB081B0429
:1079300043F00300019B5B781A46064911F065FD90
:1079400000BF05B000BD00BFF6540020A4B4030082
:107950007CB4030018B6030082B0019000BF02B0EF
:107960007047000000B58BB0019003AB14220021DA
:10797000184613F069FC31238DF80C3001238DF883
:107980000D30FFF789FD099001238DF80E3003AB10
:107990001421184604F036FD0890089B002B0AD1EC
:1079A0009DF80E30002B06D1044B002240F6CD414D
:1079B00018460EF0A9F800BF0BB000BD404B0020E8
:1079C00000B583B0124A002112480EF063F801900E
:1079D000114A002111480EF05DF80190104A012172
:1079E00010480EF057F801900F4B00224FF48041E1
:1079F00018460EF089F8019B0093009B002B04D0E1
:107A00000A4AB82100980DF065FC00BF03B000BD24
:107A1000C5770200E4B5030059790200E8B5030018
:107A2000ED760200ECB50300604B00202CB603009D
:107A300076DF704700BF18468BDF704700BF1846DF
:107A40008CDF704700BF184600B583B001900199E4
:107A500002480AF039FB00BF03B000BD005500200A
:107A600000B585B06B4608220021184613F0ECFBE8
:107A70000A4B00930A4B01936B46184608F098FB9B
:107A80000390039B0293029B002B04D0054A4521DF
:107A900002980DF01FFC00BF05B000BD497A02003E
:107AA0005451002094B6030000B583B00190044AFD
:107AB0004B2101980DF00EFC00BF03B000BD00BFCC
:107AC00094B6030000B589B00190009100238DF8B1
:107AD0001F30524A524BD31ADB081B0443F00300F9
:107AE000009B1B781A464F4911F08FFC009B1B78B6
:107AF000022B00F08380022B00F38C80002B02D03D
:107B0000012B38D086E0454A454BD31ADB081B04CD
:107B100043F003034449184611F06AFC009B59885E
:107B2000009B0E331A4601980AF0B8FC0590059B9D
:107B30000493049B002B04D03C4A692104980DF067
:107B4000C9FB01980AF028FC0590059B0393039B51
:107B5000002B04D0354A6B2103980DF0BBFB2F4A54
:107B60002F4BD31ADB081B0443F00303304918469C
:107B700011F03EFC4EE004F05DFE03468DF81F3030
:107B8000264A274BD31ADB081B0443F00300009B53
:107B90009B891A46274911F038FC0023069312E00E
:107BA0001E4A1F4BD31ADB081B0443F00300009B43
:107BB0009A68069B13441B781A461F4911F025FC4E
:107BC000069B01330693009B9B891A46069B9342B2
:107BD000E6D3124A124BD31ADB081B0443F003030B
:107BE0001649184611F004FC009B9868009B9B897D
:107BF0009DF91F201946FFF737FD0BE0074A084B98
:107C0000D31ADB081B0443F003030D49184611F097
:107C1000EFFB00BF00BF09B000BD00BFA4B403006C
:107C20007CB4030000B703001CB7030094B6030044
:107C300030B7030060B703006CB7030074B70300EC
:107C400078B7030000B587B00C4B01930C4B02933F
:107C50000C4B039301AB19460B480AF0C7FA059089
:107C6000059B0493049B002B04D0084A932104989D
:107C70000DF030FB00BF07B000BD00BFC57A0200A9
:107C8000A97A0200545100200055002094B6030048
:107C900070B5A2B00590059B5B681C9300F0CCFB0F
:107CA0001B90059B1B78062B1CD0062B00F36281D2
:107CB000052B08D0052B00F35D81032B42D0042B4C
:107CC00000F04C8156E1059B5B681993199B189352
:107CD000189B002B00F05081AB4AA52118980DF09D
:107CE000F9FA49E1A94AAA4BD31ADB081B0443F06D
:107CF0000303A849184611F07BFB059B5B681A93A8
:107D0000A24AA34BD31ADB081B0443F003001A9BBF
:107D10005B781D461A9B9B781E461A9BDB781A4699
:107D20001A9B1B7919461A9B5B791C461A9B9B79F7
:107D3000039302940191009233462A46964911F02A
:107D4000B5FB1EE1059B5B681793179B002B00F0AA
:107D500015810023ADF84A30179B9869179B998BC2
:107D60000DF14A02092306F0A4FA0346ADF8863065
:107D7000BDF88630002B0ED10023ADF84A30179B9A
:107D80009869179B998B0DF14A02082306F091FA26
:107D90000346ADF88630BDF88630002B00F0DC805D
:107DA000179B9B69BDF84A20134416931B9B2033F5
:107DB0000E931B9B40330F931B9B603310931B9BB5
:107DC000803311930423159300238DF8853000230D
:107DD000209331E0209B9B0088336B4453F8503C48
:107DE000002B23D0209B9B0088336B4453F8503CDE
:107DF000184613F0BAF91490149B002B18D0BDF854
:107E00008630149A9A4214D8209B9B0088336B4486
:107E100053F8503C149A1946169813F081F903460A
:107E2000002B06D101238DF8853009E000BF00E06A
:107E300000BF209B01332093209A159B9A42C9D3FF
:107E40009DF88530002B00F09B80179B0233139325
:107E500000238DF87F3000231E932BE04F491E9A9C
:107E60001346DB0013440B441B78002B1FD01E9AD3
:107E70001346DB001344494A1344D81C139B0133B7
:107E80000622194613F04CF90346002B0FD1179B1D
:107E900093F9130041491E9A1346DB0013440B4427
:107EA000013302461A7001238DF87F3005E01E9BD6
:107EB00001331E931E9B032BD0DD9DF87F3083F092
:107EC0000103DBB2002B5BD000231D9340E033495C
:107ED0001D9A1346DB0013440B441B78002B34D14E
:107EE0002E491D9A1346DB0013440B4401221A70DD
:107EF0001D9A1346DB001344284A13440233072219
:107F00001399184613F06EF9BDF8862006AB169942
:107F1000184613F067F91D4A1D4BD31ADB081B04E2
:107F200043F0030306AA1E49184611F06EFA179B88
:107F300093F9130019491D9A1346DB0013440B44AF
:107F4000013302461A7000BF1AE01D9B01331D93D6
:107F50001D9B032BBBDD13E000BF12E00B4A0C4B53
:107F6000D31ADB081B0443F003030E49184611F033
:107F70003FFA06E000BF04E000BF02E000BF00E0FF
:107F800000BF00BF22B070BD94B60300A4B40300CC
:107F90007CB4030088B70300A4B70300EC560020AC
:107FA000D4B70300E0B7030000B587B001900B46DB
:107FB000ADF80230019B0593154ABDF802301380DD
:107FC000BDF802300022194612480AF067FA049000
:107FD000049B0393039B002B05D00F4A40F2211111
:107FE00003980DF077F9059B9B8819460B4808F01C
:107FF000A3F90490049B0293029B002B05D0064A30
:108000004FF4927102980DF065F900BF07B000BD02
:10801000685100200055002094B60300804B0020DA
:1080200000B585B001900B46ADF802301346ADF8AF
:108030000030BDF802301A46019904480AF0C8F928
:108040000390039B184605B000BD00BF00550020FB
:1080500000B583B0144B1B884FF6FF7293420BD1CF
:10806000124A134BD31ADB081B0443F003031149D4
:10807000184611F0BDF915E00B4B1B88132118466B
:10808000FFF7D6FC0190019B002B0BD0074A084B51
:10809000D31ADB081B0443F00103019A0649184672
:1080A00011F0B3F903B000BD68510020A4B403007F
:1080B0007CB40300F4B7030004B8030000B587B034
:1080C0004FF0FF33059381238DF813300023039382
:1080D00024E03449039A1346DB0013440B441B7815
:1080E000002B18D02F49039A1346DB0013440B448E
:1080F000013393F900309DF913209A420BDA294994
:10810000039A1346DB0013440B4401331B788DF8AC
:108110001330039B0593039B01330393039B032BB2
:10812000D7DD059B002B01DA052337E01E4A1F4BE4
:10813000D31ADB081B0443F00300059A9DF91330A2
:108140001B4911F072F96B4607220021184613F003
:108150007BF8059A1346DB001344124A13449A1C19
:108160006B46106818609188927999809A71684678
:108170000123104A1049FFF763FC0290029B002B79
:108180000BD0094A094BD31ADB081B0443F0030345
:10819000029A0A49184611F038F9029B184607B0AE
:1081A00000BD00BFEC560020A4B403007CB4030063
:1081B0001CB80300A6560020B05600203CB80300AF
:1081C00000B583B0114A124BD31ADB081B0443F0ED
:1081D00003031049184611F00BF9FFF72DFC01902D
:1081E000019B002B0ED0019B082B0BD0074A084B9C
:1081F000D31ADB081B0443F00103019A0649184611
:1082000011F003F900BF03B000BD00BFA4B4030028
:108210007CB4030050B8030060B8030000B583B01D
:10822000104A114BD31ADB081B0443F003030F4918
:10823000184611F0DDF8242200210D4813F004F84F
:108240000C4809F071FC0190019B0093009B002BEE
:1082500005D0094A40F2AB1100980DF03BF800BF81
:1082600003B000BDA4B403007CB403007CB80300D9
:10827000EC560020A456002094B6030000B587B049
:108280006B4600221A605A609A60DA6000238DF80B
:108290000C306B46094A1946094809F0EDFB059078
:1082A000059B0493049B002B05D0064A40F2B911AC
:1082B00004980DF00FF800BF07B000BD917C0200DC
:1082C000A456002094B6030000B585B00190019B30
:1082D000084A9A60019B084ADA60FFF7C1FBFFF782
:1082E000B1FCFFF7CBFF00F0A7F8039000BF05B08B
:1082F00000BD00BFA97F020021800200BFF34F8FA5
:1083000000BF064BDB6803F4E0620449044B1343EF
:10831000CB60BFF34F8F00BF00BFFDE700ED00E073
:108320000400FA0541DF704700BF184600B583B06E
:108330000190019B5B68002B11D0194A194BD31A8D
:10834000DB081B0443F00100019B1B781A46019BCC
:108350005B68154911F069F801F0FEFF1EE0019B12
:108360001B78012B02D0022B0CD017E00C4A0D4BCE
:10837000D31ADB081B0443F003030C49184611F021
:1083800037F80BE0064A074BD31ADB081B0443F00F
:1083900003030749184611F02BF800BF03B000BDD6
:1083A000A4B403007CB403008CB80300BCB8030081
:1083B000D4B8030086B0019000914FF6FF73ADF87A
:1083C0001630002304932DE0019A049B13441B787C
:1083D0001BB21B021AB2BDF9163053401BB2ADF8E6
:1083E00016300023039317E0BDF91630002B0BDA8B
:1083F000BDF916305B001BB283F4815383F0010397
:108400001BB2ADF8163004E0BDF816305B00ADF8D5
:108410001630039B01330393039B072BE4D9049B82
:1084200001330493049A009B9A42CDD3BDF81630D1
:10843000184606B070470000014B1846704700BF51
:108440006C51002008B501E0FFF76CFF04480FF005
:10845000E1F90346002BF7D100BF00BF08BD00BF04
:10846000084B002000B585B0019000230393019BC9
:1084700023F47F6323F00F03029300230122029968
:108480000C480FF02FF90390039B002B0BD00A4AE6
:108490000A4BD31ADB081B0443F00103039A084973
:1084A000184610F0B2FFFFF7CDFF039B184605B04A
:1084B00000BD00BF084B0020A4B403007CB403003F
:1084C000ECB8030000B589B0059004911346ADF8EF
:1084D0000E3000230793059BC3F30B03002B25D11C
:1084E0002A4A2B4BD31ADB081B0443F00303059ADB
:1084F0002849184610F089FF0023012205992648D3
:108500000FF0F0F80790079B002B0FD001F024FF2D
:108510001E4A1F4BD31ADB081B0443F00103079AC2
:108520001E49184610F071FF079B2CE0FFF78AFFE9
:10853000BDF80E3000220092049A059916480EF0FC
:10854000EFFF0790079B002B0CD1104A104BD31A5A
:10855000DB081B0443F00303059A1149184610F089
:1085600054FF0DE001F0F8FE084A094BD31ADB086E
:108570001B0443F00103079A0A49184610F045FF0F
:10858000FFF760FF079B184609B000BDA4B40300C5
:108590007CB4030004B90300084B0020ECB80300CE
:1085A00034B9030048B9030000B587B003900291C5
:1085B0001346ADF80630039BB3F5802F06D3BDF804
:1085C0000620039B1344B3F5772F0ED91A4A1B4B91
:1085D000D31ADB081B0443F00100BDF80630039AF0
:1085E000174910F022FF102323E0BDF80630029A4D
:1085F000039914480EF0ECFE0590059B002B0BD060
:108600000D4A0E4BD31ADB081B0443F00103059AF5
:108610000D49184610F0F9FE074A084BD31ADB083B
:108620001B0443F00303039A0849184610F0EDFEBB
:10863000059B184607B000BDA4B403007CB403003A
:1086400060B90300084B002090B90300ACB90300E7
:10865000024B01221A7000BF704700BF1057002064
:1086600008B5064B1B78002B05D04FF47620FFF79A
:10867000F9FEFFF743FE00BF08BD00BF1057002002
:1086800000B583B001904F4A4F4BD31ADB081B044F
:1086900043F003034D49184610F0AAFE494A4A4BDD
:1086A000D31ADB081B0443F00303019A4849184618
:1086B00010F0ABFE434A444BD31ADB081B0443F0D3
:1086C0000300019B20331A46424910F09EFE3D4AAA
:1086D0003D4BD31ADB081B0443F00300019B4033DE
:1086E0001A463D4910F091FE364A374BD31ADB0843
:1086F0001B0443F00300019B60331A46374910F016
:1087000084FE304A304BD31ADB081B0443F00300CD
:10871000019B80331A46324910F077FE294A2A4BD2
:10872000D31ADB081B0443F00300019BA0331A4655
:108730002C4910F06AFE234A234BD31ADB081B0492
:1087400043F00300019BB3F8C0301A46264910F0ED
:108750005CFE1C4A1C4BD31ADB081B0443F00300CD
:10876000019BB3F9C2301A46204910F04EFE154A5B
:10877000154BD31ADB081B0443F00300019BB3F82D
:10878000C4301A461A4910F040FE0E4A0E4BD31A56
:10879000DB081B0443F00300019BB3F8EE301A46DC
:1087A000144910F032FE074A074BD31ADB081B04AA
:1087B00043F003031049184610F01AFE00BF03B03F
:1087C00000BD00BFA4B403007CB40300BCB9030027
:1087D000E4B9030004BA030024BA030044BA030056
:1087E00064BA030084BA0300A4BA0300C4BA030045
:1087F000E4BA030004BB030028BB030000B5BDB00E
:108800006B46F02219464FF47620FFF7CDFE6B46FB
:10881000EE211846FFF7CEFD03461A46BDF8EE30AE
:108820009A420FD0EE210E48FFF7C4FD03461A46C8
:108830000B4BA3F8EE20F02209494FF47620FFF706
:1088400041FE06E0064B18466B46F022194612F030
:10885000C9FC0348FFF714FF00BF3DB000BD00BFD7
:108860006C51002000B583B000220A490A480EF07E
:1088700069FD0190019B0093009B002B04D0074AE7
:10888000EF2100980CF026FDFFF7B8FF00BF03B002
:1088900000BD00BF88D30300084B002050BB03007D
:1088A000BFF34F8F00BF064BDB6803F4E06204495F
:1088B000044B1343CB60BFF34F8F00BF00BFFDE7F6
:1088C00000ED00E00400FA0500B583B00190019BC3
:1088D0001B68184600F005F90346002B04D10B492C
:1088E0004FF4F67003F00EFA019B1B681F2B02D8A1
:1088F0004FF0A04306E0019B1B6803F01F02019BA1
:108900001A60034B184603B000BD00BFA0BB0300B4
:108910000003005000B585B00190084611461A4684
:1089200003468DF803300B468DF8023013468DF860
:10893000013001AB1846FFF7C7FF03909DF80320F5
:108940009DF802305B001A439DF801309B001A43EA
:108950009DF818301B0242EA03019DF81C301B04ED
:10896000019A1943039B02F5E07243F8221000BFFD
:1089700005B000BD00B585B003900023019300232E
:1089800000930023012201210398FFF7C3FF00BFDA
:1089900005B000BD00B585B003900B468DF80B30D7
:1089A0009DF80B300022019200220092002200214B
:1089B0000398FFF7AFFF00BF05B000BD00B585B05D
:1089C000019001AB1846FFF77FFF0390019B012246
:1089D00002FA03F31946039800F06FF800BF05B0E0
:1089E00000BD00B585B0019001AB1846FFF76CFFE4
:1089F0000390019B012202FA03F31946039800F049
:108A000066F800BF05B000BD00B585B0019001ABB0
:108A10001846FFF759FF0390039BD3F804350293E0
:108A2000029BDA43019B012101FA03F31A40039BE5
:108A3000C3F80825019B01229A40029B1A40039B20
:108A4000C3F80C2500BF05B000BD00B585B001908E
:108A500001AB1846FFF738FF0390039800F01DF8AC
:108A60000246019B22FA03F303F00103184605B006
:108A700000BD00B585B0019001AB1846FFF724FF9B
:108A80000390039800F011F80246019B22FA03F3C9
:108A900003F00103184605B000BD82B00190019BB0
:108AA000D3F81035184602B0704782B00190019B90
:108AB000D3F80435184602B0704782B00190009197
:108AC000019B009AC3F8082500BF02B0704782B02E
:108AD00001900091019B009AC3F80C2500BF02B0E1
:108AE000704784B00190019B5B09029300230393BC
:108AF000029B002B03D0029B012B04D007E04FF018
:108B0000FF33039303E04FF6FF73039300BF019B12
:108B100003F01F030193039A019B22FA03F303F06E
:108B20000103DBB2184604B070470000024B052277
:108B30009A7100BF704700BF18570020024B0A22ED
:108B4000DA7200BF704700BF18570020024B0122A5
:108B5000DA7000BF704700BF18570020034B012296
:108B60009A70024B0022DA7000BF7047185700203D
:108B700008B5094B01225A711420FFF77AFF03460A
:108B8000002B03D0044B14225A7402E0024B0A2239
:108B90001A7400BF08BD00BF18570020024B2822DE
:108BA0009A7200BF704700BF1857002082B0019032
:108BB000019B452B03D9054B0A221A7302E0034B94
:108BC0000A225A7300BF02B0704700BF1857002036
:108BD00008B500220021012000F0B6FA054B012261
:108BE0001A71044B03229A73024B0A22DA7300BFF4
:108BF00008BD00BF1857002008B500220021002042
:108C000000F0A2FA024B00221A7100BF08BD00BF9B
:108C10001857002008B501220021002000F094FA26
:108C2000064B01225A70054B0F22DA71034B0F22BB
:108C30001A72024B0F225A7200BF08BD185700204B
:108C4000024B00225A7000BF704700BF1857002027
:108C500000B583B003468DF80730094A9DF8073008
:108C6000137000220021012000F06EFA054B012252
:108C70001A70044B05229A7400BF03B000BD00BFF8
:108C80001157002018570020024B00221A7000BF15
:108C9000704700BF1857002000B583B001909A4B71
:108CA0005B79DBB2002B30D0974B1B7CDBB2002B07
:108CB00015D0954B1B7CDBB2013BDAB2924B1A7498
:108CC00000220121002000F03FFA8F4B1B7CDBB219
:108CD000002B40F01181012003F0D6FC0CE18A4BFF
:108CE0005B7CDBB2002B0CD0874B5B7CDBB2013BA7
:108CF000DAB2854B5A7400220021012000F024FAD8
:108D0000FAE0814B00225A71F6E07F4B5B78DBB2D0
:108D1000002B38D07C4BDB79DBB2002B0CD07A4BAC
:108D2000DB79DBB2013BDAB2774BDA710122002149
:108D3000002000F009FAE4E0734B1B7ADBB2002B51
:108D40000CD0714B1B7ADBB2013BDAB26E4B1A725C
:108D500000220021012000F0F7F9D2E06A4B5B7A93
:108D6000DBB2002B0CD0684B5B7ADBB2013BDAB292
:108D7000654B5A7200220121002000F0E5F9C0E0A5
:108D8000FFF75EFFBDE0604B9B78DBB2002B18D095
:108D90001120FFF75AFE0346002B01D0FFF7D6FE45
:108DA000594BDB78DBB2002B05D0002201210020DB
:108DB00000F0CAF9A5E000220021012000F0C4F96A
:108DC0009FE0514B1B79DBB2002B21D04E4BDB7B5C
:108DD000DBB2013BDAB24C4BDA734B4BDB7BDBB2E1
:108DE000002B40F08B80484B0A22DA730C20FFF7EF
:108DF0000BFE454B9B7BDBB2013BDAB2424B9A73D5
:108E0000414B9B7BDBB2002B78D1FFF7F5FE75E081
:108E10003D4B1B78DBB2002B11D03B4B9B7CDBB274
:108E2000013BDAB2384B9A74374B9B7CDBB2002B98
:108E300066D1354B05229A7400F0B6F960E0324BEA
:108E4000DB7ADBB2002B0CD02F4BDB7ADBB2013BA1
:108E5000DAB22D4BDA7200220021012000F074F901
:108E60004FE0294B9B7ADBB2002B0CD0264B9B7A30
:108E7000DBB2013BDAB2244B9A72002201210020BE
:108E800000F062F93DE0204B1B7BDBB2002B0CD0E5
:108E90001D4B1B7BDBB2013BDAB21B4B1A7300226A
:108EA0000121002000F050F92BE0174B5B7BDBB277
:108EB000002B0CD0144B5B7BDBB2013BDAB2124BC4
:108EC0005A7300220121012000F03EF919E00E4BF7
:108ED0009B79DBB2002B0CD00B4B9B79DBB2013BB7
:108EE000DAB2094B9A7101220121012000F02CF91C
:108EF00007E000F01DF904E000BF02E000BF00E061
:108F000000BF03B000BD00BF1857002000B585B0FA
:108F100001900E20FFF799FD0346DAB22C4B1A7030
:108F20002C4A2D4BD31ADB081B0443F00303284AB9
:108F300012782A49184610F068FA254B1B78002B46
:108F400043D1274B1B680133254A1360244B1B6810
:108F50000A2B08D11420FFF78CFD0346002B23D0E9
:108F6000FFF758FE20E01E4B1B68032B0FD1142087
:108F7000FFF77FFD0346002B04D1FFF7F9FD00F05A
:108F8000D1F811E0FFF7F4FD00F0C6F80CE0144B47
:108F90001B68062B08D11420FFF76BFD0346002B3E
:108FA00002D0022003F070FB0E4B00224FF48041F0
:108FB00018460CF0A9FD0390039B002B05D00A4A2C
:108FC0004FF49C7103980CF085F900BF05B000BD0B
:108FD0002B570020A4B403007CB40300D0BB0300D3
:108FE0001457002060520020E8BB030000B587B092
:108FF00001900B468DF80330019B0E2B09D0019B8D
:109000000E2B76D8019B072B65D0019B0D2B5AD0D8
:109010006FE00E20FFF719FD0346DAB2364B1A70E7
:10902000354B1B78002B39D0344B18460CF0C4FD5F
:109030000490334A334BD31ADB081B0443F0030379
:10904000049A3149184610F0E0F9304B1B68002BA8
:1090500018D11420FFF70DFD0346002B12D0FEF7A8
:109060001BFA0390039B452B03D90398FFF79EFD42
:1090700008E0039B1D2B03D90398FFF797FD01E040
:10908000FFF7A6FD1E4A1F4BD31ADB081B0443F053
:1090900003031F49184610F0ABF925E01B4B0022D3
:1090A0001A60164B00224FF4804118460CF02CFD3C
:1090B0000590059B002B17D0164A4FF4B771059801
:1090C0000CF008F910E00D20FFF7BFFC0346002B61
:1090D0000CD0FFF7E5FB0720FFF7B7FC0346002B9A
:1090E00006D001F0D9FA03E000BF02E000BF00E0C3
:1090F00000BF00BF07B000BD2B570020605200200A
:10910000A4B403007CB4030038BC0300145700204F
:109110004CBC0300E8BB030008B51420FFF761FC5A
:1091200000BF08BD08B51420FFF748FC00BF08BD0C
:1091300008B50820FFF755FC0B20FFF752FC0C2068
:10914000FFF74FFC00BF08BD00B583B003468DF8A4
:1091500007300B468DF8063013468DF805309DF824
:109160000730002B03D00C20FFF728FC02E00C2076
:10917000FFF737FC9DF80630002B03D00820FFF7DF
:109180001DFC02E00820FFF72CFC9DF80530002BA9
:1091900003D00B20FFF712FC02E00B20FFF721FCAD
:1091A00000BF03B000BD000008B51D4B1B78002BAD
:1091B0001AD11C4B1B78002B09D01A4B00221A70B5
:1091C0000C20FFF70EFC0B20FFF7F8FB08E0154B17
:1091D00001221A700C20FFF7F1FB0B20FFF701FCB6
:1091E0000820FFF7FEFB19E00E4B1B78002B09D07F
:1091F0000C4B00221A700C20FFF7F3FB0820FFF73E
:10920000DDFB08E0074B01221A700C20FFF7D6FBAC
:109210000820FFF7E6FB0B20FFF7E3FB00BF08BDCC
:10922000115700202C57002000B583B003468DF85D
:1092300007309DF80730002B03D01320FFF7BEFB4B
:1092400002E01320FFF7CDFB00BF03B000BD00001C
:1092500000B595B00AF0DEF8034683F00103DBB2F7
:10926000002B0BD00AF072F81390139B002B05D043
:109270007B4A40F2022113980CF02CF8794A002125
:1092800079480CF007FC1290129B002B05D0744A11
:109290004FF4017112980CF01DF8744A01217448C2
:1092A0000CF0F8FB1190119B002B05D06C4A40F29A
:1092B000072111980CF00EF80820FFF75BFB0B203C
:1092C000FFF758FB0C20FFF755FB1420FFF752FB6C
:1092D0001320FFF74FFBFFF72BFFFFF71DFF1320B6
:1092E000FFF77FFB634B002240F2666118460CF0EB
:1092F0000BFC1090109B002B05D0594A40F2162110
:1093000010980BF0E7FF4FF420330F934FF4804396
:109310000E9300238DF8173000230493002303934A
:1093200000230D9300238DF83330534A534BD31A47
:10933000DB081B0443F003035149184610F058F8AA
:1093400001211120FFF726FB00210E20FFF722FB51
:1093500000210D20FFF71EFB0D20FFF776FB0346D3
:10936000002B00F0978003F0D7F9FFF7F7FB0CF024
:1093700073FC0D900E20FFF768FB0346002B0CBF1B
:10938000012300238DF833300E20FFF75EFB0346E8
:10939000002B50D19DF81730DBB283F00103DBB214
:1093A000002B12D001238DF817300D9B04930D9BD9
:1093B0000393314A314BD31ADB081B0443F00303F8
:1093C0003049184610F014F8D1E7049B19460D985F
:1093D0000CF036FC0790039B19460D980CF030FCFE
:1093E00002460E9B934210D80D9B0393079B9B0B49
:1093F0000693214A214BD31ADB081B0443F00303D5
:10940000069A2149184610F000F8079A0F9B9A42D5
:10941000ADD3184B18460CF0CFFB174A174BD31A95
:10942000DB081B0443F00303184918460FF0E0FF64
:1094300000F0DCFF9BE79DF81730DBB2002B96D0E5
:109440000D4A0E4BD31ADB081B0443F003031049EB
:1094500018460FF0CDFF00238DF8173087E700BFC7
:10946000E8BB03000D8F02000CBD0300998C0200C5
:1094700010BD030080520020A4B403007CB403009C
:1094800064BC030084BC0300A0BC0300B8BC0300A0
:10949000E0BC03004B4A02AB12681146198002334C
:1094A000120C1A7000238DF8093002AB464A194697
:1094B0000E2009F0BBFF0B900B9B002B05D0434AFD
:1094C0004FF418710B980BF005FF01210E200AF0E4
:1094D00029F803238DF8043000238DF805309DF81A
:1094E000063023F001038DF806309DF8063023F096
:1094F00002038DF806309DF8063023F004038DF842
:10950000063000238DF8053001AB2F4A194607209D
:1095100009F08CFF0A900A9B002B05D02B4A40F2E1
:1095200065210A980BF0D6FE0121072009F0FAFF09
:1095300003238DF8003000238DF801309DF80230B0
:1095400023F001038DF802309DF8023023F002036E
:109550008DF802309DF8023023F004038DF80230BC
:1095600000238DF801306B46174A19460D2009F08B
:109570005DFF0990099B002B05D0144A40F26A2137
:1095800009980BF0A7FE01210D2009F0CBFF0E205A
:10959000FFF75BFA0346002B10D10D4B00224FF46E
:1095A000804118460CF0B0FA0890089B002B05D0BB
:1095B000064A40F26F2108980BF08CFE00BF15B0F0
:1095C00000BD00BF08BD0300ED8F0200E8BB030033
:1095D0006052002072DF704700BF184673DF70478B
:1095E00000BF184674DF704700BF184676DF70472B
:1095F00000BF184677DF704700BF18467CDF704712
:1096000000BF184633DF704700BF184600B587B06B
:10961000019000238DF8173000238DF80F30019B47
:109620001B78002B02D0032B43D04EE003F002F94D
:1096300003468DF81730264A264BD31ADB081B0445
:1096400043F00300019B9B8A1A4623490FF0DDFE7D
:109650000023049312E01E4A1E4BD31ADB081B049E
:1096600043F00300019B1A69049B13441B781A46BC
:109670001A490FF0CAFE049B01330493019B9B8A95
:109680001A46049B9342E6D3114A124BD31ADB08C5
:109690001B0443F00303124918460FF0A9FE019B77
:1096A0001869019B9B8A9DF917201946FDF7DCFF7D
:1096B0000BE0074A074BD31ADB081B0443F00303F4
:1096C000084918460FF094FE00BF00BF07B000BD68
:1096D000A4B403007CB4030014BD030020BD030048
:1096E00028BD03002CBD030000B583B0FFF78AFF3F
:1096F0000190019B0093009B002B04D0034A56214C
:1097000000980BF0E7FD00BF03B000BD48BD0300AB
:1097100000B583B003468DF807309DF80730002B65
:1097200001D0032B02E0FFF7DFFF00BF00BF03B053
:1097300000BD000000B583B00190044A712101987A
:109740000BF0C8FD00BF03B000BD00BF48BD030063
:1097500000B587B000230193164B019301AB194666
:10976000154807F050FF0590059B0493049B002BC0
:1097700004D0124A802104980BF0ACFD02AB042205
:109780000021184611F060FD0D4B029302AB194603
:109790000C4808F089FB0590059B0393039B002B65
:1097A00004D0064A882103980BF094FD00BF07B04F
:1097B00000BD00BF359702003857002048BD0300A8
:1097C0000D960200AC52002000B5AFB001ABAC2248
:1097D0000021184611F038FD02238DF804300023D3
:1097E0008DF8063005238DF807300123ADF8503091
:1097F000124B159301238DF87C3001238DF88030B6
:10980000A0232393002324930D4B2A9301AB1946E5
:109810000C4805F013F82D902D9B2C932C9B002BBE
:1098200004D0094AA1212C980BF054FD01210548D0
:1098300004F0F7FF00BF2FB000BD00BFC8520020EA
:10984000119702004457002048BD030000B585B0C1
:1098500001900B46ADF802300B4ABDF80230138080
:10986000BDF802301946094807F0EFFE0390039B4C
:109870000293029B002B04D0054AAB2102980BF007
:1098800029FD00BF05B000BDA052002038570020C0
:1098900048BD030000B585B001900B46ADF802301D
:1098A0001346ADF80030BDF800300DF10202019909
:1098B000034808F09FFB0390039B184605B000BDCA
:1098C000AC52002000B583B0144B1B884FF6FF72DA
:1098D00093420BD1124A134BD31ADB081B0443F0FB
:1098E0000303114918460FF083FD15E00B4B1B884D
:1098F00013211846FFF77AFE0190019B002B0BD035
:10990000074A084BD31ADB081B0443F00103019AF2
:10991000064918460FF079FD03B000BDA0520020A3
:10992000A4B403007CB40300A4BD0300B4BD0300D1
:1099300000B583B0194A1A4BD31ADB081B0443F055
:109940000303184918460FF053FD174B93F8543092
:109950001846FFF747FE0190104A114BD31ADB0857
:109960001B0443F00300104B93F854301A46019B3C
:109970000E490FF05AFD019B002B0CD0019B082BC8
:1099800009D0019B0093009B002B04D0084AD221F0
:1099900000980BF09FFC00BF03B000BDA4B403000F
:1099A0007CB40300CCBD030044570020DCBD0300A1
:1099B00048BD030000B585B001909DF80830012234
:1099C00062F303038DF808309DF80830012262F33A
:1099D00007138DF80830019811F0C7FB03469AB2BF
:1099E00002AB01991846FFF709FE039000BF05B0CE
:1099F00000BD000000B59BB0FEF71EFD18900023CF
:109A00008DF8673008AB3C220021184611F01CFC91
:109A100002238DF8203004238DF8233000238DF8A5
:109A2000223002F0F5FB0346002B07D0334B44F203
:109A300021321A8004238DF8673008E02F4B41F261
:109A400034221A80189BB3F9C2308DF86730189B06
:109A500003F1A0026B462A49184611F0C1F8274AC3
:109A60006B4693606B46184611F07FFB03469AB233
:109A7000224B9A80214B129301238DF84C30214BBD
:109A800093F8543019469DF967301A460120FFF7C4
:109A9000B1FD1790179B002B0CD11B4A1B4BD31AFF
:109AA000DB081B0443F00303179A194918460FF00B
:109AB000ACFC0AE0144A154BD31ADB081B0443F034
:109AC0000303144918460FF093FC08AB0022194613
:109AD0000C4805F0D0F81790179B002B0BD00A4AC2
:109AE0000A4BD31ADB081B0443F00303179A0A49F5
:109AF00018460FF08AFC00BF1BB000BD785B002049
:109B000000BE030044570020A4B403007CB403004B
:109B100004BE030020BE030034BE030000B595B0B0
:109B2000FEF78AFC1390404B1B788DF806303F4AB5
:109B30003F4BD31ADB081B0443F003033A4A127865
:109B40003C4918460FF061FC0123ADF8043002AB2C
:109B50003C220021184611F077FB06238DF80B30CC
:109B600002238DF8083002F053FB0346002B04D08B
:109B7000314B44F221321A8003E02F4B41F2342260
:109B80001A80139BA0332C4A9360139BA033184672
:109B900011F0EBFA03469AB2274B9A80264B0C93AE
:109BA00001238DF8343002AB00221946234805F01A
:109BB00062F81290129B002B0CD01C4A1C4BD31A3B
:109BC000DB081B0443F00303129A1D4918460FF0EB
:109BD0001CFC0AE0154A164BD31ADB081B0443F0A1
:109BE0000303184918460FF003FC04238DF847308F
:109BF000124B93F8543019469DF947301A4601200C
:109C0000FFF7F8FC1290129B002B0AD0074A084B72
:109C1000D31ADB081B0443F003030B4918460FF06B
:109C2000E7FB00BF15B000BDAC520020A4B4030098
:109C30007CB4030050BE0300845B00204457002026
:109C400060BE030080BE030020BE030000B589B0E3
:109C5000034600918DF80730374A384BD31ADB089A
:109C60001B0443F003039DF80720354918460FF005
:109C7000CCFBFEF7E1FB07909DF80730002B3BD0B3
:109C8000079B1846FFF796FEFFF7B4FE2D4B052203
:109C900083F83C20079BB3F8C430DB002A4A82FBE0
:109CA00003125210DB17D31A1A46264B5A64274A5E
:109CB00027492848FFF78EFC0690069B0493049BD7
:109CC000002B05D0244A4FF4B17104980BF002FB2D
:109CD0001C4B93F8543001211846FFF77FFC069087
:109CE000069B0393039B002B23D01B4A40F2651174
:109CF00003980BF0EFFA1CE0079B1846FFF75AFE9B
:109D0000FFF70CFF0F4BA0225A610E4B012283F884
:109D10003C2003210B4804F06DFE0690069B059342
:109D2000059B002B05D00C4A40F2871105980BF0DB
:109D3000D1FA00BF09B000BDA4B403007CB4030095
:109D400098BE03004457002067666666805700206F
:109D5000545B00209857002048BD030000B583B035
:109D60000190019B054A1A60019B054A5A60FFF762
:109D7000EFFCFFF729FD00BF03B000BD4D980200C6
:109D80009598020076DF704700BF18467FDF704766
:109D900000BF18468FDF704700BF1846B1DF70471D
:109DA00000BF184600B583B00190019B1B681846A0
:109DB00000F0E9F80346002B04D10B494FF4F6708C
:109DC00001F0A0FF019B1B681F2B02D84FF0A0439E
:109DD00006E0019B1B6803F01F02019B1A60034B06
:109DE000184603B000BD00BFACBE03000003005026
:109DF00000B585B00190084611461A4603468DF815
:109E000003300B468DF8023013468DF8013001AB5C
:109E10001846FFF7C7FF03909DF803209DF8023016
:109E20005B001A439DF801309B001A439DF81830DF
:109E30001B0242EA03019DF81C301B04019A1943DE
:109E4000039B02F5E07243F8221000BF05B000BD8D
:109E500000B585B0039000230193002300930023F5
:109E6000012201210398FFF7C3FF00BF05B000BD29
:109E700000B585B003900B468DF80B309DF80B3084
:109E80000022019200220092002200210398FFF795
:109E9000AFFF00BF05B000BD00B585B0019001ABBC
:109EA0001846FFF77FFF0390019B012202FA03F39C
:109EB0001946039800F053F800BF05B000BD00B587
:109EC00085B0019001AB1846FFF76CFF0390019B32
:109ED000012202FA03F31946039800F04AF800BF82
:109EE00005B000BD00B585B0019001AB1846FFF785
:109EF00059FF0390039BD3F804350293029BDA4386
:109F0000019B012101FA03F31A40039BC3F80825C2
:109F1000019B01229A40029B1A40039BC3F80C2527
:109F200000BF05B000BD00B585B0019001AB18467B
:109F3000FFF738FF0390039800F009F80246019BF1
:109F400022FA03F303F00103184605B000BD82B006
:109F50000190019BD3F81035184602B0704782B0CB
:109F600001900091019B009AC3F8082500BF02B040
:109F7000704782B001900091019B009AC3F80C25B4
:109F800000BF02B0704784B00190019B5B0902934F
:109F900000230393029B002B03D0029B012B04D0D0
:109FA00007E04FF0FF33039303E04FF6FF73039393
:109FB00000BF019B03F01F030193039A019B22FA48
:109FC00003F303F00103DBB2184604B0704700004E
:109FD00000B58BB00190009100238DF82730019BD4
:109FE0001B88562B00F08D80562B00F39C80522B43
:109FF00062D0522B00F397803B2B70D03B2B00F3A9
:10A000009280212B2CD0212B00F38D80132B40D05C
:10A01000132B00F38880102B02D0112B0CD082E080
:10A02000484A494BD31ADB081B0443F00303474952
:10A0300018460FF0DDF981E0424A434BD31ADB08A2
:10A040001B0443F00303424918460FF0D1F9019B6A
:10A050001B7A8DF80B303F4B4FF6FF721A806DE084
:10A0600000238DF8083000238DF80930019B9B8870
:10A0700002AA11461846FFF78DFE0890089B04932C
:10A08000049B002B51D0344AC32104980BF022F9D1
:10A090004BE0304B1888002300228521FFF776FE25
:10A0A0000890089B0393039B002B40D02A4AC921A8
:10A0B00003980BF00FF93AE0264B18880023002292
:10A0C0000021FFF76BFE0890089B0693069B002B70
:10A0D0002FD0214ACF2106980BF0FCF829E0019BF4
:10A0E0009B8813211846FFF74DFE0890089B0593A7
:10A0F000059B002B1FD0184AD62105980BF0EAF8D3
:10A1000019E0019B9B8813211846FFF73BFE08903E
:10A11000089B0793079B002B0FD00F4ADD21079860
:10A120000BF0D8F809E000BF08E000BF06E000BF70
:10A1300004E000BF02E000BF00E000BF00BF0BB0C2
:10A1400000BD00BFA4B403007CB403002CBF030017
:10A1500034BF030010530020DCBE030008B50FF02D
:10A16000CFF9034683F00103DBB2002B01D00EF0E0
:10A170001BF900BF08BD00B583B001900B468DF8F8
:10A180000330019B0E2B08D0019B0E2B1CD8019B8A
:10A19000072B10D0019B0D2B16E00E20FFF7C3FEFE
:10A1A0000346002B03D00B20FFF789FE0CE00B20A9
:10A1B000FFF772FE08E00720FFF7B5FE0346002B0D
:10A1C00001D000F069FA00BF00BF03B000BD00007D
:10A1D00000B589B0594A02AB1268114619800233A2
:10A1E000120C1A7002AB564A19460E2009F01EF9DD
:10A1F0000790079B002B05D0524A4FF4B371079884
:10A200000BF068F801210E2009F08CF903238DF87A
:10A21000043000238DF805309DF8063023F001034B
:10A220008DF806309DF8063023F002038DF80630D5
:10A230009DF8063023F004038DF8063000238DF8D6
:10A24000053001AB3E4A19460D2009F0EFF80690A3
:10A25000069B002B05D03B4A4FF4B67106980BF0D5
:10A2600039F801210D2009F05DF903238DF8003044
:10A2700000238DF801309DF8023023F001038DF8A2
:10A2800002309DF8023023F002038DF802309DF871
:10A29000023023F004038DF8023000238DF80130E2
:10A2A0006B46274A1946072009F0C0F80590059B20
:10A2B000002B05D0234A40F2711105980BF00AF8E3
:10A2C0000121072009F02EF901211120FFF7D0FD0F
:10A2D0000820FFF7BDFD0B20FFF7BAFD0C20FFF7AC
:10A2E000B7FD1420FFF7B4FD1420FFF7E8FD0BF0D5
:10A2F000B3FC04904FF4004303930820FFF7CCFD18
:10A300000B20FFF7C9FD0C20FFF7C6FD00BF0BF0C7
:10A31000A3FC0346049918460BF092FC0246039BEB
:10A320009342F4D80820FFF7CAFD0B20FFF7C7FDC2
:10A330000C20FFF7C4FD00BF09B000BD60BF0300E3
:10A3400077A10200DCBE0300024B00221A6000BFAE
:10A35000704700BFAC5B0020024B01221A7000BFA7
:10A36000704700BFB15B002000B585B00190104B75
:10A370001B6801330E4A13600D4B1B68092B02D971
:10A380000C4B01221A70FDF781F80390039B41F2F8
:10A39000CB02934204D8039B40F64852934203D821
:10A3A000054B01221A7000BF00BF05B000BD00BF01
:10A3B000AC5B0020B15B0020B05B002000B583B037
:10A3C0000190084B1B78002B02D00820FFF78AFD74
:10A3D000054B1B78002B02D00C20FFF783FD00BF3C
:10A3E00003B000BDB05B0020B15B002000B585B0BC
:10A3F000FFF7EEFEFDF7F4F8FEF734FA00F086F80A
:10A4000000F0FCFF02F056FA00210020FFF71EFCCE
:10A410001A4A01211A480BF03DFB0390039B02935B
:10A42000029B002B05D0174A4FF4E47102980AF002
:10A4300051FF154B00224FF4804118460BF064FB8E
:10A44000124A012112480BF025FB0390039B019354
:10A45000019B002B05D00B4A40F2CD1101980AF068
:10A4600039FF0C4B00224FF4804118460BF04CFB97
:10A4700000F0C4FFFFF772FEFAE700BF69A3020015
:10A4800064BF0300DCBE0300D0520020BDA3020065
:10A4900068BF0300F052002000B585B00023ADF87E
:10A4A00004301B238DF80C3001AB1946002001F05D
:10A4B000A8FBBDF80430C3F308039BB2ADF80E301F
:10A4C000BDF80E30184605B000BD000000B583B0E1
:10A4D0000023019310E00C4A019B12F813308DF811
:10A4E000003000238DF801306B460221184601F040
:10A4F000C1FA019B01330193019B7B2BEBD900BF78
:10A5000000BF03B000BD00BF1453002000B585B0EC
:10A5100000238DF80B3001F01FFBFFF7D7FF00235E
:10A52000039333E0544A039B12F813308DF808303C
:10A53000514A039B5B0013445B788DF8093002ABF2
:10A540000221184601F096FA9DF80830012B0BD035
:10A550009DF80830022B07D09DF80830082B03D057
:10A560009DF80830092B0ED1444A454BD31ADB081D
:10A570001B0443F003009DF808301A469DF809308B
:10A5800040490EF052FF039B01330393039B7B2B47
:10A59000C8D901238DF8073000238DF806300DF15E
:10A5A00006020DF107000123012101F09BFA334A55
:10A5B000334BD31ADB081B0443F003039DF806203A
:10A5C000314918460EF021FF02238DF80730002391
:10A5D0008DF806300DF106020DF10700012301216F
:10A5E00001F080FA254A264BD31ADB081B0443F0FE
:10A5F00003039DF80620254918460EF006FF102398
:10A600008DF8073000238DF806300DF106020DF1AC
:10A6100007000123012101F065FA184A184BD31AEB
:10A62000DB081B0443F003039DF806201849184675
:10A630000EF0EBFE11238DF8073000238DF8063065
:10A640000DF106020DF107000123012101F04AFA84
:10A650000A4A0B4BD31ADB081B0443F003039DF893
:10A6600006200C4918460EF0D0FEFFF715FF01F04A
:10A6700061FA00BF05B000BD14530020A4B403006C
:10A680007CB403006CBF03007CBF03008CBF0300DD
:10A690009CBF0300ACBF0300024B01221A7000BF35
:10A6A000704700BFB25B002000B589B00346ADF82B
:10A6B00006300B46ADF804301346ADF80230BDF954
:10A6C000063007EE903AF8EEE77A9FED267A67EECD
:10A6D000877ACDED067ABDF9043007EE903AF8EEB0
:10A6E000E77A9FED207A67EE877ACDED057ABDF99E
:10A6F000023007EE903AF8EEE77A9FED1A7A67EEAD
:10A70000877ACDED047ADDED067A27EEA77ADDEDC6
:10A71000057A67EEA77A37EE277ADDED047A67EEE1
:10A72000A77A77EE277AB0EE670A10F049F98DED37
:10A73000030ADDED037AB7EE007A77EEC77ACDED46
:10A74000077ADDED077AF5EEC07AF1EE10FA02D560
:10A750004FF000030793079B07EE903AB0EE670AAD
:10A7600009B000BD40DA7F3800B587B00346ADF8C8
:10A7700006300B46ADF804301346ADF80230BDF993
:10A78000063007EE903AF8EEE77A9FED237A67EE0F
:10A79000877ACDED047ABDF9043007EE903AF8EEF1
:10A7A000E77A9FED1D7A67EE877ACDED037ABDF9E2
:10A7B000023007EE903AF8EEE77A9FED177A67EEEF
:10A7C000877ACDED027ADDED047A27EEA77ADDED0A
:10A7D000037A67EEA77A37EE277ADDED027A67EE25
:10A7E000A77A77EE277AB0EE670A10F0E9F88DEDD8
:10A7F000050ADDED057AB0EE007AF4EEC77AF1EEE7
:10A8000010FA02D54FF000030593059B07EE903A2E
:10A81000B0EE670A07B000BD295C8F3D00B585B07A
:10A82000BA4ABB4BD31ADB081B0443F00300B94BF5
:10A830009B8F1A46B74BDB8FB7490EF0F6FDB54B31
:10A840009B8F002B03D0B34BDB8F002B0ED1AF4A75
:10A85000AF4BD31ADB081B0443F00303AF49184680
:10A860000EF0C6FDAE4B00221A70C4E2A94B9B8FBE
:10A8700007EE903AF8EE677ACDED037AA54BDB8FC1
:10A8800007EE903AF8EE677ACDED027AA14BD3ED60
:10A89000006A9DED037AC6EE877AA24BC3ED007A7B
:10A8A0009C4BD3ED016A9DED037AC6EE877A9D4BF2
:10A8B000C3ED017A974BD3ED026A9DED037AC6EEA4
:10A8C000877A984BC3ED027A924B93ED037ADDEDD4
:10A8D000037AC7EE276AB0EE660A10F071F8F0EE60
:10A8E000407A904BC3ED037A8A4B93ED047ADDED09
:10A8F000037AC7EE276AB0EE660A10F061F8F0EE50
:10A90000407A884BC3ED047A824B93ED057ADDEDF6
:10A91000037AC7EE276AB0EE660A10F051F8F0EE3F
:10A92000407A804BC3ED057A7A4BD3ED066A9DEDF4
:10A93000027AC6EE877A7B4BC3ED067A754BD3ED70
:10A94000076A9DED027AC6EE877A764BC3ED077AE9
:10A95000704BD3ED086A9DED027AC6EE877A714B93
:10A96000C3ED087A6B4B93ED097ADDED027AC7EE01
:10A97000276AB0EE660A10F023F8F0EE407A694BD1
:10A98000C3ED097A634B93ED0A7ADDED027AC7EEE7
:10A99000276AB0EE660A10F013F8F0EE407A614BC9
:10A9A000C3ED0A7A5B4B93ED0B7ADDED027AC7EECD
:10A9B000276AB0EE660A10F003F8F0EE407A594BC1
:10A9C000C3ED0B7A534B1B6B564A1363514B5B6BB6
:10A9D000544A53634F4B9B6B524A9363504B002234
:10A9E0001A704A4A4A4BD31ADB081B0443F003038C
:10A9F0004D4918460EF0FCFC444A454BD31ADB087F
:10AA00001B0443F00300474BD3ED007AF5EEC07A08
:10AA1000F1EE10FA0BD5434BD3ED007ABFEE007A7E
:10AA2000F4EEC77AF1EE10FA01DD404A00E0404A48
:10AA30003C4BD3ED007AFDEEE77A17EE901A394BD6
:10AA4000D3ED007AF5EEC07AF1EE10FA0CDD354B5D
:10AA500093ED007A334BD3ED007AFDEEE77AF8EE12
:10AA6000E77A77EE677A0BE02E4BD3ED007AFDEEB6
:10AA7000E77AB8EEE77A2B4BD3ED007A77EE677A78
:10AA80009FED2C7A67EE877AFDEEE77A17EE903A23
:10AA900000930B4628490EF0DBFC1C4A1C4BD31AD2
:10AAA000DB081B0443F003001E4BD3ED017AF5EEE7
:10AAB000C07AF1EE10FA0BD51A4BD3ED017ABFEE46
:10AAC000007AF4EEC77AF1EE10FA01DD174A00E0E1
:10AAD000174A144BD3ED017AFDEEE77A17EE901A80
:10AAE000104BD3ED017AF5EEC07AF1EE10FA25DDC8
:10AAF0000C4B93ED017A0B4BD3ED017AFDEEE77A27
:10AB0000F8EEE77A77EE677A24E000BFA4B403009A
:10AB10007CB40300F05B0020BCBF0300DCBF03007B
:10AB2000305C0020B45B0020F4BF03000CC00300C5
:10AB300010C003000000C84214C00300AF4BD3EDA7
:10AB4000017AFDEEE77AB8EEE77AAC4BD3ED017A05
:10AB500077EE677A9FEDAA7A67EE877AFDEEE77A5D
:10AB600017EE903A00930B46A6490EF071FCA64AE8
:10AB7000A64BD31ADB081B0443F003009F4BD3ED15
:10AB8000027AF5EEC07AF1EE10FA0BD59B4BD3EDBD
:10AB9000027ABFEE007AF4EEC77AF1EE10FA01DD28
:10ABA0009B4A00E09B4A954BD3ED027AFDEEE77A93
:10ABB00017EE901A914BD3ED027AF5EEC07AF1EED2
:10ABC00010FA0CDD8D4B93ED027A8C4BD3ED027AAB
:10ABD000FDEEE77AF8EEE77A77EE677A0BE0874BDF
:10ABE000D3ED027AFDEEE77AB8EEE77A834BD3ED48
:10ABF000027A77EE677A9FED827A67EE877AFDEECA
:10AC0000E77A17EE903A00930B4683490EF020FC4A
:10AC10007D4A7E4BD31ADB081B0443F00300774BBD
:10AC2000D3ED067AF5EEC07AF1EE10FA0BD5734B40
:10AC3000D3ED067ABFEE007AF4EEC77AF1EE10FAA1
:10AC400001DD734A00E0734A6C4BD3ED067AFDEEEA
:10AC5000E77A17EE901A694BD3ED067AF5EEC07AD3
:10AC6000F1EE10FA0CDD654B93ED067A634BD3EDF4
:10AC7000067AFDEEE77AF8EEE77A77EE677A0BE090
:10AC80005E4BD3ED067AFDEEE77AB8EEE77A5B4BE2
:10AC9000D3ED067A77EE677A9FED597A67EE877A79
:10ACA000FDEEE77A17EE903A00930B465B490EF003
:10ACB000CFFB554A554BD31ADB081B0443F0030066
:10ACC0004E4BD3ED077AF5EEC07AF1EE10FA0BD5C4
:10ACD0004A4BD3ED077ABFEE007AF4EEC77AF1EE75
:10ACE00010FA01DD4A4A00E04A4A444BD3ED077AA4
:10ACF000FDEEE77A17EE901A404BD3ED077AF5EEAA
:10AD0000C07AF1EE10FA0CDD3C4B93ED077A3B4B29
:10AD1000D3ED077AFDEEE77AF8EEE77A77EE677A19
:10AD20000BE0364BD3ED077AFDEEE77AB8EEE77A23
:10AD3000324BD3ED077A77EE677A9FED317A67EE83
:10AD4000877AFDEEE77A17EE903A00930B46344986
:10AD50000EF07EFB2C4A2D4BD31ADB081B0443F06C
:10AD60000300264BD3ED087AF5EEC07AF1EE10FA27
:10AD70000BD5224BD3ED087ABFEE007AF4EEC77AFA
:10AD8000F1EE10FA01DD224A00E0224A1B4BD3ED1E
:10AD9000087AFDEEE77A17EE901A184BD3ED087A91
:10ADA000F5EEC07AF1EE10FA0CDD144B93ED087A53
:10ADB000124BD3ED087AFDEEE77AF8EEE77A77EEFC
:10ADC000677A0BE00D4BD3ED087AFDEEE77AB8EE2B
:10ADD000E77A0A4BD3ED087A77EE677A9FED087A27
:10ADE00067EE877AFDEEE77A17EE903A00930B460E
:10ADF0000C490EF02DFB05B000BD00BFB45B002078
:10AE00000000C84228C00300A4B403007CB40300BF
:10AE10000CC0030010C003003CC0030050C003007E
:10AE200064C0030078C0030092B001900023119326
:10AE300090E1119A1346DB009B1A1093109B019A24
:10AE400013441B78DB088DF83F309DF83F30022B10
:10AE500040F0A080109B0233019A13441B781BB270
:10AE60001B021AB2109B013301990B441B781BB2D1
:10AE70001343ADF81E30109B0433019A13441B7822
:10AE80001BB21B021AB2109B033301990B441B78AF
:10AE90001BB21343ADF81C30109B0633019A1344C8
:10AEA0001B781BB21B021AB2109B053301990B448D
:10AEB0001B781BB21343ADF81A30BDF91A3007EEF8
:10AEC000903AF8EEE77A9FEDA77A67EE877ACDEDB4
:10AED000057ABDF91C3007EE903AF8EEE77A9FED5F
:10AEE000A17A67EE877ACDED047ABDF91E3007EEC0
:10AEF000903AF8EEE77A9FED9B7A67EE877ACDED90
:10AF0000037A994B93ED007ADDED057A77EE277A97
:10AF1000954BC3ED007A944B93ED017ADDED047A05
:10AF200077EE277A904BC3ED017A8F4B93ED027A3F
:10AF3000DDED037A77EE277A8B4BC3ED027A8A4BED
:10AF400093ED037ADDED057A67EEA77A77EE277A3F
:10AF5000854BC3ED037A844B93ED047ADDED047ADF
:10AF600067EEA77A77EE277A7F4BC3ED047A7E4BA4
:10AF700093ED057ADDED037A67EEA77A77EE277A0F
:10AF8000794BC3ED057A784B9B8F01339AB2764BA0
:10AF90009A87DCE09DF83F30012B40F0D880109B71
:10AFA0000233019A13441B781BB21B021AB2109B86
:10AFB000013301990B441B781BB21343ADF83C30AD
:10AFC000109B0433019A13441B781BB21B021AB264
:10AFD000109B033301990B441B781BB21343ADF84C
:10AFE0003A30109B0633019A13441B781BB21B02A4
:10AFF0001AB2109B053301990B441B781BB2134303
:10B00000ADF83830BDF93C3007EE903AF8EEE77A0B
:10B010009FED567A67EE877ACDED0D7ABDF93A301D
:10B0200007EE903AF8EEE77A9FED507A67EE877A6E
:10B03000CDED0C7ABDF9383007EE903AF8EEE77AAC
:10B040009FED4A7A67EE877ACDED0B7ADDED0D7ACA
:10B05000F0EEE77ACDED0A7ADDED0C7AF0EEE77AE4
:10B06000CDED097ADDED0B7AF0EEE77ACDED087AD9
:10B070003D4B93ED067ADDED0A7A77EE277A3A4B6F
:10B08000C3ED067A384B93ED077ADDED097A77EE5A
:10B09000277A354BC3ED077A334B93ED087ADDED14
:10B0A000087A77EE277A304BC3ED087A2E4B93ED72
:10B0B000097ADDED0D7A67EEA77A77EE277A2A4BCB
:10B0C000C3ED097A284B93ED0A7ADDED0C7A67EE31
:10B0D000A77A77EE277A244BC3ED0A7A224B93EDB9
:10B0E0000B7ADDED0B7A67EEA77A77EE277A1E4BA7
:10B0F000C3ED0B7A1C4BD3ED0C7A9DED0A7AB4EEBE
:10B10000E77AF1EE10FA02DD174A0A9B1363164B39
:10B11000D3ED0D7A9DED097AB4EEE77AF1EE10FAEF
:10B1200002DD114A099B53630F4BD3ED0E7A9DED5F
:10B13000087AB4EEE77AF1EE10FA02DD0A4A089BCB
:10B140009363094BDB8F01339AB2074BDA87119B6C
:10B1500001331193119B4A2B7FF76BAE00BF00BFE9
:10B1600012B0704740DA7F38F05B0020295C8F3DD9
:10B1700000B58FB001904FF000030D934FF0000326
:10B180000C930023ADF82E300023ADF82C300023B3
:10B190000A93A9E00A9A1346DB009B1A0693069BC2
:10B1A000019A13441B78DB088DF817309DF817308F
:10B1B000022B49D1069B0233019A13441B781BB220
:10B1C0001B021AB2069B013301990B441B781BB278
:10B1D0001343ADF80E30069B0433019A13441B78D9
:10B1E0001BB21B021AB2069B033301990B441B7856
:10B1F0001BB21343ADF80C30069B0633019A13447F
:10B200001B781BB21B021AB2069B053301990B4433
:10B210001B781BB21343ADF80A30BDF90E20BDF9FF
:10B220000C10BDF90A301846FFF73EFAB0EE407A2E
:10B23000DDED0D7A77EE877ACDED0D7ABDF82E3003
:10B240000133ADF82E304CE09DF81730012B48D17A
:10B25000069B0233019A13441B781BB21B021AB2DD
:10B26000069B013301990B441B781BB21343ADF8C5
:10B270001430069B0433019A13441B781BB21B0243
:10B280001AB2069B033301990B441B781BB213437C
:10B29000ADF81230069B0633019A13441B781BB29B
:10B2A0001B021AB2069B053301990B441B781BB293
:10B2B0001343ADF81030BDF91020BDF91210BDF9DF
:10B2C00014301846FFF750FAB0EE407ADDED0C7AF4
:10B2D00077EE877ACDED0C7ABDF82C300133ADF8DE
:10B2E0002C300A9B01330A930A9B4A2B7FF752AFFB
:10B2F0004FF000030993BDF82E30002B0CD0BDF8A1
:10B300002E3007EE903AB8EE677ADDED0D6AC6EEA4
:10B31000877ACDED087A02E04FF000030893BDF87C
:10B320002C30002B0CD0BDF82C3007EE903AB8EE44
:10B33000677ADDED0C6AC6EE877ACDED077A02E01A
:10B340004FF000030793BDF82E30002B0FD0BDF84F
:10B350002E3007EE903AB8EE677ADDED0D6AC6EE54
:10B36000877A9DED097A77EE277ACDED097ABDF8D7
:10B370002C30002B13D0BDF82C3007EE903AB8EEED
:10B38000677ADDED0C6AC6EE877A9FED0B7A67EE81
:10B39000877A9DED097A77EE277ACDED097ADDED92
:10B3A000097A9FED067A67EE877AFCEEE77A17EE68
:10B3B000903A18460FB000BD6F12033B00007A446C
:10B3C00000B585B001900B46ADF8023078238DF8BA
:10B3D0000D3000238DF80F3000238DF80E30BDF8AE
:10B3E00002300DF10D00019A012100F07BFB019864
:10B3F000FFF7BEFE0346184605B000BD00B587B096
:10B4000000230493344B1B78002B62D0FEF79CFF83
:10B4100000F0A2FBFFF740F80346ADF80E302F4ACC
:10B4200002AB92E8030018600433198000230593EF
:10B4300022E002AA059B13441B788DF807300023F5
:10B440008DF806300DF106020DF1070001230121F0
:10B4500000F048FB224A234BD31ADB081B0443F0BD
:10B4600003009DF807301A469DF806301E490DF07E
:10B47000DCFF059B01330593059B052BD9DD164B9E
:10B4800000221A70BDF80E304A2B1DD940F20D2152
:10B490001648FFF795FF0490049800F0D1F8104A81
:10B4A000104BD31ADB081B0443F00303049A104922
:10B4B00018460DF0AAFF0F4B1B78002B04D00B4849
:10B4C000FFF7B2FCFFF7AAF900F034FB0020FBF70E
:10B4D000E9FF00BF07B000BDB25B0020D8C0030089
:10B4E000A4B403007CB40300B4C00300345C0020A7
:10B4F000C8C00300305C0020014B1846704700BFF5
:10B50000445E002086B00190019B08330593059BA3
:10B51000A3F58022144BA3FB0213590B0B465B00CF
:10B520000B441B03D31A0493049BB3F5345F0FD36E
:10B53000059BA3F580230C4AA2FB03235B0B03931B
:10B54000039A13465B0013441B0303F586230593FC
:10B55000059BB3F5982F02D34FF480230593059BE9
:10B56000184606B0704700BFABAAAAAA8EB0002347
:10B570000D9300230C932F4B1B680B932E4B1B68D2
:10B580000A930B9A0A9B9A421CD80A9A0B9BD31ACD
:10B590000D930B9BA3F58023284AA2FB03235B0B8F
:10B5A00003930A9BA3F58023244AA2FB03235B0B8E
:10B5B0000293029A039BD21A13465B0013441B02A8
:10B5C0000C9327E00A9A0B9BD31A03F540430D9383
:10B5D0000B9BA3F58023194AA2FB03235B0B099362
:10B5E000042308930A9BA3F58023144AA2FB032398
:10B5F0005B0B0793089A099BD31A0693079B059345
:10B60000069A059B13440493049A13465B00134463
:10B610001B020C930D9A0C9B9A4201D2002305E069
:10B620000D9A0C9BD31A0193019BDB0818460EB0B0
:10B63000704700BF1854002014540020ABAAAAAAD7
:10B6400000B58BB0039004AB0822002118460FF020
:10B65000FBFD4A4B1B690133484A1361474B5A694A
:10B66000039B1344454A5361454A464BD31ADB08B2
:10B670001B0443F00300414B1A69404B5B69009384
:10B68000039B41490DF0E4FEFCF7D6FE09903B4BCD
:10B690001B69099AB2F8C0203C49A1FB021292082A
:10B6A00092B2934267D33A4B1B681846FFF72AFFC2
:10B6B0000890384B1B68089A9A422DD1344B1A686F
:10B6C000344B1B689A4227D0324B1B68A3F580236A
:10B6D000314AA2FB03235B0B0793079A13465B00D7
:10B6E00013441B0303F586232A4A1360294B1B6866
:10B6F000B3F5982F03D3274B4FF480221A60204ACA
:10B70000204BD31ADB081B0443F00203214A1268C2
:10B71000224918460DF079FE184B5A69174B1B69E0
:10B72000B2FBF3F39BB2ADF81030154A154BD31AA8
:10B73000DB081B0443F00303BDF81020184918462A
:10B740000DF063FE124B1B6804A908221846FCF793
:10B75000B9FE0690069B002B02D10D4A089B136090
:10B76000104B1B6801330F4A1360044B00225A61CF
:10B77000024B00221A6100BF0BB000BD445E0020E6
:10B78000A4B403007CB40300E0C00300CDCCCCCC57
:10B790000C54002010540020ABAAAAAA00C1030038
:10B7A00044C10300C05E002000B587B001900023B3
:10B7B0008DF81730019B0233049357E03B4B1B6815
:10B7C00002A908221846FCF7EFFEBDF808109DF804
:10B7D00017305B00049A1A440B46C3F30D0399B269
:10B7E000138861F30D0313809DF817305B00049AF2
:10B7F00013441B88C3F30D039BB2C82B0AD99DF8D1
:10B8000017305B00049A1A445378022161F38713BE
:10B8100053701EE09DF817305B00049A13441B8898
:10B82000C3F30D039BB2502B0AD99DF817305B0070
:10B83000049A1A445378012161F38713537008E086
:10B840009DF817305B00049A1A44537823F0C00324
:10B8500053709DF8173001338DF81730134B1B6868
:10B860001846FFF74FFE0346104A13609DF8173045
:10B87000082B05D80D4B1A680D4B1B689A429DD1B9
:10B880009DF81730002B07D0084B1A68084B1B682F
:10B890009A4201D0012306E09DF81730002B01D019
:10B8A000002300E00023184607B000BD1854002014
:10B8B00014540020024B1B68024A136000BF7047FB
:10B8C000185400201054002008B5134B1B68134A6D
:10B8D0001360134B1B68134A1360134A134BD31A9C
:10B8E000DB081B0443F003000C4B1A680A4B1B686F
:10B8F0000F490DF09AFD0C4A0C4BD31ADB081B04C0
:10B9000043F00300074B1A68054B1B6809490DF00B
:10B910008CFD00BF08BD00BF0C5400201454002053
:10B920001054002018540020A4B403007CB4030079
:10B9300064C1030098C1030000B583B00190019B6E
:10B940001B68184600F072F80346002B04D10B491F
:10B950004FF4F67000F0D6F9019B1B681F2B02D83C
:10B960004FF0A04306E0019B1B6803F01F02019B00
:10B970001A60034B184603B000BD00BFD4C10300DA
:10B980000003005000B585B00190084611461A46E4
:10B9900003468DF803300B468DF8023013468DF8C0
:10B9A000013001AB1846FFF7C7FF03909DF8032055
:10B9B0009DF802305B001A439DF801309B001A434A
:10B9C0009DF818301B0242EA03019DF81C301B044D
:10B9D000019A1943039B02F5E07243F8221000BF5D
:10B9E00005B000BD00B585B003900B468DF80B3057
:10B9F0009DF80B30002201920022009200220021CB
:10BA00000398FFF7BFFF00BF05B000BD00B585B0CC
:10BA100003900023019300230093002301220021BF
:10BA20000398FFF7AFFF00BF05B000BD84B00190E1
:10BA3000019B5B09029300230393029B002B03D01D
:10BA4000029B012B04D007E04FF0FF33039303E088
:10BA50004FF6FF73039300BF019B03F01F03019395
:10BA6000039A019B22FA03F303F00103DBB21846A9
:10BA700004B0704700B587B003900B46ADF80A30AC
:10BA8000BDF80A3000220092039A6A21114809F099
:10BA9000E3FA0590059B002B18D00F4A0F4BD31AE1
:10BAA000DB081B0443F00100039B1B781A46BDF81A
:10BAB0000A30012B03D9039B01331B7800E00023DC
:10BAC00000931346059A06490DF0C2FC00BF07B06B
:10BAD00000BD00BFCCC10300A4B403007CB40300CC
:10BAE00004C2030000B587B0059003921A460B46C6
:10BAF000ADF812301346ADF81030BDF81230012207
:10BB00000092059A6A210A4809F0A6FABDF8103099
:10BB1000002B09D0039B002B06D0BDF81030039AF0
:10BB20006A21034809F0BFFA00BF07B000BD00BF9B
:10BB3000CCC1030008B5074808F050FF054808F0DD
:10BB4000DFFE0520FFF762FF0420FFF75FFF00BF65
:10BB500008BD00BFCCC1030010B586B0032105208D
:10BB6000FFF740FF03210420FFF73CFF0D4B6C461D
:10BB70000FCB84E80F006946002300220A4808F032
:10BB800017FE0590059B0493049B002B04D0074AE5
:10BB90004F21049809F09EFB034808F0F7FE00BF10
:10BBA00006B010BD7CC20300CCC103002CC2030050
:10BBB00000B587B0039001921A460B468DF80B3002
:10BBC0001346ADF8083000230593BDF808300DF199
:10BBD0000B00019A0121FFF785FF059B184607B06E
:10BBE00000BD82B001900091019B002B06D0009B0C
:10BBF000002B03D0009B1A78019B1A7000BF02B083
:10BC0000704700B587B0019000910023ADF8103067
:10BC100000238DF80C300023059304AA02231B2176
:10BC20000198FFF7C5FF0590059B002B01D0059BF0
:10BC300041E004AB5A1C03AB11461846FFF7D1FF95
:10BC40009DF80C30C3F30013D9B2009A537861F316
:10BC5000410353709DF80C30C3F38013D9B2009A9E
:10BC6000537861F3C30353709DF80C30C3F3401352
:10BC7000D9B2009A537861F3820353709DF80C3067
:10BC8000C3F3C013D9B2009A537861F3041353700D
:10BC90009DF810301AB29DF811301BB21B021BB276
:10BCA00013431BB2C3F3080399B2009A138861F3DC
:10BCB00008031380059B184607B000BD76DF704768
:10BCC00000BF18467ADF704700BF18467FDF704715
:10BCD00000BF184688DF704700BF184689DF7047ED
:10BCE00000BF18468EDF704700BF18468FDF7047D1
:10BCF00000BF1846B1DF704700BF18463FDF7047EE
:10BD000000BF184600B583B003460091ADF8063079
:10BD1000BDF80630009A1946024809F0DBFA00BF68
:10BD200003B000BDEFBEADDE00B585B06B460822A6
:10BD3000002118460FF088FA5023ADF80030A023F8
:10BD4000ADF802300423ADF804304FF41673ADF8AB
:10BD500006306B461846FFF7B5FF0390039B02932E
:10BD6000029B002B04D0044AC621029809F0B2FAC3
:10BD700000BF05B000BD00BFBCC2030000B585B068
:10BD80000190019B1B78002B10D10A4B1B883B2193
:10BD90001846FFF793FF0390039B0293029B002B2F
:10BDA00004D0054AE921029809F094FA00BF05B0D1
:10BDB00000BD00BF1C540020BCC2030000B583B00E
:10BDC0000190044AF421019809F084FA00BF03B0FD
:10BDD00000BD00BFBCC2030000B58BB001AB1C228C
:10BDE000002118460FF030FA002301934FF4A033DE
:10BDF00002934FF4F023039303238DF810300023B4
:10BE0000ADF8123000238DF814300B4B06930B4B1A
:10BE1000079301AB184603F0FDF80990099B0893BE
:10BE2000089B002B05D0064A40F20B11089809F038
:10BE300051FA00BF0BB000BD7DBD0200BDBD0200C8
:10BE4000BCC2030000B58DB00190009100238DF8B5
:10BE50002F30019B1B88562B00F0D080562B00F30F
:10BE6000E080522B00F0A380522B00F3DA803B2BB2
:10BE700000F0B1803B2B00F3D480212B69D0212B23
:10BE800000F3CF80132B7ED0132B00F3CA80102B2E
:10BE900002D0112B33D0C4E0FCF780FE019B9A88BE
:10BEA000674B1A80674B1B78022B02D0032B0BD0F9
:10BEB00018E0654B9B68624A1288114601989847C2
:10BEC000624B00221A700DE05F4B1B685C4A1288BF
:10BED0001146019898475D4B01221A70019B083367
:10BEE000039300BF01215A4800F0CAFA0022002142
:10BEF000002000F06FFB574B04221A709CE0564A5A
:10BF0000564BD31ADB081B0443F00300019B1B7A3A
:10BF10001A4653490DF079FA019B9B88ADF812300F
:10BF2000474B1B884FF6FF72934204D0444B1B884B
:10BF30001846FFF7D3FE00F0C9FB012000F0A4FB78
:10BF40000021002000F09CFA3D4B4FF6FF721A8052
:10BF500072E000238DF8083000238DF80930019B32
:10BF60009B8802AA11461846FFF7C0FE0A900A9B5A
:10BF70000693069B002B56D03A4A4FF4A8710698B8
:10BF800009F0A8F94FE02E4B1888002300228521E4
:10BF9000FFF79CFE0A900A9B0593059B002B44D05B
:10BFA000304A4FF4AB71059809F094F93DE0244B09
:10BFB0001888002300220021FFF79CFE0A900A9BAC
:10BFC0000893089B002B32D0264A4FF4AE71089894
:10BFD00009F080F92BE0019B9B8813211846FFF79D
:10BFE0006DFE0A900A9B0793079B002B21D01D4AE8
:10BFF00040F26311079809F06DF91AE0019B9B88E4
:10C0000013211846FFF75AFE0A900A9B0993099BD1
:10C01000002B10D0134A4FF4B571099809F05AF962
:10C0200009E000BF08E000BF06E000BF04E000BF79
:10C0300002E000BF00E000BF00BF0DB000BD00BFC8
:10C040001C540020F35E0020E05E0020805400209D
:10C05000A0BB0D00F25E0020A4B403007CB403007A
:10C0600008C30300BCC2030000B587B00EF070F92E
:10C070000590059B0493049B002B05D0154A40F2C4
:10C080007D11049809F026F90023019301AB1946AC
:10C0900001200EF06FFA0590059B0393039B002B84
:10C0A00005D00C4A40F28311039809F013F901AB53
:10C0B00018460EF07DFB0590059B0293029B002B1A
:10C0C00005D0044A4FF4C371029809F003F900BF88
:10C0D00007B000BDBCC2030000B583B00190009161
:10C0E000009B5A88104B1B889A421AD1009B1B88D0
:10C0F00040F67722934214D1009B9B88033B9AB26F
:10C100000A4B1A800A4A0B4BD31ADB081B0443F074
:10C110000300064B1B881A46044B1B8806490DF08A
:10C1200084F900BF03B000BD1C5400201E54002041
:10C13000A4B403007CB4030018C3030000B585B0A9
:10C140001149124804F071FD0390039B0293029B76
:10C15000002B05D00E4A40F2A111029809F0BAF85E
:10C16000F7210A4804F08BFD0390039B0193019B88
:10C17000002B05D0064A4FF4D271019809F0AAF8B5
:10C1800000BF05B000BD00BFD9C00200C45E0020E2
:10C19000BCC2030000B583B04FF4804100200CF016
:10C1A0005DFE0190019B0093009B002B05D0054A8A
:10C1B00040F2AD11009809F08DF80CF0E7FD00BFDA
:10C1C00003B000BDBCC2030000B583B00CF0D6F8CC
:10C1D0000190019B0093009B002B05D0044A40F284
:10C1E000B911009809F076F800BF03B000BD00BF98
:10C1F000BCC2030008B50DF083F9034683F00103C8
:10C20000DBB2002B01D00CF0CFF800BF08BD00005E
:10C21000064B1B78032B03D0044B1B78042B01D156
:10C22000012300E00023DBB218467047F25E0020D5
:10C2300000B585B00190FCF7FFF80390304B1A78F9
:10C24000304B1A702F4B1B78042B48D0042B53DC37
:10C25000032B34D0032B4FDC022B1ED0022B4BDCE4
:10C26000002B02D0012B10D046E00020FCF7F0FCA0
:10C2700000210120FDF7EAFCFBF7D0FF42F210722B
:10C280000121012000F0A6F936E000F0F1F9642266
:10C290000121022000F09EF92EE0FBF70FFF03467C
:10C2A000002B05D064220121032000F093F923E044
:10C2B00040F6B8320121032000F08CF91CE000F0B8
:10C2C000D7F90120FCF7C4FC00210020FDF7BEFCDB
:10C2D00042F210720121042000F07CF90CE0FDF71D
:10C2E00027FBFCF7D1FCFCF729FC42F2107201217C
:10C2F000002000F06FF900BF00BF05B000BD00BF17
:10C30000F15E0020F35E002000B585B00190114A77
:10C31000114BD31ADB081B0443F003030F491846E3
:10C320000DF066F80E4B1B884FF6FF72934204D057
:10C3300000F080FA03468DF80F309DF90F30194652
:10C340000020FBF7DFF90121064800F099F800BF53
:10C3500005B000BDA4B403007CB4030060C30300B7
:10C360001C540020A0BB0D0000B583B00190234BEE
:10C370001B78062B3AD0062B3ADC052B2DD0052B4B
:10C3800036DC042B1CD0042B32DC022B0FD0022B0A
:10C390002EDC002B2ED0012B00D029E064220121BD
:10C3A000002000F017F9154B03221A7023E06422D5
:10C3B0000121032000F00EF9104B03221A701AE03D
:10C3C000FDF7B6FA0E4B1B88002200211846FFF736
:10C3D00081FC0A4B05221A700DE000210120FDF7B7
:10C3E00035FC00F08FF9054B06221A7000BF02E001
:10C3F00000BF00E000BF00BF03B000BDF25E002040
:10C400001C54002000B585B001900B46ADF80230F9
:10C4100006230393144B1B78002B0BD0012B13D155
:10C42000124B5B68124A1288BDF8021001989847B7
:10C43000039009E00D4BDB680D4A1288BDF802102D
:10C4400001989847039000BF0A4A0B4BD31ADB08A8
:10C450001B0443F00303039A084918460CF0D5FF68
:10C46000039B184605B000BD80540020E05E00200C
:10C470001C540020A4B403007CB4030088C3030050
:10C48000F0B587B001900B468DF80330019B002278
:10C490001C4615464FF000024FF00003EB0343EA41
:10C4A0005443E20312F57A7643F100074FF4FA623F
:10C4B0004FF00003304639460EF086FA02460B462E
:10C4C00013460593134B184609F076FB9DF803308D
:10C4D000002B1CD00F4B00220599184609F014FBC5
:10C4E0000490049B0393039B002B05D00A4A40F25F
:10C4F0009721039808F0EEFE084A094BD31ADB088F
:10C500001B0443F00303074918460CF071FF00BFFA
:10C5100007B0F0BD40540020BCC20300A4B4030027
:10C520007CB403009CC3030000B587B009F076FA21
:10C530000590059B0493049B002B05D01E4A40F2F6
:10C540009F21049808F0C6FE1C4A01211C4809F0EE
:10C55000A1FA0590059B0393039B002B05D0164A77
:10C5600040F2A521039808F0B5FE164A00211648AE
:10C5700009F090FA0590059B0293029B002B05D0D1
:10C580000D4A40F2A921029808F0A4FE0F4A0121A9
:10C590000F4809F07FFA0590059B0193019B002B42
:10C5A00005D0054A40F2AF21019808F093FEFBF751
:10C5B00007FA00BF07B000BDBCC2030069C3020098
:10C5C00040C5030031C2020048C5030009C3020090
:10C5D00044C50300F0B585B003468DF807300B461F
:10C5E0008DF806301346ADF80430BDF80430002253
:10C5F0001C4615464FF000024FF00003EB0343EAE0
:10C600005443E20312F57A7643F100074FF4FA62DD
:10C610004FF00003304639460EF0D6F902460B467D
:10C62000134603930F4A9DF8073013709DF80630A8
:10C63000002B0AD00C4B184609F0BEFA0A4B002218
:10C640000399184609F060FA08E0FCF71DFB074B58
:10C6500000221A70044B184609F0AEFA00BF05B06C
:10C66000F0BD00BFF15E002060540020F05E0020AD
:10C6700008B5FDF75DF9FBF7A3FDFDF723F9FBF71F
:10C68000E7FC00BF08BD000000B583B003468DF88D
:10C690000730FFF7EDFF9DF80730012B02D0022B8A
:10C6A00004D007E0084B01221A7009E0064B022271
:10C6B0001A7005E0002200210020FFF78BFF00BF69
:10C6C00000BF03B000BD00BFF25E002000B583B024
:10C6D0000A4B002240F26661184609F015FA0190F3
:10C6E000019B0093009B002B05D0054A4FF43B7142
:10C6F000009808F0EFFD00BF03B000BD20540020FB
:10C70000BCC2030008B5034B184609F055FA00BF38
:10C7100008BD00BF2054002008B5FFF7F3FFFCF769
:10C72000FBFC084A084BD31ADB081B0443F0030345
:10C73000064918460CF05CFE054B06221A7000BF35
:10C7400008BD00BFA4B403007CB40300B8C3030059
:10C75000F25E002000B585B003468DF807309DF8E5
:10C760000730032B2ED0032B43DC022B1ED0022BD1
:10C770003FDC002B02D0012B0CD03AE0254A264B9F
:10C78000D31ADB081B0443F00303244918460CF0BA
:10C790002FFE3BE01F4A204BD31ADB081B0443F05B
:10C7A00003031F4918460CF023FE2FE0194A1A4BC9
:10C7B000D31ADB081B0443F003031A4918460CF094
:10C7C00017FE23E0134A144BD31ADB081B0443F073
:10C7D0000303154918460CF00BFE00230393039B3B
:10C7E000002B12D0114A40F21B31039808F072FD61
:10C7F0000BE0084A084BD31ADB081B0443F0030381
:10C800000B4918460CF0F4FD00E000BF00BF05B076
:10C8100000BD00BFA4B403007CB40300C8C3030080
:10C82000F8C303001CC4030058C40300BCC20300C7
:10C8300088C4030000B583B000238DF803300023C3
:10C840008DF80230164B1B880DF102020DF1030129
:10C850001846FFF747FA0190019B002B1AD0019B65
:10C86000052B0BD10F4A104BD31ADB081B0443F0E6
:10C8700002030E4918460CF0BBFD0BE0094A0A4BB7
:10C88000D31ADB081B0443F00103019A0849184638
:10C890000CF0BBFD9DF90330184603B000BD00BF8E
:10C8A0001C540020A4B403007CB40300B0C40300F3
:10C8B000E0C4030008B5FFF787FCFFF735FAFFF780
:10C8C0003DFC1148FDF74AFAFFF786FA0F4A104B74
:10C8D000D31ADB081B0443F003030E4918460CF07F
:10C8E00087FD0A4A0A4BD31ADB081B0443F00303F3
:10C8F000094918460CF07CFD0348FBF7E5FC0120D4
:10C90000FFF7FCF900BF08BDE05E0020A4B40300FF
:10C910007CB4030004C5030014C5030000B585B052
:10C9200000F09AFA0390039B002B05D01B4A40F2BB
:10C930005E31039808F0CEFC00230093184B00935F
:10C940006B46184600F09EF90290029B0193019BF2
:10C95000002B05D0114A40F26631019808F0BAFC6C
:10C96000FFF718FCFFF7E0FDFFF77EFBFCF770FC1C
:10C97000FAF736FEFBF776FFFDF7C8FDFEF73EFD42
:10C98000FFF798FFFFF7A2FE0120FFF77DFEFBF700
:10C9900067FEFEF733FDFFF72DFCF8E7BCC203008E
:10C9A00055C70200ADDF704700BF1846AEDF7047C5
:10C9B00000BF1846B0DF704700BF18463CDF704725
:10C9C00000BF18463DDF704700BF184682B00346DF
:10C9D0008DF8073000BF02B07047000000B58BB083
:10C9E000019005AB1022002118460EF02DFC022309
:10C9F0008DF814300223ADF808300023ADF80A306A
:10CA000004AB03931B4B9B881A4A518902AA184610
:10CA1000FFF7C8FF0990099B002B10D104AB184603
:10CA200003F080FD0346002B09D09DF81A3043F037
:10CA300001038DF81A300023ADF8183003E040F2FE
:10CA4000FD13ADF818300B4B9B8805AA114618460C
:10CA5000FFF7B0FF0990099B112BF4D0BDF81830F7
:10CA6000002B03D1019800F057FA00E000BF0BB093
:10CA700000BD00BFF45E002000B585B00190019BB1
:10CA80009A88134B9B889A421ED1019B06330393CD
:10CA9000039B1B78022B18D1039B5A880C4BDB8815
:10CAA0009A4212D1039B1B7A042B0ED0039B1B7A54
:10CAB000062B0AD0039B1B7A052B06D0039B02335F
:10CAC0001846FFF78BFF00E000BF05B000BD00BFB8
:10CAD000F45E002082B00190019B9A88024B9A80FC
