:02000002F0000C
:107000000000042019720F0001720F0003720F00BC
:1070100005720F0007720F0009720F0000000000D8
:10702000000000000000000000000000C1B70F00D9
:107030000D720F00000000000F720F0011720F00A0
:1070400013720F0013720F0013720F0013720F00F0
:1070500013720F0013720F00F9A80F0013720F00C4
:1070600013720F0013720F0013720F0013720F00D0
:1070700013720F0013720F0013720F0013720F00C0
:1070800015880F0013720F0013720F0013720F0098
:1070900013720F0013720F006DB50F0013720F0003
:1070A00013720F0013720F0013720F0013720F0090
:1070B00013720F0013720F000000000000000000A8
:1070C00013720F0013720F0013720F0013720F0070
:1070D000B5840F0013720F0013720F0013720F00AC
:1070E00013720F0013720F006DCD0F00000000002F
:1070F0000000000013720F000000000013720F0068
:10710000000000000000000000000000000000007F
:10711000000000000000000000000000000000006F
:10712000000000000000000000000000000000005F
:10713000000000000000000000000000000000004F
:10714000000000000000000000000000000000003F
:10715000000000000000000000000000000000002F
:10716000000000000000000000000000000000001F
:10717000000000000000000000000000000000000F
:1071800000000000000000000000000000000000FF
:1071900000000000000000000000000000000000EF
:1071A00000000000000000000000000000000000DF
:1071B00000000000000000000000000000000000CF
:1071C00000000000000000000000000000000000BF
:1071D00000000000000000000000000000000000AF
:1071E000000000000000000000000000000000009F
:1071F000000000000000000000000000000000008F
:10720000FEE7FEE7FEE7FEE7FEE7FEE7FEE7FEE756
:10721000FEE7FEE700F002B8FFF7FCBF0F484FF0B3
:107220000701884385460E4880470E48016841F4AF
:1072300070010160BFF34F8FBFF36F8F00F01AB87A
:1072400009480A490A4A884207D0521A05D00378E9
:1072500001300B700131013AF9D170470000042070
:10726000157F0F0088ED00E0F0CD0F0008410020F1
:107270001C410020364937480A1A02D007229143A0
:107280008D46354935480A1A06D00722914381F3C5
:107290000988022282F3148831483249324A00F0C8
:1072A00039F832483249334A00F034F83248334929
:1072B000334A00F02FF833483349344A00F02AF8B3
:1072C00033483449344A00F025F834483449354AC3
:1072D00000F020F834483549354A00F01BF83548AD
:1072E0003549002200F02EF834483549002200F0DC
:1072F00029F8344A904724482449884205D0026836
:10730000043003B4904703BCF7E7002000212E4A65
:107310009047FEE7884214D0521A12D003460B431E
:1073200013430324234206D1036804300B60043165
:10733000043AF9D17047037801300B700131013AFA
:10734000F9D17047884202D002700130FAE77047E5
:107350000000042000F803200000042000000420A6
:1073600014D20F001C41002068410020CC730F0094
:10737000CC730F0090CD0F0014D20F001C410020E1
:107380001C41002004CE0F0004CE0F0004CE0F00DD
:1073900004CE0F0004CE0F0004CE0F0004CE0F0069
:1073A00004CE0F0014D20F0060D20F0068410020FD
:1073B00068410020684100208877002088770020FD
:0C73C0008877002041720F0029750F0033
:1073CC0000F5E0704FF0A043032243F820207047F3
:1073DC004FF0A0420123D2F8041503FA00F020EA82
:1073EC0001030840C2F80835C2F80C0570470123A8
:1073FC004FF0A0428340C2F80835704701234FF08C
:10740C00A0428340C2F80C3570470E2808D14FF0CB
:10741C00A043D3F810355B0402D4012000F084BEE5
:10742C00704708B50B20FFF7D3FFBDE808400C20D0
:10743C00FFF7CEBF08B50820FFF7E0FF0B20FFF7E2
:10744C00DDFFBDE808400C20FFF7D8BF08B51420BD
:10745C00FFF7B6FFBDE808401420FFF7C8BFFFF7E1
:10746C00E0BF000007B503F065F908B903F020F997
:10747C00104B1A88ADF804209B780F4A8DF8063013
:10748C0001A90E2003F060F908B100F044F80121C5
:10749C000E2003F0E1F90820FFF792FF0B20FFF715
:1074AC008FFF0C20FFF78CFFFFF7D0FFFFF7C2FF19
:1074BC0003B000BD04CE0F0017740F00BFF34F8F45
:1074CC000549064BCA6802F4E0621343CB60BFF374
:1074DC004F8F00BFFDE700BF00ED00E00400FA0590
:1074EC00072811D8DFE800F00810100D1004100464
:1074FC004FF4004001F03CB804494FF4004001F057
:10750C004DB841F69910F5E7704700BF6B740F004A
:10751C0008B5FFF7D3FF08B5FFF7D0FF08B5FFF7A5
:10752C00A1FF4FF08043D3F8003401F037F94FF44A
:10753C008051002000F0FAFE08B1FFF7BFFF0548AC
:10754C00C0F57E2100F0F2FE0028F6D1024800F0D2
:10755C0023FEF2E700700F00ED740F000023C0E96A
:10756C0002328B881A44B1F9063002611A44C0E920
:10757C00001142610888003818BF0120704742682A
:10758C00118838B5034641B102F110014160118AEE
:10759C0029B9C2680168FFF7E1FF002038BD917876
:1075AC00108901F03004302C14D1957C05F0300595
:1075BC00302D16D190881969091A19610020918A09
:1075CC00B2F9162008441969014419611144596132
:1075DC000120E3E73F2906D8202C09D151894843E3
:1075EC00EDE73F29EBD901F0C001802908BF042049
:1075FC00002CE4D1996801319960E0E770B54568D9
:10760C0004460E462B461A88B24204D19B7803F0EE
:10761C000F03082B07D12046FFF7B1FF6368AB427D
:10762C00F1D1002070BD0120FCE743681A44426090
:10763C0011B101399A4201D10120704713F8010BA5
:10764C0001F8010FF6E7836810B504460BB900206A
:10765C0010BD0368012298470028F8D0A368013BAD
:10766C00A360F5E72DE9F3410F460DF107018046C4
:10767C00FFF7E9FF054620B90025284602B0BDE812
:10768C00F0819DF907309DF80740002B11DA04F0CA
:10769C007F0407260DF107014046FFF7D4FF0028B1
:1076AC00EAD09DF8072002F07F03B3401C43130679
:1076BC0001D43C60E1E70736232EEBD1DCE770B553
:1076CC0041688A7802F00F05082D86B003461FD159
:1076DC0003691C6800260CB906B070BD236862688B
:1076EC009D68267329466846FFF738FF6368049344
:1076FC0004F10C030593AB7803F0C003802B08BF97
:10770C00231D684608BF0493FFF7D9FFA468E2E77E
:10771C003F2A24D802F0300010280DD15A690020DD
:10772C001070072DCC6818690CD10146204606B0A4
:10773C00BDE8704000F01FB89006F2D55B690022DE
:10774C001A80C9E70A89214624B106B0BDE8704009
:10775C0004F060B806B0BDE8704004F08DB802F0DB
:10776C00C0018029B8D1006900210160920644BF94
:10777C005B691980B0E77FB50A4601466846FFF79A
:10778C00EDFE30B16846FFF79AFF6846FFF7F7FE4B
:10779C00F7E707B000BD000030B5054685B01446CC
:1077AC00A9B90268114B9A4211D0102C06D8224666
:1077BC0069462846FFF7F0FF05B030BD1022694638
:1077CC002846FFF7E9FF0028F6D0103CEDE7AB6840
:1077DC00A34201D20020EFE72B68224628469847A7
:1077EC000028F7D0AB681B1BAB60E5E737760F00C2
:1077FC002DE9F341884601A907461646FFF732FFEB
:10780C00B0B1019C621C4FF0000505D298F8023013
:10781C0003F0C003802B01D1284609E0B8F80830EA
:10782C009342F9D3224631463846FFF7B5FF35551A
:10783C0002B0BDE8F08173B50D4601A906461446A9
:10784C00FFF710FFA8B1019AB2F5803F11D2AB78C7
:10785C0003F0C003802B0CD02989931C994208D3C8
:10786C002146304621F8022B02B0BDE87040FFF7EC
:10787C0093BF002002B070BD034B8260C0E90031A1
:10788C000023C360704700BF37760F002DE9F3412A
:10789C000025064688462F462C460DF1070130463A
:1078AC00FFF7D1FEB0B19DF807C0A4F120030CF096
:1078BC007F02C4F1200102FA03F322FA01F10B4317
:1078CC00A2401CF0800F45EA020547EA030704D1E9
:1078DC00C8E9005702B0BDE8F0810734462CDCD172
:1078EC000020F7E737B50D4669461446FFF7CEFF83
:1078FC00A8B12B89013B072B24D8DFE803F01D1816
:10790C00231223232304DDE90001C4E9000103460B
:10791C000A46914208BF98420CBF0120002003B0D8
:10792C0030BDDDE90032236018460021F1E7DDE9C6
:10793C000032238098B2F8E7DDE90032237003F0BF
:10794C00FF00F2E70020EAE737B50D46694614461A
:10795C00FFF79CFF30B12B89082BDDE9001203D116
:10796C00C4E9001203B030BD022B4FEAE1700FD016
:10797C00042B03D0012B0FD00020F3E721600B4622
:10798C000246824208BF8B420CBF01200020E9E76F
:10799C000BB22380DA17F4E74BB22370FAE7F7B592
:1079AC000C46002119702170116001A9074615467B
:1079BC001E46FFF757FE38B9BB6813B1002003B061
:1079CC00F0BD01233370F9E701990029F9D0CB08F8
:1079DC0001F007012B602170F1E713B5044605296E
:1079EC0021D8DFE801F0030F1720201E012201A986
:1079FC002046FFF7D1FE18B19DF90430002BF5DBC2
:107A0C0002B010BD08220021204602B0BDE8104093
:107A1C00FFF7C2BE01A9FFF725FE0028F0D0019A9E
:107A2C00F1E70422EFE70020EAE773B50E4601A95F
:107A3C000446FFF717FE054618B90025284602B084
:107A4C0070BD94E80F0086E80F0001998A42F4D3C8
:107A5C00B160A3685B1AA360F0E700002DE9F04366
:107A6C00536815469A7812F0C00489B006468C46C5
:107A7C0003D0402C6BD0002413E002F00F01604FB8
:107A8C0002F03002202A57F8217012D007D862B9C0
:107A9C002A6919463B4609B0BDE8F0431847302A1D
:107AAC0043D0204609B0BDE8F0836A69012111700A
:107ABC00EEE7BCF1020FD5F8148027D1042925D8A4
:107ACC0004A9FFF7B2FF04460028EAD0069B2BB1AD
:107ADC006968B8F800304A899A4208D8059B7360E7
:107AEC00069B002B14BF002404F00104D9E708897D
:107AFC002A6903FB002204A8B84728B1B8F8003063
:107B0C000133A8F80030E1E70446E7E7B8F80010C5
:107B1C005A898A42AFD918892A694C1C01FB002268
:107B2C00A8F8004019463046B4E76A6918881080F6
:107B3C00072909D11A892869214603F09DFE6B6833
:107B4C002969D868FFF717FE2A696968EBE72F697E
:107B5C003B6823B909B0BDE8F043FFF73EBF0229EB
:107B6C0007F1040813D104A9FFF75FFF002882D0A6
:107B7C003B686968424604A89847044600283FF4CD
:107B8C007AAF069B002BF3D1059B736089E7012923
:107B9C0027D005292DD000297FF46DAF0DF10409F4
:107BAC000124012249463046FFF7F6FD00283FF438
:107BBC0062AF99F90030002B0DDB124B049301AB33
:107BCC00CDE905340023079369683B68424604A855
:107BDC009847044665E701340B2C09F10109E0D103
:107BEC0049E7082201A9FFF7D7FD08240028E4D1B2
:107BFC0041E704220DEB0201FFF7CEFD0424F5E76B
:107C0C0048CE0F0037760F002DE9F04790B00446B0
:107C1C00002604A8CDE90266FFF7A0FCA3683BBBD5
:107C2C00DDE9053404A89D78FFF7A9FC0028F7D1FD
:107C3C0015F0300F03D1059B1B8803B10134002CC8
:107C4C0000F0B580630902A90022934240F0A8809D
:107C5C0010AA02EB830304F01F0453F8383CC4F160
:107C6C0020044FF0FF30E040C31A584258410DE059
:107C7C000DF1030301AA0DF102012046FFF78FFE5F
:107C8C0038B99DF80330002BCAD1002010B0BDE8E4
:107C9C00F087019F04A83946FFF7B0FC002858D1A3
:107CAC00B7424DD3059D2B469B7803F00F03082B51
:107CBC007FD004A8FFF763FC059B9D42F4D14FF0E5
:107CCC00FF36B7423CD3089B9DF80290D4F808804D
:107CDC001D68A368002D30D098459FD12B68D3F830
:107CEC0000A0BAF1000F08D04B463A462946204670
:107CFC00D0470028C9D0AD68EBE7D3F808A0BAF894
:107D0C0000309F42F7D16A6851460AA8FFF726FC5B
:107D1C006B680E9305F10C030F939AF8023003F085
:107D2C00C003802B04BF2B1D0E9301232B730AAAB7
:107D3C0049462046FFF792FEDBE798457FF46EAF8D
:107D4C009DF802102046FFF748FE00287FF466AF2E
:107D5C009BE7059B9B7803F030037BB9069A3F2A7F
:107D6C000CD8510910AB03EB810102F01F02012367
:107D7C00934051F8382C134341F8383CD4F80C801C
:107D8C009DF80250B8F1000F04D004AB2A463946D6
:107D9C002046C04704AA29462046FFF75FFED4E7D9
:107DAC00086801307FF471AF043101324DE70120D6
:107DBC006CE7059B1E8884E770B50C460646154695
:107DCC0011462046FFF7D7FC2A4621463046BDE82F
:107DDC007040FFF719BFF0B585B0CE680D46694607
:107DEC0004461746FFF721FE68B1E86858B1AB7836
:107DFC0003F03003202B3A463146684605D1FFF795
:107E0C00DBFF019B636005B0F0BDFFF7FDFEF8E7FB
:107E1C0013B50C466946FFF739FD60B1DDE9001377
:107E2C004A0842EAC372C9074FEA530344BFD2431C
:107E3C00DB43C4E9002302B010BD37B50D466946DB
:107E4C001446FFF7E5FFA8B12B89013B072B24D87B
:107E5C00DFE803F01E18231223232304DDE900308E
:107E6C00C4E9003019460246824208BF99420CBF51
:107E7C000120002003B030BDDDE9001221600B466B
:107E8C00C817F1E7DDE900120BB22380D817EBE736
:107E9C00DDE900124BB22370F8E70020EAE713B5D6
:107EAC0004220C460DEB0201FFF776FC08B1019B96
:107EBC00236002B010BD1146FFF7F1BF13B50822C5
:107ECC000C466946FFF768FC18B1DDE90023C4E9EC
:107EDC00002302B010BD1146FFF7F0BF4FF08053E6
:107EEC00D3F83021082A03BFD3F83401B0FA80F05C
:107EFC004009002070470000024AD2F80034002BE1
:107F0C00FBD0704700E001404FF0805310B5D3F820
:107F1C003021082A4ED14FF080420021C2F80C11BA
:107F2C00C2F81011C2F8381502F54042D3F8041407
:107F3C00C2F82015D3F80814C2F82415D3F80C1481
:107F4C00C2F82815D3F81014C2F82C15D3F8141451
:107F5C00C2F83015D3F81814C2F83415D3F81C1421
:107F6C00C2F84015D3F82014C2F84415D3F82414E1
:107F7C00C2F84815D3F82814C2F84C15D3F82C14B1
:107F8C00C2F85015D3F83014C2F85415D3F8341481
:107F9C00C2F86015D3F83814C2F86415D3F83C1441
:107FAC00C2F86815D3F84014C2F86C15D3F84434F1
:107FBC00C2F87035FFF792FF18B1404B404AC3F836
:107FCC008C26FFF78BFF18B13E4BFB22C3F818250C
:107FDC00FFF784FF58B14FF080424FF08051D2F838
:107FEC00E43ED1F8581261F30303C2F8E43EFFF704
:107FFC0075FF20B1344B4FF40072C3F840264FF09C
:10800C008053D3F83031082B09D14FF08043D3F88B
:10801C000024D20744BF6FF00102C3F800242B4A9E
:10802C00D2F8883043F47003C2F88830BFF34F8F16
:10803C00BFF36F8F4FF08053D3F83021082A0BD148
:10804C00D3F83431032B81BF4FF01023D3F808221F
:10805C004FF08043C3F858254FF01023D3F800227B
:10806C00002A03DBD3F80432002B22DA184901234F
:10807C004FF01020C1F804351224FFF73DFFC0F873
:10808C000042FFF739FFC0F80442FFF735FF002329
:10809C00C1F80435FFF730FFBFF34F8F0B490D4B81
:1080AC00CA6802F4E0621343CB60BFF34F8F00BF8A
:1080BC00FDE7094B094A1A6010BD00BF0050004093
:1080CC004881030000F000400090024000ED00E009
:1080DC0000E001400400FA051C4100200090D00390
:1080EC00008800F001007047BFF34F8F0549064B25
:1080FC00CA6802F4E0621343CB60BFF34F8F00BF3A
:10810C00FDE700BF00ED00E00400FA0541DF704719
:10811C00014B01221A7070478845002008B5FFF703
:10812C00E3FF00207047000008B538B1044B054848
:10813C0000221A70BDE8084001F0DCBCFFF7D4FF48
:10814C008845002029810F00042810B5044609D861
:10815C0002280ED813D00C4B1B689BB12046BDE8EF
:10816C0010401847831F012BF5D80120FFF7DCFFC7
:10817C00F1E706494FF4F01000F0D8F9EBE701F005
:10818C00FDFBE8E710BD00BF8C4500209D810F0072
:10819C000120FFF7C9BF000038B54F4B1860002015
:1081AC0001F0BEFC002840F0928000F09FFA0128FC
:1081BC0000F08B80022800F08C80002840F0878033
:1081CC004FF08043D3F80024D20338D54FF48032DB
:1081DC00C3F800240025414C236A012B3ED04FF4F8
:1081EC00F014FFF733F900F01DFB3D4A2021182055
:1081FC0002F03CFC08B1FFF78EF94FF08043D3F846
:10820C001C2502F0F902B12A02BFD3F81C2502F09A
:10821C004E02C3F81C25FFF784FF002857D12046D7
:10822C00304900F083F9304800F07CFD00284ED135
:10823C0000F01EFB02F09EFCFFF768FFF8E7D3F896
:10824C00202502F0F902A92A06D1D3F8202502F044
:10825C005602C3F82025BDE70125BCE74FF4405377
:10826C005A68224B9A421CD001F00EFD01463DB3D8
:10827C00A2691F4801F0D0FF0028B0D04FF0804316
:10828C00D3F81C3503F0F903B12BA8D001F0AAFCEC
:10829C00E8B9184B1870184801F02CFC00F030F8B5
:1082AC0015E045B1626B15484FF4805101F0B4FFF5
:1082BC000028D9D193E794F86032012BF2D1D3E79F
:1082CC0094F8A132012BD3D1D8E7FFF72DFF03206F
:1082DC0038BD4FF4A02484E78C450020646D002049
:1082EC00684100209D810F0055810F00DBE5B151E5
:1082FC0005700020884500201D810F00C46F0020F0
:10830C0008B5074B4FF0FF32C3F88020C3F880212B
:10831C0001F057F9BDE808404FF4805000F028B840
:10832C0000E100E080F308880847000070B50546BE
:10833C00C1F30B00A8B9B5F57F2F12D80B4E3268DC
:10834C00072A10D8130103F1804404F5F0340132EC
:10835C00C4F80058C4F804180221C4F80818326094
:10836C0070BD0720FCE70420FAE700BF9045002011
:10837C0010B504461348C0F57F21FFF7D7FF08B1AD
:10838C00FFF7C9F801F080FC0F4B996901F6FF71FA
:10839C006FF30B0101440020FFF7C8FF08B1FFF792
:1083AC00BAF8EFF305830023D4E9000183F31488B2
:1083BC0083F3108883F3118883F31388BDE810408E
:1083CC00FFF7B0BF00700F00646D002037B56FF081
:1083DC007F42154C057BD4F804358A4228BF0A46E7
:1083EC00891A13444A1E942A23F07F4305F5A87278
:1083FC009CBF963B9631416044F822300B4B4FF4B6
:10840C00F86043F001039847094B03EB8503002206
:10841C001A601B680193019B4FF48033AB40C4F886
:10842C00043303B030BD00BF0040024070CE0F00DB
:10843C0040410240FFB4194D2B7853BB4FF08043A1
:10844C00A027D3F81844E4035CBF01249C60144BB0
:10845C000024C3F80041D3F800610396039EC3F8CF
:10846C004041D3F840610296029EC3F84441D3F8D0
:10847C0044610196019E0B4E86F824731027776099
:10848C000226C3F8084501249C601C60C3F80463F1
:10849C002C70026004B0F0BCFFF798BF944500202C
:1084AC000040024000E100E01B4BD3F8042173B5FF
:1084BC0052B11A490A6801320A600022C3F8042139
:1084CC00D3F804310093009B154C164D164E2B68B7
:1084DC0083B100232B602B68227B0193019B4FF40B
:1084EC00803393400C4AC2F80833616849B1204686
:1084FC00FFF76CFF0435B54204F11004E7D102B06C
:10850C0070BDA16811B12046FFF760FF2368002BF6
:10851C00F0D09847EEE700BF00400240984500209D
:10852C002C410020404102404C41024010B4094B08
:10853C00044618680A46017B4FF480338B40064989
:10854C00C1F808331CB1214610BCFFF773BF10BC37
:10855C00704700BF2841002000400240034B1B68BD
:10856C000A46986001461846FFF764BF2441002074
:10857C00084B1B680146187B4FF48032824006483A
:10858C00C0F80823996019B11A681846FFF752BF52
:10859C00704700BF2041002000400240034B1B6885
:1085AC000A46986001461846FFF744BF2041002058
:1085BC00014B01221A7070479C45002081422DE925
:1085CC00F74F04460F46154604D10023184603B056
:1085DC00BDE8F08F3E1B360B02F6FF7800F022F957
:1085EC00082E28BF08263303DFF864B001934FEA46
:1085FC001838002DE9D046452CBFC246B2464FF084
:10860C0000025146204634BFDDF80490A94600F024
:10861C00A9FF03460028D9D109F1030222F0030275
:10862C003946204600F092FF03460028CED1DBF8F5
:10863C0030304B44CBF8303001F062FAA8EB0A082A
:10864C00A5EB09054C444F4403460028D1D0BDE7A7
:10865C00646D002010B501F035FB104A916C01F5EA
:10866C0000535C680E4B9C4212D1D2E90C329342FF
:10867C0011D0D21A02F6FF72194418446FF30B0290
:10868C00FFF79CFF034620B9BDE8104001F038BA53
:10869C000323184610BD0023FBE700BF646D0020C8
:1086AC00DBE5B15138B50F4BDA6A5D6A9C6CAC2ACC
:1086BC0010D15B6B1C44ED1A0B482A46214603F083
:1086CC0083F868B100F0D4F829462046BDE838405C
:1086DC0000F060BF002CEFD101F0E6FA0446EBE7A6
:1086EC0038BD00BF646D002000700F0070B5274CC2
:1086FC00E36AAA2B43D005D8012B0CD0A52B3AD07A
:10870C00002070BDAC2BFBD1FFF7A4FF002834D1A7
:10871C00FFF7C8FF31E0A66C656A01F0B5FA226B71
:10872C0003469E4206EB0201104414BFAA1A002213
:10873C00FFF744FF064660B901F0A6FA3246294617
:10874C0002F080FAA36A984203D10123C4E907031B
:10875C00A56100250E4801F08DFA0E4B0E48002243
:10876C001A7001F0CDF968B975B1236A012B0CBFF1
:10877C0002200120C5E7FFF76DFF0125EAE7FFF7AF
:10878C0091FFE6E70320BCE70120BAE7646D002007
:10879C00886D00209C450020BD850F0010B500247D
:1087AC00D4F8F83F013304D1084940F6F87001F0D1
:1087BC0017FFD4F8FC3F013307D1BDE810404FF44C
:1087CC007E2140F6FC7001F00BBF10BD00700F0055
:1087DC000A4AD2F800347BB109480023D2F80815B4
:1087EC00D940C90748BF03F5C07103F1010348BF65
:1087FC0042F82100072BF1D1704700BF0000014067
:10880C003546526EFFF7E4BF054B002282B0C3F829
:10881C000021D3F800310193019B02B0704700BFD7
:10882C000000014038B50E4C2378BBB90D4BD3F882
:10883C0000248AB1D3F80455FFF7CAFF40F616504E
:10884C00A842B8BF28460849A0F54860FFF786FE45
:10885C00064B4FF480321A600123237038BD00BFE1
:10886C009D4500200000014011880F0000E100E050
:10887C00034BD3F800340BB1FFF7AABF704700BF0E
:10888C000000014028B139B10023C1E9003018467D
:10889C00704748F21050704748F21350704730B18F
:1088AC00036848F240508B4208BF0020704748F2E2
:1088BC001050704728B148F21150914208BF002067
:1088CC00704748F21050704770B506460C461D466E
:1088DC00FFF7D8FF50B952B1B379AB420AD1114668
:1088EC00204600F0E7F808B9044B236070BD48F24D
:1088FC001050FBE748F21150F8E700BF7052464D9C
:10890C002DE9F0470C46054611492046DDE908796A
:10891C0016469846FFF7C3FFA0B963685A794946D3
:10892C0052003846FFF7C6FF60B94EB165B10897E3
:10893C004346324621462846BDE8F04700F0D0B801
:10894C0048F21050BDE8F08748F21550FAE700BF26
:10895C007052464D10B5044638B149B10B684160B0
:10896C00984708B9044B236010BD48F20150FBE74F
:10897C0048F21050F8E700BF6E524648F0B4134668
:10898C0048B10768094EB7420AD161B12AB14368B0
:10899C00F0BC5B68184748F201531846F0BC7047AE
:1089AC0048F20253F9E748F21053F6E76E52464884
:1089BC00F0B460B107680C4EB7420CD171B143688A
:1089CC001568DC68A5420CD3F0BC9B68184748F2CC
:1089DC000150F0BC704748F20250FAE748F21350CD
:1089EC00F7E748F21450F4E76E5246482DE9F0418F
:1089FC000446DDE9065617469846FFF7ABFF60B90B
:108A0C00424639462046FFF7B9FF30B9324629466F
:108A1C002046BDE8F041FFF7CBBFBDE8F081000078
:108A2C00F8B50A4E0A4F012333700A4BDB1BDC08E6
:108A3C000025AC4203D1022333700020F8BD57F857
:108A4C00353098470028F9D10135F2E79E450020D2
:108A5C0090CD0F0098CD0F0001390144814200D216
:108A6C00704703780A7800F8012B01F80139F5E713
:108A7C00013A02440139824200D2704711F8013F99
:108A8C0002F80139F7E738B514460D46FFF7F0FF49
:108A9C00224629192044BDE83840FFF7E9BF38B514
:108AAC000C460546FFF7D8FF21462819BDE838408B
:108ABC00FFF7D2BF10B500F1080301F1200251F805
:108ACC00044B43F8044B9142F9D1283001F12003B7
:108ADC0051F8042B40F8042B9942F9D1002010BD19
:108AEC002DE9F743184E9946184B036004460F4680
:108AFC0030460121904602F071F90546BFF35F8FB5
:108B0C00F0B900F0DDF80A9ACDF80090434607F171
:108B1C000801204602F0C8FF044600F0DFF8BFF35E
:108B2C005F8F356044B10A4948F2425248F21653FD
:108B3C008C420CBF14461C46204603B0BDE8F083A3
:108B4C0048F20454F8E700BFA0550020DD55AABB3D
:108B5C008408F0000E4B984214D00AD8B8B10D49D5
:108B6C0048F2165248F20153884214BF1046184678
:108B7C007047094B984208D0084948F2165248F2FF
:108B8C000353F1E748F20350704748F20250704724
:108B9C000102F0000002F0000202F0000F02F000EF
:108BAC0008B5083002F0EAFFBDE80840FFF7D2BF75
:108BBC0013681F2B2DE9F0410746884615461DD931
:108BCC00114E0121304602F009F90446BFF35F8FC4
:108BDC00B8B900F075F8414607F1080003F03AF80F
:108BEC00074600F07BF8BFF35F8F38463460FFF721
:108BFC00B1FF08B920232B60BDE8F08148F2145076
:108C0C00FAE748F20450F7E7A0550020F8B50746FC
:108C1C000E4618480121144602F0E0F8BFF35F8FAE
:108C2C0020BB083700F04CF8B4F5805F254628BF10
:108C3C004FF480552A4631460F4802F0EBFD0E49A1
:108C4C002A46384602F0B4FF70B9641B2E44EBD1AF
:108C5C0000F044F8BFF35F8F064B00221A602046E9
:108C6C00BDE8F840FFF776BF0446F1E748F2045040
:108C7C00F8BD00BFA0550020A0450020024B0020ED
:108C8C00C3F80005704700BF00A0025038B50A4B6E
:108C9C0000251D60BFF35F8F084C0123C4F800351D
:108CAC0003F008F8C4F8005520B1052848F2035029
:108CBC0018BF032038BD00BFA055002000A00250F3
:108CCC00044B0122C3F80025034B4FF480625A6019
:108CDC00704700BF00A0025000E100E0064B0022EC
:108CEC00C3F80025054B4FF48062C3F88420BFF312
:108CFC004F8FBFF36F8F704700A0025000E100E070
:108D0C00831F012B10B5044602D8002000F09AFFF7
:108D1C00034B1B681BB12046BDE81040184710BD23
:108D2C00A455002008B5074B18600020FFF7E8FF9A
:108D3C00054800F06FFF20B9BDE80840024800F07C
:108D4C00D3BD08BDA45500200D8D0F006CDF7047FE
:108D5C006DDF704772DF704773DF704774DF7047E9
:108D6C0075DF704776DF70477ADF70477CDF7047BE
:108D7C007DDF70477FDF704786DF70478FDF70477E
:108D8C0090DF7047A8DF7047AADF7047ADDF7047F0
:108D9C00AEDF7047B0DF7047B1DF7047B5DF7047AB
:108DAC0062DF704766DF704713DF7047014601488A
:108DBC0002F077B8ACCD0F0070B518228CB0002142
:108DCC000DEB020002F058FD012528234FF4004062
:108DDC0008938DF818508DF82D50FFF7C9FB16230A
:108DEC001C4CADF806300023CDF80E30CDF8123007
:108DFC00ADF816300223092606222370237159235D
:108E0C00A27063710322FE230DF10601A0190294D6
:108E1C00ADF80C606570E270A371FFF7A9FFB8B9EB
:108E2C00BDF8063026725A19E271BDF80C200A4CB6
:108E3C00134402A906AA2046ADF80C30FFF78AFFAE
:108E4C0030B92078FFF78AFF20782946FFF784FF96
:108E5C000CB070BDA85500205C410020154A38B5F7
:108E6C001368044613F0010022D013498C421ED023
:108E7C00124908884FF6FF71884213D043F004035F
:108E8C0013211360FFF76EFF90B90D4DC82445F008
:108E9C0001054FF47A40A847013CFAD1BDE83840AF
:108EAC0002F006BB074B1878FFF758FFF6E70020D7
:108EBC0038BD00BF3466002098CD0F005E41002005
:108ECC0060D00F005C410020F0B50388232B8BB0E1
:108EDC00044635D80F2B04D8012B00F0F7800BB0CB
:108EEC00F0BD103B132BFAD801A252F823F000BFAF
:108EFC007D8F0F009B8F0F00EB8E0F007D900F006E
:108F0C00BF910F00EB8E0F00EB8E0F00EB8E0F005E
:108F1C00EB8E0F00EB8E0F00CD910F00EB8E0F0040
:108F2C00EB8E0F00EB8E0F00EB8E0F00A7900F0057
:108F3C00EB8E0F00B5900F00EB8E0F0063900F00BF
:108F4C00503B9AB2062ACAD8062BC8D801A252F8AE
:108F5C0023F000BFC78F0F00E5900F00CD910F00DD
:108F6C00EB8E0F00EB8E0F001F900F00C5900F00C3
:108F7C00974D83882B80974B1B680BB1012098472A
:108F8C00954928880BB0BDE8F040FFF7E9BE904B3F
:108F9C004FF6FF721A80914B1B685A0704D4FFF7E7
:108FAC000BFF08B1FEF7B7FA8A4B1B68002B96D063
:108FBC0002200BB0BDE8F0401847894EE288B38818
:108FCC009A428CD1874801F048FF0546002886D08C
:108FDC00228A04F1120102F01DFC1822002104A8BF
:108FEC0002F04AFC08238DF810307F4B06937F4B20
:108FFC000596CDE9073504A8238AADF8243000F096
:10900C0069FC00283FF46BAF7648294601F049FF14
:10901C0065E7E188F6291CD8CB1E9B070DD0CB1F2A
:10902C009BB2013B5A4202F0030203F0030301F12D
:10903C00FF3158BF5342C91A89B2654B1888FFF7E4
:10904C00ADFE00283FF44BAF0BB0BDE8F040FEF78F
:10905C0062BAF721F1E70022808804A9CDE9042245
:10906C00FFF78EFE00283FF43AAFFEF754FA36E7CE
:10907C00574C02230493208802AB04AA42F6052124
:10908C000593FFF783FE08B1FEF745FA002320880D
:10909C001A468521FFF76EFEE4E74D4B00F10801FF
:1090AC001888FFF75DFECCE7002304A98088ADF893
:1090BC001030FFF763FED5E7A379002B7FF40FAFD9
:1090CC00434B13211888FFF74DFEBAE7404B0021A4
:1090DC001888FFF767FEB4E7A379002B3FF4FFAEC7
:1090EC00022B7FF4FCAE3E4D2189AA8991427FF47C
:1090FC00F6AEA27B012A7FF4F2AE4FF480320592D9
:10910C00228A334EADF81820628AADF81A2004F189
:10911C001402079201AF298A3088049302AA0293A1
:10912C000397FFF733FE60B93846FEF7D9FF40B915
:10913C0040F2FD133088ADF8143004A9FFF72AFE75
:10914C00CDE6002304A93088ADF81430FFF722FED9
:10915C00014600287FF4C3AE182204A802F08CFB51
:10916C00237D214A8DF81030022B0595069219D0DB
:10917C00062B05D0012B06D004A800F0ABFBAEE605
:10918C00637D0893F8E71A4B1A881A4B1A80637D93
:10919C00D4F816200893012B0992EDD1164800F053
:1091AC0051FDE9E7124AB4F815301380114A1380C7
:1091BC00E2E700231A4619468088FFF7DDFD40E7F9
:1091CC000023A0881A461946FFF7E6FD39E700BFD1
:1091DC005E4100201866002066D00F003466002027
:1091EC0020660020ACCD0F0045920F00B98D0F000A
:1091FC001E6600201C66002098CD0F007FB5002352
:10920C00CDF80B308DF80F30094BADF806109B895B
:10921C00ADF8083001238DF80A300DF10603CDE9C5
:10922C000430044B02A91888FFF7B2FD07B000BD4B
:10923C00206600205E41002010B5044686B0112245
:10924C00002101A802F018FB2378082B0BD1354A1A
:10925C00354913880988013B9BB21380D1B1CBB936
:10926C0003231180237062788DF805306021012A68
:10927C008DF804108DF806200ED00B2A10D100F0BA
:10928C007FF98DF80700002000F074F9042101A883
:10929C00FFF7B4FF06B010BD062B03D0032B27D06D
:1092AC000321F4E7E1688DF80710D4E90123080ADB
:1092BC008DF80800080C090E8DF80A10110A8DF8AB
:1092CC000B208DF80C10110C120E8DF80E201A0AB2
:1092DC008DF80F308DF810201A0C1B0E8DF80D1018
:1092EC008DF809008DF811208DF812300F21CEE782
:1092FC00D4E90123110A8DF807208DF80810110C00
:10930C00120E8DF80A201A0A8DF80B308DF80C20ED
:10931C001A0C1B0E8DF809108DF80D208DF80E30DF
:10932C000B21B4E71C6600201E6600202DE9F041DD
:10933C003E4B94B005464FF6FF721A8001204FF653
:10934C0059632A4602A98DF80A00ADF80830FFF7D8
:10935C0019FD0446002864D1354B04AA03F110060C
:10936C0018685968144603C40833B3422246F7D12F
:10937C00A91C04A8FFF714FD0446002851D101468E
:10938C001C220DA802F078FA9DF834308DF80F40AD
:10939C0043F004038DF834300223ADF80C30AB7875
:1093AC008DF80E3003238DF80630F423CDE90A44F2
:1093BC00ADF82C302B464FF4885833F8040B0C9432
:1093CC0003AF01AE08AA0DA9ADF804800897099661
:1093DC00FFF7DAFC044620BB01461C220DA802F064
:1093EC004BFA18238DF834300123ADF80C30AB78E0
:1093FC008DF80E3013238DF806301723CDE90A446F
:10940C00ADF82C302B4608AA33F80C0B8DF80F4016
:10941C000DA90C94CDE90876ADF80480FFF7B4FCE7
:10942C000446204614B0BDE8F08100BF5E41002028
:10943C006ED00F0030B5324C236813F0010585B0A7
:10944C005BD1304B1860304801F0F1FC029500F014
:10945C00ACF800284FD12D48FFF7A6FC00284AD1C4
:10946C0001F0E8FF002846D102A802F0B3F800286A
:10947C0041D102A9012002F0B7F800283BD102A883
:10948C0002F004F9002836D100F09CFB30B12048E2
:10949C0000F088FB236843F002032360112302A829
:1094AC008DF80430FFF754FC28BB9DF8093002A856
:1094BC0001338DF80930FFF749FCE0B923689B07AD
:1094CC004BBF134913498A690C2248BF043192B22D
:1094DC0001A8FFF74BFC70B90F48FFF745FC50B9DA
:1094EC000E48FFF723FF30B9FFF766FC18B9236865
:1094FC0043F00103236005B030BD0020FBE700BF43
:10950C003466002018660020ACCD0F0000700F00F0
:10951C00386600204DD00F0066D00F00206600206A
:10952C0043690BB1C0681847704700000449054BEC
:10953C000022904208BF1946034801F0CCBC00BF82
:10954C00ACD00F0080D00F000841002007B500936D
:10955C0013460A460146024801F0C1FC03B000BDA7
:10956C000841002013460A460146014801F0BDBCE3
:10957C0008410020014B18700B20704754660020E6
:10958C00024B002218781A70704700BF54660020F6
:10959C0018DF70471FB50023CDE9003089086846F5
:1095AC000291FFF7F5FF05B000BD1FB50023CDE913
:1095BC0001330393684602230093FFF7E9FF05B0DC
:1095CC0000BD4FF000534FF480521A6000207047DA
:1095DC00014B06201B681847586600200A2803D93F
:1095EC000B38C0B2FFF7C6BF7047000010B5044679
:1095FC0086B0002001F080FC014638B1174A1821D2
:10960C00204606B0BDE8104001F054BA1822684656
:10961C0002F032F90423124A8DF80030114B116D0F
:10962C001B68994212D1104B186800F057FF8DF847
:10963C000100FFF7D3FFD4E901138DF80100684650
:10964C0098470A4800F05CFA06B010BD01238DF86B
:10965C0001306846D4E901139847F5E7F9950F00F6
:10966C00646D00205C66002060660020DD950F00B4
:10967C00F0B5044687B0162200210DF1020002F06D
:10968C00FBF823788DF8003001220C2B8DF801208B
:10969C0000F214819A4012F4AD7F15D1022B06D042
:1096AC000C2B40F00B81864B07201B689847D4E9A4
:1096BC000113684698479DF80130012B00F0F380A8
:1096CC007F4B05201B68EDE0062B7E4A01D0012B59
:1096DC0001D1216911701178012904D0022954D0CB
:1096EC00002313709AE0013B072BE0D801A252F83B
:1096FC0023F000BF21970F00BB960F008B970F0034
:10970C005F970F00BB960F0085970F00BB960F005D
:10971C0039970F006A4B03201B689847606900F06B
:10972C00C9FCFFF75BFF8DF80100C0E7A18A206937
:10973C0000F0D8FCFFF752FF634B8DF80100DA6B99
:10974C001B6C0293E3680192002BB0D02069984700
:10975C00ADE75E495E4800F013FDFFF73FFF0128BF
:10976C008DF80100A3D1002000F0CAF900289ED08A
:10977C000A238DF801309AE74FF400730393524B90
:10978C00DA6B1B6C0192029391E7013B072B8ED88D
:10979C0001A252F823F000BFC5970F00BB960F0033
:1097AC0083980F008D980F00BB960F00B7980F0091
:1097BC00BB960F002D980F00414B03201B68984758
:1097CC0000F0B0FC08B90823D3E762690AB9032397
:1097DC00CFE7C2F30B0333B13B4B3C495B6D0968DC
:1097EC0013448B42F3D1B2F5805F01D90423C0E757
:1097FC00354B3649586D096815188D42E3D85A64B3
:10980C00DA6C9A6418651863314B1B6800220121CD
:10981C001844FFF7A7FE00283FF449AF0523A8E73B
:10982C0000F080FC0028CED0274DA18AD5E9143257
:10983C009B1A6A6C0B449342C9D8254B2E6B1B6840
:10984C00206905F148021E4401F0FCF9E368A28A84
:10985C00216907463046FFF779FE08B1E36875E7E2
:10986C00A38A2A6BAF641A442A632A6D02971344A5
:10987C002B6501931BE7144B9A6C02921B6DF8E756
:10988C00114BD3E91402596C821A8A429BD19A6CFF
:10989C005865002120465964DA64FFF7A7FE084B8F
:1098AC001B680420984707B0F0BD074B9A6C1B6DE2
:1098BC0001934FF4805302920393F8E6022358E786
:1098CC005866002060410020646D00205C6600201A
:1098DC006066002083681BB1024A182101F0EAB8C7
:1098EC00072070477D960F0038B50546C0B10120A2
:1098FC00FFF71CFE044648B900F0CEFB00F012FC4A
:10990C0030B9084B00201D60FFF734FE204638BDEF
:10991C000549064800F034FC0128F2D00324F5E791
:10992C000724F3E7586600205C6600206066002080
:10993C00F8B514464FF4607205460F461E4601F00A
:10994C0043FF18B904B1A047002006E00022012112
:10995C002846FFF707FE08B10320F8BD4FF46072EC
:10996C003946304601F056FF23464FF460723146BB
:10997C002846FFF7EBFD0028E6D0EDE72DE9F04196
:10998C003F4C2368013362D000225821201D01F086
:10999C0059F927683A1A57425741DFF8F880394E7F
:1099AC00D8F800502B68013366D000225821281DAE
:1099BC0001F048F92B6883424BD16C68012C0AD01A
:1099CC000022C32105F5187001F03CF9D5F85C4272
:1099DC00231A5C425C41002F3DD0294929484FF4A1
:1099EC00607201F017FF6CB1D8F800402648542281
:1099FC00211D01F00FFF25484FF4327204F15C0178
:109A0C0001F008FF7768012F34D1214CA4F5E475DF
:109A1C000FCD0FC40FCD0FC40FCD0FC495E80F00A1
:109A2C0084E80F0004F11005A4F5DC740FCC0FC50D
:109A3C0094E80700002386F8603286F8E232F36976
:109A4C0086F8A17285E80700C6F8A23210E000275C
:109A5C00A3E70024BFE72CB1D8F8001009484FF455
:109A6C006072CDE707484FF46072002101F004FFEB
:109A7C0002237360BDE8F081002FF3D00024ACE723
:109A8C0000F00F00646D0020686D0020C06D002098
:109A9C00887000206441002010B500220446582133
:109AAC000B4801F0CFF80A4B002243F8040CC321F9
:109ABC0003F5177001F0C6F8064B0649C3F85C02B3
:109ACC002246054B0548BDE81040FFF731BF00BFEB
:109ADC00686D0020646D0020E469002000F00F0028
:109AEC0002460248024B0068FFF722BF6441002087
:109AFC00646600200149FFF7F3BF00BF00F00F00C0
:109B0C0038B505460020FFF7C7FF044618B90349CE
:109B1C002846FFF7E5FF204638BD00BF646D0020E6
:109B2C0010B5FFF703FD044608B1032010BDFFF785
:109B3C0025FF2046FFF7E4FF0028F7D0F5E70000EB
:109B4C0010B5084C07484FF40072FF2101F094FE49
:109B5C0020220021A4F1240001F08EFE002344F801
:109B6C002C3C10BDC06D002029DF704738B5044671
:109B7C0090B10B4DD5F8643301330FD1002218216D
:109B8C00043001F05FF821462060072205F559707A
:109B9C00BDE83840FFF7E8BF0E2038BD0820FCE7D1
:109BAC0000F00F0050B1064B03F11C0253F8041BDC
:109BBC0040F8041B9342F9D1002070470E207047E7
:109BCC0064F30F0010B5064C00221821204601F05A
:109BDC0039F854F8043C1B1A5842584110BD00BFC8
:109BEC0068F30F0010B50A4CD4F82433D4F864236E
:109BFC001340013309D04FF47F2000F0D9FCC92267
:109C0C0021464FF47F2000F001FD002010BD00BF65
:109C1C00646D0020F8B5094E094B07469D1B0024C6
:109C2C00B4EBD50F01D10020F8BD56F834303846CE
:109C3C0098470028F8D10134F2E700BF98CD0F0007
:109C4C00A0CD0F00F8B5094A094D0746561B002454
:109C5C000435B4EBD60F01D10020F8BD55F83430E3
:109C6C00384698470028F8D10134F2E7A0CD0F0010
:109C7C0098CD0F00034A0023036043608360136395
:109C8C00704700BF646D00204FF44053054A59687B
:109C9C00914203BF986800F6FF706FF30B004FF40E
:109CAC0080507047DBE5B15108B5FFF7EDFF044B71
:109CBC009B69184400F6FF706FF30B0008BD00BFE2
:109CCC00646D00204FF48050704700002DE9F8437C
:109CDC00224F0446884615461E464FF00009B9F13E
:109CEC00010F1ED0B9F1020F28D0FFF7DDFFB5B17F
:109CFC001B4B1B6A5A1E53425341381AA04202D3C3
:109D0C00B8F1000F20D0EBB909F10109B9F1030F3B
:109D1C00E5D1A0421FD31348FFF7ACFF18E02B4648
:109D2C00EBE7FFF7B1FF3EB94FF440530E4A5B68C7
:109D3C009B1A18BF0123E0E73346DEE701234FF4FB
:109D4C008050DAE7A04206D35FFA89F3002BE2D108
:109D5C000020BDE8F8830420FBE700BF00400F00A3
:109D6C00646D00207C6D0020DBE5B15190F855202E
:109D7C0012F0FB0F07D190F86430DBB1836ECBB1DE
:109D8C000B600120704712F0010303D090F856309D
:109D9C0003B1836D9207F2D590F85C20002AEED0C7
:109DAC00054A006EC2F57E22904201D80344E6E7D4
:109DBC00042070470F20704700700F002DE9F0430E
:109DCC002E492F4D8A6B2F4C2F4EDFF8D080DFF8A9
:109DDC00D09085B05C316846FDF74EFD9DE80F00D4
:109DEC0085E80F000021294B31704FF44772204653
:109DFC00C8F80010C9F80010EB6001F03DFD2449D3
:109E0C0022462846FDF7D8FF20B90026304605B07B
:109E1C00BDE8F0833678002EF7D094F86C312778B3
:109E2C0013B3002FF1D194F87231002BEDD0D9F887
:109E3C000020D8F800106846FDF71EFD9DE80F00C5
:109E4C0085E80F004FF4B272394604F5BA7001F090
:109E5C0013FD104904F5BA722846FDF7ADFF002832
:109E6C00D3D004F5BA7405E0002FCED0A379002B23
:109E7C00CBD00834084B1C60C8E700BF646D0020D1
:109E8C00B4710020CC710020E4700020B19E0F0052
:109E9C009CCE0F003CCF0F00B0710020C871002089
:109EAC00C47100205B68DA680D4B9A4230B508D15A
:109EBC000C4C236813B90C490B681BB10B4B0022DB
:109ECC001A7030BDD0E901301A4612F9015B002D31
:109EDC00FBDB03449B1A22600B600122034BEFE770
:109EEC003CCF0F00C8710020C4710020E47000202A
:109EFC004FF4405210B55168114C00F50053A1427B
:109F0C00586803D0031B5842584110BD884214D1E5
:109F1C001178142982BF50690A4AB0FBF2F01A7802
:109F2C0098BF0020142A83BF5B69064AB3FBF2F387
:109F3C000023C01A18BF0120E7E70020E5E700BFA7
:109F4C00DBE5B15140420F0000B591B0FEF768FD62
:109F5C00684607492022FEF796FD6A4605490648E1
:109F6C004023FEF7B1FC054B01221A7011B000BD65
:109F7C0008CE0F006871002078CE0F00E57000202D
:109F8C002DE9F041CCB003AD80460C4616461F4679
:109F9C007C222023002104A82B6001F06DFC0023FF
:109FAC008DF88C301C4B1B780BB9FFF7CDFF6CB3C5
:109FBC00B8F1000F2CD1194B00931949529B019504
:109FCC003A4604A8FEF712FD20BB402E22D1154BB9
:109FDC00214604F140021C4651F8040B43F8040BD3
:109FEC009142F9D10F482021FEF759FD4023CDE9CC
:109FFC0000430A4A2B680C4923A8FEF781FC002871
:10A00C0014BF052001204CB0BDE8F0811320FAE705
:10A01C001620F8E70A20F6E7E5700020067100200C
:10A02C0084CE0F002671002068710020F0B5ABB013
:10A03C0004460E4617461D467C22202300210BA801
:10A04C00029301F019FC114B1B780BB9FFF77CFF45
:10A05C002DB12146202203A8FEF70AFD03AC02AB6A
:10A06C000B4D01930B4900953B4632460BA8FEF76E
:10A07C00BDFC48B920222146284601F0A5FBB0FAC8
:10A08C0080F040092BB0F0BD0020FBE7E57000200C
:10A09C00E670002084CE0F0008B5044B986B08B115
:10A0AC00FFF78CFE024B187008BD00BF646D0020DA
:10A0BC00E874002010B5044658B1B0F5007F0AD8FA
:10A0CC00064B00221A70FFF73BFD054B01209C63E9
:10A0DC0010BD0320FCE70420FAE700BFE874002061
:10A0EC00646D002070B50E4C0646E06BA36B4218F5
:10A0FC009A420D4611D85C300A462044314601F094
:10A10C0089FBE36B04F140022B4429463046E363A0
:10A11C0000F098FD2064012070BD0320FCE700BF17
:10A12C00646D0020014B1878704700BFE874002064
:10A13C0013B5104C94F86C21B2B194F8D802B4F861
:10A14C00DA2204F5377104F5B8740B4B1B680093D5
:10A15C000A4B1B68FFF714FF012809D1201D02B020
:10A16C00BDE8104000F0BEB9114610460434ECE7CF
:10A17C0002B010BDCC710020C4710020C871002049
:10A18C00204BD3E90E329A422DE9F04107460D4699
:10A19C0033D1DFF8788098F800604EB1FFF784FD7A
:10A1AC00194B386029461868BDE8F041FFF7DEBD51
:10A1BC00FFF704FE18B3FFF7BBFF01283E6004460F
:10A1CC002E6017D1104B29461868FFF7CFFD0128D8
:10A1DC0004460FD10346324628683146FFF776FD18
:10A1EC0038B9FFF761FD88F8004038602046BDE8BB
:10A1FC00F0810424FFF7A4FCF8E70824F6E7052413
:10A20C00F4E700BF646D0020B0710020E8740020FA
:10A21C0001237230FFF70ABF37B503780D4611469C
:10A22C00032B23D8DFE803F002051019012003B03B
:10A23C0030BDD0F801400022284600F003FD8442D6
:10A24C0014BF00200120F2E70A4600232946013002
:10A25C0003B0BDE83040FFF7E9BE00912B46411C2E
:10A26C0040220020FFF78CFE0128E9E70020DEE702
:10A27C002DE9F043A3B005460E46144600217C227E
:10A28C001F4603A820239DF8AC900293DDF8A8800C
:10A29C0001F0F2FA41220021284601F0EDFAB6F85D
:10A2AC009430A34282BF442303FB046393F896903B
:10A2BC0085F80090B9F1030F1CD8DFE809F009020A
:10A2CC000F1F00224146384600F0BCFCC5F80100C7
:10A2DC00424639462846FFF79FFF0CE002AB01933C
:10A2EC006B1C00930C4943463A4603A8FEF77EFBD1
:10A2FC000028EDD0002023B0BDE8F0836142442358
:10A30C0003FB046301F044019A31B3F89820314403
:10A31C00681C01F07FFADBE784CE0F002DE9F04FCB
:10A32C00684B1E68A5B00446884617460A46014687
:10A33C003046FFF76DFF002800F0C18096F85550AD
:10A34C006DBB4FF00109CDE9008923462A46314601
:10A35C0013A8FFF78DFF48B90525002F40F0A38007
:10A36C00FFF7EEFB284625B0BDE8F08F002F00F07C
:10A37C00A280554F412213A907F2A12001F04AFAFD
:10A38C007368C7F82C903D62BB60002241462046A2
:10A39C0000F058FC4C4B0125C3E9098086E04122B2
:10A3AC00002102A801F068FA05F0010A41220021FF
:10A3BC0013A805F0020501F05FFABAF1000F6CD09A
:10A3CC0004F50050414B41689942C5D1D6F858B0BC
:10A3DC000BF5FF530BF6FF72C2F30B021F339B1AE4
:10A3EC0082689A42B8D34FF440535A688A420ED1CD
:10A3FC001A78102A88BF1A6904F5005398BF0022F6
:10A40C00197810298CBF1B6900239A42A4D12046CD
:10A41C00FFF76EFD00283DD10123CDE900B30022EA
:10A42C002346314602A8FFF723FF002894D0B26DD3
:10A43C00A318A8EB02024DB10021CDE9002113A80D
:10A44C0052463146FFF714FF002885D0002F32D03A
:10A45C001D4FBAF1000F23D02046FFF749FD18B16C
:10A46C0007F11800FFF706FC1948412202A901F078
:10A47C00D1F9002D0CBFA523AC23FB62B36D7B631C
:10A48C00002D82D01348412213A901F0C3F973683F
:10A49C00FB607AE7002DBFD15EE742462346CAE750
:10A4AC00AA23FB62ECE70C48FFF7E4FBFFF748FB41
:10A4BC00054B9C6456E7044B01255D6152E717255B
:10A4CC004BE700BFB0710020646D0020DBE5B1519B
:10A4DC00C46F002046700020886D00200122FFF719
:10A4EC001DBF000090F85430F0B5002B4FD090F801
:10A4FC005520032A4BD890F86E30032B45D1037AA4
:10A50C00002B44D0C368342B43D14FF4405522491F
:10A51C006C68038A8C4225D143B14169D9B1DBB255
:10A52C0000F110040021CEB29E4201D3122011E0A2
:10A53C00AE8954F8047FB74201F10101F3D10378DD
:10A54C00F3B1012A4068154B14D89B6898422CBF74
:10A55C0001201020F0BD12B9012BE7D1EFE7012A41
:10A56C00EDD1E3E713B14369002BDFD10378002B66
:10A57C00E5D1DBE7DB68984294BF10200120E9E7C6
:10A58C00012A0CBF01200F20E4E71420E2E70F2082
:10A59C00E0E71120DEE700BFDBE5B151646D002080
:10A5AC00024AD2F80034002BFBD0704700E0014087
:10A5BC000A4908B50223C1F80435BFF36F8FBFF306
:10A5CC004F8FC1F80805FFF7EBFF0023C1F80435E6
:10A5DC00BFF36F8FBFF34F8F08BD00BF00E001408A
:10A5EC0010B5094C0123C4F80435BFF36F8FBFF3CA
:10A5FC004F8F0160FFF7D4FF0023C4F80435BFF37D
:10A60C006F8FBFF34F8F10BD00E0014070B50E4D42
:10A61C0001231646C5F80435BFF36F8FBFF34F8F78
:10A62C000024B44207D10023C5F80435BFF36F8F63
:10A63C00BFF34F8F70BD51F8243040F82430FFF732
:10A64C00AFFF0134EDE700BF00E0014000F18040B6
:10A65C0000F5C040002382B0036003680193019BA6
:10A66C0002B07047054B4FF0FF32072843F820200B
:10A67C0084BF1B1883F85820704700BFEC7400206F
:10A68C001F288ABF094B4FF0A04300F01F0003EBBB
:10A69C008000D0F8003723F44033C0F80037D0F8EE
:10A6AC00003743EA0143C0F80037704700030050FD
:10A6BC0070B51C4C94F86A3093BB4FF6FF7104F1E3
:10A6CC003000FF255A09012A0CBF0A464FF0FF3211
:10A6DC0003F01F06F240D20748BFC5540133302B9C
:10A6EC00F0D10021C8B20131FFF7BCFF0C29F9D120
:10A6FC000D4B00221A609A800C4BC02183F8061374
:10A70C00402119604FF4BE70FFF7A0FF084B4FF0CB
:10A71C000041C3F80413012384F86A30104670BD5D
:10A72C000820FCE7EC7400205075002000E100E0EC
:10A73C0000600040034B93F86A00003818BF0120FA
:10A74C00704700BFEC740020F0B5404E33189646AD
:10A75C0093F93030002B77DA8B78C3F340079B07E3
:10A76C0047BF0023082508230C25AB4201D1042048
:10A77C00F0BD56F8232001324FEA830449D106EB91
:10A78C00000C46F823E01D468CF8303017B93344E2
:10A79C0083F858008B785F071DD4DA073BD51F2848
:10A7AC0087BF2B4B00F01F0202464FF0A04303EB78
:10A7BC008203D3F8002722F00202C3F80027254FAA
:10A7CC00C20800F0070C012303FA0CF317F802C0BF
:10A7DC0043EA0C03BB548B780A789B072AD504F107
:10A7EC00804303F5C0430002D3F8101521F44F3118
:10A7FC0021F44071C3F810151204D3F8101500F4AD
:10A80C007C5002F4403210430843C3F8100500207A
:10A81C00AEE70133A9E71F284A7887BF0C4F00F039
:10A82C001F0303464FF0A04703F5E073920047F86F
:10A83C002320C4E7083D46FA85F595F8603043EAD5
:10A84C00821385F86030E2E7082091E7EC74002071
:10A85C00000300505075002010B5214C231893F9BB
:10A86C003020072A1DDD144494F858309B09032B23
:10A87C0012D11F288ABF1B4A4FF0A04200F01F03C1
:10A88C00D2F8101598BF0346D94001F001010231EE
:10A89C00BDE81040FFF7F4BE012B0CBF02210321D1
:10A8AC00F6E7D3B2072B19D8930003F1804303F5D5
:10A8BC00C043D3F8100540F00100C3F8100502F1B5
:10A8CC004000800080B2FFF7C1FE39B154F822304D
:10A8DC0023B101239340044AC2F8043310BD00BFD6
:10A8EC00EC74002000030050006000402DE9F04F94
:10A8FC00002485B0CDE90244584D4FF480720121FB
:10A90C0002F1804303F5C0431B68012B07D1D5F836
:10A91C0004330B4203D090B2FFF798FE0C43043281
:10A92C00B2F5907F4FEA4101EAD14C4BD3F87C3120
:10A93C00012B11D14FF4BE70FFF788FE4FF0A043EE
:10A94C0044F00044D3F820250292C3F82025D3F814
:10A95C0020280392C3F82028E3B2D3B1404F01263C
:10A96C000025344210D0AB0003F1804303F5C04303
:10A97C00D3F81005D3F8101557F8253023B1C1F3CF
:10A98C000141C0F3052098470135082D4FEA4606D2
:10A99C00E7D1002C59DA324EDFF8CC90314F4FF022
:10A9AC00000A4FF0010817F9013F5A1C3AD0C3F3C3
:10A9BC00C20210326A44DCB212F8081C03F007021F
:10A9CC0008FA02F2114203F03F052BD01F2D8BBF6A
:10A9DC0003F01F022A464B464FF0A04302F5E071EC
:10A9EC00284653F821100193C1F3014BBBF1020F20
:10A9FC0014BF02210321FFF743FE019B08FA02F268
:10AA0C00C3F82025731993F9303056F823304BB125
:10AA1C00A109032904D0BBF1020F19D1012901D1DD
:10AA2C00284698470AF1010ABAF1040FBBD14FF03E
:10AA3C00A042D2F820350293C2F82035D9F820254F
:10AA4C0003921343C9F82025A8D105B0BDE8F08FB7
:10AA5C00BBF1030FE6D10229E1E700BF0060004023
:10AA6C00EC7400204B7500200003005010B5044618
:10AA7C0012F0030010D1094B1A604B1CDB0012FAC8
:10AA8C0083F3074A1360074B1870074B1870074B7A
:10AA9C001C80074B198010BD0720FCE76475002053
:10AAAC00607500205C7500205D7500205A750020D3
:10AABC00587500202DE9F743284F3B888B420646FA
:10AACC000D46904646D300240DF107008DF8074043
:10AADC0000F07EF8224B23481A78234B008893F819
:10AAEC0000C084455FFA8CF138BF0131D2B238BF57
:10AAFC00CCB2A24227D01C781978CAB288428CBF3B
:10AB0C0001320022E4B21A709DF8070000F084F8BC
:10AB1C004FF6FF739C421FD0144B1B6843F83480D4
:10AB2C0003EBC40996B18DB1114B38881B682A46CA
:10AB3C00314604FB003000F06DFEA9F804500020F3
:10AB4C0003B0BDE8F0834FF6FF74DDE70023A9F8EE
:10AB5C000430F4E70920F3E70420F1E75A750020EC
:10AB6C005D750020587500205C7500206475002010
:10AB7C006075002070B5104C104D22782B789A42DD
:10AB8C0000D170BD0E480F4A2378126806880E4813
:10AB9C0002EBC301006852F83320898803FB0600DE
:10ABAC0090470A4922780988D3B291428CBF01336D
:10ABBC0000232370E1E700BF5D7500205C75002069
:10ABCC005A750020647500206075002058750020AF
:10ABDC0070B5EFF3108672B60C4A9468012384B9F1
:10ABEC0093600B4B0B4DD3F8801029401160C3F8C8
:10ABFC008050D3F8841051604FF0FF32C3F884209A
:10AC0C002346037006B962B670BD00BF687500209C
:10AC1C0000E100E0FC06FFBD084B9A6810B55AB184
:10AC2C0050B9EFF3108172B6054A1C6814605C6869
:10AC3C005460986001B962B610BD00BF6875002001
:10AC4C0000E100E030B53AB11368DB430A4D014432
:10AC5C00884204D1D84330BD4FF0FF33F6E710F8EB
:10AC6C00012B5340082213F0010418BF2C46013A63
:10AC7C0084EA5303F7D1EBE72083B8ED50E8012FBA
:10AC8C00C2EA024240E80123002BF7D1704750E89A
:10AC9C00022FC2EA224240E80223002BF7D1704770
:10ACAC0010B561B1B2FBF3F403FB1424A4B244B9A4
:10ACBC00C0E9001484608281C381204610BD0E203F
:10ACCC00FCE70920FAE782B050E8022FC188B2EB0A
:10ACDC00324F4FF0000317BF92B241EA014142EAF2
:10ACEC00014104E04268B2EB324F08BF012340E857
:10ACFC000212002AE8D18DF807309DF80730002B9E
:10AD0C000CBF1120002002B0704737B550E8013F4E
:10AD1C009DB2C48925448489A54228BF2D1B048972
:10AD2C00A54202BFBFF32F8F002207E0C5EA03053F
:10AD3C0040E80154002CE9D14FF001028DF80320BA
:10AD4C000193019A9DF803300A6023B1006810FA50
:10AD5C0082F003B030BD03F0FF00FAE708B50A88B3
:10AD6C004B889A4203D1FFF789FF012008BD0020D0
:10AD7C00FCE737B550E8023F1FFAA3F5C488A5429B
:10AD8C0002BFBFF32F8F00220DE0C48925448489B4
:10AD9C00A54228BF2D1BC3EA054540E80254002CF0
:10ADAC00E8D14FF001028DF803200193019A9DF830
:10ADBC0003300A6023B1006800EB124003B030BDD1
:10ADCC0003F0FF00FAE708B50A884B889A4203D1D2
:10ADDC00FFF75DFF012008BD0020FCE710B503461E
:10ADEC0053E8000F0A4643E8002494F0000FF7D113
:10ADFC0010BD10B5034653E8000F40EA010243E8CA
:10AE0C00002494F0000FF6D110BD10B5034653E8A2
:10AE1C00002F02EA010043E8000494F0000FF6D181
:10AE2C0010BD0121FFF7E5BF0021FFF7EEBF10B504
:10AE3C0088B1D0E9012301689B1ADBB20A60026871
:10AE4C0013B91371184610BD1168013BDBB24C1CD1
:10AE5C0014600B70F3E70E20F5E737B505460024B8
:10AE6C000DF107008DF80740FFF7B2FE2A686968FC
:10AE7C0013688B420ED9591E116013F8013C288AB5
:10AE8C00EC6800FB0344AB685B1A1179DBB29942A6
:10AE9C0038BF13719DF80700FFF7BEFE204603B0C4
:10AEAC0030BD37B5054600230DF107000C468DF873
:10AEBC000730FFF78DFE2A681368591C1160EA6889
:10AECC00A41A2A8AB4FBF2F41C709DF80700FFF751
:10AEDC00A3FE03B030BD0B6801601146184710B4D7
:10AEEC000468E468A44610BC604710B40468246984
:10AEFC00A44610BC6047000070B550B90E4D0F4C05
:10AF0C000026641B1423B4FBF3F4B44208D10020D4
:10AF1C0010E00368002BF1D0BDE87040DB691847E6
:10AF2C002B6813B901361435EFE7DB6928469847CF
:10AF3C000028F7D070BD00BF084100201C41002044
:10AF4C00014B436000207047A0D00F0008467047AB
:10AF5C0000207047024B1868003818BF012070475A
:10AF6C007475002008B50248FFF75EFF002008BD8D
:10AF7C007475002008B510461A4600F04BFC0020F2
:10AF8C0008BD00002DE9F041804686B011480F46FF
:10AF9C0016461D46FFF745FF0446C8B9AA083146B8
:10AFAC003846FFF733FB0B48FFF73EFFD8F8083065
:10AFBC0053B101228DF800200C9A0592CDE901477E
:10AFCC00CDE9036568469847204606B0BDE8F08198
:10AFDC001124F9E7747500202DE9F043814687B000
:10AFEC0014480F4616469846FFF71BFF0446F0B967
:10AFFC000546AE4215D10F48FFF716FFD9F80830B9
:10B00C005BB102228DF800200022CDE90127CDE9A9
:10B01C000326CDF8148068469847204607B0BDE853
:10B02C00F08307EB0530FFF7C3FA0135E1E7112494
:10B03C00F3E700BF7475002029DF704728DF7047E5
:10B04C0070B503689D6886B004460E466DB1142237
:10B05C000021684600F010FCA36805932379019643
:10B06C002BB1012B0DD06846A84706B070BD01234B
:10B07C008DF8003023690293E368039363690493AA
:10B08C00F1E702238DF80030E3681B030293F5E728
:10B09C000846704700207047024B187A003818BFDA
:10B0AC000120704780750020034B187A0122B0FAFA
:10B0BC0080F05A74400970478075002008B510461E
:10B0CC001A4600F0A7FB002008BD000008B51422AA
:10B0DC000021044800F0D0FB0348FFF7F4FD0020EA
:10B0EC0008BD00BF807500209475002010B5094C78
:10B0FC00094B43602046FFF794FE48B900F018FA5C
:10B10C00064920741C2306484FF4EE72FFF7C8FD65
:10B11C00002010BD80750020CCD00F00A47500203D
:10B12C009475002038B5224C224D237A3BB9224924
:10B13C002248FFF71EFE286008B9606038BD022364
:10B14C0023722B681A7972B1012A22D02868032144
:10B15C00FFF776FF00232372636017491748BDE899
:10B16C003840FFF730BED3E90520121A142AD3E970
:10B17C00031328BF14229208012A014438BF01226C
:10B18C001844FFF759FF50B11128DFD10123237266
:10B19C00D4E7D3E903031844FFF750FFF3E7237C0C
:10B1AC00002BCBD1BDE83840022000F009B800BF1D
:10B1BC00807500207C750020787500209475002027
:10B1CC0038B5224C237A002B3FD0022B09D103280F
:10B1DC002ED01F4B00221B68E2601A793AB1012A6B
:10B1EC0020D0637C6BBBBDE83840FFF79BBFD3E935
:10B1FC0005128D1A142D94BF521914329A61914272
:10B20C00EFD102284FF0000308BF19462372104BF0
:10B21C0018BF0D211868FFF713FF0E490E48FFF7F2
:10B22C00D2FDDEE71A6901321A615B699A42E7E7DF
:10B23C00E3680133082B01D8E360D2E70023E36015
:10B24C00DFE7BDE8384000F063B938BD80750020F9
:10B25C007C7500207875002094750020831E012BCE
:10B26C0001D8FFF7ADBF704700F0FD03012B08D1EB
:10B27C00044B00225A74421E504250411874FFF77E
:10B28C0051BF70478075002008B50648FFF7C9FD0F
:10B29C0030B9054B5B7C1BB9BDE80840FFF742BFDA
:10B2AC0008BD00BF84750020807500202DE9F34196
:10B2BC0080460D46104801A916461F46FFF725FD8E
:10B2CC000446B0B117220021053000F0D5FA2D0B41
:10B2DC000123237101A90848C4F80080A760E56028
:10B2EC006661FFF73BFDFFF7CFFF002002B0BDE822
:10B2FC00F0810420FAE700BF947500202DE9F3419A
:10B30C0080460F460F4801A916461D46FFF7FDFC67
:10B31C000446A8B118220021043000F0ADFA089BB5
:10B32C00A36001A9C4E903670648C4F800806561FD
:10B33C00FFF714FDFFF7A8FF002002B0BDE8F08175
:10B34C000420FAE794750020D1E90032934208BF3B
:10B35C000023016043607047436843B10268916801
:10B36C0052680B449342436004BF00234360704710
:10B37C0010DF704711DF704713B504460949684662
:10B38C00FFF7E2FF019808B902B010BDD0E9003117
:10B39C002046984718B16846FFF7DEFFF2E7112008
:10B3AC00F2E700BFF0D00F0013B50446074968461A
:10B3BC00FFF7CAFF019B0BB902B010BD2046D3E9C1
:10B3CC00002190476846FFF7C7FFF3E7E4D00F0072
:10B3DC000B4991F81623EC2352091341DB0706D5D0
:10B3EC00084B9A683AB94FF480030B60704742F2ED
:10B3FC000200FCF790B81A6842F480021A60704799
:10B40C0000E100E068750020084B9A6822B11A68C8
:10B41C0022F480021A607047054B4FF48002C3F887
:10B42C008020BFF34F8FBFF36F8F7047687500207C
:10B43C0000E100E0F7B5194F3C7864BB184E0125CC
:10B44C0020463570FFF798FF112821D02046FFF7D2
:10B45C00ABFF144B8DF80340186801900DF10300FD
:10B46C00FFF7B6FB104901A8FFF782FF0446B0FABC
:10B47C0080F0400938709DF80300FFF7CDFB3CB914
:10B48C000A4B34701C70FFF7A3FF2846FFF78CFFA4
:10B49C00204603B0F0BD0824FAE700BF82770020F5
:10B4AC0080770020FCD00F001D750F0081770020E5
:10B4BC00F7B5154F3B781BB3144E01203070FFF7D6
:10B4CC005BFF11284FF000051CD00220FFF76CFF2A
:10B4DC000DF107008DF80750FFF77AFBFFF74AFFD5
:10B4EC0004469DF807003D70FFF796FB2CB903202E
:10B4FC003470FFF789FFFFF757FF204603B0F0BD0C
:10B50C000824FAE72C46F8E78277002080770020A1
:10B51C00054B1B7833B1054B1B780BB1FFF7C8BF3C
:10B52C00FFF788BF082070478077002082770020C3
:10B53C00014B1878704700BF8277002007B5074988
:10B54C006846FFF701FF019B0BB903B000BDD3E9BF
:10B55C00002090476846FFF7FFFEF4E7D8D00F00B5
:10B56C00FFF7ECBF60DF704769DF704761DF704742
:10B57C0030B54FF4FA75ADF5017D0DF1020103A85C
:10B58C00ADF80250FFF7F2FF70B90D4901A8FFF7B3
:10B59C00DBFE029B002BF0D003A8D3E900219047DF
:10B5AC0001A8FFF7D9FEF4E7052805D00DF5017DBC
:10B5BC00BDE83040FBF7AFBF0DF5017D30BD00BFDE
:10B5CC0000D10F00024B1B780BB1FFF7D1BF7047B6
:10B5DC008377002018B1034B0360002070470E20C6
:10B5EC00704700BF08410020F0B5074685B00D46F6
:10B5FC00002947D00024244A0A60CDE901440126E1
:10B60C0006238DF8040001A92020ADF8083003941E
:10B61C008DF80660FFF7A8FF2A68039401A9402063
:10B62C00CDE901448DF80560FFF79EFFF7232A68EA
:10B63C00039401A92320CDE90144ADF806308DF81F
:10B64C000470FFF791FF2A68039401A93046CDE9F5
:10B65C0001448DF80460FFF787FF4FF4B0632A684C
:10B66C00019301A9A120CDE90244FFF77DFF2A68CF
:10B67C00039401A9A020CDE90144FFF775FF2046F2
:10B68C0005B0F0BD0E20FBE70841002008B5FFF720
:10B69C0069FF10B9014B01221A7008BD8377002095
:10B6AC004BDF70471FB501A8FFF7FAFF70B90C49C3
:10B6BC0002A8FFF749FE039B002BF4D00198D3E9B5
:10B6CC000021904702A8FFF747FEF4E7052804D0B5
:10B6DC0005B05DF804EBFBF71EBF05B000BD00BF65
:10B6EC000CD10F0038B1054B0360054B43600123AF
:10B6FC000372002070470E20704700BF37B70F0051
:10B70C0011B70F0069B10B78022B0CD1022804D0B1
:10B71C00032814BF08201120704703230B7000204E
:10B72C0070470E2070470820704710B50C4681B149
:10B73C000B78012B06D00ED9033B012B94BF0820AC
:10B74C00112010BDFEF712FA0028FAD10223237043
:10B75C00F7E70E20F5E70820F3E7000070B58169E4
:10B76C00124B134A11F8025C0446D21A45B900690F
:10B77C000C21B2FBF1F200218A4204D1012010E02D
:10B78C004FF0FF30F4E71E68AE420CD1461C02D0DD
:10B79C005E68864207D19D68D4E90001D4E9022392
:10B7AC00A847206070BD01310C33E5E7A0CD0F0038
:10B7BC00ACCD0F001EF0040F0CBFEFF30880EFF3BD
:10B7CC000980FFF7CBBF00BF00B5042A8E4609D312
:10B7DC0050F8043B5EF804CB634505D1043A032AC8
:10B7EC007146F5D89AB10368086880EA030191FAAA
:10B7FC00A1F1B1FA81F1B2EBD10F08D901F0380106
:10B80C0023FA01F2D2B2C840C0B2101A00BD002017
:10B81C0000BD00005AB3844690EA01039B071FD178
:10B82C00830707D011F8013B00F8013B521EF7D1FA
:10B83C001CE08446203A09D32DE9F007B1E8F8075B
:10B84C00A0E8F807203AF9D2BDE8F0071C3205D47D
:10B85C0051F8043B40F8043B121FF9D2043205D0D6
:10B86C0011F8013B00F8013B521EF9D160467047BC
:10B87C0000220B0011001A0084465AB3830704D02F
:10B88C0000F8011B521EF9D124E0C9B241EA012192
:10B89C0041EA0141202A11D3203A2DE9F0030B464D
:10B8AC000C460D460E460F4688468946A0E8FA031C
:10B8BC00203AFBD2BDE8F00320320BD0042A05D38A
:10B8CC0040F8041B121F05D0042AF9D200F8011B02
:10B8DC00521EFBD16046704730B10268034B0448DE
:10B8EC009A4208BF0020704702487047DD55AABB3A
:10B8FC008208F0007108F00038B50D460446B0B16E
:10B90C00A0220021043000F049FD95B108222946FF
:10B91C0004F1640000F048FD082205F1200104F157
:10B92C00840000F041FD044B2360002038BD034827
:10B93C00FCE70348FAE700BFDD55AABB7108F0002D
:10B94C008308F0002DE9F74305460E461F461146C5
:10B95C00FFF7C2FF0446002840F08280002E00F062
:10B96C008380002900F08280202F40F0818005F137
:10B97C004404082205F10409204600F015FD05F1E8
:10B98C00240808223146484600F00EFD06F120013D
:10B99C000822404600F008FD01A94FF48070019781
:10B9AC0000F0A0FA002865D1334A4FF4807313607D
:10B9BC0001219360314A082300F04AFB012108461B
:10B9CC002F4A052300F044FB08234A4601211C2082
:10B9DC0000F03EFB082342460121032000F038FB17
:10B9EC00224608230121022000F032FB254A0823BD
:10B9FC0001211A2000F02CFB234A052301211B20D6
:10BA0C0000F026FB214A08230121142000F020FB22
:10BA1C001F4A08230121152000F01AFB082305F109
:10BA2C0064020121162000F013FB082305F18402A7
:10BA3C000121172000F00CFB0823164A01210B20D2
:10BA4C0000F006FB00F062FB0446019800F0EEFAF1
:10BA5C00114B002C18BF1C46A421284600F0A0FC5A
:10BA6C00204603B0BDE8F0830C4CF9E70C4CF7E72B
:10BA7C000C4CF5E7084CEFE790B0025058D10F0092
:10BA8C00D0D10F0018D10F00BCD10F007CD10F000A
:10BA9C009CD10F0038D10F008408F0007608F0001C
:10BAAC008008F0008108F00037B50193069B0093E5
:10BABC0004461546FFF720FF40B9DDE90032294660
:10BACC00204603B0BDE83040FFF73CBF03B030BDAB
:10BADC000C4BC2691A60826943F8042C426943F822
:10BAEC00082C026943F80C2CC26843F8102C8268AD
:10BAFC0043F8142C426843F8182C026843F81C2CA9
:10BB0C00704700BF5CB602500C4B1B68C3610C4BFA
:10BB1C001B6883610B4B1B6843610B4B1B680361F8
:10BB2C000A4B1B68C3600A4B1B688360094B1B687C
:10BB3C004360094B1B680360704700BF5CB6025042
:10BB4C0058B6025054B6025050B602504CB6025081
:10BB5C0048B6025044B6025040B6025030B10268AA
:10BB6C00034B04489A4208BF0020704702487047B4
:10BB7C00DD55AABB0202F0000002F00013B504462A
:10BB8C0070B104307021019000F00AFC0198054955
:10BB9C00202200F001FC044B2360002002B010BDF9
:10BBAC000248FBE7F4D10F00DD55AABB0002F00000
:10BBBC002DE9FF47254B04460F4615460FCBE846AB
:10BBCC0088E80F0025B90026304604B0BDE8F087A0
:10BBDC002046FFF7C3FF06460028F5D1666A231DF1
:10BBEC0001938EBB206FC0B1C0F14009A94528BF9D
:10BBFC00A94604F1300A4A463946504400F0CCFBC1
:10BC0C00226F4A44402A4F442267A5EB090504D110
:10BC1C005146404600F0D6FB266705F03F0935F04B
:10BC2C003F0505D039462A46404600F0CBFB2F4451
:10BC3C00B9F1000FC7D04A46394604F1300000F084
:10BC4C00ABFBC4F87090BFE7014EBDE7E4D10F0029
:10BC5C000C02F0002DE9FF41144B04460D460FCBAE
:10BC6C00E84688E80F002046FFF778FF0746B0B992
:10BC7C00CDB1636A261D01963BB90123226F636225
:10BC8C0004F13001404600F09DFB3346043D243462
:10BC9C0053F8042B12BAA34245F8042FF8D13846B6
:10BCAC0004B0BDE8F081024FF9E700BFE4D10F000A
:10BCBC000502F000084B1B681B0EF02B08D1074B3C
:10BCCC001A68074B9A4205D1064B00201860704742
:10BCDC00052070470620704728B9025024BA02503C
:10BCEC000000E0200CBA0250002230B54900134687
:10BCFC00023840F6FC75940004F1A04404F52C3491
:10BD0C00904202F10102CABF236025605B181E2A13
:10BD1C00F1D1044A13600B445360034B034A1A607D
:10BD2C0030BD00BF78B0025084B0025020F80F0034
:10BD3C0030B51F4B85B01A46196800910099CC0795
:10BD4C00FAD500F1A05000F52C4080000168136872
:10BD5C000193019BD807FAD5164B174C1B68174D4E
:10BD6C0013F11F0048BF03F13E00401101380028B9
:10BD7C0010DA00230130400153B1A0F120014FF043
:10BD8C000042134204D1013888424FEA5202F8D1E2
:10BD9C0005B030BD13680393039BDB07FAD543183A
:10BDAC0023602B680293029B002BE3D10138DEE762
:10BDBC00B4B00250ACB00250E4B00250DCB002504F
:10BDCC00F0B51D6885B001F01F040DB91F2C25D1ED
:10BDDC00154D2E462F680197019FFF07FAD500F1EC
:10BDEC00A05000F52C408000006835680395039D39
:10BDFC00ED07FAD50D4D00EB611028600C4800687A
:10BE0C0002901F2C18BFC94302980FBF106001F09D
:10BE1C001F0100FA01F11160002119601068430044
:10BE2C00C00F136005B0F0BDB4B00250E4B00250C6
:10BE3C00DCB002500C4B18603F3020F03F00890101
:10BE4C00403058609960D96019615961996107480F
:10BE5C00D9611C3382B002680192019AD207FAD5DB
:10BE6C00196002B0704700BF90B00250B4B00250DD
:10BE7C0038B5A0F12003B3F5426F05462CD88F28B6
:10BE8C0026D800F1470300F16604DB064FEA541490
:10BE9C0000D0013464013F34A409013411B18C4247
:10BEAC001AD80C46E3004FF48050B0FBF3F0202876
:10BEBC0028BF202002B11060084B01221A602146D5
:10BECC00FFF712FF28462146FFF7B4FF002038BDCC
:10BEDC0000F11F046409DDE70148F8E71CB80250C3
:10BEEC002221F0000A460021FFF7C2BF2DE9F041E4
:10BEFC00484B88B01C461D680195019DEF07FAD58B
:10BF0C00454BDFF820E1454F13449B000A181B6892
:10BF1C001E2A88BFC0F11E011F330A185B095A4341
:10BF2C00B2F5806F88BF4FF480614FF0000203F1CF
:10BF3C00010588BFB1FBF3F1944688BF091A25F0BF
:10BF4C0001058000914233DC22680492049AD207E6
:10BF5C00FAD5334A1268216805910599CF07FAD5AD
:10BF6C0030482E490260002215469A4246D15A1C8E
:10BF7C002A4D194622F0010200268A4241D8216836
:10BF8C0006910699CE07FAD52749096825680795C1
:10BF9C00079DED07FAD50160002120480C46994217
:10BFAC0032D11E4900209A4231D808B0BDE8F08148
:10BFBC0026680296029EF607FAD500F1A04606F511
:10BFCC002C363668D4F80080CDF80C80DDF80C8067
:10BFDC0018F0010FF6D0CEF8006000269E4205D175
:10BFEC001E46B54206D801320430ABE7C7F800C094
:10BFFC000136F3E7C7F800C00136F2E70D600132F5
:10C00C00B3E72E600131B8E704600131C7E708607F
:10C01C000133C8E7B4B0025024AC0014D8B00250BD
:10C02C007CB00250D4B0025078B0025008B540B188
:10C03C00202801464FF0070228BF20210020FFF7DF
:10C04C0055FF024B00221A6008BD00BF1CB80250FD
:10C05C00F0B52A4D85B02C462E680096009EF70749
:10C06C00FAD500F1A05000F52C408000056820683E
:10C07C0001900198C607FAD5214E2248356002EB93
:10C08C008307BA422BD15A1C1E4822F0010200270A
:10C09C009A4229D823680293029BD807FAD51A4BE7
:10C0AC000B449B0018681F30B2EB501F4FEA501323
:10C0BC0013D2216803910399C907FAD515440021BD
:10C0CC009B1A104A356008468B4210D85A1C0D49F1
:10C0DC0022F0010200209A420CD805B0F0BD52F8B3
:10C0EC0004CBC0F800C0CCE707600133D0E7106088
:10C0FC000131E9E708600133EDE700BFB4B002504D
:10C10C00D4B00250D8B0025024AC00142DE9F04148
:10C11C00834B1D6898682033A0B01E461A680192A4
:10C12C00019AD207FAD57F4C7F4B23603368029378
:10C13C00029BDF07FAD57D4B23607D4B1F461A68A7
:10C14C000392039AD107FAD57A4B1968C1F34021AF
:10C15C0032680492049AD207FAD5774A22603A6878
:10C16C000592059AD207FAD51A68C2F34022002923
:10C17C0000F0D180002A00F0CE8032680692069A38
:10C18C00D107FAD56D4A22603A680792079AD2070E
:10C19C00FAD51A68C2F34022316808910899C90788
:10C1AC00FAD567492160396809910999C907FAD507
:10C1BC001B68C3F34023002A00F0AF80002B00F073
:10C1CC00AC8033680A930A9BDA07FAD5564B236086
:10C1DC0033680B930B9BDB07FAD55A4A2260336802
:10C1EC000C930C9BDF07FAD5574B236033680D93E8
:10C1FC000D9BD907FAD5554B236033680E930E9BD4
:10C20C00DB07FAD5524B236033680F930F9BDF0784
:10C21C00FAD5504B2360504B1E461968109110995B
:10C22C00C907FAD53F4C4D4B236033681193119BD2
:10C23C00DB07FAD54A4B236033681293129BDF0756
:10C24C00FAD5484B23603A4B9846196813911399C9
:10C25C00C907FAD5324F386033681493149BDB0747
:10C26C00FAD5226033681593159BD807FAD53E4B47
:10C27C00236033681693169BD907FAD53B4B236082
:10C28C0033681793179BDA07FAD5394B2360336859
:10C29C001893189BDB07FAD5364B23603368199338
:10C2AC00199BD807FAD5344B236033681A931A9B21
:10C2BC00D907FAD5314B236033681B931B9BDA07E4
:10C2CC00FAD52F4B236000F033FC08BBD8F80030B4
:10C2DC001C931C9BDB07F9D53D6033681D931D9B9C
:10C2EC00D907FAD5274B236033681E931E9BDA07B8
:10C2FC00FAD5254B2360D8F800301F931F9BDB0722
:10C30C00F9D50C4B1B6813F4805F204B08BF184603
:10C31C0020B0BDE8F0811E48FAE71E48F8E700BFE0
:10C32C0090B0025080B0025000100251C01F722910
:10C33C00B4B0025088B00250C0CF0129C01F0E29E2
:10C34C00C03F002940010249003184A80000164971
:10C35C00400108A180440888B0B00250C0447088E5
:10C36C0080077A41C0077E4100006A498006164961
:10C37C0040006E49000200210082202140822021D1
:10C38C008082242140A161A100C861510308F10001
:10C39C000108F1000208F100FFF73CBAFFF76CBA94
:10C3AC000A460021FFF768BA01EB820204388A4280
:10C3BC0001D10020704752F8043D1BBA40F8043FED
:10C3CC00F5E700002DE9F74F314B446805469146DF
:10C3DC009A461A68002AFCD12E4B9B461A68002AF2
:10C3EC00FCD14FF0FF30019100F094FC802000F064
:10C3FC0097FC294E294ADFF8B880294F01230720E2
:10C40C003360A2F59E72C2F83C011360636AC8F8EF
:10C41C000030A36A3B602B6842F8043CAB682046B2
:10C42C0098470199DAF80030002BFBD1B9F1000FD5
:10C43C0020D11C4B04221A60DAF80030002BFBD1FF
:10C44C00DBF80090B9F1000FFAD1EB682046984761
:10C45C00D8F8003063623B68A362134BC3F80090BA
:10C46C00C3F84491DAF80030002BFBD1336003B0F1
:10C47C00BDE8F08F236A012B04BF0B4A13600B4BF2
:10C48C0040201960C3F8049000F050FCD4E700BFC2
:10C49C0010B9025020BC025018B8025000B902501A
:10C4AC00D0B70250C8B7025084B6025028BC025014
:10C4BC00CCB7025010B5544B98B019461A6801927B
:10C4CC00019AD207FAD5514B514A1A600A68029266
:10C4DC00029AD407FAD54F4A1A600A680392039A53
:10C4EC00D007FAD54C4818600A680492049AD2070F
:10C4FC00FAD54A4A1A600A680592059AD407FAD501
:10C50C00474A1A600A680692069AD207FAD5454A33
:10C51C001A600A680792079AD407FAD5424A1A6039
:10C52C000A680892089AD207FAD5404A1A600A6833
:10C53C000992099AD407FAD53D4A1A600A680A92F8
:10C54C000A9AD207FAD53B4A1A600A680B920B9AE0
:10C55C00D407FAD5384A1A600A680C920C9AD2079A
:10C56C00FAD5364A1A600A680D920D9AD407FAD594
:10C57C00334A1A600A680E920E9AD207FAD5314ADB
:10C58C001A600A680F920F9AD407FAD52E4A1A60CD
:10C59C000A681092109AD207FAD52C4A1A601A4BD4
:10C5AC0019461C681194119CE407FAD5174B1860B6
:10C5BC00086812901298C407FAD51A600A68139288
:10C5CC00139AD007FAD5124A1A600A681492149A70
:10C5DC00D207FAD51E4A1A600A681592159AD40722
:10C5EC00FAD51C4A1A600A681692169AD007FAD520
:10C5FC00194A1A600A681792179AD207FAD5174A7D
:10C60C001A6018B010BD00BFB0B0025080B002501C
:10C61C000093652100043190409665900083612160
:10C62C0000C3302100C3649000816190004610214A
:10C63C00008111210041442100C320290C4610C85F
:10C64C000086312100C3602140C128294096652114
:10C65C000013319040962529594614C8400432499C
:10C66C0010B5494B94B019461A680092009AD2073B
:10C67C00FAD5464B464A1A600A680192019AD407C9
:10C68C00FAD5444A1A600A680292029AD007FAD57F
:10C69C00414818600A680392039AD207FAD53F4AB8
:10C6AC001A600A680492049AD407FAD53C4A1A60B4
:10C6BC000A680592059AD207FAD53A4A1A600A68AE
:10C6CC000692069AD407FAD5374A1A600A68079276
:10C6DC00079AD207FAD5354A1A600A680892089A5E
:10C6EC00D407FAD5324A1A600A680992099AD20715
:10C6FC00FAD5304A1A600A680A920A9AD407FAD50F
:10C70C002D4A1A600A680B920B9AD207FAD52B4A5B
:10C71C001A600A680C920C9AD407FAD5284A1A6047
:10C72C000A680D920D9AD207FAD5264A1A600A6841
:10C73C000E920E9AD407FAD5234A1A600A680F9201
:10C74C000F9AD207FAD5214A1A600F4B19461C686A
:10C75C001094109CE407FAD50C4B186008681190E3
:10C76C001198C407FAD51A600A681292129AD00767
:10C77C00FAD5174A1A600A681392139AD207FAD597
:10C78C00144A1A6014B010BDB0B0025080B0025000
:10C79C00809065210004099040966590808061210D
:10C7AC008020082180206490008161900046102137
:10C7BC00008111210041442180202029024610C80B
:10C7CC00008609218020602140212829409665217E
:10C7DC0040962529594614C810B5504B96B01C46A6
:10C7EC001A680192019AD207FAD54D4B4D4A1A603C
:10C7FC0022680292029AD207FAD54B4A1A604B4A27
:10C80C0042EA804022680392039AD207FAD5186054
:10C81C0022680492049AD007FAD5454A1A60A2F508
:10C82C00800242EA814122680592059AD207FAD524
:10C83C00196022680692069AD007FAD53D4A1A600A
:10C84C0022680792079AD107FAD53B4A1A602268E8
:10C85C000892089AD207FAD5384A1A6022680992C7
:10C86C00099AD007FAD5364A1A6022680A920A9AAF
:10C87C00D107FAD5334A1A6022680B920B9AD20769
:10C88C00FAD5314A1A6022680C920C9AD007FAD564
:10C89C002E4A1A6022680D920D9AD107FAD52C4AAD
:10C8AC001A6022680E920E9AD207FAD5294A1A609B
:10C8BC0022680F920F9AD007FAD5274A1A6021687E
:10C8CC0010911099C907FAD51A60144B1A461968B9
:10C8DC0011911199C807FAD5114B204919601168AB
:10C8EC0012911299C907FAD51D4919601168139153
:10C8FC001399CC07FAD50B49196011681491149946
:10C90C00C807FAD517491960116815911599C90707
:10C91C00FAD5154A1A6016B010BD00BFB0B002505F
:10C92C0080B002504004419000862929D81001C8DB
:10C93C00401441904014212940146521003440904A
:10C94C0000310C90C0400C90C030202940960D90C6
:10C95C0000416090031645C80086112100416021FA
:10C96C00594644C84014459040142D9070B5264843
:10C97C0088B0054604680094009CE607FAD5234865
:10C98C00234C0460234C44EA83432C680194019C9F
:10C99C00E407FAD50360930143EA824242F0104463
:10C9AC0044F4C0442B680293029BDE07FAD5046062
:10C9BC002B680393039BDB07FAD5174B03608B01A2
:10C9CC0043EA814141F0104343F4C0432E6804967E
:10C9DC00049EF607FAD503602B680593059BDE07CA
:10C9EC00FAD5046041F058412B680693069BDC078E
:10C9FC00FAD5016042F058422B680793079BDB077E
:10CA0C00FAD5026008B070BDB0B0025080B00250D0
:10CA1C00C02102298071009880611890354B8EB02E
:10CA2C0019461A680092009AD207FAD5324B334A4B
:10CA3C001A600A680192019AD007FAD5304A1A6036
:10CA4C000A680292029AD207FAD52E4A1A600A682C
:10CA5C000392039AD007FAD52B4A1A600A680492FB
:10CA6C00049AD207FAD5294A1A600A680592059ADF
:10CA7C00D007FAD5264A1A600A680692069AD20797
:10CA8C00FAD5244A1A600A680792079AD007FAD591
:10CA9C00214A1A600A680892089AD207FAD51F4AE6
:10CAAC001A600A680992099AD007FAD51C4A1A60CA
:10CABC000A680A920A9AD207FAD51A4A1A600868C2
:10CACC000B900B98C007FAD51A600A680C920C9A56
