:02000002F0000C
:101000000000042019120F0001120F0003120F003C
:1010100005120F0007120F0009120F000000000058
:10102000000000000000000000000000ED850F003F
:101030000D120F00000000000F120F0011120F0020
:1010400013120F0013120F0013120F0013120F00D0
:1010500013120F0013120F00A5610F0013120F00DF
:1010600013120F0013120F0013120F0013120F00B0
:1010700013120F0013120F0013120F0013120F00A0
:10108000F12E0F0013120F0013120F0013120F0096
:1010900013120F0013120F003D820F0013120F00E6
:1010A00013120F0013120F0013120F0013120F0070
:1010B00013120F0013120F000000000000000000C8
:1010C00013120F0013120F0013120F0013120F0050
:1010D0008D280F0013120F0013120F0013120F00B0
:1010E00013120F0013120F00C59C0F000000000028
:1010F0000000000013120F000000000013120F0088
:1011000000000000000000000000000000000000DF
:1011100000000000000000000000000000000000CF
:1011200000000000000000000000000000000000BF
:1011300000000000000000000000000000000000AF
:10114000000000000000000000000000000000009F
:10115000000000000000000000000000000000008F
:10116000000000000000000000000000000000007F
:10117000000000000000000000000000000000006F
:10118000000000000000000000000000000000005F
:10119000000000000000000000000000000000004F
:1011A000000000000000000000000000000000003F
:1011B000000000000000000000000000000000002F
:1011C000000000000000000000000000000000001F
:1011D000000000000000000000000000000000000F
:1011E00000000000000000000000000000000000FF
:1011F00000000000000000000000000000000000EF
:10120000FEE7FEE7FEE7FEE7FEE7FEE7FEE7FEE7B6
:10121000FEE7FEE700F002B8FFF7FCBF0F484FF013
:101220000701884385460E4880470E48016841F40F
:1012300070010160BFF34F8FBFF36F8F00F01AB8DA
:1012400009480A490A4A884207D0521A05D0037849
:1012500001300B700131013AF9D1704700000420D0
:10126000AD200F0088ED00E0E49D0F000841002054
:101270001C410020364937480A1A02D00722914300
:101280008D46354935480A1A06D00722914381F325
:101290000988022282F3148831483249324A00F028
:1012A00039F832483249334A00F034F83248334989
:1012B000334A00F02FF833483349344A00F02AF813
:1012C00033483449344A00F025F834483449354A23
:1012D00000F020F834483549354A00F01BF835480D
:1012E0003549002200F02EF834483549002200F03C
:1012F00029F8344A904724482449884205D0026896
:10130000043003B4904703BCF7E7002000212E4AC5
:101310009047FEE7884214D0521A12D003460B437E
:1013200013430324234206D1036804300B600431C5
:10133000043AF9D17047037801300B700131013A5A
:10134000F9D17047884202D002700130FAE7704745
:101350000000042000F80320000004200000042006
:1013600048D30F001C41002084410020CC130F0003
:10137000CC130F00E89C0F0048D30F001C41002045
:101380001C410020F89D0F00F89D0F00F89D0F00F4
:10139000F89D0F00F89D0F00F89D0F00F89D0F00BD
:1013A000F89D0F0048D30F00B0D30F0084410020F8
:1013B0008441002084410020009A0020009A0020EF
:0C13C000009A002041120F006D160F0073
:1013CC000268530910B5044618D0012B4FF6FF7371
:1013DC0018BF002302F01F02D340DB0704D40949D5
:1013EC004FF4F67005F0C2F823681F2B83BF03F08F
:1013FC001F03054823604FF0A04010BD4FF0FF3392
:10140C00E8E700BFF89D0F000003005007B50190FE
:10141C0001A8FFF7D5FF019B03F5E073032240F809
:10142C00232003B000BD07B5019001A8FFF7C8FF4A
:10143C000199D0F8042501238B4023EA02011340C3
:10144C00C0F80815C0F80C3503B000BD07B5019005
:10145C0001A8FFF7B5FF019A01239340C0F80C35A2
:10146C0003B000BD07B5019001A8FFF7A9FF019AD1
:10147C0001239340C0F8083503B000BD0E2813B506
:10148C001CD1019001A8FFF79BFF0D4C0D4AD0F821
:10149C001035A41A019AE408D3402404DB0744F065
:1014AC00030409D5012000F01FFF0749204602B0B4
:1014BC00BDE8104006F03ABB0449F7E702B010BD96
:1014CC000C9D0F00049D0F00239E0F00379E0F00F4
:1014DC0008B50B20FFF7A7FFBDE808400C20FFF76D
:1014EC00A2BF08B50820FFF7B1FF0B20FFF7AEFF36
:1014FC00BDE808400C20FFF7A9BF08B51420FFF782
:10150C0085FFBDE808401420FFF7ACBFFFF7E0BF34
:10151C0007B504F049FD08B904F00CFD0F4B1A880F
:10152C00ADF804209B780E4A8DF8063001A90E20E8
:10153C0004F044FD08B100F07FF801210E2004F006
:10154C00CFFD0820FFF762FF0B20FFF75FFF0C2099
:10155C00FFF75CFFFFF7C5FF03B000BD64CB0F00C6
:10156C0089140F0010B5044607280FD8DFE800F0E7
:10157C00090E0E1B0E040E044FF4004001F0EAF9A4
:10158C0004E00A494FF4004001F0F6F90848094B11
:10159C000949C01AC0080004224640F00400BDE806
:1015AC00104006F0C7BA41F69910E7E719150F007D
:1015BC000C9D0F00049D0F004B9E0F0008B506F00C
:1015CC006BFB06F059F90028FBD10D4D642445F056
:1015DC0001054FF47A40A847013CFAD1094BD3F8E6
:1015EC00F020D20700D500BEBFF34F8FD968064A52
:1015FC0001F4E0610A43DA60BFF34F8F00BFFDE7EF
:10160C00B0CB0F0000ED00E00400FA0507B50B4667
:10161C00064C07490092641AE40824040246054962
:10162C0044F0010006F097FAFFF7C8FF0C9D0F007D
:10163C00049D0F005B9E0F0008B50649064B5B1A14
:10164C00DB081B040246054943F0010006F072FA60
:10165C00FFF7B4FF049D0F000C9D0F00929E0F002E
:10166C0010B5FFF755FF4FF08043D3F8003401F06D
:10167C00EFFB4FF48051002000F0D0FF08B1FFF7D2
:10168C00DBFF1548C0F57E2100F0C8FF014600289D
:10169C00F5D11248124C06F09DF805F0D3FF114B12
:1016AC001149E41AE408240444F0030006F03EFA5D
:1016BC000E4800F075FE0028E1D106F0DDF8002898
:1016CC00FBD10B4944F0010006F030FA06F0D4F8D7
:1016DC000028FBD1D3E700BF00100F0099290F00A1
:1016EC000C9D0F00049D0F00AD9E0F0071150F0097
:1016FC00B99E0F000023C0E902328B881A44B1F95D
:10170C00063002611A44C0E90011426108880038B1
:10171C0018BF012070474268118838B5034641B1A3
:10172C0002F110014160118A29B9C2680168FFF702
:10173C00E1FF002038BD9178108901F03004302C85
:10174C0014D1957C05F03005302D16D1908819698F
:10175C00091A19610020918AB2F9162008441969F6
:10176C0001441961114459610120E3E73F2906D86E
:10177C00202C09D151894843EDE73F29EBD901F0E1
:10178C00C001802908BF0420002CE4D199680131E4
:10179C009960E0E770B5456804460E462B461A88FA
:1017AC00B24204D19B7803F00F03082B07D12046DB
:1017BC00FFF7B1FF6368AB42F1D1002070BD01208F
:1017CC00FCE743681A44426011B101399A4201D1D5
:1017DC000120704713F8010B01F8010FF6E783683D
:1017EC0010B504460BB9002010BD036801229847C0
:1017FC000028F8D0A368013BA360F5E72DE9F3417D
:10180C000F460DF107018046FFF7E9FF054620B9A9
:10181C000025284602B0BDE8F0819DF907309DF8FF
:10182C000740002B11DA04F07F0407260DF10701A5
:10183C004046FFF7D4FF0028EAD09DF8072002F0BD
:10184C007F03B3401C43130601D43C60E1E7073629
:10185C00232EEBD1DCE770B541688A7802F00F05D6
:10186C00082D86B003461FD103691C6800260CB9ED
:10187C0006B070BD236862689D6826732946684669
:10188C00FFF738FF6368049304F10C030593AB78FE
:10189C0003F0C003802B08BF231D684608BF0493C8
:1018AC00FFF7D9FFA468E2E73F2A24D802F0300002
:1018BC0010280DD15A6900201070072DCC681869BA
:1018CC000CD10146204606B0BDE8704000F01FB8B0
:1018DC009006F2D55B6900221A80C9E70A89214675
:1018EC0024B106B0BDE8704006F0D8BE06B0BDE825
:1018FC00704006F005BF02F0C0018029B8D1006924
:10190C0000210160920644BF5B691980B0E77FB586
:10191C000A4601466846FFF7EDFE30B16846FFF710
:10192C009AFF6846FFF7F7FEF7E707B000BD000027
:10193C0030B5054685B01446A9B90268114B9A42D8
:10194C0011D0102C06D8224669462846FFF7F0FF26
:10195C0005B030BD102269462846FFF7E9FF002884
:10196C00F6D0103CEDE7AB68A34201D20020EFE7C4
:10197C002B682246284698470028F7D0AB681B1BDB
:10198C00AB60E5E7CF170F002DE9F341884601A9BD
:10199C0007461646FFF732FFB0B1019C621C4FF0B0
:1019AC00000505D298F8023003F0C003802B01D15A
:1019BC00284609E0B8F808309342F9D3224631465C
:1019CC003846FFF7B5FF355502B0BDE8F08173B569
:1019DC000D4601A906461446FFF710FFA8B1019A5F
:1019EC00B2F5803F11D2AB7803F0C003802B0CD042
:1019FC002989931C994208D32146304621F8022BA1
:101A0C0002B0BDE87040FFF793BF002002B070BD7C
:101A1C00034B8260C0E900310023C360704700BFF4
:101A2C00CF170F002DE9F3410025064688462F46B7
:101A3C002C460DF107013046FFF7D1FEB0B19DF8F1
:101A4C0007C0A4F120030CF07F02C4F1200102FABC
:101A5C0003F322FA01F10B43A2401CF0800F45EA7C
:101A6C00020547EA030704D1C8E9005702B0BDE8F4
:101A7C00F0810734462CDCD10020F7E737B50D4652
:101A8C0069461446FFF7CEFFA8B12B89013B072B03
:101A9C0024D8DFE803F01D18231223232304DDE9E7
:101AAC000001C4E9000103460A46914208BF98426E
:101ABC000CBF0120002003B030BDDDE900322360F3
:101ACC0018460021F1E7DDE90032238098B2F8E7EF
:101ADC00DDE90032237003F0FF00F2E70020EAE7B3
:101AEC0037B50D4669461446FFF79CFF30B12B897C
:101AFC00082BDDE9001203D1C4E9001203B030BD9C
:101B0C00022B4FEAE1700FD0042B03D0012B0FD026
:101B1C000020F3E721600B460246824208BF8B424D
:101B2C000CBF01200020E9E70BB22380DA17F4E7A1
:101B3C004BB22370FAE7F7B50C46002119702170EF
:101B4C00116001A9074615461E46FFF757FE38B926
:101B5C00BB6813B1002003B0F0BD01233370F9E76B
:101B6C0001990029F9D0CB0801F007012B602170F5
:101B7C00F1E713B50446052921D8DFE801F0030F7E
:101B8C001720201E012201A92046FFF7D1FE18B113
:101B9C009DF90430002BF5DB02B010BD08220021AA
:101BAC00204602B0BDE81040FFF7C2BE01A9FFF706
:101BBC0025FE0028F0D0019AF1E70422EFE700207F
:101BCC00EAE773B50E4601A90446FFF717FE054672
:101BDC0018B90025284602B070BD94E80F0086E8BD
:101BEC000F0001998A42F4D3B160A3685B1AA36019
:101BFC00F0E700002DE9F043536815469A7812F08F
:101C0C00C00489B006468C4603D0402C6BD000240F
:101C1C0013E002F00F01604F02F03002202A57F857
:101C2C00217012D007D862B92A6919463B4609B00F
:101C3C00BDE8F0431847302A43D0204609B0BDE830
:101C4C00F0836A6901211170EEE7BCF1020FD5F83F
:101C5C00148027D1042925D804A9FFF7B2FF044624
:101C6C000028EAD0069B2BB16968B8F800304A8985
:101C7C009A4208D8059B7360069B002B14BF002466
:101C8C0004F00104D9E708892A6903FB002204A89F
:101C9C00B84728B1B8F800300133A8F80030E1E7B4
:101CAC000446E7E7B8F800105A898A42AFD9188978
:101CBC002A694C1C01FB0022A8F80040194630464A
:101CCC00B4E76A6918881080072909D11A8928692C
:101CDC00214606F015FD6B682969D868FFF717FED9
:101CEC002A696968EBE72F693B6823B909B0BDE83D
:101CFC00F043FFF73EBF022907F1040813D104A9F2
:101D0C00FFF75FFF002882D03B686968424604A851
:101D1C009847044600283FF47AAF069B002BF3D17A
:101D2C00059B736089E7012927D005292DD000294F
:101D3C007FF46DAF0DF104090124012249463046B0
:101D4C00FFF7F6FD00283FF462AF99F90030002B45
:101D5C000DDB124B049301ABCDE905340023079343
:101D6C0069683B68424604A89847044665E7013415
:101D7C000B2C09F10109E0D149E7082201A9FFF771
:101D8C00D7FD08240028E4D141E704220DEB020121
:101D9C00FFF7CEFD0424F5E7B8CB0F00CF170F00EB
:101DAC002DE9F04790B00446002604A8CDE9026660
:101DBC00FFF7A0FCA3683BBBDDE9053404A89D78C4
:101DCC00FFF7A9FC0028F7D115F0300F03D1059BC4
:101DDC001B8803B10134002C00F0B580630902A903
:101DEC000022934240F0A88010AA02EB830304F077
:101DFC001F0453F8383CC4F120044FF0FF30E0408E
:101E0C00C31A584258410DE00DF1030301AA0DF11C
:101E1C0002012046FFF78FFE38B99DF80330002BE6
:101E2C00CAD1002010B0BDE8F087019F04A8394644
:101E3C00FFF7B0FC002858D1B7424DD3059D2B4677
:101E4C009B7803F00F03082B7FD004A8FFF763FCEB
:101E5C00059B9D42F4D14FF0FF36B7423CD3089B13
:101E6C009DF80290D4F808801D68A368002D30D02E
:101E7C0098459FD12B68D3F800A0BAF1000F08D079
:101E8C004B463A4629462046D0470028C9D0AD6873
:101E9C00EBE7D3F808A0BAF800309F42F7D16A6894
:101EAC0051460AA8FFF726FC6B680E9305F10C034C
:101EBC000F939AF8023003F0C003802B04BF2B1D44
:101ECC000E9301232B730AAA49462046FFF792FE74
:101EDC00DBE798457FF46EAF9DF802102046FFF7C4
:101EEC0048FE00287FF466AF9BE7059B9B7803F0C8
:101EFC0030037BB9069A3F2A0CD8510910AB03EB7F
:101F0C00810102F01F020123934051F8382C134336
:101F1C0041F8383CD4F80C809DF80250B8F1000F11
:101F2C0004D004AB2A4639462046C04704AA2946A9
:101F3C002046FFF75FFED4E7086801307FF471AFED
:101F4C00043101324DE701206CE7059B1E8884E7C4
:101F5C0070B50C460646154611462046FFF7D7FCD1
:101F6C002A4621463046BDE87040FFF719BFF0B550
:101F7C0085B0CE680D46694604461746FFF721FE2C
:101F8C0068B1E86858B1AB7803F03003202B3A46BF
:101F9C003146684605D1FFF7DBFF019B636005B056
:101FAC00F0BDFFF7FDFEF8E713B50C466946FFF7E9
:101FBC0039FD60B1DDE900134A0842EAC372C90772
:101FCC004FEA530344BFD243DB43C4E9002302B0BE
:101FDC0010BD37B50D4669461446FFF7E5FFA8B1AD
:101FEC002B89013B072B24D8DFE803F01E182312A2
:101FFC0023232304DDE90030C4E9003019460246EE
:10200C00824208BF99420CBF0120002003B030BDB2
:10201C00DDE9001221600B46C817F1E7DDE900127B
:10202C000BB22380D817EBE7DDE900124BB223701B
:10203C00F8E70020EAE713B504220C460DEB020189
:10204C00FFF776FC08B1019B236002B010BD11466E
:10205C00FFF7F1BF13B508220C466946FFF768FC81
:10206C0018B1DDE90023C4E9002302B010BD11460C
:10207C00FFF7F0BF4FF08053D3F83021082A03BF8D
:10208C00D3F83401B0FA80F040090020704700000A
:10209C00024AD2F80034002BFBD0704700E001401C
:1020AC004FF0805310B5D3F83021082A4ED14FF0A1
:1020BC0080420021C2F80C11C2F81011C2F8381578
:1020CC0002F54042D3F80414C2F82015D3F80814D2
:1020DC00C2F82415D3F80C14C2F82815D3F8101430
:1020EC00C2F82C15D3F81414C2F83015D3F8181400
:1020FC00C2F83415D3F81C14C2F84015D3F82014C8
:10210C00C2F84415D3F82414C2F84815D3F828148F
:10211C00C2F84C15D3F82C14C2F85015D3F830145F
:10212C00C2F85415D3F83414C2F86015D3F8381427
:10213C00C2F86415D3F83C14C2F86815D3F84014EF
:10214C00C2F86C15D3F84434C2F87035FFF792FF1F
:10215C0018B1404B404AC3F88C26FFF78BFF18B1DF
:10216C003E4BFB22C3F81825FFF784FF58B14FF004
:10217C0080424FF08051D2F8E43ED1F8581261F30E
:10218C000303C2F8E43EFFF775FF20B1344B4FF464
:10219C000072C3F840264FF08053D3F83031082B2F
:1021AC0009D14FF08043D3F80024D20744BF6FF01D
:1021BC000102C3F800242B4AD2F8883043F4700390
:1021CC00C2F88830BFF34F8FBFF36F8F4FF080533F
:1021DC00D3F83021082A0BD1D3F83431032B81BF2B
:1021EC004FF01023D3F808224FF08043C3F8582542
:1021FC004FF01023D3F80022002A03DBD3F804326B
:10220C00002B22DA184901234FF01020C1F80435B5
:10221C001224FFF73DFFC0F80042FFF739FFC0F86A
:10222C000442FFF735FF0023C1F80435FFF730FFF8
:10223C00BFF34F8F0B490D4BCA6802F4E062134396
:10224C00CB60BFF34F8F00BFFDE7094B094A1A6003
:10225C0010BD00BF005000404881030000F000405A
:10226C000090024000ED00E000E001400400FA059F
:10227C001C4100200090D003008800F00100704742
:10228C0041DF7047014B01221A707047A4450020B2
:10229C0008B505F001FD05F0EFFA0028FBD1BFF3FE
:1022AC004F8F0549054BCA6802F4E0621343CB60BB
:1022BC00BFF34F8F00BFFDE700ED00E00400FA050F
:1022CC0008B50648064B0749C01AC008000440F080
:1022DC00040005F02BFC002008BD00BF0C9D0F0076
:1022EC00049D0F00DE9E0F0010B50B4B0B490446EE
:1022FC000B48C01AC008000440F0040005F016FC9E
:10230C003CB1084B08480022BDE810401A7002F09E
:10231C0045BC2046FFF7BCFF049D0F00F89E0F0044
:10232C000C9D0F00A44500209D220F00042810B521
:10233C00044609D802280ED813D00C4B1B689BB14D
:10234C002046BDE810401847831F012BF5D801200B
:10235C00FFF7CAFFF1E706494FF4F01000F0DEFA80
:10236C00EBE702F007FBE8E710BD00BFA845002033
:10237C0081230F0008B50748074B0849C01AC0084D
:10238C00000440F0030005F0D1FBBDE8084001203B
:10239C00FFF7AABF0C9D0F00049D0F000E9F0F00AE
:1023AC00F8B5674B674C6849E41AE408240444F018
:1023BC0004060546304605F0B9FB644B00201D6051
:1023CC0002F002FC002840F0B68000F049FC012825
:1023DC0000F0AA80022800F0B080002840F0AB800A
:1023EC004FF08043D3F80024D20349D54FF4803208
:1023FC00C3F800240027564D2B6A012B4FD05549AA
:10240C0044F0030005F092FB5349304605F08EFB77
:10241C004FF4F014FFF771F800F078FD4F4A2021CB
:10242C00182003F079FF08B1FFF706F94FF080434D
:10243C00D3F81C2502F0F902B12A02BFD3F81C25EF
:10244C0002F04E02C3F81C25FFF73AFF002872D1A8
:10245C002046434900F062FA424801F02DF800286A
:10246C0069D14149304605F061FB00F095FD03F060
:10247C00D7FF05F001FA0028F7D1FFF701FFF4E7C9
:10248C00D3F8202502F0F902A92A06D1D3F8202589
:10249C0002F05602C3F82025ACE70127ABE74FF456
:1024AC0040535A68314B9A420FD157B16A6B30483E
:1024BC004FF4805103F0BEF938B92E4944F00200B4
:1024CC00A0E795F86032012BF0D102F0A3FC014695
:1024DC0037B1AA69284803F0ADF928B92749EDE7C7
:1024EC0095F8A132012BF4D12549304605F01EFB9D
:1024FC004FF08043D3F81C3503F0F903B12B01D115
:10250C00204982E702F0E0FBA8B91F4D28701F4854
:10251C0002F044FB2B7823B91D4940F2092004F04A
:10252C0025F800F039F801E0FFF7DEFE194944F018
:10253C00010005F0FBFA0320F8BD4FF4A02469E775
:10254C00049D0F000C9D0F00229F0F00A84500203A
:10255C00846D0020399F0F00D79F0F00844100200D
:10256C0081230F0039230F0027A00F00DBE5B151A9
:10257C00E46F0020679F0F0025700020A29F0F00C2
:10258C00CA9F0F00FA9F0F00A445002091220F0054
:10259C0037A00F001BA00F0070B5184B184C194D2D
:1025AC001949E41AE40824044FF4805244F004005E
:1025BC0005F0C0FAD5F88020144944F0040005F069
:1025CC00B9FA4FF0FF33C5F88030C5F88031C5F843
:1025DC008430C5F8843101F086FE20B10C4944F0FA
:1025EC00010005F0A3FA05F047F90028FBD1BDE87E
:1025FC0070404FF4805000F033B800BF049D0F00C2
:10260C000C9D0F0000E100E087A00F00BDA00F00A3
:10261C00E7A00F0080F308880847000070B5054656
:10262C00C1F30B00A8B9B5F57F2F12D80B4E326849
:10263C00072A10D8130103F1804404F5F034013259
:10264C00C4F80058C4F804180221C4F80818326001
:10265C0070BD0720FCE70420FAE700BFAC45002062
:10266C0038B504462548C0F57F21FFF7D7FF05464E
:10267C0068B1234B23482449C01AC008000440F019
:10268C0001002A4605F056FA2846FEF7D5FF02F05F
:10269C00C1FB1E4B996901F6FF716FF30B010144ED
:1026AC000020FFF7BBFF054668B1154B15481849CC
:1026BC00C01AC008000440F001002A4605F03AFA9E
:1026CC002846FEF7B9FFEFF305820023D4E9005446
:1026DC0083F3148883F3108883F3118883F31388AE
:1026EC00C2F308021AB10B495A2003F03FFF2146EE
:1026FC002846BDE83840FFF78DBF00BF00100F0023
:10270C00049D0F000C9D0F001CA10F00846D002078
:10271C0053A10F0087A10F000A4B0B4910B50446BB
:10272C000A48C01AC0080004224640F0040005F014
:10273C0001FA227B4FF480339340054AC2F80833E8
:10274C0010BD00BF049D0F00E7A10F000C9D0F00F2
:10275C0000400240F7B5264B06462648C01AC00872
:10276C0000040C463246244940F0040005F0E2F91E
:10277C00B4F1807F36D32149932003F0F7FE6FF03C
:10278C007F431F4FA34228BF2346D7F80455E41AB2
:10279C001D44631E942B98BF96347460347B25F0D3
:1027AC007F4598BF963D032C03D914497B2003F039
:1027BC00DDFE04F5A8734FF4F86047F82350114B75
:1027CC0043F001039847104B03EB840300221A607B
:1027DC001B680193019B4FF48033A340C7F804336B
:1027EC0003B0F0BD952CCAD804499420C5E700BFAE
:1027FC00049D0F000C9D0F00F9A10F000FA20F00FC
:10280C0000400240E0CB0F0040410240FFB4194DA4
:10281C002B7853BB4FF08043A027D3F81844E40324
:10282C005CBF01249C60144B0024C3F80041D3F816
:10283C0000610396039EC3F84041D3F840610296B1
:10284C00029EC3F84441D3F844610196019E0B4E9D
:10285C0086F82473102777600226C3F808450124F4
:10286C009C601C60C3F804632C70026004B0F0BC64
:10287C00FFF770BFB04500200040024000E100E0CF
:10288C001E4BD3F8042173B552B11D490A680132AD
:10289C000A600022C3F80421D3F804310093009B92
:1028AC00184C194D194E2B68BBB100232B602B68AB
:1028BC0001932046019BFFF72FFF154B1548164936
:1028CC00C01AC0080004224640F0040005F032F99A
:1028DC00616849B12046FFF73DFF0435B54204F16C
:1028EC001004E0D102B070BDA16811B12046FFF711
:1028FC0031FF2368002BF0D09847EEE700400240F0
:10290C00B44500202C410020404102404C41024083
:10291C00049D0F000C9D0F006AA20F0070B5074CB0
:10292C00054620680E46FFF7F7FE35B120683246A3
:10293C002946BDE87040FFF769BF70BD28410020F3
:10294C00034B1B680A46986001461846FFF75EBFAA
:10295C002441002038B5074D04462868FFF7DCFEFB
:10296C00286884602CB121460268BDE83840FFF726
:10297C004DBF38BD20410020034B1B680A469860B0
:10298C0001461846FFF742BF20410020034A044B82
:10299C001068D3F8043503EB00607047B445002091
:1029AC0000400240014B01221A707047B8450020CC
:1029BC00224BDA6AAC2A2DE9F3415F6A9C6C1FD179
:1029CC005B6B1C44FF1A1E4B1E4E1F4A1F4900977F
:1029DC00F61AF6083604234646F0040005F0BBF858
:1029EC0019483A46214605F005FE054670B91849C6
:1029FC0046F0040005F09AF8284602B0BDE8F081D4
:102A0C00002CE0D102F016FA0446DCE711493B46F3
:102A1C00224646F0040005F095F804F02DFF00283E
:102A2C00FBD100F0B9FA3946204601F045FC0546C9
:102A3C000028E1D0084946F00100DBE7846D002056
:102A4C00049D0F000C9D0F0000100F007CA20F00C6
:102A5C00B1A20F00E8A20F0015A30F002DE9F04F53
:102A6C00814285B00546884616460BD139483A4B0B
:102A7C003A49C01AC008000440F0040005F056F8AA
:102A8C00002462E003D236494F2003F06FFD36B1CB
:102A9C00C5F30B031BB13249532003F067FDA8EBC0
:102AAC0005073F0B03D12E49572003F05FFD00F0C3
:102ABC002DFA284A284B06F6FF7A082FA2EB0303BF
:102ACC004FEA1A3A28BF08270393002ED8D057454F
:102ADC002CBFD346BB464FF00002594628462CBFAC
:102AEC00B1464FEA073901F0A1FB044668BB039BD2
:102AFC001C49CDF80090DB081B04029302982B466E
:102B0C00424640F0040005F026F809F10302234682
:102B1C0022F003024146284601F04AFB0446A0B9C4
:102B2C00114A136B4B44136302F03EF8AAEB0B0AE9
:102B3C00A6EB09064D44C84404460028C5D0029BA8
:102B4C000A4943F0010004F0F1FF204605B0BDE84E
:102B5C00F08F00BF0C9D0F00049D0F002FA30F00E2
:102B6C003EA30F009CA30F00846D0020BDA30F009B
:102B7C002DE9F04702F06CF92F4C304BDFF8DCA05C
:102B8C002F49DAF84860DAF83090DAF83450E41A61
:102B9C00E408240444F004080746404604F0C6FF49
:102BAC0006F500535A68274B9A4208D0264944F040
:102BBC00010004F0BBFF03252846BDE8F087DAF8D6
:102BCC003030AB4205D12149404604F0AFFF00251F
:102BDC00F2E7A5EB090505F6FF754F446FF30B05FE
:102BEC001E44BBB94FF440521178142982BF1849C6
:102BFC005269B2FBF1F206F5005198BF1A460878FB
:102C0C00142882BF4B691249B3FBF1F340461149BA
:102C1C0004F098FF2A4631463846FFF71FFF054659
:102C2C0028B10D4944F0010004F080FFC4E7BDE871
:102C3C00F04701F0B9BF00BF0C9D0F00049D0F00C1
:102C4C00F6A30F00DBE5B1511BA40F004FA40F003E
:102C5C0040420F0061A40F008AA40F00846D002075
:102C6C002DE9F047634B644D644E6549ED1AED0850
:102C7C002D0445F00407384604F058FFF36AAA2BDC
:102C8C0000F09B800CD8012B22D0A52B00F0898062
:102C9C0045F003005B4904F049FF0020BDE8F087D4
:102CAC00AC2BF5D15849384604F040FF574938460B
:102CBC0004F03CFFFFF75CFF0446002800F087801F
:102CCC00534945F0010004F031FF4FF0010824E0B6
:102CDC005049384604F02AFFD6F82480D6F848A08C
:102CEC0002F098F8346B4C4900EB0409384604F0B8
:102CFC001DFF336B0AEB0301894514BFA8EB0402DB
:102D0C0000224846FFF7AAFE044670B1434945F03D
:102D1C00010004F00BFF4FF00008F36A4049224613
:102D2C0045F0010004F00EFF14E002F073F82246A7
:102D3C00414603F0FFFBB26A904204462AD139495E
:102D4C00384604F0F3FE0123C6E90743C6F81880A1
:102D5C004FF000083448354C02F052F80023344848
:102D6C00237001F021FF2378814623B9314940F2C9
:102D7C00A51003F0FBFBB9F1000F31D1B8F1000F36
:102D8C0035D0336A012B32D138462B4904F0CEFEB4
:102D9C00022083E70346294945F0010004F0D2FEE6
:102DAC00D6E72749384604F0C1FEFFF7E1FE4FF0A5
:102DBC0001080446002CCDD0AFE72249384604F078
:102DCC00B5FEFFF7F5FD4FF000080446F2E7FFF7FC
:102DDC00EFFD044608B11C4973E74FF00108B9E751
:102DEC0045F00100194904F0A1FE032056E701202B
:102DFC0054E700BF049D0F000C9D0F00846D002054
:102E0C00A3A40F00AFA50F0058A50F0066A50F00D7
:102E1C0083A50F00C4A40F00CEA40F008AA40F003A
:102E2C00C8A50F00E9A40F00A86D0020B84500202C
:102E3C00B1290F003EA30F00FAA50F00FEA40F004E
:102E4C0046A50F004FA50F0099A50F0056A60F0021
:102E5C0010B50024D4F8F83F013304D1084940F6EA
:102E6C00F87002F0D3FFD4F8FC3F013307D1BDE872
:102E7C0010404FF47E2140F6FC7002F0C7BF10BD2D
:102E8C0000100F000A4AD2F800347BB10948002325
:102E9C00D2F80815D940C90748BF03F5C07103F132
:102EAC00010348BF42F82100072BF1D1704700BF46
:102EBC00000001403546526E08B50748074B0849DB
:102ECC00C01AC008000440F0030004F02FFEBDE857
:102EDC000840FFF7D7BF00BF1C9D0F00049D0F00DB
:102EEC0070A60F0007B5084B0022C3F80021D3F8D9
:102EFC0000310193019B04F0CFFE04F0BDFC0028CF
:102F0C00FBD103B000BD00BF00000140F8B5194E65
:102F1C0033784BBB184C1949194B641AE408D3F895
:102F2C000024240444F00304FAB1D3F804751549C1
:102F3C0040F616553A46204604F0FCFDBD42B8BF9B
:102F4C003D46FFF79FFFA5F5486220460E4904F069
:102F5C00F1FD0E49A5F54860FFF7F2FC0C4B4FF460
:102F6C0080321A6001233370F8BD0A49204604F000
:102F7C00DDFDF7E7B94500201C9D0F00049D0F00F7
:102F8C00000001407EA60F0097A60F00C52E0F0073
:102F9C0000E100E0C9A60F00034BD3F800340BB1DD
:102FAC00FFF770BF704700BF0000014028B139B176
:102FBC000023C1E900301846704748F210507047A2
:102FCC0048F21350704730B1036848F240508B42BE
:102FDC0008BF0020704748F21050704728B148F2E3
:102FEC001150914208BF0020704748F210507047B2
:102FFC0070B506460C461D46FFF7D8FF50B952B1C6
:10300C00B379AB420AD11146204600F00BF908B94E
:10301C00044B236070BD48F21050FBE748F211508E
:10302C00F8E700BF7052464D2DE9F0470C460546B7
:10303C0013492046DDE9087916469846FFF7C3FF89
:10304C0080B963685A79494652003846FFF7C6FF83
:10305C0040B996B145B94FF4DA700A4903F086FAD3
:10306C0048F21550BDE8F087089743463246214692
:10307C002846BDE8F04700F0EBB848F21050F1E7F5
:10308C007052464DEFA60F0010B5044638B149B149
:10309C000B684160984708B9044B236010BD48F297
:1030AC000150FBE748F21050F8E700BF6E5246485B
:1030BC00F0B4134648B10768094EB7420AD161B162
:1030CC002AB14368F0BC5B68184748F201531846B4
:1030DC00F0BC704748F20253F9E748F21053F6E798
:1030EC006E524648F0B460B107680C4EB7420CD132
:1030FC0071B143681568DC68A5420CD3F0BC9B68C1
:10310C00184748F20150F0BC704748F20250FAE7F9
:10311C0048F21350F7E748F21450F4E76E52464861
:10312C002DE9F0410446DDE9065617469846FFF7AF
:10313C00ABFF60B9424639462046FFF7B9FF30B9BC
:10314C00324629462046BDE8F041FFF7CBBFBDE82B
:10315C00F0810000F8B50A4E0A4F012333700A4B78
:10316C00DB1BDC080025AC4203D1022333700020AA
:10317C00F8BD57F8353098470028F9D10135F2E7FA
:10318C00BA450020E89C0F00F09C0F0038B50446AF
:10319C000D4618B90849332003F0E8F9691E21449B
:1031AC002046814200D238BD03780A7800F8012B02
:1031BC0001F80139F5E700BF3DA70F0070B50646D1
:1031CC000D46144618B90A49452003F0CFF91DB92C
:1031DC000749462003F0CAF9621E3244013DB2424F
:1031EC0000D270BD15F8013F02F80139F7E700BFB6
:1031FC003DA70F0070B5144605460E46FFF7DEFFDF
:10320C00224631192819BDE87040FFF7D7BF38B5F1
:10321C000C460546FFF7BAFF21462819BDE8384091
:10322C00FFF7B4BF10B500F1080301F1200251F80B
:10323C00044B43F8044B9142F9D1283001F120039F
:10324C0051F8042B40F8042B9942F9D1002010BD01
:10325C002DE9F3411B4D98461B4B036004460E466B
:10326C0028460121174603F03CFABFF35F8F30BBB1
:10327C0000F0F0F83B46089ACDF8008006F1080102
:10328C00204605F0BDFB044600F0F2F82B68012B3C
:10329C0003D00E49932003F069F9BFF35F8F00232D
:1032AC002B6044B10A4948F2425248F216538C4200
:1032BC000CBF14461C46204602B0BDE8F08148F213
:1032CC000454F8E7BC550020DD55AABB8CA70F00B1
:1032DC008408F0000E4B984214D00AD8B8B10D49AE
:1032EC0048F2165248F20153884214BF1046184651
:1032FC007047094B984208D0084948F2165248F2D8
:10330C000353F1E748F20350704748F202507047FC
:10331C000102F0000002F0000202F0000F02F000C7
:10332C0008B5083005F0D6FBBDE80840FFF7D2BF62
:10333C0010B5064C2368012B03D00549932003F0EC
:10334C0015F9BFF35F8F0023236010BDBC5500201F
:10335C008CA70F0013681F2B70B505460E4614463C
:10336C0019D901210F4803F0BCF9BFF35F8FA8B93D
:10337C0000F070F8314605F1080005F017FC054621
:10338C0000F076F8FFF7D4FF2846FFF7A3FF08B943
:10339C002023236070BD48F21450FBE748F2045020
:1033AC00F8E700BFBC550020F8B507460E46164896
:1033BC000121144603F095F9BFF35F8F08BB083762
:1033CC0000F048F8B4F5805F254628BF4FF48055CF
:1033DC002A4631460D4805F061F90C492A46384613
:1033EC0005F092FB58B9641B2E44EBD100F040F869
:1033FC00FFF79EFF2046BDE8F840FFF76BBF044681
:10340C00F4E748F20450F8BDBC550020BC45002040
:10341C00024B0020C3F80005704700BF00A002500B
:10342C0038B50A4B00251D60BFF35F8F084C012394
:10343C00C4F8003505F0EAFBC4F8005520B10528A6
:10344C0048F2035018BF032038BD00BFBC55002004
:10345C0000A00250044B0122C3F80025034B4FF48B
:10346C0080625A60704700BF00A0025000E100E08B
:10347C00064B0022C3F80025054B4FF48062C3F8BD
:10348C008420BFF34F8FBFF36F8F704700A00250A3
:10349C0000E100E0831F012B10B5044602D8002088
:1034AC0001F074FC034B1B681BB12046BDE81040B7
:1034BC00184710BDC055002038B5104B104C186083
:1034CC00104B1149E41AE408240444F0030004F0FE
:1034DC002DFB0020FFF7DEFF0C4801F01DFC05461C
:1034EC0020B9BDE83840094801F0BAB9024608498C
:1034FC0044F0010004F01EFB284638BDC0550020E6
:10350C000C9D0F00049D0F00C0A70F00A1340F00ED
:10351C00D3A70F006CDF70476DDF704772DF704709
:10352C0073DF704774DF704775DF704776DF704765
:10353C007ADF70477CDF70477DDF70477FDF704735
:10354C0086DF70478FDF704790DF7047A8DF7047CA
:10355C00AADF7047ADDF7047AEDF7047B0DF704752
:10356C00B1DF7047B5DF704762DF704766DF7047C9
:10357C0013DF704710B5094B094904460948C01AB6
:10358C00C0080004224640F0040004F0D3FA21469F
:10359C000548BDE8104003F06BB900BF049D0F0057
:1035AC00FDA70F00249D0F007C9D0F0070B5182205
:1035BC008CB00DEB0200002105F0A2F82823089333
:1035CC002648274B2749284CC01AC008000401255F
:1035DC0040F004008DF818508DF82D5004F0A6FA28
:1035EC004FF40040FFF7B6F91623ADF80630002370
:1035FC00CDF80E30CDF81230ADF816300223092676
:10360C000622237023715923A27063710322FE23B7
:10361C000DF10601A0190294ADF80C606570E27012
:10362C00A371FFF789FFB8B9BDF8063026725A1995
:10363C00E271BDF80C200D4C134402A906AA2046D9
:10364C00ADF80C30FFF76AFF30B92078FFF76AFF4E
:10365C0020782946FFF764FF0CB070BD249D0F0045
:10366C00049D0F000FA80F00C45500205C410020E2
:10367C00F0B50388242B8DB0044651D80BB90DB08E
:10368C00F0BD013B232BFAD801A252F823F000BF66
:10369C00913A0F008B360F008B360F008B360F00D4
:1036AC008B360F008B360F008B360F008B360F00CE
:1036BC008B360F008B360F008B360F008B360F00BE
:1036CC008B360F008B360F008B360F005D370F00DB
:1036DC00A1370F0047390F00FB380F00A53B0F0037
:1036EC008B360F008B360F008B360F008B360F008E
:1036FC008B360F00C73B0F008B360F008B360F003D
:10370C008B360F008B360F0089390F008B360F006C
:10371C00E7390F00C9390F00AF380F00DD380F0043
:10372C00503B9AB2062AAAD8062BA8D801A252F866
:10373C0023F000BFCF370F009D3A0F00C73B0F009F
:10374C008B360F008B360F0057380F000B3A0F00DB
:10375C00B04BB14DB149B24EED1AED082D0445F008
:10376C00040004F0E3F9A3883380AE4B1B680BB163
:10377C0001209847AC493088FFF7D6FE0246002856
:10378C003FF47DAFA94945F001000DB0BDE8F04014
:10379C0004F0D0B9A24B4FF6FF721A80A44B1B68F1
:1037AC005A0704D4FFF702FF08B1FDF745FF9D4B04
:1037BC001B68002B3FF463AF02200DB0BDE8F04056
:1037CC0018479C4EE288B3889A427FF458AF9A48C7
:1037DC0003F022F88F4B05468F48C01AC00800042E
:1037EC003DB9964940F002000DB0BDE8F04004F040
:1037FC009DB9F4230093238A91492A4640F0040092
:10380C0004F0A9F9228A04F11201284604F046FFBB
:10381C00182200210DEB020004F072FF08238DF832
:10382C001830884B0893884B0796CDE9093506A8C4
:10383C00238AADF82C3000F0F3FF00283FF41FAFC3
:10384C007D48294603F014F819E7E288F62A24D8B3
:10385C00D31E9B0723D0D31F9BB2013B594201F0CF
:10386C00030103F0030302F1FF3458BF4B42E41A87
:10387C00A4B2684B68487549C01AC00800042346B6
:10388C0040F0040004F05EF9654B21461888FFF700
:10389C0069FE00283FF4F3AE8BE0F724E9E7144609
:1038AC00E7E75C4B5C486A49C01AC008000440F06A
:1038BC00040004F03BF90022A08806A9CDE90622F9
:1038CC00FFF742FE00283FF4DAAEFDF7B5FED6E670
:1038DC00504B514862895F49C01AC008E389000403
:1038EC0040F004000DB0BDE8F04004F02BB9494B9A
:1038FC00494C59494A4DE41AE408240444F00404A0
:10390C00204604F013F902230693288804AB06AA78
:10391C0042F605210793FFF71DFE08B1FDF78CFE5B
:10392C00BDF810204D49204604F004F900232888E6
:10393C001A468521FFF702FEC4E7364B364D48493F
:10394C00ED1AED082D0445F0040004F0EFF862893F
:10395C00444945F0040004F0EDF82289424945F051
:10396C00040004F0E7F8A289404945F0040004F093
:10397C00E1F8E2893E4945F0040006E7254B264D67
:10398C003C49ED1AED082D0445F0040004F0CEF886
:10399C00234B04F108011888FFF7C6FD04460028E4
:1039AC003FF46DAE0246344945F0010004F0C2F814
:1039BC0020460DB0BDE8F040FDF73EBE154B164855
:1039CC002E49C01AC008237A00930004637AA27AA5
:1039DC0040F0040004F0BFF851E60E4B0E482849A5
:1039EC00C01AC008000440F0040004F09FF8002343
:1039FC00A088ADF8183006A9FFF7A4FD62E7A379FB
:103A0C00002B7FF43CAE064B13211888FFF78EFD7C
:103A1C003FE700BF049D0F00249D0F001EA80F0060
:103A2C005E41002034660020C6CD0F0028A80F0090
:103A3C00506600203C6600207C9D0F0056A80F00AD
:103A4C0075A80F00053D0F0081350F0095A80F00DC
:103A5C00DBA80F000CA90F004AA90F0072A90F00D8
:103A6C0095A90F00BCA90F00D2A90F00E8A90F005F
:103A7C00FAA90F000FAA0F003EAA0F0073AA0F009D
:103A8C00ADAA0F00564B00211888FFF76FFD00E719
:103A9C00A379002B3FF4F3AD022B7FF4F0AD514D25
:103AAC002189AA8991427FF4EAADA27B012A7FF495
:103ABC00E6AD4FF480320792228A494EADF82020B1
:103ACC00628AADF8222004F11402099203AF298A0C
:103ADC003088069304AA04930597FFF73BFD60B961
:103AEC003846FEF7C9FB40B940F2FD133088ADF8FB
:103AFC001C3006A9FFF732FDC1E5002306A930886A
:103B0C00ADF81C30FFF72AFD014600287FF4B7AD55
:103B1C0018220DEB020004F0F3FD237D324A8DF8E0
:103B2C001830022B0795089225D0062B11D0012BAB
:103B3C0012D006A800F074FE024600283FF49FAD98
:103B4C002A492B4B5B1ADB081B042A4943F0010062
:103B5C001BE6637D0A93ECE7274B1A88274B1A80E8
:103B6C00637DD4F816200A93012B0B92E1D12448E3
:103B7C0001F00CF9DDE71D4B1D482249C01AC008A5
:103B8C00000440F0040003F0D1FF1B4AB4F81530D8
:103B9C0013801A4A1380CCE7144B15481A49C01AE3
:103BAC00C008000440F0040003F0C0FF0023A0880C
:103BBC001A461946FFF7C4FC6BE60023A0881A4688
:103BCC001946FFF7CDFC08B1FDF736FD0848074B49
:103BDC000E49C01AC008000440F0040004E600BFFF
:103BEC005E4100203C660020053D0F00049D0F0047
:103BFC00249D0F00E8AA0F003A66002038660020CA
:103C0C00F09C0F00D6AA0F001CAB0F0042AB0F00AC
:103C1C0070B5204E346814F0010432D01E4B98421B
:103C2C0036D01E4B1E4D1F4C1F49ED1AED082D04AE
:103C3C0045F00405284603F079FF22884FF6FF7300
:103C4C009A4220D01949284603F070FF3368208827
:103C5C0043F0040313213360FFF768FC044680B97A
:103C6C00134EC82446F001064FF47A40B047013C8D
:103C7C00FAD104F085FA044618B90E49284603F027
:103C8C0055FF204670BD0C4B1878FFF74BFCF0E746
:103C9C000024F6E750660020F09C0F00049D0F00F6
:103CAC00249D0F005E41002064AB0F0081AB0F0020
:103CBC00C0CD0F0090AB0F005C4100207FB50023FE
:103CCC00CDF80B308DF80F30094BADF806109B89F1
:103CDC00ADF8083001238DF80A300DF10603CDE95B
:103CEC000430044B02A91888FFF736FC07B000BD5E
:103CFC003C6600205E41002030B5044687B00D467E
:103D0C0020B9444940F2891002F030FC25B94149F0
:103D1C004FF4C57002F02AFC1122002101A804F016
:103D2C00EFFC2278082A0BD13B4A3C4913880988BE
:103D3C00013B9BB2138029B323BB11800322227059
:103D4C0063788DF805206021012B8DF804108DF817
:103D5C00063019D032493348401AC00800043249A1
:103D6C0040F0020003F0EEFE63780B2B10D100F054
:103D7C0099FA8DF80700002000F08EFA042101A8B2
:103D8C00FFF79CFF07B030BD062A03D0032A27D0CB
:103D9C000321F4E7E1688DF80710D4E90123080A40
:103DAC008DF80800080C090E8DF80A10110A8DF810
:103DBC000B208DF80C10110C120E8DF80E201A0A17
:103DCC008DF80F308DF810201A0C1B0E8DF80D107D
:103DDC008DF809008DF811208DF812300F21CEE7E7
:103DEC00D4E90123110A8DF807208DF80810110C65
:103DFC00120E8DF80A201A0A8DF80B308DF80C2053
:103E0C001A0C1B0E8DF809108DF80D208DF80E3044
:103E1C000B21B4E7A9AB0F00386600203A660020EE
:103E2C00049D0F00249D0F00FEAB0F002DE9F04107
:103E3C00054694B020B9404940F2514002F096FB3F
:103E4C003E4B4FF6FF721A8001204FF659632A46FB
:103E5C0002A98DF80A00ADF80830FFF777FB04468D
:103E6C00002864D1364B04AA03F11006186859686F
:103E7C00144603C40833B3422246F7D1A91C04A844
:103E8C00FFF772FB0446002851D101461C220DA8F5
:103E9C0004F036FC9DF834308DF80F4043F00403E9
:103EAC008DF834300223ADF80C30AB788DF80E3031
:103EBC0003238DF80630F423CDE90A44ADF82C30F9
:103ECC002B464FF4885833F8040B0C9403AF01AE17
:103EDC0008AA0DA9ADF8048008970996FFF738FBDE
:103EEC00044620BB01461C220DA804F009FC182333
:103EFC008DF834300123ADF80C30AB788DF80E30E2
:103F0C0013238DF806301723CDE90A44ADF82C3075
:103F1C002B4608AA33F80C0B8DF80F400DA90C9406
:103F2C00CDE90876ADF80480FFF712FB0446204675
:103F3C0014B0BDE8F08100BFA9AB0F005E410020BA
:103F4C00CECD0F00F0B5514E336813F0010785B09C
:103F5C00044640F099804E4B4E4D4F49ED1AED08FA
:103F6C002D0445F00405284603F0E0FD4B4B4C486E
:103F7C001C6002F015FC029700F0A9F90446002819
:103F8C0073D1484A4849284603F0D4FD4548FFF709
:103F9C00EFFA0446002868D14449284603F0C6FDD0
:103FAC0004F0B0F8044600285FD102A804F07AF9B6
:103FBC000446002859D13E49284603F0B7FD02A912
:103FCC00012004F079F9044600284ED139492846DD
:103FDC0003F0ACFD02A804F02DFA0446002844D1ED
:103FEC0000F062FE002843D0334800F04DFE3368E9
:103FFC0043F002033360112302A88DF80430FFF75D
:10400C008BFA044688BB9DF8093002A801338DF861
:10401C000930FFF77FFA044638BB33689B072CD571
:10402C00254C2649A369221D284603F08BFDA26965
:10403C00211D92B201A8FFF77DFA0446A8B92048C9
:10404C00FFF776FA044680B91E48FFF7EFFE0446E8
:10405C0058B9FFF7ABFA044638B933681A4943F03C
:10406C0001032846336003F061FD204605B0F0BD26
:10407C001649284603F05AFDBDE71549284603F0BA
:10408C0055FD14490E22D4E70024EEE750660020BB
:10409C00049D0F00249D0F0034AC0F0034660020EB
:1040AC007C9D0F0000100F0053AC0F0073AC0F0081
:1040BC0088AC0F009FAC0F0054660020D1AC0F00F1
:1040CC00C6CD0F003C66002011AD0F00B7AC0F0041
:1040DC00F2AC0F0025AC0F0030B51A4B196885B047
:1040EC00044609B101391960174A18486368801AE7
:1040FC00C0080004227840F004008BB90091144DE4
:10410C001449A368012A14BF2A460A46124903F02F
:10411C0022FD63699BB1E06805B0BDE830401847EB
:10412C00029121690191A168094D00910949012A67
:10413C0014BF2A460A46094903F025FDE9E705B0F4
:10414C0030BD00BF70660020049D0F002C9D0F0039
:10415C0042AD0F003CAD0F0048AD0F006EAD0F002F
:10416C0008B50C490C4B5B1ADB0802461B0443F0E8
:10417C0004004AB1094903F0D9FC09490948BDE8D2
:10418C000840002202F0BCBD074903F0CFFC0749F0
:10419C00F4E700BF049D0F002C9D0F00AAAD0F008B
:1041AC001CCE0F0008410020D0AD0F00F0CD0F0049
:1041BC002DE9F7439846174C174BDFF86C90E41A2F
:1041CC00E408D9F800302404CDE9002305460B4659
:1041DC000E4617461149024644F0040003F0C6FC93
:1041EC0029460F48CDF800803B46324602F0A0FD30
:1041FC00054640B9D9F800300133C9F800302846DB
:10420C0003B0BDE8F0830246064944F0020003F017
:10421C0091FCF4E72C9D0F00049D0F00F8AD0F00EE
:10422C00084100203BAE0F00706600202DE9F341E1
:10423C00134B144C144EE41AE40833680093240412
:10424C0005460B460F4690461049024644F00400C2
:10425C0003F081FC29460E4843463A4602F0B8FD6D
:10426C00054630B9336801333360284602B0BDE8E7
:10427C00F0810246074944F0020003F05BFCF4E7CE
:10428C00049D0F002C9D0F007066002068AE0F007F
:10429C0008410020A5AE0F00014B18700B20704791
:1042AC0074660020024B002218781A70704700BF09
:1042BC007466002018DF70471FB50023CDE900306D
:1042CC00890868460291FFF7F5FF05B000BD1FB5E0
:1042DC000023CDE901330393684602230093FFF7D3
:1042EC00E9FF05B000BD4FF000534FF480521A6047
:1042FC0000207047084B09480949C01A10B5C0087E
:10430C00000440F0040003F011FC064BBDE8104023
:10431C001B680620184700BF049D0F00349D0F003A
:10432C00E0AE0F00786600200A2803D90B38C0B223
:10433C00FFF7B2BF7047000070B5054686B000208D
:10434C0002F082FD0146A0B1274A1821284602F04E
:10435C0007F8024600283CD02449254B5B1ADB08A1
:10436C001B04244943F0010006B0BDE8704003F083
:10437C00E1BB1822684604F0C3F904231C4C8DF8E9
:10438C0000301A4B1C4EE41A1C4B1A6D3368E408AF
:10439C0024049A4244F004041DD11949204603F028
:1043AC00C5FB184B3168186801F054FC8DF80100FE
:1043BC00FFF7BAFFD5E901138DF80100684698475D
:1043CC00114800F0F1FB9DF801201049204603F044
:1043DC00B1FB06B070BD01238DF801306846D5E9FC
:1043EC0001139847EFE700BF45430F00049D0F00F2
:1043FC00349D0F0014AF0F007C660020846D0020EC
:10440C003DAF0F008066002001430F006CAF0F0022
:10441C002DE9F041836888B0044623B9974940F2EE
:10442C00CF2002F0A3F8162200210DF10A0004F0AF
:10443C0067F9934E934922788DF80820761AF6087E
:10444C00012336040C2A8DF8093046F0040500F2DD
:10445C00C581934013F4AD7F24D10C2A07D0022AD6
:10446C0040F0BC818849284603F060FB07E02846F1
:10447C00864903F05BFB864B07201B6898479DF829
:10448C0009208449284603F055FBD4E9011302A8FE
:10449C0098479DF80930012B00F08A817C4B052050
:1044AC001B6884E1062A7C4F01D0012A01D12369C3
:1044BC003B703B78012B09D0022B75D0774946F025
:1044CC00010003F033FB00233B70CCE0013A072AD8
:1044DC0064D8DFE802F004631443635B631E704925
:1044EC00284603F023FB6A4B03201B68984760693E
:1044FC0001F07AF8FFF718FF8DF80900BFE769495A
:10450C00284603F013FB684BDA6B1B6C0392049385
:10451C00B5E7236923B9594940F2131002F026F884
:10452C00A38A23B955494FF48A7002F01FF85F49EA
:10453C00284603F0FBFAA18A206901F06DF8FFF719
:10454C00F3FE594B8DF80900DA6B1B6C0493E3688E
:10455C000392002B93D02069984790E75449284642
:10456C0003F0E4FA5349544801F0D4F8FFF7DCFEA9
:10457C0001288DF8090082D1002000F015FB08B944
:10458C004E4970E70A238DF8093078E74C492846E4
:10459C0003F0CCFA4FF400730593B4E737494FF4AA
:1045AC00BC7001F0E3FF6AE7013A072A00F21281BE
:1045BC00DFE812F008001001D200E1001001010147
:1045CC00100198003F49284603F0B0FA304B032005
:1045DC001B68984701F050F830B93B4946F0010090
:1045EC0003F0A4FA0823CEE7626932B9374946F0E2
:1045FC00010003F09BFA0323C5E7C2F30B0343B19D
:10460C00294B2C495B6D096813448B4201D030490E
:10461C00EDE7B2F5805F06D92E4946F0010003F0B4
:10462C0085FA0423AFE7204F22497B6D0968D01827
:10463C00884206D9009146F00100274903F08BFA15
:10464C00D0E77A64FA6CBA641B4A3B6510683B632A
:10465C00002201211844FFF7E9FD30B11F4946F053
:10466C00010003F063FA05238DE7BB6C00933B6DEF
:10467C007A6C1B49284603F06EFA00E794AF0F00E2
:10468C00349D0F00049D0F00EDAF0F0011B00F0013
:10469C00786600206CAF0F0060410020A9B30F00BA
:1046AC0029B00F0053B00F00846D002077B00F00BD
:1046BC00A0B00F007C66002080660020CBB00F00FD
:1046CC00F0B00F001AB10F0041B10F0076B10F001E
:1046DC008FB10F00B0B10F00D4B10F0045B20F0075
:1046EC005CB20F004149284603F020FA00F0C4FFE9
:1046FC0000283FF477AF3E4FA18AD7E914329B1ABA
:10470C007A6C0B44934201D93A4970E73A4A3B6BB5
:10471C001268206903EB020807F1480201F00AFF56
:10472C00E368064623B935494FF4F87001F01EFFD3
:10473C00E368A28A21694046FFF73AFD08B1E368B5
:10474C0009E7A38A3A6BBE641A443A633A6D04963D
:10475C0013443B65039392E6254E2949284603F002
:10476C00E5F9B36C326D2749284603F0EBF9B36CCD
:10477C000493336DEEE72846234903F0D7F91C4820
:10478C00D0E91473426CFB1A934205D01F4946F0D2
:10479C00010003F0D7F925E7836CC3640021416461
:1047AC0047652046FFF7C8FD194B1B680420984746
:1047BC0008B0BDE8F0811749284603F0B7F90C4B57
:1047CC004FF480519A6C1B6D059100910492124923
:1047DC0003934FE7094940F29720E2E60F4946F070
:1047EC00030003F0A7F90223CDE600BF97B20F0038
:1047FC00846D0020BDB20F008066002094AF0F00C6
:10480C00D4B20F00F5B20F000BB30F0033B30F008F
:10481C007866002057B30F007EB30F00C9B30F00AA
:10482C00836810B58BB10A4A182101F099FD044632
:10483C0048B1084B084A09499B1ADB081B0443F092
:10484C00020003F073F9204610BD0724FBE700BFFC
:10485C001D440F00349D0F00049D0F00E8B30F00A2
:10486C0038B50546C0B10120FFF77AFC044648B9BB
:10487C0000F0ACFE00F000FF30B9084B00201D60CA
:10488C00FFF70AFD204638BD0549064800F042FFF7
:10489C000128F2D00324F5E70724F3E7786600201B
:1048AC007C660020806600200368013310B5044646
:1048BC0009D000225821043001F03CFE23681B1A59
:1048CC005842584110BD0020FCE700002DE9F0478C
:1048DC0016464FF460721F461F4C0546884603F07F
:1048EC0089FE1E4BE41AE4088246240458B91C497C
:1048FC0044F0040003F01AF916B90020BDE8F08763
:10490C005046B047F9E7174944F0040003F00EF99C
:10491C0015492A4644F0040003F00CF90022012149
:10492C002846FFF783FC30B1104944F0010003F036
:10493C00FDF80320E2E74FF460724146384603F07D
:10494C00ADFE33464FF4607239462846FFF730FC13
:10495C000028D2D00649E8E73C9D0F00049D0F00CB
:10496C0018B40F0062B40F0076B40F0096B40F00A9
:10497C00B9B40F002DE9F8434E48DFF868914E4F5B
:10498C004E4C4F4EFFF790FFD9F80050804628460A
:10499C00FFF78AFF002800F088806868012861D042
:1049AC0005F518700022C32101F0C4FDD5F85C5246
:1049BC002B1A5D425D41B8F1000F55D0A7EB0408EE
:1049CC004FEAD8084FEA08483E4948F0040003F083
:1049DC00ADF838493A484FF4607203F05FFE95B178
:1049EC00394948F0040003F0A1F8D9F800503748D1
:1049FC005422291D03F052FE35484FF4327205F152
:104A0C005C0103F04BFED6F80480B8F1010F4AD1DB
:104A1C00381BC0082F4C3049000440F00300A4F5AB
:104A2C00E47503F083F80FCD0FC40FCD0FC40FCD79
:104A3C000FC495E80F0084E80F0004F11005A4F5ED
:104A4C00DC740FCC0FC594E80700002386F86032A5
:104A5C0086F8E232F36986F8A18285E80700C6F889
:104A6C00A2321EE00546A6E7381BC008000455B16B
:104A7C001A4940F0030003F059F8D9F80010104817
:104A8C004FF46072BDE7381BC0080004144940F0B5
:104A9C00020003F04BF80A484FF46072002103F057
:104AAC002FFE02237360BDE8F883B8F1000FEAD043
:104ABC00054683E700F00F003C9D0F00049D0F009E
:104ACC00846D0020E0B40F00F5B40F00886D002059
:104ADC00E06D0020A8700020DCB50F001FB50F00A2
:104AEC0078B50F006441002010B50022044658210F
:104AFC000B4801F01FFD0A4B002243F8040CC321A4
:104B0C0003F5177001F016FD064B0649C3F85C025D
:104B1C002246054B0548BDE81040FFF7D7BE00BF45
:104B2C00886D0020846D0020046A002000F00F00C6
:104B3C00F8B5134B134C144DE41AE40824040E4638
:104B4C002A681249074644F0030002F0F3FF30468E
:104B5C00FFF7AAFE20B90E494FF4C17001F006FD13
:104B6C000C4B28683A463146FFF7B0FE38B144F09A
:104B7C0001000949BDE8F840032202F0DBBFF8BD93
:104B8C00049D0F003C9D0F006441002008B60F00EF
:104B9C0032B60F008466002088B60F000149FFF77B
:104BAC00C7BF00BF00F00F0038B505460020FFF767
:104BBC009BFF044618B903492846FFF7B9FF204666
:104BCC0038BD00BF846D002038B5114B114C124913
:104BDC00E41AE4082404054644F0040002F0A6FF9D
:104BEC002846FFF7BDFA054638B10C49024644F099
:104BFC00010002F09FFF032038BDFFF7BBFE2846E3
:104C0C00FFF7D2FF0028F7D005490322EFE700BFDA
:104C1C00049D0F003C9D0F00C5B60F00E8B60F00B9
:104C2C0013B70F0010B5084C07484FF40072FF2162
:104C3C0003F066FD20220021A4F1240003F060FDA6
:104C4C00002344F82C3C10BDE06D002029DF704798
:104C5C0038B5044690B10B4DD5F8643301330FD100
:104C6C0000221821043001F065FC21462060072247
:104C7C0005F55970BDE83840FFF7E8BF0E2038BD88
:104C8C000820FCE700F00F0050B1064B03F11C02AA
:104C9C0053F8041B40F8041B9342F9D100207047D1
:104CAC000E20704764F30F0010B5064C002218213B
:104CBC00204601F03FFC54F8043C1B1A5842584162
:104CCC0010BD00BF68F30F0010B50F4CD4F824339F
:104CDC00D4F864231340013313D00C4B0C480D490A
:104CEC00C01AC008000440F0040002F01FFF4FF48B
:104CFC007F2001F073F8C92221464FF47F2001F088
:104D0C009BF8002010BD00BF846D0020049D0F0097
:104D1C00449D0F005EB70F002DE9F843154B164C60
:104D2C00DFF86490154F1649E41AE4082404A7EB45
:104D3C00090744F00404FF0806463A46204602F0F0
:104D4C00F9FE4FF00008474501D100250BE059F85A
:104D5C00383030469847054640B10346094942462B
:104D6C00204602F0EFFE2846BDE8F88308F1010862
:104D7C00E9E700BF049D0F000C9D0F00F89C0F008D
:104D8C009BB70F00BFB70F00F09C0F002DE9F84345
:104D9C00154B164C164D174F1749E41AE40824040A
:104DAC007F1B44F00404FF0806463A46204602F0F6
:104DBC00C1FE4FF0000805F10409474501D100255B
:104DCC000BE059F8383030469847054640B1034659
:104DDC000A494246204602F0B5FE2846BDE8F88353
:104DEC0008F10108E9E700BF049D0F000C9D0F00BE
:104DFC00F09C0F00F89C0F00EBB70F0010B80F00E1
:104E0C00034A00230360436083601363704700BF51
:104E1C00846D00204FF44053054A5968914203BFFA
:104E2C00986800F6FF706FF30B004FF480507047DA
:104E3C00DBE5B15108B5FFF7EDFF044B9B69184456
:104E4C0000F6FF706FF30B0008BD00BF846D0020EF
:104E5C004FF48050704700002DE9F04F85B09A4612
:104E6C000092644B644A03919B1ADB081B0443F0C9
:104E7C000404624901938146204602F057FE6049C2
:104E8C00DFF8D0815F4D4A46204602F053FE039B6B
:104E9C005D4A5E49002B18BF4246204602F04AFE8E
:104EAC00009B594A5A49002B18BF4246204602F033
:104EBC0041FE554A5749BAF1000F18BF42462046E9
:104ECC0002F038FE4FF4405353495A684E4B20467B
:104EDC008A4214BF1A464246504902F02BFE5049F2
:104EEC00204602F023FEAB692A6A4E49204602F0A6
:104EFC0029FE6B6AEA6A4C49204602F023FE002622
:104F0C00012E51D0022E5FD0FFF794FF009B074675
:104F1C00002B47D03B4B1D6A6B1E5D425D41434BE2
:104F2C00BB4203D24249B12001F020FB3F4B414927
:104F3C00A3EB070B039B3246CB4538BF43F0010371
:104F4C002046029302F0F6FD3B493A46204602F019
:104F5C00F1FD2D4A3949CB4538BF4246204602F077
:104F6C00E9FD294A3649002D18BF4246204602F079
:104F7C00E1FD029B244A3349002B18BF42462046D0
:104F8C0002F0D8FD029B7BB315BB0136032EB7D1C3
:104F9C00CB451FD320462C4902F0C8FD2B48FFF708
:104FAC002FFF24E0009DBAE7FFF734FF0746BAF164
:104FBC00000F07D14FF440535D68174BED1A18BF23
:104FCC000125ACE75546AAE701254FF48057A6E723
:104FDC00CB4509D2019B1E4943F0020002F0A6FD0D
:104FEC00042005B0BDE8F08FF6B2002ED2D100201F
:104FFC00F7E700BF0C9D0F00049D0F0045B80F0094
:10500C0063B80F00846D00203FB80F0078B80F0014
:10501C0089B80F0097B80F00DBE5B151ACB80F00A1
:10502C00BCB80F00CBB80F00EBB80F0000E00E00BF
:10503C000BB90F005EB90F0068B90F007DB90F00F6
:10504C0092B90F00A5B90F00E2B90F009C6D0020BA
:10505C00B6B90F003AB80F002DE9F0433849394D75
:10506C008A6B394C394EDFF80C81DFF80C9185B026
:10507C005C316846FCF7CCFC9DE80F0085E80F001E
:10508C000021334B31704FF447722046C8F80010A2
:10509C00C9F80010EB6003F033FB2E49224628467A
:1050AC00FCF756FF70B92C482C4B2D49C01AC00880
:1050BC00000440F0010002F039FD0026304605B036
:1050CC00BDE8F083367826B194F86C3127785BB361
:1050DC0037B12148214B2349C01AC0080004E8E726
:1050EC0094F87231002BE8D0D9F80020D8F80010D1
:1050FC006846FCF78DFC9DE80F0085E80F004FF427
:10510C00B272394604F5BA7003F0FAFA164904F58E
:10511C00BA722846FCF71CFF78B90F480F4B13499D
:10512C00C01AC0080004C4E7002FC6D0A379002B16
:10513C00C3D008340E4B1C60C0E704F5BA74F9E711
:10514C00846D0020D4710020EC71002004710020CB
:10515C0015520F000CCC0F004C9D0F00049D0F003E
:10516C00F4B90F0021BA0F00ACCC0F0040BA0F00FD
:10517C00D0710020E8710020E471002010B590F887
:10518C00553013F0FB0F08D190F8643083B3846E64
:10519C0074B30C600124204610BD13F0010403D03D
:1051AC0090F8564004B1846D9B07F1D590F85C30B3
:1051BC00002BEDD00F4B026EC3F57E239A4201D823
:1051CC001444E5E70C490D48401AC00800040C498A
:1051DC0040F0010002F0B6FC0424074B07480949D3
:1051EC00C01AC008000440F0010002F09FFCD2E796
:1051FC000F24F2E700100F00049D0F004C9D0F00D0
:10520C007CBA0F0099BA0F005B68DA68134B9A42AC
:10521C0030B408D1124C236813B912490B6823B16E
:10522C00114B00221A7030BC7047D0E90120134694
:10523C0013F9015B002DFBDB0244D21A23600A4BED
:10524C000A60012119700948094B0A49C01AC008A3
:10525C00000430BC40F0040002F06CBCACCC0F007D
:10526C00E8710020E4710020047100204C9D0F00B7
:10527C00049D0F00CABA0F0000B591B0FDF76AFF8C
:10528C0018B10C49DB2001F071F90B49202268465A
:10529C00FDF7B0FF09490A4840236A46FDF7A8FE0E
:1052AC0018B10449E52001F061F9064B01221A708E
:1052BC0011B000BDE7BA0F0068CB0F008871002059
:1052CC00E8CB0F00057100202DE9F04FCDB003AFF6
:1052DC0083460D4691469A467C222023002104A841
:1052EC003B60DDF8588103F00BFA00238DF88C300D
:1052FC00434B1B780BB9FFF7BFFF424C424B434962
:10530C00E41AE408240444F00306304602F00EFCD0
:10531C0045B944F002003E4902F008FC13204DB0A0
:10532C00BDE8F08FBBF1000F05D03046394902F0D3
:10533C00FDFB1620F3E738494246304602F0FAFBF3
:10534C00364B0093364901974346524604A8FDF765
:10535C00E7FE002852D1B9F1400F4FD1314B29460D
:10536C0005F14002984651F8040B43F8040B9142A6
:10537C00F9D12D49304602F0D9FB4025294820218E
:10538C00FDF745FFCDE90085244A3B68274923A852
:10539C00FDF74AFE024658B3254944F0010002F0DD
:1053AC00C9FB244944F0040002F0C0FB2A461D4905
:1053BC0044F0040002F0F6FB1F4944F0040002F034
:1053CC00B5FB3A88154944F0040002F0EBFB1B498D
:1053DC0044F0040002F0AAFB19492A4644F00400E8
:1053EC0002F0E0FB02F048FA0028FBD1052096E71A
:1053FC003046144902F09AFB012090E70A208EE710
:10540C00057100204C9D0F00049D0F003FBB0F0049
:10541C0067BB0F007BBB0F0092BB0F0026710020F7
:10542C00F4CB0F0046710020ADBB0F00887100203B
:10543C00BEBB0F00E0BB0F00EBBB0F00F1BB0F00BE
:10544C0068CB0F00FDBB0F004FF4405313B55A68E7
:10545C001C4900F500508A42446805D0631A5C422E
:10546C005C41204602B010BD944228D11A78142A0F
:10547C0082BF5B69144AB3FBF2F3027898BF002336
:10548C00142A84BF4169104A104888BFB1FBF2F15D
:10549C000F4A98BF0021101A8B4200914FEAD0009E
:1054AC000C490D4A4FEA004008BF0A4640F0030081
:1054BC000A4914BF0124002402F04DFBD1E700245B
:1054CC00CFE700BFDBE5B15140420F00049D0F0058
:1054DC004C9D0F0012BC0F000CBC0F0018BC0F0031
:1054EC002DE9F043ABB006460F4690461C467C2295
:1054FC00202300210BA8029303F002F9294B1B78FF
:10550C000BB9FFF7B9FE2CB13146202203A8FDF7E9
:10551C0055FE03AE244B254C2549DFF8AC90E41A1C
:10552C00E408240444F0040543463A46284602F0B5
:10553C0009FB02AB01933A461E49CDF80090434655
:10554C000BA8FDF7EDFD024640B11B4944F00100EC
:10555C0002F0F0FA00202BB0BDE8F0832022314697
:10556C00484603F047F8D8B1144944F0020002F061
:10557C00DDFA1349284602F0D9FA20223146284692
:10558C0002F010FB0F49284602F0D0FA20224946BF
:10559C00284602F007FB02F06FF90028FBD1D9E78F
:1055AC000120D8E705710020049D0F004C9D0F00D1
:1055BC0058BC0F00F4CB0F008BBC0F00BCBC0F0011
:1055CC00D6BC0F00E8BC0F000671002008B5044BD8
:1055DC00986B08B1FFF740FD024B187008BD00BF77
:1055EC00846D00200875002010B5044658B1B0F544
:1055FC00007F0AD8064B00221A70FFF713FB054BED
:10560C0001209C6310BD0320FCE70420FAE700BFD7
:10561C0008750020846D002070B5134C0646E06BB5
:10562C00A36B42189A420D460BD9104B10481149E6
:10563C00C01AC008000440F0010002F077FA032001
:10564C0070BD5C300A462044314603F027F8E36B0A
:10565C0004F140022B4429463046E36300F06AFF14
:10566C0020640120ECE700BF846D0020049D0F0036
:10567C004C9D0F00F8BC0F00014B1878704700BF11
:10568C0008750020F7B51C4C94F86C217AB394F88B
:10569C00D802B4F8DA2204F5377104F5B874174E51
:1056AC00174D336800932B68FFF70EFE0128074651
:1056BC0005D1201D00F0D2FA0128074614D0114B59
:1056CC00114C1249E41AE408240444F0020002F0DC
:1056DC002DFA0F4944F0040002F028FA32882968A8
:1056EC0044F0040002F05EFA384603B0F0BD1146F7
:1056FC0010460434D3E700BFEC710020E4710020A5
:10570C00E8710020049D0F004C9D0F001BBD0F0085
:10571C0031BD0F00334BD3E90E329A422DE9F041E3
:10572C0006460D460DD0304B30483149C01AC008E2
:10573C00000440F0010002F0F9F908242046BDE80D
:10574C00F0812C4F97F80080B8F1000F09D0FFF7CB
:10575C0071FB294B306029461868BDE8F041FFF712
:10576C000DBDFFF779FC80B3FFF78CFF0128C6F85D
:10577C0000800446C5F8008019D11F4B29461868D3
:10578C00FFF7FCFC0128044611D103464246286869
:10579C00164D4146FFF760FB134BED1AED082D0437
:1057AC0040B1164945F0010002F0C0F90424FFF79E
:1057BC0039FAC3E7FFF73EFB11493060024645F06A
:1057CC00040002F0B7F93C70B8E7074B07480D49E5
:1057DC00C01AC008000440F0010002F0A7F905242B
:1057EC00ACE700BF846D0020049D0F004C9D0F00A2
:1057FC003FBD0F0008750020D07100205ABD0F006E
:10580C0075BD0F0091BD0F0070B504460D461646D0
:10581C0020B907494FF42C7000F0A8FE32462946F7
:10582C0004F172000123BDE87040FFF759BE00BFC0
:10583C00E7BA0F0037B503780C461146032B2DD869
:10584C00DFE803F015021821D0F8015000222046A1
:10585C0000F070FE85420AD01448154B1549C01A49
:10586C00C0080004012240F0040002F063F901209A
:10587C0003B030BD0A4600232146013003B0BDE819
:10588C003040FFF72DBE00912346411C40220020E2
:10589C00FFF71AFD431E58425841E9E740F2D93050
:1058AC00054900F063FE0020E2E700BF4C9D0F00AD
:1058BC00049D0F00AEBD0F00E7BA0F002DE9F043B9
:1058CC00A3B005460E46144600217C221F4603A8B1
:1058DC0020239DF8AC900293DDF8A88002F010FF15
:1058EC0041220021284602F00BFFB6F89430A34267
:1058FC0082BF442303FB046393F8969085F80090D1
:10590C00B9F1030F3BD8DFE809F009020F2C002294
:10591C004146384600F00EFEC5F8010042463946B5
:10592C002846FFF787FF19E002AB01936B1C00932D
:10593C00184943463A4603A8FDF7F2FB0028EDD080
:10594C0001F0DAFD1449154B5B1ADB081B041449F2
:10595C00024643F0010002F0EDF8002023B0BDE850
:10596C00F0836142442303FB046301F044019A3148
:10597C00B3F898203144681C02F090FECEE707483B
:10598C00054B0849C01AC00800044A4640F0010003
:10599C00E1E700BFF4CB0F00049D0F004C9D0F00FE
:1059AC00D1BD0F0002BE0F002DE9F04F984B1C68C3
:1059BC00A5B00646894690460A4601462046FFF7A2
:1059CC0023FF002800F0168194F85550002D35D196
:1059DC004FF0010ACDE9009A33462A46214613A816
:1059EC00FFF76CFF08B9052405E1B8F1000F7FD073
:1059FC00884F412213A907F2A12002F04FFE864BDB
:105A0C0086488749C7F82CA0C01AC008000440F08B
:105A1C00040002F08BF894F892303D6213B194F8C4
:105A2C0093300BB96368BB6000224946304600F0E6
:105A3C0081FD784B0124C3E90990D6E04122002175
:105A4C0002A802F05DFE05F0010B4122002113A813
:105A5C0005F0020502F054FEBBF1000F3ED006F536
:105A6C000050704B416899420AD06C486A4B6E49A1
:105A7C00C01AC008000440F0010002F057F8B2E769
:105A8C00A36D03F5FF5203F6FF73C3F30B031F3231
:105A9C00D21A8368934206D260485F4B6349C01A9E
:105AAC00C0080004E7E74FF440535A688A4223D1F8
:105ABC001A78102A88BF1A6906F5005398BF00227D
:105ACC00197810298CBF1B6900239A4214D05348B3
:105ADC00514B5749C01AC0080004CCE7002D76D1B1
:105AEC00544940F2613000F041FDB8F1000F71D122
:105AFC00484B01245C6183E03046FFF7A5FC70B194
:105B0C00464F454B4C49FF1AFF083F0447F0020033
:105B1C0002F00CF81DB9494947F00100ADE701232B
:105B2C000193A36D009300223346214602A8FFF790
:105B3C00C5FE00283FF457AF002D65D0A26DB318F9
:105B4C00A9EB02020021CDE9002113A85A462146F7
:105B5C00FFF7B4FE00283FF446AF9DF84C304BB134
:105B6C002E482D4B3649C01AC008000440F00200E4
:105B7C0001F0DCFFB8F1000FBAD0BBF1000F2DD053
:105B8C003046FFF761FC10B12E48FFF739F941227E
:105B9C002D4802A902F082FD1E4B002D0CBFA52240
:105BAC00AC22DA62A26D5A633FF43EAF2748412221
:105BBC0013A902F073FD94F8923023B194F893304A
:105BCC00002B7FF431AF134B6268DA602CE74A4646
:105BDC003346B7E70F4BAA22DA6225E70D4BAA2210
:105BEC00DA62E3E71A48FFF70BF9FFF71BF8094BEA
:105BFC009E6405E01724B8F1000FF3D1FFF712F8FB
:105C0C00204625B0BDE8F08FB8F1000FB8D16FE792
:105C1C00D0710020846D0020049D0F004C9D0F005E
:105C2C0023BE0F00DBE5B1514BBE0F009CBE0F0035
:105C3C0005BF0F00E7BA0F0072BF0F00B3BF0F0014
:105C4C00F4BF0F009C6D0020E46F002066700020F4
:105C5C00A86D00200122FFF7A7BE0000F8B504468E
:105C6C0018B94E49C42000F081FC94F854301BB193
:105C7C0094F8550003280BD949484A4B4A49C01A95
:105C8C00C008000440F0010001F050FF0F200EE0AE
:105C9C0094F86E30032B0BD0424B41484349C01A49
:105CAC00C008000440F0010001F040FF1420F8BDD2
:105CBC0094F892301BB194F89330002B62D1237A74
:105CCC0033B93748374B3A49C01AC0080004D9E7F2
:105CDC00E368342B0BD0334B31483649C01AC0081B
:105CEC00000440F0020001F021FF1120DFE74FF427
:105CFC004055314A6968238A914238D143B162696F
:105D0C0072B3DBB204F110010022D6B2B3420BD84D
:105D1C00244B23482949C01AC008000440F0020053
:105D2C0001F004FF1220C2E7AE8951F8047FB7429C
:105D3C0002F10102E9D1237833B301286368204AC8
:105D4C001DD892689A421DD9164B15481D49C01A88
:105D5C00C008000440F0020001F0E8FE1020A6E7A5
:105D6C0010B9012BD4D1E6E70128E4D1D0E713B167
:105D7C006369002BCCD12378002BDCD1C8E7D26827
:105D8C009A42E1D2012092E7012890D00448054BB9
:105D9C000D49C01AC008000474E700BF4BC00F00C7
:105DAC00549D0F00049D0F00A7C00F00BEC00F0034
:105DBC00D1C00F00E0C00F00DBE5B151F3C00F0004
:105DCC00846D002003C10F0017C10F00024AD2F8E6
:105DDC000034002BFBD0704700E001400A4908B5A5
:105DEC000223C1F80435BFF36F8FBFF34F8FC1F897
:105DFC000805FFF7EBFF0023C1F80435BFF36F8FE5
:105E0C00BFF34F8F08BD00BF00E0014010B5094C37
:105E1C000123C4F80435BFF36F8FBFF34F8F0160BC
:105E2C00FFF7D4FF0023C4F80435BFF36F8FBFF323
:105E3C004F8F10BD00E0014070B50E4D012316468A
:105E4C00C5F80435BFF36F8FBFF34F8F0024B442F6
:105E5C0007D10023C5F80435BFF36F8FBFF34F8F05
:105E6C0070BD51F8243040F82430FFF7AFFF0134F7
:105E7C00EDE700BF00E0014000F1804000F5C040BC
:105E8C00002382B0036003680193019B02B070474A
:105E9C0043090BD0012B4FF6FF7318BF002300F002
:105EAC001F0023FA00F000F0010070474FF0FF33A1
:105EBC00F5E70000054B4FF0FF32072843F8202090
:105ECC0084BF1B1883F85820704700BF0C75002046
:105EDC0010B504460068FFF7DBFF20B907494FF403
:105EEC00F67000F043FB23681F2B83BF03F01F03E6
:105EFC00034823604FF0A04010BD00BFF89D0F0079
:105F0C000003005013B5019001A80C46FFF7E0FF09
:105F1C00019B00EB8300D0F8003723F44033C0F82A
:105F2C000037D0F8003743EA0443C0F8003702B01A
:105F3C0010BD000038B5184C94F86A204ABB04F127
:105F4C003001FF251046FFF7A3FF00B18D5401323D
:105F5C00302AF7D10021C8B20131FFF7ABFF0C2971
:105F6C00F9D10E4B00221A609A800D4BC02183F898
:105F7C000613402119604FF4BE70FFF77DFF094BEB
:105F8C004FF00041C3F80413012384F86A30104623
:105F9C0038BD0820FCE700BF0C7500207075002090
:105FAC0000E100E000600040034B93F86A00003809
:105FBC0018BF0120704700BF0C7500202DE9F74376
:105FCC00044688469146FFF763FF20B941494FF4D8
:105FDC000C7000F0CBFA404F3B1993F93030002B8A
:105FEC0075DA98F802309D07C3F3400047BF0822CA
:105FFC00002308230C22934203D1042003B0BDE8F4
:10600C00F08357F8231001314FEA830545D13A1933
:10601C0047F823901E4682F8303010B93B4483F881
:10602C00584098F80230590717D4DA0737D501A829
:10603C000194FFF74DFF019B00EB8300D0F8003774
:10604C0023F00203C0F800372449E20804F00700EB
:10605C0001238340885C03438B5498F8023098F8F2
:10606C0000209B0729D505F1804303F5C04324028A
:10607C00D3F8101521F44F3121F44071C3F81015E9
:10608C001204D3F8101504F47C5402F44032144377
:10609C000C43C3F810450020B0E70133ABE701A86F
:1060AC0098F801900194FFF713FF019B03F5E0733F
:1060BC004FEA890240F82320C6E7083E47FA86F6E5
:1060CC0096F8603043EA821386F86030E3E70820E4
:1060DC0094E700BF42C10F000C75002070750020C2
:1060EC0073B506460D46FFF7D3FE20B927494FF48A
:1060FC00187000F03BFA264CA31993F93030002BA2
:10610C0004DA224940F2612000F030FAA31993F925
:10611C003020072A1BDD224492F858309B09032BB0
:10612C0010D101A80196FFF7D3FE019BD0F81015F2
:10613C00D94001F001010231304602B0BDE8704097
:10614C00FFF7E0BE012B0CBF02210321F4E7D3B211
:10615C00072B19D8930003F1804303F5C04302F1D8
:10616C004000D3F81015800041F00101C3F8101560
:10617C0080B2FFF781FE3DB154F8223023B10123E8
:10618C009340044AC2F8043302B070BD42C10F0000
:10619C000C750020006000402DE9F04F002485B004
:1061AC00CDE90244584D4FF48072012102F1804335
:1061BC0003F5C0431B68012B07D1D5F804331942F2
:1061CC0003D090B2FFF758FE0C430432B2F5907F27
:1061DC004FEA4101EAD14C4BD3F87C31012B11D160
:1061EC004FF4BE70FFF748FE4FF0A04344F000445C
:1061FC00D3F820250292C3F82025D3F82028039247
:10620C00C3F82028E3B2D3B1404F00250126344215
:10621C0010D0AB0003F1804303F5C043D3F8100555
:10622C00D3F8101557F8253023B1C1F30141C0F351
:10623C00052098470135082D4FEA4606E7D1002C7A
:10624C005ADA324E324D334F4FF000094FF00108FD
:10625C0017F9013F5A1C3CD0C3F3C20210326A44F6
:10626C005FFA83FA12F8082C03F03F0403F00703DB
:10627C0008FA03F31A422CD001A80194FFF728FE68
:10628C00019B03F5E07350F82330C3F3014BBBF1D2
:10629C00020F14BF022103212046FFF733FE01A891
:1062AC000194FFF715FE019B08FA03F3C0F82035A3
:1062BC00331993F9303056F8233053B14FEA9A1111
:1062CC00032904D0BBF1020F19D1012901D12046B9
:1062DC00984709F10109B9F1040FB9D14FF0A04267
:1062EC00D2F820350293C2F82035D5F82025039238
:1062FC001343C5F82025A6D105B0BDE8F08FBBF13E
:10630C00030FE6D10229E1E7006000400C75002084
:10631C00000300506B75002010B5044612F003000A
:10632C0010D1094B1A604B1CDB0012FA83F3074A9D
:10633C001360074B1870074B1870074B1C80074BEA
:10634C00198010BD0720FCE78475002080750020A3
:10635C007C7500207D7500207A75002078750020F2
:10636C002DE9F743284F3B888B4206460D46904655
:10637C0046D300240DF107008DF8074000F08CF88F
:10638C00224B23481A78234B008893F800C084458D
:10639C005FFA8CF138BF0131D2B238BFCCB2A24215
:1063AC0027D01C781978CAB288428CBF01320022DF
:1063BC00E4B21A709DF8070000F09CF84FF6FF73DA
:1063CC009C421FD0144B1B6843F8348003EBC40968
:1063DC0096B18DB1114B38881B682A46314604FBA7
:1063EC00003002F05BF9A9F80450002003B0BDE8BE
:1063FC00F0834FF6FF74DDE70023A9F80430F4E7CF
:10640C000920F3E70420F1E77A7500207D75002060
:10641C00787500207C750020847500208075002024
:10642C0070B5104C104D22782B789A4200D170BD6B
:10643C000E480F4A2378126806880E4802EBC301F7
:10644C00006852F83320898803FB060090470A49FC
:10645C0022780988D3B291428CBF01330023237078
:10646C00E1E700BF7D7500207C7500207A75002067
:10647C00847500208075002078750020EFF305836B
:10648C00C3F308032BB9EFF31480C04300F00100F1
:10649C00704701207047000070B50446FFF7EEFF0F
:1064AC00012803D00F49432000F060F8EFF3108669
:1064BC0072B60D4A9068012380B993600B4B0C4D5A
:1064CC00D3F8801029401160C3F88050D3F88410A1
:1064DC0051604FF0FF32C3F884200346237006B995
:1064EC0062B670BD8FC10F008875002000E100E01E
:1064FC00FC06FFBD10B50446FFF7C0FF012803D012
:10650C000949512000F032F8084B9A685AB154B935
:10651C00EFF3108172B6064A186810605868506024
:10652C009C6001B962B610BD8FC10F008875002048
:10653C0000E100E030B53AB11368DB430A4D014489
:10654C00884204D1D84330BD4FF0FF33F6E710F842
:10655C00012B5340082213F0010418BF2C46013ABA
:10656C0084EA5303F7D1EBE72083B8ED07B5CDE907
:10657C0000016A46002144F20200FBF747F803B021
:10658C0000BD50E8012FC2EA024240E80123002B73
:10659C00F7D1704750E8022FC2EA224240E80223AA
:1065AC00002BF7D1704710B561B1B2FBF3F403FBCC
:1065BC001424A4B244B9C0E9001484608281C3815C
:1065CC00204610BD0E20FCE70920FAE782B050E807
:1065DC00022FC188B2EB324F4FF0000317BF92B2BB
:1065EC0041EA014142EA014104E04268B2EB324F18
:1065FC0008BF012340E80212002AE8D18DF80730C9
:10660C009DF80730002B0CBF1120002002B0704702
:10661C0037B550E8013F9DB2C48925448489A54211
:10662C0028BF2D1B0489A54202BFBFF32F8F002268
:10663C0007E0C5EA030540E80154002CE9D14FF00E
:10664C0001028DF803200193019A9DF803300A6032
:10665C0023B1006810FA82F003B030BD03F0FF00E4
:10666C00FAE708B50A884B889A4203D1FFF789FFED
:10667C00012008BD0020FCE737B550E8023F1FFAA7
:10668C00A3F5C488A54202BFBFF32F8F00220DE0F3
:10669C00C48925448489A54228BF2D1BC3EA05451E
:1066AC0040E80254002CE8D14FF001028DF8032091
:1066BC000193019A9DF803300A6023B1006800EB46
:1066CC00124003B030BD03F0FF00FAE708B50A88AA
:1066DC004B889A4203D1FFF75DFF012008BD0020D3
:1066EC00FCE710B5034653E8000F0A4643E80024C4
:1066FC0094F0000FF7D110BD10B5034653E8000F0E
:10670C0040EA010243E8002494F0000FF6D110BDDA
:10671C0010B5034653E8002F42EA010043E8000499
:10672C0094F0000FF6D110BD10B5034653E8000FDE
:10673C0000EA010243E8002494F0000FF6D110BDEA
:10674C0010B5034653E8002F02EA010043E80004A9
:10675C0094F0000FF6D110BD10B5034653E8002F8E
:10676C0002EB010043E8000494F0000FF6D110BDD9
:10677C0010B5034653E8002FA2EB010043E80004D8
:10678C0094F0000FF6D110BD0121FFF7B5BF012128
:10679C00FFF7BEBF0021FFF7C7BF0021FFF7D0BF37
:1067AC0010B50446002832D003681BB91949FF20E4
:1067BC00FFF7DCFE636823B916494FF48070FFF7CE
:1067CC00D5FEA36823B9134940F20110FFF7CEFEA2
:1067DC00E36823B90F494FF48170FFF7C7FE238A92
:1067EC0023B90C4940F20310FFF7C0FED4E9013085
:1067FC002268C01AC0B21360236808B9187110BDA2
:10680C001A680138C0B2511C19601070F4E70E20E0
:10681C00F5E700BFE5C10F0037B5054620B91349B0
:10682C004FF49270FFF7A2FE00240DF107008DF8D3
:10683C000740FFF731FE2A68696813688B420ED94E
:10684C00591E116013F8013C288AEC6800FB0344C4
:10685C00AB685B1A1179DBB2994238BF13719DF8A2
:10686C000700FFF747FE204603B030BDE5C10F001F
:10687C0037B505460C4620B9104940F24710FFF7D2
:10688C0075FE24B90D494FF4A470FFF76FFE002379
:10689C000DF107008DF80730FFF7FEFD2A6813682D
:1068AC00591C1160EA68A41A2A8AB4FBF2F41C7011
:1068BC009DF80700FFF71EFE03B030BDE5C10F00C9
:1068CC0010B5044618B906493120FFF74FFEA268EF
:1068DC002AB163692168206998470023A36010BD21
:1068EC002DC20F000EB433B5059D044618B91149DD
:1068FC004220FFF73BFE63691BB90E494320FFF7AB
:10690C0035FE23681BB90B494420FFF72FFE636843
:10691C001BB908494520FFF729FE35B106AB01AA82
:10692C0029462046019300F079F802B0BDE83040CA
:10693C0003B070472DC20F000A2938B504460D4626
:10694C0002D10D21FFF7F8FFA3682268591CA16042
:10695C00D554D4E901329A4204D32046BDE83840DC
:10696C00FFF7AEBF38BD00002DE9F84F9846DDE9C2
:10697C000A43164682460F460A464FF00109B242B8
:10698C000FD2C14538BFC14613F0010B01D16CB910
:10699C0000240125B8F1010F1CD908F1FF3875430B
:1069AC00F8E709F10109B2FBF6F2E8E79B070ED50F
:1069BC00B8F1000F0CBF30252025A145E9D2013CD0
:1069CC0029465046FFF7B8FF002CF6D1E0E720250A
:1069DC00F3E77543B7FBF5F39E42FAD9DFF838803D
:1069EC00B7FBF5F3504618F8031005FB1377FFF7C8
:1069FC00A3FFB542B5FBF6F5F2D2BBF1000F00D008
:106A0C0034B9BDE8F88F20215046013CFFF794FFC4
:106A1C004C45F8D8F5E700BFDECD0F002DE9F74F58
:106A2C0005460F46904620B9B24940F25220FFF776
:106A3C009DFD6B6923B9AF494FF41570FFF796FDB7
:106A4C002B6823B9AB4940F25520FFF78FFD6B68DB
:106A5C0023B9A84940F25620FFF788FD002F00F01B
:106A6C004B81397849B92B7B002B00F045812846A6
:106A7C0003B0BDE8F04FFFF723BF252907F101074D
:106A8C0040F0BE80002639782D293A4607F10107DF
:106A9C0021D0302922D02B2923D02A293B4623D19F
:106AAC00D8F800301A1D1C68C8F800203A46117836
:106ABC002E2928D1501C4FF0000A0A270178A1F189
:106ACC00300CBCF1090F02461FD807FB0A1101302C
