:0200000270008C
:1070000000000120197207000172070003720700D7
:1070100005720700077207000972070000000000F0
:1070200000000000000000000000000069D407001C
:107030000D720700000000000F72070011720700B8
:107040001372070013720700137207001372070010
:10705000137207001372070079A707001372070065
:1070600013720700137207001372070013720700F0
:1070700013720700137207001372070013720700E0
:10708000E1880700137207001372070013720700EC
:10709000137207001372070015D20700137207005E
:1070A00013720700137207001372070013720700B0
:1070B00013720700137207000000000000000000B8
:1070C0001372070013720700137207001372070090
:1070D0006D8507001372070013720700000000009F
:1070E00000000000000000000000000000000000A0
:1070F0000000000000000000000000000000000090
:10710000000000000000000000000000000000007F
:10711000000000000000000000000000000000006F
:10712000000000000000000000000000000000005F
:10713000000000000000000000000000000000004F
:10714000000000000000000000000000000000003F
:10715000000000000000000000000000000000002F
:10716000000000000000000000000000000000001F
:10717000000000000000000000000000000000000F
:1071800000000000000000000000000000000000FF
:1071900000000000000000000000000000000000EF
:1071A00000000000000000000000000000000000DF
:1071B00000000000000000000000000000000000CF
:1071C00000000000000000000000000000000000BF
:1071D00000000000000000000000000000000000AF
:1071E000000000000000000000000000000000009F
:1071F000000000000000000000000000000000008F
:10720000FEE7FEE7FEE7FEE7FEE7FEE7FEE7FEE756
:10721000FEE7FEE700F002B8FFF7FCBF0F484FF0B3
:107220000701884385460E4880470E48016841F4AF
:1072300070010160BFF34F8FBFF36F8F00F01AB87A
:1072400009480A490A4A884207D0521A05D00378E9
:1072500001300B700131013AF9D170470000012073
:10726000157F070088ED00E0E4D50700685900208D
:107270007C590020364937480A1A02D00722914328
:107280008D46354935480A1A06D00722914381F3C5
:107290000988022282F3148831483249324A00F0C8
:1072A00039F832483249334A00F034F83248334929
:1072B000334A00F02FF833483349344A00F02AF8B3
:1072C00033483449344A00F025F834483449354AC3
:1072D00000F020F834483549354A00F01BF83548AD
:1072E0003549002200F02EF834483549002200F0DC
:1072F00029F8344A904724482449884205D0026836
:10730000043003B4904703BCF7E7002000212E4A65
:107310009047FEE7884214D0521A12D003460B431E
:1073200013430324234206D1036804300B60043165
:10733000043AF9D17047037801300B700131013AFA
:10734000F9D17047884202D002700130FAE77047E5
:107350000000012000F800200000012000000120B2
:1073600048DB07007C590020C8590020CC73070077
:10737000CC7307008CD5070048DB07007C59002040
:107380007C590020F8D50700F8D50700F8D507008C
:10739000F8D50700F8D50700F8D50700F8D507009D
:1073A000F8D5070048DB070094DB0700C859002028
:1073B000C8590020C8590020CC7F0020CC7F002075
:0C73C000CC7F002041720700057507001B
:1073CC00132808D14FF0A043D3F810351B0302D477
:1073DC00012000F0F9BE70474FF0A043D3F804250C
:1073EC00D14301F4805102F48052C3F80815C3F85C
:1073FC000C25D3F80425D14301F4005102F40052BA
:10740C00C3F80815C3F80C2570474FF0A0434FF490
:10741C000062C3F80C254FF48052C3F80C254FF4CE
:10742C000052C3F80C2570474FF0A0430322C3F859
:10743C0060274FF08072C3F808257047FFF7CCBF68
:10744C0007B503F0CFF808B903F092F80323ADF8B1
:10745C0004309DF806300F4A23F0070301A91320CE
:10746C008DF8063003F0C8F808B100F042F801219D
:10747C00132003F03BF94FF0A0430322C3F82C2751
:10748C00C3F83027C3F83427FFF7CEFFFFF7BDFF53
:10749C0003B000BDCD730700BFF34F8F0549064BFA
:1074AC00CA6802F4E0621343CB60BFF34F8F00BF96
:1074BC00FDE700BF00ED00E00400FA05072811D835
:1074CC00DFE800F00810100D100410044FF4004019
:1074DC0001F0AAB804494FF4004001F0BBB841F6E2
:1074EC009910F5E7704700BF4974070008B5FFF71E
:1074FC00D3FF08B5FFF7D0FF08B5FFF7A1FF4FF09A
:10750C008043D3F8003401F0AFF94FF480510020E0
:10751C0000F05BFF08B1FFF7BFFF0548C0F5FC2189
:10752C0000F053FF0028F6D1024800F085FEF2E788
:10753C0000700700C97407000023C0E902328B8871
:10754C001A44B1F9063002611A44C0E900114261D3
:10755C000888003818BF012070474268118838B578
:10756C00034641B102F110014160118A29B9C26888
:10757C000168FFF7E1FF002038BD9178108901F018
:10758C003004302C14D1957C05F03005302D16D1FB
:10759C0090881969091A19610020918AB2F916208C
:1075AC000844196901441961114459610120E3E748
:1075BC003F2906D8202C09D151894843EDE73F29B2
:1075CC00EBD901F0C001802908BF0420002CE4D1C4
:1075DC00996801319960E0E770B5456804460E463C
:1075EC002B461A88B24204D19B7803F00F03082B68
:1075FC0007D12046FFF7B1FF6368AB42F1D1002001
:10760C0070BD0120FCE743681A44426011B1013996
:10761C009A4201D10120704713F8010B01F8010FB8
:10762C00F6E7836810B504460BB9002010BD03685B
:10763C00012298470028F8D0A368013BA360F5E726
:10764C002DE9F3410F460DF107018046FFF7E9FFE5
:10765C00054620B90025284602B0BDE8F0819DF909
:10766C0007309DF80740002B11DA04F07F04072641
:10767C000DF107014046FFF7D4FF0028EAD09DF832
:10768C00072002F07F03B3401C43130601D43C6077
:10769C00E1E70736232EEBD1DCE770B541688A7839
:1076AC0002F00F05082D86B003461FD103691C6834
:1076BC0000260CB906B070BD236862689D682673FD
:1076CC0029466846FFF738FF6368049304F10C03FE
:1076DC000593AB7803F0C003802B08BF231D6846CD
:1076EC0008BF0493FFF7D9FFA468E2E73F2A24D828
:1076FC0002F0300010280DD15A6900201070072DAF
:10770C00CC6818690CD10146204606B0BDE8704023
:10771C0000F01FB89006F2D55B6900221A80C9E709
:10772C000A89214624B106B0BDE8704005F0C6BEFA
:10773C0006B0BDE8704005F0F3BE02F0C001802930
:10774C00B8D1006900210160920644BF5B691980C1
:10775C00B0E77FB50A4601466846FFF7EDFE30B14B
:10776C006846FFF79AFF6846FFF7F7FEF7E707B0A2
:10777C0000BD000030B5054685B01446A9B90268B5
:10778C00114B9A4211D0102C06D822466946284635
:10779C00FFF7F0FF05B030BD102269462846FFF711
:1077AC00E9FF0028F6D0103CEDE7AB68A34201D20C
:1077BC000020EFE72B682246284698470028F7D090
:1077CC00AB681B1BAB60E5E7137607002DE9F341B3
:1077DC00884601A907461646FFF732FFB0B1019C57
:1077EC00621C4FF0000505D298F8023003F0C0037C
:1077FC00802B01D1284609E0B8F808309342F9D320
:10780C00224631463846FFF7B5FF355502B0BDE884
:10781C00F08173B50D4601A906461446FFF710FF1B
:10782C00A8B1019AB2F5803F11D2AB7803F0C00336
:10783C00802B0CD02989931C994208D321463046C1
:10784C0021F8022B02B0BDE87040FFF793BF002077
:10785C0002B070BD034B8260C0E900310023C360ED
:10786C00704700BF137607002DE9F341002506464B
:10787C0088462F462C460DF107013046FFF7D1FE06
:10788C00B0B19DF807C0A4F120030CF07F02C4F145
:10789C00200102FA03F322FA01F10B43A2401CF07F
:1078AC00800F45EA020547EA030704D1C8E90057EF
:1078BC0002B0BDE8F0810734462CDCD10020F7E79C
:1078CC0037B50D4669461446FFF7CEFFA8B12B8994
:1078DC00013B072B24D8DFE803F01D1823122323C8
:1078EC002304DDE90001C4E9000103460A46914284
:1078FC0008BF98420CBF0120002003B030BDDDE969
:10790C000032236018460021F1E7DDE900322380C4
:10791C0098B2F8E7DDE90032237003F0FF00F2E7DC
:10792C000020EAE737B50D4669461446FFF79CFF81
:10793C0030B12B89082BDDE9001203D1C4E9001208
:10794C0003B030BD022B4FEAE1700FD0042B03D0F3
:10795C00012B0FD00020F3E721600B460246824238
:10796C0008BF8B420CBF01200020E9E70BB223803B
:10797C00DA17F4E74BB22370FAE7F7B50C4600219F
:10798C0019702170116001A9074615461E46FFF7B4
:10799C0057FE38B9BB6813B1002003B0F0BD01230A
:1079AC003370F9E701990029F9D0CB0801F00701F0
:1079BC002B602170F1E713B50446052921D8DFE8C7
:1079CC0001F0030F1720201E012201A92046FFF70A
:1079DC00D1FE18B19DF90430002BF5DB02B010BDBF
:1079EC0008220021204602B0BDE81040FFF7C2BEBD
:1079FC0001A9FFF725FE0028F0D0019AF1E7042237
:107A0C00EFE70020EAE773B50E4601A90446FFF73D
:107A1C0017FE054618B90025284602B070BD94E83B
:107A2C000F0086E80F0001998A42F4D3B160A36875
:107A3C005B1AA360F0E700002DE9F043536815468C
:107A4C009A7812F0C00489B006468C4603D0402CBC
:107A5C006BD0002413E002F00F01604F02F03002F3
:107A6C00202A57F8217012D007D862B92A69194612
:107A7C003B4609B0BDE8F0431847302A43D02046B6
:107A8C0009B0BDE8F0836A6901211170EEE7BCF121
:107A9C00020FD5F8148027D1042925D804A9FFF7A3
:107AAC00B2FF04460028EAD0069B2BB16968B8F8EF
:107ABC0000304A899A4208D8059B7360069B002BBC
:107ACC0014BF002404F00104D9E708892A6903FBD8
:107ADC00002204A8B84728B1B8F800300133A8F840
:107AEC000030E1E70446E7E7B8F800105A898A420B
:107AFC00AFD918892A694C1C01FB0022A8F8004058
:107B0C0019463046B4E76A6918881080072909D1EC
:107B1C001A892869214605F003FD6B682969D86824
:107B2C00FFF717FE2A696968EBE72F693B6823B9F1
:107B3C0009B0BDE8F043FFF73EBF022907F1040886
:107B4C0013D104A9FFF75FFF002882D03B68696856
:107B5C00424604A89847044600283FF47AAF069B97
:107B6C00002BF3D1059B736089E7012927D00529E8
:107B7C002DD000297FF46DAF0DF1040901240122F1
:107B8C0049463046FFF7F6FD00283FF462AF99F9FD
:107B9C000030002B0DDB124B049301ABCDE9053407
:107BAC000023079369683B68424604A8984704463B
:107BBC0065E701340B2C09F10109E0D149E70822F2
:107BCC0001A9FFF7D7FD08240028E4D141E70422DE
:107BDC000DEB0201FFF7CEFD0424F5E738D60700C4
:107BEC00137607002DE9F04790B00446002604A850
:107BFC00CDE90266FFF7A0FCA3683BBBDDE90534C9
:107C0C0004A89D78FFF7A9FC0028F7D115F0300FD8
:107C1C0003D1059B1B8803B10134002C00F0B58007
:107C2C00630902A90022934240F0A88010AA02EB3B
:107C3C00830304F01F0453F8383CC4F120044FF0C4
:107C4C00FF30E040C31A584258410DE00DF10303D8
:107C5C0001AA0DF102012046FFF78FFE38B99DF8FD
:107C6C000330002BCAD1002010B0BDE8F087019F73
:107C7C0004A83946FFF7B0FC002858D1B7424DD3C1
:107C8C00059D2B469B7803F00F03082B7FD004A88F
:107C9C00FFF763FC059B9D42F4D14FF0FF36B742D2
:107CAC003CD3089B9DF80290D4F808801D68A3680B
:107CBC00002D30D098459FD12B68D3F800A0BAF195
:107CCC00000F08D04B463A4629462046D04700289C
:107CDC00C9D0AD68EBE7D3F808A0BAF800309F42E2
:107CEC00F7D16A6851460AA8FFF726FC6B680E9319
:107CFC0005F10C030F939AF8023003F0C003802BAC
:107D0C0004BF2B1D0E9301232B730AAA4946204650
:107D1C00FFF792FEDBE798457FF46EAF9DF80210FB
:107D2C002046FFF748FE00287FF466AF9BE7059BD3
:107D3C009B7803F030037BB9069A3F2A0CD8510983
:107D4C0010AB03EB810102F01F020123934051F8A9
:107D5C00382C134341F8383CD4F80C809DF8025071
:107D6C00B8F1000F04D004AB2A4639462046C04770
:107D7C0004AA29462046FFF75FFED4E708680130C5
:107D8C007FF471AF043101324DE701206CE7059BA4
:107D9C001E8884E770B50C460646154611462046EB
:107DAC00FFF7D7FC2A4621463046BDE87040FFF766
:107DBC0019BFF0B585B0CE680D4669460446174626
:107DCC00FFF721FE68B1E86858B1AB7803F03003D7
:107DDC00202B3A463146684605D1FFF7DBFF019B65
:107DEC00636005B0F0BDFFF7FDFEF8E713B50C4678
:107DFC006946FFF739FD60B1DDE900134A0842EA34
:107E0C00C372C9074FEA530344BFD243DB43C4E9EF
:107E1C00002302B010BD37B50D4669461446FFF776
:107E2C00E5FFA8B12B89013B072B24D8DFE803F031
:107E3C001E18231223232304DDE90030C4E900308B
:107E4C0019460246824208BF99420CBF012000200D
:107E5C0003B030BDDDE9001221600B46C817F1E715
:107E6C00DDE900120BB22380D817EBE7DDE9001235
:107E7C004BB22370F8E70020EAE713B504220C4656
:107E8C000DEB0201FFF776FC08B1019B236002B0F9
:107E9C0010BD1146FFF7F1BF13B508220C46694619
:107EAC00FFF768FC18B1DDE90023C4E9002302B038
:107EBC0010BD1146FFF7F0BF4FF08053D3F83001DF
:107ECC00421C04BF4FF0704393F8E00F831F5842DD
:107EDC00584170474FF0704393F8E02F062A08D1B1
:107EEC00D3F8E80F00F0F000A0F1300358425841ED
:107EFC007047002070470000024AD2F80034002B73
:107F0C00FBD0704700E0014010B5FFF7D5FF40B142
:107F1C004FF080538F4AD3F82433C3F30423C2F8B1
:107F2C004035FFF7D7FF10B18B4B8C4A5A67FFF7E0
:107F3C00C3FF48B14FF080534FF08042D3F8443226
:107F4C00C3F34233C2F83C35FFF7C4FF30B1844A67
:107F5C00D2F8FC3023F08073C2F8FC30FFF7ACFF92
:107F6C0040B14FF080430022C3F80C21C3F810211C
:107F7C00C3F83825FFF7AEFF20B14FF08043032242
:107F8C00C3F8A025FFF7A6FF60B1764B0522C3F816
:107F9C0010260122C3F888260022C3F818263F2297
:107FAC00C3F814264FF08053D3F83021511C09BF6D
:107FBC004FF07043D3F8343193F8E02FD3F8E83F07
:107FCC0008BFC3F30313062A49D1033B012B46D93F
:107FDC004FF08052644BD2F80414C3F82015D2F839
:107FEC000814C3F82415D2F80C14C3F82815D2F8C9
:107FFC001014C3F82C15D2F81414C3F83015D2F899
:10800C001814C3F83415D2F81C14C3F84015D2F860
:10801C002014C3F84415D2F82414C3F84815D2F828
:10802C002814C3F84C15D2F82C14C3F85015D2F8F8
:10803C003014C3F85415D2F83414C3F86015D2F8C0
:10804C003814C3F86415D2F83C14C3F86815D2F888
:10805C004014C3F86C15D2F84424C3F87025FFF70C
:10806C002BFF48B14FF080534FF08042D3F8583279
:10807C0003F04F03C2F8E43EFFF71EFF48B14FF088
:10808C008043D3F80024D20744BF6FF00102C3F839
:10809C0000244FF08053D3F83021062A0BD1D3F8AB
:1080AC003431033B022B81BF304AD2F83C3743F4C6
:1080BC008063C2F83C372A4AD2F8883043F4700304
:1080CC00C2F88830BFF34F8FBFF36F8F4FF08053E0
:1080DC00D3F83021062A0CD1D3F83431033B032BCF
:1080EC0081BF4FF01023D3F808224FF08043C3F820
:1080FC0058254FF01023D3F80022002A03DBD3F8C5
:10810C000432002B22DA1A4901234FF01020C1F857
:10811C0004351524FFF7F0FEC0F80042FFF7ECFE23
:10812C00C0F80442FFF7E8FE0023C1F80435FFF75E
:10813C00E3FEBFF34F8F0A490E4BCA6802F4E062AC
:10814C001343CB60BFF34F8F00BFFDE70A4B0B4AC5
:10815C001A6010BD0030014000C007400DF0ADBAF0
:10816C0000ED00E00050004000C000400010004056
:10817C0000E001400400FA057C5900200090D00377
:10818C00008800F001007047BFF34F8F0549064B84
:10819C00CA6802F4E0621343CB60BFF34F8F00BF99
:1081AC00FDE700BF00ED00E00400FA0541DF704779
:1081BC00014B01221A707047E85D002008B5FFF7EB
:1081CC00E3FF00207047000008B538B1044B0548A8
:1081DC0000221A70BDE8084001F0F8BBFFF7D4FF8D
:1081EC00E85D0020C9810700042810B5044609D8B1
:1081FC0002280ED813D00C4B1B689BB12046BDE84F
:10820C0010401847831F012BF5D80120FFF7DCFF26
:10821C00F1E706494FF4F01000F0E4F9EBE701F058
:10822C0019FBE8E710BD00BFEC5D00203D820700A4
:10823C000120FFF7C9BF000038B54F4B1860002074
:10824C0001F0DAFB002840F0928000F0B5FA01282A
:10825C0000F08B80022800F08C80002840F0878092
:10826C004FF08043D3F80024D20338D54FF480323A
:10827C00C3F800240025414C236A012B3ED04FF457
:10828C00F014FFF7D1F800F033FB3D4A2021182001
:10829C0002F012FB08B1FFF72CF94FF08043D3F832
:1082AC001C2502F0F902B12A02BFD3F81C2502F0FA
:1082BC004E02C3F81C25FFF784FF002857D1204637
:1082CC00304900F08FF9304800F098FC00284ED16E
:1082DC0000F034FB02F074FBFFF768FFF8E7D3F80B
:1082EC00202502F0F902A92A06D1D3F8202502F0A4
:1082FC005602C3F82025BDE70125BCE74FF44053D7
:10830C005A68224B9A421CD001F02AFC01463DB31C
:10831C00A2691F4801F0E8FE0028B0D04FF080435E
:10832C00D3F81C3503F0F903B12BA8D001F0C6FB30
:10833C00E8B9184B1870184801F048FB00F030F8F9
:10834C0015E045B1626B15484FF4805101F0CCFE3D
:10835C000028D9D193E794F86032012BF2D1D3E7FE
:10836C0094F8A132012BD3D1D8E7FFF72DFF0320CE
:10837C0038BD4FF4A02484E7EC5D0020BC750020D0
:10838C00C85900203D820700F5810700DBE5B1519B
:10839C005D780020E85D0020BD8107001C7800207E
:1083AC0008B5074B4FF0FF32C3F88020C3F880218B
:1083BC0001F073F8BDE808404FF4805000F032B87B
:1083CC0000E100E080F3088808470346C1F30B0086
:1083DC00F0B520BBB3F5FE2F21D80139090B1A0BD0
:1083EC0001EB133101264FF0804402F01F035509B5
:1083FC0006FA03F3032D05D8DFE805F002080B0E8F
:10840C00C4F8003601329142EFD2F0BDC4F8043604
:10841C00F8E7C4F81036F5E7C4F81436F2E707208D
:10842C00F3E7000010B504461448C0F5FE21FFF731
:10843C00CCFF10B10720FFF75CF801F091FB104B5B
:10844C00996901F6FF716FF30B0101440020FFF7EE
:10845C00BCFF10B10720FFF74CF8EFF305830023A6
:10846C00D4E9000183F3148883F3108883F3118813
:10847C0083F31388BDE81040FFF7A4BF007007001A
:10848C00BC75002037B56FF07F42154C057BD4F8D6
:10849C0004358A4228BF0A46891A13444A1E942A74
:1084AC0023F07F4305F5A8729CBF963B9631416043
:1084BC0044F822300B4B4FF4F86043F0010398471B
:1084CC00094B03EB850300221A601B680193019B87
:1084DC004FF48033AB40C4F8043303B030BD00BF5D
:1084EC000040024060D6070040410240FFB4194DE5
:1084FC002B7853BB4FF08043A027D3F81844E403E8
:10850C005CBF01249C60144B0024C3F80041D3F8D9
:10851C0000610396039EC3F84041D3F84061029674
:10852C00029EC3F84441D3F844610196019E0B4E60
:10853C0086F82473102777600226C3F808450124B7
:10854C009C601C60C3F804632C70026004B0F0BC27
:10855C00FFF798BFF05D00200040024000E100E012
:10856C001B4BD3F8042173B552B11A490A68013276
:10857C000A600022C3F80421D3F804310093009B55
:10858C00154C164D164E2B6883B100232B602B68AF
:10859C00227B0193019B4FF4803393400C4AC2F829
:1085AC000833616849B12046FFF76CFF0435B542CA
:1085BC0004F11004E7D102B070BDA16811B12046DE
:1085CC00FFF760FF2368002BF0D09847EEE700BF61
:1085DC0000400240F45D00208C59002040410240D4
:1085EC004C41024010B4094B044618680A46017B02
:1085FC004FF480338B400649C1F808331CB1214637
:10860C0010BCFFF773BF10BC704700BF8859002027
:10861C0000400240034B1B680A469860014618460E
:10862C00FFF764BF84590020084B1B680146187B78
:10863C004FF4803282400648C0F80823996019B183
:10864C001A681846FFF752BF704700BF80590020C8
:10865C0000400240034B1B680A46986001461846CE
:10866C00FFF744BF80590020014B01221A7070475C
:10867C00F85D002081422DE9F74F04460F46154660
:10868C0004D10023184603B0BDE8F08F3E1B360B17
:10869C0002F6FF7800F02CF9082E28BF08263303C9
:1086AC00DFF864B001934FEA1838002DE9D0464545
:1086BC002CBFC246B2464FF000025146204634BF92
:1086CC00DDF80490A94600F0B9FE03460028D9D184
:1086DC0009F1030222F003023946204600F0A2FE03
:1086EC0003460028CED1DBF830304B44CBF8303089
:1086FC0001F072F9A8EB0A08A5EB09054C444F44AC
:10870C0003460028D1D0BDE7BC75002010B501F0A0
:10871C0045FA104A916C01F500535C680E4B9C4273
:10872C0012D1D2E90C32934211D0D21A02F6FF7256
:10873C00194418446FF30B02FFF79CFF034620B952
:10874C00BDE8104001F048B90323184610BD0023C2
:10875C00FBE700BFBC750020DBE5B15170B5144ED2
:10876C00F36A756AB46CAC2B1AD1736B1C44ED1A9A
:10877C00F36AAC2B06D10F482A46A4F5804104F0CD
:10878C0077FE98B10B482A46214604F071FE68B179
:10879C0000F0D4F829462046BDE8704000F066BED3
:1087AC00002CE5D101F0ECF90446E1E770BD00BF07
:1087BC00BC7500200070070070B5274CE36AAA2B2B
:1087CC0043D005D8012B0CD0A52B3AD0002070BD7E
:1087DC00AC2BFBD1FFF79AFF002834D1FFF7BEFF7B
:1087EC0031E0A66C656A01F0BBF9226B03469E4230
:1087FC0006EB0201104414BFAA1A0022FFF73AFF3D
:10880C00064660B901F0ACF93246294602F040F94F
:10881C00A36A984203D10123C4E90703A56100258B
:10882C000E4801F093F90E4B0E4800221A7001F01D
:10883C00D3F868B975B1236A012B0CBF0220012053
:10884C00C5E7FFF763FF0125EAE7FFF787FFE6E7D8
:10885C000320BCE70120BAE7BC750020E0750020BE
:10886C00F85D00207586070010B50024D4F8F83F99
:10887C00013304D1084940F6F87001F019FED4F820
:10888C00FC3F013307D1BDE810404FF4FC2140F60A
:10889C00FC7001F00DBE10BD007007000A4AD2F842
:1088AC0000347BB109480023D2F80815D940C90718
:1088BC0048BF03F5C07103F1010348BF42F8210022
:1088CC00072BF1D1704700BF000001403546526EB6
:1088DC00FFF7E4BF054B002282B0C3F80021D3F8A8
:1088EC0000310193019B02B0704700BF00000140B2
:1088FC0038B50E4C2378BBB90D4BD3F800248AB194
:10890C00D3F80455FFF7CAFF40F61650A842B8BF7B
:10891C0028460849A0F54860FFF77CFE064B4FF44B
:10892C0080321A600123237038BD00BFF95D00202E
:10893C0000000140DD88070000E100E0034BD3F8A4
:10894C0000340BB1FFF7AABF704700BF0000014015
:10895C0028B139B10023C1E900301846704748F2FC
:10896C001050704748F21350704730B1036848F20A
:10897C0040508B4208BF0020704748F2105070479F
:10898C0028B148F21150914208BF0020704748F2BC
:10899C001050704770B506460C461D46FFF7D8FFC1
:1089AC0050B952B1B379AB420AD11146204600F00E
:1089BC00E3F808B9044B236070BD48F21050FBE794
:1089CC0048F21150F8E700BF7052464D2DE9F047C0
:1089DC000C4607460F492046DDE9086915469846BE
:1089EC00FFF7C3FF98B963685A794946520030467D
:1089FC00FFF7C6FF58B945B1089643462A462146AB
:108A0C003846BDE8F04700F0BFB848F21050BDE85A
:108A1C00F08700BF7052464D10B5044638B149B1CD
:108A2C000B684160984708B9044B236010BD48F2AD
:108A3C000150FBE748F21050F8E700BF6E52464871
:108A4C00F0B4134648B10768094EB7420AD161B178
:108A5C002AB14368F0BC5B68184748F201531846CA
:108A6C00F0BC704748F20253F9E748F21053F6E7AE
:108A7C006E524648F0B460B107680C4EB7420CD148
:108A8C0071B143681568DC68A5420CD3F0BC9B68D7
:108A9C00184748F20150F0BC704748F20250FAE710
:108AAC0048F21350F7E748F21450F4E76E52464878
:108ABC002DE9F0410446DDE9065617469846FFF7C6
:108ACC00ABFF60B9424639462046FFF7B9FF30B9D3
:108ADC00324629462046BDE8F041FFF7CBBFBDE842
:108AEC00F0810000F8B50A4E0A4F012333700A4B8F
:108AFC00DB1BDC080025AC4203D1022333700020C1
:108B0C00F8BD57F8353098470028F9D10135F2E710
:108B1C00FA5D00208CD507008CD507000139014483
:108B2C00814200D2704703780A7800F8012B01F8D3
:108B3C000139F5E7013A02440139824200D270470B
:108B4C0011F8013F02F80139F7E738B514460D4624
:108B5C00FFF7F0FF224629192044BDE83840FFF703
:108B6C00E9BF38B50C460546FFF7D8FF2146281952
:108B7C00BDE83840FFF7D2BF10B5436808309C6899
:108B8C009A79A047002010BD1F2B084608B5114646
:108B9C000AD900F10802029802F004FB002848F2FE
:108BAC00425008BF002008BD48F21150FBE710B539
:108BBC000830144603F0E8F820232360002010BD91
:108BCC0008B5083003F026F8002008BD08B50830B9
:108BDC0002F0FAFF002008BD831F012B10B50446DC
:108BEC0002D8002000F09AFF034B1B681BB12046F3
:108BFC00BDE81040184710BDFC5D002008B5074BC0
:108C0C0018600020FFF7E8FF054800F06FFF20B95F
:108C1C00BDE80840024800F0D3BD08BDFC5D002053
:108C2C00E58B07006CDF70476DDF704772DF7047B4
:108C3C0073DF704774DF704775DF704776DF7047FE
:108C4C007ADF70477CDF70477DDF70477FDF7047CE
:108C5C0086DF70478FDF704790DF7047A8DF704763
:108C6C00AADF7047ADDF7047AEDF7047B0DF7047EB
:108C7C00B1DF7047B5DF704762DF704766DF704762
:108C8C0013DF70470146014802F026B8A0D5070053
:108C9C0070B518228CB000210DEB020004F040FCE2
:108CAC00012528234FF4004008938DF818508DF8B7
:108CBC002D50FFF7B9FC16231C4CADF806300023E1
:108CCC00CDF80E30CDF81230ADF81630022309264F
:108CDC000622237023715923A27063710322FE2391
:108CEC000DF10601A0190294ADF80C606570E270EC
:108CFC00A371FFF7A9FFB8B9BDF8063026725A194F
:108D0C00E271BDF80C200A4C134402A906AA2046B5
:108D1C00ADF80C30FFF78AFF30B92078FFF78AFFE7
:108D2C0020782946FFF784FF0CB070BD005E002050
:108D3C00BC590020154A38B51368044613F00100DD
:108D4C0022D013498C421ED0124908884FF6FF716D
:108D5C00884213D043F0040313211360FFF76EFF16
:108D6C0090B90D4DC82445F001054FF47A40A84741
:108D7C00013CFAD1BDE8384004F0EEB9074B187845
:108D8C00FFF758FFF6E7002038BD00BF8C6E0020BF
:108D9C008CD50700BE59002050D80700BC590020C4
:108DAC00F0B50388232B8BB0044635D80F2B04D891
:108DBC00012B00F0F7800BB0F0BD103B132BFAD851
:108DCC0001A252F823F000BF558E0700738E0700E6
:108DDC00C38D0700558F070097900700C38D0700C0
:108DEC00C38D0700C38D0700C38D0700C38D07001B
:108DFC00A5900700C38D0700C38D0700C38D070026
:108E0C00C38D07007F8F0700C38D07008D8F070070
:108E1C00C38D07003B8F0700503B9AB2062ACAD875
:108E2C00062BC8D801A252F823F000BF9F8E070072
:108E3C00BD8F0700A5900700C38D0700C38D0700E9
:108E4C00F78E07009D8F0700974D83882B80974BDB
:108E5C001B680BB101209847954928880BB0BDE8D9
:108E6C00F040FFF7E9BE904B4FF6FF721A80914B22
:108E7C001B685A0704D4FFF70BFF08B1FEF739FB48
:108E8C008A4B1B68002B96D002200BB0BDE8F0403B
:108E9C001847894EE288B3889A428CD1874801F0F2
:108EAC00F7FE0546002886D0228A04F1120104F050
:108EBC0005FB1822002104A804F032FB08238DF8CE
:108ECC0010307F4B06937F4B0596CDE9073504A8F0
:108EDC00238AADF8243000F069FC00283FF46BAF16
:108EEC007648294601F0F8FE65E7E188F6291CD89A
:108EFC00CB1E9B070DD0CB1F9BB2013B5A4202F0FD
:108F0C00030203F0030301F1FF3158BF5342C91AA6
:108F1C0089B2654B1888FFF7ADFE00283FF44BAFC4
:108F2C000BB0BDE8F040FEF7E4BAF721F1E7002200
:108F3C00808804A9CDE90422FFF78EFE00283FF4B7
:108F4C003AAFFEF7D6FA36E7574C02230493208843
:108F5C0002AB04AA42F605210593FFF783FE08B184
:108F6C00FEF7C7FA002320881A468521FFF76EFE0C
:108F7C00E4E74D4B00F108011888FFF75DFECCE7E4
:108F8C00002304A98088ADF81030FFF763FED5E705
:108F9C00A379002B7FF40FAF434B13211888FFF7F5
:108FAC004DFEBAE7404B00211888FFF767FEB4E787
:108FBC00A379002B3FF4FFAE022B7FF4FCAE3E4DA9
:108FCC002189AA8991427FF4F6AEA27B012A7FF413
:108FDC00F2AE4FF480320592228A334EADF818204F
:108FEC00628AADF81A2004F11402079201AF298AA3
:108FFC003088049302AA02930397FFF733FE60B9FB
:10900C003846FFF7BDF840B940F2FD133088ADF893
:10901C00143004A9FFF72AFECDE6002304A93088FA
:10902C00ADF81430FFF722FE014600287FF4C3AEE2
:10903C00182204A804F074FA237D214A8DF810300C
:10904C00022B0595069219D0062B05D0012B06D0C4
:10905C0004A800F0ABFBAEE6637D0893F8E71A4B6F
:10906C001A881A4B1A80637DD4F816200893012BAA
:10907C000992EDD1164800F051FDE9E7124AB4F817
:10908C0015301380114A1380E2E700231A46194663
:10909C008088FFF7DDFD40E70023A0881A461946BB
:1090AC00FFF7E6FD39E700BFBE590020706E0020C7
:1090BC0056D807008C6E0020786E0020A0D50700D3
:1090CC001D910700918C0700766E0020746E0020B5
:1090DC008CD507007FB50023CDF80B308DF80F3001
:1090EC00094BADF806109B89ADF8083001238DF8BB
:1090FC000A300DF10603CDE90430044B02A918889F
:10910C00FFF7B2FD07B000BD786E0020BE590020FD
:10911C0010B5044686B01122002101A804F000FA13
:10912C002378082B0BD1354A354913880988013B24
:10913C009BB21380D1B1CBB9032311802370627819
:10914C008DF805306021012A8DF804108DF8062069
:10915C000ED00B2A10D100F07FF98DF807000020FB
:10916C0000F074F9042101A8FFF7B4FF06B010BD9C
:10917C00062B03D0032B27D00321F4E7E1688DF8ED
:10918C000710D4E90123080A8DF80800080C090E11
:10919C008DF80A10110A8DF80B208DF80C10110C9B
:1091AC00120E8DF80E201A0A8DF80F308DF8102043
:1091BC001A0C1B0E8DF80D108DF809008DF811206E
:1091CC008DF812300F21CEE7D4E90123110A8DF866
:1091DC0007208DF80810110C120E8DF80A201A0AAF
:1091EC008DF80B308DF80C201A0C1B0E8DF8091015
:1091FC008DF80D208DF80E300B21B4E7746E002025
:10920C00766E00202DE9F0413E4B94B005464FF6AA
:10921C00FF721A8001204FF659632A4602A98DF875
:10922C000A00ADF80830FFF719FD0446002864D198
:10923C00354B04AA03F1100618685968144603C488
:10924C000833B3422246F7D1A91C04A8FFF714FD3A
:10925C000446002851D101461C220DA804F060F9E7
:10926C009DF834308DF80F4043F004038DF8343002
:10927C000223ADF80C30AB788DF80E3003238DF84B
:10928C000630F423CDE90A44ADF82C302B464FF4CC
:10929C00885833F8040B0C9403AF01AE08AA0DA93F
:1092AC00ADF8048008970996FFF7DAFC044620BB5A
:1092BC0001461C220DA804F033F918238DF8343024
:1092CC000123ADF80C30AB788DF80E3013238DF8EC
:1092DC0006301723CDE90A44ADF82C302B4608AAEA
:1092EC0033F80C0B8DF80F400DA90C94CDE90876D2
:1092FC00ADF80480FFF7B4FC0446204614B0BDE87A
:10930C00F08100BFBE5900205ED8070030B5324C4A
:10931C00236813F0010585B05BD1304B18603048E1
:10932C0001F0A0FC029500F0ACF800284FD12D48BC
:10933C00FFF7A6FC00284AD103F0D0FE002846D146
:10934C0002A803F09BFF002841D102A9012003F0E1
:10935C009FFF00283BD102A803F0ECFF002836D178
:10936C0000F09CFB30B1204800F088FB236843F0F0
:10937C0002032360112302A88DF80430FFF754FC7C
:10938C0028BB9DF8093002A801338DF80930FFF78E
:10939C0049FCE0B923689B074BBF134913498A6901
:1093AC00082248BF043192B201A8FFF74BFC70B9F8
:1093BC000F48FFF745FC50B90E48FFF723FF30B9B3
:1093CC00FFF766FC18B9236843F00103236005B06E
:1093DC0030BD0020FBE700BF8C6E0020706E0020BB
:1093EC00A0D5070000700700906E00203DD8070044
:1093FC0056D80700786E002043690BB1C068184737
:10940C00704700000449054B0022904208BF1946E2
:10941C00034801F07BBC00BF9CD8070070D8070044
:10942C006859002007B5009313460A4601460248C6
:10943C0001F070FC03B000BD6859002013460A46C9
:10944C000146014801F06CBC68590020014B1870B2
:10945C000B207047AC6E0020024B002218781A705B
:10946C00704700BFAC6E002018DF70471FB500239B
:10947C00CDE90030890868460291FFF7F5FF05B089
:10948C0000BD1FB50023CDE90133039368460223C9
:10949C000093FFF7E9FF05B000BD4FF000534FF408
:1094AC0080521A6000207047014B06201B68184739
:1094BC00B06E00200A2803D90B38C0B2FFF7C6BF24
:1094CC007047000010B5044686B0002001F02EFC59
:1094DC00014638B1174A1821204606B0BDE81040A5
:1094EC0001F00EBA1822684604F01AF80423124A46
:1094FC008DF80030114B116D1B68994212D1104B35
:10950C00186800F053FF8DF80100FFF7D3FFD4E982
:10951C0001138DF80100684698470A4800F05CFA80
:10952C0006B010BD01238DF801306846D4E9011353
:10953C009847F5E7D1940700BC750020B46E002065
:10954C00B86E0020B5940700F0B5044687B016221B
:10955C0000210DF1020003F0E3FF23788DF80030B9
:10956C0001220C2B8DF8012000F214819A4012F488
:10957C00AD7F15D1022B06D00C2B40F00B81864B06
:10958C0007201B689847D4E90113684698479DF853
:10959C000130012B00F0F3807F4B05201B68EDE0C0
:1095AC00062B7E4A01D0012B01D121691170117853
:1095BC00012904D0022954D0002313709AE0013BF6
:1095CC00072BE0D801A252F823F000BFF995070051
:1095DC00939507006396070037960700939507004D
:1095EC005D96070093950700119607006A4B0320C0
:1095FC001B689847606900F0C5FCFFF75BFF8DF8AE
:10960C000100C0E7A18A206900F0D4FCFFF752FFEB
:10961C00634B8DF80100DA6B1B6C0293E3680192CB
:10962C00002BB0D020699847ADE75E495E4800F04A
:10963C000FFDFFF73FFF01288DF80100A3D100209B
:10964C0000F0CAF900289ED00A238DF801309AE761
:10965C004FF400730393524BDA6B1B6C0192029321
:10966C0091E7013B072B8ED801A252F823F000BFE3
:10967C009D960700939507005B9707006597070079
:10968C00939507008F9707009395070005970700A0
:10969C00414B03201B68984700F0ACFC08B9082329
:1096AC00D3E762690AB90323CFE7C2F30B0333B1E3
:1096BC003B4B3C495B6D096813448B42F3D1B2F5CB
:1096CC00805F01D90423C0E7354B3649586D0968D2
:1096DC0015188D42E3D85A64DA6C9A6418651863CD
:1096EC00314B1B68002201211844FFF7A7FE00280C
:1096FC003FF449AF0523A8E700F07CFC0028CED04E
:10970C00274DA18AD5E914329B1A6A6C0B449342FB
:10971C00C9D8254B2E6B1B68206905F148021E44E5
:10972C0001F0B6F9E368A28A216907463046FFF7D3
:10973C0079FE08B1E36875E7A38A2A6BAF641A4413
:10974C002A632A6D029713442B6501931BE7144B74
:10975C009A6C02921B6DF8E7114BD3E91402596C09
:10976C00821A8A429BD19A6C586500212046596412
:10977C00DA64FFF7A7FE084B1B680420984707B074
:10978C00F0BD074B9A6C1B6D01934FF48053029202
:10979C000393F8E6022358E7B06E0020C05900206E
:1097AC00BC750020B46E0020B86E002083681BB11D
:1097BC00024A182101F0A4B80720704755950700FC
:1097CC0038B50546C0B10120FFF71CFE044648B968
:1097DC0000F0CAFB00F00EFC30B9084B00201D60F5
:1097EC00FFF734FE204638BD0549064800F030FC32
:1097FC000128F2D00324F5E70724F3E7B06E00202C
:10980C00B46E0020B86E0020F8B514464FF46072A8
:10981C0005460F461E4603F02BFE18B904B1A047AF
:10982C00002006E0002201212846FFF707FE08B1C0
:10983C000320F8BD4FF460723946304603F03EFE0B
:10984C0023464FF4607231462846FFF7EBFD0028A3
:10985C00E6D0EDE72DE9F0413F4C2368013362D0AF
:10986C0000225821201D01F013F927683A1A57429B
:10987C005741DFF8F880394ED8F800502B68013387
:10988C0066D000225821281D01F002F92B68834272
:10989C004BD16C68012C0AD00022C32105F518703D
:1098AC0001F0F6F8D5F85C42231A5C425C41002FBB
:1098BC003DD0294929484FF4607203F0FFFD6CB18B
:1098CC00D8F8004026485422211D03F0F7FD254806
:1098DC004FF4327204F15C0103F0F0FD7768012F54
:1098EC0034D1214CA4F5E4750FCD0FC40FCD0FC4AA
:1098FC000FCD0FC495E80F0084E80F0004F110059C
:10990C00A4F5DC740FCC0FC594E80700002386F88F
:10991C00603286F8E232F36986F8A17285E80700B6
:10992C00C6F8A23210E00027A3E70024BFE72CB151
:10993C00D8F8001009484FF46072CDE707484FF48F
:10994C006072002103F0ECFD02237360BDE8F0812E
:10995C00002FF3D00024ACE700F00700BC7500200A
:10996C00C075002018760020E0780020C459002033
:10997C0010B50022044658210B4801F089F80A4B17
:10998C00002243F8040CC32103F5177001F080F892
:10999C00064B0649C3F85C022246054B0548BDE858
:1099AC001040FFF731BF00BFC0750020BC75002010
:1099BC003C72002000F0070002460248024B00688F
:1099CC00FFF722BFC4590020BC6E00200149FFF7ED
:1099DC00F3BF00BF00F0070038B505460020FFF7C5
:1099EC00C7FF044618B903492846FFF7E5FF204690
:1099FC0038BD00BFBC75002010B5FFF703FD044651
:109A0C0008B1032010BDFFF725FF2046FFF7E4FF48
:109A1C000028F7D0F5E7000010B5084C07484FF4C4
:109A2C000072FF2103F07CFD20220021A4F1240010
:109A3C0003F076FD002344F82C3C10BD1876002072
:109A4C0029DF704738B5044690B10B4DD5F8643317
:109A5C0001330FD100221821043001F019F82146EE
:109A6C002060072205F55970BDE83840FFF7E8BFC4
:109A7C000E2038BD0820FCE700F0070050B1064B63
:109A8C0003F11C0253F8041B40F8041B9342F9D158
:109A9C00002070470E20704764F3070010B5064C89
:109AAC0000221821204600F0F3FF54F8043C1B1A46
:109ABC005842584110BD00BF68F3070010B50A4C5E
:109ACC00D4F82433D4F864231340013309D04FF471
:109ADC00FE2000F0D5FCC92221464FF4FE2000F0F8
:109AEC00FDFC002010BD00BFBC750020F8B5094E70
:109AFC00094B07469D1B0024B4EBD50F01D1002068
:109B0C00F8BD56F83430384698470028F8D101345F
:109B1C00F2E700BF8CD5070094D50700F8B5094AC9
:109B2C00094D0746561B00240435B4EBD60F01D162
:109B3C000020F8BD55F83430384698470028F8D145
:109B4C000134F2E794D507008CD50700034A0023B3
:109B5C000360436083601363704700BFBC750020D3
:109B6C004FF44053054A5968914203BF986800F678
:109B7C00FF706FF30B004FF480507047DBE5B15171
:109B8C0008B5FFF7EDFF044B9B69184400F6FF7016
:109B9C006FF30B0008BD00BFBC7500204FF4805064
:109BAC00704700002DE9F843224F044688461546BD
:109BBC001E464FF00009B9F1010F1ED0B9F1020F8A
:109BCC0028D0FFF7DDFFB5B11B4B1B6A5A1E534261
:109BDC005341381AA04202D3B8F1000F20D0EBB990
:109BEC0009F10109B9F1030FE5D1A0421FD31348C4
:109BFC00FFF7ACFF18E02B46EBE7FFF7B1FF3EB9E0
:109C0C004FF440530E4A5B689B1A18BF0123E0E7E0
:109C1C003346DEE701234FF48050DAE7A04206D347
:109C2C005FFA89F3002BE2D10020BDE8F883042011
:109C3C00FBE700BF00400700BC750020D475002076
:109C4C00DBE5B15190F8552012F0FB0F07D190F8DD
:109C5C006430DBB1836ECBB10B600120704712F026
:109C6C00010303D090F8563003B1836D9207F2D5FF
:109C7C0090F85C20002AEED0054A006EC2F5FC225A
:109C8C00904201D80344E6E7042070470F20704748
:109C9C00007007002DE9F0432E492F4D8A6B2F4C95
:109CAC002F4EDFF8D080DFF8D09085B05C3168465D
:109CBC00FDF7D0FD9DE80F0085E80F000021294B32
:109CCC0031704FF447722046C8F80010C9F80010E4
:109CDC00EB6003F025FC244922462846FEF75AF88F
:109CEC0020B90026304605B0BDE8F0833678002E4A
:109CFC00F7D094F86C31277813B3002FF1D194F886
:109D0C007231002BEDD0D9F80020D8F8001068463D
:109D1C00FDF7A0FD9DE80F0085E80F004FF4B2722F
:109D2C00394604F5BA7003F0FBFB104904F5BA721E
:109D3C002846FEF72FF80028D3D004F5BA7405E0B6
:109D4C00002FCED0A379002BCBD00834084B1C604D
:109D5C00C8E700BFBC7500200C7A0020247A0020D4
:109D6C003C790020899D07008CD607002CD7070072
:109D7C00087A0020207A00201C7A00205B68DA68C0
:109D8C000D4B9A4230B508D10C4C236813B90C49D1
:109D9C000B681BB10B4B00221A7030BDD0E901309F
:109DAC001A4612F9015B002DFBDB03449B1A22605F
:109DBC000B600122034BEFE72CD70700207A002021
:109DCC001C7A00203C7900204FF4405210B55168A9
:109DDC00114C00F50053A142586803D0031B5842A4
:109DEC00584110BD884214D11178142982BF506992
:109DFC000A4AB0FBF2F01A7898BF0020142A83BFED
:109E0C005B69064AB3FBF2F30023C01A18BF0120AA
:109E1C00E7E70020E5E700BFDBE5B15140420F006A
:109E2C0000B591B0FEF75EFE684607492022FEF7AA
:109E3C008CFE6A46054906484023FEF7ABFD054BF0
:109E4C0001221A7011B000BDF8D50700C0790020AE
:109E5C0068D607003D790020F0B5A1B007460C4646
:109E6C0015461E4670222023002104A8029303F0FD
:109E7C0057FB002303931C4B1B780BB9FFF7D0FF48
:109E8C005CB367BB02AB0193184B00931849269B3C
:109E9C00324604A8FEF70CFE18BB402D21D1154B01
:109EAC00214604F140021C4651F8040B43F8040B04
:109EBC009142F9D10F482021FEF753FE4023CDE902
:109ECC0000430A4A029B0C4903A8FEF77FFD0028B9
:109EDC0014BF0520012021B0F0BD1320FBE7162094
:109EEC00F9E70A20F7E700BF3D7900205E790020F2
:109EFC0074D607007E790020C0790020F0B5A9B097
:109F0C0004460E4617461D467022202300210CA83D
:109F1C00039303F005FB114B1B780BB9FFF780FF84
:109F2C002DB12146202204A8FEF704FE04AC03AB9D
:109F3C000B4D01930B4900953B4632460CA8FEF79E
:109F4C00B7FD48B920222146284603F091FAB0FA11
:109F5C0080F0400929B0F0BD0020FBE73D790020DE
:109F6C003E79002074D6070008B5044B986B08B1F5
:109F7C00FFF790FE024B187008BD00BFBC750020A7
:109F8C00407D002010B5044658B1B0F5007F0AD8CA
:109F9C00064B00221A70FFF73FFD054B01209C6316
:109FAC0010BD0320FCE70420FAE700BF407D002031
:109FBC00BC75002070B50E4C0646E06BA36B4218C6
:109FCC009A420D4611D85C300A462044314603F0C3
:109FDC0075FAE36B04F140022B4429463046E363E7
:109FEC0000F056FD2064012070BD0320FCE700BF8B
:109FFC00BC750020014B1878704700BF407D0020D5
:10A00C0013B5104C94F86C21B2B194F8D802B4F892
:10A01C00DA2204F5377104F5B8740B4B1B68009306
:10A02C000A4B1B68FFF718FF012809D1201D02B04D
:10A03C00BDE8104000F0BEB9114610460434ECE700
:10A04C0002B010BD247A00201C7A0020207A002057
:10A05C00204BD3E90E329A422DE9F04107460D46CA
:10A06C0033D1DFF8788098F800604EB1FFF788FDA7
:10A07C00194B386029461868BDE8F041FFF7E2BD7E
:10A08C00FFF708FE18B3FFF7BBFF01283E6004463C
:10A09C002E6017D1104B29461868FFF7D3FD012805
:10A0AC0004460FD10346324628683146FFF77AFD45
:10A0BC0038B9FFF765FD88F8004038602046BDE8E8
:10A0CC00F0810424FFF7A8FCF8E70824F6E7052440
:10A0DC00F4E700BFBC750020087A0020407D00200A
:10A0EC0001237230FFF70ABF37B503780D461146CE
:10A0FC00032B23D8DFE803F002051019012003B06D
:10A10C0030BDD0F801400022284600F0C1FC84424A
:10A11C0014BF00200120F2E70A4600232946013033
:10A12C0003B0BDE83040FFF7E9BE00912B46411C5F
:10A13C0040220020FFF790FE0128E9E70020DEE72F
:10A14C002DE9F043A1B005460E46144600217022BD
:10A15C001F4604A820239DF8A4900393DDF8A0804B
:10A16C0003F0DEF941220021284603F0D9F9B6F8B4
:10A17C009430A34282BF442303FB046393F896906C
:10A18C0085F80090B9F1030F1CD8DFE809F009023B
:10A19C000F1F00224146384600F07AFCC5F801003A
:10A1AC00424639462846FFF79FFF0CE003AB01936C
:10A1BC006B1C00930C4943463A4604A8FEF778FC06
:10A1CC000028EDD0002021B0BDE8F083614244238B
:10A1DC0003FB046301F044019A31B3F89820314435
:10A1EC00681C03F06BF9DBE774D607002DE9F04F20
:10A1FC00684B1E68A5B00446884617460A460146B9
:10A20C003046FFF76DFF002800F0C18096F85550DE
:10A21C006DBB4FF00109CDE9008923462A46314632
:10A22C0013A8FFF78DFF48B90525002F40F0A38038
:10A23C00FFF7F2FB284625B0BDE8F08F002F00F0A9
:10A24C00A280554F412213A907F2A12003F036F941
:10A25C007368C7F82C903D62BB60002241462046D3
:10A26C0000F016FC4C4B0125C3E9098086E0412225
:10A27C00002102A803F054F905F0010A4122002143
:10A28C0013A805F0020503F04BF9BAF1000F6CD0DE
:10A29C0004F50050414B41689942C5D1D6F858B0ED
:10A2AC000BF5FF530BF6FF72C2F30B021F339B1A15
:10A2BC0082689A42B8D34FF440535A688A420ED1FE
:10A2CC001A78102A88BF1A6904F5005398BF002227
:10A2DC00197810298CBF1B6900239A42A4D12046FF
:10A2EC00FFF772FD00283DD10123CDE900B3002218
:10A2FC002346314602A8FFF723FF002894D0B26D05
:10A30C00A318A8EB02024DB10021CDE9002113A83E
:10A31C0052463146FFF714FF002885D0002F32D06B
:10A32C001D4FBAF1000F23D02046FFF74DFD18B199
:10A33C0007F11800FFF70AFC1948412202A903F0A3
:10A34C00BDF8002D0CBFA523AC23FB62B36D7B6362
:10A35C00002D82D01348412213A903F0AFF8736883
:10A36C00FB607AE7002DBFD15EE742462346CAE781
:10A37C00AA23FB62ECE70C48FFF7E8FBFFF74CFB6A
:10A38C00054B9C6456E7044B01255D6152E717258C
:10A39C004BE700BF087A0020BC750020DBE5B1510B
:10A3AC001C7800209E780020E07500200122FFF729
:10A3BC001DBF000090F85430F0B5002B4FD090F832
:10A3CC005520032A4BD890F86E30032B45D1037AD5
:10A3DC00002B44D0C368342B43D14FF44055224951
:10A3EC006C68038A8C4225D143B14169D9B1DBB287
:10A3FC0000F110040021CEB29E4201D3122011E0D4
:10A40C00AE8954F8047FB74201F10101F3D103780E
:10A41C00F3B1012A4068154B14D89B6898422CBFA5
:10A42C0001201020F0BD12B9012BE7D1EFE7012A72
:10A43C00EDD1E3E713B14369002BDFD10378002B97
:10A44C00E5D1DBE7DB68984294BF10200120E9E7F7
:10A45C00012A0CBF01200F20E4E71420E2E70F20B3
:10A46C00E0E71120DEE700BFDBE5B151BC75002051
:10A47C00024AD2F80034002BFBD0704700E00140B8
:10A48C000A4908B50223C1F80435BFF36F8FBFF337
:10A49C004F8FC1F80805FFF7EBFF0023C1F8043517
:10A4AC00BFF36F8FBFF34F8F08BD00BF00E00140BB
:10A4BC0010B5094C0123C4F80435BFF36F8FBFF3FB
:10A4CC004F8F0160FFF7D4FF0023C4F80435BFF3AE
:10A4DC006F8FBFF34F8F10BD00E0014070B50E4D74
:10A4EC0001231646C5F80435BFF36F8FBFF34F8FAA
:10A4FC000024B44207D10023C5F80435BFF36F8F95
:10A50C00BFF34F8F70BD51F8243040F82430FFF763
:10A51C00AFFF0134EDE700BF00E0014000F18040E7
:10A52C0000F5C040002382B0036003680193019BD7
:10A53C0002B07047800000F1A040D0F8003723F43F
:10A54C004033C0F80037D0F8003743EA0143C0F875
:10A55C0000377047054B4FF0FF32072843F8202097
:10A56C0084BF1B1883F84820704700BF447D00202F
:10A57C0010B5184C94F858304BBB4FF0FF3204F127
:10A58C00300122FA03F0C00748BFCA540133202B14
:10A59C00F7D10021C8B20131FFF7DCFF0C29F9D14A
:10A5AC000D4B00221A600D4BC02183F8061340217D
:10A5BC0019604FF4BE70FFF7B1FF094B4FF000412B
:10A5CC00C3F80413012384F85830104610BD08203A
:10A5DC00FCE700BF447D0020987D002000E100E0F6
:10A5EC0000600040034B93F85800003818BF01205E
:10A5FC00704700BF447D0020F0B53A4E33189646A4
:10A60C0093F93030002B6ADA8B78C3F340079B0741
:10A61C0047BF0023082508230C25AB4201D1042099
:10A62C00F0BD56F8232001324FEA830442D106EBE9
:10A63C00000C46F823E01D468CF8303017B9334433
:10A64C0083F848008B785F0716D4DA0734D583007B
:10A65C0003F1A043D3F8002722F00202C3F800272D
:10A66C00214FC20800F0070C012303FA0CF317F872
:10A67C0002C043EA0C03BB548B780A789B0724D5A1
:10A68C0004F1804303F5C0430002D3F8101521F404
:10A69C00473121F44071C3F810151204D3F810158A
:10A6AC0000F4F85002F4403210430843C3F810058C
:10A6BC000020B5E70133B0E74A7800F5E0734FF0BE
:10A6CC00A047920047F82320CAE7083D46FA85F5D3
:10A6DC0095F8503043EA821385F85030E8E70820AB
:10A6EC009EE700BF447D0020987D002010B51D4CD6
:10A6FC00231893F93020072A16DD144494F84830B7
:10A70C009B09032B0BD14FF0A043D3F81015C1407C
:10A71C0001F001010231BDE81040FFF70BBF012B26
:10A72C000CBF02210321F6E7D3B2072B19D89300F3
:10A73C0003F1804303F5C043D3F8100540F001004A
:10A74C00C3F8100502F14000800080B2FFF7E6FE6E
:10A75C0039B154F8223023B101239340024AC2F894
:10A76C00043310BD447D0020006000402DE9F34708
:10A77C0000244E4D01944FF48072012102F180436C
:10A78C0003F5C0431B68012B07D1D5F804330B42EA
:10A79C0003D090B2FFF7C2FE0C430432B2F5907FA7
:10A7AC004FEA4101EAD1414BD3F87C31012B0CD15A
:10A7BC004FF4BE70FFF7B2FE4FF0A04344F00044DC
:10A7CC00D3F820250192C3F82025E3B2D3B1384F3A
:10A7DC0001260025344210D0AB0003F1804303F571
:10A7EC00C043D3F81005D3F8101557F8253023B112
:10A7FC00C1F30141C0F3042098470135082D4FEAFD
:10A80C004606E7D1002C48DA294C4FF0A047294DD9
:10A81C004FF00008012615F9013F5A1C31D0C3F343
:10A82C00C20108316944DAB211F8041C03F03F0983
:10A83C0003F0070306FA03F3194222D009F5E0737B
:10A84C00484657F82330C3F3014ABAF1020F14BF3C
:10A85C0002210321FFF76EFE06FA09F3C7F8203533
:10A86C0004EB090393F9303054F823304BB19109C0
:10A87C00032904D0BAF1020F12D1012901D14846A3
:10A88C00984708F10108B8F1040FC4D1D7F8203566
:10A89C000193C7F82035002BB9D102B0BDE8F08781
:10A8AC00BAF1030FEDD10229E8E700BF00600040C8
:10A8BC00447D0020937D002010B5044612F0030067
:10A8CC0010D1094B1A604B1CDB0012FA83F3074AB8
:10A8DC001360074B1870074B1870074B1C80074B05
:10A8EC00198010BD0720FCE7AC7D0020A87D00205E
:10A8FC00A47D0020A57D0020A27D0020A07D00204D
:10A90C002DE9F743284F3B888B4206460D4690466F
:10A91C0046D300240DF107008DF8074000F07EF8B7
:10A92C00224B23481A78234B008893F800C08445A7
:10A93C005FFA8CF138BF0131D2B238BFCCB2A2422F
:10A94C0027D01C781978CAB288428CBF01320022F9
:10A95C00E4B21A709DF8070000F084F84FF6FF730C
:10A96C009C421FD0144B1B6843F8348003EBC40982
:10A97C0096B18DB1114B38881B682A46314604FBC1
:10A98C00003002F09BFDA9F80450002003B0BDE894
:10A99C00F0834FF6FF74DDE70023A9F80430F4E7E9
:10A9AC000920F3E70420F1E7A27D0020A57D00201B
:10A9BC00A07D0020A47D0020AC7D0020A87D00207F
:10A9CC0070B5104C104D22782B789A4200D170BD86
:10A9DC000E480F4A2378126806880E4802EBC30112
:10A9EC00006852F83320898803FB060090470A4917
:10A9FC0022780988D3B291428CBF01330023237093
:10AA0C00E1E700BFA57D0020A47D0020A27D0020F1
:10AA1C00AC7D0020A87D0020A07D002070B5EFF358
:10AA2C00108672B60C4A9468012384B993600B4B60
:10AA3C000B4DD3F8801029401160C3F88050D3F827
:10AA4C00841051604FF0FF32C3F88420234603700A
:10AA5C0006B962B670BD00BFB07D002000E100E019
:10AA6C00FC06FFBD084B9A6810B55AB150B9EFF30C
:10AA7C00108172B6054A1C6814605C68546098605A
:10AA8C0001B962B610BD00BFB07D002000E100E04E
:10AA9C0030B53AB11368DB430A4D0144884204D106
:10AAAC00D84330BD4FF0FF33F6E710F8012B53407D
:10AABC00082213F0010418BF2C46013A84EA530310
:10AACC00F7D1EBE72083B8ED50E8012FC2EA024240
:10AADC0040E80123002BF7D1704750E8022FC2EA5F
:10AAEC00224240E80223002BF7D1704710B561B128
:10AAFC00B2FBF3F403FB1424A4B244B9C0E9001470
:10AB0C0084608281C381204610BD0E20FCE70920A1
:10AB1C00FAE782B050E8022FC188B2EB324F4FF007
:10AB2C00000317BF92B241EA014142EA014104E03D
:10AB3C004268B2EB324F08BF012340E80212002AF0
:10AB4C00E8D18DF807309DF80730002B0CBF112091
:10AB5C00002002B0704737B550E8013F9DB2C48960
:10AB6C0025448489A54228BF2D1B0489A54202BF18
:10AB7C00BFF32F8F002207E0C5EA030540E801541C
:10AB8C00002CE9D14FF001028DF803200193019ABA
:10AB9C009DF803300A6023B1006810FA82F003B00C
:10ABAC0030BD03F0FF00FAE708B50A884B889A42DB
:10ABBC0003D1FFF789FF012008BD0020FCE737B562
:10ABCC0050E8023F1FFAA3F5C488A54202BFBFF3A9
:10ABDC002F8F00220DE0C48925448489A54228BF0B
:10ABEC002D1BC3EA054540E80254002CE8D14FF078
:10ABFC0001028DF803200193019A9DF803300A603D
:10AC0C0023B1006800EB124003B030BD03F0FF002D
:10AC1C00FAE708B50A884B889A4203D1FFF75DFF23
:10AC2C00012008BD0020FCE710B5034653E8000FD7
:10AC3C0040EA010243E8002494F0000FF6D110BD65
:10AC4C0010B5034653E8002F02EA010043E8000464
:10AC5C0094F0000FF6D110BD0121FFF7E5BF0021E4
:10AC6C00FFF7EEBF10B588B1D0E9012301689B1A3C
:10AC7C00DBB20A60026813B91371184610BD116873
:10AC8C00013BDBB24C1C14600B70F3E70E20F5E7B4
:10AC9C0037B5054600240DF107008DF80740FFF786
:10ACAC00BDFE2A68696813688B420ED9591E116063
:10ACBC0013F8013C288AEC6800FB0344AB685B1A70
:10ACCC001179DBB2994238BF13719DF80700FFF779
:10ACDC00C9FE204603B030BD37B5054600230DF143
:10ACEC0007000C468DF80730FFF798FE2A681368AA
:10ACFC00591C1160EA68A41A2A8AB4FBF2F41C707D
:10AD0C009DF80700FFF7AEFE03B030BD0B68016085
:10AD1C001146184710B40468E468A44610BC604798
:10AD2C0010B404682469A44610BC604770B550B9CF
:10AD3C000E4D0F4C0026641B1423B4FBF3F4B442E9
:10AD4C0008D1002010E00368002BF1D0BDE8704062
:10AD5C00DB6918472B6813B901361435EFE7DB694B
:10AD6C00284698470028F7D070BD00BF68590020CE
:10AD7C007C590020014B43600020704790D807009D
:10AD8C000846704700207047024B1868003818BFFF
:10AD9C0001207047BC7D002008B50248FFF75FFF1B
:10ADAC00002008BDBC7D002008B510461A4602F0F4
:10ADBC0085FB002008BD00002DE9F041804686B0DF
:10ADCC0011480F4616461D46FFF746FF0446C8B904
:10ADDC00AA0831463846FFF781FB0B48FFF73FFFC7
:10ADEC00D8F8083053B101228DF800200C9A059246
:10ADFC00CDE90147CDE9036568469847204606B082
:10AE0C00BDE8F0811124F9E7BC7D00202DE9F04369
:10AE1C00814687B014480F4616469846FFF71CFF2C
:10AE2C000446F0B90546AE4215D10F48FFF717FF9F
:10AE3C00D9F808305BB102228DF800200022CDE950
:10AE4C000127CDE90326CDF81480684698472046A3
:10AE5C0007B0BDE8F08307EB0530FFF711FB0135B8
:10AE6C00E1E71124F3E700BFBC7D002029DF704728
:10AE7C0028DF704770B503689D6886B004460E469F
:10AE8C006DB114220021684602F04AFBA3680593B9
:10AE9C00237901962BB1012B0DD06846A84706B03B
:10AEAC0070BD01238DF8003023690293E36803938E
:10AEBC0063690493F1E702238DF80030E3681B0308
:10AECC000293F5E70846704700207047024B187A4A
:10AEDC00003818BF01207047C87D0020034B187A3A
:10AEEC000122B0FA80F05A7440097047C87D0020E6
:10AEFC0008B510461A4602F0E1FA002008BD000021
:10AF0C0008B514220021044802F00AFB0348FFF79D
:10AF1C0000FE002008BD00BFC87D0020DC7D0020A5
:10AF2C0010B5094C094B43602046FFF795FE48B914
:10AF3C0002F052F9064920741C2306484FF4EE72B5
:10AF4C00FFF7D4FD002010BDC87D0020BCD8070041
:10AF5C00EC7D0020DC7D002038B5224C224D237A7C
:10AF6C003BB922492248FFF72AFE286008B96060E5
:10AF7C0038BD022323722B681A7972B1012A22D0B0
:10AF8C0028680321FFF776FF0023237263601749BB
:10AF9C001748BDE83840FFF73CBED3E90520121A2C
:10AFAC00142AD3E9031328BF14229208012A01445E
:10AFBC0038BF01221844FFF759FF50B11128DFD1D7
:10AFCC0001232372D4E7D3E903031844FFF750FF9E
:10AFDC00F3E7237C002BCBD1BDE83840022000F0F6
:10AFEC0009B800BFC87D0020C47D0020C07D0020B2
:10AFFC00DC7D002038B5224C237A002B3FD0022B6D
:10B00C0009D103282ED01F4B00221B68E2601A794D
:10B01C003AB1012A20D0637C6BBBBDE83840FFF706
:10B02C009BBFD3E905128D1A142D94BF52191432FB
:10B03C009A619142EFD102284FF0000308BF1946E4
:10B04C002372104B18BF0D211868FFF713FF0E4920
:10B05C000E48FFF7DEFDDEE71A6901321A615B6903
:10B06C009A42E7E7E3680133082B01D8E360D2E7A3
:10B07C000023E360DFE7BDE8384002F09DB838BD3F
:10B08C00C87D0020C47D0020C07D0020DC7D002018
:10B09C00831E012B01D8FFF7ADBF704700F0FD03F5
:10B0AC00012B08D1044B00225A74421E50425041CD
:10B0BC001874FFF751BF7047C87D002008B50648CB
:10B0CC00FFF7CAFD30B9054B5B7C1BB9BDE80840E6
:10B0DC00FFF742BF08BD00BFCC7D0020C87D00201B
:10B0EC002DE9F34180460D46104801A916461F462E
:10B0FC00FFF731FD0446B0B117220021053002F0F4
:10B10C000FFA2D0B0123237101A90848C4F8008004
:10B11C00A760E5606661FFF747FDFFF7CFFF0020F2
:10B12C0002B0BDE8F0810420FAE700BFDC7D00200E
:10B13C002DE9F34180460F460F4801A916461D46DE
:10B14C00FFF709FD0446A8B118220021043002F0D3
:10B15C00E7F9089BA36001A9C4E903670648C4F892
:10B16C0000806561FFF720FDFFF7A8FF002002B00B
:10B17C00BDE8F0810420FAE7DC7D0020D1E9003243
:10B18C00934208BF0023016043607047436843B19A
:10B19C000268916852680B449342436004BF0023D9
:10B1AC00436070472DE9F041E8B004460E4600F1CB
:10B1BC00200118A8904600F097F918A9054620A878
:10B1CC0000F0DAF9314610A800F08EF910A920AA87
:10B1DC00084600F0C3F9214608A800F085F920AA1A
:10B1EC0008A90646684600F0B9F910A948A801F06C
:10B1FC000DFF4146074638A801F026FE38A9044643
:10B20C006A4658A801F050FE2E4348AA264358A976
:10B21C00044630A801F0AAF830A9084601F010F94C
:10B22C0048AA58A928A801F00DF930A928AA08465F
:10B23C0001F0DAF830A908461A4A01F0D5F850AAFC
:10B24C0028A860A901F092F828A9084600F062F835
:10B25C0028A930AA084601F0F5F828A9084601F0FB
:10B26C00EFF848AA28A930A801F0BEF830A958AACE
:10B27C00084601F0B9F830A9684600F05FF97A4247
:10B28C0058A9684600F018FF08A96846202201F06A
:10B29C003DF834430138204340F3000068B0BDE86A
:10B2AC00F08100BFC8D8070070B588B004460D46C1
:10B2BC0068462021164601F053F800232946204603
:10B2CC002022009301F044F82A466946684601F0B2
:10B2DC008BF832466946204600F0EEFE08B070BD91
:10B2EC000B681BBAC3614B681BBA83618B681BBAB2
:10B2FC004361CB681BBA03610B691BBAC3604B6912
:10B30C001BBA83608B691BBA4360CB691BBA0360A1
:10B31C00704700BF70B598B00C46054610A801F0F8
:10B32C008FF8224610A9684601F08CF8694610A8DF
:10B33C0001F086F810A9084601F082F86A4610A9B7
:10B34C0008A801F07FF808A910A801F079F810A955
:10B35C00084601F075F810A9084601F071F810A91B
:10B36C00084601F06DF810A908AA084601F06AF821
:10B37C0010A9084601F064F810A9084601F060F81D
:10B38C0010A96A4608A801F05DF8052608A910A8BE
:10B39C0001F056F810A9084601F052F8013E10A928
:10B3AC00F5D108AA084601F04DF8052610A9084663
:10B3BC0001F046F810A9084601F042F8013EF5D11B
:10B3CC0010A908AA084601F03DF810A908A801F038
:10B3DC0037F808A9084601F033F808A96A46684608
:10B3EC0001F030F81026694610A801F029F810A9D0
:10B3FC00084601F025F8013E10A9F5D12246084671
:10B40C0001F020F8402610A9084601F019F810A9FF
:10B41C00084601F015F8013EF5D110A96A46084618
:10B42C0001F010F8102610A9084601F009F810A92F
:10B43C00084601F005F8013EF5D110A96A46084608
:10B44C0001F000F8102610A9084600F0F9FF10A929
:10B45C00084600F0F5FF013EF5D110A908AA0846F0
:10B46C0000F0F0FF224610A9284600F0EBFF18B0C0
:10B47C0070BD00BF2DE9F0431446A1B007468946C4
:10B48C0068462146164ADFF85C8000F061FE08A988
:10B49C002246084600F064FD08A9424610A800F0B8
:10B4AC0057FE494610AA38462568189E00F078FDCC
:10B4BC00AE1B394642460546384600F071FD751BF9
:10B4CC002D1AEA434146D20F384600F0B7FD4146EB
:10B4DC00421B384600F084FD21B0BDE8F08300BF6C
:10B4EC00E8D8070008D9070070B50B68124E1BBAD4
:10B4FC00C3614B681BBA83618B681BBA4361CB6811
:10B50C001BBA03610B691BBAC3604B691BBA83601E
:10B51C008B691BBA4360CB691BBA03603246014688
:10B52C00044600F03DFD0546314620462A4600F013
:10B53C0057FD681E70BD00BF08D9070038B5064D11
:10B54C002A46044600F02CFD294602462046BDE85A
:10B55C00384000F045BD00BF08D9070010B590B0C9
:10B56C000446684600F0F4FD2046694608AAFFF739
:10B57C0081FF10B010BD00BFF0B5A1B00A46044663
:10B58C0010A80D4600F0E4FD10A918AA08A8FFF7B2
:10B59C0071FF2A4608A910A800F0DAFD18AA10A914
:10B5AC006846FFF767FF6A46694610A800F0D0FDB1
:10B5BC0018AA10A908A8FFF75DFF08AA114610A841
:10B5CC0000F0C6FD18AA10A908A8FFF753FF6A4699
:10B5DC0008A910A800F0BCFD18AA10A96846FFF72E
:10B5EC0049FF6A46694610A800F0B2FD18AA10A9D6
:10B5FC0008A8FFF73FFF08AA114610A800F0A8FD05
:10B60C0018AA10A908A8FFF735FF08AA114610A818
:10B61C0000F09EFD18AA10A908A8FFF72BFF08AA96
:10B62C00114610A800F094FD18AA10A908A8FFF75D
:10B63C0021FF6A4608A910A800F08AFD18AA10A9D3
:10B64C006846FFF717FF02266A4600E001261146FE
:10B65C0010A800F07DFD18AA10A908A8FFF70AFF92
:10B66C0008AA114610A800F073FD18AA10A908A882
:10B67C00FFF700FF08AA114610A800F069FD18AAF0
:10B68C0010A908A8FFF7F6FE08AA114610A800F0AA
:10B69C005FFD18AA10A908A8FFF7ECFE012E08AA56
:10B6AC00D4D16A4608A910A800F052FD18AA10A916
:10B6BC006846FFF7DFFE04266A46114610A800F024
:10B6CC0047FD18AA10A908A8FFF7D4FE08AA11462E
:10B6DC0010A800F03DFD18AA10A908A8FFF7CAFE93
:10B6EC0008AA114610A800F033FD18AA10A908A842
:10B6FC00FFF7C0FE08AA114610A800F029FD18AAF1
:10B70C0010A908A8FFF7B6FE013E08AAD5D16A46D3
:10B71C0008A910A800F01CFD18AA10A96846FFF78C
:10B72C00A9FE10266A46114610A800F011FD18AAB1
:10B73C0010A908A8FFF79EFE08AA114610A800F051
:10B74C0007FD18AA10A908A8FFF794FE08AA11462D
:10B75C0010A800F0FDFC18AA10A908A8FFF78AFE93
:10B76C0008AA114610A800F0F3FC18AA10A908A802
:10B77C00FFF780FE013E08AAD5D16A4608A910A899
:10B78C0000F0E6FC18AA10A908A8FFF773FE08261B
:10B79C0008AA114610A800F0DBFC18AA10A908A8EA
:10B7AC00FFF768FE08AA114610A800F0D1FC18AAF1
:10B7BC0010A908A8FFF75EFE08AA114610A800F011
:10B7CC00C7FC18AA10A908A8FFF754FE08AA11462E
:10B7DC0010A800F0BDFC18AA10A908A8FFF74AFE93
:10B7EC00013ED5D16A4608A910A800F0B1FC18AAF0
:10B7FC0010A92046FFF73EFE3E4F202601E0013EF9
:10B80C0019D02246214610A800F0A2FC18AA10A9B3
:10B81C002046FFF72FFE002F4FEA4707EFDA2A46A4
:10B82C00214610A800F094FC18AA10A92046FFF796
:10B83C0021FE013EE5D1304F202601E0013E19D01A
:10B84C002246214610A800F083FC18AA10A9204615
:10B85C00FFF710FE002F4FEA4707EFDA2A46214682
:10B86C0010A800F075FC18AA10A92046FFF702FEDC
:10B87C00013EE5D1214F202601E0013E19D02246A0
:10B88C00214610A800F064FC18AA10A92046FFF766
:10B89C00F1FD002F4FEA4707EFDA2A46214610A8A0
:10B8AC0000F056FC18AA10A92046FFF7E3FD013E54
:10B8BC00E5D1134F202601E0013E19D02246214646
:10B8CC0010A800F045FC18AA10A92046FFF7D2FDDD
:10B8DC00002F4FEA4707EFDA2A46214610A800F05E
:10B8EC0037FC18AA10A92046FFF7C4FD013EE5D18C
:10B8FC0021B0F0BDADFAE6BC849E17A7C2CAB9F35D
:10B90C004F2563FC2DE9F04F9BB03F2A019240F28A
:10B91C00A880A2F14006054626F03F060C464036AC
:10B92C00D0E90001D5E90229D5E9048ED5E906C391
:10B93C00A6190096D4F800A06768A668D4F828B0B9
:10B94C0002900391E06821690492CDF81490626929
:10B95C00D4F81890CDF81880CDF81CE0D4F81C80E1
:10B96C00D4F820E0CDF820C00993D4F824C0E36AC1
:10B97C009EFA8EFE3FBA36BA00BA09BA12BA99FAD2
:10B98C0089F998FA88F89CFA8CFC1BBA9AFA8AFA0C
:10B99C009BFA8BFBCDE912ECCDE90C60CDE90E12D4
:10B9AC00CDE91098CDE90AA7CDE914B3D4F830C08D
:10B9BC00676BA66BE36B2D489CFA8CFC1BBA02AA36
:10B9CC000AA93FBA36BACDE916C7CDE9186300F01B
:10B9DC00FFFE0AA801F022F802AA0AA9244800F0E6
:10B9EC00F7FE0AA801F01AF802AA0AA9214800F0E9
:10B9FC00EFFE0AA801F012F81F4802AA0AA900F0EB
:10BA0C00E7FE6E68AA68049B03992F68029831447C
:10BA1C001A44059EEB68696003EB06092B69069EC8
:10BA2C0003EB06086B69EE699C46079B38440CEBEC
:10BA3C00030EAF69089B286007EB030C099B33448A
:10BA4C00009E4034B442C5E90229C5E9048EC5E91B
:10BA5C0006C37FF46FAF019B03F03F001BB0BDE842
:10BA6C00F08F10461BB0BDE8F08F00BF28D907003F
:10BA7C0068D90700A8D90700E8D907002DE9F041DB
:10BA8C0080468E68CD680C6948698A69CB69D1F8A3
:10BA9C0000C04F689AB036BA2DBA24BA00BA12BA9E
:10BAAC001BBA0C960D95D8F80460D8F808500E9473
:10BABC000F90D8F80C40D8F8100010921193D8F8C9
:10BACC001420D8F8183003960495D8F81C60D8F8D0
:10BADC00005009969CFA8CFC3FBACDE90AC7CDE917
:10BAEC000540CDE907230295086B8A6B354CD1F8DC
:10BAFC0020E0D1F824C08F6ACE6A4D6BCB6B00BAB4
:10BB0C0011BA9EFA8EFE9CFA8CFC1BBA02AA1690F5
:10BB1C00189120460AA93FBA36BA2DBA1993CDE925
:10BB2C0012ECCDE91476179500F052FE0AA800F03D
:10BB3C0075FF02AA0AA904F1400000F049FE0AA808
:10BB4C0000F06CFF02AA0AA904F1800000F040FE8C
:10BB5C000AA800F063FF02AA0AA904F1C00000F0D1
:10BB6C0037FED8E90041D8F80C30039F0193029BB3
:10BB7C00D8F80860049A059DD8F8100039441C4484
:10BB8C00C8F80410019B0699079FC8F8004032447E
:10BB9C00D8F81460D8F81840C8F808202B4408448A
:10BBAC00089DD8F81C10099AC8F80C303E44C8E916
:10BBBC0004062C4411440020C8E906411AB0BDE823
:10BBCC00F08100BF28D9070030B40A490A4C0B4A4F
:10BBDC000B4B0C4D046041600B4C0C4982600C4AC1
:10BBEC00C3600023C0E90454C0E9061230BCC0E9AC
:10BBFC001833704785AE67BB67E6096A72F36E3C13
:10BC0C003AF54FA57F520E518C68059BABD9831F1B
:10BC1C0019CDE05B2DE9F843D0E9185313440746DE
:10BC2C00144688464366F5B13F2D00F2A980DAB17F
:10BC3C0005F12006C5F14009064489440B4602E093
:10BC4C00002C00F084800133A3EB080213F8011CD4
:10BC5C0006F8011B4B4504F1FF342A44F0D1402A6D
:10BC6C0079D01546C84614B93D66BDE8F88322461E
:10BC7C0041463846FFF746FE221A05464244002844
:10BC8C00F2D0231D1B1A434407F1200107F12400B5
:10BC9C00824238BF994269D36B1E072B66D9136851
:10BCAC003B6253687B62AB08022B35D09168B9625A
:10BCBC00032B31D0D168F962042B2DD01169396373
:10BCCC00052B29D051697963062B25D09169B9636D
:10BCDC00072B21D0D169F963082B1DD0116A396467
:10BCEC00092B19D0516A79640A2B15D0916AB96461
:10BCFC000B2B11D0D16AF9640C2B0DD0116B39655B
:10BD0C000D2B09D0516B79650E2B05D0916BB96554
:10BD1C000F2B1CBFD36BFB6525F003039D4202EB7D
:10BD2C000300A1D0D45CF9185A1C954281F820402C
:10BD3C009AD93A440233417882F820109D4293D923
:10BD4C003B44827883F820203D66BDE8F883154695
:10BD5C003D66BDE8F88307F120013846FFF78EFEFB
:10BD6C00C8460546002C3FF47FAF80E7444407F1FA
:10BD7C001F0312F8011B03F8011FA242F9D173E74C
:10BD8C002A4689466BE700BFF0B5026E83B0531CA0
:10BD9C00009181180446382B4FF08000009D81F8EB
:10BDAC0020007AD804F12001C3F13A02022AC3F12F
:10BDBC003B0C33D903F120074FEA9C020020012AE7
:10BDCC00E05104EB070624D0022A706021D0032A2C
:10BDDC00B0601ED0042AF0601BD0052A306118D048
:10BDEC00062A706115D0072AB06112D0082AF061BA
:10BDFC000FD0092A30620CD00A2A706209D00B2AA3
:10BE0C00B06206D00C2AF06203D00E2A306308BF51
:10BE1C0070632CF003026245134411D0E218002029
:10BE2C003A2B82F8200003F1010209D02244392B6D
:10BE3C0003F1020682F8200002D0264486F8200086
:10BE4C00636E580F5A0D84F85B0084F85C20580B15
:10BE5C005A09DB0084F85D0084F85F3084F85E20BA
:10BE6C002046FFF70BFE23681BBA2B6063681BBAD6
:10BE7C006B60A3681BBAAB60E3681BBAEB60236909
:10BE8C001BBA2B6163691BBA6B61A3691BBAAB61EB
:10BE9C00E3691BBAEB6103B0F0BD3F2B2AD82344F6
:10BEAC0000213E2A83F8201002F1020322D0234401
:10BEBC003D2A02F1030083F820101BD020443C2AB9
:10BECC0002F1040380F8201014D023443B2A02F121
:10BEDC00050083F820100DD020443A2A02F1060305
:10BEEC0080F8201006D02344382A83F8201001D182
:10BEFC0084F85F1004F1200120460191FFF7BEFD8C
:10BF0C003A280199009003467FF64EAF98E700BFA0
:10BF1C0070B491E87800B2E802105B1854EB0C0492
:10BF2C00B2E802104D4156EB0C0680E878008041D7
:10BF3C00013070BC704700BF70B491E87800B2E873
:10BF4C0002105B1A74EB0C04B2E802108D4176EB14
:10BF5C000C0680E878008041404270BC704700BFFE
:10BF6C002DE9F00791E8F807B2E802105B1854EBE2
:10BF7C000C04B2E802104D4156EB0C06B2E802106C
:10BF8C004F4158EB0C08B2E8021059EB01095AEB7F
:10BF9C000C0A80E8F80780410130BDE8F0077047D3
:10BFAC002DE9F00791E8F807B2E802105B1A74EB80
:10BFBC000C04B2E802108D4176EB0C06B2E80210CC
:10BFCC008F4178EB0C08B2E8021079EB01097AEB9F
:10BFDC000C0A80E8F80780414042BDE8F007704742
:10BFEC002DE9F007524290E87800B1E8800717403D
:10BFFC00DB1918EA020854EB080419EA020955EB9C
:10C00C0009051AEA020A56EB0A0678C090E878008D
:10C01C00B1E8800717407B4118EA020854EB08048A
:10C02C0019EA020955EB09051AEA020A56EB0A0647
:10C03C0078C080410130BDE8F00770472DE9F0076A
:10C04C00524290E87800B1E880071740DB1B18EAF1
:10C05C00020874EB080419EA020975EB09051AEADF
:10C06C00020A76EB0A0678C090E87800B1E88007FF
:10C07C001740BB4118EA020874EB080419EA0209DC
:10C08C0075EB09051AEA020A76EB0A0678C08041BC
:10C09C004042BDE8F007704790E8300091E8C000DE
:10C0AC00A31B1340E41AF618EB1B1340ED1AFF18F0
:10C0BC0030C0C0C1704700BFF0B55242FFF7ECFF73
:10C0CC00FFF7EAFFFFF7E8FFFFF7E6FFF0BD00BF61
:10C0DC002DE9F0073AC91668A1FB069A4FF0000C3F
:10C0EC00E3FB06AC4FF00007E4FB06C74FF000087B
:10C0FC00E5FB067840F8049B56684FF00009E1FB1D
:10C10C0006A9E3FB66C9E4FB6679E5FB668940F8A2
:10C11C0004AB96684FF0000AE1FB06CAE3FB667AB3
:10C12C00E4FB668AE5FB669A40F804CBD6684FF0D0
:10C13C00000CE1FB067CE3FB668CE4FB669CE5FBF8
:10C14C0066AC80E88017BDE8F00770470A4600BF70
:10C15C002DE9F04F40EC171A92EC080A1EC910EEAC
:10C16C00100AA1FB00784FF00009E2FB00894FF0A8
:10C17C00000AE3FB009A4FF0000BE4FB00AB12EE5D
:10C18C00100A4FF0000CE1FB00BC4FF0000EE2FB7C
:10C19C0000CE4FF00005E3FB00E54FF00006E4FB9A
:10C1AC00005604EE107A10EE900A4FF00007E1FBF7
:10C1BC000087E2FB6097E3FB60A7E4FB60B712EE3D
:10C1CC00900AE1FB60C7E2FB60E7E3FB6057E4FB2E
:10C1DC00606704EE908A11EE100A4FF00008E1FB44
:10C1EC000098E2FB60A8E3FB60B8E4FB60C813EEC8
:10C1FC00100AE1FB60E8E2FB6058E3FB6068E4FBDB
:10C20C00607805EE109A11EE900A4FF00009E1FBF0
:10C21C0000A9E2FB60B9E3FB60C9E4FB60E913EE43
:10C22C00900AE1FB6059E2FB6069E3FB6079E4FB97
:10C23C00608905EE90AA17EE101A01F110011EC9C3
:10C24C0010EE100A4FF0000AE1FB00BAE2FB60CAE4
:10C25C00E3FB60EAE4FB605A12EE100AE1FB606A51
:10C26C00E2FB607AE3FB608AE4FB609A06EE10BAAC
:10C27C0010EE900A4FF0000BE1FB00CBE2FB60EB01
:10C28C00E3FB605BE4FB606B12EE900AE1FB607B0E
:10C29C00E2FB608BE3FB609BE4FB60AB06EE90CAB9
:10C2AC0011EE100A4FF0000CE1FB00ECE2FB605CBD
:10C2BC00E3FB606CE4FB607C13EE100AE1FB608C2A
:10C2CC00E2FB609CE3FB60ACE4FB60BC07EE10EAB5
:10C2DC0011EE900A4FF0000EE1FB005EE2FB606E87
:10C2EC00E3FB607EE4FB608E13EE900AE1FB609E44
:10C2FC00E2FB60AEE3FB60BEE4FB60CE17EE900A9F
:10C30C00A0EC074A80E8E05FBDE8F08F30B44FF056
:10C31C00000310F8014B11F8015B013A84EA0504A3
:10C32C0043EA0403F5D1A3F101034FEAD37030BC07
:10C33C00704700BF4FF0000310F8012B013943EA9E
:10C34C000203F9D1A3F101034FEAD370704700BF88
:10C35C0011F8013B00F8013B013AF9D1704700BFDD
:10C36C00002200F8012B0139FBD170472DE9F007B1
:10C37C0091E8F807B2E802105B1854EB0C04B2E831
:10C38C0002104D4156EB0C06B2E802104F4158EB2F
:10C39C000C08B2E8021059EB01095AEB0C0A89415E
:10C3AC00B3F1FF3374F1FF3475F1FF3576F100060C
:10C3BC0077F1000778F1000879F101097AF1FF3A79
:10C3CC0051F100015B184C414D4156F1000657F1FB
:10C3DC00000758F1000859EBD1795AEB010A80E8B3
:10C3EC00F807BDE8F00770472DE9F00791E8F8076A
:10C3FC00B2E802105B1A74EB0C04B2E802108D4127
:10C40C0076EB0C06B2E802108F4178EB0C08B2E820
:10C41C00021079EB01097AEB0C0A89415B184C414B
:10C42C004D4156F1000657F1000758F1000859EB41
:10C43C00D1795AEB010A80E8F807BDE8F00770479C
:10C44C000A4600BF2DE9F04F40EC171A92EC080A8F
:10C45C001EC910EE100AA1FB00784FF00009E2FB98
:10C46C0000894FF0000AE3FB009A4FF0000BE4FB4D
:10C47C0000AB12EE100A4FF0000CE1FB00BC4FF0C9
:10C48C00000EE2FB00CE4FF00005E3FB00E54FF0A1
:10C49C000006E4FB005604EE107A10EE900A4FF002
:10C4AC000007E1FB0087E2FB6097E3FB60A7E4FB7E
:10C4BC0060B712EE900AE1FB60C7E2FB60E7E3FBBA
:10C4CC006057E4FB606704EE908A11EE100A4FF09F
:10C4DC000008E1FB0098E2FB60A8E3FB60B8E4FB1A
:10C4EC0060C813EE100AE1FB60E8E2FB6058E3FB66
:10C4FC006068E4FB607805EE109A11EE900A4FF03C
:10C50C000009E1FB00A9E2FB60B9E3FB60C9E4FBB5
:10C51C0060E913EE900AE1FB6059E2FB6069E3FB12
:10C52C006079E4FB608905EE90AA17EE101A01F110
:10C53C0010011EC910EE100A4FF0000AE1FB00BA00
:10C54C00E2FB60CAE3FB60EAE4FB605A12EE100AFD
:10C55C00E1FB606AE2FB607AE3FB608AE4FB609AD1
:10C56C0006EE10BA10EE900A4FF0000BE1FB00CB78
:10C57C00E2FB60EBE3FB605BE4FB606B12EE900AAA
:10C58C00E1FB607BE2FB608BE3FB609BE4FB60AB5D
:10C59C0006EE90CA11EE100A4FF0000CE1FB00EC15
:10C5AC00E2FB605CE3FB606CE4FB607C13EE100A66
:10C5BC00E1FB608CE2FB609CE3FB60ACE4FB60BCE9
:10C5CC0007EE10EA11EE900A4FF0000EE1FB005E50
:10C5DC00E2FB606EE3FB607EE4FB608E13EE900A80
:10C5EC00E1FB609EE2FB60AEE3FB60BEE4FB60CE71
:10C5FC0053EC162A17EE104A12EB0A0253EB0B03FC
:10C60C0054EB0C0455EB0E05002040F1000012EB2E
:10C61C000B0253EB0C0354EB0E0455EB0E05464189
:10C62C000020474158EB000859EB0A0940F1000083
:10C63C00B2EB0E0273F1000374F1000475EB0A0502
:10C64C0076EB0B0677EB0C0778EB0A0879EB0C0909
:10C65C0060F10000B5EB0B0576EB0C0677EB0E07E3
:10C66C0078EB0B0879EB0E0960F100006FEAE07AC9
:10C67C00B2EB0A0273EB0A0374EB0A0475F10005C2
:10C68C0076F1000677F1000778EBDA7879EB0A0996
:10C69C0060F100004FEAE07A12EB0A0253EB0A0356
:10C6AC0054EB0A0455F1000556F1000657F100074A
:10C6BC0058EBDA7859EB0A0940F100004FEAE07ABE
:10C6CC0012EB0A0253EB0A0354EB0A0455F1000572
:10C6DC0056F1000657F1000758EBDA7859EB0A09C6
:10C6EC005BEC14AA51EC150A1AEB060A5BEB070B70
:10C6FC0050EB080051EB09015FF0000C4CF1000C01
:10C70C001AEB070A5BEB080B50EB090051EB090124
:10C71C0052EB0C025FF0000C53EB0C0354EB0C04CB
:10C72C0075414CF1000CBAEB090A7BF1000B70F16E
:10C73C000000B141BA4173EB0803B44175EB080535
:10C74C006CF1000CC91B72EB080273EB0903BC41C2
:10C75C0075EB09056CF1000C6FEAEC76BAEB060A86
:10C76C007BEB060BB04171F1000172F1000273F129
:10C77C00000374EBD674B5416CF1000C4FEAEC7607
:10C78C001AEB060A5BEB060B704151F1000152F1FA
:10C79C00000253F1000354EBD67475414CF1000CBC
:10C7AC004FEAEC761AEB060A5BEB060B704151F183
:10C7BC00000152F1000253F1000354EBD6747541A1
:10C7CC0017EE907AA7E8000C87E83F00BDE8F08FE1
:10C7DC002DE9F04F92E8F00F4FF0020E88EA781C2A
:10C7EC008CEAF84C0BEBBC1C8AEA090303EA08033D
:10C7FC0083EA0A039C4450F8043B9C4451F8043BE4
:10C80C009C44674444EA050B0BEA060B04EA050357
:10C81C004BEA030BE34484EAF42383EA34530BEB33
:10C82C00B30B87EA771C8CEAF74C0AEBBC1C89EA41
:10C83C00080303EA070383EA09039C4450F8043B0A
:10C84C009C4451F8043B9C4466444BEA040A0AEAB3
:10C85C00050A0BEA04034AEA030AE2448BEAFB23C7
:10C86C0083EA3B530AEBB30A86EA761C8CEAF64C55
:10C87C0009EBBC1C88EA070303EA060383EA0803F6
:10C88C009C4450F8043B9C4451F8043B9C44654444
:10C89C004AEA0B0909EA04090AEA0B0349EA030903
:10C8AC00E1448AEAFA2383EA3A5309EBB30985EAAD
:10C8BC00751C8CEAF54C08EBBC1C87EA060303EAF2
:10C8CC00050383EA07039C4450F8043B9C4451F84D
:10C8DC00043B9C44644449EA0A0808EA0B0809EA48
:10C8EC000A0348EA0308E04489EAF92383EA395346
:10C8FC0008EBB30884EA741C8CEAF44C07EBBC1C00
:10C90C0086EA050303EA040383EA06039C4450F811
:10C91C00043B9C4451F8043B9C44E34448EA09071B
:10C92C0007EA0A0708EA090347EA0307674488EAA3
:10C93C00F82383EA385307EBB3078BEA7B1C8CEAAA
:10C94C00FB4C06EBBC1C85EA040303EA0B0383EAED
:10C95C0005039C4450F8043B9C4451F8043B9C4414
:10C96C00E24447EA080606EA090607EA080346EA2B
:10C97C000306664487EAF72383EA375306EBB306CC
:10C98C008AEA7A1C8CEAFA4C05EBBC1C84EA0B0391
:10C99C0003EA0A0383EA04039C4450F8043B9C44D6
:10C9AC0051F8043B9C44E14446EA070505EA0805B6
:10C9BC0006EA070345EA0305654486EAF62383EA9B
:10C9CC00365305EBB30589EA791C8CEAF94C04EB78
:10C9DC00BC1C8BEA0A0303EA090383EA0B039C449D
:10C9EC0050F8043B9C4451F8043B9C44E04445EA19
:10C9FC00060404EA070405EA060344EA0304644453
:10CA0C0085EAF52383EA355304EBB304BEF1010E3A
:10CA1C007FF4E4AE82E8F00FBDE8F08F2DE9F04F23
:10CA2C0090E8FC03D0E9091CD0E90EAB0A444FEAAC
:10CA3C007A4E8EEAFA4E8EEA9A2E72444FEAF31E22
:10CA4C008EEAB34E8EEAD30E724463444FEA7B4EA9
:10CA5C008EEAFB4E8EEA9B2E73444FEAF41E8EEA4E
:10CA6C00B44E8EEAD40E7344D0E90B1A0C444FEA40
:10CA7C00724E8EEAF24E8EEA922E74444FEAF51EF6
:10CA8C008EEAB54E8EEAD50E744455444FEA734E79
:10CA9C008EEAF34E8EEA932E75444FEAF61E8EEA1A
:10CAAC00B64E8EEAD60E7544D0E90DEA76444FEABE
:10CABC00744E8EEAF44E8EEA942E76444FEAF71EAC
:10CACC008EEAB74E8EEAD70E764457444FEA754E2F
