:020000022000DC
:106000000000012019620200016202000362020026
:10601000056202000762020009620200000000003F
:106020000000000000000000000000000B62020001
:106030000D620200000000000F6202001162020007
:10604000D10D030013620200A51C0300ED3603000E
:106050001362020013620200A11B0300152103005A
:106060001362020013620200136202001362020054
:106070001362020013620200136202001362020044
:10608000E138030049490300136202001362020071
:1060900013620200136202007D64030013620200B7
:1060A0001362020013620200136202001362020014
:1060B00013620200136202000000000000000000F2
:1060C00013620200136202001362020013620200F4
:1060D000136202001362020013620200000000005B
:1060E00000000000000000000000000000000000B0
:1060F00000000000000000000000000000000000A0
:10610000000000000000000000000000000000008F
:10611000000000000000000000000000000000007F
:10612000000000000000000000000000000000006F
:10613000000000000000000000000000000000005F
:10614000000000000000000000000000000000004F
:10615000000000000000000000000000000000003F
:10616000000000000000000000000000000000002F
:10617000000000000000000000000000000000001F
:10618000000000000000000000000000000000000F
:1061900000000000000000000000000000000000FF
:1061A00000000000000000000000000000000000EF
:1061B00000000000000000000000000000000000DF
:1061C00000000000000000000000000000000000CF
:1061D00000000000000000000000000000000000BF
:1061E00000000000000000000000000000000000AF
:1061F000000000000000000000000000000000009F
:10620000FEE7FEE7FEE7FEE7FEE7FEE7FEE7FEE766
:10621000FEE7FEE700F002B8FFF7FCBF0F484FF0C3
:106220000701884385460E4880470E48016841F4BF
:1062300070010160BFF34F8FBFF36F8F00F01AB88A
:1062400009480A490A4A884207D0521A05D00378F9
:1062500001300B700131013AF9D170470000012083
:10626000C1BA020088ED00E010750300C8390020B3
:10627000DC39002039493A480A1A02D007229143F2
:106280008D46384938480A1A06D00722914381F3CF
:106290000988022282F3148834483549354A00F0CF
:1062A0003EF835483549364A00F039F83548364920
:1062B000364A00F034F836483649374A00F02FF8AD
:1062C00036483749374A00F02AF837483749384ABC
:1062D00000F025F837483849384A00F020F83848A7
:1062E0003849002200F033F837483849002200F0DE
:1062F0002EF837483749091A10F053FE364A9047AE
:1063000024482549884205D00268043003B49047E8
:1063100003BCF7E700200021304A9047FEE788429F
:1063200014D0521A12D003460B43134303242342C2
:1063300006D1036804300B600431043AF9D1704788
:10634000037801300B700131013AF9D1704788426E
:1063500002D002700130FAE770470000000001200F
:1063600000F4002000000120000001202C7903002F
:10637000DC3900208C450020E0630200E06302006D
:10638000367403002C790300DC390020DC3900204E
:10639000247503002475030024750300247503008D
:1063A000247503002475030024750300247503007D
:1063B0002A790300DC8403008C4500208C450020F2
:1063C0008C4500201452002014520020145200204A
:1063D00014520020145E00204162020089AC0200C9
:1063E000024B0022C3F8002500BF70470070004038
:1063F00082B003468DF80730114B1B789DF80720BB
:106400009A420BD99DF807300D4A12789B1A012B3E
:1064100010DD0B4A9DF8073013700BE0084B1B781A
:106420001A469DF80730D31A012B03DD044A9DF864
:1064300007301370024B1B78184602B0704700BF3C
:106440009845002084B00346ADF80630BDF806300C
:1064500041F26702934201D9642319E0BDF8063086
:1064600040F64852934201D8002311E0BDF80630AF
:10647000A3F64853642202FB03F303F5C873064AEC
:1064800082FB03121212DB17D31A0393039BDBB2B6
:10649000184604B0704700BF1F85EB51014B1B68C5
:1064A0001846704794450020014B1B6818467047FA
:1064B0009045002000B587B0019000F0B9F80DF1CB
:1064C0000E03194600200CF09BF80590BDF90E2034
:1064D000164B1A80059B002B1ED1144B1B881BB238
:1064E0001A464FF4166302FB03F3114AA2FB03237F
:1064F0005B0A0493049B5B000E4A13600D4B1B6800
:106500009BB21846FFF79EFF03461846FFF770FF41
:1065100003461A46084B1A6000F072F8034B1B88BA
:106520001BB29BB2184607B000BD00BF8C450020CF
:1065300081808080944500209045002000B585B082
:106540000190019B1B78002B0CD1019B5B68B3F978
:106550000020064B1A80019B5B68012118460CF055
:10656000EFF8039000BF05B000BD00BF8C450020D0
:1065700082B001904FF0A043184602B0704700B5BA
:1065800085B00190084611461A4603468DF803303F
:106590000B468DF8023013468DF8013001AB1846DA
:1065A000FFF7E6FF03909DF803209DF802305B00A3
:1065B0001A439DF801309B001A439DF818301B02C6
:1065C00042EA03019DF81C301B04019A1943039B06
:1065D00002F5E07243F8221000BF05B000BD00B51F
:1065E00085B0039000230193002300930023012230
:1065F00000210398FFF7C3FF00BF05B000BD0000F6
:1066000008B5FFF7EDFE0BF011FF074B0022C3F8B2
:106610000025064B00221A60044B1B680220FFF77E
:10662000DEFF00BF08BD00BF00700040FC7F0040DF
:1066300000B589B01D4B1B68049300238DF81330FF
:106640001B4B0122C3F800251A4B01221A60194B7B
:106650001B6804AB184918460BF088FE0790079B8F
:106660000693069B002B02D006980DF0DCF9134A26
:1066700001AB07CA03C31A7000238DF80730022349
:106680008DF8063005238DF8083001AB194600203F
:106690000BF018FF0790079B0593059B002B02D07A
:1066A00005980DF0C0F900BF09B000BD24750300C6
:1066B00000700040FC7F00403D650200287503002B
:1066C00000B585B001900B46ADF8023013468DF849
:1066D0000130019B0393012004F008F9BDF802305A
:1066E000132B45D9039B1B78F02B32D0F02B41DCC8
:1066F000302B31D0302B3DDC212B20D0212B39DC2D
:10670000202B0ED0202B35DC182B2DD0182B31DC74
:10671000172B25D0172B2DDC122B09D0142B14D0BE
:1067200028E09DF901301946039800F0F3F822E0C3
:106730009DF901301946039800F02CF81BE00398EE
:1067400000F03CF901F054F815E0039800F052F91C
:1067500011E000F03DFE0EE0039803F001F80AE0BE
:10676000039802F085FB06E0039800F059FE02E072
:1067700000BF00E000BF05B000BD000082B0019086
:10678000034B1B680133024A136000BF02B070471D
:10679000A045002000B58BB001900B468DF803306A
:1067A00004AB14220021184610F0E6FC13238DF8E8
:1067B0001030FFF779FE03468DF82730234B1B6816
:1067C000CDF811309DF827308DF81530FFF766FEB3
:1067D00003461F4AA2FB03235B098DF826309DF870
:1067E00026308DF8163001238DF8173001238DF8EF
:1067F000183002238DF819309DF803308DF81A30C7
:106800009DF82630222B07D89DF81B30022262F318
:1068100001038DF81B3011E09DF82730272B07D896
:106820009DF81B30012262F301038DF81B3005E057
:106830009DF81B3023F003038DF81B3004AB1421AB
:10684000184603F0C5FF00BF0BB000BDA0450020F7
:106850001F85EB5100B589B001900B468DF80330D0
:1068600003AB14220021184610F086FC16238DF885
:106870000C3001238DF80D3003AB1421184603F0C2
:10688000A7FF00BF09B000BD00B58BB0019003ABFE
:1068900014220021184610F06FFC11238DF80C30E3
:1068A000194B1B88DBB28DF80D3003AB184603F093
:1068B00035F903468DF8273003AB1421184603F051
:1068C00087FF0890089B002B03D0104B00221A7002
:1068D00018E09DF82730002B03D00B4B1B88FF2BB3
:1068E00003D10A4B00221A700CE0074B1B880133BE
:1068F0009AB2054B1A80064B00224FF400511846FD
:106900000DF0E0FB0BB000BD9A4500209C45002037
:10691000E039002000B58BB001900B468DF80330B4
:1069200002F0ECFF099000F09FFC089002AB1422EB
:106930000021184610F020FC03F066F910238DF8B2
:10694000083003F01FF80346CDF80930DDF80930B0
:10695000642B03D964238DF80D3004E0DDF8093091
:10696000DBB28DF80D30124B1B7883F00103DBB2E4
:10697000002B19D002AB1421184603F029FF079011
:10698000079B002B10D19DF80D30002B0CD0094B2C
:1069900000221A80064B01221A70074B00224FF486
:1069A000005118460DF08EFB00BF0BB000BD00BFBC
:1069B0009C4500209A450020E039002000B585B0B4
:1069C000019002F09BFF0390019B5B781A46044BF9
:1069D0001B889A4201D103F00DF900BF05B000BD3C
:1069E0009A45002000B583B0019004F0ADFC00BFD3
:1069F00003B000BD00B58BB0019003AB14220021A1
:106A0000184610F0B9FB15238DF80C3001238DF8D2
:106A10000D30FFF749FD0990099B222B07D9019BF7
:106A20005B78012B03D100238DF80E3002E00123A7
:106A30008DF80E3003AB1421184603F0C9FE089000
:106A4000089B002B0AD19DF80E30002B06D1054B78
:106A5000002240F6CD4118460DF034FB00BF0BB0CC
:106A600000BD00BF003A002000B583B0114A0021EC
:106A700011480DF001FB0190104A002110480DF063
:106A8000FBFA01900F4A01210F480DF0F5FA019031
:106A90000E4B00224FF4804118460DF013FB019B72
:106AA0000093009B002B02D000980CF0BCFF00BFAD
:106AB00003B000BD8968020034750300E569020077
:106AC000387503007D6702003C750300203A002002
:106AD00076DF704700BF18468BDF704700BF18464F
:106AE0008CDF704700BF184600B583B00190019954
:106AF000024809F0F3FC00BF03B000BDA44500202C
:106B000000B585B06B4608220021184610F034FB12
:106B1000094B0093094B01936B46184607F0D4FDCF
:106B20000390039B0293029B002B02D002980CF06F
:106B30007AFF00BF05B000BDE96A020014400020E2
:106B400000B583B00190019B132B03D001980CF08A
:106B50006AFF00E000BF03B000BD00B589B001903E
:106B6000009100238DF81B30009B1B78022B3FD037
:106B7000022B40DC002B02D0012B1ED03BE0009BFF
:106B80005988009B0E331A46019809F073FE059050
:106B9000059B0493049B002B02D004980CF043FF48
:106BA000019809F003FE0590059B0393039B002BBE
:106BB00020D003980CF037FF1CE004F035F80346B2
:106BC0008DF81B300023079302E0079B01330793E6
:106BD000009B9B891A46079B9342F6D3009B9868BB
:106BE000009B9B899DF91B201946FFF769FD02E078
:106BF00000BF00E000BF00BF09B000BD00B587B016
:106C00000B4B01930B4B02930B4B039301AB1946B8
:106C10000A4809F0F5FC0590059B0493049B002BA2
:106C200002D004980CF0FFFE00BF07B000BD00BF0B
:106C30005B6B0200416B020014400020A445002061
:106C400000B5A9B00190019B5B68229300F00CFB9A
:106C50002190019B1B78062B1AD0062B00F36E8126
:106C6000052B08D0052B00F36981032B14D0042BCE
:106C700000F0668162E1019B5B681F931F9B1E937E
:106C80001E9B002B00F05E811E980CF0CCFE59E19B
:106C9000019B5B6820935AE1019B5B681D931D9BE0
:106CA000002B00F054811D9B9B69002B00F04F814D
:106CB0001D9B9B8B002B00F04A810023ADF89E307A
:106CC0000023ADF85E300023ADF85E301D9B98695F
:106CD0001D9B998B0DF15E02092305F0B2FD034661
:106CE000ADF89E30BDF89E30002B0ED10023ADF8DC
:106CF0005E301D9B98691D9B998B0DF15E020823E8
:106D000005F09FFD0346ADF89E30BDF89E30002B88
:106D100000F01D81BDF89E301F2B00F21881BDF8D8
:106D20005E301A46BDF89E3013441D9A928B9342F2
:106D300000F30A811D9B9B69BDF85E2013441C93E0
:106D400002AB20220021184610F016FABDF89E2052
:106D500002AB1C99184610F0DDF9BDF89E30A03347
:106D60006B44002203F8982C219B20331393219B22
:106D700040331493219B60331593219B80331693EA
:106D800004231B9300238DF89D300023269349E0B4
:106D9000269B9B00A0336B4453F8543C002B3BD004
:106DA000269B9B00A0336B4453F8543C184610F0CC
:106DB00062F91A901A9B002B30D0BDF89E301A9AB7
:106DC0009A422CD8269B9B00A0336B4453F8543C2A
:106DD0001A9A19461C9810F029F90346002B1ED167
:106DE0000023ADF84A301D9B98691D9B998B0DF1CE
:106DF0004A02FF2305F025FD0346ADF866301D9BD2
:106E00009A69BDF84A30023313441B78012B0ED126
:106E100001238DF89D300AE000BF00E000BF269BF3
:106E200001332693269A1B9B9A42B1D300E000BF00
:106E30009DF89D30002B00F089801D9B0233189334
:106E400000238DF89730002324932BE04149249AA6
:106E50001346DB0013440B441B78002B1FD0249AED
:106E60001346DB0013443B4A1344D81C189B0133E0
:106E70000622194610F0DAF80346002B0FD11D9BAD
:106E800093F913003349249A1346DB0013440B444F
:106E9000013302461A7001238DF8973005E0249BD8
:106EA00001332493249B032BD0DD9DF8973083F08E
:106EB0000103DBB2002B49D0002323933AE025499C
:106EC000239A1346DB0013440B441B78002B2ED16E
:106ED0002049239A1346DB0013440B4401221A7005
:106EE000239A1346DB0013441A4A13440233072241
:106EF0001899184610F00EF90AAB20220021184606
:106F000010F03AF9BDF89E200AAB1C99184610F013
:106F100001F91D9B93F913000E49239A1346DB00D8
:106F200013440B44013302461A7000BF0EE0239B4A
:106F300001332393239B032BC1DD07E000BF06E051
:106F400000BF04E000BF02E000BF00E000BF00BFE0
:106F500029B000BD5048002000B587B001900B4615
:106F6000ADF80230019B0593124ABDF80230138040
:106F7000BDF80230002219460F4809F07BFC04904E
:106F8000049B0393039B002B02D003980CF04BFD52
:106F9000059B9B881946094807F05AFC0490049BFE
:106FA0000293029B002B02D002980CF03CFD00BF24
:106FB00007B000BD28400020A4450020403A002032
:106FC00000B585B001900B46ADF802301346ADF820
:106FD0000030BDF802301A460199044809F002FC5D
:106FE0000390039B184605B000BD00BFA4450020D8
:106FF00000B583B0084B1B884FF6FF72934207D051
:10700000054B1B8813211846FFF762FD019000E035
:1070100000BF03B000BD00BF2840002010B58AB0FB
:107020004FF0FF33099381238DF82330002307931A
:1070300024E02B49079A1346DB0013440B441B78CA
:10704000002B18D02649079A1346DB0013440B4443
:10705000013393F900309DF923209A420BDA20493D
:10706000079A1346DB0013440B4401331B788DF859
:107070002330079B0993079B01330793079B032B3F
:10708000D7DD099B002B01DA052325E004AB07229D
:107090000021184610F070F8099A1346DB001344DB
:1070A0000F4A13449A1C04AB1068186091889279B7
:1070B00099809A710B4B6C460C330FCB07C423801D
:1070C0004FF47A73ADF80630694604A80123064AE6
:1070D000FFF706FD0690069B18460AB010BD00BFDC
:1070E00050480020084800200A48002000B583B01E
:1070F000FFF7F2FC019000BF03B000BD00B583B004
:1071000024220021084810F037F8084808F029FF29
:107110000190019B0093009B002B02D000980CF083
:1071200082FC00BF03B000BD50480020084800208A
:1071300000B587B06B4600221A605A609A60DA6028
:1071400000238DF80C300B4A137B43F004031373B8
:107150006B46094A1946074808F0ABFE0590059BA7
:107160000493049B002B02D004980CF05CFC00BF3D
:1071700007B000BD08480020416C020000B585B092
:107180000190019B084A9A60019B084ADA60FFF768
:10719000B7FCFFF733FDFFF7CBFF00F065F8039076
:1071A00000BF05B000BD00BF596F0200C16F0200F3
:1071B00041DF704700BF184600B583B00190019BC6
:1071C0005B68002B03D0012001F004FD09E0019B66
:1071D0001B78012B02D0022B02D002E000BF00E09E
:1071E00000BF03B000BD86B0019000914FF6FF7361
:1071F000ADF81630002304932DE0019A049B13444C
:107200001B781BB21B021AB2BDF9163053401BB2D9
:10721000ADF816300023039317E0BDF91630002BAC
:107220000BDABDF916305B001BB283F4815383F097
:1072300001031BB2ADF8163004E0BDF816305B0058
:10724000ADF81630039B01330393039B072BE4D95E
:10725000049B01330493049A009B9A42CDD3BDF85A
:107260001630184606B07047014B1846704700BFED
:107270002C40002008B501E0FFF79AFF04480DF00C
:10728000A3FE0346002BF7D100BF00BF08BD00BF1F
:10729000C839002000B585B0019000230393019BFD
:1072A00023F47F6323F00F0302930023012202994A
:1072B00004480DF04DFE0390FFF7DCFF039B1846DA
:1072C00005B000BDC839002000B589B00590049113
:1072D0001346ADF80E3000230793059BC3F30B0351
:1072E000002B0ED100230122059912480DF030FE2B
:1072F0000790079B002B04D0012001F06BFC079B3B
:1073000014E0FFF7B7FFBDF80E3000220092049A98
:10731000059908480DF0CBFD0790079B002B02D084
:10732000012001F057FCFFF7A5FF079B184609B0A5
:1073300000BD00BFC83900202DE9F00386B00390DE
:1073400002911346ADF80630029B002B03D0BDF826
:107350000630002B01D1072333E0039BB3F5802FC8
:1073600011D3039B002298469146BDF806300022B7
:107370001E46174618EB060449EB0705134B9C42C3
:1073800075F1000301D310231BE00023ADF8163084
:1073900010E0BDF81620039B13441946BDF81630C3
:1073A000029A13440A78D2B21A70BDF8163001332B
:1073B000ADF81630BDF81620BDF806309A42E8D375
:1073C0000023184606B0BDE8F003704701700700BF
:1073D000024B01221A7000BF704700BF74480020A2
:1073E000024B01221A7000BF704700BF7548002091
:1073F00008B5094B1B78002B04D0074B00221A70EC
:1074000000F0B0F8054B1B78002B03D04FF4EC20B4
:10741000FFF740FF00BF08BD7548002074480020FA
:1074200000B585B0019000238DF80F30019B5B788B
:10743000082B70D0082B7ADC072B61D0072B76DC69
:10744000062B49D0062B72DC042B3AD0042B6EDCC1
:10745000032B2BD0032B6ADC022B1CD0022B66DC07
:10746000002B02D0012B0BD061E001238DF80F30EF
:10747000019B03332022194635480FF012FE56E0D7
:1074800001238DF80F30019B033320221946314828
:107490000FF007FE4BE001238DF80F30019B033303
:1074A000202219462C480FF0FCFD40E001238DF806
:1074B0000F30019B03332022194628480FF0F1FDBD
:1074C00035E001238DF80F30019B0333202219464C
:1074D00023480FF0E6FD2AE001238DF80F30019BD1
:1074E000B3F803309AB21A4BA3F8C020184BB3F884
:1074F000C030042B1AD8164B0522A3F8C02015E083
:1075000001238DF80F30019BB3F903301AB2104BF1
:10751000A3F8C2200BE001238DF80F30019BB3F8D4
:1075200003309AB20A4BA3F8C42000E000BF9DF8D4
:107530000F30002B08D0FFF753FF019B19221A7060
:107540001421019803F044F900BF05B000BD00BF4D
:107550002C4000204C4000206C4000208C4000203B
:10756000AC40002000B5BDB0EE210F48FFF73BFE58
:1075700003461A460C4BA3F8EE20F0220A494FF4BA
:10758000EC20FFF7A1FE6B46F02219464FF4EC20E9
:10759000FFF7D2FE6B46F022194603480FF046FD76
:1075A00000BF3DB000BD00BF2C40002000B583B03F
:1075B0000022044904480DF05EFC0190019B18462E
:1075C00003B000BD54760300C8390020BFF34F8FCD
:1075D00000BF064BDB6803F4E0620449044B13432D
:1075E000CB60BFF34F8F00BF00BFFDE700ED00E0B1
:1075F0000400FA0582B001904FF0A043184602B093
:10760000704700B585B00190084611461A460346FA
:107610008DF803300B468DF8023013468DF801309B
:1076200001AB1846FFF7E6FF03909DF803209DF895
:1076300002305B001A439DF801309B001A439DF80D
:1076400018301B0242EA03019DF81C301B04019A0A
:107650001943039B02F5E07243F8221000BF05B006
:1076600000BD00B585B00390002301930023009373
:107670000023012201210398FFF7C3FF00BF05B0DB
:1076800000BD00B585B003900B468DF80B309DF81A
:107690000B30002201920022009200220021039868
:1076A000FFF7AFFF00BF05B000BD00B585B001908A
:1076B00001AB1846FFF79EFF0390019B012202FADF
:1076C00003F31946039800F06FF800BF05B000BD42
:1076D00000B585B0019001AB1846FFF78BFF039012
:1076E000019B012202FA03F31946039800F066F8A1
:1076F00000BF05B000BD00B585B0019001AB1846D4
:10770000FFF778FF0390039BD3F804350293029BA5
:10771000DA43019B012101FA03F31A40039BC3F8EA
:107720000825019B01229A40029B1A40039BC3F843
:107730000C2500BF05B000BD00B585B0019001ABC0
:107740001846FFF757FF0390039800F01DF8024614
:10775000019B22FA03F303F00103184605B000BDB4
:1077600000B585B0019001AB1846FFF743FF0390C9
:10777000039800F011F80246019B22FA03F303F08C
:107780000103184605B000BD82B00190019BD3F8FB
:107790001035184602B0704782B00190019BD3F8B3
:1077A0000435184602B0704782B001900091019BE9
:1077B000009AC3F8082500BF02B0704782B001905C
:1077C0000091019B009AC3F80C2500BF02B07047DE
:1077D00008B5064B01229A71044B3222DA7100225D
:1077E0000021002000F002FB00BF08BD7C48002003
:1077F000024B05221A7200BF704700BF7C48002070
:10780000024B0A225A7300BF704700BF7C48002019
:10781000024B0122DA7000BF704700BF7C48002095
:10782000034B01229A70024B0022DA7000BF7047AE
:107830007C48002008B5094B01225A711820FFF737
:107840008FFF0346002B03D0044B1422DA7402E0AE
:10785000024B0A229A7400BF08BD00BF7C4800207A
:10786000024B28221A7300BF704700BF7C480020DB
:1078700082B00190019B452B03D9054B0A229A73D4
:1078800002E0034B0A22DA7300BF02B0704700BF68
:107890007C48002008B500220021012000F0A6FA53
:1078A000054B01221A71044B03221A74024B0A225F
:1078B0005A7400BF08BD00BF7C48002008B50022F4
:1078C0000021002000F092FA024B00221A7100BF42
:1078D00008BD00BF7C48002008B5FFF779FD0122F4
:1078E0000021002000F082FA064B01225A70054B5D
:1078F0000F225A72034B0F229A72024B0F22DA7236
:1079000000BF08BD7C480020024B00225A7000BF17
:10791000704700BF7C48002082B003468DF80730D6
:10792000064A9DF807301370054B01221A70044B6C
:1079300005221A7500BF02B0704700BF76480020CC
:107940007C480020024B00221A7000BF704700BF25
:107950007C48002000B583B00190A04B1B68002B31
:1079600040F057819E4B5B79DBB2002B2FD09C4BB4
:107970009B7CDBB2002B14D0994B9B7CDBB2013B90
:10798000DAB2974B9A7400220121002000F02EFAFF
:10799000934B9B7CDBB2002B40F03D8103F0DEF883
:1079A00039E18F4BDB7CDBB2002B0CD08C4BDB7CCA
:1079B000DBB2013BDAB28A4BDA74002200210120EB
:1079C00000F014FA27E1864B00225A7123E1844B20
:1079D0005B78DBB2002B3AD0814B5B7ADBB2002BB9
:1079E0000CD07F4B5B7ADBB2013BDAB27C4B5A7234
:1079F00001220021002000F0F9F913E1784B9B7A75
:107A0000DBB2002B0CD0764B9B7ADBB2013BDAB2B7
:107A1000734B9A7200220021012000F0E7F901E186
:107A20006F4BDB7ADBB2002B0CD06D4BDB7ADBB219
:107A3000013BDAB26A4BDA7200220121002000F029
:107A4000D5F9EFE0FFF760FF03F07EFCEAE0644B5E
:107A50009B79DBB2002B13D0624B1B780133DAB277
:107A6000604B1A705E4BDB79DAB25E4B1B789A4240
:107A700080F0D3805B4B00221A7000F0E6F9CCE076
:107A8000574B9B78DBB2002B18D01620FFF754FE23
:107A90000346002B01D0FFF7BBFE514BDB78DBB276
:107AA000002B05D000220121002000F09FF9B9E051
:107AB00000220021012000F099F9B3E0484B1B7926
:107AC000DBB2002B22D0464B5B7CDBB2013BDAB24F
:107AD000434B5A74424B5B7CDBB2002B40F09F80DF
:107AE0003F4B0A225A740D20FFF705FE3C4B1B7CCE
:107AF000DBB2013BDAB23A4B1A74394B1B7CDBB276
:107B0000002B40F08C80FFF7D9FE88E0344B1B78C7
:107B1000DBB2002B11D0324B1B7DDBB2013BDAB262
:107B20002F4B1A752E4B1B7DDBB2002B79D12C4BC2
:107B300005221A7500F092F973E0294B5B7BDBB2EA
:107B4000002B0CD0264B5B7BDBB2013BDAB2244B23
:107B50005A7300220021012000F048F962E0204B16
:107B60001B7BDBB2002B15D01D4B1B7BDBB2013B1B
:107B7000DAB21B4B1A731A4B1B7BDBB2002B03D1FF
:107B800000210020FEF766FE00220121002000F007
:107B90002DF947E0124B9B7BDBB2002B0CD0104B36
:107BA0009B7BDBB2013BDAB20D4B9A7300220121C1
:107BB000002000F01BF935E0094BDB7BDBB2002B2A
:107BC00012D0074BDB7BDBB2013BDAB2044BDA733A
:107BD00000220121012000F009F923E0104D0020CE
:107BE0007C480020924800200F4B1B7ADBB2002B10
:107BF0000CD00D4B1B7ADBB2013BDAB20A4B1A7286
:107C000001220121012000F0F1F80BE000F0E2F880
:107C100008E000BF06E000BF04E000BF02E000BFD4
:107C200000E000BF03B000BD7C48002000B585B077
:107C300001901320FFF780FD0346DAB2224B1A7041
:107C4000214B1B78002B3BD1204B1B6801331F4A73
:107C500013601E4B1B680A2B08D11820FFF780FD0C
:107C60000346002B1ED0FFF737FE1BE0174B1B68A7
:107C7000032B0FD11820FFF773FD0346002B04D10F
:107C8000FFF7D8FD00F0A0F80CE0FFF7D3FD00F0FF
:107C900095F807E00D4B1B68062B03D1FFF752FE4A
:107CA00002F040FF0A4B00224FF4804118460CF0CE
:107CB00009FA0390039B002B02D003980BF0B3FE4C
:107CC00000BF05B000BD00BF9148002078480020EB
:107CD0002041002000B585B001900B468DF803309F
:107CE00000230393019B132B09D0019B132B5BD81B
:107CF000019B072B4AD0019B112B3FD054E013204E
:107D0000FFF71AFD0346DAB2294B1A70284B1B788D
:107D1000002B22D0274B18460CF021FA0390264B5B
:107D20001B68002B3BD11820FFF71AFD0346002BE0
:107D300035D0FEF7B9FB0290029B452B03D9029880
:107D4000FFF796FD2BE0029B1D2B03D90298FFF74E
:107D50008FFD24E0FFF79EFD21E0174B00221A6003
:107D6000144B18460CF0FBF90390124B00224FF411
:107D7000804118460CF0A6F9039010E01120FFF79F
:107D8000DBFC0346002B0CD0FFF720FC0720FFF79D
:107D9000D3FC0346002B06D001F04EFA03E000BFEF
:107DA00002E000BF00E000BF00BF05B000BD00BFA3
:107DB00091480020204100207848002008B5182074
:107DC000FFF786FC00BF08BD08B51820FFF76DFC63
:107DD00000BF08BD08B50B20FFF77AFC0C20FFF7A9
:107DE00077FC0D20FFF774FC00BF08BD00B583B021
:107DF00003468DF807300B468DF8063013468DF894
:107E000005309DF80730002B03D00D20FFF74DFC07
:107E100002E00D20FFF75CFC9DF80630002B03D03C
:107E20000B20FFF742FC02E00B20FFF751FC9DF80E
:107E30000530002B03D00C20FFF737FC02E00C20AC
:107E4000FFF746FC00BF03B000BD08B50B20FFF7ED
:107E500052FC0C20FFF74FFC00BF08BD08B51D4BBE
:107E60001B78002B1AD11C4B1B78002B09D01A4B06
:107E700000221A700D20FFF72BFC0C20FFF715FCD9
:107E800008E0154B01221A700D20FFF70EFC0C20A4
:107E9000FFF71EFC0B20FFF71BFC19E00E4B1B78B5
:107EA000002B09D00C4B00221A700D20FFF710FC9C
:107EB0000B20FFF7FAFB08E0074B01221A700D2098
:107EC000FFF7F3FB0B20FFF703FC0C20FFF700FC90
:107ED00000BF08BD764800209348002000B595B04B
:107EE000132009F067FC132009F094FD09F056FCFB
:107EF000034683F00103DBB2002B08D009F0EAFB54
:107F00001390139B002B02D013980BF08CFD9B4A0F
:107F100000219B480CF0B0F81290129B002B02D06D
:107F200012980BF080FD974A012197480CF0A4F8B5
:107F30001190119B002B02D011980BF074FD0B20B7
:107F4000FFF78FFB0C20FFF78CFB0D20FFF789FB61
:107F50001820FFF786FBFFF73DFFFFF72FFF8B4B46
:107F6000002240F2666118460CF0ACF81090109BAD
:107F7000002B02D010980BF056FD4FF420330F93D6
:107F80004FF480430E9300238DF81B30002305939C
:107F90000023049300230D9300211620FFF771FBAB
:107FA00000211320FFF76DFB00211120FFF769FB73
:107FB0001120FFF7C1FB0346002B44D002F0FEFD69
:107FC000FFF72EFC0CF010F90D901320FFF7B4FB17
:107FD0000346002B2ED19DF81B30DBB283F001034A
:107FE000DBB2002B07D001238DF81B300D9B0593CE
:107FF0000D9B0493E6E7059B19460D980CF0E9F8F4
:108000000890049B19460D980CF0E3F802460E9B6D
:10801000934204D80D9B0493089B9B0B0793089AEB
:108020000F9B9A42CED3594B18460CF098F800F0AB
:10803000D5FEC7E79DF81B30DBB2002BC2D0002372
:108040008DF81B30BEE703238DF80C3000238DF82C
:108050000D309DF80E3023F001038DF80E309DF8A1
:108060000E3023F002038DF80E309DF80E3023F011
:1080700004038DF80E3000238DF80D3003AB444A15
:108080001946132009F0C0FB0C900C9B002B02D06A
:108090000C980BF0C8FC0121132009F025FC0323E8
:1080A0008DF8083000238DF809309DF80A3023F050
:1080B00001038DF80A309DF80A3023F002038DF891
:1080C0000A309DF80A3023F004038DF80A300023AB
:1080D0008DF8093002AB2E4A1946072009F094FBAF
:1080E0000B900B9B002B02D00B980BF09CFC0121FA
:1080F000072009F0F9FB03238DF8043000238DF8E5
:1081000005309DF8063023F001038DF806309DF808
:10811000063023F002038DF806309DF8063023F078
:1081200004038DF8063000238DF8053001AB184AA2
:108130001946112009F068FB0A900A9B002B02D017
:108140000A980BF070FC0121112009F0CDFB1320DF
:10815000FFF7F2FA0346002B0DD10E4B00224FF42D
:10816000804118460BF0AEFF0990099B002B02D00E
:1081700009980BF058FC00BF15B000BD2D7C020023
:1081800054750300557902005875030040410020E2
:10819000D57C02002041002072DF704700BF1846E6
:1081A00073DF704700BF184674DF704700BF184682
:1081B00076DF704700BF184677DF704700BF18466C
:1081C0007CDF704700BF184633DF704700BF18469A
:1081D00000B585B0019000238DF80B3000238DF899
:1081E0000A30019B1B78002B01D0032B1AE002F010
:1081F0001BFD03468DF80B300023039302E0039B25
:1082000001330393019B9B8A1A46039B9342F6D347
:10821000019B1869019B9B8A9DF90B201946FEF76B
:108220004FFA00BF00BF05B000BD00B583B0FFF737
:10823000CBFF0190019B0093009B002B02D0009884
:108240000BF0F1FB00BF03B000BD00B583B00346E7
:108250008DF807309DF80730002B01D0032B02E08A
:10826000FFF7E3FF00BF00BF03B000BD00B583B060
:10827000019001980BF0D7FB00BF03B000BD0000D8
:1082800000B587B000230193144B019301AB19464D
:10829000134807F0D4FB0590059B0493049B002B27
:1082A00002D004980BF0BFFB02AB04220021184659
:1082B0000EF062FF0B4B029302AB19460A4807F01F
:1082C000FDFF0590059B0393039B002B02D00398B1
:1082D0000BF0A9FB00BF07B000BD00BF6D8202001C
:1082E0009C480020D18102006C41002000B5AFB055
:1082F00001ABAC22002118460EF03EFF02238DF8A0
:10830000043000238DF8063005238DF80730012353
:10831000ADF85030114B159301238DF87C300123BB
:108320008DF88030A0232393002324930C4B2A93B1
:1083300001AB19460B4804F053FD2D902D9B2C9357
:108340002C9B002B02D02C980BF06DFB01210548D3
:1083500004F039FD00BF2FB000BD00BF88410020F0
:108360004B820200A848002000B585B001900B4662
:10837000ADF802300A4ABDF802301380BDF8023071
:108380001946084807F07DFB0390039B0293029B6C
:10839000002B02D002980BF046FB00BF05B000BDD9
:1083A000604100209C48002000B585B001900B463C
:1083B000ADF802301346ADF80030BDF800300DF1D5
:1083C00002020199034808F01FF80390039B184626
:1083D00005B000BD6C41002000B583B0084B1B8880
:1083E0004FF6FF72934207D0054B1B8813211846A6
:1083F000FFF7DEFE019000E000BF03B000BD00BF4C
:108400006041002000B583B00B4B93F85430184600
:10841000FFF7CAFE0190019B002B0AD0019B082B9D
:1084200007D0019B0093009B002B02D000980BF01B
:10843000FAFA00BF03B000BDA848002000B585B01F
:1084400001909DF80830012262F303038DF8083093
:108450009DF80830012262F307138DF80830019867
:108460000EF009FE03469AB202AB01991846FFF7D7
:10847000A7FE039000BF05B000BD000000B59BB093
:10848000FEF7F2FE189000238DF8673008AB3C220F
:10849000002118460EF070FE02238DF820300423D0
:1084A0008DF8233000238DF8223002F063F8034664
:1084B000002B07D0214B44F221321A8004238DF87F
:1084C000673008E01D4B41F234221A80189BB3F943
:1084D000C2308DF86730189B03F1A0026B46184933
:1084E00018460EF041FA154A6B4693606B461846E3
:1084F0000EF0C1FD03469AB2104B9A800F4B1293B7
:1085000001238DF84C300F4B93F8543019469DF9E8
:1085100067301A460120FFF74FFE1790179B002B7C
:1085200001D0179B07E008AB00221946054804F06C
:1085300070FE1790179B18461BB000BDDC4C002046
:108540005C750300A848002000B595B0FEF78CFECE
:108550001390284B1B788DF806300123ADF80430BA
:1085600002AB3C22002118460EF006FE06238DF8D1
:108570000B3002238DF8083001F0FCFF0346002B7E
:1085800004D01D4B44F221321A8003E01A4B41F211
:1085900034221A80139BA033174A9360139BA03395
:1085A00018460EF068FD03469AB2134B9A80124BA0
:1085B0000C9301238DF8343002AB002219460F488A
:1085C00004F027FE1290129B002B01D0129B0EE0AC
:1085D00004238DF84730094B93F8543019469DF920
:1085E00047301A460120FFF7E7FD1290129B18460C
:1085F00015B000BD6C410020E84C0020A8480020C8
:1086000000B587B003900B4601928DF80B30FEF752
:108610002BFE049000230593039B002B01D1049BA8
:1086200003939DF80B30002B34D00398FFF706FF1F
:10863000FFF724FF0346002B02D0059B013305936F
:10864000274B052283F83C20049BB3F8C430DB00A1
:10865000244A82FB03125210DB17D31A1A46204B0E
:108660005A64214A21492248FFF796FD0346002B10
:1086700002D0059B01330593194B93F85430012127
:108680001846FFF78DFD0346002B1FD0059B0133D5
:1086900005931BE00398FFF7D1FEFFF755FF034654
:1086A000002B02D0059B013305930D4BA0225A618C
:1086B0000B4B012283F83C200321094804F068FC9D
:1086C0000346002B02D0059B01330593059B002B2D
:1086D00002D0082000F07EFA00BF07B000BD00BF46
:1086E000A848002067666666E4480020B84C002071
:1086F000FC48002000B583B00190019B054A1A6038
:10870000019B054A5A60FFF7BBFDFFF7EFFD00BF75
:1087100003B000BD69830200A983020076DF7047C1
:1087200000BF18467FDF704700BF18468FDF7047D5
:1087300000BF1846B1DF704700BF184682B00190F5
:108740004FF0A043184602B0704700B585B00190C5
:10875000084611461A4603468DF803300B468DF83D
:10876000023013468DF8013001AB1846FFF7E6FFE3
:1087700003909DF803209DF802305B001A439DF89A
:1087800001309B001A439DF818301B0242EA030196
:108790009DF81C301B04019A1943039B02F5E072FB
:1087A00043F8221000BF05B000BD00B585B00390AE
:1087B0000023019300230093002301220121039849
:1087C000FFF7C3FF00BF05B000BD00B585B0039043
:1087D0000B468DF80B309DF80B30002201920022E1
:1087E0000092002200210398FFF7AFFF00BF05B001
:1087F00000BD00B585B0019001AB1846FFF79EFFA4
:108800000390019B012202FA03F31946039800F03A
:1088100053F800BF05B000BD00B585B0019001ABB5
:108820001846FFF78BFF0390019B012202FA03F326
:108830001946039800F04AF800BF05B000BD00B526
:1088400085B0019001AB1846FFF778FF0390039BBA
:10885000D3F804350293029BDA43019B012101FA0C
:1088600003F31A40039BC3F80825019B01229A4099
:10887000029B1A40039BC3F80C2500BF05B000BD46
:1088800000B585B0019001AB1846FFF757FF039084
:10889000039800F009F80246019B22FA03F303F063
:1088A0000103184605B000BD82B00190019BD3F8CA
:1088B0001035184602B0704782B001900091019BBC
:1088C000009AC3F8082500BF02B0704782B001903B
:1088D0000091019B009AC3F80C2500BF02B07047BD
:1088E00000B58BB00190009100238DF82730019BDB
:1088F0001B88562B68D0562B76DC522B43D0522B3C
:1089000072DC3B2B50D03B2B6EDC212B13D0212B68
:108910006ADC132B26D0132B66DC102B66D0112BB0
:1089200000D061E0019B1B7A8DF80B30364B4FF67F
:10893000FF721A8065E000238DF8083000238DF85F
:108940000930019B9B8802AA11461846FFF7EEFEEC
:108950000890089B0493049B002B49D004980BF0CB
:1089600062F845E0284B1888002300228521FFF794
:10897000D9FE0890089B0393039B002B3AD00398E1
:108980000BF051F836E0204B18880023002200211C
:10899000FFF7D0FE0890089B0693069B002B2BD078
:1089A00006980BF040F827E0019B9B88132118469E
:1089B000FFF7B4FE0890089B0593059B002B1DD084
:1089C00005980BF030F819E0019B9B88132118469D
:1089D000FFF7A4FE0890089B0793079B002B0FD07E
:1089E00007980BF020F80BE000BF0AE000BF08E09A
:1089F00000BF06E000BF04E000BF02E000BF00E0EF
:108A000000BF00BF0BB000BD1042002008B50DF044
:108A100019F800BF08BD00B583B001900B468DF872
:108A20000330019B132B08D0019B132B1CD8019BF7
:108A3000072B10D0019B112B16E01320FFF720FF0E
:108A40000346002B03D00C20FFF7E6FE0CE00C20C1
:108A5000FFF7CFFE08E00720FFF712FF0346002BC9
:108A600001D000F0E9FB00BF00BF03B000BD000073
:108A700000B589B0554A02AB12681146198002331D
:108A8000120C1A7002AB524A1946132008F0BCFEB1
:108A90000790079B002B02D007980AF0C4FF012122
:108AA000132008F021FF03238DF8043000238DF8F4
:108AB00005309DF8063023F001038DF806309DF84F
:108AC000063023F002038DF806309DF8063023F0BF
:108AD00004038DF8063000238DF8053001AB3C4AC5
:108AE0001946112008F090FE0690069B002B02D03C
:108AF00006980AF098FF0121112008F0F5FE0323E3
:108B00008DF8003000238DF801309DF8023023F0FD
:108B100001038DF802309DF8023023F002038DF836
:108B200002309DF8023023F004038DF80230002358
:108B30008DF801306B46264A1946072008F064FE7E
:108B40000590059B002B02D005980AF06CFF0121CF
:108B5000072008F0C9FE01211620FFF736FE0B2082
:108B6000FFF723FE0C20FFF720FE0D20FFF71DFE70
:108B70001820FFF71AFE1820FFF74EFE0BF034FB0B
:108B800004904FF4004303930B20FFF732FE0C20B8
:108B9000FFF72FFE0D20FFF72CFE00BF0BF024FB8C
:108BA0000346049918460BF014FB0246039B9342BC
:108BB000F4D80B20FFF730FE0C20FFF72DFE0D2020
:108BC000FFF72AFE00BF09B000BD00BF70750300AB
:108BD000178A020000B583B001901D4A019B136003
:108BE0000B20FFF719FE0C20FFF716FE0D20FFF7F4
:108BF00013FE174B1B68082B1FD0082B24D8042BFF
:108C000014D0042B20D8012B02D0022B07D01BE05C
:108C1000642301220021002000F066F815E064239F
:108C200000220021012000F05FF80EE06423002202
:108C30000121002000F058F807E0642301220121FF
:108C4000012000F051F800E000BF00BF03B000BDFC
:108C5000104D0020024B05221A7000BF704700BF64
:108C60001242002000B585B00190FDF717FC03907B
:108C7000039B41F2CB02934204D8039B40F6485237
:108C8000934202D80220FFF7A5FF084B1B78013B57
:108C9000DAB2064B1A70054B1B78002B02D1042068
:108CA000FFF798FF00BF05B000BD00BF12420020D3
:108CB00000B583B001900D20FFF7C1FD00BF03B0E8
:108CC00000BD00B583B001900C20FFF7B8FD00BFD8
:108CD00003B000BD00B583B001900B20FFF7AFFDDE
:108CE00000BF03B000BD0000F0B585B0009303469F
:108CF0008DF807300B468DF8063013468DF8053099
:108D0000009B00221C4615464FF000024FF0000366
:108D1000EB0343EA5443E20312F57A7643F100078A
:108D20004FF4FA624FF00003304639460DF010FD63
:108D300002460B46134603939DF80730002B09D0DB
:108D4000144B18460BF00BFA124B002203991846ED
:108D50000BF0B8F99DF80630002B09D00E4B1846E1
:108D60000BF0FDF90C4B0022039918460BF0AAF901
:108D70009DF80530002B09D0084B18460BF0EFF991
:108D8000064B0022039918460BF09CF900BF05B072
:108D9000F0BD00BFB0410020F0410020D0410020D4
:108DA00008B5084A012108480BF066F9074A012175
:108DB00007480BF061F9074A012107480BF05CF9FD
:108DC00000BF08BDB18C020064750300C38C0200B3
:108DD00068750300D58C02006C75030000B583B084
:108DE000FFF746FEFFF7DCFF01F098F8FEF7DEFB29
:108DF0000346002B02D00120FFF7ECFE002000F01C
:108E0000FBF9034683F00103DBB2002B02D0042000
:108E1000FFF7E0FE0020FDF74DFB00F0DDF801F06C
:108E20001DFF002200210E48FFF7EAFB0D4A012139
:108E30000D480BF021F90190019B0093009B002B42
:108E400002D000980AF0EFFD084B00224FF4804159
:108E500018460BF037F900F0BFF8FFF7D7FDFAE737
:108E600074750300658C020060750300904100205A
:108E700000B58DB00190019BD3F8023003F5FD439E
:108E800010330B930BF0B0F90346074A1360074AFF
:108E90000B9B1360064B01221A7002AB184600F0C0
:108EA0002FF800BF0DB000BD184D0020144D00205C
:108EB0001C4D002000B585B00E4B1B7883F00103DC
:108EC000DBB2002B01D0002310E00BF08DF90390F2
:108ED000094B1B68194603980BF07BF90290029B23
:108EE000DB0B0193054B1A68019B1344184605B030
:108EF00000BD00BF1C4D0020184D0020144D002067
:108F000030B585B00190FFF7D5FF03460293019B72
:108F1000002B11D002AB18460EF073FA0390039B9E
:108F2000002B09D0019A039B14461D460FCD0FC498
:108F30000FCD0FC42B68236000BF05B030BD82B0D9
:108F400001904FF0A043184602B0704700B585B0BD
:108F5000019001AB1846FFF7F2FF0390039800F071
:108F600009F80246019B22FA03F303F001031846B5
:108F700005B000BD82B00190019BD3F810351846B2
:108F800002B0704700B587B0019000910023ADF8A2
:108F9000103078238DF80F300023059304AB194669
:108FA000002001F032F803460593BDF81030C3F3FA
:108FB00008039BB2002B0BD0059B002B08D1009B14
:108FC0009BB20DF10F00019A012100F0BDFEE5E713
:108FD00000BF07B000BD000010B588B000230793A4
:108FE000494B1B78DBB2002B06D10720FFF7AEFF01
:108FF0000346002B00F08480FFF72CFE434B1A68D9
:109000001346DB009B1A0693069901200DF0F3FF2F
:1090100003460593059B002B74D03B4B00221A702E
:1090200000F026FF0023ADF80C301B238DF8103024
:1090300003AB1946002000F0E8FF9DF80D3003F067
:109040001003DBB2002B06D0069B9BB21946059895
:1090500000F048FB079048F20103ADF8083002AB7E
:109060000221184600F034FE70238DF807300DF110
:1090700007000423264A012100F066FE254B1B78D9
:10908000DBB283F00103DBB2002B04D0224B1B7B4D
:10909000184600F0DFFC00238DF8093002AB0221F6
:1090A000184600F015FE0020FDF704FA194B1B7856
:1090B000DBB2002B1BD01422002118480EF05CF804
:1090C000164B31221A70154B03225A70134B002293
:1090D0009A70124B1022DA70104B0F4A1C1D134667
:1090E0000FCB84E80F0014210C4801F071FB0699A6
:1090F0000598FFF747FF05980DF072FF00F0A0FEFE
:1091000000F04CFB08B010BD444D00201C42002074
:10911000404D0020454D0020344D0020204D0020C2
:1091200000B585B00023ADF804301B238DF80C305A
:1091300001AB1946002000F068FFBDF80430C3F30E
:1091400008039BB2ADF80E30BDF80E30184605B0DE
:1091500000BD000000B583B00023019310E00C4A6D
:10916000019B12F813308DF8003000238DF8013088
:109170006B460221184600F0ABFD019B01330193C1
:10918000019BB3F5947FEAD300BF00BF03B000BDDD
:109190002042002000B583B00023019320E0144A50
:1091A000019B12F813308DF80030114A019B12F820
:1091B0001330072B05D10F4B1B68DBB28DF8013044
:1091C00006E00B4A019B5B0013445B788DF801308D
:1091D0006B460221184600F07BFD019B0133019391
:1091E000019BB3F5947FDAD300BF00BF03B000BD8D
:1091F000204200201C42002000B583B003468DF8B9
:10920000073000F035FE00F091FA034683F00103C9
:10921000DBB2002B03D000F013FE002308E0FFF7C1
:1092200099FFFFF7B7FFFFF77BFF00F009FE01236F
:10923000184603B000BD0000024B01221A7000BFA7
:10924000704700BF444D002000B589B00346ADF81B
:1092500006300B46ADF804301346ADF80230BDF9C8
:10926000063007EE903AB8EEE77A3E4BD3ED007A3F
:1092700067EE277ACDED067ABDF9043007EE903A15
:10928000B8EEE77A374BD3ED007A67EE277ACDED6B
:10929000057ABDF9023007EE903AB8EEE77A314B25
:1092A000D3ED007A67EE277ACDED047A2E4B1B784A
:1092B000DBB2002B26D0DDED067A9FED2C7A67EE2F
:1092C000877AFDEEE77A17EE903A1AB2284B1A80A9
:1092D000DDED057A9FED257A67EE877AFDEEE77A78
:1092E00017EE903A1AB2224B5A80DDED047A9FEDC8
:1092F0001F7A67EE877AFDEEE77A17EE903A1AB298
:109300001B4B9A80DDED067A27EEA77ADDED057A14
:1093100067EEA77A37EE277ADDED047A67EEA77A53
:1093200077EE277AB0EE670A0DF00EFA8DED030A9C
:10933000DDED037AB7EE007A77EEC77ACDED077AE6
:10934000DDED077AF5EEC07AF1EE10FA02D54FF0B6
:1093500000030793079B07EE903AB0EE670A09B047
:1093600000BD00BF14420020454D002000007A449B
:10937000344D002000B587B00346ADF806300B46EB
:10938000ADF804301346ADF80230BDF9063007EEF3
:10939000903AB8EEE77A3B4BD3ED007A67EE277A46
:1093A000CDED047ABDF9043007EE903AB8EEE77AD5
:1093B000344BD3ED007A67EE277ACDED037ABDF911
:1093C000023007EE903AB8EEE77A2E4BD3ED007AF2
:1093D00067EE277ACDED027A2B4B1B78DBB2002BA0
:1093E00026D0DDED047AB2EE047A67EE877AFDEEE0
:1093F000E77A17EE903A1AB2244BDA80DDED037A61
:10940000B2EE047A67EE877AFDEEE77A17EE903ACD
:109410001AB21E4B1A81DDED027AB2EE047A67EEC3
:10942000877AFDEEE77A17EE903A1AB2174B5A8117
:10943000DDED047A27EEA77ADDED037A67EEA77AF1
:1094400037EE277ADDED027A67EEA77A77EE277A94
:10945000B0EE670A0DF078F98DED050ADDED057ABD
:10946000B0EE007AF4EEC77AF1EE10FA02D54FF0C2
:1094700000030593059B07EE903AB0EE670A07B02C
:1094800000BD00BF18420020454D0020344D002093
:1094900000B58FB0019000914FF000030D934FF095
:1094A00000030C930023ADF82E300023ADF82C30D0
:1094B00000230A93A9E00A9A1346DB009B1A06933D
:1094C000069B019A13441B78DB088DF817309DF832
:1094D0001730022B49D1069B0233019A13441B78A3
:1094E0001BB21B021AB2069B013301990B441B7875
:1094F0001BB21343ADF80E30069B0433019A13449C
:109500001B781BB21B021AB2069B033301990B4452
:109510001B781BB21343ADF80C30069B0633019A3F
:1095200013441B781BB21B021AB2069B0533019928
:109530000B441B781BB21343ADF80A30BDF90E2063
:10954000BDF90C10BDF90A301846FFF77DFEB0EEEC
:10955000407ADDED0D7A77EE877ACDED0D7ABDF8A4
:109560002E300133ADF82E304CE09DF81730012B32
:1095700048D1069B0233019A13441B781BB21B028D
:109580001AB2069B013301990B441B781BB213439B
:10959000ADF81430069B0433019A13441B781BB2B8
:1095A0001B021AB2069B033301990B441B781BB2B2
:1095B0001343ADF81230069B0633019A13441B780F
:1095C0001BB21B021AB2069B053301990B441B7890
:1095D0001BB21343ADF81030BDF91020BDF91210C5
:1095E000BDF914301846FFF7C5FEB0EE407ADDED48
:1095F0000C7A77EE877ACDED0C7ABDF82C300133FA
:10960000ADF82C300A9B01330A930A9B009A9A42C8
:109610003FF651AF4FF000030993BDF82E30002BF9
:109620000CD0BDF82E3007EE903AB8EE677ADDED3B
:109630000D6AC6EE877ACDED087A02E04FF000039E
:109640000893BDF82C30002B0CD0BDF82C3007EE61
:10965000903AB8EE677ADDED0C6AC6EE877ACDED0A
:10966000077A02E04FF000030793BDF82E30002B7D
:109670000FD0BDF82E3007EE903AB8EE677ADDEDE8
:109680000D6AC6EE877A9DED097A77EE277ACDEDE1
:10969000097ABDF82C30002B13D0BDF82C3007EE22
:1096A000903AB8EE677ADDED0C6AC6EE877A9FEDE8
:1096B0000B7A67EE877A9DED097A77EE277ACDED02
:1096C000097ADDED097A9FED067A67EE877AFCEE7E
:1096D000E77A17EE903A18460FB000BD6F12033BC1
:1096E00000007A4400B585B001900B46ADF8023019
:1096F00078238DF80D3000238DF80F3000238DF87E
:109700000E30BDF802300DF10D00019A012100F07C
:109710001BFB054B1B6819460198FFF7B9FE034672
:10972000184605B000BD00BF1C42002000B583B044
:109730000F238DF8073000238DF806300DF1060257
:109740000DF107000123012100F0FEFA9DF806301B
:10975000712B01D1012300E00023184603B000BDA6
:1097600030B482B00190019B002B0ED0094A019BBE
:1097700014461D4628686968AA68EB680FC4286902
:109780002060054B01221A7000E000BF02B030BC1F
:10979000704700BF204D0020464D002000B587B027
:1097A000514B1B78002B00F09D804F4B00221A700C
:1097B0004E4BDB788DF816304C4B9B788DF815307E
:1097C00000238DF817309DF81630002B00F08980AB
:1097D0009DF81630102B00F2848000F049FB434BBB
:1097E0005B78032B50D0032B6DDC022B2DD0022B8A
:1097F00069DC002B02D0012B0DD064E09DF81630FF
:109800009BB20DF115003A4A012100F09DFA0123A7
:109810008DF8173057E09DF815308DF804309DF81D
:10982000162001AB0133324918460DF073FC9DF848
:1098300016309BB201339AB201AB1146184600F0C4
:1098400047FA01238DF817303DE02A4B02221A60B7
:1098500009238DF8003055238DF801306B46022125
:10986000184600F035FA07238DF80030214B1B68AD
:10987000DBB28DF801306B460221184600F028FA61
:109880001D4B01221A701EE01A4B96221A60092302
:109890008DF8003050238DF801306B4602211846B8
:1098A00000F016FA07238DF80030124B1B68DBB26C
:1098B0008DF801306B460221184600F009FA0E4B74
:1098C00000221A7000BF00F0BBFA9DF81730002B81
:1098D00008D0064B31221A701421044800F078FF9A
:1098E00000E000BF07B000BD464D0020204D002025
:1098F000244D00201C420020454D0020014B1846FD
:10990000704700BF484D002086B001900B468DF88F
:1099100003309DF80330019A13440593059BA3F58A
:109920008022174BA3FB0213590B0B46DB000B44A1
:109930001B03D31A04939DF803304FF4074202FB34
:1099400003F31A46049B93420FD3059BA3F5802390
:109950000B4AA2FB03235B0B0393039A1346DB0022
:1099600013441B0303F592230593059BB3F5EC2FDA
:1099700002D34FF480230593059B184606B0704729
:10998000398EE3388EB000230D9300230C932E4BB9
:109990001B680B932D4B1B680A930B9A0A9B9A42E8
:1099A0001CD80A9A0B9BD31A0D930B9BA3F580230B
:1099B000274AA2FB03235B0B03930A9BA3F5802397
:1099C000234AA2FB03235B0B0293029A039BD21A46
:1099D0001346DB0013441B020C9327E00A9A0B9BEF
:1099E000D31A03F558330D930B9BA3F58023184A24
:1099F000A2FB03235B0B0993062308930A9BA3F5A1
:109A00008023134AA2FB03235B0B0793089A099B4D
:109A1000D31A0693079B0593069A059B1344049358
:109A2000049A1346DB0013441B020C930D9A0C9B03
:109A30009A4201D2002304E00D9A0C9BD31A0193A1
:109A4000019B18460EB070477C44002078440020EB
:109A5000398EE33800B587B003468DF807302A4BBE
:109A60001B781946294A9DF807305354264B1B781A
:109A70000133DAB2244B1A70FDF7F6FB0590224B46
:109A80001B78032B3DD9204B00221A70204B1B68FA
:109A900004211846FFF738FF04901E4B1B68049AF8
:109AA0009A4220D11A4B1A681A4B1B689A421AD054
:109AB000184B1B68A3F58023174AA2FB03235B0BFB
:109AC0000393039A1346DB0013441B0303F592230D
:109AD000104A13600F4B1B68B3F5EC2F03D30D4BEB
:109AE0004FF480221A600A4B1B680422074918466B
:109AF000FDF7EAFB0290029B002B02D1044A049B73
:109B0000136000BF07B000BDC64D0020C84D002047
:109B10007044002074440020398EE33800B587B0CB
:109B2000019000238DF81730019B023304932E4BD4
:109B30001A682E4B1B689A4235D1002350E02A4BFD
:109B40001B680DF10B0101221846FDF7F5FB9DF88E
:109B50001730049A13449DF80B201A709DF81730A3
:109B600001338DF81730224B1B8801339AB2204BFA
:109B70001A801D4B1B6801211846FFF7C5FE039094
:109B8000194B1B68039A9A4204D1184B1B68164A5A
:109B9000136012E0144A039B1360154B1B88632B60
:109BA00001D900231CE09DF81730112B05D80E4B6E
:109BB0001A680E4B1B689A42C1D19DF81730002BD2
:109BC00007D0094B1A68094B1B689A4201D0012340
:109BD00006E09DF81730002B01D0002300E00023A1
:109BE000184607B000BD00BF7C4400207844002028
:109BF000C44D0020024B1B68024A136000BF70472F
:109C00007C44002074440020064B00221A80064B3E
:109C10001B68064A1360064B1B68064A136000BFA8
:109C2000704700BFC44D00207044002078440020DD
:109C3000744400207C44002082B001904FF0A04387
:109C4000184602B0704700B585B00190084611462D
:109C50001A4603468DF803300B468DF80230134642
:109C60008DF8013001AB1846FFF7E6FF03909DF831
:109C700003209DF802305B001A439DF801309B00E1
:109C80001A439DF818301B0242EA03019DF81C306C
:109C90001B04019A1943039B02F5E07243F822105A
:109CA00000BF05B000BD00B585B003900B468DF830
:109CB0000B309DF80B30002201920022009200220E
:109CC00000210398FFF7BFFF00BF05B000BD0000F3
:109CD00000B587B003900B46ADF80A30184B002250
:109CE0001A70BDF80A3000220092039A6A211548C2
:109CF00009F020FC0490049B002B01D0049B1BE086
:109D000042F21073059300BF0D4B1B78DBB283F05A
:109D10000103DBB2002B04D0059B5A1E0592002BD9
:109D2000F2D1074B1B78DBB283F00103DBB2002BCF
:109D300001D00D2300E0049B184607B000BD00BF12
:109D4000CC4D00207C75030000B589B005900392CE
:109D50001A460B46ADF812301346ADF810301D4BC5
:109D600000221A7000230793012300930123059A10
:109D70006A21194809F0DEFB0790079B002B03D0EE
:109D8000079B24E00BF05EFE124B1B78DBB283F0E6
:109D90000103DBB2002BF5D10E4B00221A70BDF887
:109DA0001030039A6A210C4809F0EBFB0790079BDF
:109DB000002B03D0079B0AE00BF044FE054B1B78F9
:109DC000DBB283F00103DBB2002BF5D1079B184611
:109DD00009B000BDCC4D00207C75030000B583B0F8
:109DE00001900091019B1B78022B18D0022B1ADCEA
:109DF000002B02D0012B04D015E00F4B01221A706A
:109E000016E00D4B01221A700C4B1B68002B0ED173
:109E10000A4B01221A600420FEF7DCFE07E0064B25
:109E200001221A7004E0044B01221A7000E000BF06
:109E300000BF03B000BD00BFCC4D0020D04D0020BE
:109E400008B5084809F054F8064808F0EFFF064B3B
:109E50000022C3F80025054B00221A60034B1B6843
:109E600000BF08BD7C75030000300040FC3F00408F
:109E700010B586B003211920FFF715FF03211A2022
:109E8000FFF711FF114B0122C3F80025104B0122EF
:109E90001A600F4B1B680F4B6C460FCB84E80F000A
:109EA000694600230C4A0D4808F02AFF0590059BDF
:109EB0000493049B002B02D0049809F0B4FD0748DA
:109EC00008F0FAFF00BF06B010BD00BF0030004030
:109ED000FC3F004084750300DD9D02007C7503009B
:109EE00036DF704700BF184608B5FDF767FF00BFB3
:109EF00008BD000000B583B00190044B1B781846E4
:109F000009F084FD00BF03B000BD00BFD44D0020A8
:109F100008B50D20FFF7E4FF00BF08BD00B589B00C
:109F20001F4A01AB07CA83E8070042F2107302938D
:109F300001238DF8043001AB1A49184609F0E4FCFE
:109F40000790079B0693069B002B02D0069809F00A
:109F50006AFD154809F02CFD0790079B0593059BAA
:109F6000002B02D0059809F05EFD09F013FDFFF704
:109F7000CFFF0E4A01210E480AF07EF80490049BA0
:109F8000002B02D0049809F04EFD0A4B00224FF43A
:109F9000804118460AF096F800BF09B000BD00BF26
:109FA00098750300E99E0200D44D0020F59E020042
:109FB000947503008044002000B587B0039001929F
:109FC0001A460B468DF80B301346ADF808300023C7
:109FD0000593BDF808300DF10B00019A0121FFF740
:109FE000B3FE059B184607B000BD82B001900091FA
:109FF000019B002B06D0009B002B03D0009B1A78FE
:10A00000019B1A7000BF02B0704700B587B0019085
:10A0100000910023ADF8103000238DF80C300023A0
:10A02000059304AA02231B210198FFF7C5FF0590A1
:10A03000059B002B01D0059B41E004AB5A1C03ABF0
:10A0400011461846FFF7D1FF9DF80C30C3F30013FB
:10A05000D9B2009A537861F3410353709DF80C30E4
:10A06000C3F38013D9B2009A537861F3C3035370DA
:10A070009DF80C30C3F34013D9B2009A537861F3C2
:10A08000820353709DF80C30C3F3C013D9B2009A09
:10A09000537861F3041353709DF810301AB29DF891
:10A0A00011301BB21B021BB213431BB2C3F30803D4
:10A0B00099B2009A138861F308031380059B184630
:10A0C00007B000BDBFF34F8F00BF064BDB6803F442
:10A0D000E0620449044B1343CB60BFF34F8F00BFD2
:10A0E00000BFFDE700ED00E00400FA0576DF7047F1
:10A0F00000BF18467ADF704700BF18467FDF704701
:10A1000000BF184688DF704700BF184689DF7047D8
:10A1100000BF18468EDF704700BF18468FDF7047BC
:10A1200000BF1846B1DF704700BF18463FDF7047D9
:10A1300000BF184600B585B06B46082200211846BE
:10A140000DF01AF81023ADF800301023ADF80230EE
:10A150003123ADF804304FF4FA73ADF806306B4696
:10A160001846FFF7C7FF0390039B0293029B002B47
:10A1700002D0029809F057FC00BF05B000BD0000F6
:10A1800000B585B00190019B1B78002B0ED1094BC7
:10A190001B883B211846FFF7A9FF0390039B0293FE
:10A1A000029B002B02D0029809F03DFC00BF05B0D5
:10A1B00000BD00BFA044002000B583B0019001980D
:10A1C00009F031FC00BF03B000BD000000B58BB04A
:10A1D00001AB1C22002118460CF0CEFF0023019396
:10A1E0004FF4A03302934FF4F023039303238DF82D
:10A1F00010300023ADF8123000238DF814300A4BD4
:10A2000006930A4B079301AB184603F0D1F9099066
:10A21000099B0893089B002B02D0089809F003FCC7
:10A2200000BF0BB000BD00BF81A10200B9A10200B8
:10A2300000B58DB00190009100238DF82F30019B67
:10A240001B88562B00F0D680562B00F3E380522B50
:10A2500000F0AF80522B00F3DD803B2B00F0BA8082
:10A260003B2B00F3D780212B7BD0212B00F3D28016
:10A270001B2B0DD01B2B00F3CD80132B00F08880FF
:10A28000132B00F3C780102B0DD0112B4AD0C1E047
:10A29000019B1B7A022B40F0BF8064220121032026
:10A2A00000F0EAFBB8E0634B00221A60002000F0E7
:10A2B00041FB002000F0F6FA012000F017FBFDF74B
:10A2C000CFFA019B9A885C4B1A805C4B1B78022B5F
:10A2D00002D0032B0BD018E0594B9B68564A1288CA
:10A2E000114601989847574B00221A700DE0544BC5
:10A2F0001B68514A1288114601989847514B012218
:10A300001A70019B0833039300BF01214E4800F0EF
:10A310008BFA00220021002000F0AEFB4B4B042200
:10A320001A7084E0019B9B88ADF81230002000F089
:10A33000DDFA414B1B884FF6FF72934204D03E4B2F
:10A340001B881846FFF7E2FE00F016FC00F006FC42
:10A350000021002000F068FA374B4FF6FF721A8098
:10A3600065E000238DF8083000238DF80930019B4B
:10A370009B8802AA11461846FFF7D0FE0A900A9B56
:10A380000693069B002B49D0069809F04CFB45E04C
:10A39000294B1888002300228521FFF7AFFE0A9081
:10A3A0000A9B0593059B002B3AD0059809F03BFBCF
:10A3B00036E0214B1888002300220021FFF7B2FE6F
:10A3C0000A900A9B0893089B002B2BD0089809F051
:10A3D0002AFB27E0019B9B8813211846FFF786FE86
:10A3E0000A900A9B0793079B002B1DD0079809F042
:10A3F0001AFB19E0019B9B8813211846FFF776FE94
:10A400000A900A9B0993099B002B0FD0099809F029
:10A410000AFB0BE000BF0AE000BF08E000BF06E057
:10A4200000BF04E000BF02E000BF00E000BF00BFCB
:10A430000DB000BD084E0020A04400200D4E0020AD
:10A44000F44D002068450020A0BB0D000C4E0020FC
:10A4500000B587B00BF036FF0590059B0493049B75
:10A46000002B02D0049809F0DEFA0023019301AB1F
:10A47000194601200CF02CF80590059B0393039BD3
:10A48000002B02D0039809F0CEFA01AB18460CF06D
:10A49000ADF80590059B0293029B002B02D0029819
:10A4A00009F0C1FA00BF07B000BD000082B0019002
:10A4B0000091009B5A88094B1B889A420BD1009B44
:10A4C0001B8840F67722934205D1009B9B88033B73
:10A4D0009AB2034B1A8000BF02B07047A04400201C
:10A4E000A244002000B585B01549164804F0CDFD02
:10A4F0000390039B0293029B002B02D0029809F069
:10A5000092FAF7210F4804F0EAFD0390039B0193B0
:10A51000019B002B02D0019809F085FAFB224FF62F
:10A52000FF71084804F0F7FD0390039B0093009B24
:10A53000002B02D0009809F076FA00BF05B000BDEC
:10A54000ADA40200D84D002000B583B00BF064FA32
:10A550000190019B0093009B002B02D0009809F012
:10A5600062FA00BF03B000BD08B50BF06BFA00BF84
:10A5700008BD0000064B1B78032B03D0044B1B784F
:10A58000042B01D1012300E00023DBB21846704701
:10A590000C4E002000B585B00190FCF765FE0290DE
:10A5A0003C4B1A783C4B1A70002303933B4B1B68BF
:10A5B000B3F5E16F02D93A4B039313E0374B1B68B5
:10A5C000B3F5167F03D94EF6602303930AE0334BAD
:10A5D0001B68B42B03D944F62063039302E042F2D4
:10A5E000107303932C4B1B78042B42D0042B4DDCAF
:10A5F000032B2ED0032B49DC022B1FD0022B45DC72
:10A60000002B02D0012B11D040E00020FDF784F98F
:10A61000002201210020FDF7F3FFFCF76FFD42F25D
:10A6200010720121012000F027FA2FE000F06EFAED
:10A6300064220121022000F01FFA27E0FCF7EEFC63
:10A640000346002B21D064220121032000F014FADC
:10A650001BE000F05BFA0120FDF75EF9002200210B
:10A660000020FDF7CDFF039A0121042000F004FA39
:10A670000CE0FDF7C7FEFDF765F9FDF7C1F86422B0
:10A680000121002000F0F8F900E000BF00BF05B094
:10A6900000BD00BF054E00200D4E0020084E0020DA
:10A6A000E093040000B583B00190244B1B78062B87
:10A6B0003BD0062B3BDC052B2DD0052B37DC042BA8
:10A6C0001CD0042B33DC022B0FD0022B2FDC002BF1
:10A6D0002FD0012B00D02AE064220121002000F0BD
:10A6E000CBF9164B03221A7024E0642201210320C7
:10A6F00000F0C2F9114B03221A701BE0FDF782FE35
:10A700000F4B1B88002200211846FFF7FBFC0B4B68
:10A7100005221A700EE0002201210020FDF770FFD3
:10A7200000F042FA054B06221A7000BF02E000BF9B
:10A7300000E000BF00BF03B000BD00BF0C4E002012
:10A74000A044002000B585B001900C4B1B884FF64B
:10A75000FF72934204D000F067FA03468DF80F3081
:10A760009DF90F3019460020FCF714F80121044828
:10A7700000F05AF800BF05B000BD00BFA0440020A3
:10A78000A0BB0D0000B583B00190FFF79BFC00005B
:10A7900000B583B00190074B1B884FF6FF729342C0
:10A7A00005D0044B1B8813211846FFF79FFC00BF00
:10A7B00003B000BDA044002082B00190034B1B6891
:10A7C0000133024A136000BF02B07047084E0020F8
:10A7D00000B585B001900B46ADF802300623039317
:10A7E0000E4B1B78002B0BD0012B13D10C4B5B684D
:10A7F0000C4A1288BDF8021001989847039009E0AE
:10A80000074BDB68074A1288BDF802100198984789
:10A81000039000BF039B184605B000BD68450020AB
:10A82000F44D0020A0440020F0B587B001900B4605
:10A830008DF80330019B00221C4615464FF00002A4
:10A840004FF00003EB0343EA5443E20312F57A7638
:10A8500043F100074FF4FA624FF0000330463946E7
:10A860000BF076FF02460B46134605930C4B184639
:10A8700009F075FC9DF80330002B0ED0084B002228
:10A880000599184609F01EFC0490049B0393039B52
:10A89000002B02D0039809F0C6F800BF07B0F0BD46
:10A8A000C844002000B587B003468DF807304FF448
:10A8B000F01305930C4B184609F051FC9DF8073036
:10A8C000002B0ED0084B00220599184609F0FAFB20
:10A8D0000490049B0393039B002B02D0039809F080
:10A8E000A2F800BF07B000BD0845002000B587B042
:10A8F00003468DF807304FF4610305930C4B18465F
:10A9000009F02DFC9DF80730002B0ED0084B0022DB
:10A910000599184609F0D6FB0490049B0393039B0A
:10A92000002B02D0039809F07EF800BF07B000BDED
:10A930002845002000B587B003468DF807304FF456
:10A94000804305930C4B184609F009FC9DF807302D
:10A95000002B0ED0084B00220599184609F0B2FBD7
:10A960000490049B0393039B002B02D0039809F0EF
:10A970005AF800BF07B000BD4845002000B589B0B7
:10A9800009F03EFB0790079B0693069B002B02D025
:10A99000069809F048F82C4A01212C4809F06CFB74
:10A9A0000790079B0593059B002B02D0059809F0A3
:10A9B0003AF8274A0021274809F05EFB0790079BD9
:10A9C0000493049B002B02D0049809F02CF8224A2F
:10A9D0000121224809F050FB0790079B0393039B3A
:10A9E000002B02D0039809F01EF81D4A00211D48D3
:10A9F00009F042FB0790079B0293029B002B02D0B9
:10AA0000029809F010F8184A0021184809F034FBA0
:10AA10000790079B0193019B002B02D0019809F03E
:10AA200002F8134A0121134809F026FB0790079BFF
:10AA30000093009B002B02D0009808F0F4FFFCF775
:10AA400013F800BF09B000BDA5A60200A47503005D
:10AA500095A50200AC75030045A70200A875030088
:10AA600085A70200B075030091A70200B47503002A
:10AA7000B9A70200B8750300F0B585B0034600928F
:10AA80008DF807300B468DF80630009B00221C46DF
:10AA900015464FF000024FF00003EB0343EA544326
:10AAA000E20312F57A7643F100074FF4FA624FF0B1
:10AAB0000003304639460BF04BFE02460B46134668
:10AAC00003930F4A9DF8073013709DF80630002B52
:10AAD0000AD00C4B184609F042FB0A4B002203999E
:10AAE000184609F0EFFA08E0FCF72CFF064B0022AD
:10AAF0001A70044B184609F032FB00BF05B0F0BDD8
:10AB0000054E0020E8440020044E002008B5FDF763
:10AB100079FCFCF7EBFAFDF75FFCFCF769FA00BF84
:10AB200008BD000008B5FFF7F1FF0022002100205A
:10AB3000FFF7A2FF074B00221A700120FFF7B2FEB9
:10AB4000FCF746FE002200210348FDF759FD00BF37
:10AB500008BD00BF0C4E0020BC75030008B5FFF710
:10AB6000D5FF044B01221A700120FFF7E3FE00BF5E
:10AB700008BD00BF0C4E002000B583B0094B002279
:10AB800040F26661184609F09DFA0190019B00931E
:10AB9000009B002B02D0009808F045FF00BF03B0D7
:10ABA00000BD00BFA844002008B5034B184609F0BB
:10ABB000D6FA00BF08BD00BFA844002008B5FFF7C3
:10ABC000F3FFFDF7FBF8024B06221A7000BF08BD29
:10ABD0000C4E002000B585B003468DF807309DF877
:10ABE0000730032B0AD0032B11DC022B11D0022BD0
:10ABF0000DDC002B0FD0012B0FD008E000230393B6
:10AC0000039B002B0BD0039808F00DFF07E000BF5B
:10AC100006E000BF04E000BF02E000BF00E000BFAC
:10AC200000BF05B000BD000000B583B000238DF863
:10AC3000033000238DF80230074B1B880DF1020210
:10AC40000DF103011846FFF765FA01909DF90330F5
:10AC5000184603B000BD00BFA044002008B5FFF7B0
:10AC600073FCFFF767FAFFF73DFC0648FDF742FD6E
:10AC7000FFF7ACFA0348FCF781FA0120FFF756FA18
:10AC800000BF08BDF44D002000B585B000F08EFA7D
:10AC90000390039B002B02D0039808F0C4FE00230E
:10ACA00000931E4B00936B46184600F0A9F90290E2
:10ACB000029B0193019B002B02D0019808F0B3FE88
:10ACC000FFF75CFEFFF7C4FBFDF708F9FFF726F975
:10ACD000FEF766F80020FBF7EDFBFCF767FC034688
:10ACE000002B02D00120FDF775FF0020FEF784FA4B
:10ACF000034683F00103DBB2002B02D00420FDF7F2
:10AD000069FFFEF769F9FFF7A9FFFFF735FFFCF7C9
:10AD10006FFBFEF761F9FFF727FCF8E7D5AB020000
:10AD2000ADDF704700BF1846AEDF704700BF184662
:10AD3000B0DF704700BF18463CDF704700BF1846C1
:10AD40003DDF704700BF184682B003468DF80730DC
:10AD500000BF02B07047000000B58BB0019005AB9A
:10AD60001022002118460CF007FA02238DF8143047
:10AD70000223ADF808300023ADF80A3004AB03938A
:10AD80001B4B9B881A4A518902AA1846FFF7C8FF35
:10AD90000990099B002B10D104AB184603F04EFE1E
:10ADA0000346002B09D09DF81A3043F001038DF8BB
:10ADB0001A300023ADF8183003E040F2FD13ADF86F
:10ADC00018300B4B9B8805AA11461846FFF7B0FFB9
:10ADD0000990099B112BF4D0BDF81830002B03D13A
:10ADE000019800F043FA00E000BF0BB000BD00BFC7
:10ADF000104E002000B585B00190019B9A88134B3E
:10AE00009B889A421ED1019B06330393039B1B78B8
:10AE1000022B18D1039B5A880C4BDB889A4212D123
:10AE2000039B1B7A042B0ED0039B1B7A062B0AD0A4
:10AE3000039B1B7A052B06D0039B02331846FFF7B2
:10AE40008BFF00E000BF05B000BD00BF104E00202A
:10AE500082B00190019B9A88024B9A8000BF02B099
:10AE6000704700BF104E002082B00190064B9A88B8
:10AE7000019B9B889A4204D1034B4FF6FF729A8044
:10AE800000E000BF02B07047104E002000B585B052
:10AE90000190019B06330393039B1A880A4BDB88BE
:10AEA0009A420DD1084B1B7E002B09D000F04CFAC2
:10AEB0000290029B002B03D0034B5B690220984752
:10AEC00000BF05B000BD00BF104E002000B583B02C
:10AED00001900091019B002B1FD0019B1B88532BDD
:10AEE00016D0532B18DC512B0ED0512B14DC102B09
:10AEF00002D0112B04D00FE00198FFF7A9FF0CE05E
:10AF00000198FFF7B1FF08E00198FFF773FF04E035
:10AF10000198FFF7BBFF00E000BF03B000BD0000D9
:10AF200000B58BB003460A468DF8073013468DF8FE
:10AF300006300323ADF8223003AB1022002118465F
:10AF40000CF01AF9BDF82230ADF8203020238DF82E
:10AF50001C309DF807308DF81D309DF806308DF8B7
:10AF60001E30124BDB88ADF80C3002238DF80E300A
:10AF70000023ADF8103008AB059307AB06930B4BDD
:10AF80009B8803AA11461846FFF7CEFE0990099B3D
:10AF9000002B07D1BDF82030BDF822209A4201D005
:10AFA0000C230993099B18460BB000BD104E0020DE
:10AFB00000B585B04FF0FF310020FFF7C1FE0390D0
:10AFC000039B0293029B002B01D0029B13E0B12153
:10AFD0000020FFF7B1FE0390039B0193019B002B20
:10AFE00001D0019B07E0054B5B69012098470220D7
:10AFF0000AF072FD0023184605B000BD104E002077
:10B0000010B58AB00190154B03AC0FCB84E80F004C
:10B01000019B002B01D10E231DE0114B4FF6FF7257
:10B020009A80019B1B680E4A53610D4B00221A76D1
:10B030000B4B5B69002B02D1094B0A4A5A61084845
:10B0400000F0A4F80990099B0893089B002B01D0FD
:10B05000089B00E0002318460AB010BDCC75030021
:10B06000104E002049AD02004FF0030C00DF704786
:10B0700000BF184600B583B001900198FFF7F4FFB8
:10B080000346184603B000BD08B50348FFF7F2FFBA
:10B090000346184608BD00BF2C4E002000B583B003
:10B0A0000190044B1B6804490198984703461846D1
:10B0B00003B000BD2C4E0020344E002000B583B0FC
:10B0C0000190044B5B680449019898470346184671
:10B0D00003B000BD2C4E0020344E0020064B1B68F0
:10B0E000002B05D0044B5B68002B01D0012300E04E
:10B0F00000231846704700BF2C4E002000B585B0D5
:10B1000001900B4B1B685B7E002B01D006230BE0EC
:10B110000198FFF7C3FF0390039B002B03D1044B5F
:10B120001B6801225A76039B184605B000BD00BF7C
:10B13000384E002000B583B0134B1B685B7E002B9C
:10B140000ED006210120FFF7EBFE0190019B002BA2
:10B1500004D00D4B1B685B6903209847002310E067
:10B16000094B1B6801221A7601210120FFF7D8FE46
:10B170000190019B002B03D0034B1B6800221A7621
:10B18000019B184603B000BD384E002082B00190EC
:10B19000019B002B01D10E2303E0034A019B1360A6
:10B1A0000023184602B07047384E002000B585B025
:10B1B00000F0DEF80390039B0293029B002B01D06A
:10B1C000029B0DE0FFF760FF0390039B0193019B3F
:10B1D000002B01D0019B03E000F0F0F80390039BEB
:10B1E000184605B000BD000000B585B00190009183
:10B1F000FFF774FF0346002B32D00198FFF75EFF84
:10B200000390039B082B2CD0039B002B11D1164BD2
:10B210001B6800225A7601210220FFF781FE03906D
:10B22000039B002B1DD0104B1B685B6903209847C4
:10B2300017E00D4B1B6800225A7606210220FFF70B
:10B240006FFE0390039B002B04D0074B1B685B69C8
:10B2500003209847044B1B685B690220984700E075
:10B2600000BF05B000BD00BF384E002000B585B05E
:10B27000019004238DF80F30019B1B7B012B02D022
:10B28000022B11D035E0FFF755FF0290029B002BF7
:10B2900003D101238DF80F302FE0029B112B2CD10D
:10B2A00006238DF80F3028E0019B5B7B142B03D81D
:10B2B000019B5B7B002B03D105238DF80F301EE033
:10B2C000019B03F10E01019B5B7B1A461B480BF0AF
:10B2D00021FF019B5B7B1A46194B9A611848FFF7C7
:10B2E0000DFF0290029B002B09D101238DF80F3036
:10B2F00005E002238DF80F3002E000BF00E000BF40
:10B300009DF80F30012B15D0019B1B7B9DF80F2062
:10B3100011461846FFF704FE0290029B002B04D052
:10B32000084B1B685B6903209847064B1B685B69E9
:10B330000220984700BF05B000BD00BF404E00206E
:10B340003C4E0020384E002000B583B0054B1B68F2
:10B350005B6900209847FFF72BFE0190019B184680
:10B3600003B000BD384E002013DF704700BF184601
:10B3700000B583B040F6F8731B68B3F1FF3F03D10B
:10B380000D4B1B68019303E040F6F8731B680193B3
:10B39000019BB3F1FF3F0AD00198FFF7E5FF009052
:10B3A000009B002B01D0009B02E0002300E004235F
:10B3B000184603B000BD00BF1410001000B583B0E4
:10B3C000064B1846FFF7D0FF0190019B002B01D0E0
:10B3D000019B00E00023184603B000BD006002009E
:10B3E000BFF34F8F00BF064BDB6803F4E0620449F4
:10B3F000044B1343CB60BFF34F8F00BF00BFFDE78B
:10B4000000ED00E00400FA0582B0214B1B68B3F1A7
:10B41000FF3F0AD11F4B1B68DBB201931E4B1B6819
:10B420001B0903F00F03009305E0194B1B68019300
:10B430001A4B1B680093019B062B24D1009B072B02
:10B440001DD0009B072B1CD8009B062B15D0009B02
:10B45000062B16D8009B052B0DD0009B052B10D872
:10B46000009B032B03D0009B042B02D009E0012397
:10B470000AE0012308E0012306E0012304E00123A0
:10B4800002E0012300E00023184602B0704700BF2D
:10B4900030010010E00F00F0E80F00F03401001060
:10B4A00082B01B4B1B68DBB201931A4B1B681B0954
:10B4B00003F00F030093019B062B24D1009B072B65
:10B4C0001DD0009B072B1CD8009B062B15D0009B82
:10B4D000062B16D8009B052B0DD0009B052B10D8F2
:10B4E000009B032B03D0009B042B02D009E0012317
:10B4F0000AE0002308E0002306E0002304E0002324
:10B5000002E0002300E00023184602B0704700BFAD
:10B51000E00F00F0E80F00F082B0214B1B68B3F1A0
:10B52000FF3F0AD11F4B1B68DBB201931E4B1B6808
:10B530001B0903F00F03009305E0194B1B680193EF
:10B540001A4B1B680093019B062B24D1009B072BF1
:10B550001DD0009B072B1CD8009B062B15D0009BF1
:10B56000062B16D8009B052B0DD0009B052B10D861
:10B57000009B032B03D0009B042B02D009E0012386
:10B580000AE0012308E0012306E0012304E001238F
:10B5900002E0012300E00023184602B0704700BF1C
:10B5A00030010010E00F00F0E80F00F0340100104F
:10B5B00082B01B4B1B68DBB201931A4B1B681B0943
:10B5C00003F00F030093019B062B24D1009B072B54
:10B5D0001DD0009B072B1CD8009B062B15D0009B71
:10B5E000062B16D8009B052B0DD0009B052B10D8E1
:10B5F000009B032B03D0009B042B02D009E0012306
:10B600000AE0002308E0002306E0002304E0002312
:10B6100002E0002300E00023184602B0704700BF9C
:10B62000E00F00F0E80F00F082B0214B1B68B3F18F
:10B63000FF3F0AD11F4B1B68DBB201931E4B1B68F7
:10B640001B0903F00F03009305E0194B1B680193DE
:10B650001A4B1B680093019B062B24D1009B072BE0
:10B660001DD0009B072B1CD8009B062B15D0009BE0
:10B67000062B16D8009B052B0DD0009B052B10D850
:10B68000009B032B03D0009B042B02D009E0012375
:10B690000AE0012308E0012306E0012304E001237E
:10B6A00002E0012300E00023184602B0704700BF0B
:10B6B00030010010E00F00F0E80F00F0340100103E
:10B6C00082B01B4B1B68DBB201931A4B1B681B0932
:10B6D00003F00F030093019B062B24D1009B072B43
:10B6E0001DD0009B072B1CD8009B062B15D0009B60
:10B6F000062B16D8009B052B0DD0009B052B10D8D0
:10B70000009B032B03D0009B042B02D009E00123F4
:10B710000AE0002308E0002306E0002304E0002301
:10B7200002E0002300E00023184602B0704700BF8B
:10B73000E00F00F0E80F00F082B01B4B1B68DBB29B
:10B7400001931A4B1B681B0903F00F030093019B25
:10B75000062B24D1009B072B1DD0009B072B1CD848
:10B76000009B062B15D0009B062B16D8009B052BA3
:10B770000DD0009B052B10D8009B032B03D0009B02
:10B78000042B02D009E001230AE0002308E0002393
:10B7900006E0002304E0002302E0002300E0002391
:10B7A000184602B0704700BFE00F00F0E80F00F04D
:10B7B00082B0214B1B68B3F1FF3F0AD11F4B1B68BE
:10B7C000DBB201931E4B1B681B0903F00F030093B0
:10B7D00005E0194B1B6801931A4B1B680093019BF2
:10B7E000062B24D1009B072B1DD0009B072B1CD8B8
:10B7F000009B062B15D0009B062B16D8009B052B13
:10B800000DD0009B052B10D8009B032B03D0009B71
:10B81000042B02D009E000230AE0002308E0012302
:10B8200006E0012304E0012302E0012300E00023FD
:10B83000184602B0704700BF30010010E00F00F062
:10B84000E80F00F03401001082B0214B1B68B3F107
:10B85000FF3F0AD11F4B1B68DBB201931E4B1B68D5
:10B860001B0903F00F03009305E0194B1B680193BC
:10B870001A4B1B680093019B062B24D1009B072BBE
:10B880001DD0009B072B1CD8009B062B15D0009BBE
:10B89000062B16D8009B052B0DD0009B052B10D82E
:10B8A000009B032B03D0009B042B02D009E0012353
:10B8B0000AE0012308E0012306E0012304E001235C
:10B8C00002E0012300E00023184602B0704700BFE9
:10B8D00030010010E00F00F0E80F00F0340100101C
:10B8E00082B0214B1B68B3F1FF3F0AD11F4B1B688D
:10B8F000DBB201931E4B1B681B0903F00F0300937F
:10B9000005E0194B1B6801931A4B1B680093019BC0
:10B91000062B24D1009B072B1DD0009B072B1CD886
:10B92000009B062B15D0009B062B16D8009B052BE1
:10B930000DD0009B052B10D8009B032B03D0009B40
:10B94000042B02D009E001230AE0012308E00123CF
:10B9500006E0012304E0012302E0012300E00023CC
:10B96000184602B0704700BF30010010E00F00F031
:10B97000E80F00F03401001082B0194B1B680193EE
:10B98000184B1B680093019B062B24D1009B072BAF
:10B990001DD0009B072B1CD8009B062B15D0009BAD
:10B9A000062B16D8009B052B0DD0009B052B10D81D
:10B9B000009B032B03D0009B042B02D009E0002343
:10B9C0000AE0002308E0002306E0012304E001234D
:10B9D00002E0012300E00023184602B0704700BFD8
:10B9E000300100103401001082B0194B1B68019324
:10B9F000184B1B680093019B062B24D1009B072B3F
:10BA00001DD0009B072B1CD8009B062B15D0009B3C
:10BA1000062B16D8009B052B0DD0009B052B10D8AC
:10BA2000009B032B03D0009B042B02D009E00023D2
:10BA30000AE0002308E0002306E0002304E00123DD
:10BA400002E0012300E00023184602B0704700BF67
:10BA5000300100103401001008B5FFF7C5FF0346A0
:10BA6000002B07D04FF010234FF08042D3F808325C
:10BA7000C2F8583500BF08BD00BF044BD3F80034EE
:10BA8000002BFAD000BF00BF704700BF00E00140AC
:10BA900000B583B00190044A019BC2F80435FFF75A
:10BAA000EBFF00BF03B000BD00E00140024B034AC2
:10BAB0001A6000BF704700BF6C4500200090D003A3
:10BAC00008B5FFF7A1FC0346002B06D0964B1B6878
:10BAD0001B0A964A03F01F031360FFF7E1FC0346BD
