:020000022000DC
:106000000000012019620200016202000362020026
:10601000056202000762020009620200000000003F
:106020000000000000000000000000000B62020001
:106030000D620200000000000F6202001162020007
:106040002504030013620200F9120300412D03002E
:106050001362020013620200F511030069170300C6
:106060001362020013620200136202001362020054
:106070001362020013620200136202001362020044
:10608000136202008D3C03001362020013620200DF
:10609000136202001362020031580300136202000F
:1060A0001362020013620200136202001362020014
:1060B00013620200136202000000000000000000F2
:1060C00013620200136202001362020013620200F4
:1060D000136202001362020013620200000000005B
:1060E00000000000000000000000000000000000B0
:1060F00000000000000000000000000000000000A0
:10610000000000000000000000000000000000008F
:10611000000000000000000000000000000000007F
:10612000000000000000000000000000000000006F
:10613000000000000000000000000000000000005F
:10614000000000000000000000000000000000004F
:10615000000000000000000000000000000000003F
:10616000000000000000000000000000000000002F
:10617000000000000000000000000000000000001F
:10618000000000000000000000000000000000000F
:1061900000000000000000000000000000000000FF
:1061A00000000000000000000000000000000000EF
:1061B00000000000000000000000000000000000DF
:1061C00000000000000000000000000000000000CF
:1061D00000000000000000000000000000000000BF
:1061E00000000000000000000000000000000000AF
:1061F000000000000000000000000000000000009F
:10620000FEE7FEE7FEE7FEE7FEE7FEE7FEE7FEE766
:10621000FEE7FEE700F002B8FFF7FCBF0F484FF0C3
:106220000701884385460E4880470E48016841F4BF
:1062300070010160BFF34F8FBFF36F8F00F01AB88A
:1062400009480A490A4A884207D0521A05D00378F9
:1062500001300B700131013AF9D170470000012083
:1062600015B1020088ED00E008670300C83900207E
:10627000DC39002039493A480A1A02D007229143F2
:106280008D46384938480A1A06D00722914381F3CF
:106290000988022282F3148834483549354A00F0CF
:1062A0003EF835483549364A00F039F83548364920
:1062B000364A00F034F836483649374A00F02FF8AD
:1062C00036483749374A00F02AF837483749384ABC
:1062D00000F025F837483849384A00F020F83848A7
:1062E0003849002200F033F837483849002200F0DE
:1062F0002EF837483749091A0FF089FF364A904778
:1063000024482549884205D00268043003B49047E8
:1063100003BCF7E700200021304A9047FEE788429F
:1063200014D0521A12D003460B43134303242342C2
:1063300006D1036804300B600431043AF9D1704788
:10634000037801300B700131013AF9D1704788426E
:1063500002D002700130FAE770470000000001200F
:1063600000F800200000012000000120DC6A03008A
:10637000DC3900207C420020E0630200E063020080
:106380002E660300DC6A0300DC390020DC390020C3
:106390001C6703001C6703001C6703001C670300E5
:1063A0001C6703001C6703001C6703001C670300D5
:1063B000DA6A03007C7303007C4200207C420020E8
:1063C0007C420020E04F0020E04F0020E04F002002
:1063D000E04F0020E05700204162020001A30200CC
:1063E000024B0022C3F8002500BF70470070004038
:1063F00082B003468DF80730114B1B789DF80720BB
:106400009A420BD99DF807300D4A12789B1A012B3E
:1064100010DD0B4A9DF8073013700BE0084B1B781A
:106420001A469DF80730D31A012B03DD044A9DF864
:1064300007301370024B1B78184602B0704700BF3C
:106440008842002084B00346ADF80630BDF806301F
:1064500041F26702934201D9642319E0BDF8063086
:1064600040F64852934201D8002311E0BDF80630AF
:10647000A3F64853642202FB03F303F5C873064AEC
:1064800082FB03121212DB17D31A0393039BDBB2B6
:10649000184604B0704700BF1F85EB51014B1B68C5
:1064A0001846704784420020014B1B68184670470D
:1064B0008042002000B587B0019000F0C7F80DF1D0
:1064C0000E03194600200BF0C5FB0590BDF90E2008
:1064D000154B1A80059B002B1BD1134B1B881BB23D
:1064E0001A464FF4166302FB03F39B0A0493049BC2
:1064F0005B000E4A13600D4B1B689BB21846FFF7FA
:10650000A1FF03461846FFF773FF03461A46084BE0
:106510001A6000F083F800F027F8034B1B881BB2C9
:106520009BB2184607B000BD7C4200208442002088
:106530008042002000B585B00190019B1B78002BA4
:106540000CD1019B5B68B3F90020064B1A80019BBC
:106550005B68012118460BF01DFC039000BF05B0DD
:1065600000BD00BF7C42002008B5FFF797FF03463F
:1065700040F6E342934208D80BF082FA01F0C2FBE6
:1065800001F0B4FB00200EF081FC00BF08BD82B01A
:1065900001904FF0A043184602B0704700B585B097
:1065A0000190084611461A4603468DF803300B4603
:1065B0008DF8023013468DF8013001AB1846FFF715
:1065C000E6FF03909DF803209DF802305B001A431C
:1065D0009DF801309B001A439DF818301B0242EAD7
:1065E00003019DF81C301B04019A1943039B02F51B
:1065F000E07243F8221000BF05B000BD00B585B0C1
:106600000390002301930023009300230122002123
:106610000398FFF7C3FF00BF05B000BD08B5FFF743
:10662000DFFE0BF02DFA074B0022C3F80025064BC6
:1066300000221A60044B1B680220FFF7DFFF00BF37
:1066400008BD00BF00700040FC7F004000B589B06D
:106650001D4B1B68049300238DF813301B4B012244
:10666000C3F800251A4B01221A60194B1B6804ABB2
:10667000184918460BF0A4F90790079B0693069B50
:10668000002B02D006980CF067FB134A01AB07CA37
:1066900003C31A7000238DF8073002238DF80630EB
:1066A00005238DF8083001AB194600200BF034FAB1
:1066B0000790079B0593059B002B02D005980CF0D3
:1066C0004BFB00BF09B000BD1C6703000070004019
:1066D000FC7F0040356502002067030000B585B0EF
:1066E00001900B46ADF8023013468DF80130019B46
:1066F0000393BDF80230132B45D9039B1B78F02B75
:1067000032D0F02B41DC302B31D0302B3DDC212B33
:1067100020D0212B39DC202B0ED0202B35DC182B60
:106720002DD0182B31DC172B25D0172B2DDC122B5D
:1067300009D0142B14D028E09DF901301946039894
:1067400000F0F2F822E09DF901301946039800F0BC
:106750002BF81BE0039800F03DF901F001F815E07B
:10676000039800F053F911E000F0C2FD0EE0039829
:1067700002F084FD0AE0039802F05AFA06E003985A
:1067800000F0E6FD02E000BF00E000BF05B000BD84
:1067900082B00190034B1B680133024A136000BFB3
:1067A00002B070479042002000B58BB001900B46BC
:1067B0008DF8033004AB1422002118460FF0D8FDE9
:1067C00013238DF81030FFF76FFE03468DF8273046
:1067D000234B1B68CDF811309DF827308DF815300C
:1067E000FFF75CFE03461F4AA2FB03235B098DF8FB
:1067F00026309DF826308DF8163001238DF817309D
:1068000001238DF8183001238DF819309DF80330DD
:106810008DF81A309DF82630222B07D89DF81B30B2
:10682000022262F301038DF81B3011E09DF827303E
:10683000272B07D89DF81B30012262F301038DF846
:106840001B3005E09DF81B3023F003038DF81B304F
:1068500004AB1421184603F09DFB00BF0BB000BD34
:10686000904200201F85EB5100B589B001900B4686
:106870008DF8033003AB1422002118460FF078FD89
:1068800016238DF80C3001238DF80D3003AB142145
:10689000184603F07FFB00BF09B000BD00B58BB008
:1068A000019003AB1422002118460FF061FD112363
:1068B0008DF80C30194B1B88DBB28DF80D3003AB13
:1068C000184602F04BFE03468DF8273003AB142127
:1068D000184603F05FFB0890089B002B03D0104B79
:1068E00000221A7018E09DF82730002B03D00B4BC4
:1068F0001B88FF2B03D10A4B00221A700CE0074BB8
:106900001B8801339AB2054B1A80064B00224FF4C4
:10691000005118460CF078FD0BB000BD8A420020F3
:106920008C420020E039002000B58DB001900B466C
:106930008DF8033002F0EEFC0A9000F051FC099053
:1069400003AB1422002118460FF012FD02F0A8FE3E
:1069500010238DF80C30099BB3F8C030DBB28DF8F2
:106960000D3002F011FD0B900B9BB3F5106F02D9A7
:106970004FF410630B930B9B9BB2ADF80E30124B90
:106980001B7883F00103DBB2002B19D003AB142179
:10699000184603F0FFFA0890089B002B10D1BDF8B1
:1069A0000E30002B0CD0094B00221A80064B01221E
:1069B0001A70074B00224FF4005118460CF024FDCA
:1069C00000BF0DB000BD00BF8C4200208A420020F5
:1069D000E039002000B585B0019002F09BFC0390E7
:1069E000019B5B781A46044B1B889A4201D102F046
:1069F0004DFE00BF05B000BD8A42002000B583B047
:106A0000019003F0CBFF00BF03B000BD00B58BB019
:106A1000019003AB1422002118460FF0A9FC1523A6
:106A20008DF80C3001238DF80D30FFF73DFD0990F6
:106A3000099B272B07D9019B5B78012B03D10023EE
:106A40008DF80E3002E001238DF80E3003AB1421D7
:106A5000184603F09FFA0890089B002B0AD19DF876
:106A60000E30002B06D1054B002240F6CD411846D2
:106A70000CF0CAFC00BF0BB000BD00BF003A002004
:106A800000B583B0114A002111480CF097FC019029
:106A9000104A002110480CF091FC01900F4A01218E
:106AA0000F480CF08BFC01900E4B00224FF48041FC
:106AB00018460CF0A9FC019B0093009B002B02D010
:106AC00000980CF049F900BF03B000BD9D680200BA
:106AD0002C670300FD690200306703009167020024
:106AE00034670300203A002076DF704700BF184665
:106AF0008BDF704700BF18468CDF704700BF184619
:106B000000B583B001900199024809F011F800BF67
:106B100003B000BD9442002000B585B06B4608224A
:106B2000002118460FF024FC094B0093094B0193F8
:106B30006B46184607F0F2F80390039B0293029B02
:106B4000002B02D002980CF007F900BF05B000BD81
:106B5000016B02001440002000B583B00190019841
:106B60000CF0FAF800BF03B000BD00B589B0019089
:106B7000009100238DF81B30009B1B78022B3FD027
:106B8000022B40DC002B02D0012B1ED03BE0009BEF
:106B90005988009B0E331A46019809F095F9059023
:106BA000059B0493049B002B02D004980CF0D4F8AE
:106BB000019809F025F90590059B0393039B002B91
:106BC00020D003980CF0C8F81CE003F069FB0346E2
:106BD0008DF81B300023079302E0079B01330793D6
:106BE000009B9B891A46079B9342F6D3009B9868AB
:106BF000009B9B899DF91B201946FFF76FFD02E062
:106C000000BF00E000BF00BF09B000BD00B587B005
:106C10000B4B01930B4B02930B4B039301AB1946A8
:106C20000A4809F017F80590059B0493049B002B74
:106C300002D004980CF090F800BF07B000BD00BF70
:106C40006B6B0200596B020014400020944200203C
:106C500000B59FB00190019B5B68189300F0C0FAEB
:106C60001790019B1B78062B1AD0062B00F31C8172
:106C7000052B08D0052B00F31781032B14D0042B10
:106C800000F0148110E1019B5B681593159B149330
:106C9000149B002B00F00C8114980CF05DF807E1B8
:106CA000019B5B68169308E1019B5B681393139B40
:106CB000002B00F0FF800023ADF83A30139B986959
:106CC000139B998B0DF13A02092305F0E4F8034672
:106CD000ADF87630BDF87630002B0ED10023ADF83C
:106CE0003A30139B9869139B998B0DF13A02082354
:106CF00005F0D1F80346ADF87630BDF87630002BBC
:106D000000F0D080139B9B69BDF83A201344129386
:106D1000179B20330A93179B40330B93179B6033C9
:106D20000C93179B80330D930423119300238DF84C
:106D3000753000231C9331E01C9B9B0078336B441F
:106D400053F8503C002B23D01C9B9B0078336B44A2
:106D500053F8503C18460FF08AFA1090109B002B05
:106D600018D0BDF87630109A9A4214D81C9B9B001C
:106D700078336B4453F8503C109A194612980FF030
:106D800051FA0346002B06D101238DF8753009E036
:106D900000BF00E000BF1C9B01331C931C9A119B99
:106DA0009A42C9D39DF87530002B00F08580139B63
:106DB00002330F9300238DF86F3000231A932BE0DA
:106DC0003F491A9A1346DB0013440B441B78002BEF
:106DD0001FD01A9A1346DB001344394A1344D81CB7
:106DE0000F9B0133062219460FF01CFA0346002BB5
:106DF0000FD1139B93F9130031491A9A1346DB0004
:106E000013440B44013302461A7001238DF86F308E
:106E100005E01A9B01331A931A9B032BD0DD9DF8D2
:106E20006F3083F00103DBB2002B45D000231993B0
:106E300034E02349199A1346DB0013440B441B78B2
:106E4000002B28D11E49199A1346DB0013440B442A
:106E500001221A70199A1346DB001344184A13448E
:106E6000023307220F9918460FF050FABDF876202A
:106E700002AB129918460FF049FA139B93F91300CD
:106E80000F49199A1346DB0013440B4401330246A1
:106E90001A7000BF10E0199B01331993199B032B43
:106EA000C7DD09E000BF08E000BF06E000BF04E066
:106EB00000BF02E000BF00E000BF00BF1FB000BD88
:106EC0008044002000B587B001900B46ADF8023039
:106ED000019B0593124ABDF802301380BDF80230C1
:106EE000002219460F4808F0EFFF0490049B03931B
:106EF000039B002B02D003980BF02EFF059B9B8871
:106F00001946094806F0CEFF0490049B0293029BA9
:106F1000002B02D002980BF01FFF00BF07B000BD8E
:106F20002840002094420020403A002000B585B05F
:106F300001900B46ADF802301346ADF80030BDF8B5
:106F400002301A460199044808F076FF0390039B2B
:106F5000184605B000BD00BF9442002000B583B0C4
:106F6000084B1B884FF6FF72934207D0054B1B88D6
:106F700013211846FFF7B8FD019000E000BF03B0F1
:106F800000BD00BF2840002000B587B04FF0FF33A0
:106F9000059381238DF813300023039324E02649C1
:106FA000039A1346DB0013440B441B78002B18D0C4
:106FB0002149039A1346DB0013440B44013393F930
:106FC00000309DF913209A420BDA1B49039A1346AD
:106FD000DB0013440B4401331B788DF81330039B03
:106FE0000593039B01330393039B032BD7DD059B81
:106FF000002B01DA05231BE06B460722002118460F
:107000000FF0B6F9059A1346DB0013440A4A1344FD
:107010009A1C6B46106818609188927999809A71D1
:1070200068460123054A0649FFF766FD0290029B68
:10703000184607B000BD00BF804400203A4400203D
:107040004444002000B583B0FFF752FD019000BF1B
:1070500003B000BD00B583B02422002108480FF022
:1070600087F9084808F0A7FA0190019B0093009B5C
:10707000002B02D000980BF06FFE00BF03B000BDE4
:10708000804400203844002000B587B06B460022C1
:107090001A605A609A60DA6000238DF80C306B46F3
:1070A000084A1946084808F02EFA0590059B0493F3
:1070B000049B002B02D004980BF04EFE00BF07B0DB
:1070C00000BD00BF516C02003844002000B585B0FF
:1070D0000190019B084A9A60019B084ADA60FFF719
:1070E0001BFDFFF793FDFFF7CFFF00F079F803904A
:1070F00000BF05B000BD00BFC56E02002D6F0200CD
:10710000BFF34F8F00BF064BDB6803F4E062044916
:10711000044B1343CB60BFF34F8F00BF00BFFDE7AD
:1071200000ED00E00400FA0541DF704700BF18469B
:1071300000B583B00190019B5B68002B02D001F089
:10714000CBFC09E0019B1B78012B02D0022B02D063
:1071500002E000BF00E000BF03B000BD86B00190B8
:1071600000914FF6FF73ADF81630002304932DE025
:10717000019A049B13441B781BB21B021AB2BDF97F
:10718000163053401BB2ADF816300023039317E0BE
:10719000BDF91630002B0BDABDF916305B001BB2BF
:1071A00083F4815383F001031BB2ADF8163004E081
:1071B000BDF816305B00ADF81630039B0133039326
:1071C000039B072BE4D9049B01330493049A009B8F
:1071D0009A42CDD3BDF81630184606B0704700006D
:1071E000014B1846704700BF2C40002008B501E055
:1071F000FFF79AFF04480DF0C1F80346002BF7D1C2
:1072000000BF00BF08BD00BFC839002000B585B071
:10721000019000230393019B23F47F6323F00F036A
:10722000029300230122029904480DF06CF80390A8
:10723000FFF7DCFF039B184605B000BDC8390020EE
:1072400000B589B0059004911346ADF80E300023C7
:107250000793059BC3F30B03002B0DD100230122E1
:10726000059911480DF04FF80790079B002B03D0AC
:1072700001F032FC079B13E0FFF7B8FFBDF80E30BA
:1072800000220092049A059907480CF0EBFF079042
:10729000079B002B01D001F01FFCFFF7A7FF079B06
:1072A000184609B000BD00BFC839002000B587B03E
:1072B000039002911346ADF80630039BB3F5802F7F
:1072C00006D3BDF80620039B1344B3F5EE2F01D976
:1072D000102308E0BDF80630029A039903480CF029
:1072E00088FF0590059B184607B000BDC8390020EF
:1072F000024B01221A7000BF704700BFA444002057
:10730000024B01221A7000BF704700BFA544002045
:1073100008B50A4B1B78002B04D0084B00221A70CA
:1073200000F0B8F8064B1B78002B05D04FF4EC208A
:10733000FFF76CFFFFF7E4FE00BF08BDA544002087
:10734000A444002082B0019000BF02B0704700004A
:1073500000B585B0019000238DF80F30019B5B785C
:10736000082B70D0082B7ADC072B61D0072B76DC3A
:10737000062B49D0062B72DC042B3AD0042B6EDC92
:10738000032B2BD0032B6ADC022B1CD0022B66DCD8
:10739000002B02D0012B0BD061E001238DF80F30C0
:1073A000019B03332022194635480EF076FF56E044
:1073B00001238DF80F30019B0333202219463148F9
:1073C0000EF06BFF4BE001238DF80F30019B033370
:1073D000202219462C480EF060FF40E001238DF872
:1073E0000F30019B03332022194628480EF055FF29
:1073F00035E001238DF80F30019B0333202219461D
:1074000023480EF04AFF2AE001238DF80F30019B3C
:10741000B3F803309AB21A4BA3F8C020184BB3F854
:10742000C030042B1AD8164B0522A3F8C02015E053
:1074300001238DF80F30019BB3F903301AB2104BC2
:10744000A3F8C2200BE001238DF80F30019BB3F8A5
:1074500003309AB20A4BA3F8C42000E000BF9DF8A5
:107460000F30002B08D0FFF74BFF019B19221A7039
:107470001421019802F08EFD00BF05B000BD00BFD1
:107480002C4000204C4000206C4000208C4000200C
:10749000AC40002000B5BDB0EE210F48FFF75EFE06
:1074A00003461A460C4BA3F8EE20F0220A494FF48B
:1074B000EC20FFF7C5FE6B46F02219464FF4EC2096
:1074C000FFF7F4FE6B46F022194603480EF0AAFEC1
:1074D00000BF3DB000BD00BF2C40002000B5BDB0D6
:1074E0006B46F02219464FF4EC20FFF7DFFE6B46A7
:1074F000EE211846FFF732FE03461A46BDF8EE307D
:107500009A4202D0FFF7C6FF06E0064B18466B46CC
:10751000F02219460EF0FAFE0248FFF713FF00BFF3
:107520003DB000BD2C40002000B583B000220949C9
:1075300009480CF042FE0190019B0093009B002B38
:1075400002D000980BF008FCFFF7C8FF00BF03B0A3
:1075500000BD00BF04680300C8390020BFF34F8F8F
:1075600000BF064BDB6803F4E0620449044B13439D
:10757000CB60BFF34F8F00BF00BFFDE700ED00E021
:107580000400FA0582B001904FF0A043184602B003
:10759000704700B585B00190084611461A4603466B
:1075A0008DF803300B468DF8023013468DF801300C
:1075B00001AB1846FFF7E6FF03909DF803209DF806
:1075C00002305B001A439DF801309B001A439DF87E
:1075D00018301B0242EA03019DF81C301B04019A7B
:1075E0001943039B02F5E07243F8221000BF05B077
:1075F00000BD00B585B003900023019300230093E4
:107600000023012201210398FFF7C3FF00BF05B04B
:1076100000BD00B585B003900B468DF80B309DF88A
:107620000B300022019200220092002200210398D8
:10763000FFF7AFFF00BF05B000BD00B585B00190FA
:1076400001AB1846FFF79EFF0390019B012202FA4F
:1076500003F31946039800F06FF800BF05B000BDB2
:1076600000B585B0019001AB1846FFF78BFF039082
:10767000019B012202FA03F31946039800F066F811
:1076800000BF05B000BD00B585B0019001AB184644
:10769000FFF778FF0390039BD3F804350293029B16
:1076A000DA43019B012101FA03F31A40039BC3F85B
:1076B0000825019B01229A40029B1A40039BC3F8B4
:1076C0000C2500BF05B000BD00B585B0019001AB31
:1076D0001846FFF757FF0390039800F01DF8024685
:1076E000019B22FA03F303F00103184605B000BD25
:1076F00000B585B0019001AB1846FFF743FF03903A
:10770000039800F011F80246019B22FA03F303F0FC
:107710000103184605B000BD82B00190019BD3F86B
:107720001035184602B0704782B00190019BD3F823
:107730000435184602B0704782B001900091019B59
:10774000009AC3F8082500BF02B0704782B00190CC
:107750000091019B009AC3F80C2500BF02B070474E
:10776000024B05229A7100BF704700BFAC44002055
:10777000024B0A22DA7200BF704700BFAC440020FF
:10778000024B0122DA7000BF704700BFAC440020FA
:10779000034B01229A70024B0022DA7000BF70473F
:1077A000AC44002008B5094B01225A711820FFF79C
:1077B0009FFF0346002B03D0044B14225A7402E0AF
:1077C000024B0A221A7400BF08BD00BFAC4400205F
:1077D000024B28229A7200BF704700BFAC440020C1
:1077E00082B00190019B452B03D9054B0A221A73E5
:1077F00002E0034B0A225A7300BF02B0704700BF79
:10780000AC44002008B500220021012000F086FAD7
:10781000054B01221A71044B03229A73024B0A2270
:10782000DA7300BF08BD00BFAC44002008B50022D9
:107830000021002000F072FA024B00221A7100BFF2
:1078400008BD00BFAC44002008B501220021002083
:1078500000F064FA064B01225A70054B0F22DA71D0
:10786000034B0F221A72024B0F225A7200BF08BD3F
:10787000AC440020024B00225A7000BF704700BF8A
:10788000AC44002000B583B003468DF80730094AA8
:107890009DF80730137000220021012000F03EFA0D
:1078A000054B01221A70044B05229A7400BF03B0E5
:1078B00000BD00BFA6440020AC440020024B0022C3
:1078C0001A7000BF704700BFAC44002000B583B001
:1078D0000190A04B5B79DBB2002B30D09D4B1B7C21
:1078E000DBB2002B15D09B4B1B7CDBB2013BDAB229
:1078F000984B1A7400220121002000F00FFA954BDA
:107900001B7CDBB2002B40F01D81012002F04EFCFD
:1079100018E1904B5B7CDBB2002B0CD08D4B5B7C79
:10792000DBB2013BDAB28B4B5A74002200210120FA
:1079300000F0F4F906E1874B00225A7102E1854B11
:107940005B78DBB2002B3AD0824BDB79DBB2002BC9
:107950000CD0804BDB79DBB2013BDAB27D4BDA71C4
:1079600001220021002000F0D9F9F0E0794B1B7AC8
:10797000DBB2002B0CD0774B1B7ADBB2013BDAB2C7
:10798000744B1A7200220021012000F0C7F9DEE0DA
:10799000704B5B7ADBB2002B0CD06E4B5B7ADBB2A8
:1079A000013BDAB26B4B5A7200220121002000F039
:1079B000B5F9CCE0FFF75EFF02F0F0FFC7E0654BE2
:1079C0009B78DBB2002B18D01620FFF77DFE034614
:1079D000002B01D0FFF7D4FE5E4BDB78DBB2002B2F
:1079E00005D000220121002000F098F9AFE000222C
:1079F0000021012000F092F9A9E0564B1B79DBB27F
:107A0000002B22D0534BDB7BDBB2013BDAB2514B74
:107A1000DA73504BDB7BDBB2002B40F095804D4B93
:107A20000A22DA730D20FFF72EFE4A4B9B7BDBB256
:107A3000013BDAB2474B9A73464B9B7BDBB2002B80
:107A400040F08280FFF7F2FE7EE0424B1B78DBB213
:107A5000002B11D03F4B9B7CDBB2013BDAB23D4B9C
:107A60009A743C4B9B7CDBB2002B6FD1394B0522C7
:107A70009A7400F083F969E0364BDB7ADBB2002BB5
:107A80000CD0344BDB7ADBB2013BDAB2314BDA7229
:107A900000220021012000F041F958E02D4B9B7A93
:107AA000DBB2002B15D02B4B9B7ADBB2013BDAB259
:107AB000284B9A72274B9B7ADBB2002B03D1002113
:107AC0000020FEF7D1FE00220121002000F026F95F
:107AD0003DE0204B1B7BDBB2002B0CD01D4B1B7BF6
:107AE000DBB2013BDAB21B4B1A73002201210020EA
:107AF00000F014F92BE0174B5B7BDBB2002B0CD0B2
:107B0000144B5B7BDBB2013BDAB2124B5A7300229F
:107B10000121012000F002F919E00E4B9B79DBB244
:107B2000002B0CD00B4B9B79DBB2013BDAB2094B3B
:107B30009A7101220121012000F0F0F807E000F025
:107B4000E1F804E000BF02E000BF00E000BF03B0C6
:107B500000BD00BFAC44002000B585B001901320EB
:107B6000FFF7B2FD0346DAB2244B1A70234B1B78A1
:107B7000002B40D1224B1B680133214A1360204B5C
:107B80001B680A2B08D11820FFF7B2FD0346002B13
:107B900023D0FFF759FE20E0194B1B68032B0FD1B0
:107BA0001820FFF7A5FD0346002B04D1FFF7FAFDCF
:107BB00000F0A2F811E0FFF7F5FD00F097F80CE0F7
:107BC0000F4B1B68062B08D11820FFF791FD0346C9
:107BD000002B02D0022002F0E9FA0A4B00224FF4F7
:107BE000804118460BF010FC0390039B002B02D041
:107BF00003980BF0B1F800BF05B000BDBF440020F2
:107C0000A84400202041002000B587B001900B4619
:107C10008DF80330019B132B09D0019B132B5CD8EB
:107C2000019B072B4BD0019B112B40D055E013201B
:107C3000FFF74AFD0346DAB2294B1A70284B1B782E
:107C4000002B22D0274B18460BF02BFC0490264B20
:107C50001B68002B3CD11820FFF74AFD0346002B80
:107C600036D0FEF721FC0390039B452B03D90398E4
:107C7000FFF7B6FD2CE0039B1D2B03D90398FFF7FC
:107C8000AFFD25E0FFF7BEFD22E0174B00221A6092
:107C9000144B00224FF4804118460BF0B5FB0590C1
:107CA000059B002B14D005980BF056F810E011201E
:107CB000FFF70AFD0346002B0CD0FFF74FFC07200F
:107CC000FFF702FD0346002B06D001F09DF803E00C
:107CD00000BF02E000BF00E000BF00BF07B000BD72
:107CE000BF44002020410020A844002008B51820EF
:107CF000FFF7B6FC00BF08BD08B51820FFF79DFCD4
:107D000000BF08BD08B50B20FFF7AAFC0C20FFF749
:107D1000A7FC0D20FFF7A4FC00BF08BD00B583B091
:107D200003468DF807300B468DF8063013468DF864
:107D300005309DF80730002B03D00D20FFF77DFCA8
:107D400002E00D20FFF78CFC9DF80630002B03D0DD
:107D50000B20FFF772FC02E00B20FFF781FC9DF87F
:107D60000530002B03D00C20FFF767FC02E00C204D
:107D7000FFF776FC00BF03B000BD000008B51D4B47
:107D80001B78002B1AD11C4B1B78002B09D01A4BE7
:107D900000221A700D20FFF763FC0C20FFF74DFC4A
:107DA00008E0154B01221A700D20FFF746FC0C204D
:107DB000FFF756FC0B20FFF753FC19E00E4B1B7826
:107DC000002B09D00C4B00221A700D20FFF748FC45
:107DD0000B20FFF732FC08E0074B01221A700D2040
:107DE000FFF72BFC0B20FFF73BFC0C20FFF738FCC8
:107DF00000BF08BDA6440020C044002000B595B0D7
:107E0000132009F001F8132009F02EF908F0F0FF13
:107E1000034683F00103DBB2002B08D008F084FF97
:107E20001390139B002B02D013980AF095FFA24ADF
:107E30000021A2480BF0C2FA1290129B002B02D034
:107E400012980AF089FF9E4A01219E480BF0B6FA6B
:107E50001190119B002B02D011980AF07DFF0B208E
:107E6000FFF7C7FB0C20FFF7C4FB0D20FFF7C1FB9A
:107E70001820FFF7BEFBFFF745FFFFF737FF924BD8
:107E8000002240F2666118460BF0BEFA1090109B7B
:107E9000002B02D010980AF05FFF4FF420330F93AD
:107EA0004FF480430E9300238DF817300023049382
:107EB0000023039300230D9300238DF8333000211A
:107EC0001620FFF7A6FB00211320FFF7A2FB0021DD
:107ED0001120FFF79EFB1120FFF7F6FB0346002B56
:107EE0004ED002F0A7F9FFF753FC0BF01FFB0D90EB
:107EF0001320FFF7E9FB0346002B0CBF01230023EF
:107F00008DF833301320FFF7DFFB0346002B2ED113
:107F10009DF81730DBB283F00103DBB2002B07D0F2
:107F200001238DF817300D9B04930D9B0393DCE721
:107F3000049B19460D980BF0EEFA0790039B194627
:107F40000D980BF0E8FA02460E9B934204D80D9B65
:107F50000393079B9B0B0693079A0F9B9A42C4D3EC
:107F6000594B18460BF09DFA00F000FEBDE79DF856
:107F70001730DBB2002BB8D000238DF81730B4E7F0
:107F800003238DF8083000238DF809309DF80A305E
:107F900023F001038DF80A309DF80A3023F0020324
:107FA0008DF80A309DF80A3023F004038DF80A306A
:107FB00000238DF8093002AB444A1946132008F01B
:107FC0004DFF0B900B9B002B02D00B980AF0C4FEC8
:107FD0000121132008F0B2FF03238DF804300023A1
:107FE0008DF805309DF8063023F001038DF806303A
:107FF0009DF8063023F002038DF806309DF8063018
:1080000023F004038DF8063000238DF8053001AB12
:108010002E4A1946072008F021FF0A900A9B002BE0
:1080200002D00A980AF098FE0121072008F086FF86
:1080300003238DF8003000238DF801309DF80230C5
:1080400023F001038DF802309DF8023023F0020383
:108050008DF802309DF8023023F004038DF80230D1
:1080600000238DF801306B46184A1946112008F09C
:10807000F5FE0990099B002B02D009980AF06CFECE
:108080000121112008F05AFF1320FFF71DFB0346C2
:10809000002B0DD10E4B00224FF4804118460BF0FF
:1080A000B3F90890089B002B02D008980AF054FE00
:1080B00000BF15B000BD00BF597B02004C67030034
:1080C000CD7802005067030040410020097C020087
:1080D0002041002072DF704700BF184673DF7047F1
:1080E00000BF184674DF704700BF184676DF704740
:1080F00000BF184677DF704700BF18467CDF704727
:1081000000BF184633DF704700BF184600B585B082
:10811000019000238DF80B3000238DF80A30019B6D
:108120001B78002B01D0032B1AE002F0B9F80346AC
:108130008DF80B300023039302E0039B013303937C
:10814000019B9B8A1A46039B9342F6D3019B1869B5
:10815000019B9B8A9DF90B201946FEF7BFFA00BFD1
:1081600000BF05B000BD00B583B0FFF7CBFF0190A5
:10817000019B0093009B002B02D000980AF0ECFDBD
:1081800000BF03B000BD00B583B003468DF80730D3
:108190009DF80730002B01D0032B02E0FFF7E3FF2F
:1081A00000BF00BF03B000BD00B583B001900198CF
:1081B0000AF0D2FD00BF03B000BD000000B587B0DB
:1081C00000230193144B019301AB1946134806F0A9
:1081D00060FF0590059B0493049B002B02D004983C
:1081E0000AF0BAFD02AB0422002118460EF0C0F8D6
:1081F0000B4B029302AB19460A4807F089FB059026
:10820000059B0393039B002B02D003980AF0A4FD67
:1082100000BF07B000BD00BFA9810200CC44002010
:108220000D8102006C41002000B5AFB001ABAC2263
:10823000002118460EF09CF802238DF8043000232C
:108240008DF8063005238DF807300123ADF8503046
:10825000114B159301238DF87C3001238DF880306C
:10826000A0232393002324930C4B2A9301AB19469C
:108270000B4804F0DFF82D902D9B2C932C9B002BAA
:1082800002D02C980AF068FD0121054804F0C5F8D9
:1082900000BF2FB000BD00BF8841002087810200D1
:1082A000D844002000B585B001900B46ADF80230EF
:1082B0000A4ABDF802301380BDF80230194608485A
:1082C00006F009FF0390039B0293029B002B02D050
:1082D00002980AF041FD00BF05B000BD60410020DA
:1082E000CC44002000B585B001900B46ADF80230BB
:1082F0001346ADF80030BDF800300DF102020199CF
:10830000034807F0ABFB0390039B184605B000BD84
:108310006C41002000B583B0084B1B884FF6FF72FC
:10832000934207D0054B1B8813211846FFF7DEFE4A
:10833000019000E000BF03B000BD00BF604100201D
:1083400000B583B00B4B93F854301846FFF7CAFEC4
:108350000190019B002B0AD0019B082B07D0019BA9
:108360000093009B002B02D000980AF0F5FC00BFA0
:1083700003B000BDD844002000B585B001909DF841
:108380000830012262F303038DF808309DF80830AD
:10839000012262F307138DF8083001980DF067FF92
:1083A00003469AB202AB01991846FFF7A7FE039065
:1083B00000BF05B000BD000000B59BB0FEF710FF88
:1083C000189000238DF8673008AB3C220021184636
:1083D0000DF0CEFF02238DF8203004238DF82330DA
:1083E00000238DF8223001F0EBFC0346002B07D070
:1083F0001E4B44F221321A8004238DF8673008E0C6
:108400001A4B41F234221A80189BB3F9C2308DF80E
:108410006730189B03F1A0026B46154918460DF012
:1084200061FC124A6B4693606B4618460DF01FFFC5
:1084300003469AB20D4B9A800C4B129301238DF890
:108440004C300C4B93F8543019469DF967301A465E
:108450000120FFF74FFE179008AB00221946054890
:1084600004F001FA179000BF1BB000BD0C490020BA
:1084700054670300D844002000B595B0FEF7B0FE65
:108480001390254B1B788DF806300123ADF804308E
:1084900002AB3C22002118460DF06AFF06238DF83E
:1084A0000B3002238DF8083001F08AFC0346002BC4
:1084B00004D01A4B44F221321A8003E0174B41F2E8
:1084C00034221A80139BA033144A9360139BA03369
:1084D00018460DF0CCFE03469AB2104B9A800F4B13
:1084E0000C9301238DF8343002AB002219460C485E
:1084F00004F0B9F9129004238DF84730084B93F833
:10850000543019469DF947301A460120FFF7F2FD15
:10851000129000BF15B000BD6C410020184900202A
:10852000D844002000B589B0034600918DF807308B
:10853000FEF756FE07909DF80730002B35D0079BBD
:108540001846FFF719FFFFF737FF264B052283F880
:108550003C20079BB3F8C430DB00234A82FB0312A4
:108560005210DB17D31A1A461E4B5A641F4A204971
:108570002048FFF7AFFD0690069B0493049B002B59
:1085800002D004980AF0E8FB164B93F8543001210E
:108590001846FFF7A3FD0690069B0393039B002B51
:1085A0001DD003980AF0D8FB19E0079B1846FFF787
:1085B000E3FEFFF761FF0B4BA0225A61094B01223A
:1085C00083F83C200321074804F00CF80690069B32
:1085D0000593059B002B02D005980AF0BDFB00BF58
:1085E00009B000BDD84400206766666614450020C7
:1085F000E84800202C45002000B583B00190019B85
:10860000054A1A60019B054A5A60FFF7D7FDFFF73C
:108610000BFE00BF03B000BDA5820200E582020090
:1086200076DF704700BF18467FDF704700BF1846EF
:108630008FDF704700BF1846B1DF704700BF184694
:1086400082B001904FF0A043184602B0704700B5C9
:1086500085B00190084611461A4603468DF803304E
:108660000B468DF8023013468DF8013001AB1846E9
:10867000FFF7E6FF03909DF803209DF802305B00B2
:108680001A439DF801309B001A439DF818301B02D5
:1086900042EA03019DF81C301B04019A1943039B15
:1086A00002F5E07243F8221000BF05B000BD00B52E
:1086B00085B003900023019300230093002301223F
:1086C00001210398FFF7C3FF00BF05B000BD00B54F
:1086D00085B003900B468DF80B309DF80B300022CF
:1086E000019200220092002200210398FFF7AFFFC1
:1086F00000BF05B000BD00B585B0019001AB1846C4
:10870000FFF79EFF0390019B012202FA03F3194633
:10871000039800F053F800BF05B000BD00B585B068
:10872000019001AB1846FFF78BFF0390019B0122DC
:1087300002FA03F31946039800F04AF800BF05B0A7
:1087400000BD00B585B0019001AB1846FFF778FF7A
:108750000390039BD3F804350293029BDA43019BF9
:10876000012101FA03F31A40039BC3F80825019B7A
:1087700001229A40029B1A40039BC3F80C2500BFBC
:1087800005B000BD00B585B0019001AB1846FFF7FC
:1087900057FF0390039800F009F80246019B22FA64
:1087A00003F303F00103184605B000BD82B0019049
:1087B000019BD3F81035184602B0704782B0019083
:1087C0000091019B009AC3F8082500BF02B07047D2
:1087D00082B001900091019B009AC3F80C2500BF64
:1087E00002B0704700B58BB00190009100238DF866
:1087F0002730019B1B88562B68D0562B76DC522BDA
:1088000043D0522B72DC3B2B50D03B2B6EDC212B08
:1088100013D0212B6ADC132B26D0132B66DC102BF4
:1088200066D0112B00D061E0019B1B7A8DF80B30D4
:10883000364B4FF6FF721A8065E000238DF8083042
:1088400000238DF80930019B9B8802AA1146184627
:10885000FFF7EEFE0890089B0493049B002B49D081
:1088600004980AF079FA45E0284B18880023002282
:108870008521FFF7D9FE0890089B0393039B002BEB
:108880003AD003980AF068FA36E0204B18880023A3
:1088900000220021FFF7D0FE0890089B0693069B5C
:1088A000002B2BD006980AF057FA27E0019B9B88F3
:1088B00013211846FFF7B4FE0890089B0593059B0B
:1088C000002B1DD005980AF047FA19E0019B9B8800
:1088D00013211846FFF7A4FE0890089B0793079BF7
:1088E000002B0FD007980AF037FA0BE000BF0AE020
:1088F00000BF08E000BF06E000BF04E000BF02E0E8
:1089000000BF00E000BF00BF0BB000BDD0410020A1
:1089100008B50CF071FA00BF08BD00B583B0019036
:108920000B468DF80330019B132B08D0019B132BB2
:108930001CD8019B072B10D0019B112B16E0132094
:10894000FFF720FF0346002B03D00C20FFF7E6FEC5
:108950000CE00C20FFF7CFFE08E00720FFF712FF26
:108960000346002B01D000F04FFA00BF00BF03B058
:1089700000BD000000B589B0554A02AB126811462F
:1089800019800233120C1A7002AB524A1946132096
:1089900008F064FA0790079B002B02D007980AF0B2
:1089A000DBF90121132008F0C9FA03238DF8043004
:1089B00000238DF805309DF8063023F001038DF873
:1089C00006309DF8063023F002038DF806309DF83E
:1089D000063023F004038DF8063000238DF80530AF
:1089E00001AB3C4A1946112008F038FA0690069B64
:1089F000002B02D006980AF0AFF90121112008F0EF
:108A00009DFA03238DF8003000238DF801309DF886
:108A1000023023F001038DF802309DF8023023F07C
:108A200002038DF802309DF8023023F004038DF824
:108A3000023000238DF801306B46264A1946072084
:108A400008F00CFA0590059B002B02D005980AF05F
:108A500083F90121072008F071FA01211620FFF7A0
:108A600036FE0B20FFF723FE0C20FFF720FE0D2023
:108A7000FFF71DFE1820FFF71AFE1820FFF74EFE25
:108A80000AF054FD04904FF4004303930B20FFF7CA
:108A900032FE0C20FFF72FFE0D20FFF72CFE00BF4B
:108AA0000AF044FD0346049918460AF034FD0246D4
:108AB000039B9342F4D80B20FFF730FE0C20FFF706
:108AC0002DFE0D20FFF72AFE00BF09B000BD00BF3C
:108AD000606703001B890200024B01221A7000BF6D
:108AE000704700BF4549002000B585B00190104B8C
:108AF0001B6801330E4A13600D4B1B68092B02D90A
:108B00000C4B01221A70FDF7C9FC0390039B41F244
:108B1000CB02934204D8039B40F64852934203D8B9
:108B2000054B01221A7000BF00BF05B000BD00BF99
:108B300040490020454900204449002000B583B049
:108B40000190084B1B78002B02D00B20FFF7F9FD9A
:108B5000054B1B78002B02D00D20FFF7F2FD00BF64
:108B600003B000BD444900204549002000B585B050
:108B7000FFF700FFFDF76AFDFEF7D6FC00F01AF9DB
:108B800000F04AFB01F0A6FB00210020FFF7CAFC21
:108B9000174A012117480AF011FC0390039B029326
:108BA000029B002B02D002980AF0D6F8124B00224A
:108BB0004FF4804118460AF027FC104A0121104862
:108BC0000AF0FCFB0390039B0193019B002B02D056
:108BD00001980AF0C1F80B4B00224FF4804118466F
:108BE0000AF012FC00F018FBFFF792FEFAE700BF54
:108BF000E98A020058670300904100203D8B020083
:108C00005C670300B041002008B5064B00221A60E3
:108C10000AF08CFC0346044A1360044B00221A70CD
:108C200000BF08BD484900204C49002050490020A1
:108C300000B58DB00190019BD3F802300B930AF080
:108C400075FC0346074A1360074A0B9B1360074BEA
:108C500001221A7002AB184600F030F800BF0DB0C8
:108C600000BD00BF4C490020484900205049002069
:108C700000B585B00E4B1B7883F00103DBB2002BEF
:108C800001D0002310E00AF051FC0390094B1B684F
:108C9000194603980AF03FFC0290029BDB0B0193FC
:108CA000054B1A68019B1344184605B000BD00BF70
:108CB000504900204C4900204849002030B585B07B
:108CC0000190FFF7D5FF03460293019B002B11D0C3
:108CD00002AB18460DF091FC0390039B002B09D0CA
:108CE000019A039B14461D460FCD0FC40FCD0FC430
:108CF0002B68236000BF05B030BD82B001904FF0FB
:108D0000A043184602B0704700B585B0019001AB92
:108D10001846FFF7F2FF0390039800F009F80246A7
:108D2000019B22FA03F303F00103184605B000BDCE
:108D300082B00190019BD3F81035184602B07047FD
:108D400000B585B00023ADF804301B238DF80C303E
:108D500001AB1946002000F0B4FDBDF80430C3F3A8
:108D600008039BB2ADF80E30BDF80E30184605B0C2
:108D700000BD000000B583B00023019310E00C4A51
:108D8000019B12F813308DF8003000238DF801306C
:108D90006B460221184600F0E1FC019B0133019370
:108DA000019B052BEBD900BF00BF03B000BD00BF86
:108DB000D441002000B583B000F024FDFFF7DAFFB6
:108DC0000023019314E00F4A019B12F813308DF831
:108DD00000300C4A019B5B0013445B788DF8013036
:108DE0006B460221184600F0B9FC019B0133019348
:108DF000019B052BE7D9FFF7A3FF00F0EBFC00BFB9
:108E000003B000BDD4410020024B01221A7000BF04
:108E1000704700BF5149002000B589B00346ADF846
:108E200006300B46ADF804301346ADF80230BDF9FC
:108E3000063007EE903AF8EEE77A9FED267A67EE75
:108E4000877ACDED067ABDF9043007EE903AF8EE58
:108E5000E77A9FED207A67EE877ACDED057ABDF946
:108E6000023007EE903AF8EEE77A9FED1A7A67EE55
:108E7000877ACDED047ADDED067A27EEA77ADDED6F
:108E8000057A67EEA77A37EE277ADDED047A67EE8A
:108E9000A77A77EE277AB0EE670A0CF013FE8DED15
:108EA000030ADDED037AB7EE007A77EEC77ACDEDEF
:108EB000077ADDED077AF5EEC07AF1EE10FA02D509
:108EC0004FF000030793079B07EE903AB0EE670A56
:108ED00009B000BD40DA7F3800B587B00346ADF871
:108EE00006300B46ADF804301346ADF80230BDF93C
:108EF000063007EE903AF8EEE77A9FED237A67EEB8
:108F0000877ACDED047ABDF9043007EE903AF8EE99
:108F1000E77A9FED1D7A67EE877ACDED037ABDF98A
:108F2000023007EE903AF8EEE77A9FED177A67EE97
:108F3000877ACDED027ADDED047A27EEA77ADDEDB2
:108F4000037A67EEA77A37EE277ADDED027A67EECD
:108F5000A77A77EE277AB0EE670A0CF0B3FD8DEDB5
:108F6000050ADDED057AB0EE007AF4EEC77AF1EE8F
:108F700010FA02D54FF000030593059B07EE903AD7
:108F8000B0EE670A07B000BD295C8F3D00B58FB019
:108F900001904FF000030D934FF000030C9300235A
:108FA000ADF82E300023ADF82C3000230A93A9E051
:108FB0000A9A1346DB009B1A0693069B019A1344F8
:108FC0001B78DB088DF817309DF81730022B49D13C
:108FD000069B0233019A13441B781BB21B021AB280
:108FE000069B013301990B441B781BB21343ADF868
:108FF0000E30069B0433019A13441B781BB21B02EC
:109000001AB2069B033301990B441B781BB213431E
:10901000ADF80C30069B0633019A13441B781BB243
:109020001B021AB2069B053301990B441B781BB235
:109030001343ADF80A30BDF90E20BDF90C10BDF98F
:109040000A301846FFF7E8FEB0EE407ADDED0D7A03
:1090500077EE877ACDED0D7ABDF82E300133ADF87D
:109060002E304CE09DF81730012B48D1069B02337F
:10907000019A13441B781BB21B021AB2069B0133E0
:1090800001990B441B781BB21343ADF81430069BB7
:109090000433019A13441B781BB21B021AB2069BBD
:1090A000033301990B441B781BB21343ADF8123004
:1090B000069B0633019A13441B781BB21B021AB29B
:1090C000069B053301990B441B781BB21343ADF883
:1090D0001030BDF91020BDF91210BDF9143018463A
:1090E000FFF7FAFEB0EE407ADDED0C7A77EE877A84
:1090F000CDED0C7ABDF82C300133ADF82C300A9B45
:1091000001330A930A9B4A2B7FF752AF4FF00003BB
:109110000993BDF82E30002B0CD0BDF82E3007EE91
:10912000903AB8EE677ADDED0D6AC6EE877ACDED3E
:10913000087A02E04FF000030893BDF82C30002BB2
:109140000CD0BDF82C3007EE903AB8EE677ADDED22
:109150000C6AC6EE877ACDED077A02E04FF0000385
:109160000793BDF82E30002B0FD0BDF82E3007EE40
:10917000903AB8EE677ADDED0D6AC6EE877A9DED1E
:10918000097A77EE277ACDED097ABDF82C30002BDD
:1091900013D0BDF82C3007EE903AB8EE677ADDEDCB
:1091A0000C6AC6EE877A9FED0B7A67EE877A9DEDA3
:1091B000097A77EE277ACDED097ADDED097A9FED10
:1091C000067A67EE877AFCEEE77A17EE903A184651
:1091D0000FB000BD6F12033B00007A4400B585B0AC
:1091E00001900B46ADF8023078238DF80D30002346
:1091F0008DF80F3000238DF80E30BDF802300DF1E0
:109200000D00019A012100F0BDFA0198FFF7BEFEA2
:109210000346184605B000BD00B583B00023019396
:10922000144B1B78002B05D10720FFF76DFD03467B
:10923000002B1BD000F0E6FAFFF782FD0346ADF8E5
:1092400002300C4B00221A70BDF802304A2B08D9AC
:1092500040F20D210848FFF7C1FF0190019800F08E
:10926000FDF800F0B7FA0020FDF724F900BF03B0C5
:1092700000BD00BF514900205449002000B589B00D
:109280000190019B002B3ED0019BDB788DF81F30B5
:10929000019B9B788DF81E309DF81F30002B34D039
:1092A0009DF81F30102B30D8019B5B78012B17D114
:1092B0009DF81E308DF80C30019B191D9DF81F2064
:1092C00003AB013318460DF021F89DF81F309BB217
:1092D00001339AB203AB1146184600F03FFA0DE095
:1092E000019B5B78002B12D1019B1A1D9DF81F304A
:1092F0009BB20DF11E00012100F044FA14210198E7
:1093000000F048FE04E000BF02E000BF00E000BF44
:1093100009B000BD014B1846704700BF644B0020E8
:1093200086B00190019B08330593059BA3F580222D
:10933000144BA3FB0213590B0B465B000B441B039E
:10934000D31A0493049BB3F5345F0FD3059BA3F5A5
:1093500080230C4AA2FB03235B0B0393039A13465F
:109360005B0013441B0303F586230593059BB3F5AC
:10937000982F02D34FF480230593059B184606B01F
:10938000704700BFABAAAAAA8EB000230D9300239A
:109390000C932F4B1B680B932E4B1B680A930B9A55
:1093A0000A9B9A421CD80A9A0B9BD31A0D930B9BCB
:1093B000A3F58023284AA2FB03235B0B03930A9B9C
:1093C000A3F58023244AA2FB03235B0B0293029A9A
:1093D000039BD21A13465B0013441B020C9327E035
:1093E0000A9A0B9BD31A03F540430D930B9BA3F5ED
:1093F0008023194AA2FB03235B0B099304230893E0
:109400000A9BA3F58023144AA2FB03235B0B07935B
:10941000089A099BD31A0693079B0593069A059B06
:1094200013440493049A13465B0013441B020C93E9
:109430000D9A0C9B9A4201D2002305E00D9A0C9BD9
:10944000D31A0193019BDB0818460EB0704700BF8A
:10945000EC410020E8410020ABAAAAAA00B589B0DF
:10946000019002AB0822002118460CF081FF354B19
:109470001B690133334A1361324B5A69019B134410
:10948000304A5361FDF7ACFE07902E4B1B69079ADB
:10949000B2F8C0202C49A1FB0212920892B293426A
:1094A0004DD32A4B1B681846FFF73AFF0690284B0E
:1094B0001B68069A9A4220D1244B1A68244B1B68D9
:1094C0009A421AD0224B1B68A3F58023214AA2FBA3
:1094D00003235B0B0593059A13465B0013441B03A0
:1094E00003F586231A4A1360194B1B68B3F5982FAE
:1094F00003D3174B4FF480221A60124B5A69114B59
:109500001B69B2FBF3F39BB2ADF808300F4B1B683D
:1095100002A908221846FDF793FE0490049B002B35
:1095200002D10A4A069B13600B4B1B6801330A4A9F
:109530001360044B00225A61024B00221A6100BFE3
:1095400009B000BD644B0020CDCCCCCCE041002064
:10955000E4410020ABAAAAAAE04B002000B589B0E4
:10956000019000238DF81F30019B02330693454B79
:109570001A68454B1B689A4264D100237FE0414B37
:109580001B6803A908221846FDF790FEBDF80C10D1
:109590009DF81F305B00069A1A440B46C3F30D0377
:1095A00099B2138861F30D0313809DF81F305B009F
:1095B000069A13441B88C3F30D039BB2C82B0AD928
:1095C0009DF81F305B00069A1A445378022161F31C
:1095D000871353701EE09DF81F305B00069A1344FA
:1095E0001B88C3F30D039BB2502B0AD99DF81F3083
:1095F0005B00069A1A445378012161F38713537074
:1096000008E09DF81F305B00069A1A44537823F057
:10961000C00353709DF81F3001338DF81F30194B74
:109620001B681846FFF77CFE0590164B1B68059AD1
:109630009A4204D1144B1B68124A13600CE0114A81
:10964000059B13609DF81F30082B05D80D4B1A6839
:109650000D4B1B689A4292D19DF81F30002B07D00A
:10966000084B1A68084B1B689A4201D0012306E098
:109670009DF81F30002B01D0002300E00023184686
:1096800009B000BDEC410020E8410020024B1B68FE
:10969000024A136000BF7047EC410020E441002003
:1096A000044B1B68044A1360044B1B68044A136094
:1096B00000BF7047E0410020E8410020E441002065
:1096C000EC41002082B001904FF0A043184602B058
:1096D000704700B585B00190084611461A4603460A
:1096E0008DF803300B468DF8023013468DF80130AB
:1096F00001AB1846FFF7E6FF03909DF803209DF8A5
:1097000002305B001A439DF801309B001A439DF81C
:1097100018301B0242EA03019DF81C301B04019A19
:109720001943039B02F5E07243F8221000BF05B015
:1097300000BD00B585B003900B468DF80B309DF849
:109740000B30002201920022009200220021039897
:10975000FFF7BFFF00BF05B000BD000000B585B03A
:1097600003900B46ADF80A30BDF80A300022009293
:10977000039A6A21024809F007FA00BF05B000BD4C
:109780006467030000B587B0059003921A460B4644
:10979000ADF812301346ADF81030BDF8123001228A
:1097A0000092059A6A210A4809F0EEF9BDF81030D6
:1097B000002B09D0039B002B06D0BDF81030039A74
:1097C0006A21034809F007FA00BF07B000BD00BFD7
:1097D0006467030008B5084808F0B4FE064808F0BE
:1097E0004FFE064B0022C3F80025054B00221A60ED
:1097F000034B1B6800BF08BD6467030000300040D6
:10980000FC3F004010B586B003211920FFF791FFFF
:1098100003211A20FFF78DFF114B0122C3F8002509
:10982000104B01221A600F4B1B680F4B6C460FCB7D
:1098300084E80F006946002300220C4808F08AFDE6
:109840000590059B0493049B002B02D0049809F01B
:1098500083FA064808F05AFE00BF06B010BD00BFEC
:1098600000300040FC3F00406C6703006467030069
:1098700000B587B0039001921A460B468DF80B3065
:109880001346ADF8083000230593BDF808300DF1FC
:109890000B00019A0121FFF775FF059B184607B0E1
:1098A00000BD82B001900091019B002B06D0009B6F
:1098B000002B03D0009B1A78019B1A7000BF02B0E6
:1098C000704700B587B0019000910023ADF81030CB
:1098D00000238DF80C300023059304AA02231B21DA
:1098E0000198FFF7C5FF0590059B002B01D0059B54
:1098F00041E004AB5A1C03AB11461846FFF7D1FFF9
:109900009DF80C30C3F30013D9B2009A537861F379
:10991000410353709DF80C30C3F38013D9B2009A01
:10992000537861F3C30353709DF80C30C3F34013B5
:10993000D9B2009A537861F3820353709DF80C30CA
:10994000C3F3C013D9B2009A537861F30413537070
:109950009DF810301AB29DF811301BB21B021BB2D9
:1099600013431BB2C3F3080399B2009A138861F33F
:1099700008031380059B184607B000BD76DF7047CB
:1099800000BF18467ADF704700BF18467FDF704778
:1099900000BF184688DF704700BF184689DF704750
:1099A00000BF18468EDF704700BF18468FDF704734
:1099B00000BF1846B1DF704700BF18463FDF704751
:1099C00000BF184600B585B06B4608220021184636
:1099D0000CF0CEFC5023ADF80030A023ADF80230DF
:1099E0000423ADF804304FF41673ADF806306B461F
:1099F0001846FFF7C7FF0390039B0293029B002BBF
:109A000002D0029809F0A8F900BF05B000BD00001F
:109A100000B585B00190019B1B78002B0ED1094B3E
:109A20001B883B211846FFF7A9FF0390039B029375
:109A3000029B002B02D0029809F08EF900BF05B0FE
:109A400000BD00BFF041002000B583B00190019837
:109A500009F082F900BF03B000BD000000B58BB073
:109A600001AB1C22002118460CF082FC002301935C
:109A70004FF4A03302934FF4F023039303238DF8A4
:109A800010300023ADF8123000238DF814300A4B4B
:109A900006930A4B079301AB184603F0B3F80990FD
:109AA000099B0893089B002B02D0089809F054F9F1
:109AB00000BF0BB000BD00BF119A0200499A02001E
:109AC00000B58DB00190009100238DF82F30019BDF
:109AD0001B88562B00F0B780562B00F3C480522B06
:109AE00000F09080522B00F3BE803B2B00F09B8057
:109AF0003B2B00F3B880212B5CD0212B00F3B380EB
:109B0000132B6ED0132B00F3AE80102B02D0112B31
:109B100033D0A8E0FDF75CFE019B9A88594B1A8070
:109B2000594B1B78022B02D0032B0BD018E0574B5C
:109B30009B68544A1288114601989847544B00225A
:109B40001A700DE0514B1B684E4A1288114601985D
:109B500098474F4B01221A70019B0833039300BFB3
:109B600001214C4800F042FA00220021002000F0C0
:109B7000C3FA494B04221A7080E0019B9B88ADF820
:109B80001230404B1B884FF6FF72934204D03D4B7E
:109B90001B881846FFF702FF00F02AFB012000F0A7
:109BA00005FB0021002000F021FA364B4FF6FF7232
:109BB0001A8063E000238DF8083000238DF8093007
:109BC000019B9B8802AA11461846FFF7EFFE0A90F8
:109BD0000A9B0693069B002B47D0069809F0BCF819
:109BE00043E0284B1888002300228521FFF7CEFE92
:109BF0000A900A9B0593059B002B38D0059809F025
:109C0000ABF834E01F4B1888002300220021FFF737
:109C1000D1FE0A900A9B0893089B002B29D0089834
:109C200009F09AF825E0019B9B8813211846FFF75D
:109C3000A5FE0A900A9B0793079B002B1BD0079851
:109C400009F08AF817E0019B9B8813211846FFF75B
:109C500095FE0A900A9B0993099B002B0DD0099849
:109C600009F07AF809E000BF08E000BF06E000BF95
:109C700004E000BF02E000BF00E000BF00BF0DB085
:109C800000BD00BFF0410020134C0020004C00201C
:109C900058420020A0BB0D00124C002000B587B038
:109CA0000BF0EAFC0590059B0493049B002B02D06B
:109CB000049809F051F80023019301AB19460120E3
:109CC0000BF0E0FD0590059B0393039B002B02D056
:109CD000039809F041F801AB18460BF04BFE0590D4
:109CE000059B0293029B002B02D0029809F034F8E6
:109CF00000BF07B000BD000082B001900091009B42
:109D00005A88094B1B889A420BD1009B1B8840F64E
:109D10007722934205D1009B9B88033B9AB2034B69
:109D20001A8000BF02B07047F0410020F2410020CD
:109D300000B585B01549164804F0D1FC0390039B8B
:109D40000293029B002B02D0029809F005F817211C
:109D50000F4804F0EEFC0390039B0193019B002B42
:109D600002D0019808F0F8FFFB224FF6FF71084877
:109D700004F0FBFC0390039B0093009B002B02D09C
:109D8000009808F0E9FF00BF05B000BDF99C020093
:109D9000E44B002000B583B00BF018F80190019B54
:109DA0000093009B002B02D0009808F0D5FF00BF65
:109DB00003B000BD08B50BF01FF800BF08BD0000E0
:109DC000064B1B78032B03D0044B1B78042B01D1CB
:109DD000012300E00023DBB218467047124C00203C
:109DE00000B585B00190FDF7FBF90390304B1A7870
:109DF000304B1A702F4B1B78042B48D0042B53DCAC
:109E0000032B34D0032B4FDC022B1ED0022B4BDC58
:109E1000002B02D0012B10D046E00020FDF732FDD0
:109E200000210120FEF77EFBFDF714F942F21072CB
:109E30000121012000F060F936E000F0ABF9642266
:109E40000121022000F058F92EE0FDF79DF80346AD
:109E5000002B05D064220121032000F04DF923E0FE
:109E600040F6B8320121032000F046F91CE000F072
:109E700091F90120FDF706FD00210020FEF752FBBD
:109E800042F210720121042000F036F90CE0FEF7D6
:109E900057FAFDF713FDFDF76BFC42F2107201213A
:109EA000002000F029F900BF00BF05B000BD00BFD1
:109EB000114C0020134C002000B585B001900C4BD4
:109EC0001B884FF6FF72934204D000F0E9F9034675
:109ED0008DF80F309DF90F3019460020FCF764FC17
:109EE0000121044800F082F800BF05B000BD00BFAA
:109EF000F0410020A0BB0D0000B583B00190234BC2
:109F00001B78062B3AD0062B3ADC052B2DD0052BDF
:109F100036DC042B1CD0042B32DC022B0FD0022B9E
:109F20002EDC002B2ED0012B00D029E06422012151
:109F3000002000F0E1F8154B03221A7023E06422A0
:109F40000121032000F0D8F8104B03221A701AE008
:109F5000FEF7F6F90E4B1B88002200211846FFF78A
:109F600019FD0A4B05221A700DE000210120FEF7B1
:109F7000D9FA00F055F9054B06221A7000BF02E02D
:109F800000BF00E000BF00BF03B000BD124C0020C6
:109F9000F041002000B585B001900B46ADF80230CD
:109FA000062303930E4B1B78002B0BD0012B13D1F0
:109FB0000C4B5B680C4A1288BDF802100198984758
:109FC000039009E0074BDB68074A1288BDF80210CE
:109FD00001989847039000BF039B184605B000BD49
:109FE00058420020004C0020F0410020F0B587B01E
:109FF00001900B468DF80330019B00221C4615464C
:10A000004FF000024FF00003EB0343EA5443E20336
:10A0100012F57A7643F100074FF4FA624FF000032D
:10A02000304639460BF052FD02460B461346059367
:10A030000C4B184609F035FA9DF80330002B0ED072
:10A04000084B00220599184609F0DEF90490049B9C
:10A050000393039B002B02D0039808F07DFE00BF02
:10A0600007B0F0BD1842002000B587B009F06AF9CA
:10A070000590059B0493049B002B02D0049808F0E4
:10A080006BFE174A0121174809F098F90590059BC6
:10A090000393039B002B02D0039808F05DFE124A45
:10A0A0000021124809F08AF90590059B0293029B52
:10A0B000002B02D0029808F04FFE0D4A01210D48F6
:10A0C00009F07CF90590059B0193019B002B02D0C0
:10A0D000019808F041FEFCF7D3FC00BF07B000BDBB
:10A0E000F99E02007C670300E19D02008467030083
:10A0F000B99E020080670300F0B585B003468DF875
:10A1000007300B468DF806301346ADF80430BDF825
:10A11000043000221C4615464FF000024FF00003A9
:10A12000EB0343EA5443E20312F57A7643F1000766
:10A130004FF4FA624FF00003304639460BF0C6FC8C
:10A1400002460B46134603930F4A9DF807301370DF
:10A150009DF80630002B0AD00C4B184609F0A1F9E7
:10A160000A4B00220399184609F04EF908E0FDF762
:10A17000A5FB074B00221A70044B184609F091F911
:10A1800000BF05B0F0BD00BF114C002038420020D8
:10A19000104C002008B5FEF7D3F8FCF753FFFEF78C
:10A1A000B9F8FCF7DBFE00BF08BD000000B583B0C6
:10A1B00003468DF80730FFF7EDFF9DF80730012BC0
:10A1C00002D0022B04D007E0084B01221A7009E0EC
:10A1D000064B02221A7005E0002200210020FFF742
:10A1E0008BFF00BF00BF03B000BD00BF124C0020BA
:10A1F00000B583B0094B002240F26661184609F0B1
:10A2000003F90190019B0093009B002B02D0009862
:10A2100008F0A2FD00BF03B000BD00BFF841002060
:10A2200008B5034B184609F03CF900BF08BD00BF54
:10A23000F841002008B5FFF7F3FFFDF757FD024B8B
:10A2400006221A7000BF08BD124C002000B585B070
:10A2500003468DF807309DF80730032B0AD0032BF7
:10A2600011DC022B11D0022B0DDC002B0FD0012BA7
:10A270000FD008E000230393039B002B0BD003981F
:10A2800008F06AFD07E000BF06E000BF04E000BF81
:10A2900002E000BF00E000BF00BF05B000BD00004D
:10A2A00000B583B000238DF8033000238DF8023011
:10A2B000074B1B880DF102020DF103011846FFF751
:10A2C00071FB01909DF90330184603B000BD00BF3B
:10A2D000F041002008B5FFF75DFDFFF773FBFFF7C6
:10A2E00027FD0648FEF788F9FFF7B8FB0348FCF79F
:10A2F000EDFE0120FFF762FB00BF08BD004C00200F
:10A3000000B585B000F07CFA0390039B002B02D0CF
:10A31000039808F021FD00230093154B00936B4632
:10A32000184600F097F90290029B0193019B002BC5
:10A3300002D0019808F010FDFFF796FEFFF7AEFC83
:10A34000FEF762FCFDF75AFD0020FCF7B3F8FDF7BD
:10A35000EBF8FEF72FFDFEF75FFFFFF7BBFFFFF700
:10A3600047FFFCF7D5FFFEF757FFFFF723FDF8E7A0
:10A370004DA20200ADDF704700BF1846AEDF704748
:10A3800000BF1846B0DF704700BF18463CDF70477B
:10A3900000BF18463DDF704700BF184682B0034635
:10A3A0008DF8073000BF02B07047000000B58BB0D9
:10A3B000019005AB1022002118460BF0D9FF0223B3
:10A3C0008DF814300223ADF808300023ADF80A30C0
:10A3D00004AB03931B4B9B881A4A518902AA184667
:10A3E000FFF7C8FF0990099B002B10D104AB18465A
:10A3F00003F04EFE0346002B09D09DF81A3043F0BF
:10A4000001038DF81A300023ADF8183003E040F254
:10A41000FD13ADF818300B4B9B8805AA1146184662
:10A42000FFF7B0FF0990099B112BF4D0BDF818304D
:10A43000002B03D1019800F043FA00E000BF0BB0FD
:10A4400000BD00BF144C002000B585B00190019BF9
:10A450009A88134B9B889A421ED1019B0633039323
:10A46000039B1B78022B18D1039B5A880C4BDB886B
:10A470009A4212D1039B1B7A042B0ED0039B1B7AAA
:10A48000062B0AD0039B1B7A052B06D0039B0233B5
:10A490001846FFF78BFF00E000BF05B000BD00BF0E
:10A4A000144C002082B00190019B9A88024B9A8044
:10A4B00000BF02B0704700BF144C002082B0019072
:10A4C000064B9A88019B9B889A4204D1034B4FF616
:10A4D000FF729A8000E000BF02B07047144C002069
:10A4E00000B585B00190019B06330393039B1A8846
:10A4F0000A4BDB889A420DD1084B1B7E002B09D0FA
:10A5000000F04CFA0290029B002B03D0034B5B69D6
:10A510000220984700BF05B000BD00BF144C0020CA
:10A5200000B583B001900091019B002B1FD0019BCF
:10A530001B88532B16D0532B18DC512B0ED0512BCC
:10A5400014DC102B02D0112B04D00FE00198FFF780
:10A55000A9FF0CE00198FFF7B1FF08E00198FFF7B1
:10A5600073FF04E00198FFF7BBFF00E000BF03B0FA
:10A5700000BD000000B58BB003460A468DF80730D9
:10A5800013468DF806300323ADF8223003AB1022BA
:10A59000002118460BF0ECFEBDF82230ADF820305B
:10A5A00020238DF81C309DF807308DF81D309DF864
:10A5B00006308DF81E30124BDB88ADF80C300223CC
:10A5C0008DF80E300023ADF8103008AB059307ABC3
:10A5D00006930B4B9B8803AA11461846FFF7CEFE45
:10A5E0000990099B002B07D1BDF82030BDF822202F
:10A5F0009A4201D00C230993099B18460BB000BD69
:10A60000144C002000B585B04FF0FF310020FFF75B
:10A61000C1FE0390039B0293029B002B01D0029B7F
:10A6200013E0B1210020FFF7B1FE0390039B0193DB
:10A63000019B002B01D0019B07E0054B5B690120CA
:10A64000984702200AF022FC0023184605B000BDFE
:10A65000144C002010B58AB00190154B03AC0FCB01
:10A6600084E80F00019B002B01D10E231DE0114B4C
:10A670004FF6FF729A80019B1B680E4A53610D4B87
:10A6800000221A760B4B5B69002B02D1094B0A4A58
:10A690005A61084800F0A4F80990099B0893089BA8
:10A6A000002B01D0089B00E0002318460AB010BD23
:10A6B00088670300144C00209DA302004FF0030C98
:10A6C00000DF704700BF184600B583B001900198C5
:10A6D000FFF7F4FF0346184603B000BD08B5034872
:10A6E000FFF7F2FF0346184608BD00BF304C0020BC
:10A6F00000B583B00190044B1B680449019898474A
:10A700000346184603B000BD304C0020384C0020F2
:10A7100000B583B00190044B5B68044901989847E9
:10A720000346184603B000BD304C0020384C0020D2
:10A73000064B1B68002B05D0044B5B68002B01D037
:10A74000012300E000231846704700BF304C002072
:10A7500000B585B001900B4B1B685B7E002B01D0D0
:10A7600006230BE00198FFF7C3FF0390039B002B28
:10A7700003D1044B1B6801225A76039B184605B08F
:10A7800000BD00BF3C4C002000B583B0134B1B68DC
:10A790005B7E002B0ED006210120FFF7EBFE01901F
:10A7A000019B002B04D00D4B1B685B69032098476D
:10A7B000002310E0094B1B6801221A7601210120B9
:10A7C000FFF7D8FE0190019B002B03D0034B1B68C1
:10A7D00000221A76019B184603B000BD3C4C0020B5
:10A7E00082B00190019B002B01D10E2303E0034AAC
:10A7F000019B13600023184602B070473C4C0020B8
:10A8000000B585B000F0DEF80390039B0293029B35
:10A81000002B01D0029B0DE0FFF760FF0390039B2C
:10A820000193019B002B01D0019B03E000F0F0F8A5
:10A830000390039B184605B000BD000000B585B02D
:10A8400001900091FFF774FF0346002B32D001986E
:10A85000FFF75EFF0390039B082B2CD0039B002B7C
:10A8600011D1164B1B6800225A7601210220FFF7F6
:10A8700081FE0390039B002B1DD0104B1B685B696E
:10A880000320984717E00D4B1B6800225A760621DB
:10A890000220FFF76FFE0390039B002B04D0074BB1
:10A8A0001B685B6903209847044B1B685B690220A7
:10A8B000984700E000BF05B000BD00BF3C4C002041
:10A8C00000B585B0019004238DF80F30019B1B7BF0
:10A8D000012B02D0022B11D035E0FFF755FF02907B
:10A8E000029B002B03D101238DF80F302FE0029B38
:10A8F000112B2CD106238DF80F3028E0019B5B7BB8
:10A90000142B03D8019B5B7B002B03D105238DF80F
:10A910000F301EE0019B03F10E01019B5B7B1A4689
:10A920001B480BF0F3FC019B5B7B1A46194B9A61A9
:10A930001848FFF70DFF0290029B002B09D101235D
:10A940008DF80F3005E002238DF80F3002E000BFD4
:10A9500000E000BF9DF80F30012B15D0019B1B7B41
:10A960009DF80F2011461846FFF704FE0290029B47
:10A97000002B04D0084B1B685B6903209847064BEB
:10A980001B685B690220984700BF05B000BD00BF8F
:10A99000444C0020404C00203C4C002000B583B0CB
:10A9A000054B1B685B6900209847FFF72BFE019061
:10A9B000019B184603B000BD3C4C002013DF7047DC
:10A9C00000BF184600B583B040F6F8731B68B3F1BA
:10A9D000FF3F03D10D4B1B68019303E040F6F87372
:10A9E0001B680193019BB3F1FF3F0AD00198FFF769
:10A9F000E5FF0090009B002B01D0009B02E00023AC
:10AA000000E00423184603B000BD00BF141000107E
:10AA100000B583B0064B1846FFF7D0FF0190019BAD
:10AA2000002B01D0019B00E00023184603B000BDBD
:10AA300000600200BFF34F8F00BF064BDB6803F4DA
:10AA4000E0620449044B1343CB60BFF34F8F00BF58
:10AA500000BFFDE700ED00E00400FA0582B0214BE5
:10AA60001B68B3F1FF3F0AD11F4B1B68DBB2019398
:10AA70001E4B1B681B0903F00F03009305E0194BE5
:10AA80001B6801931A4B1B680093019B062B24D172
:10AA9000009B072B1DD0009B072B1CD8009B062B6F
:10AAA00015D0009B062B16D8009B052B0DD0009BC4
:10AAB000052B10D8009B032B03D0009B042B02D046
:10AAC00009E001230AE0012308E0012306E0012355
:10AAD00004E0012302E0012300E00023184602B055
:10AAE000704700BF30010010E00F00F0E80F00F0E9
:10AAF0003401001082B01B4B1B68DBB201931A4B70
:10AB00001B681B0903F00F030093019B062B24D144
:10AB1000009B072B1DD0009B072B1CD8009B062BEE
:10AB200015D0009B062B16D8009B052B0DD0009B43
:10AB3000052B10D8009B032B03D0009B042B02D0C5
:10AB400009E001230AE0002308E0002306E00023D7
:10AB500004E0002302E0002300E00023184602B0D6
:10AB6000704700BFE00F00F0E80F00F082B0214B0B
:10AB70001B68B3F1FF3F0AD11F4B1B68DBB2019387
:10AB80001E4B1B681B0903F00F03009305E0194BD4
:10AB90001B6801931A4B1B680093019B062B24D161
:10ABA000009B072B1DD0009B072B1CD8009B062B5E
:10ABB00015D0009B062B16D8009B052B0DD0009BB3
:10ABC000052B10D8009B032B03D0009B042B02D035
:10ABD00009E001230AE0012308E0012306E0012344
:10ABE00004E0012302E0012300E00023184602B044
:10ABF000704700BF30010010E00F00F0E80F00F0D8
:10AC00003401001082B01B4B1B68DBB201931A4B5E
:10AC10001B681B0903F00F030093019B062B24D133
:10AC2000009B072B1DD0009B072B1CD8009B062BDD
:10AC300015D0009B062B16D8009B052B0DD0009B32
:10AC4000052B10D8009B032B03D0009B042B02D0B4
:10AC500009E001230AE0002308E0002306E00023C6
:10AC600004E0002302E0002300E00023184602B0C5
:10AC7000704700BFE00F00F0E80F00F082B0214BFA
:10AC80001B68B3F1FF3F0AD11F4B1B68DBB2019376
:10AC90001E4B1B681B0903F00F03009305E0194BC3
:10ACA0001B6801931A4B1B680093019B062B24D150
:10ACB000009B072B1DD0009B072B1CD8009B062B4D
:10ACC00015D0009B062B16D8009B052B0DD0009BA2
:10ACD000052B10D8009B032B03D0009B042B02D024
:10ACE00009E001230AE0012308E0012306E0012333
:10ACF00004E0012302E0012300E00023184602B033
:10AD0000704700BF30010010E00F00F0E80F00F0C6
:10AD10003401001082B01B4B1B68DBB201931A4B4D
:10AD20001B681B0903F00F030093019B062B24D122
:10AD3000009B072B1DD0009B072B1CD8009B062BCC
:10AD400015D0009B062B16D8009B052B0DD0009B21
:10AD5000052B10D8009B032B03D0009B042B02D0A3
:10AD600009E001230AE0002308E0002306E00023B5
:10AD700004E0002302E0002300E00023184602B0B4
:10AD8000704700BFE00F00F0E80F00F082B01B4BEF
:10AD90001B68DBB201931A4B1B681B0903F00F03FE
:10ADA0000093019B062B24D1009B072B1DD0009BF9
:10ADB000072B1CD8009B062B15D0009B062B16D802
:10ADC000009B052B0DD0009B052B10D8009B032B5F
:10ADD00003D0009B042B02D009E001230AE00023EA
:10ADE00008E0002306E0002304E0002302E0002343
:10ADF00000E00023184602B0704700BFE00F00F0EB
:10AE0000E80F00F082B0214B1B68B3F1FF3F0AD17D
:10AE10001F4B1B68DBB201931E4B1B681B0903F021
:10AE20000F03009305E0194B1B6801931A4B1B6835
:10AE30000093019B062B24D1009B072B1DD0009B68
:10AE4000072B1CD8009B062B15D0009B062B16D871
:10AE5000009B052B0DD0009B052B10D8009B032BCE
:10AE600003D0009B042B02D009E000230AE000235A
:10AE700008E0012306E0012304E0012302E00123AE
:10AE800000E00023184602B0704700BF30010010F8
:10AE9000E00F00F0E80F00F03401001082B0214B09
:10AEA0001B68B3F1FF3F0AD11F4B1B68DBB2019354
:10AEB0001E4B1B681B0903F00F03009305E0194BA1
:10AEC0001B6801931A4B1B680093019B062B24D12E
:10AED000009B072B1DD0009B072B1CD8009B062B2B
:10AEE00015D0009B062B16D8009B052B0DD0009B80
:10AEF000052B10D8009B032B03D0009B042B02D002
:10AF000009E001230AE0012308E0012306E0012310
:10AF100004E0012302E0012300E00023184602B010
:10AF2000704700BF30010010E00F00F0E80F00F0A4
:10AF30003401001082B0214B1B68B3F1FF3F0AD1EE
:10AF40001F4B1B68DBB201931E4B1B681B0903F0F0
:10AF50000F03009305E0194B1B6801931A4B1B6804
:10AF60000093019B062B24D1009B072B1DD0009B37
:10AF7000072B1CD8009B062B15D0009B062B16D840
:10AF8000009B052B0DD0009B052B10D8009B032B9D
:10AF900003D0009B042B02D009E001230AE0012327
:10AFA00008E0012306E0012304E0012302E001237D
:10AFB00000E00023184602B0704700BF30010010C7
:10AFC000E00F00F0E80F00F03401001082B0194BE0
:10AFD0001B680193184B1B680093019B062B24D11F
:10AFE000009B072B1DD0009B072B1CD8009B062B1A
:10AFF00015D0009B062B16D8009B052B0DD0009B6F
:10B00000052B10D8009B032B03D0009B042B02D0F0
:10B0100009E000230AE0002308E0002306E0012302
:10B0200004E0012302E0012300E00023184602B0FF
:10B03000704700BF300100103401001082B0194B7E
:10B040001B680193184B1B680093019B062B24D1AE
:10B05000009B072B1DD0009B072B1CD8009B062BA9
:10B0600015D0009B062B16D8009B052B0DD0009BFE
:10B07000052B10D8009B032B03D0009B042B02D080
:10B0800009E000230AE0002308E0002306E0002393
:10B0900004E0012302E0012300E00023184602B08F
:10B0A000704700BF300100103401001008B5FFF7F1
:10B0B000C5FF0346002B07D04FF010234FF080420E
:10B0C000D3F80832C2F8583500BF08BD00BF044BA2
:10B0D000D3F80034002BFAD000BF00BF704700BF88
:10B0E00000E0014000B583B00190044A019BC2F822
:10B0F0000435FFF7EBFF00BF03B000BD00E00140E7
:10B10000024B034A1A6000BF704700BF5C42002038
:10B110000090D00308B5FFF7A1FC0346002B06D032
:10B12000964B1B681B0A964A03F01F031360FFF738
:10B13000E1FC0346002B02D0924B934A1A60FFF7C2
:10B1400015FD0346002B06D0904B1B685B0B904A05
:10B1500003F007031360FFF755FD0346002B05D0EE
:10B160008C4BDB688B4A23F08073D360FFF786FD3E
:10B170000346002B0ED04FF080430022C3F80C2171
:10B180004FF080430022C3F810214FF0804300228B
:10B19000C3F83825FFF7BEFD0346002B02D07E4BD7
:10B1A00003221A60FFF7F2FD0346002B0BD07B4B06
:10B1B00005221A607A4B01221A607A4B00221A602B
:10B1C000794B3F221A60FFF71DFE0346002B76D015
:10B1D0004FF08053754AD3F80434C2F820354FF04D
:10B1E0008053724AD3F80834C2F824354FF08053A4
:10B1F0006E4AD3F80C34C2F828354FF080536B4AAE
:10B20000D3F81034C2F82C354FF08053674AD3F886
:10B210001434C2F830354FF08053644AD3F81834F0
:10B22000C2F834354FF08053604AD3F81C34C2F86A
:10B2300040354FF080535D4AD3F82034C2F844358E
:10B240004FF08053594AD3F82434C2F848354FF0B0
:10B250008053564AD3F82834C2F84C354FF0805307
:10B26000524AD3F82C34C2F850354FF080534F4A2D
:10B27000D3F83034C2F854354FF080534B4AD3F8EA
:10B280003434C2F860354FF08053484AD3F838342C
:10B29000C2F864354FF08053444AD3F83C34C2F8C6
:10B2A00068354FF08053414AD3F84034C2F86C35CA
:10B2B0004FF080533D4AD3F84434C2F87035FFF75D
:10B2C000EDFD0346002B05D0394B1B68394A03F0CE
:10B2D0004F031360FFF72EFE0346002B0DD04FF0F7
:10B2E0008043D3F8003403F00103002B05D04FF066
:10B2F00080436FF00102C3F80024FFF767FE0346A6
:10B30000002B05D02C4B1B682B4A43F48063136041
:10B310002A4BD3F88830294A43F47003C2F88830A6
:10B32000BFF34F8F00BFBFF36F8F00BFFFF7BEFEAD
:10B330004FF01023D3F80032002B05DB4FF0102321
:10B34000D3F80432002B15DA0120FFF7CBFE4FF0C3
:10B3500010231522C3F80022FFF7B8FE4FF0102388
:10B360001522C3F80422FFF7B1FE0020FFF7BAFE52
:10B37000FFF760FBFFF7C4FE00BF08BD2403001009
:10B380004035014074C007400DF0ADBA44020010D2
:10B390003C050040F0ED00E0A005004010560040E4
:10B3A00088560040185600401456004000C0004027
:10B3B00058020010E40E00403C17004000ED00E091
:10B3C0006DDF704700BF184679DF704700BF184631
:10B3D0007DDF704700BF184664DF704700BF184626
:10B3E00082B003460091ADF80630BDF80630DAB2FF
:10B3F000009B1A70BDF806301B0A9AB2009B0133FD
:10B40000D2B21A700223184602B0704700B589B054
:10B41000039002911346ADF80630029B1B8803F19E
:10B420000902BDF806309A4201D90C2353E004AB5F
:10B430001846FFF7C5FF0790079B0693069B002B56
:10B4400001D0069B47E0029B1B881A46039B1344CE
:10B4500008221A70029B1B8801339AB2029B1A8041
:10B46000029B1B881A46039B13441B221A70029BE3
:10B470001B8801339AB2029B1A80029B1B881A46D2
:10B48000039B981804AB0133062219460AF03EFFCD
:10B49000029B1B8806339AB2029B1A809DF81030DB
:10B4A00023F00103DBB2002B07D1029B1B881A4655
:10B4B000039B134400221A7006E0029B1B881A4665
:10B4C000039B134401221A70029B1B8801339AB21A
:10B4D000029B1A800023184609B000BD00B589B050
:10B4E000039002910192ADF80230039B1B78012B6F
:10B4F00005D1039B5B78002B01D1072391E0019BD1
:10B500001B889A1CBDF802309A420ED8039B1B7808
:10B51000012B0CD1019B1B881A46039B5B781344BB
:10B520009A1CBDF802309A4201D90C2379E0019BA4
:10B530001B88BDF80220D31A9BB2023BADF81C3029
:10B54000BDF81C30ADF81230019B1B880233029A03
:10B5500013440DF1120211461846FFF739FF069009
:10B56000069B0593059B002B01D0059B59E0039B8F
:10B570001B78022B06D0039B5B781A46BDF812306D
:10B580009A4209D3BDF81230BDF81C209A4203D369
:10B5900009238DF81F3016E008238DF81F30039B18
:10B5A0001B78012B0BD1039B5B781A46BDF81C302E
:10B5B000934204D3039B5B78ADF8123003E0BDF8EF
:10B5C0001C30ADF81230BDF81230FE2B01D90C231F
:10B5D00027E0BDF81230DAB2019B1B881946029BA6
:10B5E0000B440132D2B21A70019B1B8801339AB20C
:10B5F000019B1A80019B1B881A46029B13449DF8ED
:10B600001F201A70019B1B8801339AB2019B1A807C
:10B61000019B1A88BDF8123013449AB2019B1A801C
:10B620000023184609B000BD00B589B0039002910F
:10B630001346ADF80630029B1B881A1DBDF8063074
:10B640009A4201D90C233AE00DF116031846FFF790
:10B65000BBFE0790079B0693069B002B01D0069B21
:10B660002DE0029B1B881A46039B134403221A7089
:10B67000029B1B8801339AB2029B1A80029B1B8893
:10B680001A46039B134419221A70029B1B8801332C
:10B690009AB2029B1A80BDF81620029B1B8819469D
:10B6A000039B0B4419461046FFF79AFE03461A46C1
:10B6B000029B1B8813449AB2029B1A8000231846EF
:10B6C00009B000BD84B0029101921A4603468DF87C
:10B6D0000F301346ADF80C30019B1B88DA1CBDF807
:10B6E0000C309A4201D90C2328E0019B1B881A4692
:10B6F000029B134402221A70019B1B8801339AB2E9
:10B70000019B1A80019B1B881A46029B134401224D
:10B710001A70019B1B8801339AB2019B1A80019B0E
:10B720001B881A46029B13449DF80F201A70019B38
:10B730001B8801339AB2019B1A800023184604B07B
:10B74000704784B0029101921A4603468DF80F307B
:10B750001346ADF80C30019B1B88DA1CBDF80C3089
:10B760009A4201D90C2328E0019B1B881A46029BB0
:10B77000134402221A70019B1B8801339AB2019B69
:10B780001A80019B1B881A46029B13440A221A70D6
:10B79000019B1B8801339AB2019B1A80019B1B8875
:10B7A0001A46029B13449DF80F201A70019B1B88B8
:10B7B00001339AB2019B1A800023184604B07047E7
:10B7C00000B58DB0039001930B468DF80B301346F6
:10B7D0008DF80A3000238DF82B300E9B1B88ADF8B6
:10B7E000283000230B9372E0039B5A680B9B9B004D
:10B7F0001A4404AB106818600DF1170104AB002265
:10B800001846FFF7E9FD0890089B0793079B002B5C
:10B8100001D0079B7DE09DF817309DF80A209A42E1
:10B8200052D19DF82B30002B03D000238DF82A3005
:10B8300002E002238DF82A300E9B1B881A469DF8E1
:10B8400017301A449DF82A301A44BDF83C309A4209
:10B8500001DD0C235DE09DF82B3083F00103DBB2AA
:10B86000002B16D00E9B1B8801339AB20E9B1A80B8
:10B870000E9B1B881A46019B13449DF80B201A70DF
:10B880000E9B1B8801339AB20E9B1A8001238DF800
:10B890002B300E9B1B881A46019B1A440DF1170191
:10B8A00004AB1846FFF798FD0890089B0693069B8B
:10B8B000002B01D0069B2CE00E9B1B889DF81720C7
:10B8C00013449AB20E9B1A800B9B01330B93039B7C
:10B8D0001B881A460B9B934286DB9DF82B30002B6E
:10B8E00016D00E9B1A88BDF82830D31A9BB2013BA4
:10B8F000ADF82630BDF82630FF2B01D90C2308E027
:10B90000BDF82830019A1344BDF82620D2B21A702F
:10B91000002318460DB000BD00B58BB00590039311
:10B920000B468DF8133013468DF812309DF8131026
:10B93000BDF8343001930C9B0093039B02220598C1
:10B94000FFF73EFF0990099B0893089B002B01D04D
:10B95000089B14E09DF81210BDF8343001930C9B45
:10B960000093039B10220598FFF72AFF0990099B7B
:10B970000793079B002B01D0079B00E0002318468C
:10B980000BB000BD82B00190019B1B88052B0AD92A
:10B99000019B1B88B3F5486F07D9019B1B884FF6A5
:10B9A000FF72934201D0072325E0019B5B88052BA2
:10B9B0000AD9019B5B88B3F5486F07D9019B5B8867
:10B9C0004FF6FF72934201D0072314E0019B1B88BE
:10B9D0004FF6FF7293420DD0019B5B884FF6FF72CA
:10B9E000934207D0019B1A88019B5B889A4201D938
:10B9F000072300E00023184602B0704700B587B067
:10BA0000039002910192ADF80230019B1B889A1DB0
:10BA1000BDF802309A4201D90C234BE00398FFF79E
:10BA2000B1FF0590059B0493049B002B01D0049B60
:10BA300040E0019B1B881A46029B134405221A70A2
:10BA4000019B1B8801339AB2019B1A80019B1B88C2
:10BA50001A46029B134412221A70019B1B88013361
:10BA60009AB2019B1A80039B1A88019B1B88194676
:10BA7000029B0B4419461046FFF7B2FC03461A46D8
:10BA8000019B1B8813449AB2019B1A80039B5A881E
:10BA9000019B1B881946029B0B4419461046FFF771
:10BAA0009FFC03461A46019B1B8813449AB2019BD4
:10BAB0001A800023184607B000BD00B587B0039078
:10BAC00002910192ADF80230039B9B8802330593EB
:10BAD000019B1B881A46059B13449A1CBDF8023033
