:020000022000DC
:106000000000012019620200016202000362020026
:10601000056202000762020009620200000000003F
:106020000000000000000000000000000B62020001
:106030000D620200000000000F6202001162020007
:10604000750A03001362020049190300913303002B
:10605000136202001362020045180300B91D030019
:106060001362020013620200136202001362020054
:106070001362020013620200136202001362020044
:1060800013620200CD420300136202001362020099
:106090001362020013620200715E030013620200C9
:1060A0001362020013620200136202001362020014
:1060B00013620200136202000000000000000000F2
:1060C00013620200136202001362020013620200F4
:1060D000136202001362020013620200000000005B
:1060E00000000000000000000000000000000000B0
:1060F00000000000000000000000000000000000A0
:10610000000000000000000000000000000000008F
:10611000000000000000000000000000000000007F
:10612000000000000000000000000000000000006F
:10613000000000000000000000000000000000005F
:10614000000000000000000000000000000000004F
:10615000000000000000000000000000000000003F
:10616000000000000000000000000000000000002F
:10617000000000000000000000000000000000001F
:10618000000000000000000000000000000000000F
:1061900000000000000000000000000000000000FF
:1061A00000000000000000000000000000000000EF
:1061B00000000000000000000000000000000000DF
:1061C00000000000000000000000000000000000CF
:1061D00000000000000000000000000000000000BF
:1061E00000000000000000000000000000000000AF
:1061F000000000000000000000000000000000009F
:10620000FEE7FEE7FEE7FEE7FEE7FEE7FEE7FEE766
:10621000FEE7FEE700F002B8FFF7FCBF0F484FF0C3
:106220000701884385460E4880470E48016841F4BF
:1062300070010160BFF34F8FBFF36F8F00F01AB88A
:1062400009480A490A4A884207D0521A05D00378F9
:1062500001300B700131013AF9D170470000012083
:1062600065B7020088ED00E0046F0300C839002024
:10627000DC39002039493A480A1A02D007229143F2
:106280008D46384938480A1A06D00722914381F3CF
:106290000988022282F3148834483549354A00F0CF
:1062A0003EF835483549364A00F039F83548364920
:1062B000364A00F034F836483649374A00F02FF8AD
:1062C00036483749374A00F02AF837483749384ABC
:1062D00000F025F837483849384A00F020F83848A7
:1062E0003849002200F033F837483849002200F0DE
:1062F0002EF837483749091A10F04DFB364A9047B7
:1063000024482549884205D00268043003B49047E8
:1063100003BCF7E700200021304A9047FEE788429F
:1063200014D0521A12D003460B43134303242342C2
:1063300006D1036804300B600431043AF9D1704788
:10634000037801300B700131013AF9D1704788426E
:1063500002D002700130FAE770470000000001200F
:1063600000F800200000012000000120EC72030072
:10637000DC39002014450020E0630200E0630200E5
:106380002A6E0300EC720300DC390020DC390020A7
:10639000186F0300186F0300186F0300186F0300D5
:1063A000186F0300186F0300186F0300186F0300C5
:1063B000EA720300247E03001445002014450020E7
:1063C0001445002054510020545100205451002005
:1063D00054510020545900204162020031A90200AA
:1063E000024B0022C3F8002500BF70470070004038
:1063F00082B003468DF80730114B1B789DF80720BB
:106400009A420BD99DF807300D4A12789B1A012B3E
:1064100010DD0B4A9DF8073013700BE0084B1B781A
:106420001A469DF80730D31A012B03DD044A9DF864
:1064300007301370024B1B78184602B0704700BF3C
:106440002045002084B00346ADF80630BDF8063084
:1064500041F26702934201D9642319E0BDF8063086
:1064600040F64852934201D8002311E0BDF80630AF
:10647000A3F64853642202FB03F303F5C873064AEC
:1064800082FB03121212DB17D31A0393039BDBB2B6
:10649000184604B0704700BF1F85EB51014B1B68C5
:1064A000184670471C450020014B1B681846704772
:1064B0001845002000B587B0019000F0CDF80DF12F
:1064C0000E03194600200BF0EDFE0590BDF90E20DD
:1064D000174B1A80059B002B1ED1154B1B881BB236
:1064E0001A464FF4166302FB03F3124AA2FB03237E
:1064F0005B0A0493049B5B000F4A13600E4B1B68FE
:106500009BB21846FFF79EFF03461846FFF770FF41
:1065100003461A46094B1A6000F086F800F02AF884
:10652000034B1B881BB29BB2184607B000BD00BFCF
:1065300014450020818080801C45002018450020E3
:1065400000B585B00190019B1B78002B0CD1019BFD
:106550005B68B3F90020064B1A80019B5B68012140
:1065600018460BF03FFF039000BF05B000BD00BF11
:106570001445002008B5FFF791FF034640F6E342BB
:10658000934208D80BF0A4FD01F0C4FB01F0B6FB68
:1065900000200EF09BFF00BF08BD82B001904FF0BD
:1065A000A043184602B0704700B585B00190084678
:1065B00011461A4603468DF803300B468DF802301B
:1065C00013468DF8013001AB1846FFF7E6FF039044
:1065D0009DF803209DF802305B001A439DF80130BE
:1065E0009B001A439DF818301B0242EA03019DF8F4
:1065F0001C301B04019A1943039B02F5E07243F817
:10660000221000BF05B000BD00B585B00390002387
:106610000193002300930023012200210398FFF738
:10662000C3FF00BF05B000BD08B5FFF7D9FE0BF0F2
:106630004FFD074B0022C3F80025064B00221A60CD
:10664000044B1B680220FFF7DFFF00BF08BD00BF3F
:1066500000700040FC7F004000B589B01D4B1B68F6
:10666000049300238DF813301B4B0122C3F800253F
:106670001A4B01221A60194B1B6804AB18491846C3
:106680000BF0C6FC0790079B0693069B002B02D0DD
:1066900006980CF089FE134A01AB07CA03C31A70AF
:1066A00000238DF8073002238DF8063005238DF87E
:1066B000083001AB194600200BF056FD0790079BF0
:1066C0000593059B002B02D005980CF06DFE00BFD2
:1066D00009B000BD186F030000700040FC7F00404F
:1066E000416502001C6F030000B585B001900B46A8
:1066F000ADF8023013468DF80130019B0393BDF8CD
:106700000230132B45D9039B1B78F02B32D0F02B92
:1067100041DC302B31D0302B3DDC212B20D0212B04
:1067200039DC202B0ED0202B35DC182B2DD0182B4C
:1067300031DC172B25D0172B2DDC122B09D0142B75
:1067400014D028E09DF901301946039800F0F2F8C2
:1067500022E09DF901301946039800F02BF81BE068
:10676000039800F03DF900F0FDFF15E0039800F0FC
:1067700053F911E000F0F6FD0EE0039802F0AAFFD5
:106780000AE0039802F0F8FA06E0039800F012FE1F
:1067900002E000BF00E000BF05B000BD82B0019084
:1067A000034B1B680133024A136000BF02B07047FD
:1067B0002845002000B58BB001900B468DF80330C2
:1067C00004AB14220021184610F0D0F913238DF8E1
:1067D0001030FFF769FE03468DF82730234B1B6806
:1067E000CDF811309DF827308DF81530FFF756FEA3
:1067F00003461F4AA2FB03235B098DF826309DF850
:1068000026308DF8163001238DF8173001238DF8CE
:10681000183001238DF819309DF803308DF81A30A7
:106820009DF82630222B07D89DF81B30022262F3F8
:1068300001038DF81B3011E09DF82730272B07D876
:106840009DF81B30012262F301038DF81B3005E037
:106850009DF81B3023F003038DF81B3004AB14218B
:10686000184603F0AFFE00BF0BB000BD2845002066
:106870001F85EB5100B589B001900B468DF80330B0
:1068800003AB14220021184610F070F916238DF87E
:106890000C3001238DF80D3003AB1421184603F0A2
:1068A00091FE00BF09B000BD00B58BB0019003ABF5
:1068B00014220021184610F059F911238DF80C30DC
:1068C000194B1B88DBB28DF80D3003AB184603F073
:1068D000E3F803468DF8273003AB1421184603F084
:1068E00071FE0890089B002B03D0104B00221A70F9
:1068F00018E09DF82730002B03D00B4B1B88FF2B93
:1069000003D10A4B00221A700CE0074B1B8801339D
:106910009AB2054B1A80064B00224FF400511846DC
:106920000DF092F80BB000BD224500202445002058
:10693000E039002000B58DB001900B468DF8033092
:1069400002F086FF0A9000F083FC099003AB14224A
:106950000021184610F00AF903F040F910238DF8D1
:106960000C30099BB3F8C030DBB28DF80D3002F06B
:10697000A9FF0B900B9BB3F5106F02D94FF4106376
:106980000B930B9B9BB2ADF80E30124B1B7883F030
:106990000103DBB2002B19D003AB1421184603F01E
:1069A00011FE0890089B002B10D1BDF80E30002B73
:1069B0000CD0094B00221A80064B01221A70074B9B
:1069C00000224FF4005118460DF03EF800BF0DB004
:1069D00000BD00BF2445002022450020E0390020F2
:1069E00000B585B0019002F033FF0390019B5B7806
:1069F0001A46044B1B889A4201D103F0E5F800BF08
:106A000005B000BD2245002000B583B0019004F020
:106A1000EDFA00BF03B000BD00B58BB0019003AB31
:106A200014220021184610F0A1F815238DF80C301F
:106A300001238DF80D30FFF737FD0990099B222BBC
:106A400007D9019B5B78012B03D100238DF80E3011
:106A500002E001238DF80E3003AB1421184603F039
:106A6000B1FD0890089B002B0AD19DF80E30002B39
:106A700006D1054B002240F6CD4118460CF0E4FF4C
:106A800000BF0BB000BD00BF003A002000B583B0CE
:106A9000114A002111480CF0B1FF0190104A002169
:106AA00010480CF0ABFF01900F4A01210F480CF089
:106AB000A5FF01900E4B00224FF4804118460CF0C8
:106AC000C3FF019B0093009B002B02D000980CF0A9
:106AD0006BFC00BF03B000BDA9680200286F030073
:106AE000096A02002C6F03009D670200306F0300EB
:106AF000203A002076DF704700BF18468BDF7047D2
:106B000000BF18468CDF704700BF184600B583B041
:106B100001900199024809F033FB00BF03B000BDAA
:106B20002C45002000B585B06B4608220021184690
:106B300010F01CF8094B0093094B01936B46184663
:106B400007F014FC0390039B0293029B002B02D0DE
:106B500002980CF029FC00BF05B000BD0D6B0200CF
:106B60001440002000B583B00190019B132B03D08B
:106B700001980CF019FC00E000BF03B000BD00B5A7
:106B800089B00190009100238DF81B30009B1B7889
:106B9000022B3FD0022B40DC002B02D0012B1ED059
:106BA0003BE0009B5988009B0E331A46019809F080
:106BB000B3FC0590059B0493049B002B02D0049822
:106BC0000CF0F2FB019809F043FC0590059B039340
:106BD000039B002B20D003980CF0E6FB1CE003F095
:106BE00077FE03468DF81B300023079302E0079BD6
:106BF00001330793009B9B891A46079B9342F6D368
:106C0000009B9868009B9B899DF91B201946FFF704
:106C10006BFD02E000BF00E000BF00BF09B000BD97
:106C200000B587B00B4B01930B4B02930B4B0393B7
:106C300001AB19460A4809F035FB0590059B049302
:106C4000049B002B02D004980CF0AEFB00BF07B0F1
:106C500000BD00BF7F6B0200656B02001440002086
:106C60002C45002000B5A7B00190019B5B682093E4
:106C700000F0EEFA1F90019B1B78062B1AD0062B12
:106C800000F35481052B08D0052B00F34F81032B13
:106C900014D0042B00F04C8148E1019B5B681D93EC
:106CA0001D9B1C931C9B002B00F044811C980CF036
:106CB0007BFB3FE1019B5B681E9340E1019B5B68AE
:106CC0001B931B9B002B00F03A811B9B9B69002BA5
:106CD00000F035811B9B9B8B002B00F03081002343
:106CE000ADF896300023ADF85A300023ADF85A3095
:106CF0001B9B98691B9B998B0DF15A02092305F088
:106D0000F2FB0346ADF89630BDF89630002B0ED15D
:106D10000023ADF85A301B9B98691B9B998B0DF192
:106D20005A02082305F0DFFB0346ADF89630BDF8A4
:106D30009630002B00F00381BDF896301F2B00F237
:106D4000FE80BDF85A301A46BDF8963013441B9A9F
:106D5000928B934200F3F0801B9B9B69BDF85A20F5
:106D600013441A9302AB2022002118460FF0FEFEB6
:106D7000BDF8962002AB1A9918460FF0C5FEBDF873
:106D8000963098336B44002203F8902C1F9B2033DD
:106D900012931F9B403313931F9B603314931F9BCD
:106DA000803315930423199300238DF89530002325
:106DB000249331E0249B9B0098336B4453F8503C60
:106DC000002B23D0249B9B0098336B4453F8503CFA
:106DD00018460FF04AFE1890189B002B18D0BDF8EB
:106DE0009630189A9A4214D8249B9B0098336B448F
:106DF00053F8503C189A19461A980FF011FE0346A2
:106E0000002B06D101238DF8953009E000BF00E08A
:106E100000BF249B01332493249A199B9A42C9D31F
:106E20009DF89530002B00F089801B9B023317934F
:106E300000238DF88F30002322932BE04149229AC2
:106E40001346DB0013440B441B78002B1FD0229AFF
:106E50001346DB0013443B4A1344D81C179B0133F1
:106E6000062219460FF0DCFD0346002B0FD11B9BB9
:106E700093F913003349229A1346DB0013440B4461
:106E8000013302461A7001238DF88F3005E0229BF2
:106E900001332293229B032BD0DD9DF88F3083F0AA
:106EA0000103DBB2002B49D0002321933AE02549AE
:106EB000219A1346DB0013440B441B78002B2ED180
:106EC0002049219A1346DB0013440B4401221A7017
:106ED000219A1346DB0013441A4A13440233072253
:106EE000179918460FF010FE0AAB20220021184611
:106EF0000FF03CFEBDF896200AAB1A9918460FF029
:106F000003FE1B9B93F913000E49219A1346DB00E5
:106F100013440B44013302461A7000BF0EE0219B5C
:106F200001332193219B032BC1DD07E000BF06E065
:106F300000BF04E000BF02E000BF00E000BF00BFF0
:106F400027B000BDD847002000B587B001900B46A0
:106F5000ADF80230019B0593124ABDF80230138050
:106F6000BDF80230002219460F4809F0D5FA049006
:106F7000049B0393039B002B02D003980CF014FA9C
:106F8000059B9B881946094807F0B4FA0490049BB6
:106F90000293029B002B02D002980CF005FA00BF6E
:106FA00007B000BD284000202C450020403A0020BA
:106FB00000B585B001900B46ADF802301346ADF830
:106FC0000030BDF802301A460199044809F05CFA15
:106FD0000390039B184605B000BD00BF2C45002060
:106FE00000B583B0084B1B884FF6FF72934207D061
:106FF000054B1B8813211846FFF77CFD019000E02C
:1070000000BF03B000BD00BF2840002010B58AB00B
:107010004FF0FF33099381238DF82330002307932A
:1070200024E02B49079A1346DB0013440B441B78DA
:10703000002B18D02649079A1346DB0013440B4453
:10704000013393F900309DF923209A420BDA20494D
:10705000079A1346DB0013440B4401331B788DF869
:107060002330079B0993079B01330793079B032B4F
:10707000D7DD099B002B01DA052325E004AB0722AD
:10708000002118460FF072FD099A1346DB001344E5
:107090000F4A13449A1C04AB1068186091889279C7
:1070A00099809A710B4B6C460C330FCB07C423802D
:1070B0004FF47A73ADF80630694604A80123064AF6
:1070C000FFF720FD0690069B18460AB010BD00BFD2
:1070D000D8470020904700209247002000B583B099
:1070E000FFF70CFD019000BF03B000BD00B583B0F9
:1070F0002422002108480FF039FD084808F083FDDC
:107100000190019B0093009B002B02D000980CF093
:107110004BF900BF03B000BDD847002090470020C6
:1071200000B587B06B4600221A605A609A60DA6038
:1071300000238DF80C306B46084A1946084808F0C1
:107140000AFD0590059B0493049B002B02D0049834
:107150000CF02AF900BF07B000BD00BF656C02004B
:107160009047002000B585B00190019B084A9A60C5
:10717000019B084ADA60FFF7D5FCFFF751FDFFF7E6
:10718000CFFF00F065F8039000BF05B000BD00BF61
:10719000496F0200B16F020041DF704700BF18461F
:1071A00000B583B00190019B5B68002B03D00120E8
:1071B00001F0B2FC09E0019B1B78012B02D0022BED
:1071C00002D002E000BF00E000BF03B000BD86B007
:1071D000019000914FF6FF73ADF816300023049331
:1071E0002DE0019A049B13441B781BB21B021AB2B8
:1071F000BDF9163053401BB2ADF81630002303938F
:1072000017E0BDF91630002B0BDABDF916305B0024
:107210001BB283F4815383F001031BB2ADF8163027
:1072200004E0BDF816305B00ADF81630039B013367
:107230000393039B072BE4D9049B01330493049A23
:10724000009B9A42CDD3BDF81630184606B0704761
:10725000014B1846704700BF2C40002008B501E0E4
:10726000FFF79AFF04480DF0A9FB0346002BF7D166
:1072700000BF00BF08BD00BFC839002000B585B001
:10728000019000230393019B23F47F6323F00F03FA
:10729000029300230122029904480DF054FB03904D
:1072A000FFF7DCFF039B184605B000BDC83900207E
:1072B00000B589B0059004911346ADF80E30002357
:1072C0000793059BC3F30B03002B0ED10023012270
:1072D000059912480DF037FB0790079B002B04D04F
:1072E000012001F019FC079B14E0FFF7B7FFBDF880
:1072F0000E3000220092049A059908480DF0D2FA47
:107300000790079B002B02D0012001F005FCFFF73E
:10731000A5FF079B184609B000BD00BFC839002073
:1073200000B587B0039002911346ADF80630039B79
:10733000B3F5802F06D3BDF80620039B1344B3F5A5
:10734000EE2F01D9102308E0BDF80630029A039908
:1073500003480DF06EFA0590059B184607B000BD76
:10736000C8390020024B01221A7000BF704700BFCD
:10737000FC470020024B01221A7000BF704700BF7B
:10738000FD47002008B5094B1B78002B04D0074BA4
:1073900000221A7000F0B0F8054B1B78002B03D0C8
:1073A0004FF4EC20FFF76AFF00BF08BDFD47002047
:1073B000FC47002000B585B0019000238DF80F3008
:1073C000019B5B78082B70D0082B7ADC072B61D0EF
:1073D000072B76DC062B49D0062B72DC042B3AD027
:1073E000042B6EDC032B2BD0032B6ADC022B1CD06E
:1073F000022B66DC002B02D0012B0BD061E00123B5
:107400008DF80F30019B03332022194635480FF0C9
:1074100042FB56E001238DF80F30019B03332022FD
:10742000194631480FF037FB4BE001238DF80F3040
:10743000019B0333202219462C480FF02CFB40E01F
:1074400001238DF80F30019B033320221946284871
:107450000FF021FB35E001238DF80F30019B033342
:107460002022194623480FF016FB2AE001238DF84D
:107470000F30019BB3F803309AB21A4BA3F8C02027
:10748000184BB3F8C030042B1AD8164B0522A3F8BA
:10749000C02015E001238DF80F30019BB3F90330B4
:1074A0001AB2104BA3F8C2200BE001238DF80F3065
:1074B000019BB3F803309AB20A4BA3F8C42000E052
:1074C00000BF9DF80F30002B08D0FFF753FF019B42
:1074D00019221A701421019803F074F800BF05B046
:1074E00000BD00BF2C4000204C4000206C4000201C
:1074F0008C400020AC40002000B5BDB0EE210F480C
:10750000FFF765FE03461A460C4BA3F8EE20F02267
:107510000A494FF4EC20FFF7CBFE6B46F0221946E8
:107520004FF4EC20FFF7FCFE6B46F02219460348AF
:107530000FF076FA00BF3DB000BD00BF2C40002028
:1075400000B583B00022044904480DF056F90190BB
:10755000019B184603B000BD14700300C839002019
:10756000BFF34F8F00BF064BDB6803F4E0620449B2
:10757000044B1343CB60BFF34F8F00BF00BFFDE749
:1075800000ED00E00400FA0582B001904FF0A04346
:10759000184602B0704700B585B001900846114604
:1075A0001A4603468DF803300B468DF80230134619
:1075B0008DF8013001AB1846FFF7E6FF03909DF808
:1075C00003209DF802305B001A439DF801309B00B8
:1075D0001A439DF818301B0242EA03019DF81C3043
:1075E0001B04019A1943039B02F5E07243F8221031
:1075F00000BF05B000BD00B585B003900023019326
:10760000002300930023012201210398FFF7C3FF09
:1076100000BF05B000BD00B585B003900B468DF8E6
:107620000B309DF80B3000220192002200920022C4
:1076300000210398FFF7AFFF00BF05B000BD00B504
:1076400085B0019001AB1846FFF79EFF0390019BA8
:10765000012202FA03F31946039800F06FF800BF05
:1076600005B000BD00B585B0019001AB1846FFF72D
:107670008BFF0390019B012202FA03F31946039842
:1076800000F066F800BF05B000BD00B585B0019000
:1076900001AB1846FFF778FF0390039BD3F804353E
:1076A0000293029BDA43019B012101FA03F31A4082
:1076B000039BC3F80825019B01229A40029B1A40B4
:1076C000039BC3F80C2500BF05B000BD00B585B015
:1076D000019001AB1846FFF757FF0390039800F0A5
:1076E0001DF80246019B22FA03F303F0010318463A
:1076F00005B000BD00B585B0019001AB1846FFF79D
:1077000043FF0390039800F011F80246019B22FA10
:1077100003F303F00103184605B000BD82B00190E9
:10772000019BD3F81035184602B0704782B0019023
:10773000019BD3F80435184602B0704782B001901F
:107740000091019B009AC3F8082500BF02B0704762
:1077500082B001900091019B009AC3F80C2500BFF4
:1077600002B07047024B05229A7100BF704700BFFC
:1077700004480020024B0A22DA7200BF704700BFA3
:1077800004480020024B0122DA7000BF704700BF9E
:1077900004480020034B01229A70024B0022DA7049
:1077A00000BF70470448002008B5094B01225A71F8
:1077B0001820FFF79FFF0346002B03D0044B142231
:1077C0005A7402E0024B0A221A7400BF08BD00BFBF
:1077D00004480020024B28229A7200BF704700BF65
:1077E0000448002082B00190019B452B03D9054B32
:1077F0000A221A7302E0034B0A225A7300BF02B036
:10780000704700BF0448002008B500220021012075
:1078100000F08CFA054B01221A71044B03229A7373
:10782000024B0A22DA7300BF08BD00BF04480020E3
:1078300008B500220021002000F078FA024B002257
:107840001A7100BF08BD00BF0448002008B5FFF74B
:1078500089FD01220021002000F068FA064B012278
:107860005A70054B0F22DA71034B0F221A72024B2A
:107870000F225A7200BF08BD04480020024B0022AC
:107880005A7000BF704700BF0448002082B0034612
:107890008DF80730064A9DF807301370054B01221A
:1078A0001A70044B05229A7400BF02B0704700BFE3
:1078B000FE47002004480020024B00221A7000BF3F
:1078C000704700BF0448002000B583B00190A34B6F
:1078D0001B68002B40F03981A14B5B79DBB2002B98
:1078E00030D09F4B1B7CDBB2002B15D09C4B1B7CFC
:1078F000DBB2013BDAB29A4B1A740022012100205C
:1079000000F014FA964B1B7CDBB2002B40F01F8179
:10791000012002F063FF1AE1914B5B7CDBB2002B8C
:107920000CD08F4B5B7CDBB2013BDAB28C4B5A74D0
:1079300000220021012000F0F9F908E1884B002223
:107940005A7104E1864B5B78DBB2002B3AD0844B52
:10795000DB79DBB2002B0CD0814BDB79DBB2013B56
:10796000DAB27F4BDA7101220021002000F0DEF94B
:10797000F2E07B4B1B7ADBB2002B0CD0784B1B7AEE
:10798000DBB2013BDAB2764B1A72002200210120F1
:1079900000F0CCF9E0E0724B5B7ADBB2002B0CD04C
:1079A0006F4B5B7ADBB2013BDAB26D4B5A7200224D
:1079B0000121002000F0BAF9CEE0FFF75FFF03F0ED
:1079C00015FBC9E0664B9B78DBB2002B18D0162064
:1079D000FFF77CFE0346002B01D0FFF7D3FE604B80
:1079E000DB78DBB2002B05D000220121002000F063
:1079F0009DF9B1E000220021012000F097F9ABE0F1
:107A0000574B1B79DBB2002B22D0554BDB7BDBB213
:107A1000013BDAB2524BDA73514BDB7BDBB2002B0A
:107A200040F097804E4B0A22DA730D20FFF72DFEAF
:107A30004B4B9B7BDBB2013BDAB2494B9A73484B11
:107A40009B7BDBB2002B40F08480FFF7F1FE80E0EF
:107A5000434B1B78DBB2002B11D0414B9B7CDBB23C
:107A6000013BDAB23E4B9A743D4B9B7CDBB2002B60
:107A700071D13B4B05229A7400F088F96BE0384BCA
:107A8000DB7ADBB2002B0CD0354BDB7ADBB2013B6F
:107A9000DAB2334BDA7200220021012000F046F9FD
:107AA0005AE02F4B9B7ADBB2002B15D02C4B9B7AE4
:107AB000DBB2013BDAB22A4B9A72294B9B7ADBB2DA
:107AC000002B03D100210020FEF7D4FE002201216B
:107AD000002000F02BF93FE0214B1B7BDBB2002B99
:107AE0000CD01F4B1B7BDBB2013BDAB21C4B1A7371
:107AF00000220121002000F019F92DE0184B5B7BDA
:107B0000DBB2002B0CD0164B5B7BDBB2013BDAB255
:107B1000134B5A7300220121012000F007F91BE0EA
:107B20000F4B9B79DBB2002B0CD00D4B9B79DBB25A
:107B3000013BDAB20A4B9A7101220121012000F0C7
:107B4000F5F809E000F0E6F806E000BF04E000BF49
:107B500002E000BF00E000BF03B000BD984C002071
:107B60000448002000B585B001901320FFF7AEFD5A
:107B70000346DAB2244B1A70234B1B78002B40D1FA
:107B8000224B1B680133214A1360204B1B680A2BD0
:107B900008D11820FFF7AEFD0346002B23D0FFF7D6
:107BA00055FE20E0194B1B68032B0FD11820FFF75F
:107BB000A1FD0346002B04D1FFF7F6FD00F0A4F869
:107BC00011E0FFF7F1FD00F099F80CE00F4B1B6896
:107BD000062B08D11820FFF78DFD0346002B02D09D
:107BE000022002F0FBFD0A4B00224FF480411846B0
:107BF0000BF02AFF0390039B002B02D003980BF09D
:107C0000D3FB00BF05B000BD17480020004800208E
:107C10002041002000B585B001900B468DF803305F
:107C200000230393019B132B09D0019B132B5BD8DB
:107C3000019B072B4AD0019B112B3FD054E013200E
:107C4000FFF744FD0346DAB2294B1A70284B1B7824
:107C5000002B22D0274B18460BF043FF0390264BF6
:107C60001B68002B3BD11820FFF744FD0346002B77
:107C700035D0FEF719FC0290029B452B03D90298E0
:107C8000FFF7B0FD2BE0029B1D2B03D90298FFF7F5
:107C9000A9FD24E0FFF7B8FD21E0174B00221A6090
:107CA000144B18460BF01DFF0390124B00224FF4AB
:107CB000804118460BF0C8FE039010E01120FFF73A
:107CC00005FD0346002B0CD0FFF74AFC0720FFF709
:107CD000FDFC0346002B06D001F068FA03E000BF6C
:107CE00002E000BF00E000BF00BF05B000BD00BF64
:107CF00017480020204100200048002008B5182027
:107D0000FFF7B0FC00BF08BD08B51820FFF797FCCF
:107D100000BF08BD08B50B20FFF7A4FC0C20FFF73F
:107D2000A1FC0D20FFF79EFC00BF08BD00B583B08D
:107D300003468DF807300B468DF8063013468DF854
:107D400005309DF80730002B03D00D20FFF777FC9E
:107D500002E00D20FFF786FC9DF80630002B03D0D3
:107D60000B20FFF76CFC02E00B20FFF77BFC9DF87B
:107D70000530002B03D00C20FFF761FC02E00C2043
:107D8000FFF770FC00BF03B000BD000008B51D4B3D
:107D90001B78002B1AD11C4B1B78002B09D01A4BD7
:107DA00000221A700D20FFF75DFC0C20FFF747FC46
:107DB00008E0154B01221A700D20FFF740FC0C2043
:107DC000FFF750FC0B20FFF74DFC19E00E4B1B7822
:107DD000002B09D00C4B00221A700D20FFF742FC3B
:107DE0000B20FFF72CFC08E0074B01221A700D2036
:107DF000FFF725FC0B20FFF735FC0C20FFF732FCCA
:107E000000BF08BDFE4700201848002000B595B00F
:107E1000132009F021FB132009F04EFC09F010FBA0
:107E2000034683F00103DBB2002B08D009F0A4FA6B
:107E30001390139B002B02D013980BF0B5FAA24AB3
:107E40000021A2480BF0DAFD1290129B002B02D009
:107E500012980BF0A9FA9E4A01219E480BF0CEFD24
:107E60001190119B002B02D011980BF09DFA0B2062
:107E7000FFF7C1FB0C20FFF7BEFB0D20FFF7BBFB9C
:107E80001820FFF7B8FBFFF745FFFFF737FF924BCE
:107E9000002240F2666118460BF0D6FD1090109B50
:107EA000002B02D010980BF07FFA4FF420330F9381
:107EB0004FF480430E9300238DF817300023049372
:107EC0000023039300230D9300238DF8333000210A
:107ED0001620FFF7A0FB00211320FFF79CFB0021D9
:107EE0001120FFF798FB1120FFF7F0FB0346002B52
:107EF0004ED002F0B7FCFFF74DFC0BF037FE0D90B3
:107F00001320FFF7E3FB0346002B0CBF01230023E4
:107F10008DF833301320FFF7D9FB0346002B2ED109
:107F20009DF81730DBB283F00103DBB2002B07D0E2
:107F300001238DF817300D9B04930D9B0393DCE711
:107F4000049B19460D980BF006FE0790039B1946FB
:107F50000D980BF000FE02460E9B934204D80D9B39
:107F60000393079B9B0B0693079A0F9B9A42C4D3DC
:107F7000594B18460BF0B5FD00F0BAFEBDE79DF871
:107F80001730DBB2002BB8D000238DF81730B4E7E0
:107F900003238DF8083000238DF809309DF80A304E
:107FA00023F001038DF80A309DF80A3023F0020314
:107FB0008DF80A309DF80A3023F004038DF80A305A
:107FC00000238DF8093002AB444A1946132009F00A
:107FD0006DFA0B900B9B002B02D00B980BF0E4F981
:107FE0000121132009F0D2FA03238DF80430002375
:107FF0008DF805309DF8063023F001038DF806302A
:108000009DF8063023F002038DF806309DF8063007
:1080100023F004038DF8063000238DF8053001AB02
:108020002E4A1946072009F041FA0A900A9B002BB4
:1080300002D00A980BF0B8F90121072009F0A6FA3E
:1080400003238DF8003000238DF801309DF80230B5
:1080500023F001038DF802309DF8023023F0020373
:108060008DF802309DF8023023F004038DF80230C1
:1080700000238DF801306B46184A1946112009F08B
:1080800015FA0990099B002B02D009980BF08CF986
:108090000121112009F07AFA1320FFF717FB03469C
:1080A000002B0DD10E4B00224FF4804118460BF0EF
:1080B000CBFC0890089B002B02D008980BF074F9B9
:1080C00000BF15B000BD00BF657B0200486F030014
:1080D000C97802004C6F030040410020157C02006B
:1080E0002041002072DF704700BF184673DF7047E1
:1080F00000BF184674DF704700BF184676DF704730
:1081000000BF184677DF704700BF18467CDF704716
:1081100000BF184633DF704700BF184600B585B072
:10812000019000238DF80B3000238DF80A30019B5D
:108130001B78002B01D0032B1AE002F0C9FB034689
:108140008DF80B300023039302E0039B013303936C
:10815000019B9B8A1A46039B9342F6D3019B1869A5
:10816000019B9B8A9DF90B201946FEF7BDFA00BFC3
:1081700000BF05B000BD00B583B0FFF7CBFF019095
:10818000019B0093009B002B02D000980BF00CF990
:1081900000BF03B000BD00B583B003468DF80730C3
:1081A0009DF80730002B01D0032B02E0FFF7E3FF1F
:1081B00000BF00BF03B000BD00B583B001900198BF
:1081C0000BF0F2F800BF03B000BD000000B587B0AF
:1081D00000230193144B019301AB1946134807F098
:1081E00080FA0590059B0493049B002B02D0049811
:1081F0000BF0DAF802AB0422002118460EF0B6FCB0
:108200000B4B029302AB19460A4807F0A9FE0590F2
:10821000059B0393039B002B02D003980BF0C4F83B
:1082200000BF07B000BD00BFB98102002448002094
:108230001D8102006C41002000B5AFB001ABAC2243
:10824000002118460EF092FC02238DF80430002322
:108250008DF8063005238DF807300123ADF8503036
:10826000114B159301238DF87C3001238DF880305C
:10827000A0232393002324930C4B2A9301AB19468C
:108280000B4804F0FFFB2D902D9B2C932C9B002B77
:1082900002D02C980BF088F80121054804F0E5FB8A
:1082A00000BF2FB000BD00BF8841002097810200B1
:1082B0003048002000B585B001900B46ADF8023083
:1082C0000A4ABDF802301380BDF80230194608484A
:1082D00007F029FA0390039B0293029B002B02D024
:1082E00002980BF061F800BF05B000BD60410020AE
:1082F0002448002000B585B001900B46ADF802304F
:108300001346ADF80030BDF800300DF102020199BE
:10831000034807F0CBFE0390039B184605B000BD51
:108320006C41002000B583B0084B1B884FF6FF72EC
:10833000934207D0054B1B8813211846FFF7DEFE3A
:10834000019000E000BF03B000BD00BF604100200D
:1083500000B583B00B4B93F854301846FFF7CAFEB4
:108360000190019B002B0AD0019B082B07D0019B99
:108370000093009B002B02D000980BF015F800BF73
:1083800003B000BD3048002000B585B001909DF8D5
:108390000830012262F303038DF808309DF808309D
:1083A000012262F307138DF8083001980EF05DFB8F
:1083B00003469AB202AB01991846FFF7A7FE039055
:1083C00000BF05B000BD000000B59BB0FEF740FF48
:1083D000189000238DF8673008AB3C220021184626
:1083E0000EF0C4FB02238DF8203004238DF82330D7
:1083F00000238DF8223002F001F80346002B07D04D
:10840000214B44F221321A8004238DF8673008E0B2
:108410001D4B41F234221A80189BB3F9C2308DF8FB
:108420006730189B03F1A0026B46184918460DF0FF
:1084300095FF154A6B4693606B4618460EF015FB88
:1084400003469AB2104B9A800F4B129301238DF87A
:108450004C300F4B93F8543019469DF967301A464B
:108460000120FFF74FFE1790179B002B01D0179BA1
:1084700007E008AB00221946054804F01CFD1790E0
:10848000179B18461BB000BD644C0020506F0300C2
:108490003048002000B595B0FEF7DAFE1390284B67
:1084A0001B788DF806300123ADF8043002AB3C2276
:1084B000002118460EF05AFB06238DF80B300223DC
:1084C0008DF8083001F09AFF0346002B04D01D4BB5
:1084D00044F221321A8003E01A4B41F234221A800E
:1084E000139BA033174A9360139BA03318460EF0DA
:1084F000BCFA03469AB2134B9A80124B0C93012399
:108500008DF8343002AB002219460F4804F0D3FC3A
:108510001290129B002B01D0129B0EE004238DF8C9
:108520004730094B93F8543019469DF947301A46A5
:108530000120FFF7E7FD1290129B184615B000BD11
:108540006C410020704C00203048002000B585B000
:10855000034600918DF80730FEF77AFE0290002363
:1085600003939DF80730002B35D0029B1846FFF788
:108570000BFFFFF729FF0346002B02D0039B0133BB
:108580000393284B052283F83C20029BB3F8C430A8
:10859000DB00254A82FB03125210DB17D31A1A465E
:1085A000204B5A64214A22492248FFF79BFD03468B
:1085B000002B02D0039B013303931A4B93F85430E2
:1085C00001211846FFF792FD0346002B20D0039BA4
:1085D000013303931CE0029B1846FFF7D5FEFFF71B
:1085E00059FF0346002B02D0039B013303930D4B2D
:1085F000A0225A610B4B012283F83C200321094839
:1086000004F018FB0346002B02D0039B01330393B5
:10861000039B002B02D0082000F07EFA00BF05B0BB
:1086200000BD00BF30480020676666666C480020C9
:10863000404C00208448002000B583B00190019B8D
:10864000054A1A60019B054A5A60FFF7BFFDFFF714
:10865000F3FD00BF03B000BDB5820200F582020049
:1086600076DF704700BF18467FDF704700BF1846AF
:108670008FDF704700BF1846B1DF704700BF184654
:1086800082B001904FF0A043184602B0704700B589
:1086900085B00190084611461A4603468DF803300E
:1086A0000B468DF8023013468DF8013001AB1846A9
:1086B000FFF7E6FF03909DF803209DF802305B0072
:1086C0001A439DF801309B001A439DF818301B0295
:1086D00042EA03019DF81C301B04019A1943039BD5
:1086E00002F5E07243F8221000BF05B000BD00B5EE
:1086F00085B00390002301930023009300230122FF
:1087000001210398FFF7C3FF00BF05B000BD00B50E
:1087100085B003900B468DF80B309DF80B3000228E
:10872000019200220092002200210398FFF7AFFF80
:1087300000BF05B000BD00B585B0019001AB184683
:10874000FFF79EFF0390019B012202FA03F31946F3
:10875000039800F053F800BF05B000BD00B585B028
:10876000019001AB1846FFF78BFF0390019B01229C
:1087700002FA03F31946039800F04AF800BF05B067
:1087800000BD00B585B0019001AB1846FFF778FF3A
:108790000390039BD3F804350293029BDA43019BB9
:1087A000012101FA03F31A40039BC3F80825019B3A
:1087B00001229A40029B1A40039BC3F80C2500BF7C
:1087C00005B000BD00B585B0019001AB1846FFF7BC
:1087D00057FF0390039800F009F80246019B22FA24
:1087E00003F303F00103184605B000BD82B0019009
:1087F000019BD3F81035184602B0704782B0019043
:108800000091019B009AC3F8082500BF02B0704791
:1088100082B001900091019B009AC3F80C2500BF23
:1088200002B0704700B58BB00190009100238DF825
:108830002730019B1B88562B68D0562B76DC522B99
:1088400043D0522B72DC3B2B50D03B2B6EDC212BC8
:1088500013D0212B6ADC132B26D0132B66DC102BB4
:1088600066D0112B00D061E0019B1B7A8DF80B3094
:10887000364B4FF6FF721A8065E000238DF8083002
:1088800000238DF80930019B9B8802AA11461846E7
:10889000FFF7EEFE0890089B0493049B002B49D041
:1088A00004980AF081FD45E0284B18880023002237
:1088B0008521FFF7D9FE0890089B0393039B002BAB
:1088C0003AD003980AF070FD36E0204B1888002358
:1088D00000220021FFF7D0FE0890089B0693069B1C
:1088E000002B2BD006980AF05FFD27E0019B9B88A8
:1088F00013211846FFF7B4FE0890089B0593059BCB
:10890000002B1DD005980AF04FFD19E0019B9B88B4
:1089100013211846FFF7A4FE0890089B0793079BB6
:10892000002B0FD007980AF03FFD0BE000BF0AE0D4
:1089300000BF08E000BF06E000BF04E000BF02E0A7
:1089400000BF00E000BF00BF0BB000BD1042002020
:1089500008B50CF071FD00BF08BD00B583B00190F3
:108960000B468DF80330019B132B08D0019B132B72
:108970001CD8019B072B10D0019B112B16E0132054
:10898000FFF720FF0346002B03D00C20FFF7E6FE85
:108990000CE00C20FFF7CFFE08E00720FFF712FFE6
:1089A0000346002B01D000F001FC00BF00BF03B064
:1089B00000BD000000B589B0554A02AB12681146EF
:1089C00019800233120C1A7002AB524A1946132056
:1089D00008F06CFD0790079B002B02D007980AF067
:1089E000E3FC0121132008F0D1FD03238DF80430AE
:1089F00000238DF805309DF8063023F001038DF833
:108A000006309DF8063023F002038DF806309DF8FD
:108A1000063023F004038DF8063000238DF805306E
:108A200001AB3C4A1946112008F040FD0690069B18
:108A3000002B02D006980AF0B7FC0121112008F0A3
:108A4000A5FD03238DF8003000238DF801309DF83B
:108A5000023023F001038DF802309DF8023023F03C
:108A600002038DF802309DF8023023F004038DF8E4
:108A7000023000238DF801306B46264A1946072044
:108A800008F014FD0590059B002B02D005980AF014
:108A90008BFC0121072008F079FD01211620FFF74A
:108AA00036FE0B20FFF723FE0C20FFF720FE0D20E3
:108AB000FFF71DFE1820FFF71AFE1820FFF74EFEE5
:108AC0000BF054F804904FF4004303930B20FFF78E
:108AD00032FE0C20FFF72FFE0D20FFF72CFE00BF0B
:108AE0000BF044F80346049918460BF034F802469C
:108AF000039B9342F4D80B20FFF730FE0C20FFF7C6
:108B00002DFE0D20FFF72AFE00BF09B000BD00BFFB
:108B1000646F03005B89020000B583B001901D4AB9
:108B2000019B13600B20FFF719FE0C20FFF716FEC8
:108B30000D20FFF713FE174B1B68082B1FD0082BC7
:108B400024D8042B14D0042B20D8012B02D0022BC4
:108B500007D01BE0642301220021002000F04EF822
:108B600015E0642300220021012000F047F80EE008
:108B7000642300220121002000F040F807E0642374
:108B800001220121012000F039F800E000BF00BF00
:108B900003B000BD984C002000B585B00190FDF7F2
:108BA0007DFC0390039B41F2CB02934204D8039BCC
:108BB00040F64852934203D80220FFF7ADFF00BFB2
:108BC00000BF05B000BD00B583B001900D20FFF7D8
:108BD000D8FD00BF03B000BD00B583B001900C20EC
:108BE000FFF7CFFD00BF03B000BD00B583B001901B
:108BF0000B20FFF7C6FD00BF03B000BDF0B585B088
:108C0000009303468DF807300B468DF80630134667
:108C10008DF80530009B00221C4615464FF00002DF
:108C20004FF00003EB0343EA5443E20312F57A7674
:108C300043F100074FF4FA624FF000033046394623
:108C40000DF080FA02460B46134603939DF8073059
:108C5000002B09D0144B18460AF043FF124B002298
:108C6000039918460AF0F0FE9DF80630002B09D053
:108C70000E4B18460AF035FF0C4B0022039918469C
:108C80000AF0E2FE9DF80530002B09D0084B18468B
:108C90000AF027FF064B0022039918460AF0D4FE7B
:108CA00000BF05B0F0BD00BFB0410020F041002082
:108CB000D041002008B5084A012108480AF09EFE6C
:108CC000074A012107480AF099FE074A012107488F
:108CD0000AF094FE00BF08BDC78B0200586F030066
:108CE000D98B02005C6F0300EB8B0200606F030006
:108CF00000B583B0FFF75EFEFFF7DCFFFDF7ACFCCD
:108D0000FEF71EFC0346002B02D00120FFF704FFF4
:108D1000002000F025FA034683F00103DBB2002BAC
:108D200002D00420FFF7F8FE00F0DAF801F0EAFDC7
:108D300000210020FFF70AFC0C4A01210C480AF030
:108D40005DFE0190019B0093009B002B02D00098D8
:108D50000AF02AFB074B00224FF4804118460AF024
:108D600073FE00F0BDF8FFF7F3FDFAE7998B020000
:108D7000546F03009041002000B58DB00190019B1D
:108D8000D3F8023003F5FD4310330B930AF0EEFEE7
:108D90000346074A1360074A0B9B1360064B0122E8
:108DA0001A7002AB184600F02FF800BF0DB000BDDE
:108DB000A04C00209C4C0020A44C002000B585B0A5
:108DC0000E4B1B7883F00103DBB2002B01D0002394
:108DD00010E00AF0CBFE0390094B1B68194603987C
:108DE0000AF0B9FE0290029BDB0B0193054B1A6857
:108DF000019B1344184605B000BD00BFA44C0020E1
:108E0000A04C00209C4C002030B585B00190FFF7AD
:108E1000D5FF03460293019B002B11D002AB1846ED
:108E20000DF0E9FF0390039B002B09D0019A039BEF
:108E300014461D460FCD0FC40FCD0FC42B68236001
:108E400000BF05B030BD82B001904FF0A04318467E
:108E500002B0704700B585B0019001AB1846FFF72E
:108E6000F2FF0390039800F009F80246019B22FAF2
:108E700003F303F00103184605B000BD82B0019072
:108E8000019BD3F81035184602B0704700B587B083
:108E9000019000910023ADF8103078238DF80F3049
:108EA0000023059304AB1946002001F016F8034691
:108EB0000593BDF81030C3F308039BB2002B0BD011
:108EC000059B002B08D1009B9BB20DF10F00019A6E
:108ED000012100F00DFFE5E700BF07B000BD000075
:108EE00010B588B000230793484B1B78DBB2002BEA
:108EF00006D10720FFF7AEFF0346002B00F081806C
:108F0000434B1A681346DB009B1A0693069901200F
:108F10000DF06BFD03460593059B002B73D03B4B77
:108F200000221A7000F078FF0023ADF80C301B23EC
:108F30008DF8103003AB1946002000F0CEFF9DF8ED
:108F40000D3003F01003DBB2002B12D0069B9BB256
:108F50001946059800F080FB07902E4B1B78DBB27A
:108F600083F00103DBB2002B1ED0079800F014FD44
:108F70001AE048F20103ADF8083002AB02211846AE
:108F800000F08AFE70238DF807300DF107000423EE
:108F9000214A012100F0ACFE00238DF8093002AB1C
:108FA0000221184600F078FE0020FDF783FA194BE5
:108FB0001B78DBB2002B1BD01422002117480DF0C8
:108FC000D5FD164B31221A70144B03225A70134BE5
:108FD00000229A70114B1022DA70104B104A1C1D9F
:108FE00013460FCB84E80F0014210C4801F0EAFA75
:108FF00006990598FFF74AFF05980DF0EBFC00F085
:10900000F3FE00F085FB08B010BD00BFCC4C002083
:109010001C420020CD4C0020C84C0020A84C002051
:10902000BC4C002000B585B00023ADF804301B23F4
:109030008DF80C3001AB1946002000F04EFFBDF852
:109040000430C3F308039BB2ADF80E30BDF80E3008
:10905000184605B000BD000000B583B000230193A1
:1090600010E00C4A019B12F813308DF800300023F9
:109070008DF801306B460221184600F00DFE019B71
:1090800001330193019BB3F5947FEAD300BF00BF86
:1090900003B000BD2C42002000B583B00023019333
:1090A00020E0144A019B12F813308DF80030114A69
:1090B000019B12F81330072B05D10F4B1B68DBB255
:1090C0008DF8013006E00B4A019B5B0013445B788E
:1090D0008DF801306B460221184600F0DDFD019B42
:1090E00001330193019B052BDBD900BF00BF03B007
:1090F00000BD00BF204200201C42002000B583B00C
:109100000023019320E0144A019B12F813308DF8DC
:109110000030114A019B12F81330072B05D10F4B79
:109120001B68DBB28DF8013006E00B4A019B5B0047
:1091300013445B788DF801306B460221184600F02D
:10914000ABFD019B01330193019BB3F5947FDAD30F
:1091500000BF00BF03B000BD2C4200201C42002015
:1091600000B583B003468DF8073000F055FE00F0DF
:1091700097FA034683F00103DBB2002B03D000F023
:1091800033FE00230FE0FFF767FF9DF80730002B49
:1091900002D0FFF7B3FF01E0FFF77EFFFFF742FFCA
:1091A00000F022FE0123184603B000BD024B01224D
:1091B0001A7000BF704700BFCC4C002000B589B0CA
:1091C0000346ADF806300B46ADF804301346ADF853
:1091D0000230BDF9063007EE903AB8EEE77A3E4B22
:1091E000D3ED007A67EE277ACDED067ABDF904302B
:1091F00007EE903AB8EEE77A374BD3ED007A67EE98
:10920000277ACDED057ABDF9023007EE903AB8EE37
:10921000E77A314BD3ED007A67EE277ACDED047A09
:109220002E4B1B78DBB2002B26D0DDED067A9FEDAE
:109230002C7A67EE877AFDEEE77A17EE903A1AB24B
:10924000284B1A80DDED057A9FED257A67EE877A47
:10925000FDEEE77A17EE903A1AB2224B5A80DDED16
:10926000047A9FED1F7A67EE877AFDEEE77A17EEB4
:10927000903A1AB21B4B9A80DDED067A27EEA77A58
:10928000DDED057A67EEA77A37EE277ADDED047A11
:1092900067EEA77A77EE277AB0EE670A0CF04EFFFA
:1092A0008DED030ADDED037AB7EE007A77EEC77A2B
:1092B000CDED077ADDED077AF5EEC07AF1EE10FA22
:1092C00002D54FF000030793079B07EE903AB0EEEC
:1092D000670A09B000BD00BF14420020CD4C002039
:1092E00000007A44BC4C002000B587B00346ADF8BE
:1092F00006300B46ADF804301346ADF80230BDF928
:10930000063007EE903AB8EEE77A3B4BD3ED007AA1
:1093100067EE277ACDED047ABDF9043007EE903A76
:10932000B8EEE77A344BD3ED007A67EE277ACDEDCD
:10933000037ABDF9023007EE903AB8EEE77A2E4B89
:10934000D3ED007A67EE277ACDED027A2B4B1B78AE
:10935000DBB2002B26D0DDED047AB2EE047A67EEA4
:10936000877AFDEEE77A17EE903A1AB2244BDA804C
:10937000DDED037AB2EE047A67EE877AFDEEE77AE6
:1093800017EE903A1AB21E4B1A81DDED027AB2EE58
:10939000047A67EE877AFDEEE77A17EE903A1AB212
:1093A000174B5A81DDED047A27EEA77ADDED037ABB
:1093B00067EEA77A37EE277ADDED027A67EEA77AB5
:1093C00077EE277AB0EE670A0CF0B8FE8DED050A4D
:1093D000DDED057AB0EE007AF4EEC77AF1EE10FA20
:1093E00002D54FF000030593059B07EE903AB0EECF
:1093F000670A07B000BD00BF18420020CD4C002016
:10940000BC4C002000B58FB0019000914FF00003DC
:109410000D934FF000030C930023ADF82E30002382
:10942000ADF82C3000230A93A9E00A9A1346DB001A
:109430009B1A0693069B019A13441B78DB088DF850
:1094400017309DF81730022B49D1069B0233019A41
:1094500013441B781BB21B021AB2069B01330199FD
:109460000B441B781BB21343ADF80E30069B04333C
:10947000019A13441B781BB21B021AB2069B0333DA
:1094800001990B441B781BB21343ADF80C30069BBB
:109490000633019A13441B781BB21B021AB2069BB7
:1094A000053301990B441B781BB21343ADF80A3006
:1094B000BDF90E20BDF90C10BDF90A301846FFF7B2
:1094C0007DFEB0EE407ADDED0D7A77EE877ACDED58
:1094D0000D7ABDF82E300133ADF82E304CE09DF8FA
:1094E0001730012B48D1069B0233019A13441B7895
:1094F0001BB21B021AB2069B013301990B441B7865
:109500001BB21343ADF81430069B0433019A134485
:109510001B781BB21B021AB2069B033301990B4442
:109520001B781BB21343ADF81230069B0633019A29
:1095300013441B781BB21B021AB2069B0533019918
:109540000B441B781BB21343ADF81030BDF910204B
:10955000BDF91210BDF914301846FFF7C5FEB0EE84
:10956000407ADDED0C7A77EE877ACDED0C7ABDF896
:109570002C300133ADF82C300A9B01330A930A9B3F
:10958000009A9A423FF651AF4FF000030993BDF89D
:109590002E30002B0CD0BDF82E3007EE903AB8EEEE
:1095A000677ADDED0D6AC6EE877ACDED087A02E0C6
:1095B0004FF000030893BDF82C30002B0CD0BDF801
:1095C0002C3007EE903AB8EE677ADDED0C6AC6EE05
:1095D000877ACDED077A02E04FF000030793BDF8DC
:1095E0002E30002B0FD0BDF82E3007EE903AB8EE9B
:1095F000677ADDED0D6AC6EE877A9DED097A77EE22
:10960000277ACDED097ABDF82C30002B13D0BDF8A8
:109610002C3007EE903AB8EE677ADDED0C6AC6EEB4
:10962000877A9FED0B7A67EE877A9DED097A77EE60
:10963000277ACDED097ADDED097A9FED067A67EE9E
:10964000877AFCEEE77A17EE903A18460FB000BD25
:109650006F12033B00007A4400B585B001900B46C1
:10966000ADF8023078238DF80D3000238DF80F30DF
:1096700000238DF80E30BDF802300DF10D00019A77
:10968000012100F035FB054B1B6819460198FFF7D7
:10969000B9FE0346184605B000BD00BF1C420020BD
:1096A00000B583B00F238DF8073000238DF8063006
:1096B0000DF106020DF107000123012100F018FB56
:1096C0009DF80630712B01D1012300E000231846DC
:1096D00003B000BD30B482B00190019B002B0ED0CE
:1096E000094A019B14461D4628686968AA68EB6808
:1096F0000FC428692060054B01221A7000E000BFEA
:1097000002B030BC704700BFA84C0020CE4C0020F7
:1097100000B587B0444B1B78002B00F08380424B90
:1097200000221A70414BDB788DF816303F4B9B7846
:109730008DF8153000238DF817309DF81630002B6A
:109740006FD09DF81630102B6BD800F065FB374BAF
:109750005B78032B47D0032B57DC022B31D0022B35
:1097600053DC002B02D0012B0FD04EE09DF81630B9
:109770009BB20DF115002E4A012100F0B9FA012328
:109780008DF8173000F030FB3FE09DF815308DF874
:1097900004309DF8162001AB0133254918460DF021
:1097A000B3F99DF816309BB201339AB201AB114662
:1097B000184600F071FA01238DF8173000F014FB01
:1097C00023E000F011FB1B4B01221A701A4B1B4ABD
:1097D0001A601B4B1B4A1A601B4B02221A600120A5
:1097E000FFF7BEFC11E000F0FFFA124B00221A70E6
:1097F000114B164A1A60124B124A1A60124B4B2236
:109800001A600020FFF7ACFC00BF9DF81730002B5A
:1098100008D0064B31221A701421044800F0D2FE01
:1098200000E000BF07B000BDCE4C0020A84C0020D7
:10983000AC4C0020CD4C00201442002040DA7F398F
:1098400018420020295C8F3D1C42002040DA7F38FE
:10985000014B1846704700BFD04C002086B00190E5
:10986000019B08330593059BA3F58022144BA3FBB2
:109870000213590B0B465B000B441B03D31A0493D2
:10988000049BB3F5345F0FD3059BA3F580230C4AEB
:10989000A2FB03235B0B0393039A13465B00134461
:1098A0001B0303F586230593059BB3F5982F02D37D
:1098B0004FF480230593059B184606B0704700BF00
:1098C000ABAAAAAA8EB000230D9300230C932F4BB2
:1098D0001B680B932E4B1B680A930B9A0A9B9A42A8
:1098E0001CD80A9A0B9BD31A0D930B9BA3F58023CC
:1098F000284AA2FB03235B0B03930A9BA3F5802357
:10990000244AA2FB03235B0B0293029A039BD21A05
:1099100013465B0013441B020C9327E00A9A0B9B2F
:10992000D31A03F540430D930B9BA3F58023194AEB
:10993000A2FB03235B0B0993042308930A9BA3F563
:109940008023144AA2FB03235B0B0793089A099B0D
:10995000D31A0693079B0593069A059B1344049319
:10996000049A13465B0013441B020C930D9A0C9B44
:109970009A4201D2002305E00D9A0C9BD31A019361
:10998000019BDB0818460EB0704700BF88440020DA
:1099900084440020ABAAAAAA00B589B0019002AB0A
:1099A0000822002118460DF0E1F8354B1B69013300
:1099B000334A1361324B5A69019B1344304A536155
:1099C000FDF746FC07902E4B1B69079AB2F8C020A2
:1099D0002C49A1FB0212920892B293424DD32A4B1A
:1099E0001B681846FFF73AFF0690284B1B68069A3B
:1099F0009A4220D1244B1A68244B1B689A421AD0F1
:109A0000224B1B68A3F58023214AA2FB03235B0B97
:109A10000593059A13465B0013441B0303F5862345
:109A20001A4A1360194B1B68B3F5982F03D3174BD1
:109A30004FF480221A60124B5A69114B1B69B2FB1A
:109A4000F3F39BB2ADF808300F4B1B6802A9082254
:109A50001846FDF72DFC0490049B002B02D10A4A06
:109A6000069B13600B4B1B6801330A4A1360044BBF
:109A700000225A61024B00221A6100BF09B000BDEA
:109A8000D04C0020CDCCCCCC7C44002080440020A5
:109A9000ABAAAAAA4C4D002000B589B001900023C2
:109AA0008DF81F30019B02330693454B1A68454BD6
:109AB0001B689A4264D100237FE0414B1B6803A9D5
:109AC00008221846FDF72CFCBDF80C109DF81F303D
:109AD0005B00069A1A440B46C3F30D0399B2138830
:109AE00061F30D0313809DF81F305B00069A134449
:109AF0001B88C3F30D039BB2C82B0AD99DF81F30F6
:109B00005B00069A1A445378022161F3871353705D
:109B10001EE09DF81F305B00069A13441B88C3F3B8
:109B20000D039BB2502B0AD99DF81F305B00069A9B
:109B30001A445378012161F38713537008E09DF8AC
:109B40001F305B00069A1A44537823F0C003537009
:109B50009DF81F3001338DF81F30194B1B681846D4
:109B6000FFF77CFE0590164B1B68059A9A4204D1BC
:109B7000144B1B68124A13600CE0114A059B1360DA
:109B80009DF81F30082B05D80D4B1A680D4B1B682C
:109B90009A4292D19DF81F30002B07D0084B1A68CB
:109BA000084B1B689A4201D0012306E09DF81F3044
:109BB000002B01D0002300E00023184609B000BDAF
:109BC0008844002084440020024B1B68024A136032
:109BD00000BF70478844002080440020044B1B686D
:109BE000044A1360044B1B68044A136000BF7047AB
:109BF0007C440020844400208044002088440020CD
:109C000082B001904FF0A043184602B0704700B5F3
:109C100085B00190084611461A4603468DF8033078
:109C20000B468DF8023013468DF8013001AB184613
:109C3000FFF7E6FF03909DF803209DF802305B00DC
:109C40001A439DF801309B001A439DF818301B02FF
:109C500042EA03019DF81C301B04019A1943039B3F
:109C600002F5E07243F8221000BF05B000BD00B558
:109C700085B003900B468DF80B309DF80B30002219
:109C8000019200220092002200210398FFF7BFFFFB
:109C900000BF05B000BD000000B587B003900B46C3
:109CA000ADF80A30104B00221A7000230593BDF85E
:109CB0000A3000220092039A6A210C4809F08CFABB
:109CC0000590059B002B03D0059B0AE00BF0B4FB2D
:109CD000054B1B78DBB283F00103DBB2002BF5D11F
:109CE000059B184607B000BD504D0020686F03006B
:109CF00000B589B0059003921A460B46ADF81230B4
:109D00001346ADF810301D4B00221A700023079344
:109D1000012300930123059A6A21194809F05CFA8E
:109D20000790079B002B03D0079B24E00BF084FBDC
:109D3000124B1B78DBB283F00103DBB2002BF5D1B1
:109D40000E4B00221A70BDF81030039A6A210C489D
:109D500009F069FA0790079B002B03D0079B0AE0E4
:109D60000BF06AFB054B1B78DBB283F00103DBB21F
:109D7000002BF5D1079B184609B000BD504D0020BF
:109D8000686F030000B583B001900091019B1B78C0
:109D9000022B18D0022B1ADC002B02D0012B04D08E
:109DA00015E00F4B01221A7016E00D4B01221A70BC
:109DB0000C4B1B68002B0ED10A4B01221A600420A9
:109DC000FEF7AAFE07E0064B01221A7004E0044BDE
:109DD00001221A7000E000BF00BF03B000BD00BF49
:109DE000504D0020544D002008B5084808F0D2FE20
:109DF000064808F06DFE064B0022C3F80025054B0F
:109E000000221A60034B1B6800BF08BD686F030087
:109E100000300040FC3F004010B586B003211920FF
:109E2000FFF725FF03211A20FFF721FF114B012225
:109E3000C3F80025104B01221A600F4B1B680F4B13
:109E40006C460FCB84E80F00694600230C4A0D488E
:109E500008F0A8FD0590059B0493049B002B02D0FD
:109E6000049809F0A1FA074808F078FE00BF06B090
:109E700010BD00BF00300040FC3F0040706F030089
:109E8000859D0200686F030000B587B003900192C2
:109E90001A460B468DF80B301346ADF808300023F8
:109EA0000593BDF808300DF10B00019A0121FFF771
:109EB0001FFF059B184607B000BD82B001900091BE
:109EC000019B002B06D0009B002B03D0009B1A782F
:109ED000019B1A7000BF02B0704700B587B00190B7
:109EE00000910023ADF8103000238DF80C300023D2
:109EF000059304AA02231B210198FFF7C5FF0590D3
:109F0000059B002B01D0059B41E004AB5A1C03AB21
:109F100011461846FFF7D1FF9DF80C30C3F300132C
:109F2000D9B2009A537861F3410353709DF80C3015
:109F3000C3F38013D9B2009A537861F3C30353700B
:109F40009DF80C30C3F34013D9B2009A537861F3F3
:109F5000820353709DF80C30C3F3C013D9B2009A3A
:109F6000537861F3041353709DF810301AB29DF8C2
:109F700011301BB21B021BB213431BB2C3F3080305
:109F800099B2009A138861F308031380059B184661
:109F900007B000BD76DF704700BF18467ADF704714
:109FA00000BF18467FDF704700BF184688DF704744
:109FB00000BF184689DF704700BF18468EDF704724
:109FC00000BF18468FDF704700BF1846B1DF7047EB
:109FD00000BF18463FDF704700BF184600B585B088
:109FE0006B460822002118460CF0C0FD1023ADF886
:109FF00000301023ADF802303123ADF804304FF4B7
:10A00000FA73ADF806306B461846FFF7C7FF0390AA
:10A01000039B0293029B002B02D0029809F0C4F923
:10A0200000BF05B000BD000000B585B00190019BE8
:10A030001B78002B0ED1094B1B883B211846FFF7DC
:10A04000A9FF0390039B0293029B002B02D002986E
:10A0500009F0AAF900BF05B000BD00BF8C44002084
:10A0600000B583B00190019809F09EF900BF03B0DC
:10A0700000BD000000B58BB001AB1C2200211846CA
:10A080000CF074FD002301934FF4A03302934FF4BE
:10A09000F023039303238DF810300023ADF8123022
:10A0A00000238DF814300A4B06930A4B079301AB3B
:10A0B000184603F0CFF80990099B0893089B002BE2
:10A0C00002D0089809F070F900BF0BB000BD00BFC6
:10A0D00029A0020061A0020000B58DB0019000919E
:10A0E00000238DF82F30019B1B88562B00F0C78072
:10A0F000562B00F3D480522B00F0A080522B00F39B
:10A10000CE803B2B00F0AB803B2B00F3C880212B93
:10A110006CD0212B00F3C3801B2B0CD01B2B00F326
:10A12000BE80132B79D0132B00F3B980102B0DD0E8
:10A13000112B3ED0B3E0019B1B7A022B40F0B18083
:10A1400064220121032000F0EFFAAAE0FDF742FBB0
:10A15000019B9A885A4B1A805A4B1B78022B02D0CB
:10A16000032B0BD018E0584B9B68554A12881146B8
:10A1700001989847554B00221A700DE0524B1B680E
:10A180004F4A1288114601989847504B01221A7085
:10A19000019B0833039300BF01214D4800F03EFAB4
:10A1A00000220021002000F0BFFA4A4B04221A705E
:10A1B00082E0019B9B88ADF81230414B1B884FF623
:10A1C000FF72934204D03E4B1B881846FFF7F2FE05
:10A1D00000F026FB012000F001FB0021002000F030
:10A1E0001DFA374B4FF6FF721A8065E000238DF899
:10A1F000083000238DF80930019B9B8802AA114684
:10A200001846FFF7DFFE0A900A9B0693069B002B79
:10A2100049D0069809F0C8F845E0294B1888002372
:10A2200000228521FFF7BEFE0A900A9B0593059B3D
:10A23000002B3AD0059809F0B7F836E0204B188883
:10A24000002300220021FFF7C1FE0A900A9B089319
:10A25000089B002B2BD0089809F0A6F827E0019B5B
:10A260009B8813211846FFF795FE0A900A9B0793D7
:10A27000079B002B1DD0079809F096F819E0019B69
:10A280009B8813211846FFF785FE0A900A9B0993C5
:10A29000099B002B0FD0099809F086F80BE000BF4E
:10A2A0000AE000BF08E000BF06E000BF04E000BF16
:10A2B00002E000BF00E000BF00BF0DB000BD00BF66
:10A2C0008C440020874D0020744D0020F044002075
:10A2D000A0BB0D00864D002000B587B00BF0ECFC54
:10A2E0000590059B0493049B002B02D0049809F071
:10A2F0005BF80023019301AB194601200BF0E2FD4E
:10A300000590059B0393039B002B02D0039809F053
:10A310004BF801AB18460BF063FE0590059B0293CA
:10A32000029B002B02D0029809F03EF800BF07B054
:10A3300000BD000082B001900091009B5A88094B3B
:10A340001B889A420BD1009B1B8840F677229342D0
:10A3500005D1009B9B88033B9AB2034B1A8000BF38
:10A3600002B070478C4400208E44002000B585B0B8
:10A370001549164804F0DBFC0390039B0293029BF3
:10A38000002B02D0029809F00FF8F7210F4804F0D3
:10A39000F8FC0390039B0193019B002B02D00198D2
:10A3A00009F002F8FB224FF6FF71084804F005FDA2
:10A3B0000390039B0093009B002B02D0009808F0B1
:10A3C000F3FF00BF05B000BD35A30200584D0020CB
:10A3D00000B583B00BF01AF80190019B0093009B2D
:10A3E000002B02D0009808F0DFFF00BF03B000BDD3
:10A3F00008B50BF021F800BF08BD0000064B1B7824
:10A40000032B03D0044B1B78042B01D1012300E064
:10A410000023DBB218467047864D002000B585B09A
:10A420000190FCF715FF03902D4B1A782D4B1A70F5
:10A430002C4B1B78042B41D0042B4DDC032B2DD04F
:10A44000032B49DC022B1ED0022B45DC002B02D053
:10A45000012B10D040E00020FDF718FA0021012068
:10A46000FEF774F8FCF742FE42F21072012101205F
:10A4700000F05AF930E000F0A5F964220121022031
:10A4800000F052F928E0FCF7C1FD0346002B22D072
:10A4900064220121032000F047F91CE000F092F94A
:10A4A0000120FDF7F3F900210020FEF74FF842F2FA
:10A4B00010720121042000F037F90DE0FDF748FF8C
:10A4C000FDF7FAF9FDF756F942F21072012100206A
:10A4D00000F02AF900E000BF00BF05B000BD00BFDA
:10A4E000854D0020874D002000B585B001900C4BB4
:10A4F0001B884FF6FF72934204D000F0E9F903463F
:10A500008DF80F309DF90F3019460020FCF752F9F5
:10A510000121044800F082F800BF05B000BD00BF73
:10A520008C440020A0BB0D0000B583B00190234BEC
:10A530001B78062B3AD0062B3ADC052B2DD0052BA9
:10A5400036DC042B1CD0042B32DC022B0FD0022B68
:10A550002EDC002B2ED0012B00D029E0642201211B
:10A56000002000F0E1F8154B03221A7023E064226A
:10A570000121032000F0D8F8104B03221A701AE0D2
:10A58000FDF7E6FE0E4B1B88002200211846FFF760
:10A590000DFD0A4B05221A700DE000210120FDF788
:10A5A000D5FF00F055F9054B06221A7000BF02E0F6
:10A5B00000BF00E000BF00BF03B000BD864D00201B
:10A5C0008C44002000B585B001900B46ADF80230F8
:10A5D000062303930E4B1B78002B0BD0012B13D1BA
:10A5E0000C4B5B680C4A1288BDF802100198984722
:10A5F000039009E0074BDB68074A1288BDF8021098
:10A6000001989847039000BF039B184605B000BD12
:10A61000F0440020744D00208C440020F0B587B039
:10A6200001900B468DF80330019B00221C46154615
:10A630004FF000024FF00003EB0343EA5443E20300
:10A6400012F57A7643F100074FF4FA624FF00003F7
:10A65000304639460BF076FD02460B46134605930D
:10A660000C4B184609F03DFA9DF80330002B0ED034
:10A67000084B00220599184609F0E6F90490049B5E
:10A680000393039B002B02D0039808F08DFE00BFBC
:10A6900007B0F0BDB044002000B587B009F072F9F2
:10A6A0000590059B0493049B002B02D0049808F0AE
:10A6B0007BFE174A0121174809F0A0F90590059B78
:10A6C0000393039B002B02D0039808F06DFE124AFF
:10A6D0000021124809F092F90590059B0293029B14
:10A6E000002B02D0029808F05FFE0D4A01210D48B0
:10A6F00009F084F90590059B0193019B002B02D082
:10A70000019808F051FEFCF7C1F900BF07B000BD89
:10A7100029A50200806F03001DA40200886F0300BA
:10A72000E9A40200846F0300F0B585B003468DF8FC
:10A7300007300B468DF806301346ADF80430BDF8EF
:10A74000043000221C4615464FF000024FF0000373
:10A75000EB0343EA5443E20312F57A7643F1000730
:10A760004FF4FA624FF00003304639460BF0EAFC32
:10A7700002460B46134603930F4A9DF807301370A9
:10A780009DF80630002B0AD00C4B184609F0A9F9A9
:10A790000A4B00220399184609F056F908E0FDF724
:10A7A0008BF8074B00221A70044B184609F099F9F0
:10A7B00000BF05B0F0BD00BF854D0020D044002093
:10A7C000844D002008B5FDF7C3FDFCF787FCFDF7BD
:10A7D000A9FDFCF705FC00BF08BD000000B583B073
:10A7E00003468DF80730FFF7EDFF9DF80730012B8A
:10A7F00002D0022B04D007E0084B01221A7009E0B6
:10A80000064B02221A7005E0002200210020FFF70B
:10A810008BFF00BF00BF03B000BD00BF864D00200E
:10A8200000B583B0094B002240F26661184609F07A
:10A830000BF90190019B0093009B002B02D0009824
:10A8400008F0B2FD00BF03B000BD00BF904400207F
:10A8500008B5034B184609F044F900BF08BD00BF16
:10A860009044002008B5FFF7F3FFFDF747FA024BCD
:10A8700006221A7000BF08BD864D002000B585B0C5
:10A8800003468DF807309DF80730032B0AD0032BC1
:10A8900011DC022B11D0022B0DDC002B0FD0012B71
:10A8A0000FD008E000230393039B002B0BD00398E9
:10A8B00008F07AFD07E000BF06E000BF04E000BF3B
:10A8C00002E000BF00E000BF00BF05B000BD000017
:10A8D00000B583B000238DF8033000238DF80230DB
:10A8E000074B1B880DF102020DF103011846FFF71B
:10A8F00065FB01909DF90330184603B000BD00BF11
:10A900008C44002008B5FFF763FDFFF767FBFFF7F6
:10A910002DFD0648FDF790FEFFF7ACFB0348FCF762
:10A9200021FC0120FFF756FB00BF08BD744D00203D
:10A9300000B585B000F08CFA0390039B002B02D089
:10A94000039808F031FD002300931D4B00936B46E4
:10A95000184600F0A7F90290029B0193019B002B7F
:10A9600002D0019808F020FDFFF796FEFFF7B4FC37
:10A97000FDF74CFAFEF79EF90020FBF79BFDFCF774
:10A98000DFFD0346002B02D00120FEF7C5F80020B2
:10A99000FEF7E6FB034683F00103DBB2002B02D097
:10A9A0000420FEF7B9F8FEF79BFAFFF7ABFFFFF7BD
:10A9B00037FFFCF7E7FCFEF793FAFFF719FDF8E71E
:10A9C0007DA80200ADDF704700BF1846AEDF7047BC
:10A9D00000BF1846B0DF704700BF18463CDF704725
:10A9E00000BF18463DDF704700BF184682B00346DF
:10A9F0008DF8073000BF02B07047000000B58BB083
:10AA0000019005AB1022002118460CF0AFF802238C
:10AA10008DF814300223ADF808300023ADF80A3069
:10AA200004AB03931B4B9B881A4A518902AA184610
:10AA3000FFF7C8FF0990099B002B10D104AB184603
:10AA400003F04EFE0346002B09D09DF81A3043F068
:10AA500001038DF81A300023ADF8183003E040F2FE
:10AA6000FD13ADF818300B4B9B8805AA114618460C
:10AA7000FFF7B0FF0990099B112BF4D0BDF81830F7
:10AA8000002B03D1019800F043FA00E000BF0BB0A7
:10AA900000BD00BF884D002000B585B00190019B2E
:10AAA0009A88134B9B889A421ED1019B06330393CD
:10AAB000039B1B78022B18D1039B5A880C4BDB8815
:10AAC0009A4212D1039B1B7A042B0ED0039B1B7A54
:10AAD000062B0AD0039B1B7A052B06D0039B02335F
:10AAE0001846FFF78BFF00E000BF05B000BD00BFB8
:10AAF000884D002082B00190019B9A88024B9A8079
:10AB000000BF02B0704700BF884D002082B00190A6
:10AB1000064B9A88019B9B889A4204D1034B4FF6BF
:10AB2000FF729A8000E000BF02B07047884D00209D
:10AB300000B585B00190019B06330393039B1A88EF
:10AB40000A4BDB889A420DD1084B1B7E002B09D0A3
:10AB500000F04CFA0290029B002B03D0034B5B6980
:10AB60000220984700BF05B000BD00BF884D0020FF
:10AB700000B583B001900091019B002B1FD0019B79
:10AB80001B88532B16D0532B18DC512B0ED0512B76
:10AB900014DC102B02D0112B04D00FE00198FFF72A
:10ABA000A9FF0CE00198FFF7B1FF08E00198FFF75B
:10ABB00073FF04E00198FFF7BBFF00E000BF03B0A4
:10ABC00000BD000000B58BB003460A468DF8073083
:10ABD00013468DF806300323ADF8223003AB102264
:10ABE000002118460BF0C2FFBDF82230ADF820302E
:10ABF00020238DF81C309DF807308DF81D309DF80E
:10AC000006308DF81E30124BDB88ADF80C30022375
:10AC10008DF80E300023ADF8103008AB059307AB6C
:10AC200006930B4B9B8803AA11461846FFF7CEFEEE
:10AC30000990099B002B07D1BDF82030BDF82220D8
:10AC40009A4201D00C230993099B18460BB000BD12
:10AC5000884D002000B585B04FF0FF310020FFF790
:10AC6000C1FE0390039B0293029B002B01D0029B29
:10AC700013E0B1210020FFF7B1FE0390039B019385
:10AC8000019B002B01D0019B07E0054B5B69012074
:10AC9000984702200AF01AFC0023184605B000BDB0
:10ACA000884D002010B58AB00190154B03AC0FCB36
:10ACB00084E80F00019B002B01D10E231DE0114BF6
:10ACC0004FF6FF729A80019B1B680E4A53610D4B31
:10ACD00000221A760B4B5B69002B02D1094B0A4A02
:10ACE0005A61084800F0A4F80990099B0893089B52
:10ACF000002B01D0089B00E0002318460AB010BDCD
:10AD00008C6F0300884D0020EDA902004FF0030C6A
:10AD100000DF704700BF184600B583B0019001986E
:10AD2000FFF7F4FF0346184603B000BD08B503481B
:10AD3000FFF7F2FF0346184608BD00BFA44D0020F0
:10AD400000B583B00190044B1B68044901989847F3
:10AD50000346184603B000BDA44D0020AC4D0020B2
:10AD600000B583B00190044B5B6804490198984793
:10AD70000346184603B000BDA44D0020AC4D002092
:10AD8000064B1B68002B05D0044B5B68002B01D0E1
:10AD9000012300E000231846704700BFA44D0020A7
:10ADA00000B585B001900B4B1B685B7E002B01D07A
:10ADB00006230BE00198FFF7C3FF0390039B002BD2
:10ADC00003D1044B1B6801225A76039B184605B039
:10ADD00000BD00BFB04D002000B583B0134B1B6811
:10ADE0005B7E002B0ED006210120FFF7EBFE0190C9
:10ADF000019B002B04D00D4B1B685B690320984717
:10AE0000002310E0094B1B6801221A760121012062
:10AE1000FFF7D8FE0190019B002B03D0034B1B686A
:10AE200000221A76019B184603B000BDB04D0020E9
:10AE300082B00190019B002B01D10E2303E0034A55
:10AE4000019B13600023184602B07047B04D0020EC
:10AE500000B585B000F0DEF80390039B0293029BDF
:10AE6000002B01D0029B0DE0FFF760FF0390039BD6
:10AE70000193019B002B01D0019B03E000F0F0F84F
:10AE80000390039B184605B000BD000000B585B0D7
:10AE900001900091FFF774FF0346002B32D0019818
:10AEA000FFF75EFF0390039B082B2CD0039B002B26
:10AEB00011D1164B1B6800225A7601210220FFF7A0
:10AEC00081FE0390039B002B1DD0104B1B685B6918
:10AED0000320984717E00D4B1B6800225A76062185
:10AEE0000220FFF76FFE0390039B002B04D0074B5B
:10AEF0001B685B6903209847044B1B685B69022051
:10AF0000984700E000BF05B000BD00BFB04D002075
:10AF100000B585B0019004238DF80F30019B1B7B99
:10AF2000012B02D0022B11D035E0FFF755FF029024
:10AF3000029B002B03D101238DF80F302FE0029BE1
:10AF4000112B2CD106238DF80F3028E0019B5B7B61
:10AF5000142B03D8019B5B7B002B03D105238DF8B9
:10AF60000F301EE0019B03F10E01019B5B7B1A4633
:10AF70001B480BF0C9FD019B5B7B1A46194B9A617C
:10AF80001848FFF70DFF0290029B002B09D1012307
:10AF90008DF80F3005E002238DF80F3002E000BF7E
:10AFA00000E000BF9DF80F30012B15D0019B1B7BEB
:10AFB0009DF80F2011461846FFF704FE0290029BF1
:10AFC000002B04D0084B1B685B6903209847064B95
:10AFD0001B685B690220984700BF05B000BD00BF39
:10AFE000B84D0020B44D0020B04D002000B583B016
:10AFF000054B1B685B6900209847FFF72BFE01900B
:10B00000019B184603B000BDB04D002013DF704710
:10B0100000BF184600B583B040F6F8731B68B3F163
:10B02000FF3F03D10D4B1B68019303E040F6F8731B
:10B030001B680193019BB3F1FF3F0AD00198FFF712
:10B04000E5FF0090009B002B01D0009B02E0002355
:10B0500000E00423184603B000BD00BF1410001028
:10B0600000B583B0064B1846FFF7D0FF0190019B57
:10B07000002B01D0019B00E00023184603B000BD67
:10B0800000600200BFF34F8F00BF064BDB6803F484
:10B09000E0620449044B1343CB60BFF34F8F00BF02
:10B0A00000BFFDE700ED00E00400FA0582B0214B8F
:10B0B0001B68B3F1FF3F0AD11F4B1B68DBB2019342
:10B0C0001E4B1B681B0903F00F03009305E0194B8F
:10B0D0001B6801931A4B1B680093019B062B24D11C
:10B0E000009B072B1DD0009B072B1CD8009B062B19
:10B0F00015D0009B062B16D8009B052B0DD0009B6E
:10B10000052B10D8009B032B03D0009B042B02D0EF
:10B1100009E001230AE0012308E0012306E00123FE
:10B1200004E0012302E0012300E00023184602B0FE
:10B13000704700BF30010010E00F00F0E80F00F092
:10B140003401001082B01B4B1B68DBB201931A4B19
:10B150001B681B0903F00F030093019B062B24D1EE
:10B16000009B072B1DD0009B072B1CD8009B062B98
:10B1700015D0009B062B16D8009B052B0DD0009BED
:10B18000052B10D8009B032B03D0009B042B02D06F
:10B1900009E001230AE0002308E0002306E0002381
:10B1A00004E0002302E0002300E00023184602B080
:10B1B000704700BFE00F00F0E80F00F082B0214BB5
:10B1C0001B68B3F1FF3F0AD11F4B1B68DBB2019331
:10B1D0001E4B1B681B0903F00F03009305E0194B7E
:10B1E0001B6801931A4B1B680093019B062B24D10B
:10B1F000009B072B1DD0009B072B1CD8009B062B08
:10B2000015D0009B062B16D8009B052B0DD0009B5C
:10B21000052B10D8009B032B03D0009B042B02D0DE
:10B2200009E001230AE0012308E0012306E00123ED
:10B2300004E0012302E0012300E00023184602B0ED
:10B24000704700BF30010010E00F00F0E80F00F081
:10B250003401001082B01B4B1B68DBB201931A4B08
:10B260001B681B0903F00F030093019B062B24D1DD
:10B27000009B072B1DD0009B072B1CD8009B062B87
:10B2800015D0009B062B16D8009B052B0DD0009BDC
:10B29000052B10D8009B032B03D0009B042B02D05E
:10B2A00009E001230AE0002308E0002306E0002370
:10B2B00004E0002302E0002300E00023184602B06F
:10B2C000704700BFE00F00F0E80F00F082B0214BA4
:10B2D0001B68B3F1FF3F0AD11F4B1B68DBB2019320
:10B2E0001E4B1B681B0903F00F03009305E0194B6D
:10B2F0001B6801931A4B1B680093019B062B24D1FA
:10B30000009B072B1DD0009B072B1CD8009B062BF6
:10B3100015D0009B062B16D8009B052B0DD0009B4B
:10B32000052B10D8009B032B03D0009B042B02D0CD
:10B3300009E001230AE0012308E0012306E00123DC
:10B3400004E0012302E0012300E00023184602B0DC
:10B35000704700BF30010010E00F00F0E80F00F070
:10B360003401001082B01B4B1B68DBB201931A4BF7
:10B370001B681B0903F00F030093019B062B24D1CC
:10B38000009B072B1DD0009B072B1CD8009B062B76
:10B3900015D0009B062B16D8009B052B0DD0009BCB
:10B3A000052B10D8009B032B03D0009B042B02D04D
:10B3B00009E001230AE0002308E0002306E000235F
:10B3C00004E0002302E0002300E00023184602B05E
:10B3D000704700BFE00F00F0E80F00F082B01B4B99
:10B3E0001B68DBB201931A4B1B681B0903F00F03A8
:10B3F0000093019B062B24D1009B072B1DD0009BA3
:10B40000072B1CD8009B062B15D0009B062B16D8AB
:10B41000009B052B0DD0009B052B10D8009B032B08
:10B4200003D0009B042B02D009E001230AE0002393
:10B4300008E0002306E0002304E0002302E00023EC
:10B4400000E00023184602B0704700BFE00F00F094
:10B45000E80F00F082B0214B1B68B3F1FF3F0AD127
:10B460001F4B1B68DBB201931E4B1B681B0903F0CB
:10B470000F03009305E0194B1B6801931A4B1B68DF
:10B480000093019B062B24D1009B072B1DD0009B12
:10B49000072B1CD8009B062B15D0009B062B16D81B
:10B4A000009B052B0DD0009B052B10D8009B032B78
:10B4B00003D0009B042B02D009E000230AE0002304
:10B4C00008E0012306E0012304E0012302E0012358
:10B4D00000E00023184602B0704700BF30010010A2
:10B4E000E00F00F0E80F00F03401001082B0214BB3
:10B4F0001B68B3F1FF3F0AD11F4B1B68DBB20193FE
:10B500001E4B1B681B0903F00F03009305E0194B4A
:10B510001B6801931A4B1B680093019B062B24D1D7
:10B52000009B072B1DD0009B072B1CD8009B062BD4
:10B5300015D0009B062B16D8009B052B0DD0009B29
:10B54000052B10D8009B032B03D0009B042B02D0AB
:10B5500009E001230AE0012308E0012306E00123BA
:10B5600004E0012302E0012300E00023184602B0BA
:10B57000704700BF30010010E00F00F0E80F00F04E
:10B580003401001082B0214B1B68B3F1FF3F0AD198
:10B590001F4B1B68DBB201931E4B1B681B0903F09A
:10B5A0000F03009305E0194B1B6801931A4B1B68AE
:10B5B0000093019B062B24D1009B072B1DD0009BE1
:10B5C000072B1CD8009B062B15D0009B062B16D8EA
:10B5D000009B052B0DD0009B052B10D8009B032B47
:10B5E00003D0009B042B02D009E001230AE00123D1
:10B5F00008E0012306E0012304E0012302E0012327
:10B6000000E00023184602B0704700BF3001001070
:10B61000E00F00F0E80F00F03401001082B0194B89
:10B620001B680193184B1B680093019B062B24D1C8
:10B63000009B072B1DD0009B072B1CD8009B062BC3
:10B6400015D0009B062B16D8009B052B0DD0009B18
:10B65000052B10D8009B032B03D0009B042B02D09A
:10B6600009E000230AE0002308E0002306E00123AC
:10B6700004E0012302E0012300E00023184602B0A9
:10B68000704700BF300100103401001082B0194B28
:10B690001B680193184B1B680093019B062B24D158
:10B6A000009B072B1DD0009B072B1CD8009B062B53
:10B6B00015D0009B062B16D8009B052B0DD0009BA8
:10B6C000052B10D8009B032B03D0009B042B02D02A
:10B6D00009E000230AE0002308E0002306E000233D
:10B6E00004E0012302E0012300E00023184602B039
:10B6F000704700BF300100103401001008B5FFF79B
:10B70000C5FF0346002B07D04FF010234FF08042B7
:10B71000D3F80832C2F8583500BF08BD00BF044B4B
:10B72000D3F80034002BFAD000BF00BF704700BF31
:10B7300000E0014000B583B00190044A019BC2F8CB
:10B740000435FFF7EBFF00BF03B000BD00E0014090
:10B75000024B034A1A6000BF704700BFF444002048
:10B760000090D00308B5FFF7A1FC0346002B06D0DC
:10B77000964B1B681B0A964A03F01F031360FFF7E2
:10B78000E1FC0346002B02D0924B934A1A60FFF76C
:10B7900015FD0346002B06D0904B1B685B0B904AAF
:10B7A00003F007031360FFF755FD0346002B05D098
:10B7B0008C4BDB688B4A23F08073D360FFF786FDE8
:10B7C0000346002B0ED04FF080430022C3F80C211B
:10B7D0004FF080430022C3F810214FF08043002235
:10B7E000C3F83825FFF7BEFD0346002B02D07E4B81
:10B7F00003221A60FFF7F2FD0346002B0BD07B4BB0
:10B8000005221A607A4B01221A607A4B00221A60D4
:10B81000794B3F221A60FFF71DFE0346002B76D0BE
:10B820004FF08053754AD3F80434C2F820354FF0F6
:10B830008053724AD3F80834C2F824354FF080534D
:10B840006E4AD3F80C34C2F828354FF080536B4A57
:10B85000D3F81034C2F82C354FF08053674AD3F830
:10B860001434C2F830354FF08053644AD3F818349A
:10B87000C2F834354FF08053604AD3F81C34C2F814
:10B8800040354FF080535D4AD3F82034C2F8443538
:10B890004FF08053594AD3F82434C2F848354FF05A
:10B8A0008053564AD3F82834C2F84C354FF08053B1
:10B8B000524AD3F82C34C2F850354FF080534F4AD7
:10B8C000D3F83034C2F854354FF080534B4AD3F894
:10B8D0003434C2F860354FF08053484AD3F83834D6
:10B8E000C2F864354FF08053444AD3F83C34C2F870
:10B8F00068354FF08053414AD3F84034C2F86C3574
:10B900004FF080533D4AD3F84434C2F87035FFF706
:10B91000EDFD0346002B05D0394B1B68394A03F077
:10B920004F031360FFF72EFE0346002B0DD04FF0A0
:10B930008043D3F8003403F00103002B05D04FF00F
:10B9400080436FF00102C3F80024FFF767FE03464F
:10B95000002B05D02C4B1B682B4A43F480631360EB
:10B960002A4BD3F88830294A43F47003C2F8883050
:10B97000BFF34F8F00BFBFF36F8F00BFFFF7BEFE57
:10B980004FF01023D3F80032002B05DB4FF01023CB
:10B99000D3F80432002B15DA0120FFF7CBFE4FF06D
:10B9A00010231522C3F80022FFF7B8FE4FF0102332
:10B9B0001522C3F80422FFF7B1FE0020FFF7BAFEFC
:10B9C000FFF760FBFFF7C4FE00BF08BD24030010B3
:10B9D0004035014074C007400DF0ADBA440200107C
:10B9E0003C050040F0ED00E0A0050040105600408E
:10B9F00088560040185600401456004000C00040D1
:10BA000058020010E40E00403C17004000ED00E03A
:10BA10006DDF704700BF184679DF704700BF1846DA
:10BA20007DDF704700BF184664DF704700BF1846CF
:10BA300082B003460091ADF80630BDF80630DAB2A8
:10BA4000009B1A70BDF806301B0A9AB2009B0133A6
:10BA5000D2B21A700223184602B0704700B589B0FE
:10BA6000039002911346ADF80630029B1B8803F148
:10BA70000902BDF806309A4201D90C2353E004AB09
:10BA80001846FFF7C5FF0790079B0693069B002B00
:10BA900001D0069B47E0029B1B881A46039B134478
:10BAA00008221A70029B1B8801339AB2029B1A80EB
:10BAB000029B1B881A46039B13441B221A70029B8D
:10BAC0001B8801339AB2029B1A80029B1B881A467C
:10BAD000039B981804AB0133062219460BF014F8A7
