:020000022000DC
:106000000000012019620200016202000362020026
:10601000056202000762020009620200000000003F
:106020000000000000000000000000000B62020001
:106030000D620200000000000F6202001162020007
:10604000711B030013620200D5280300654603009C
:106050001362020013620200D1270300D12D030056
:106060001362020013620200136202001362020054
:106070001362020013620200136202001362020044
:1060800013620200AD5903001362020013620200A2
:106090001362020013620200B59A03001362020049
:1060A0001362020013620200136202001362020014
:1060B00013620200136202000000000000000000F2
:1060C00013620200136202001362020013620200F4
:1060D000136202001362020013620200000000005B
:1060E00000000000000000000000000000000000B0
:1060F00000000000000000000000000000000000A0
:10610000000000000000000000000000000000008F
:10611000000000000000000000000000000000007F
:10612000000000000000000000000000000000006F
:10613000000000000000000000000000000000005F
:10614000000000000000000000000000000000004F
:10615000000000000000000000000000000000003F
:10616000000000000000000000000000000000002F
:10617000000000000000000000000000000000001F
:10618000000000000000000000000000000000000F
:1061900000000000000000000000000000000000FF
:1061A00000000000000000000000000000000000EF
:1061B00000000000000000000000000000000000DF
:1061C00000000000000000000000000000000000CF
:1061D00000000000000000000000000000000000BF
:1061E00000000000000000000000000000000000AF
:1061F000000000000000000000000000000000009F
:10620000FEE7FEE7FEE7FEE7FEE7FEE7FEE7FEE766
:10621000FEE7FEE700F002B8FFF7FCBF0F484FF0C3
:106220000701884385460E4880470E48016841F4BF
:1062300070010160BFF34F8FBFF36F8F00F01AB88A
:1062400009480A490A4A884207D0521A05D00378F9
:1062500001300B700131013AF9D170470000012083
:1062600035C5020088ED00E018AE0300C8390020F3
:10627000DC39002039493A480A1A02D007229143F2
:106280008D46384938480A1A06D00722914381F3CF
:106290000988022282F3148834483549354A00F0CF
:1062A0003EF835483549364A00F039F83548364920
:1062B000364A00F034F836483649374A00F02FF8AD
:1062C00036483749374A00F02AF837483749384ABC
:1062D00000F025F837483849384A00F020F83848A7
:1062E0003849002200F033F837483849002200F0DE
:1062F0002EF837483749091A14F065FA364A90479C
:1063000024482549884205D00268043003B49047E8
:1063100003BCF7E700200021304A9047FEE788429F
:1063200014D0521A12D003460B43134303242342C2
:1063300006D1036804300B600431043AF9D1704788
:10634000037801300B700131013AF9D1704788426E
:1063500002D002700130FAE770470000000001200F
:1063600000F800200000012000000120E8DB03000D
:10637000DC39002058450020E0630200E0630200A1
:106380007AAC0300E8DB0300DC390020DC390020B4
:106390002CAE03002CAE03002CAE03002CAE030089
:1063A0002CAE03002CAE03002CAE03002CAE030079
:1063B000E6DB030064E70300584500205845002051
:1063C00058450020185A0020185A0020185A00205A
:1063D000185A0020186200204162020089B80200A9
:1063E000024B0022C3F8002500BF70470070004038
:1063F00082B003468DF80730114B1B789DF80720BB
:106400009A420BD99DF807300D4A12789B1A012B3E
:1064100010DD0B4A9DF8073013700BE0084B1B781A
:106420001A469DF80730D31A012B03DD044A9DF864
:1064300007301370024B1B78184602B0704700BF3C
:106440006445002084B00346ADF80630BDF8063040
:1064500041F26702934201D9642319E0BDF8063086
:1064600040F64852934201D8002311E0BDF80630AF
:10647000A3F64853642202FB03F303F5C873064AEC
:1064800082FB03121212DB17D31A0393039BDBB2B6
:10649000184604B0704700BF1F85EB51014B1B68C5
:1064A0001846704760450020014B1B68184670472E
:1064B0005C45002000B587B0019000F0FBF80DF1BD
:1064C0000E03194600200CF075FF0590BDF90E2053
:1064D0001D4B1A80059B002B1FD11B4B1B881BB229
:1064E0001A464FF4166302FB03F3184AA2FB032378
:1064F0005B0A0493049B5B00154A1360144B1B68F2
:106500009BB21846FFF79EFF03461846FFF770FF41
:1065100003461A460F4B1A600BE00F4A0F4BD31A73
:10652000DB081B0443F00103059A0D49184612F0DD
:10653000A6F900F0A7F800F02FF8034B1B881BB258
:106540009BB2184607B000BD58450020818080806E
:10655000604500205C45002090AD030068AD03005D
:106560002CAE030000B585B00190019B1B78002B79
:106570000CD1019B5B68B3F90020064B1A80019B8C
:106580005B68012118460CF0BFFF039000BF05B007
:1065900000BD00BF5845002000BF704700B583B064
:1065A0000190019B1B68184600F050F80346002B31
:1065B00004D105494FF4F67004F062FB4FF0A0439C
:1065C000184603B000BD00BF40AE030000B585B063
:1065D0000190084611461A4603468DF803300B46D3
:1065E0008DF8023013468DF8013001AB1846FFF7E5
:1065F000D5FF03909DF803209DF802305B001A43FD
:106600009DF801309B001A439DF818301B0242EAA6
:1066100003019DF81C301B04019A1943039B02F5EA
:10662000E07243F8221000BF05B000BD00B585B090
:1066300003900023019300230093002301220021F3
:106640000398FFF7C3FF00BF05B000BD84B0019001
:10665000019B5B09029300230393029B002B03D150
:106660004FF0FF33039300BF019B03F01F0301931F
:10667000039A019B22FA03F303F00103DBB21846ED
:1066800004B0704708B5FFF7ABFE0CF03DFD074BBB
:106690000022C3F80025064B00221A60044B1B6839
:1066A0000220FFF7C3FF00BF08BD00BF007000401D
:1066B000FC7F004000B589B01F4B1B68049300238A
:1066C0008DF813301D4B0122C3F800251C4B01220D
:1066D0001A601B4B1B6804AB1A4918460CF0A4FC4B
:1066E0000790079B0693069B002B04D0164A9A211D
:1066F00006980EF00FF8154A01AB07CA03C31A70CB
:1067000000238DF8073002238DF8063005238DF81D
:10671000083001AB194600200CF05EFD0790079B86
:106720000593059B002B04D0074AA32105980DF083
:10673000F1FF00BF09B000BDB8AE0300007000401B
:10674000FC7F00406565020070AE0300BCAE030034
:1067500000B585B001900B46ADF8023013468DF8B8
:106760000130019B0393BDF80230132B45D9039BE5
:106770001B78F02B32D0F02B41DC302B31D0302B7A
:106780003DDC212B20D0212B39DC202B0ED0202BDF
:1067900035DC182B2DD0182B31DC172B25D0172BDF
:1067A0002DDC122B09D0142B14D028E09DF90130D8
:1067B0001946039800F004F922E09DF901301946CA
:1067C000039800F02BF81BE0039800F04FF901F05C
:1067D0009DFA15E0039800F077F911E001F046F812
:1067E0000EE0039803F02CFD0AE0039802F092FFFC
:1067F00006E0039801F062F802E000BF00E000BF8D
:1068000005B000BD82B00190034B1B680133024A02
:10681000136000BF02B070476C45002000B58BB01C
:1068200001900B468DF8033004AB1422002118466A
:1068300014F0B4F813238DF81030FFF735FE03463B
:106840008DF82730234B1B68CDF811309DF8273089
:106850008DF81530FFF722FE03461F4AA2FB0323E3
:106860005B098DF826309DF826308DF8163001230F
:106870008DF8173001238DF8183001238DF8193069
:106880009DF803308DF81A309DF82630222B07D85A
:106890009DF81B30022262F301038DF81B3011E0DA
:1068A0009DF82730272B07D89DF81B30012262F373
:1068B00001038DF81B3005E09DF81B3023F0030326
:1068C0008DF81B3004AB1421184604F0C1FD00BF45
:1068D0000BB000BD6C4500201F85EB5100B589B0A1
:1068E00001900B468DF8033003AB142200211846AB
:1068F00014F054F816238DF80C3001238DF80D3068
:1069000003AB1421184604F0A3FD00BF09B000BD7D
:1069100000B58BB0019003AB14220021184614F08F
:106920003DF811238DF80C301F4B1B88DBB28DF81E
:106930000D3003AB184603F099FE03468DF827305F
:1069400003AB1421184604F083FD0890089B002B2C
:1069500003D0164B00221A7023E09DF82730002B3D
:1069600003D0114B1B88FF2B0ED1104B00221A7045
:106970000F4A104BD31ADB081B0443F003030E49E4
:10698000184611F06FFF0CE0074B1B8801339AB2D9
:10699000054B1A80094B00224FF4005118460EF0A7
:1069A000D3FA0BB000BD00BF66450020684500204B
:1069B00090AD030068AD0300D4AE0300E0390020C1
:1069C00000B58DB001900B468DF8033003F0F6FC56
:1069D0000A9000F03DFE099003AB142200211846F6
:1069E00013F0DCFF03F0F6FE10238DF80C30099B4A
:1069F000B3F8C030DBB28DF80D3003F019FD0B9009
:106A00000B9BB3F5106F02D94FF410630B930B9BE4
:106A10009BB2ADF80E30124B1B7883F00103DBB252
:106A2000002B19D003AB1421184604F011FD089077
:106A3000089B002B10D1BDF80E30002B0CD0094B59
:106A400000221A80064B01221A70074B00224FF4D5
:106A5000005118460EF078FA00BF0DB000BD00BF1F
:106A60006845002066450020E039002000B585B06B
:106A7000019003F0A3FC0390019B5B781A460B4B3B
:106A80001B889A420ED103F09BFE094A094BD31A88
:106A9000DB081B0443F00300019B5B781A460649A0
:106AA00011F0EDFE00BF05B000BD00BF664500203F
:106AB00090AD030068AD0300FCAE030082B001900E
:106AC00000BF02B07047000000B58BB0019003AB6F
:106AD00014220021184613F061FF15238DF80C30A5
:106AE00001238DF80D30FFF7DFFC099001238DF8AD
:106AF0000E3003AB1421184604F0AAFC0890089B42
:106B0000002B0AD19DF80E30002B06D1044B002239
:106B100040F6CD4118460EF017FA00BF0BB000BD8D
:106B2000003A002000B583B0124A002112480EF04E
:106B3000D1F90190114A002111480EF0CBF90190D2
:106B4000104A012110480EF0C5F901900F4B0022A8
:106B50004FF4804118460EF0F7F9019B0093009B1B
:106B6000002B04D00A4ACD2100980DF0D3FD00BFC0
:106B700003B000BD11690200C8AE0300BD6A020087
:106B8000CCAE030005680200D0AE0300203A00201E
:106B900010AF030076DF704700BF18468BDF7047E9
:106BA00000BF18468CDF704700BF184600B583B0A1
:106BB0000190019902480AF0DFFA00BF03B000BD5E
:106BC0007045002000B585B06B46082200211846AC
:106BD00013F0E4FE0A4B00930A4B01936B461846F0
:106BE00008F0EEFA0390039B0293029B002B04D063
:106BF000054A452102980DF08DFD00BF05B000BD8E
:106C0000AD6B02001440002070AF030000B583B0EC
:106C10000190019B132B0BD1094A0A4BD31ADB08B5
:106C20001B0443F002030849184611F01BFE04E060
:106C3000064A512101980DF06DFD03B000BD00BF63
:106C400090AD030068AD0300C0AF030070AF030058
:106C500000B589B00190009100238DF81F30524A91
:106C6000524BD31ADB081B0443F00300009B1B7834
:106C70001A464F4911F003FE009B1B78022B00F0CF
:106C80008380022B00F38C80002B02D0012B38D0A4
:106C900086E0454A454BD31ADB081B0443F0030347
:106CA0004449184611F0DEFD009B5988009B0E33C5
:106CB0001A4601980AF04AFC0590059B0493049B30
:106CC000002B04D03C4A6F2104980DF023FD01985D
:106CD0000AF0BAFB0590059B0393039B002B04D09D
:106CE000354A712103980DF015FD2F4A2F4BD31A09
:106CF000DB081B0443F003033049184611F0B2FDD2
:106D00004EE004F04DFD03468DF81F30264A274B18
:106D1000D31ADB081B0443F00300009B9B891A462F
:106D2000274911F0ACFD0023069312E01E4A1F4BC9
:106D3000D31ADB081B0443F00300009B9A68069BF0
:106D400013441B781A461F4911F099FD069B013325
:106D50000693009B9B891A46069B9342E6D3124AF0
:106D6000124BD31ADB081B0443F0030316491846E1
:106D700011F078FD009B9868009B9B899DF91F206E
:106D80001946FFF7E5FC0BE0074A084BD31ADB086E
:106D90001B0443F003030D49184611F063FD00BFC7
:106DA00000BF09B000BD00BF90AD030068AD030097
:106DB000F4AF030010B0030070AF030024B0030071
:106DC00054B0030064B003006CB0030070B0030063
:106DD00000B587B00C4B01930C4B02930C4B039303
:106DE00001AB19460B480AF059FA0590059B04932C
:106DF000049B002B04D0084A992104980DF08AFCCA
:106E000000BF07B000BD00BF516C02000D6C020056
:106E1000144000207045002070AF030070B5AAB088
:106E20000590059B5B68249300F012FC2390059B62
:106E30001B78062B1CD0062B00F3B581052B08D040
:106E4000052B00F3B081032B42D0042B00F09F816F
:106E5000A9E1059B5B682193219B2093209B002B3C
:106E600000F0A3819D4AAB2120980DF053FC9CE1DA
:106E70009B4A9C4BD31ADB081B0443F003039A493B
:106E8000184611F0EFFC059B5B682293944A954BE2
:106E9000D31ADB081B0443F00300229B5B781D46DA
:106EA000229B9B781E46229BDB781A46229B1B79ED
:106EB0001946229B5B791C46229B9B790393029483
:106EC0000191009233462A46884911F040FD71E154
:106ED000059B5B681F931F9B002B00F06B811F9B22
:106EE0009B69002B00F066811F9B9B8B002B00F0A1
:106EF00061810023ADF8A6300023ADF86A3000238D
:106F0000ADF86A301F9B98691F9B998B0DF16A023F
:106F1000092306F0D0F90346ADF8A630BDF8A63037
:106F2000002B0ED10023ADF86A301F9B98691F9B80
:106F3000998B0DF16A02082306F0BDF90346ADF8FE
:106F4000A630BDF8A630002B00F03481BDF8A63085
:106F50001F2B00F22F81BDF86A301A46BDF8A6300B
:106F600013441F9A928B934200F321811F9B9B69CC
:106F7000BDF86A2013441E9306AB20220021184658
:106F800013F00CFDBDF8A62006AB1E99184613F0B1
:106F9000D3FCBDF8A630A8336B44002203F8902C34
:106FA0004F4A504BD31ADB081B0443F00300BDF8D3
:106FB000A62006AB4E4911F072FC239B203316939A
:106FC000239B40331793239B60331893239B803379
:106FD000199304231D9300238DF8A53000232893D3
:106FE00031E0289B9B00A8336B4453F8503C002BA6
:106FF00023D0289B9B00A8336B4453F8503C184681
:1070000013F04BFC1C901C9B002B18D0BDF8A63035
:107010001C9A9A4214D8289B9B00A8336B4453F8BF
:10702000503C1C9A19461E9813F012FC0346002B84
:1070300006D101238DF8A53009E000BF00E000BFB4
:10704000289B01332893289A1D9B9A42C9D39DF807
:10705000A530002B00F0AD801F9B02331B93002353
:107060008DF89F30002326932BE02249269A134661
:10707000DB0013440B441B78002B1FD0269A1346C9
:10708000DB0013441B4A1344D81C1B9B013306220C
:10709000194613F0DDFB0346002B0FD11F9B93F91C
:1070A00013001449269A1346DB0013440B440133A2
:1070B00002461A7001238DF89F3005E0269B0133AC
:1070C0002693269B032BD0DD9DF89F3083F0010390
:1070D000DBB2002B6DD00023259354E070AF03008A
:1070E00090AD030068AD030080B003009CB00300C6
:1070F000CCB003001C4800203049259A1346DB0021
:1071000013440B441B78002B3AD12C49259A134683
:10711000DB0013440B4401221A70259A1346DB004E
:107120001344264A1344023307221B99184613F0CE
:1071300003FC0EAB20220021184613F02FFCBDF8F3
:10714000A6200EAB1E99184613F0F6FB1C4A1D4BE9
:10715000D31ADB081B0443F003030EAA1A4918468E
:1071600011F08DFB1F9B93F913001449259A1346C8
:10717000DB0013440B44013302461A7000BF18E0D1
:10718000259B01332593259B032BB5DD11E00C4A8C
:107190000C4BD31ADB081B0443F003030B491846BE
:1071A00011F060FB06E000BF04E000BF02E000BF9A
:1071B00000E000BF00BF2AB070BD00BF1C48002027
:1071C00090AD030068AD0300E8B00300F4B0030025
:1071D00000B587B001900B46ADF80230019B0593D6
:1071E000154ABDF802301380BDF80230002219465E
:1071F00012480AF0ABF90490049B0393039B002B05
:1072000005D00F4A4FF4997103980DF083FA059B4E
:107210009B8819460B4808F097F80490049B02934A
:10722000029B002B05D0064A40F2351102980DF062
:1072300071FA00BF07B000BD284000207045002053
:1072400070AF0300403A002000B585B001900B46B6
:10725000ADF802301346ADF80030BDF802301A46E2
:10726000019904480AF00CF90390039B184605B0F5
:1072700000BD00BF7045002000B583B0144B1B88D3
:107280004FF6FF7293420BD1124A134BD31ADB080D
:107290001B0443F003031149184611F0E3FA15E00B
:1072A0000B4B1B8813211846FFF774FC0190019BC0
:1072B000002B0BD0074A084BD31ADB081B0443F002
:1072C0000103019A0649184611F0D9FA03B000BD2E
:1072D0002840002090AD030068AD030008B1030012
:1072E00018B1030010B58AB04FF0FF330993812322
:1072F0008DF823300023079324E03949079A134679
:10730000DB0013440B441B78002B18D03449079A38
:107310001346DB0013440B44013393F900309DF90D
:1073200023209A420BDA2E49079A1346DB001344B6
:107330000B4401331B788DF82330079B0993079B7F
:1073400001330793079B032BD7DD099B002B01DA41
:10735000052341E0234A244BD31ADB081B0443F0E6
:107360000300099A9DF92330204911F098FA04ABE3
:1073700007220021184613F011FB099A1346DB007F
:107380001344174A13449A1C04AB10681860918880
:10739000927999809A71164B6C460C330FCB07C4C7
:1073A00023804FF47A73ADF80630694604A80123B0
:1073B000104AFFF7F7FB0690069B002B0BD0094AFB
:1073C000094BD31ADB081B0443F00303069A0A494E
:1073D000184611F054FA069B18460AB010BD00BFBB
:1073E0001C48002090AD030068AD030030B10300DD
:1073F000D4470020D647002050B1030000B583B029
:10740000114A124BD31ADB081B0443F00303104943
:10741000184611F027FAFFF7C1FB0190019B002BE2
:107420000ED0019B082B0BD0074A084BD31ADB0860
:107430001B0443F00103019A0649184611F01FFA94
:1074400000BF03B000BD00BF90AD030068AD0300F6
:1074500064B1030074B1030000B583B0104A114B4E
:10746000D31ADB081B0443F003030F49184611F03D
:10747000F9F9242200210D4813F090FA0C4809F084
:10748000ABFB0190019B0093009B002B05D0094AA8
:107490004FF4E07100980DF03DF900BF03B000BD5E
:1074A00090AD030068AD030090B103001C480020BC
:1074B000D447002070AF030000B587B06B460022B0
:1074C0001A605A609A60DA6000238DF80C306B46BF
:1074D000094A1946094809F026FB0590059B0493C3
:1074E000049B002B05D0064A4FF4E77104980DF079
:1074F00011F900BF07B000BD1D6E0200D447002087
:1075000070AF030000B585B00190019B084A9A60F6
:10751000019B084ADA60FFF755FBFFF759FCFFF7BC
:10752000CBFF00F095F8039000BF05B000BD00BF91
:10753000D17102004972020041DF704700BF184656
:1075400000B583B00190019B5B68002B12D01A4AF2
:107550001A4BD31ADB081B0443F00100019B1B7874
:107560001A46019B5B68164911F099F9012001F058
:107570009BFF1EE0019B1B78012B02D0022B0CD03D
:1075800017E00D4A0D4BD31ADB081B0443F003032D
:107590000C49184611F066F90BE0074A074BD31A5D
:1075A000DB081B0443F003030749184611F05AF99E
:1075B00000BF03B000BD00BF90AD030068AD030085
:1075C000A0B10300D0B10300E8B1030086B0019080
:1075D00000914FF6FF73ADF81630002304932DE0B1
:1075E000019A049B13441B781BB21B021AB2BDF90B
:1075F000163053401BB2ADF816300023039317E04A
:10760000BDF91630002B0BDABDF916305B001BB24A
:1076100083F4815383F001031BB2ADF8163004E00C
:10762000BDF816305B00ADF81630039B01330393B1
:10763000039B072BE4D9049B01330493049A009B1A
:107640009A42CDD3BDF81630184606B070470000F8
:10765000014B1846704700BF2C40002008B501E0E0
:10766000FFF76AFF04480FF0F5FA0346002BF7D145
:1076700000BF00BF08BD00BFC839002000B585B0FD
:10768000019000230393019B23F47F6323F00F03F6
:1076900002930023012202990C480FF043FA039051
:1076A000039B002B0BD00A4A0A4BD31ADB081B049E
:1076B00043F00103039A0849184611F0E0F8FFF778
:1076C000CDFF039B184605B000BD00BFC8390020A0
:1076D00090AD030068AD030000B2030000B589B0AF
:1076E000059004911346ADF80E3000230793059BD7
:1076F000C3F30B03002B26D12B4A2C4BD31ADB08E8
:107700001B0443F00303059A2949184611F0B7F802
:1077100000230122059927480FF004FA0790079BE0
:10772000002B10D0012001F0BFFE1F4A1F4BD31ABF
:10773000DB081B0443F00103079A1F49184611F0A8
:107740009EF8079B2DE0FFF789FFBDF80E30002261
:107750000092049A059917480FF002F90790079BC9
:10776000002B0CD1104A114BD31ADB081B0443F039
:107770000303059A1149184611F081F80EE0012023
:1077800001F092FE084A094BD31ADB081B0443F0B0
:107790000103079A0A49184611F071F8FFF75EFFD6
:1077A000079B184609B000BD90AD030068AD03000B
:1077B00018B20300C839002000B2030048B2030029
:1077C0005CB2030000B587B0039002911346ADF898
:1077D0000630039BB3F5802F06D3BDF80620039B2C
:1077E0001344B3F5EE2F0ED91A4A1B4BD31ADB08FC
:1077F0001B0443F00100BDF80630039A174911F04D
:107800004EF8102323E0BDF80630029A039914487D
:107810000EF0FEFF0590059B002B0BD00D4A0E4B82
:10782000D31ADB081B0443F00103059A0D491846DF
:1078300011F025F8074A084BD31ADB081B0443F064
:107840000303039A0849184611F019F8059B1846D6
:1078500007B000BD90AD030068AD030074B2030033
:10786000C8390020A4B20300C0B20300024B0122B9
:107870001A7000BF704700BF40480020024B012231
:107880001A7000BF704700BF4148002008B5094B7F
:107890001B78002B04D0074B00221A7000F0B0F8C0
:1078A000054B1B78002B03D04FF4EC20FFF7E6FECE
:1078B00000BF08BD414800204048002000B585B009
:1078C000019000238DF80F30019B5B78082B70D05E
:1078D000082B7ADC072B61D0072B76DC062B49D0EE
:1078E000062B72DC042B3AD0042B6EDC032B2BD03E
:1078F000032B6ADC022B1CD0022B66DC002B02D08F
:10790000012B0BD061E001238DF80F30019B033375
:1079100020221946354812F0D6FF56E001238DF893
:107920000F30019B033320221946314812F0CBFF60
:107930004BE001238DF80F30019B033320221946C1
:107940002C4812F0C0FF40E001238DF80F30019B5E
:10795000033320221946284812F0B5FF35E00123F1
:107960008DF80F30019B033320221946234812F073
:10797000AAFF2AE001238DF80F30019BB3F80330F2
:107980009AB21A4BA3F8C020184BB3F8C030042B9E
:107990001AD8164B0522A3F8C02015E001238DF854
:1079A0000F30019BB3F903301AB2104BA3F8C22079
:1079B0000BE001238DF80F30019BB3F803309AB22E
:1079C0000A4BA3F8C42000E000BF9DF80F30002B45
:1079D00008D0FFF753FF019B19221A701421019858
:1079E00003F036FD00BF05B000BD00BF2C400020F5
:1079F0004C4000206C4000208C400020AC40002017
:107A000000B5BDB0EE211C48FFF7E0FD03461A4665
:107A1000194BA3F8EE20F02217494FF4EC20FFF7A2
:107A20005DFE6B46F02219464FF4EC20FFF7CAFECC
:107A30006B46F0221946104812F00AFF0346002B4D
:107A40000BD10E4A0E4BD31ADB081B0443F0030381
:107A50000C49184610F006FF0AE0084A084BD31AF2
:107A6000DB081B0443F003030749184610F0FAFE35
:107A700000BF3DB000BD00BF2C40002090AD030012
:107A800068AD030064B4030074B4030000B583B0B0
:107A90000022044904480EF075FE0190019B18462F
:107AA00003B000BD68CB0300C8390020BFF34F8F7F
:107AB00000BF064BDB6803F4E0620449044B134348
:107AC000CB60BFF34F8F00BF00BFFDE700ED00E0CC
:107AD0000400FA0500B583B00190019B1B681846AD
:107AE00000F0F7F80346002B04D105494FF4F67077
:107AF00003F0C6F84FF0A043184603B000BD00BF26
:107B000088B4030000B585B00190084611461A46B6
:107B100003468DF803300B468DF8023013468DF87E
:107B2000013001AB1846FFF7D5FF03909DF8032005
:107B30009DF802305B001A439DF801309B001A4308
:107B40009DF818301B0242EA03019DF81C301B040B
:107B5000019A1943039B02F5E07243F8221000BF1B
:107B600005B000BD00B585B003900023019300234C
:107B700000930023012201210398FFF7C3FF00BFF8
:107B800005B000BD00B585B003900B468DF80B30F5
:107B90009DF80B3000220192002200920022002169
:107BA0000398FFF7AFFF00BF05B000BD00B585B07B
:107BB000019001AB1846FFF78DFF0390019B012256
:107BC00002FA03F31946039800F06FF800BF05B0FE
:107BD00000BD00B585B0019001AB1846FFF77AFFF4
:107BE0000390019B012202FA03F31946039800F067
:107BF00066F800BF05B000BD00B585B0019001ABCF
:107C00001846FFF767FF0390039BD3F804350293F0
:107C1000029BDA43019B012101FA03F31A40039B03
:107C2000C3F80825019B01229A40029B1A40039B3E
:107C3000C3F80C2500BF05B000BD00B585B00190AC
:107C400001AB1846FFF746FF0390039800F01DF8BC
:107C50000246019B22FA03F303F00103184605B024
:107C600000BD00B585B0019001AB1846FFF732FFAB
:107C70000390039800F011F80246019B22FA03F3E7
:107C800003F00103184605B000BD82B00190019BCE
:107C9000D3F81035184602B0704782B00190019BAE
:107CA000D3F80435184602B0704782B001900091B5
:107CB000019B009AC3F8082500BF02B0704782B04C
:107CC00001900091019B009AC3F80C2500BF02B0FF
:107CD000704784B00190019B5B09029300230393DA
:107CE000029B002B03D14FF0FF33039300BF019B96
:107CF00003F01F030193039A019B22FA03F303F09D
:107D00000103DBB2184604B070470000024B0522A5
:107D10009A7100BF704700BF48480020024B0A22FA
:107D2000DA7200BF704700BF48480020024B0122B2
:107D3000DA7000BF704700BF48480020034B0122A3
:107D40009A70024B0022DA7000BF7047484800204A
:107D500008B5094B01225A711820FFF782FF03462C
:107D6000002B03D0044B14225A7402E0024B0A2267
:107D70001A7400BF08BD00BF48480020024B2822EB
:107D80009A7200BF704700BF4848002082B001903F
:107D9000019B452B03D9054B0A221A7302E0034BC2
:107DA0000A225A7300BF02B0704700BF4848002043
:107DB00008B500220021012000F0DCFA054B012269
:107DC0001A71044B03229A73024B0A22DA7300BF22
:107DD00008BD00BF4848002008B50022002100204F
:107DE00000F0C8FA024B00221A7100BF08BD00BFA4
:107DF0004848002008B5FFF739FD01220021002086
:107E000000F0B8FA064B01225A70054B0F22DA71C6
:107E1000034B0F221A72024B0F225A7200BF08BD89
:107E200048480020024B00225A7000BF704700BF34
:107E30004848002082B003468DF80730064A9DF876
:107E400007301370054B01221A70044B05229A74F7
:107E500000BF02B0704700BF4248002048480020E1
:107E6000024B00221A7000BF704700BF4848002034
:107E700000B583B00190A34B1B68002B40F0388104
:107E8000A14B5B79DBB2002B30D09F4B1B7CDBB26C
:107E9000002B15D09C4B1B7CDBB2013BDAB29A4B1A
:107EA0001A7400220121002000F064FA964B1B7C1A
:107EB000DBB2002B40F01E81012003F00BFC19E126
:107EC000914B5B7CDBB2002B0CD08F4B5B7CDBB22D
:107ED000013BDAB28C4B5A7400220021012000F0E1
:107EE00049FA07E1884B00225A7103E1864B5B781F
:107EF000DBB2002B39D0844BDB79DBB2002B0CD00A
:107F0000814BDB79DBB2013BDAB27F4BDA710122C4
:107F10000021002000F02EFAF1E07B4B1B7ADBB24F
:107F2000002B0CD0784B1B7ADBB2013BDAB2764BDC
:107F30001A7200220021012000F01CFADFE0724BCF
:107F40005B7ADBB2002B0CD06F4B5B7ADBB2013B70
:107F5000DAB26D4B5A7200220121002000F00AFAB9
:107F6000CDE0FFF75FFFFFF7A1FD674B9B78DBB22A
:107F7000002B18D01620FFF760FE0346002B01D01F
:107F8000FFF7D4FE604BDB78DBB2002B05D000227C
:107F90000121002000F0EEF9B1E0002200210120D3
:107FA00000F0E8F9ABE0584B1B79DBB2002B22D094
:107FB000554BDB7BDBB2013BDAB2534BDA73524BEE
:107FC000DB7BDBB2002B40F097804F4B0A22DA7349
:107FD0000D20FFF711FE4C4B9B7BDBB2013BDAB26D
:107FE000494B9A73484B9B7BDBB2002B40F084805B
:107FF000FFF7F2FE80E0444B1B78DBB2002B11D080
:10800000414B9B7CDBB2013BDAB23F4B9A743E4B57
:108010009B7CDBB2002B71D13B4B05229A7400F0A4
:10802000D9F96BE0384BDB7ADBB2002B0CD0364B46
:10803000DB7ADBB2013BDAB2334BDA720022002189
:10804000012000F097F95AE02F4B9B7ADBB2002B0E
:1080500015D02D4B9B7ADBB2013BDAB22A4B9A72D8
:10806000294B9B7ADBB2002B03D100210020FEF7C5
:1080700035FC00220121002000F07CF93FE0224B7A
:108080001B7BDBB2002B0CD01F4B1B7BDBB2013BFD
:10809000DAB21D4B1A7300220121002000F06AF9A8
:1080A0002DE0194B5B7BDBB2002B0CD0164B5B7BBE
:1080B000DBB2013BDAB2144B5A73002201210120DA
:1080C00000F058F91BE0104B9B79DBB2002B0CD071
:1080D0000D4B9B79DBB2013BDAB20B4B9A7101225B
:1080E0000121012000F046F909E000F037F906E02F
:1080F00000BF04E000BF02E000BF00E000BF03B02B
:1081000000BD00BFDC4C00204848002000B585B011
:1081100001901320FFF791FD0346DAB22C4B1A7041
:108120002C4A2D4BD31ADB081B0443F00303284AC7
:1081300012782A49184610F0A2FB254B1B78002B19
:1081400043D1274B1B680133254A1360244B1B681E
:108150000A2B08D11820FFF784FD0346002B23D0FB
:10816000FFF748FE20E01E4B1B68032B0FD11820A1
:10817000FFF777FD0346002B04D1FFF7E9FD00F080
:10818000E7F811E0FFF7E4FD00F0DCF80CE0144B39
:108190001B68062B08D11820FFF763FD0346002B50
:1081A00002D0022003F096FA0E4B00224FF48041D9
:1081B00018460CF0C9FE0390039B002B05D00A4A19
:1081C00040F23D1103980CF0A5FA00BF05B000BDC8
:1081D0005B48002090AD030068AD0300B8B4030015
:1081E0004448002020410020D0B4030000B585B0F1
:1081F00001900B468DF8033000230393019B132B52
:108200000AD0019B132B00F28980019B072B79D0A8
:10821000019B112B6ED081E01320FFF70EFD03466A
:10822000DAB2404B1A703F4B1B78002B39D03E4BD3
:1082300018460CF0E1FE03903C4A3D4BD31ADB0894
:108240001B0443F00303039A3A49184610F017FB46
:10825000394B1B68002B18D11820FFF702FD03468D
:10826000002B12D0FEF720F90290029B452B03D978
:108270000298FFF78BFD08E0029B1D2B03D90298A3
:10828000FFF784FD01E0FFF793FD284A284BD31A3E
:10829000DB081B0443F003032849184610F0E2FAF8
:1082A0003CE0254B00221A601F4B18460CF0A4FE40
:1082B00003901E4A1E4BD31ADB081B0443F0030332
:1082C000039A1C49184610F0DAFA174B00224FF4B3
:1082D000804118460CF038FE0390144A144BD31A10
:1082E000DB081B0443F00303039A1549184610F0FA
:1082F000C6FA13E01120FFF7A0FC0346002B0AD0BA
:10830000FFF7D4FB0720FFF798FC0346002B04D0AF
:1083100001F0EEFC01E000BF00E000BF00BF05B0CF
:1083200000BD00BF5B4800202041002090AD03004D
:1083300068AD030018B50300444800202CB50300C5
:1083400044B5030008B51820FFF743FC00BF08BD83
:1083500008B51820FFF72AFC00BF08BD08B50B20A0
:10836000FFF737FC0C20FFF734FC0D20FFF731FC42
:1083700000BF08BD00B583B003468DF807300B463B
:108380008DF8063013468DF805309DF80730002B28
:1083900003D00D20FFF70AFC02E00D20FFF719FCC7
:1083A0009DF80630002B03D00B20FFF7FFFB02E007
:1083B0000B20FFF70EFC9DF80530002B03D00C209E
:1083C000FFF7F4FB02E00C20FFF703FC00BF03B053
:1083D00000BD000008B51D4B1B78002B1AD11C4BAB
:1083E0001B78002B09D01A4B00221A700D20FFF7C2
:1083F000F0FB0C20FFF7DAFB08E0154B01221A70A6
:108400000D20FFF7D3FB0C20FFF7E3FB0B20FFF75A
:10841000E0FB19E00E4B1B78002B09D00C4B00221F
:108420001A700D20FFF7D5FB0B20FFF7BFFB08E00C
:10843000074B01221A700D20FFF7B8FB0B20FFF746
:10844000C8FB0C20FFF7C5FB00BF08BD4248002059
:108450005C48002000B595B00AF018F8034683F098
:108460000103DBB2002B0BD009F0ACFF1390139B80
:10847000002B05D0784A4FF4017113980CF04AF99B
:10848000764A002176480CF025FD1290129B002BB5
:1084900005D0714A40F2062112980CF03BF9714A5E
:1084A000012171480CF016FD1190119B002B05D095
:1084B000694A40F2092111980CF02CF90B20FFF7C2
:1084C00051FB0C20FFF74EFB0D20FFF74BFB182054
:1084D000FFF748FBFFF742FFFFF734FF634B002233
:1084E00040F2666118460CF02FFD1090109B002B97
:1084F00005D0594A40F2162110980CF00BF94FF4B0
:1085000020330F934FF480430E9300238DF81730E0
:10851000002304930023039300230D9300238DF87D
:108520003330534A534BD31ADB081B0443F0030385
:108530005149184610F096F900211620FFF722FB4A
:1085400000211320FFF71EFB00211120FFF71AFB6B
:108550001120FFF772FB0346002B00F0978003F019
:1085600001F9FFF7EBFB0CF097FD0D901320FFF7DF
:1085700064FB0346002B0CBF012300238DF833302E
:108580001320FFF75AFB0346002B50D19DF81730FC
:10859000DBB283F00103DBB2002B12D001238DF894
:1085A00017300D9B04930D9B0393314A314BD31A23
:1085B000DB081B0443F003033049184610F052F95E
:1085C000D1E7049B19460D980CF05AFD0790039BC8
:1085D00019460D980CF054FD02460E9B934210D89C
:1085E0000D9B0393079B9B0B0693214A214BD31AA8
:1085F000DB081B0443F00303069A2149184610F0D8
:108600003EF9079A0F9B9A42ADD3184B18460CF0CF
:10861000F3FC174A174BD31ADB081B0443F0030380
:108620001849184610F01EF901F02AF89BE79DF84A
:108630001730DBB2002B96D00D4A0E4BD31ADB0855
:108640001B0443F003031049184610F00BF90023F4
:108650008DF8173087E700BFD0B403000D8102000A
:10866000FCB50300717E020000B60300404100200B
:1086700090AD030068AD030058B5030078B5030062
:1086800094B50300ACB50300D4B5030003238DF803
:10869000083000238DF809309DF80A3023F00103DB
:1086A0008DF80A309DF80A3023F002038DF80A3065
:1086B0009DF80A3023F004038DF80A3000238DF86A
:1086C000093002AB454A1946132009F0EBFE0B9026
:1086D0000B9B002B05D0424A4FF418710B980CF0FD
:1086E00019F80121132009F059FF03238DF80430F4
:1086F00000238DF805309DF8063023F001038DF836
:1087000006309DF8063023F002038DF806309DF800
:10871000063023F004038DF8063000238DF8053071
:1087200001AB2E4A1946072009F0BCFE0A900A9BAD
:10873000002B05D02A4A40F265210A980BF0EAFF87
:108740000121072009F02AFF03238DF800300023C0
:108750008DF801309DF8023023F001038DF80230CE
:108760009DF8023023F002038DF802309DF80230AC
:1087700023F004038DF8023000238DF801306B469E
:10878000164A1946112009F08DFE0990099B002B0D
:1087900005D0134A40F26A2109980BF0BBFF012172
:1087A000112009F0FBFE1320FFF747FA0346002BC8
:1087B00010D10C4B00224FF4804118460CF0C4FB42
:1087C0000890089B002B05D0054A40F26F210898BD
:1087D0000BF0A0FF00BF15B000BD00BFED8102008F
:1087E000D0B403002041002072DF704700BF18465C
:1087F00073DF704700BF184674DF704700BF18462C
:1088000076DF704700BF184677DF704700BF184615
:108810007CDF704700BF184633DF704700BF184643
:1088200000B587B0019000238DF8173000238DF834
:108830000F30019B1B78002B02D0032B43D04EE05E
:1088400002F0AEFF03468DF81730264A264BD31AA6
:10885000DB081B0443F00300019B9B8A1A46234953
:1088600010F00DF80023049312E01E4A1E4BD31A99
:10887000DB081B0443F00300019B1A69049B1344AB
:108880001B781A461A490FF0FAFF049B0133049330
:10889000019B9B8A1A46049B9342E6D3114A124BD2
:1088A000D31ADB081B0443F00303124918460FF0E8
:1088B000D9FF019B1869019B9B8A9DF917201946D6
:1088C000FDF746FF0BE0074A074BD31ADB081B04F2
:1088D00043F00303084918460FF0C4FF00BF00BF70
:1088E00007B000BD90AD030068AD030004B60300FF
:1088F00010B6030018B603001CB6030000B583B021
:10890000FFF78AFF0190019B0093009B002B04D08E
:10891000034A562100980BF0FDFE00BF03B000BDD6
:1089200038B6030000B583B003468DF807309DF8D4
:108930000730002B01D0032B02E0FFF7DFFF00BF61
:1089400000BF03B000BD000000B583B00190044A31
:10895000712101980BF0DEFE00BF03B000BD00BF27
:1089600038B6030000B587B000230193164B01937E
:1089700001AB1946154807F09CFE0590059B049332
:10898000049B002B04D0124A802104980BF0C2FEF5
:1089900002AB04220021184612F000F80D4B02939E
:1089A00002AB19460C4808F0D7FA0590059B0393D3
:1089B000039B002B04D0064A882103980BF0AAFEE3
:1089C00000BF07B000BD00BF498902006848002011
:1089D00038B60300218802006C41002000B5AFB01A
:1089E00001ABAC220021184611F0D8FF02238DF80C
:1089F000043000238DF8063005238DF8073001235D
:108A0000ADF85030124B159301238DF87C300123C3
:108A10008DF88030A0232393002324930D4B2A93B9
:108A200001AB19460C4804F015FF2D902D9B2C939B
:108A30002C9B002B04D0094AA1212C980BF06AFE34
:108A40000121054804F0F9FE00BF2FB000BD00BFB2
:108A500088410020258902007448002038B60300B0
:108A600000B585B001900B46ADF802300B4ABDF859
:108A700002301380BDF802301946094807F03BFE6A
:108A80000390039B0293029B002B04D0054AAB2169
:108A900002980BF03FFE00BF05B000BD6041002012
:108AA0006848002038B6030000B585B001900B4639
:108AB000ADF802301346ADF80030BDF800300DF1CE
:108AC00002020199034808F0EDFA0390039B18464F
:108AD00005B000BD6C41002000B583B0144B1B886D
:108AE0004FF6FF7293420BD1124A134BD31ADB0895
:108AF0001B0443F00303114918460FF0B3FE15E0C1
:108B00000B4B1B8813211846FFF77AFE0190019B3F
:108B1000002B0BD0074A084BD31ADB081B0443F089
:108B20000103019A064918460FF0A9FE03B000BDE3
:108B30006041002090AD030068AD03008CB60300D7
:108B40009CB6030000B583B0194A1A4BD31ADB0850
:108B50001B0443F00303184918460FF083FE174B1C
:108B600093F854301846FFF747FE0190104A114B16
:108B7000D31ADB081B0443F00300104B93F8543066
:108B80001A46019B0E490FF08AFE019B002B0CD068
:108B9000019B082B09D0019B0093009B002B04D064
:108BA000084AD22100980BF0B5FD00BF03B000BD0C
:108BB00090AD030068AD0300B4B603007448002014
:108BC000C4B6030038B6030000B585B001909DF827
:108BD0000830012262F303038DF808309DF8083055
:108BE000012262F307138DF80830019811F055FE49
:108BF00003469AB202AB01991846FFF709FE0390AB
:108C000000BF05B000BD000000B59BB0FEF720FD21
:108C1000189000238DF8673008AB3C2200211846DD
:108C200011F0BCFE02238DF8203004238DF8233090
:108C300000238DF8223002F017FB0346002B07D0EB
:108C4000274B44F221321A8004238DF8673008E064
:108C5000234B41F234221A80189BB3F9C2308DF8AD
:108C60006730189B03F1A0026B461E49184611F0AD
:108C70008DFA1B4A6B4693606B46184611F00DFE49
:108C800003469AB2164B9A80154B129301238DF826
:108C90004C30154B93F8543019469DF967301A46FD
:108CA0000120FFF7B1FD1790179B002B14D10F4A3D
:108CB0000F4BD31ADB081B0443F00303179A0D492B
:108CC00018460FF0DCFD08AB00221946064804F0F8
:108CD000DAFF1790179B00E0179B18461BB000BDEA
:108CE000A84C0020E8B603007448002090AD0300B3
:108CF00068AD0300ECB6030000B595B0FEF7A8FC24
:108D000013902F4B1B788DF806302E4A2E4BD31A1A
:108D1000DB081B0443F00303294A12782B49184649
:108D20000FF0ADFD0123ADF8043002AB3C22002171
:108D3000184611F033FE06238DF80B3002238DF810
:108D4000083002F091FA0346002B04D0204B44F285
:108D500021321A8003E01E4B41F234221A80139B09
:108D6000A0331B4A9360139BA033184611F095FD66
:108D700003469AB2164B9A80154B0C9301238DF83B
:108D8000343002AB00221946124804F07CFF1290E6
:108D9000129B002B01D0129B0EE004238DF847306C
:108DA0000C4B93F8543019469DF947301A46012070
:108DB000FFF72AFD1290129B184615B000BD00BFA8
:108DC0006C41002090AD030068AD030008B70300BC
:108DD000B44C00207448002000B585B003460091D3
:108DE0008DF80730384A394BD31ADB081B0443F09F
:108DF00003039DF80720364918460FF040FDFEF7A3
:108E000027FC0290002303939DF80730002B35D0F8
:108E1000029B1846FFF7D8FEFFF7F6FE0346002B2D
:108E200002D0039B013303932A4B052283F83C2095
:108E3000029BB3F8C430DB00274A82FB03125210B6
:108E4000DB17D31A1A46234B5A64244A244925486F
:108E5000FFF7CAFC0346002B02D0039B01330393A8
:108E60001C4B93F8543001211846FFF7C1FC034610
:108E7000002B20D0039B013303931CE0029B184678
:108E8000FFF7A2FEFFF738FF0346002B02D0039B3B
:108E9000013303930F4BA0225A610E4B012283F83A
:108EA0003C2003210B4804F0ADFD0346002B02D00B
:108EB000039B01330393039B002B02D0082000F097
:108EC000F3FA00BF05B000BD90AD030068AD03002C
:108ED00018B703007448002067666666B048002033
:108EE000844C0020C848002000B583B00190019B4D
:108EF000054A1A60019B054A5A60FFF733FDFFF7E8
:108F00006DFD00BF03B000BD618A0200A98A0200A6
:108F100076DF704700BF18467FDF704700BF1846F6
:108F20008FDF704700BF1846B1DF704700BF18469B
:108F300000B583B00190019B1B68184600F0DBF878
:108F40000346002B04D105494FF4F67001F098FE5A
:108F50004FF0A043184603B000BD00BF2CB703007C
:108F600000B585B00190084611461A4603468DF8B3
:108F700003300B468DF8023013468DF8013001ABFB
:108F80001846FFF7D5FF03909DF803209DF80230A7
:108F90005B001A439DF801309B001A439DF818307E
:108FA0001B0242EA03019DF81C301B04019A19437D
:108FB000039B02F5E07243F8221000BF05B000BD2C
:108FC00000B585B003900023019300230093002394
:108FD000012201210398FFF7C3FF00BF05B000BDC8
:108FE00000B585B003900B468DF80B309DF80B3023
:108FF0000022019200220092002200210398FFF734
:10900000AFFF00BF05B000BD00B585B0019001AB5A
:109010001846FFF78DFF0390019B012202FA03F32C
:109020001946039800F053F800BF05B000BD00B525
:1090300085B0019001AB1846FFF77AFF0390019BC2
:10904000012202FA03F31946039800F04AF800BF20
:1090500005B000BD00B585B0019001AB1846FFF723
:1090600067FF0390039BD3F804350293029BDA4316
:10907000019B012101FA03F31A40039BC3F8082561
:10908000019B01229A40029B1A40039BC3F80C25C6
:1090900000BF05B000BD00B585B0019001AB18461A
:1090A000FFF746FF0390039800F009F80246019B82
:1090B00022FA03F303F00103184605B000BD82B0A5
:1090C0000190019BD3F81035184602B0704782B06A
:1090D00001900091019B009AC3F8082500BF02B0DF
:1090E000704782B001900091019B009AC3F80C2553
:1090F00000BF02B0704784B00190019B5B090293EE
:1091000000230393029B002B03D14FF0FF33039303
:1091100000BF019B03F01F030193039A019B22FAF6
:1091200003F303F00103DBB2184604B070470000FC
:1091300000B58BB00190009100238DF82730019B82
:109140001B88562B00F08D80562B00F39C80522BF1
:1091500062D0522B00F397803B2B70D03B2B00F357
:109160009280212B2CD0212B00F38D80132B40D00B
:10917000132B00F38880102B02D0112B0CD082E02F
:10918000484A494BD31ADB081B0443F00303474901
:1091900018460FF067FB81E0424A434BD31ADB08C5
:1091A0001B0443F00303424918460FF05BFB019B8D
:1091B0001B7A8DF80B303F4B4FF6FF721A806DE033
:1091C00000238DF8083000238DF80930019B9B881F
:1091D00002AA11461846FFF7A3FE0890089B0493C5
:1091E000049B002B51D0344AC82104980BF092FA0A
:1091F0004BE0304B1888002300228521FFF78CFEBE
:109200000890089B0393039B002B40D02A4ACE2151
:1092100003980BF07FFA3AE0264B188800230022CF
:109220000021FFF781FE0890089B0693069B002B08
:109230002FD0214AD42106980BF06CFA29E0019B2B
:109240009B8813211846FFF763FE0890089B05933F
:10925000059B002B1FD0184ADB2105980BF05AFA0A
:1092600019E0019B9B8813211846FFF751FE0890D7
:10927000089B0793079B002B0FD00F4AE22107980A
:109280000BF048FA09E000BF08E000BF06E000BFAD
:1092900004E000BF02E000BF00E000BF00BF0BB071
:1092A00000BD00BF90AD030068AD0300A4B703008C
:1092B000ACB70300104200205CB7030008B50FF004
:1092C0006FFB034683F00103DBB2002B01D00EF0ED
:1092D0008BFA00BF08BD00B583B001900B468DF836
:1092E0000330019B132B08D0019B132B1CD8019B2F
:1092F000072B10D0019B112B16E01320FFF7CBFE9C
:109300000346002B03D00C20FFF791FE0CE00C204D
:10931000FFF77AFE08E00720FFF7BDFE0346002BAB
:1093200001D000F0E5FC00BF00BF03B000BD0000AD
:1093300000B589B0594A02AB126811461980023350
:10934000120C1A7002AB564A1946132009F0AAF8FB
:109350000790079B002B05D0524A40F26B110798EB
:109360000BF0D8F90121132009F018F903238DF827
:10937000043000238DF805309DF8063023F00103FA
:109380008DF806309DF8063023F002038DF8063084
:109390009DF8063023F004038DF8063000238DF885
:1093A000053001AB3E4A1946112009F07BF80690C2
:1093B000069B002B05D03B4A40F2711106980BF03A
:1093C000A9F90121112009F0E9F803238DF80030F3
:1093D00000238DF801309DF8023023F001038DF851
:1093E00002309DF8023023F002038DF802309DF820
:1093F000023023F004038DF8023000238DF8013091
:109400006B46274A1946072009F04CF80590059B42
:10941000002B05D0234A4FF4BB7105980BF07AF965
:109420000121072009F0BAF801211620FFF7D8FD25
:109430000B20FFF7C5FD0C20FFF7C2FD0D20FFF745
:10944000BFFD1820FFF7BCFD1820FFF7F0FD0BF063
:1094500023FE04904FF4004303930B20FFF7D4FD49
:109460000C20FFF7D1FD0D20FFF7CEFD00BF0BF064
:1094700013FE0346049918460BF002FE0246039BB6
:109480009342F4D80B20FFF7D2FD0C20FFF7CFFD5D
:109490000D20FFF7CCFD00BF09B000BDD8B7030019
:1094A000D79202005CB7030000B583B001901D4A5B
:1094B000019B13600B20FFF7BAFD0C20FFF7B7FDEF
:1094C0000D20FFF7B4FD174B1B68082B1FD0082B8E
:1094D00024D8042B14D0042B20D8012B02D0022B2B
:1094E00007D01BE0642301220021002000F04EF889
:1094F00015E0642300220021012000F047F80EE06F
:10950000642300220121002000F040F807E06423DA
:1095100001220121012000F039F800E000BF00BF66
:1095200003B000BDDC4C002000B585B00190FCF715
:10953000B5FF0390039B41F2CB02934204D8039BF7
:1095400040F64852934203D80220FFF7ADFF00BF18
:1095500000BF05B000BD00B583B001900D20FFF73E
:1095600079FD00BF03B000BD00B583B001900C20B1
:10957000FFF770FD00BF03B000BD00B583B00190E0
:109580000B20FFF767FD00BF03B000BDF0B585B04D
:10959000009303468DF807300B468DF806301346CE
:1095A0008DF80530009B00221C4615464FF0000246
:1095B0004FF00003EB0343EA5443E20312F57A76DB
:1095C00043F100074FF4FA624FF00003304639468A
:1095D00010F0D0FC02460B46134603939DF807306B
:1095E000002B09D0144B18460BF006FD124B00223D
:1095F000039918460BF0A8FC9DF80630002B09D003
:109600000E4B18460BF0F8FC0C4B00220399184641
:109610000BF09AFC9DF80530002B09D0084B18463A
:109620000BF0EAFC064B0022039918460BF08CFC69
:1096300000BF05B0F0BD00BFB0410020F0410020E8
:10964000D041002008B5084A012108480BF042FC2F
:10965000074A012107480BF03DFC074A0121074852
:109660000BF038FC00BF08BD57950200E0B70300BF
:1096700069950200E4B703007B950200E8B7030098
:1096800000B583B0FFF754FEFFF7DCFFFDF712F8DB
:10969000FEF7FCF90346002B02D00120FFF704FF80
:1096A000002000F0FFFA034683F00103DBB2002B39
:1096B00002D00420FFF7F8FE00F030F902F0B0F815
:1096C00000210020FFF788FB0E4A01210E480BF015
:1096D00001FC0190019B0093009B002B05D00B4ADD
:1096E00040F2FF1100980BF015F8094B00224FF4DF
:1096F000804118460BF028FC00F010F9FFF7DEFD62
:10970000FAE700BF29950200DCB703005CB703004D
:109710009041002070B590B00590059BD3F80230C1
:1097200003F5FD4310330F930BF0B6FC0346154AC7
:109730001360154A0F9B1360144B01221A7006AB7D
:10974000184600F051F8124A124BD31ADB081B04DA
:1097500043F003000B9B03F26C731D460A9B01331D
:109760001E46099B089A0799069C03940291019250
:10977000009333462A4608490FF0E9F800BF10B0BD
:1097800070BD00BFE44C0020E04C0020E84C0020FD
:1097900090AD030068AD0300ECB7030000B585B0E1
:1097A0000E4B1B7883F00103DBB2002B01D00023AA
:1097B00010E00BF071FC0390094B1B6819460398ED
:1097C0000BF05EFC0290029BDB0B0193054B1A68C9
:1097D000019B1344184605B000BD00BFE84C0020B3
:1097E000E44C0020E04C002030B585B00190FFF73C
:1097F000D5FF03460293019B002B11D002AB184604
:1098000011F021FA0390039B002B09D0019A039BCE
:1098100014461D460FCD0FC40FCD0FC42B68236017
:1098200000BF05B030BD000000B583B00190019BC2
:109830001B68184600F02CF80346002B04D105499C
:109840004FF4F67001F01CFA4FF0A043184603B035
:1098500000BD00BF1CB8030000B585B0019001AB8E
:109860001846FFF7E1FF0390039800F009F802465D
:10987000019B22FA03F303F00103184605B000BD73
:1098800082B00190019BD3F81035184602B07047A2
:1098900084B00190019B5B09029300230393029B18
:1098A000002B03D14FF0FF33039300BF019B03F064
:1098B0001F030193039A019B22FA03F303F00103B0
:1098C000DBB2184604B0704700B587B00190009134
:1098D0000023ADF8103078238DF80F300023059366
:1098E00004AB1946002001F04AF903460593BDF880
:1098F0001030C3F308039BB2002B0BD0059B002B49
:1099000008D1009B9BB20DF10F00019A012101F0DB
:109910003DF8E5E700BF07B000BD000010B58AB014
:10992000002309935A4B1B78DBB2002B06D107208A
:10993000FFF792FF0346002B00F0A680554B1A68F4
:109940001346DB009B1A08930899012010F065FF6D
:1099500003460793079B002B0BD14F4A4F4BD31A5B
:10996000DB081B0443F003034D4918460EF07AFF51
:109970008CE0474B00221A7001F09CF80023ADF8F0
:1099800014301B238DF8183005AB1946002001F068
:10999000F6F89DF8153003F01003DBB2002B12D05F
:1099A000089B9BB21946079800F0F8FB09903D4BC5
:1099B0001B78DBB283F00103DBB2002B37D00998B0
:1099C00000F0A0FD33E048F20103ADF8103004AB25
:1099D0000221184600F0AEFF70238DF80F300DF114
:1099E0000F000423304A012100F0D0FF2A4A2B4BFC
:1099F000D31ADB081B0443F003002C4B1B7B1946D6
:109A00002A4B5B7B1C46294B9B7B1A46274BDB7BF7
:109A10000193009223460A4625490EF068FF002371
:109A20008DF8113004AB0221184600F083FF0020AE
:109A3000FCF740FD1B4B1B78DBB2002B1BD0142224
:109A400000211C4810F0AAFF1A4B31221A70194B42
:109A500003225A70174B00229A70164B1022DA70AC
:109A6000144B124A1C1D13460FCB84E80F0014211F
:109A7000104801F0EDFC08990798FFF725FF0798BB
:109A800010F0C0FE00F0FEFF00F0F8FB0AB010BDC1
:109A9000104D00201C42002090AD030068AD030073
:109AA0004CB80300114D00200C4D0020004D00204B
:109AB0005CB80300EC4C002030B589B00023ADF851
:109AC00014301B238DF81C3005AB1946002001F023
:109AD00056F81C4A1C4BD31ADB081B0443F0030046
:109AE000BDF81430C3F308039BB21C469DF8153033
:109AF000C3F30013DBB21D469DF81530C3F380039A
:109B0000DBB21A469DF81530C3F3C003DBB2194629
:109B10009DF81530C3F34003DBB20293019100922C
:109B20002B46224609490EF0F9FEBDF81430C3F366
:109B300008039BB2ADF81E30BDF81E30184609B0C0
:109B400030BD00BF90AD030068AD030084B80300D2
:109B500000B583B00023019310E00C4A019B12F87A
:109B600013308DF8003000238DF801306B46022150
:109B7000184600F0DFFE019B01330193019BB3F512
:109B8000947FEAD300BF00BF03B000BD2C42002089
:109B900000B583B01B4A1C4BD31ADB081B0443F0EF
:109BA00003030C22194918460EF069FE00230193A5
:109BB00020E0174A019B12F813308DF80030144A48
:109BC000019B12F81330072B05D1124B1B68DBB237
:109BD0008DF8013006E00E4A019B5B0013445B7870
:109BE0008DF801306B460221184600F0A3FE019B60
:109BF00001330193019B052BDBD900BF00BF03B0EC
:109C000000BD00BF90AD030068AD0300B0B8030015
:109C1000204200201C42002000B583B01C4A1D4B8E
:109C2000D31ADB081B0443F003034FF414721A49E0
:109C300018460EF024FE0023019320E0174A019BF2
:109C400012F813308DF80030144A019B12F81330CB
:109C5000072B05D1124B1B68DBB28DF8013006E0F3
:109C60000E4A019B5B0013445B788DF801306B4614
:109C70000221184600F05EFE019B01330193019B17
:109C8000B3F5947FDAD300BF00BF03B000BD00BFBF
:109C900090AD030068AD0300C4B803002C4200205F
:109CA0001C42002000B583B003468DF8073000F059
:109CB00001FF00F097FA034683F00103DBB2002BAB
:109CC00003D000F0DFFE00230FE0FFF741FF9DF817
:109CD0000730002B02D0FFF79FFF01E0FFF758FF8E
:109CE000FFF7EAFE00F0CEFE0123184603B000BDE8
:109CF000024B01221A7000BF704700BF104D0020B8
:109D000000B589B00346ADF806300B46ADF8043017
:109D10001346ADF80230BDF9063007EE903AB8EEC2
:109D2000E77A3E4BD3ED007A67EE277ACDED067ADF
:109D3000BDF9043007EE903AB8EEE77A374BD3ED31
:109D4000007A67EE277ACDED057ABDF9023007EE8D
:109D5000903AB8EEE77A314BD3ED007A67EE277A86
:109D6000CDED047A2E4B1B78DBB2002B26D0DDED37
:109D7000067A9FED2C7A67EE877AFDEEE77A17EE8A
:109D8000903A1AB2284B1A80DDED057A9FED257ABC
:109D900067EE877AFDEEE77A17EE903A1AB2224B19
:109DA0005A80DDED047A9FED1F7A67EE877AFDEE2B
:109DB000E77A17EE903A1AB21B4B9A80DDED067ADD
:109DC00027EEA77ADDED057A67EEA77A37EE277AD8
:109DD000DDED047A67EEA77A77EE277AB0EE670AB0
:109DE00010F0C4F88DED030ADDED037AB7EE007ACA
:109DF00077EEC77ACDED077ADDED077AF5EEC07A1A
:109E0000F1EE10FA02D54FF000030793079B07EE1F
:109E1000903AB0EE670A09B000BD00BF14420020BE
:109E2000114D002000007A44004D002000B587B09D
:109E30000346ADF806300B46ADF804301346ADF8D6
:109E40000230BDF9063007EE903AB8EEE77A3B4BA8
:109E5000D3ED007A67EE277ACDED047ABDF90430B0
:109E600007EE903AB8EEE77A344BD3ED007A67EE1E
:109E7000277ACDED037ABDF9023007EE903AB8EEBD
:109E8000E77A2E4BD3ED007A67EE277ACDED027A92
:109E90002B4B1B78DBB2002B26D0DDED047AB2EE23
:109EA000047A67EE877AFDEEE77A17EE903A1AB2F7
:109EB000244BDA80DDED037AB2EE047A67EE877A1E
:109EC000FDEEE77A17EE903A1AB21E4B1A81DDEDDD
:109ED000027AB2EE047A67EE877AFDEEE77A17EE41
:109EE000903A1AB2174B5A81DDED047A27EEA77A21
:109EF000DDED037A67EEA77A37EE277ADDED027A99
:109F000067EEA77A77EE277AB0EE670A10F02EF8A0
:109F10008DED050ADDED057AB0EE007AF4EEC77A34
:109F2000F1EE10FA02D54FF000030593059B07EE02
:109F3000903AB0EE670A07B000BD00BF184200209B
:109F4000114D0020004D002000B58FB00190009110
:109F50004FF000030D934FF000030C930023ADF876
:109F60002E300023ADF82C3000230A93A9E00A9A82
:109F70001346DB009B1A0693069B019A13441B7839
:109F8000DB088DF817309DF81730022B49D1069B5E
:109F90000233019A13441B781BB21B021AB2069BB0
:109FA000013301990B441B781BB21343ADF80E30FB
:109FB000069B0433019A13441B781BB21B021AB28E
:109FC000069B033301990B441B781BB21343ADF876
:109FD0000C30069B0633019A13441B781BB21B02FC
:109FE0001AB2069B053301990B441B781BB213432D
:109FF000ADF80A30BDF90E20BDF90C10BDF90A30DC
:10A000001846FFF77DFEB0EE407ADDED0D7A77EE73
:10A01000877ACDED0D7ABDF82E300133ADF82E30B4
:10A020004CE09DF81730012B48D1069B0233019A72
:10A0300013441B781BB21B021AB2069B0133019911
:10A040000B441B781BB21343ADF81430069B04334A
:10A05000019A13441B781BB21B021AB2069B0333EE
:10A0600001990B441B781BB21343ADF81230069BC9
:10A070000633019A13441B781BB21B021AB2069BCB
:10A08000053301990B441B781BB21343ADF8103014
:10A09000BDF91020BDF91210BDF914301846FFF7B4
:10A0A000C5FEB0EE407ADDED0C7A77EE877ACDED25
:10A0B0000C7ABDF82C300133ADF82C300A9B0133FB
:10A0C0000A930A9B009A9A423FF651AF4FF0000361
:10A0D0000993BDF82E30002B0CD0BDF82E3007EEC2
:10A0E000903AB8EE677ADDED0D6AC6EE877ACDED6F
:10A0F000087A02E04FF000030893BDF82C30002BE3
:10A100000CD0BDF82C3007EE903AB8EE677ADDED52
:10A110000C6AC6EE877ACDED077A02E04FF00003B5
:10A120000793BDF82E30002B0FD0BDF82E3007EE70
:10A13000903AB8EE677ADDED0D6AC6EE877A9DED4E
:10A14000097A77EE277ACDED097ABDF82C30002B0D
:10A1500013D0BDF82C3007EE903AB8EE677ADDEDFB
:10A160000C6AC6EE877A9FED0B7A67EE877A9DEDD3
:10A17000097A77EE277ACDED097ADDED097A9FED40
:10A18000067A67EE877AFCEEE77A17EE903A184681
:10A190000FB000BD6F12033B00007A4400B585B0DC
:10A1A00001900B46ADF8023078238DF80D30002376
:10A1B0008DF80F3000238DF80E30BDF802300DF110
:10A1C0000D00019A012100F0E1FB054B1B681946C7
:10A1D0000198FFF7B9FE0346184605B000BD00BF61
:10A1E0001C42002000B583B00F238DF807300023F8
:10A1F0008DF806300DF106020DF107000123012153
:10A2000000F0C4FB0B4A0C4BD31ADB081B0443F0D1
:10A2100003039DF80620094918460EF030FB9DF80F
:10A220000630712B01D1012300E00023184603B052
:10A2300000BD00BF90AD030068AD0300DCB80300B3
:10A2400030B482B00190019B002B0ED0094A019BD3
:10A2500014461D4628686968AA68EB680FC4286917
:10A260002060054B01221A7000E000BF02B030BC34
:10A27000704700BFEC4C0020124D002000B587B0A5
:10A28000444B1B78002B00F08380424B00221A7055
:10A29000414BDB788DF816303F4B9B788DF81530AD
:10A2A00000238DF817309DF81630002B6FD09DF8E5
:10A2B0001630102B6BD800F0FDFB374B5B78032B6F
:10A2C00047D0032B57DC022B31D0022B53DC002B61
:10A2D00002D0012B0FD04EE09DF816309BB20DF14D
:10A2E00015002E4A012100F051FB01238DF8173093
:10A2F00000F0C8FB3FE09DF815308DF804309DF864
:10A30000162001AB01332549184610F015FB9DF8C6
:10A3100016309BB201339AB201AB1146184600F0D9
:10A3200009FB01238DF8173000F0ACFB23E000F0AF
:10A33000A9FB1B4B01221A701A4B1B4A1A601B4BBC
:10A340001B4A1A601B4B02221A600120FFF7AAFC6D
:10A3500011E000F097FB124B00221A70114B164AC5
:10A360001A60124B124A1A60124B4B221A600020DC
:10A37000FFF798FC00BF9DF81730002B08D0064B64
:10A3800031221A701421044801F062F800E000BF85
:10A3900007B000BD124D0020EC4C0020F04C002016
:10A3A000114D00201442002040DA7F39184200206D
:10A3B000295C8F3D1C42002040DA7F38014B184653
:10A3C000704700BF144D002086B00190019B0833F8
:10A3D0000593059BA3F58022144BA3FB0213590B95
:10A3E0000B465B000B441B03D31A0493049BB3F589
:10A3F000345F0FD3059BA3F580230C4AA2FB0323F4
:10A400005B0B0393039A13465B0013441B0303F592
:10A4100086230593059BB3F5982F02D34FF4802331
:10A420000593059B184606B0704700BFABAAAAAAC1
:10A430008EB000230D9300230C932F4B1B680B93BE
:10A440002E4B1B680A930B9A0A9B9A421CD80A9AB5
:10A450000B9BD31A0D930B9BA3F58023284AA2FBD9
:10A4600003235B0B03930A9BA3F58023244AA2FBDF
:10A4700003235B0B0293029A039BD21A13465B00E1
:10A4800013441B020C9327E00A9A0B9BD31A03F583
:10A4900040430D930B9BA3F58023194AA2FB032392
:10A4A0005B0B0993042308930A9BA3F58023144AAA
:10A4B000A2FB03235B0B0793089A099BD31A06930D
:10A4C000079B0593069A059B13440493049A13462D
:10A4D0005B0013441B020C930D9A0C9B9A4201D211
:10A4E000002305E00D9A0C9BD31A0193019BDB0816
:10A4F00018460EB0704700BF8844002084440020F6
:10A50000ABAAAAAA00B58BB0039004AB0822002125
:10A51000184610F043FA4A4B1B690133484A13614D
:10A52000474B5A69039B1344454A5361454A464B7E
:10A53000D31ADB081B0443F00300414B1A69404B5C
:10A540005B690093039B41490EF0BCF9FDF780F86D
:10A5500009903B4B1B69099AB2F8C0203C49A1FB0A
:10A560000212920892B2934267D33A4B1B68184684
:10A57000FFF72AFF0890384B1B68089A9A422DD1A2
:10A58000344B1A68344B1B689A4227D0324B1B68F5
:10A59000A3F58023314AA2FB03235B0B0793079AA1
:10A5A00013465B0013441B0303F586232A4A1360FA
:10A5B000294B1B68B3F5982F03D3274B4FF4802208
:10A5C0001A60204A204BD31ADB081B0443F0020315
:10A5D000214A1268224918460EF051F9184B5A695F
:10A5E000174B1B69B2FBF3F39BB2ADF81030154A61
:10A5F000154BD31ADB081B0443F00303BDF81020EE
:10A60000184918460EF03BF9124B1B6804A90822A2
:10A610001846FDF763F80690069B002B02D10D4A01
:10A62000089B1360104B1B6801330F4A1360044BE7
:10A6300000225A61024B00221A6100BF0BB000BD1C
:10A64000144D002090AD030068AD0300ECB803008A
:10A65000CDCCCCCC7C44002080440020ABAAAAAA5C
:10A660000CB9030050B90300904D002000B589B02B
:10A67000019000238DF81F30019B023306934B4B52
:10A680001A684B4B1B689A426FD100238AE0474BF4
:10A690001B6803A908221846FDF794F8BDF80C10B2
:10A6A0009DF81F305B00069A1A440B46C3F30D0356
:10A6B00099B2138861F30D0313809DF81F305B007E
:10A6C000069A13441B88C3F30D039BB2C82B0AD907
:10A6D0009DF81F305B00069A1A445378022161F3FB
:10A6E000871353701EE09DF81F305B00069A1344D9
:10A6F0001B88C3F30D039BB2502B0AD99DF81F3062
:10A700005B00069A1A445378012161F38713537052
:10A7100008E09DF81F305B00069A1A44537823F036
:10A72000C00353709DF81F3001338DF81F301F4B4D
:10A730001B681846FFF748FE05901C4B1B68059ADE
:10A740009A420FD11B4A1C4BD31ADB081B0443F05F
:10A7500001031A4918460EF085F8154B1B68134A79
:10A7600013600CE0114A059B13609DF81F30082B05
:10A7700005D80E4B1A680E4B1B689A4287D19DF87C
:10A780001F30002B07D0094B1A68094B1B689A42EF
:10A7900001D0012306E09DF81F30002B01D00023DB
:10A7A00000E00023184609B000BD00BF8844002027
:10A7B0008444002090AD030068AD030070B903002D
:10A7C000024B1B68024A136000BF70478844002098
:10A7D0008044002008B5134B1B68134A1360134BC9
:10A7E0001B68134A1360134A134BD31ADB081B046C
:10A7F00043F003000C4B1A680A4B1B680F490EF01C
:10A800004EF80C4A0C4BD31ADB081B0443F0030030
:10A81000074B1A68054B1B6809490EF040F800BF4A
:10A8200008BD00BF7C4400208444002080440020F8
:10A830008844002090AD030068AD030088B9030090
:10A84000BCB9030000B583B00190019B1B6818469A
:10A8500000F054F80346002B04D105494FF4F6707C
:10A8600000F00EFA4FF0A043184603B000BD00BF41
:10A87000F8B9030000B585B00190084611461A46A4
:10A8800003468DF803300B468DF8023013468DF8E1
:10A89000013001AB1846FFF7D5FF03909DF8032068
:10A8A0009DF802305B001A439DF801309B001A436B
:10A8B0009DF818301B0242EA03019DF81C301B046E
:10A8C000019A1943039B02F5E07243F8221000BF7E
:10A8D00005B000BD00B585B003900B468DF80B3078
:10A8E0009DF80B30002201920022009200220021EC
:10A8F0000398FFF7BFFF00BF05B000BD84B0019013
:10A90000019B5B09029300230393029B002B03D15D
:10A910004FF0FF33039300BF019B03F01F0301932C
:10A92000039A019B22FA03F303F00103DBB21846FA
:10A9300004B0704700B587B003900B46ADF80A30FD
:10A94000104B00221A7000230593BDF80A30002234
:10A950000092039A6A210C4809F09EFD0590059B20
:10A96000002B03D0059B0AE00CF03EFF054B1B7843
:10A97000DBB283F00103DBB2002BF5D1059B184657
:10A9800007B000BD944D0020F0B9030000B589B0B8
:10A99000059003921A460B46ADF812301346ADF8F7
:10A9A00010301D4B00221A700023079301230093DF
:10A9B0000123059A6A21194809F06EFD0790079B4B
:10A9C000002B03D0079B24E00CF00EFF124B1B78EA
:10A9D000DBB283F00103DBB2002BF5D10E4B00227A
:10A9E0001A70BDF81030039A6A210C4809F07BFDFB
:10A9F0000790079B002B03D0079B0AE00CF0F4FEA6
:10AA0000054B1B78DBB283F00103DBB2002BF5D1E1
:10AA1000079B184609B000BD944D0020F0B9030013
:10AA200000B583B001900091019B1B78022B18D0D8
:10AA3000022B1ADC002B02D0012B04D015E00F4BA7
:10AA400001221A7016E00D4B01221A700C4B1B6884
:10AA5000002B0ED10A4B01221A600420FEF724FDC0
:10AA600007E0064B01221A7004E0044B01221A7021
:10AA700000E000BF00BF03B000BD00BF944D002048
:10AA8000984D002008B5084809F0C8F9064809F0B3
:10AA900057F9064B0022C3F80025054B00221A6027
:10AAA000034B1B6800BF08BDF0B903000030004035
:10AAB000FC3F004010B586B003211920FFF70AFFC4
:10AAC00003211A20FFF706FF124B0122C3F80025CD
:10AAD000114B01221A60104B1B68104B6C460FCBB8
:10AAE00084E80F00694600230D4A0E4809F080F8FB
:10AAF0000590059B0493049B002B04D00A4A8E21E9
:10AB0000049809F007FE074809F060F900BF06B095
:10AB100010BD00BF00300040FC3F004070BA030091
:10AB200021AA0200F0B9030028BA030000B587B0DB
:10AB3000039001921A460B468DF80B301346ADF880
:10AB4000083000230593BDF808300DF10B00019A81
:10AB50000121FFF71BFF059B184607B000BD82B01F
:10AB600001900091019B002B06D0009B002B03D08D
:10AB7000009B1A78019B1A7000BF02B0704700B5A5
:10AB800087B0019000910023ADF8103000238DF8BC
:10AB90000C300023059304AA02231B210198FFF720
:10ABA000C5FF0590059B002B01D0059B41E004AB40
:10ABB0005A1C03AB11461846FFF7D1FF9DF80C3025
:10ABC000C3F30013D9B2009A537861F34103537071
:10ABD0009DF80C30C3F38013D9B2009A537861F317
:10ABE000C30353709DF80C30C3F34013D9B2009ADD
:10ABF000537861F3820353709DF80C30C3F3C01394
:10AC0000D9B2009A537861F3041353709DF8103051
:10AC10001AB29DF811301BB21B021BB213431BB2B8
:10AC2000C3F3080399B2009A138861F308031380F1
:10AC3000059B184607B000BD76DF704700BF184679
:10AC40007ADF704700BF18467FDF704700BF1846A5
:10AC500088DF704700BF184689DF704700BF18467D
:10AC60008EDF704700BF18468FDF704700BF184661
:10AC7000B1DF704700BF18463FDF704700BF18467E
:10AC800000B583B003460091ADF80630BDF806303C
:10AC9000009A1946024809F03DFD00BF03B000BD0F
:10ACA000EFBEADDE00B585B06B4608220021184628
:10ACB0000FF074FE1023ADF800301023ADF8023011
:10ACC0003123ADF804304FF4FA73ADF806306B461B
:10ACD0001846FFF7B5FF0390039B0293029B002BDE
:10ACE00004D0044ACD21029809F014FD00BF05B03C
:10ACF00000BD00BFB0BA030000B585B00190019B54
:10AD00001B78002B10D10A4B1B883B211846FFF7FC
:10AD100093FF0390039B0293029B002B04D0054AF0
:10AD2000F021029809F0F6FC00BF05B000BD00BF9D
:10AD30008C440020B0BA030000B583B00190044AEF
:10AD4000FB21019809F0E6FC00BF03B000BD00BF85
:10AD5000B0BA030000B58BB001AB1C22002118462D
:10AD60000FF01CFE002301934FF4A03302934FF425
:10AD7000F023039303238DF810300023ADF8123035
:10AD800000238DF814300B4B06930B4B079301AB4C
:10AD9000184603F047F90990099B0893089B002B7C
:10ADA00005D0064A4FF48971089809F0B3FC00BF3A
:10ADB0000BB000BDF9AC020039AD0200B0BA03001F
:10ADC00000B58DB00190009100238DF82F30019BCC
:10ADD0001B88562B00F0FA80562B00F30A81522B69
:10ADE00000F0CD80522B00F304813B2B00F0DB8080
:10ADF0003B2B00F3FE80212B00F09380212B00F3EE
:10AE0000F8801B2B0DD01B2B00F3F380132B00F0CD
:10AE1000A280132B00F3ED80102B25D0112B56D0E0
:10AE2000E7E07C4A7C4BD31ADB081B0443F00100AB
:10AE3000019B1B7A1A4679490DF021FD019B1B7A73
:10AE4000022B40F0D880734A734BD31ADB081B04E3
:10AE500043F00103724918460DF004FD64220121FC
:10AE6000032000F0DDFBC6E0FCF788FF019B9A8819
:10AE70006C4B1A806C4B1B78022B02D0032B0BD02F
:10AE800018E06A4B9B68674A1288114601989847F8
:10AE9000674B00221A700DE0644B1B68614A1288F0
:10AEA000114601989847624B01221A70019B0833A2
:10AEB000039300BF01215F4800F008FB002200213E
:10AEC000002000F0ADFB5C4B04221A709EE0514A5A
:10AED000514BD31ADB081B0443F00300019B1B7A80
:10AEE0001A4656490DF0CBFC019B9B88ADF81230F9
:10AEF0004C4B1B884FF6FF72934204D0494B1B8882
:10AF00001846FFF7A9FE00F007FC012000F0E2FB65
:10AF10000021002000F0DAFA424B4FF6FF721A804F
:10AF200074E000238DF8083000238DF80930019B70
:10AF30009B8802AA11461846FFF796FE0A900A9BC4
:10AF40000693069B002B58D03D4A4FF4B3710698E8
:10AF500009F0E0FB51E0334B1888002300228521E3
:10AF6000FFF772FE0A900A9B0593059B002B46D0C3
:10AF7000334A4FF4B671059809F0CCFB3FE0294BFA
:10AF80001888002300220021FFF772FE0A900A9B16
:10AF90000893089B002B34D0294A4FF4B9710898C4
:10AFA00009F0B8FB2DE0019B9B8813211846FFF7A1
:10AFB00043FE0A900A9B0793079B002B23D0204A4D
:10AFC00040F27911079809F0A5FB1CE0019B9B88D2
:10AFD00013211846FFF730FE0A900A9B0993099B3C
:10AFE000002B12D0164A4FF4C071099809F092FB59
:10AFF0000BE000BF0AE000BF08E000BF06E000BFB2
:10B0000004E000BF02E000BF00E000BF00BF0DB0E1
:10B0100000BD00BF90AD030068AD0300F4BA0300AB
:10B0200010BB03008C440020CB4D0020B84D002005
:10B03000F0440020A0BB0D00CA4D00202CBB030033
:10B04000B0BA030000B587B00EF058FC0590059B20
:10B050000493049B002B05D0234A40F293110498DB
:10B0600009F058FB0023019301AB194601200EF0B3
:10B0700057FD0590059B0393039B002B05D01A4AAF
:10B0800040F29911039809F045FB184A184BD31A5E
:10B09000DB081B0443F00303019A164918460DF020
:10B0A000EEFB01AB18460EF059FE0590059B042BF4
:10B0B0000BD10E4A0E4BD31ADB081B0443F00103DD
:10B0C000019A0D4918460DF0DAFB059B0293029B8D
:10B0D000002B05D0044A40F2A511029809F01AFB92
:10B0E00000BF07B000BD00BFB0BA030090AD0300C1
:10B0F00068AD03003CBB030060BB030000B583B038
:10B1000001900091009B5A88104B1B889A421AD1DB
:10B11000009B1B8840F67722934214D1009B9B88AA
:10B12000033B9AB20A4B1A800A4A0B4BD31ADB082C
:10B130001B0443F00300064B1B881A46044B1B8874
:10B1400006490DF0ACFB00BF03B000BD8C440020ED
:10B150008E44002090AD030068AD030094BB030053
:10B1600000B585B01A491B4804F067FD0390039BA6
:10B170000293029B002B05D0174A4FF4E07102980E
:10B1800009F0C8FAF721134804F081FD0390039BEE
:10B190000193019B002B05D00F4A40F2C511019885
:10B1A00009F0B8FAFB224FF6FF710A4804F08BFD54
:10B1B0000390039B0093009B002B05D0064A40F2AE
:10B1C000C911009809F0A6FA00BF05B000BD00BF84
:10B1D000FDB002009C4D0020B0BA030008B509F094
:10B1E0005BFF0346184608BD00B583B04FF48041AD
:10B1F00009480DF053F80190019B0093009B002B30
:10B2000005D0064A40F2D511009809F083FA0CF0F7
:10B21000DDFF00BF03B000BDDDB10200B0BA030026
:10B2200000B583B00CF0CAFA0190019B0093009B1B
:10B23000002B05D0044A40F2E111009809F06AFAA7
:10B2400000BF03B000BD00BFB0BA030008B50DF0E9
:10B25000A7FB034683F00103DBB2002B01D00CF007
:10B26000C3FA00BF08BD0000064B1B78032B03D0B8
:10B27000044B1B78042B01D1012300E00023DBB237
:10B2800018467047CA4D002000B585B00190FCF704
:10B29000DFF903902D4B1A782D4B1A702C4B1B782D
:10B2A000042B41D0042B4DDC032B2DD0032B49DC88
:10B2B000022B1ED0022B45DC002B02D0012B10D01C
:10B2C00040E00020FCF7B6FD00210120FDF784FDE1
:10B2D000FCF7C2F842F210720121012000F0A0F93F
:10B2E00030E000F0EBF964220121022000F098F92F
:10B2F00028E0FBF7F7FF0346002B22D06422012150
:10B30000032000F08DF91CE000F0D8F90120FCF7D3
:10B3100091FD00210020FDF75FFD42F21072012136
:10B32000042000F07DF90DE0FDF70CFCFCF798FD22
:10B33000FCF7F4FC42F210720121002000F070F9D9
:10B3400000E000BF00BF05B000BD00BFC94D002038
:10B35000CB4D002000B585B00190114A114BD31A96
:10B36000DB081B0443F003030F4918460DF07AFA7B
:10B370000E4B1B884FF6FF72934204D000F010FA78
:10B3800003468DF80F309DF90F3019460020FBF76A
:10B3900045FA0121064800F099F800BF05B000BD4C
:10B3A00090AD030068AD0300DCBB03008C440020BB
:10B3B000A0BB0D0000B583B00190234B1B78062B7A
:10B3C0003AD0062B3ADC052B2DD0052B36DC042B8E
:10B3D0001CD0042B32DC022B0FD0022B2EDC002BD6
:10B3E0002ED0012B00D029E064220121002000F0A2
:10B3F00017F9154B03221A7023E064220121032060
:10B4000000F00EF9104B03221A701AE0FDF79AFBB8
:10B410000E4B1B88002200211846FFF719FC0A4B2F
:10B4200005221A700DE000210120FDF7D5FC00F087
:10B430008FF9054B06221A7000BF02E000BF00E042
:10B4400000BF00BF03B000BDCA4D00208C440020E7
:10B4500000B585B001900B46ADF80230062303938A
:10B46000144B1B78002B0BD0012B13D1124B5B68B4
:10B47000124A1288BDF8021001989847039009E01B
:10B480000D4BDB680D4A1288BDF8021001989847F1
:10B49000039000BF0A4A0B4BD31ADB081B0443F08E
:10B4A0000303039A084918460DF0E9F9039B18466F
:10B4B00005B000BDF0440020B84D00208C440020B1
:10B4C00090AD030068AD030004BC0300F0B587B085
:10B4D00001900B468DF80330019B00221C46154657
:10B4E0004FF000024FF00003EB0343EA5443E20342
:10B4F00012F57A7643F100074FF4FA624FF0000339
:10B50000304639460EF036FD02460B46134605938B
:10B51000134B184609F070FD9DF80330002B1CD02A
:10B520000F4B00220599184609F00EFD0490049B6C
:10B530000393039B002B05D00A4A40F2BE210398D7
:10B5400009F0E8F8084A094BD31ADB081B0443F05A
:10B550000303074918460DF085F900BF07B0F0BD99
:10B56000B0440020B0BA030090AD030068AD030002
:10B5700018BC030000B587B009F070FC0590059B6E
:10B580000493049B002B05D01E4A40F2C621049868
:10B5900009F0C0F81C4A01211C4809F09BFC0590E9
:10B5A000059B0393039B002B05D0164A4FF4337180
:10B5B000039809F0AFF8164A0021164809F08AFCF2
:10B5C0000590059B0293029B002B05D00D4A4FF47A
:10B5D0003471029809F09EF80F4A01210F4809F0D2
:10B5E00079FC0590059B0193019B002B05D0054A32
:10B5F00040F2D621019809F08DF8FBF793FA00BFCD
:10B6000007B000BDB0BA0300B5B30200BCBD030073
:10B6100089B20200C4BD030055B30200C0BD0300DF
:10B62000F0B585B003468DF807300B468DF806302F
:10B630001346ADF80430BDF8043000221C46154610
:10B640004FF000024FF00003EB0343EA5443E203E0
:10B6500012F57A7643F100074FF4FA624FF00003D7
:10B66000304639460EF086FC02460B4613460393DD
:10B670000F4A9DF8073013709DF80630002B0AD052
:10B680000C4B184609F0B8FC0A4B002203991846E7
:10B6900009F05AFC08E0FCF7E3FB074B00221A70A4
:10B6A000044B184609F0A8FC00BF05B0F0BD00BF70
:10B6B000C94D0020D0440020C84D002008B5FDF73A
:10B6C00041FAFBF79BFEFDF707FAFBF7D5FD00BF3C
:10B6D00008BD000000B583B003468DF80730FFF7C2
:10B6E000EDFF9DF80730012B02D0022B04D007E0BC
:10B6F000084B01221A7009E0064B02221A7005E07D
:10B70000002200210020FFF78BFF00BF00BF03B025
:10B7100000BD00BFCA4D002000B583B00A4B002217
:10B7200040F26661184609F00FFC0190019B0093FE
:10B73000009B002B05D0054A40F21331009808F019
:10B74000E9FF00BF03B000BD90440020B0BA030081
:10B7500008B5034B184609F04FFC00BF08BD00BFF9
:10B760009044002008B5FFF7F3FFFCF7EBFD084A13
:10B77000084BD31ADB081B0443F0030306491846A1
:10B780000DF070F8054B06221A7000BF08BD00BF0F
:10B7900090AD030068AD030034BC0300CA4D002027
:10B7A00000B583B000238DF8033000238DF80230FC
:10B7B000164B1B880DF102020DF103011846FFF72D
:10B7C0004FFA0190019B002B1AD0019B052B0BD146
:10B7D0000F4A104BD31ADB081B0443F002030E4937
:10B7E00018460DF03FF80BE0094A0A4BD31ADB0864
:10B7F0001B0443F00103019A084918460DF03FF875
:10B800009DF90330184603B000BD00BF8C440020F2
:10B8100090AD030068AD03002CBD03005CBD0300C8
:10B8200008B5FFF7FDFCFFF73DFAFFF799FC11485B
:10B83000FDF75AFBFFF78EFA0F4A104BD31ADB08BD
:10B840001B0443F003030E4918460DF00BF80A4A97
:10B850000A4BD31ADB081B0443F0030309491846BB
:10B860000DF000F80348FBF74DFE0120FFF704FA46
:10B8700000BF08BDB84D002090AD030068AD0300C7
:10B8800080BD030090BD030008B5FFF7ADFCFFF7D6
:10B8900071FEFFF7D7FBFCF7DDFDFDF7D3FE0020BF
:10B8A000FAF708FEFCF7F2F80346002B02D001205D
:10B8B000FDF7FAFD0020FEF7F5F9034683F00103DA
:10B8C000DBB2002B02D00420FDF7EEFDFEF726F8D8
:10B8D000FFF7A6FFFFF720FF0120FFF7FBFEFBF7B6
:10B8E000D5FFFEF71BF8FFF7B1FCF8E7ADDF7047B7
:10B8F00000BF1846AEDF704700BF1846B0DF704784
:10B9000000BF18463CDF704700BF18463DDF704758
:10B9100000BF184600B58BB0019005AB1022002186
:10B9200018460FF03BF802238DF814300223ADF8CF
:10B9300008300023ADF80A3004AB03931B4B9B88FF
:10B940001A4A518902AA1846FFF7D0FF0990099BAD
:10B95000002B10D104AB184603F0ECFD0346002B7E
:10B9600009D09DF81A3043F001038DF81A300023F6
:10B97000ADF8183003E040F2FD13ADF818300B4B72
:10B980009B8805AA11461846FFF7B8FF0990099B46
:10B99000112BF4D0BDF81830002B03D1019800F022
:10B9A000DBF900E000BF0BB000BD00BFCC4D0020B4
:10B9B00000B585B00190019B9A88134B9B889A42F1
:10B9C0001ED1019B06330393039B1B78022B18D1D6
:10B9D000039B5A880C4BDB889A4212D1039B1B7A3B
:10B9E000042B0ED0039B1B7A062B0AD0039B1B7AD9
:10B9F000052B06D0039B02331846FFF78BFF00E0B0
:10BA000000BF05B000BD00BFCC4D002082B001904A
:10BA1000019B9A88024B9A8000BF02B0704700BF1A
:10BA2000CC4D002082B00190064B9A88019B9B88E8
:10BA30009A4204D1034B4FF6FF729A8000E000BF98
:10BA400002B07047CC4D002000B585B00190019B3D
:10BA500006330393039B1A880A4BDB889A420DD165
:10BA6000084B1B7E002B09D000F0E4F90290029BEA
:10BA7000002B03D0034B5B690220984700BF05B041
:10BA800000BD00BFCC4D002000B583B001900091F7
:10BA9000019B002B1FD0019B1B88532B16D0532BCF
:10BAA00018DC512B0ED0512B14DC102B02D0112B93
:10BAB00004D00FE00198FFF7A9FF0CE00198FFF711
:10BAC000B1FF08E00198FFF773FF04E00198FFF76A
:10BAD000BBFF00E000BF03B000BD000000B58BB0AD
