:020000022000DC
:106000000000012019620200016202000362020026
:10601000056202000762020009620200000000003F
:106020000000000000000000000000000B62020001
:106030000D620200000000000F6202001162020007
:10604000D9150300136202003D230300CD40030075
:106050001362020013620200392203003928030090
:106060001362020013620200136202001362020054
:106070001362020013620200136202001362020044
:10608000136202001554030013620200136202003F
:106090001362020013620200B19303001362020054
:1060A0001362020013620200136202001362020014
:1060B00013620200136202000000000000000000F2
:1060C00013620200136202001362020013620200F4
:1060D000136202001362020013620200000000005B
:1060E00000000000000000000000000000000000B0
:1060F00000000000000000000000000000000000A0
:10610000000000000000000000000000000000008F
:10611000000000000000000000000000000000007F
:10612000000000000000000000000000000000006F
:10613000000000000000000000000000000000005F
:10614000000000000000000000000000000000004F
:10615000000000000000000000000000000000003F
:10616000000000000000000000000000000000002F
:10617000000000000000000000000000000000001F
:10618000000000000000000000000000000000000F
:1061900000000000000000000000000000000000FF
:1061A00000000000000000000000000000000000EF
:1061B00000000000000000000000000000000000DF
:1061C00000000000000000000000000000000000CF
:1061D00000000000000000000000000000000000BF
:1061E00000000000000000000000000000000000AF
:1061F000000000000000000000000000000000009F
:10620000FEE7FEE7FEE7FEE7FEE7FEE7FEE7FEE766
:10621000FEE7FEE700F002B8FFF7FCBF0F484FF0C3
:106220000701884385460E4880470E48016841F4BF
:1062300070010160BFF34F8FBFF36F8F00F01AB88A
:1062400009480A490A4A884207D0521A05D00378F9
:1062500001300B700131013AF9D170470000012083
:106260009DBF020088ED00E030A50300C839002082
:10627000DC39002039493A480A1A02D007229143F2
:106280008D46384938480A1A06D00722914381F3CF
:106290000988022282F3148834483549354A00F0CF
:1062A0003EF835483549364A00F039F83548364920
:1062B000364A00F034F836483649374A00F02FF8AD
:1062C00036483749374A00F02AF837483749384ABC
:1062D00000F025F837483849384A00F020F83848A7
:1062E0003849002200F033F837483849002200F0DE
:1062F0002EF837483749091A13F02BFE364A9047D3
:1063000024482549884205D00268043003B49047E8
:1063100003BCF7E700200021304A9047FEE788429F
:1063200014D0521A12D003460B43134303242342C2
:1063300006D1036804300B600431043AF9D1704788
:10634000037801300B700131013AF9D1704788426E
:1063500002D002700130FAE770470000000001200F
:1063600000F80020000001200000012064D203009A
:10637000DC390020C0420020E0630200E06302003C
:1063800092A3030064D20300DC390020DC39002032
:1063900044A5030044A5030044A5030044A503004D
:1063A00044A5030044A5030044A5030044A503003D
:1063B00062D2030048DB0300C0420020C04200203C
:1063C000C042002094580020945800209458002087
:1063D00094580020946000204162020011B3020032
:1063E000024B0022C3F8002500BF70470070004038
:1063F00082B003468DF80730114B1B789DF80720BB
:106400009A420BD99DF807300D4A12789B1A012B3E
:1064100010DD0B4A9DF8073013700BE0084B1B781A
:106420001A469DF80730D31A012B03DD044A9DF864
:1064300007301370024B1B78184602B0704700BF3C
:10644000CC42002084B00346ADF80630BDF80630DB
:1064500041F26702934201D9642319E0BDF8063086
:1064600040F64852934201D8002311E0BDF80630AF
:10647000A3F64853642202FB03F303F5C873064AEC
:1064800082FB03121212DB17D31A0393039BDBB2B6
:10649000184604B0704700BF1F85EB51014B1B68C5
:1064A00018467047C8420020014B1B6818467047C9
:1064B000C442002010B586B0019000F023F90DF120
:1064C0000E03194600200CF0A9FC0590BDF90E2022
:1064D000304B1A80059B002B45D12E4B1B881BB2DD
:1064E0001A464FF4166302FB03F39B0A0493049BC2
:1064F0005B00294A1360284B1B689BB21846FFF7C4
:10650000A1FF03461846FFF773FF03461A46234BC5
:106510001A60234A234BD31ADB081B0443F00304FD
:106520001D4B1B689BB21846FFF78CFF03461846AD
:10653000FFF75EFF03461A46164B1B881BB21A492B
:10654000204611F0C6FE164A164BD31ADB081B0470
:1065500043F00300104B1A680E4B1B881BB2134903
:1065600011F0B7FE0BE00E4A0E4BD31ADB081B04EA
:1065700043F00103059A0E49184611F09AFE00F007
:10658000A9F800F031F8034B1B881BB29BB21846E8
:1065900006B010BDC0420020C8420020C442002006
:1065A000A8A4030080A4030044A5030064A503007D
:1065B00074A5030000B585B00190019B1B78002BEA
:1065C0000CD1019B5B68B3F90020064B1A80019B3C
:1065D0005B68012118460CF0CBFC039000BF05B0AE
:1065E00000BD00BFC042002000BF704700B583B0AF
:1065F0000190019B1B68184600F050F80346002BE1
:1066000004D105494FF4F67004F0B0F84FF0A04300
:10661000184603B000BD00BF88A5030000B585B0D3
:106620000190084611461A4603468DF803300B4682
:106630008DF8023013468DF8013001AB1846FFF794
:10664000D5FF03909DF803209DF802305B001A43AC
:106650009DF801309B001A439DF818301B0242EA56
:1066600003019DF81C301B04019A1943039B02F59A
:10667000E07243F8221000BF05B000BD00B585B040
:1066800003900023019300230093002301220021A3
:106690000398FFF7C3FF00BF05B000BD84B00190B1
:1066A000019B5B09029300230393029B002B03D100
:1066B0004FF0FF33039300BF019B03F01F030193CF
:1066C000039A019B22FA03F303F00103DBB218469D
:1066D00004B0704708B5FFF783FE0CF049FA074B8A
:1066E0000022C3F80025064B00221A60044B1B68E9
:1066F0000220FFF7C3FF00BF08BD00BF00700040CD
:10670000FC7F004000B589B01F4B1B680493002339
:106710008DF813301D4B0122C3F800251C4B0122BC
:106720001A601B4B1B6804AB1A4918460CF0B0F9F1
:106730000790079B0693069B002B04D0164A9C21CA
:1067400006980DF01BFD154A01AB07CA03C31A706A
:1067500000238DF8073002238DF8063005238DF8CD
:10676000083001AB194600200CF06AFA0790079B2D
:106770000593059B002B04D0074AA52105980DF031
:10678000FDFC00BF09B000BD00A603000070004082
:10679000FC7F0040B5650200B8A5030004A6030015
:1067A00000B585B001900B46ADF8023013468DF868
:1067B0000130019B0393BDF80230132B45D9039B95
:1067C0001B78F02B32D0F02B41DC302B31D0302B2A
:1067D0003DDC212B20D0212B39DC202B0ED0202B8F
:1067E00035DC182B2DD0182B31DC172B25D0172B8F
:1067F0002DDC122B09D0142B14D028E09DF9013088
:106800001946039800F004F922E09DF90130194679
:10681000039800F02BF81BE0039800F04FF901F00B
:1068200035FB15E0039800F077F911E000F0EAFF7E
:106830000EE0039803F05AFB0AE0039802F0D0FF41
:1068400006E0039801F0C6F802E000BF00E000BFD8
:1068500005B000BD82B00190034B1B680133024AB2
:10686000136000BF02B07047D442002000B58BB067
:1068700001900B468DF8033004AB1422002118461A
:1068800013F018FC13238DF81030FFF70DFE0346AC
:106890008DF82730234B1B68CDF811309DF8273039
:1068A0008DF81530FFF7FAFD03461F4AA2FB0323BC
:1068B0005B098DF826309DF826308DF816300123BF
:1068C0008DF8173001238DF8183001238DF8193019
:1068D0009DF803308DF81A309DF82630222B07D80A
:1068E0009DF81B30022262F301038DF81B3011E08A
:1068F0009DF82730272B07D89DF81B30012262F323
:1069000001038DF81B3005E09DF81B3023F00303D5
:106910008DF81B3004AB1421184604F0DDFA00BFDB
:106920000BB000BDD44200201F85EB5100B589B0EB
:1069300001900B468DF8033003AB1422002118465A
:1069400013F0B8FB16238DF80C3001238DF80D30B1
:1069500003AB1421184604F0BFFA00BF09B000BD14
:1069600000B58BB0019003AB14220021184613F040
:10697000A1FB11238DF80C301F4B1B88DBB28DF867
:106980000D3003AB184603F055FC03468DF8273055
:1069900003AB1421184604F09FFA0890089B002BC3
:1069A00003D0164B00221A7023E09DF82730002BED
:1069B00003D0114B1B88FF2B0ED1104B00221A70F5
:1069C0000F4A104BD31ADB081B0443F003030E4994
:1069D000184611F061FC0CE0074B1B8801339AB29A
:1069E000054B1A80094B00224FF4005118460DF058
:1069F000DFFF0BB000BD00BFCE420020D042002020
:106A0000A8A4030080A403001CA60300E039002012
:106A100000B58DB001900B468DF8033003F0B2FA4B
:106A20000A9000F0E3FD099003AB14220021184600
:106A300013F040FB03F0B2FC10238DF80C30099BDF
:106A4000B3F8C030DBB28DF80D3003F0D5FA0B90FF
:106A50000B9BB3F5106F02D94FF410630B930B9B94
:106A60009BB2ADF80E30124B1B7883F00103DBB202
:106A7000002B19D003AB1421184604F02DFA08900E
:106A8000089B002B10D1BDF80E30002B0CD0094B09
:106A900000221A80064B01221A70074B00224FF485
:106AA000005118460DF084FF00BF0DB000BD00BFBF
:106AB000D0420020CE420020E039002000B585B051
:106AC000019003F05FFA0390019B5B781A460B4B31
:106AD0001B889A420ED103F057FC094A094BD31A7E
:106AE000DB081B0443F00300019B5B781A46064950
:106AF00011F0DFFB00BF05B000BD00BFCE4200209B
:106B0000A8A4030080A4030044A6030082B001905F
:106B100000BF02B07047000000B58BB0019003AB1E
:106B200014220021184613F0C5FA15238DF80C30F5
:106B300001238DF80D30FFF7B7FC099001238DF884
:106B40000E3003AB1421184604F0C6F90890089BD8
:106B5000002B0AD19DF80E30002B06D1044B0022E9
:106B600040F6CD4118460DF023FF00BF0BB000BD2D
:106B7000003A002000B583B0124A002112480DF0FF
:106B8000DDFE0190114A002111480DF0D7FE019061
:106B9000104A012110480DF0D1FE01900F4B002248
:106BA0004FF4804118460DF003FF019B0093009BBA
:106BB000002B04D00A4ACD2100980DF0DFFA00BF67
:106BC00003B000BD6169020010A603000D6B020056
:106BD00014A603005568020018A60300203A0020FE
:106BE00058A6030076DF704700BF18468BDF70475A
:106BF00000BF18468CDF704700BF184600B583B051
:106C000001900199024809F0EBFF00BF03B000BDFD
:106C1000D842002000B585B06B46082200211846F6
:106C200013F048FA0A4B00930A4B01936B4618463F
:106C300007F0FAFF0390039B0293029B002B04D002
:106C4000054A452102980DF099FA00BF05B000BD34
:106C5000FD6B020014400020B8A6030000B583B00D
:106C60000190044A4B2101980DF088FA00BF03B04F
:106C700000BD00BFB8A6030000B589B00190009127
:106C800000238DF81F30524A524BD31ADB081B04E5
:106C900043F00300009B1B781A464F4911F009FB93
:106CA000009B1B78022B00F08380022B00F38C806A
:106CB000002B02D0012B38D086E0454A454BD31A31
:106CC000DB081B0443F003034449184611F0E4FABF
:106CD000009B5988009B0E331A4601980AF06AF906
:106CE0000590059B0493049B002B04D03C4A69212A
:106CF00004980DF043FA01980AF0DAF80590059B24
:106D00000393039B002B04D0354A6B2103980DF0AD
:106D100035FA2F4A2F4BD31ADB081B0443F0030329
:106D20003049184611F0B8FA4EE004F07DFA0346F7
:106D30008DF81F30264A274BD31ADB081B0443F07B
:106D40000300009B9B891A46274911F0B2FA0023E1
:106D5000069312E01E4A1F4BD31ADB081B0443F0B4
:106D60000300009B9A68069B13441B781A461F4930
:106D700011F09FFA069B01330693009B9B891A46EC
:106D8000069B9342E6D3124A124BD31ADB081B042C
:106D900043F003031649184611F07EFA009B9868E9
:106DA000009B9B899DF91F201946FFF7F9FC0BE01A
:106DB000074A084BD31ADB081B0443F003030D49B1
:106DC000184611F069FA00BF00BF09B000BD00BF4E
:106DD000A8A4030080A403001CA7030038A7030095
:106DE000B8A603004CA703007CA703008CA70300F0
:106DF00094A7030098A7030000B587B00C4B01933C
:106E00000C4B02930C4B039301AB19460B4809F052
:106E100079FF0590059B0493049B002B04D0084A3E
:106E2000932104980DF0AAF900BF07B000BD00BF80
:106E3000796C02005D6C020014400020D8420020F2
:106E4000B8A6030070B5A2B00590059B5B681C93C3
:106E500000F0CCFB1B90059B1B78062B1CD0062B4F
:106E600000F36281052B08D0052B00F35D81032B15
:106E700042D0042B00F04C8156E1059B5B681993CE
:106E8000199B1893189B002B00F05081AB4AA52149
:106E900018980DF073F949E1A94AAA4BD31ADB08F7
:106EA0001B0443F00303A849184611F0F5F9059BAC
:106EB0005B681A93A24AA34BD31ADB081B0443F066
:106EC00003001A9B5B781D461A9B9B781E461A9BF3
:106ED000DB781A461A9B1B7919461A9B5B791C466C
:106EE0001A9B9B79039302940191009233462A46A0
:106EF000964911F02FFA1EE1059B5B681793179BCB
:106F0000002B00F015810023ADF84A30179B9869DB
:106F1000179B998B0DF14A02092305F000FF0346E8
:106F2000ADF88630BDF88630002B0ED10023ADF8C9
:106F30004A30179B9869179B998B0DF14A020823D9
:106F400005F0EDFE0346ADF88630BDF88630002B27
:106F500000F0DC80179B9B69BDF84A201344169310
:106F60001B9B20330E931B9B40330F931B9B603363
:106F700010931B9B803311930423159300238DF8EA
:106F800085300023209331E0209B9B0088336B44A5
:106F900053F8503C002B23D0209B9B0088336B443C
:106FA00053F8503C184613F004F81490149B002B2F
:106FB00018D0BDF88630149A9A4214D8209B9B00B2
:106FC00088336B4453F8503C149A1946169812F0C3
:106FD000CBFF0346002B06D101238DF8853009E055
:106FE00000BF00E000BF209B01332093209A159B37
:106FF0009A42C9D39DF88530002B00F09B80179BE7
:107000000233139300238DF87F3000231E932BE06F
:107010004F491E9A1346DB0013440B441B78002B88
:107020001FD01E9A1346DB001344494A1344D81C50
:10703000139B01330622194612F096FF0346002BDC
:107040000FD1179B93F9130041491E9A1346DB0099
:1070500013440B44013302461A7001238DF87F302C
:1070600005E01E9B01331E931E9B032BD0DD9DF874
:107070007F3083F00103DBB2002B5BD000231D9334
:1070800040E033491D9A1346DB0013440B441B7840
:10709000002B34D12E491D9A1346DB0013440B44B8
:1070A00001221A701D9A1346DB001344284A134428
:1070B000023307221399184612F0CAFFBDF8862042
:1070C00006AB1699184612F0C3FF1D4A1D4BD31A82
:1070D000DB081B0443F0030306AA1E49184611F0FF
:1070E000E8F8179B93F9130019491D9A1346DB0022
:1070F00013440B44013302461A7000BF1AE01D9B73
:1071000001331D931D9B032BBBDD13E000BF12E079
:107110000B4A0C4BD31ADB081B0443F003030E4944
:10712000184611F0B9F806E000BF04E000BF02E025
:1071300000BF00E000BF00BF22B070BDB8A60300D2
:10714000A8A4030080A40300A8A70300C4A7030009
:10715000C4440020F4A7030000A8030000B587B0D2
:1071600001900B46ADF80230019B0593154ABDF81E
:1071700002301380BDF8023000221946124809F08F
:1071800019FF0490049B0393039B002B05D00F4A27
:1071900040F2211103980CF0F1FF059B9B881946E2
:1071A0000B4807F005FE0490049B0293029B002B02
:1071B00005D0064A4FF4927102980CF0DFFF00BF31
:1071C00007B000BD28400020D8420020B8A6030028
:1071D000403A002000B585B001900B46ADF8023072
:1071E0001346ADF80030BDF802301A460199044844
:1071F00009F07AFE0390039B184605B000BD00BF5E
:10720000D842002000B583B0144B1B884FF6FF72A4
:1072100093420BD1124A134BD31ADB081B0443F0E1
:1072200003031149184611F037F815E00B4B1B8882
:1072300013211846FFF7D6FC0190019B002B0BD0C1
:10724000074A084BD31ADB081B0443F00103019AD9
:107250000649184611F02DF803B000BD2840002063
:10726000A8A4030080A4030014A8030024A803001A
:1072700000B587B04FF0FF33059381238DF81330AD
:107280000023039324E03449039A1346DB0013449C
:107290000B441B78002B18D02F49039A1346DB00B0
:1072A00013440B44013393F900309DF913209A42A3
:1072B0000BDA2949039A1346DB0013440B440133CC
:1072C0001B788DF81330039B0593039B01330393C5
:1072D000039B032BD7DD059B002B01DA052337E049
:1072E0001E4A1F4BD31ADB081B0443F00300059A08
:1072F0009DF913301B4910F0ECFF6B46072200216B
:10730000184612F0D7FE059A1346DB001344124AC2
:1073100013449A1C6B461068186091889279998082
:107320009A7168460123104A1049FFF763FC0290E6
:10733000029B002B0BD0094A094BD31ADB081B0414
:1073400043F00303029A0A49184610F0B2FF029B69
:10735000184607B000BD00BFC4440020A8A4030025
:1073600080A403003CA803007E4400208844002041
:107370005CA8030000B583B0114A124BD31ADB0896
:107380001B0443F003031049184610F085FFFFF774
:107390002DFC0190019B002B0ED0019B082B0BD0E4
:1073A000074A084BD31ADB081B0443F00103019A78
:1073B0000649184610F07DFF00BF03B000BD00BFB6
:1073C000A8A4030080A4030070A8030080A8030001
:1073D00000B583B0104A114BD31ADB081B0443F0ED
:1073E00003030F49184610F057FF242200210D48CF
:1073F00012F060FE0C4809F023F90190019B009304
:10740000009B002B05D0094A40F2AB1100980CF00C
:10741000B5FE00BF03B000BDA8A4030080A4030014
:107420009CA80300C44400207C440020B8A60300AC
:1074300000B587B06B4600221A605A609A60DA6025
:1074400000238DF80C306B46094A1946094809F0AB
:107450009EF80590059B0493049B002B05D0064ADB
:1074600040F2B91104980CF089FE00BF07B000BDCE
:10747000456E02007C440020B8A6030000B585B02C
:107480000190019B084A9A60019B084ADA60FFF765
:10749000C1FBFFF7B1FCFFF7CBFF00F0A7F80390AB
:1074A00000BF05B000BD00BF5D710200D5710200D4
:1074B000BFF34F8F00BF064BDB6803F4E062044963
:1074C000044B1343CB60BFF34F8F00BF00BFFDE7FA
:1074D00000ED00E00400FA0541DF704700BF1846E8
:1074E00000B583B00190019B5B68002B11D0194A55
:1074F000194BD31ADB081B0443F00100019B1B78D6
:107500001A46019B5B68154910F0E3FE02F0B4F8DF
:107510001EE0019B1B78012B02D0022B0CD017E040
:107520000C4A0D4BD31ADB081B0443F003030C4930
:10753000184610F0B1FE0BE0064A074BD31ADB08E1
:107540001B0443F003030749184610F0A5FE00BFD3
:1075500003B000BDA8A4030080A40300ACA80300EE
:10756000DCA80300F4A8030086B0019000914FF658
:10757000FF73ADF81630002304932DE0019A049BAD
:1075800013441B781BB21B021AB2BDF916305340CC
:107590001BB2ADF816300023039317E0BDF9163087
:1075A000002B0BDABDF916305B001BB283F481535C
:1075B00083F001031BB2ADF8163004E0BDF81630BD
:1075C0005B00ADF81630039B01330393039B072B3D
:1075D000E4D9049B01330493049A009B9A42CDD3CF
:1075E000BDF81630184606B070470000014B18462B
:1075F000704700BF2C40002008B501E0FFF76CFF8A
:1076000004480FF05BF80346002BF7D100BF00BF22
:1076100008BD00BFC839002000B585B00190002327
:107620000393019B23F47F6323F00F030293002352
:10763000012202990C480EF0A9FF0390039B002B36
:107640000BD00A4A0A4BD31ADB081B0443F0010390
:10765000039A0849184610F02CFEFFF7CDFF039B54
:10766000184605B000BD00BFC8390020A8A403001B
:1076700080A403000CA9030000B589B00590049113
:107680001346ADF80E3000230793059BC3F30B039D
:10769000002B25D12A4A2B4BD31ADB081B0443F0BD
:1076A0000303059A2849184610F003FE002301221F
:1076B000059926480EF06AFF0790079B002B0FD014
:1076C00001F0DAFF1E4A1F4BD31ADB081B0443F0FC
:1076D0000103079A1E49184610F0EBFD079B2CE0AA
:1076E000FFF78AFFBDF80E3000220092049A059938
:1076F00016480EF069FE0790079B002B0CD1104A2C
:10770000104BD31ADB081B0443F00303059A1149FD
:10771000184610F0CEFD0DE001F0AEFF084A094B0F
:10772000D31ADB081B0443F00103079A0A491846E1
:1077300010F0BFFDFFF760FF079B184609B000BDC2
:10774000A8A4030080A4030024A90300C8390020D2
:107750000CA9030054A9030068A9030000B587B071
:10776000039002911346ADF80630039BB3F5802FCA
:1077700006D3BDF80620039B1344B3F5EE2F0ED9B4
:107780001A4A1B4BD31ADB081B0443F00100BDF857
:107790000630039A174910F09CFD102323E0BDF832
:1077A0000630029A039914480EF066FD0590059B79
:1077B000002B0BD00D4A0E4BD31ADB081B0443F0F1
:1077C0000103059A0D49184610F073FD074A084B4E
:1077D000D31ADB081B0443F00303039A0849184635
:1077E00010F067FD059B184607B000BDA8A4030074
:1077F00080A4030080A90300C8390020B0A90300B9
:10780000CCA90300024B01221A7000BF704700BFD1
:10781000E8440020024B01221A7000BF704700BFED
:10782000E944002008B50A4B1B78002B04D0084B14
:1078300000221A7000F070F9064B1B78002B05D05F
:107840004FF4EC20FFF7E8FEFFF732FE00BF08BD63
:10785000E9440020E844002000B583B001904F4A7D
:107860004F4BD31ADB081B0443F003034D49184662
:1078700010F012FD494A4A4BD31ADB081B0443F0AF
:107880000303019A4849184610F013FD434A444B3C
:10789000D31ADB081B0443F00300019B20331A4674
:1078A000424910F006FD3D4A3D4BD31ADB081B044C
:1078B00043F00300019B40331A463D4910F0F9FCA8
:1078C000364A374BD31ADB081B0443F00300019BF5
:1078D00060331A46374910F0ECFC304A304BD31A6B
:1078E000DB081B0443F00300019B80331A46324936
:1078F00010F0DFFC294A2A4BD31ADB081B0443F0A3
:107900000300019BA0331A462C4910F0D2FC234AF5
:10791000234BD31ADB081B0443F00300019BB3F88D
:10792000C0301A46264910F0C4FC1C4A1C4BD31A1E
:10793000DB081B0443F00300019BB3F9C2301A4675
:10794000204910F0B6FC154A154BD31ADB081B046E
:1079500043F00300019BB3F8C4301A461A4910F0F3
:10796000A8FC0E4A0E4BD31ADB081B0443F003009D
:10797000019BB3F8EE301A46144910F09AFC074AFE
:10798000074BD31ADB081B0443F0030310491846C6
:1079900010F082FC00BF03B000BD00BFA8A403002C
:1079A00080A40300DCA9030004AA030024AA0300A6
:1079B00044AA030064AA030084AA0300A4AA030043
:1079C000C4AA0300E4AA030004AB030024AB030031
:1079D00048AB030000B585B0019000238DF80F304F
:1079E000019B5B78082B70D0082B7ADC072B61D0C9
:1079F000072B76DC062B49D0062B72DC042B3AD001
:107A0000042B6EDC032B2BD0032B6ADC022B1CD047
:107A1000022B66DC002B02D0012B0BD061E001238E
:107A20008DF80F30019B033320221946354812F0A0
:107A3000D6FA56E001238DF80F30019B0333202244
:107A40001946314812F0CBFA4BE001238DF80F3084
:107A5000019B0333202219462C4812F0C0FA40E063
:107A600001238DF80F30019B03332022194628484B
:107A700012F0B5FA35E001238DF80F30019B033386
:107A800020221946234812F0AAFA2AE001238DF891
:107A90000F30019BB3F803309AB21A4BA3F8C02001
:107AA000184BB3F8C030042B1AD8164B0522A3F894
:107AB000C02015E001238DF80F30019BB3F903308E
:107AC0001AB2104BA3F8C2200BE001238DF80F303F
:107AD000019BB3F803309AB20A4BA3F8C42000E02C
:107AE00000BF9DF80F30002B08D0FFF793FE019BDD
:107AF00019221A701421019803F0EEF900BF05B0A5
:107B000000BD00BF2C4000204C4000206C400020F5
:107B10008C400020AC40002000B5BDB0EE211C48D8
:107B2000FFF722FD03461A46194BA3F8EE20F02278
:107B300017494FF4EC20FFF79FFD6B46F0221946E2
:107B40004FF4EC20FFF70AFE6B46F022194610486E
:107B500012F00AFA0346002B0BD10E4A0E4BD31A31
:107B6000DB081B0443F003030C49184610F094FB98
:107B70000AE0084A084BD31ADB081B0443F003034E
:107B80000749184610F088FB00BF3DB000BD00BF9C
:107B90002C400020A8A4030080A4030070AB0300C5
:107BA00080AB030000B5BDB06B46F02219464FF420
:107BB000EC20FFF7D3FD6B46EE211846FFF7D4FC0F
:107BC00003461A46BDF8EE309A4202D0FFF7A4FFF2
:107BD00006E0064B18466B46F022194612F038FABA
:107BE0000248FFF739FE00BF3DB000BD2C40002029
:107BF00000B583B000220A490A480EF0F7FA019056
:107C0000019B0093009B002B05D0074A40F23F11D7
:107C100000980CF0B3FAFFF7C5FF00BF03B000BD3A
:107C200048C20300C839002094AB0300BFF34F8F54
:107C300000BF064BDB6803F4E0620449044B1343C6
:107C4000CB60BFF34F8F00BF00BFFDE700ED00E04A
:107C50000400FA0500B583B00190019B1B6818462B
:107C600000F0F7F80346002B04D105494FF4F670F5
:107C700002F07CFD4FF0A043184603B000BD00BFEA
:107C8000E0AB030000B585B00190084611461A46E6
:107C900003468DF803300B468DF8023013468DF8FD
:107CA000013001AB1846FFF7D5FF03909DF8032084
:107CB0009DF802305B001A439DF801309B001A4387
:107CC0009DF818301B0242EA03019DF81C301B048A
:107CD000019A1943039B02F5E07243F8221000BF9A
:107CE00005B000BD00B585B00390002301930023CB
:107CF00000930023012201210398FFF7C3FF00BF77
:107D000005B000BD00B585B003900B468DF80B3073
:107D10009DF80B30002201920022009200220021E7
:107D20000398FFF7AFFF00BF05B000BD00B585B0F9
:107D3000019001AB1846FFF78DFF0390019B0122D4
:107D400002FA03F31946039800F06FF800BF05B07C
:107D500000BD00B585B0019001AB1846FFF77AFF72
:107D60000390019B012202FA03F31946039800F0E5
:107D700066F800BF05B000BD00B585B0019001AB4D
:107D80001846FFF767FF0390039BD3F8043502936F
:107D9000029BDA43019B012101FA03F31A40039B82
:107DA000C3F80825019B01229A40029B1A40039BBD
:107DB000C3F80C2500BF05B000BD00B585B001902B
:107DC00001AB1846FFF746FF0390039800F01DF83B
:107DD0000246019B22FA03F303F00103184605B0A3
:107DE00000BD00B585B0019001AB1846FFF732FF2A
:107DF0000390039800F011F80246019B22FA03F366
:107E000003F00103184605B000BD82B00190019B4C
:107E1000D3F81035184602B0704782B00190019B2C
:107E2000D3F80435184602B0704782B00190009133
:107E3000019B009AC3F8082500BF02B0704782B0CA
:107E400001900091019B009AC3F80C2500BF02B07D
:107E5000704784B00190019B5B0902930023039358
:107E6000029B002B03D14FF0FF33039300BF019B14
:107E700003F01F030193039A019B22FA03F303F01B
:107E80000103DBB2184604B070470000024B052224
:107E90009A7100BF704700BFF0440020024B0A22D5
:107EA000DA7200BF704700BFF0440020024B01228D
:107EB000DA7000BF704700BFF0440020034B01227E
:107EC0009A70024B0022DA7000BF7047F044002025
:107ED00008B5094B01225A711820FFF782FF0346AB
:107EE000002B03D0044B14225A7402E0024B0A22E6
:107EF0001A7400BF08BD00BFF0440020024B2822C6
:107F00009A7200BF704700BFF044002082B0019019
:107F1000019B452B03D9054B0A221A7302E0034B40
:107F20000A225A7300BF02B0704700BFF04400201D
:107F300008B500220021012000F0C0FA054B012203
:107F40001A71044B03229A73024B0A22DA7300BFA0
:107F500008BD00BFF044002008B500220021002029
:107F600000F0ACFA024B00221A7100BF08BD00BF3E
:107F7000F044002008B501220021002000F09EFA04
:107F8000064B01225A70054B0F22DA71034B0F2268
:107F90001A72024B0F225A7200BF08BDF044002033
:107FA000024B00225A7000BF704700BFF04400200F
:107FB00000B583B003468DF80730094A9DF80730B5
:107FC000137000220021012000F078FA054B0122F5
:107FD0001A70044B05229A7400BF03B000BD00BFA5
:107FE000EA440020F0440020024B00221A7000BF37
:107FF000704700BFF044002000B583B001909F4B54
:108000005B79DBB2002B30D09C4B1B7CDBB2002BAE
:1080100015D09A4B1B7CDBB2013BDAB2974B1A743A
:1080200000220121002000F049FA944B1B7CDBB2B6
:10803000002B40F01B81012003F090F816E18F4BDC
:108040005B7CDBB2002B0CD08C4B5B7CDBB2013B4E
:10805000DAB28A4B5A7400220021012000F02EFA75
:1080600004E1864B00225A7100E1844B5B78DBB25D
:10807000002B38D0814BDB79DBB2002B0CD07F4B4F
:10808000DB79DBB2013BDAB27C4BDA7101220021F1
:10809000002000F013FAEEE0784B1B7ADBB2002BE5
:1080A0000CD0764B1B7ADBB2013BDAB2734B1A72FF
:1080B00000220021012000F001FADCE06F4B5B7A26
:1080C000DBB2002B0CD06D4B5B7ADBB2013BDAB23A
:1080D0006A4B5A7200220121002000F0EFF9CAE039
:1080E000FFF75EFFC7E0654B9B78DBB2002B18D033
:1080F0001620FFF762FE0346002B01D0FFF7D6FEE5
:108100005E4BDB78DBB2002B05D000220121002082
:1081100000F0D4F9AFE000220021012000F0CEF9F8
:10812000A9E0564B1B79DBB2002B22D0534BDB7BF3
:10813000DBB2013BDAB2514BDA73504BDB7BDBB283
:10814000002B40F095804D4B0A22DA730D20FFF78B
:1081500013FE4A4B9B7BDBB2013BDAB2474B9A736F
:10816000464B9B7BDBB2002B40F08280FFF7F4FE96
:108170007EE0424B1B78DBB2002B11D03F4B9B7C47
:10818000DBB2013BDAB23D4B9A743C4B9B7CDBB2D9
:10819000002B6FD1394B05229A7400F0BFF969E0CA
:1081A000364BDB7ADBB2002B0CD0344BDB7ADBB204
:1081B000013BDAB2314BDA7200220021012000F0DB
:1081C0007DF958E02D4B9B7ADBB2002B15D02B4B61
:1081D0009B7ADBB2013BDAB2284B9A72274B9B7A2F
:1081E000DBB2002B03D100210020FEF79FFB002211
:1081F0000121002000F062F93DE0204B1B7BDBB247
:10820000002B0CD01D4B1B7BDBB2013BDAB21B4BAE
:108210001A7300220121002000F050F92BE0174BC7
:108220005B7BDBB2002B0CD0144B5B7BDBB2013BE6
:10823000DAB2124B5A7300220121012000F03EF9FC
:1082400019E00E4B9B79DBB2002B0CD00B4B9B79CA
:10825000DBB2013BDAB2094B9A7101220121012004
:1082600000F02CF907E000F01DF904E000BF02E087
:1082700000BF00E000BF03B000BD00BFF04400201D
:1082800000B585B001901320FFF797FD0346DAB2E1
:108290002C4B1A702C4A2D4BD31ADB081B0443F0CD
:1082A0000303284A12782A49184610F002F8254B91
:1082B0001B78002B43D1274B1B680133254A1360E1
:1082C000244B1B680A2B08D11820FFF78AFD0346B0
:1082D000002B23D0FFF74EFE20E01E4B1B68032B24
:1082E0000FD11820FFF77DFD0346002B04D1FFF7C7
:1082F000EFFD00F0D1F811E0FFF7EAFD00F0C6F85D
:108300000CE0144B1B68062B08D11820FFF769FD01
:108310000346002B02D0022002F020FF0E4B002269
:108320004FF4804118460CF043FB0390039B002B55
:1083300005D00A4A40F2391103980BF01FFF00BF25
:1083400005B000BD03450020A8A4030080A40300DD
:1083500010AC0300EC4400202041002028AC0300B6
:1083600000B587B001900B468DF80330019B132BAD
:1083700009D0019B132B76D8019B072B65D0019B5D
:10838000112B5AD06FE01320FFF717FD0346DAB226
:10839000364B1A70354B1B78002B39D0344B1846AE
:1083A0000CF05EFB0490334A334BD31ADB081B04FA
:1083B00043F00303049A314918460FF07AFF304B1B
:1083C0001B68002B18D11820FFF70BFD0346002B6C
:1083D00012D0FEF769F80390039B452B03D903984D
:1083E000FFF794FD08E0039B1D2B03D90398FFF7CB
:1083F0008DFD01E0FFF79CFD1E4A1F4BD31ADB08E1
:108400001B0443F003031F4918460FF045FF25E006
:108410001B4B00221A60164B00224FF48041184675
:108420000CF0C6FA0590059B002B17D0164A40F2B7
:108430006F1105980BF0A2FE10E01120FFF7BDFCB4
:108440000346002B0CD0FFF7F1FB0720FFF7B5FC2C
:108450000346002B06D001F0FDFA03E000BF02E066
:1084600000BF00E000BF00BF07B000BD0345002013
:1084700020410020A8A4030080A4030070AC0300E6
:10848000EC44002084AC030028AC030008B518209D
:10849000FFF75FFC00BF08BD08B51820FFF746FCDA
:1084A00000BF08BD08B50B20FFF753FC0C20FFF7F9
:1084B00050FC0D20FFF74DFC00BF08BD00B583B098
:1084C00003468DF807300B468DF8063013468DF8BD
:1084D00005309DF80730002B03D00D20FFF726FC58
:1084E00002E00D20FFF735FC9DF80630002B03D08D
:1084F0000B20FFF71BFC02E00B20FFF72AFC9DF886
:108500000530002B03D00C20FFF710FC02E00C20FC
:10851000FFF71FFC00BF03B000BD000008B51D4BF6
:108520001B78002B1AD11C4B1B78002B09D01A4B3F
:1085300000221A700D20FFF70CFC0C20FFF7F6FB51
:1085400008E0154B01221A700D20FFF7EFFB0C20FD
:10855000FFF7FFFB0B20FFF7FCFB19E00E4B1B782E
:10856000002B09D00C4B00221A700D20FFF7F1FBF5
:108570000B20FFF7DBFB08E0074B01221A700D20F0
:10858000FFF7D4FB0B20FFF7E4FB0C20FFF7E1FB28
:1085900000BF08BDEA4400200445002000B595B0A6
:1085A00009F0A8FC034683F00103DBB2002B0BD0DB
:1085B00009F03CFC1390139B002B05D0784A40F245
:1085C000FB1113980BF0DAFD764A002176480CF087
:1085D000B5F91290129B002B05D0714A40F2FD11A3
:1085E00012980BF0CBFD714A012171480CF0A6F9ED
:1085F0001190119B002B05D0694A4FF4007111981E
:108600000BF0BCFD0B20FFF76DFB0C20FFF76AFBA6
:108610000D20FFF767FB1820FFF764FBFFF742FF11
:10862000FFF734FF634B002240F2666118460CF0FE
:10863000BFF91090109B002B05D0594A40F20D2134
:1086400010980BF09BFD4FF420330F934FF48043B1
:108650000E9300238DF81730002304930023039317
:1086600000230D9300238DF83330534A534BD31A14
:10867000DB081B0443F00303514918460FF00CFEBE
:1086800000211620FFF73EFB00211320FFF73AFBE5
:1086900000211120FFF736FB1120FFF78EFB034668
:1086A000002B00F0978002F0A1FDFFF707FC0CF013
:1086B00027FA0D901320FFF780FB0346002B0CBF19
:1086C000012300238DF833301320FFF776FB034698
:1086D000002B50D19DF81730DBB283F00103DBB2E1
:1086E000002B12D001238DF817300D9B04930D9BA6
:1086F0000393314A314BD31ADB081B0443F00303C5
:10870000304918460FF0C8FDD1E7049B19460D9873
:108710000CF0EAF90790039B19460D980CF0E4F968
:1087200002460E9B934210D80D9B0393079B9B0B15
:108730000693214A214BD31ADB081B0443F00303A1
:10874000069A214918460FF0B4FD079A0F9B9A42EA
:10875000ADD3184B18460CF083F9174A174BD31AB0
:10876000DB081B0443F00303184918460FF094FD7F
:1087700000F0CCFF9BE79DF81730DBB2002B96D0C2
:108780000D4A0E4BD31ADB081B0443F003031049B8
:1087900018460FF081FD00238DF8173087E700BFE2
:1087A00028AC03008182020040AD0300F97F020083
:1087B00044AD030040410020A8A4030080A40300AE
:1087C0009CAC0300BCAC0300D8AC0300F0AC0300CD
:1087D00018AD030003238DF8083000238DF809300D
:1087E0009DF80A3023F001038DF80A309DF80A3015
:1087F00023F002038DF80A309DF80A3023F00403B9
:108800008DF80A3000238DF8093002AB454A19462D
:10881000132009F07BFB0B900B9B002B05D0424AE9
:1088200040F257210B980BF0A9FC0121132009F00D
:10883000E9FB03238DF8043000238DF805309DF803
:10884000063023F001038DF806309DF8063023F042
:1088500002038DF806309DF8063023F004038DF8EE
:10886000063000238DF8053001AB2E4A194607204B
:1088700009F04CFB0A900A9B002B05D02A4A4FF4C2
:1088800017710A980BF07AFC0121072009F0BAFB56
:1088900003238DF8003000238DF801309DF802305D
:1088A00023F001038DF802309DF8023023F002031B
:1088B0008DF802309DF8023023F004038DF8023069
:1088C00000238DF801306B46164A1946112009F035
:1088D0001DFB0990099B002B05D0134A40F2612132
:1088E00009980BF04BFC0121112009F08BFB1320A0
:1088F000FFF763FA0346002B10D10C4B00224FF414
:10890000804118460CF054F80890089B002B05D0C5
:10891000054A40F2662108980BF030FC00BF15B004
:1089200000BD00BF6183020028AC0300204100208D
:1089300072DF704700BF184673DF704700BF1846EC
:1089400074DF704700BF184676DF704700BF1846D7
:1089500077DF704700BF18467CDF704700BF1846BE
:1089600033DF704700BF184600B587B00190002381
:108970008DF8173000238DF80F30019B1B78002BEA
:1089800002D0032B43D04EE002F04EFC03468DF89C
:108990001730264A264BD31ADB081B0443F003008A
:1089A000019B9B8A1A4623490FF083FC0023049302
:1089B00012E01E4A1E4BD31ADB081B0443F00300CF
:1089C000019B1A69049B13441B781A461A490FF03D
:1089D00070FC049B01330493019B9B8A1A46049B01
:1089E0009342E6D3114A124BD31ADB081B0443F01F
:1089F0000303124918460FF04FFC019B1869019BB5
:108A00009B8A9DF917201946FDF7CAFE0BE0074A1D
:108A1000074BD31ADB081B0443F00303084918462D
:108A20000FF03AFC00BF00BF07B000BDA8A40300D0
:108A300080A4030048AD030054AD03005CAD030007
:108A400060AD030000B583B0FFF78AFF0190019B82
:108A50000093009B002B04D0034A562100980BF092
:108A60008DFB00BF03B000BD7CAD030000B583B03B
:108A700003468DF807309DF80730002B01D0032BFB
:108A800002E0FFF7DFFF00BF00BF03B000BD000042
:108A900000B583B00190044A712101980BF06EFB80
:108AA00000BF03B000BD00BF7CAD030000B587B0C0
:108AB00000230193164B019301AB1946154807F0AB
:108AC0002CFB0590059B0493049B002B04D0124AB9
:108AD000802104980BF052FB02AB042200211846BF
:108AE00011F0E8FA0D4B029302AB19460C4807F05F
:108AF00067FF0590059B0393039B002B04D0064A58
:108B0000882103980BF03AFB00BF07B000BD00BFFF
:108B1000918A0200104500207CAD030069890200A3
:108B20006C41002000B5AFB001ABAC22002118466B
:108B300011F0C0FA02238DF8043000238DF80630BE
:108B400005238DF807300123ADF85030124B1593F3
:108B500001238DF87C3001238DF88030A0232393EE
:108B6000002324930D4B2A9301AB19460C4804F0C3
:108B7000A5FB2D902D9B2C932C9B002B04D0094AF8
:108B8000A1212C980BF0FAFA0121054804F089FB89
:108B900000BF2FB000BD00BF884100206D8A0200D9
:108BA0001C4500207CAD030000B585B001900B464C
:108BB000ADF802300B4ABDF802301380BDF8023028
:108BC0001946094807F0CBFA0390039B0293029BD6
:108BD000002B04D0054AAB2102980BF0CFFA00BF5E
:108BE00005B000BD60410020104500207CAD0300B1
:108BF00000B585B001900B46ADF802301346ADF8D4
:108C00000030BDF800300DF102020199034807F071
:108C10007DFF0390039B184605B000BD6C4100200A
:108C200000B583B0144B1B884FF6FF7293420BD1F3
:108C3000124A134BD31ADB081B0443F003031149F8
:108C400018460FF029FB15E00B4B1B881321184623
:108C5000FFF77AFE0190019B002B0BD0074A084BCF
:108C6000D31ADB081B0443F00103019A0649184696
:108C70000FF01FFB03B000BD60410020A8A403005B
:108C800080A40300D0AD0300E0AD030000B583B0C5
:108C9000194A1A4BD31ADB081B0443F00303184983
:108CA00018460FF0F9FA174B93F854301846FFF7AF
:108CB00047FE0190104A114BD31ADB081B0443F006
:108CC0000300104B93F854301A46019B0E490FF0E5
:108CD00000FB019B002B0CD0019B082B09D0019BB2
:108CE0000093009B002B04D0084AD22100980BF07F
:108CF00045FA00BF03B000BDA8A4030080A4030090
:108D0000F8AD03001C45002008AE03007CAD030055
:108D100000B585B001909DF80830012262F303038D
:108D20008DF808309DF80830012262F307138DF8A2
:108D30000830019811F03DF903469AB202AB01994F
:108D40001846FFF709FE039000BF05B000BD000004
:108D500000B59BB0FEF74AFC189000238DF86730F1
:108D600008AB3C220021184611F0A4F902238DF82B
:108D7000203004238DF8233000238DF8223001F0B9
:108D8000B1FF0346002B07D0334B44F221321A8047
:108D900004238DF8673008E02F4B41F234221A800B
:108DA000189BB3F9C2308DF86730189B03F1A0020D
:108DB0006B462A49184610F037FE274A6B469360E7
:108DC0006B46184611F0F5F803469AB2224B9A808A
:108DD000214B129301238DF84C30214B93F85430E2
:108DE00019469DF967301A460120FFF7B1FD17902B
:108DF000179B002B0CD11B4A1B4BD31ADB081B04FF
:108E000043F00303179A194918460FF052FA0AE083
:108E1000144A154BD31ADB081B0443F0030314490F
:108E200018460FF039FA08AB002219460C4804F036
:108E30005EFC1790179B002B0BD00A4A0A4BD31AE3
:108E4000DB081B0443F00303179A0A4918460FF086
:108E500030FA00BF1BB000BD504900202CAE03000B
:108E60001C450020A8A4030080A4030030AE03002A
:108E70004CAE030060AE030000B595B0FEF7B6FB44
:108E80001390404B1B788DF806303F4A3F4BD31A66
:108E9000DB081B0443F003033A4A12783C491846A6
:108EA0000FF007FA0123ADF8043002AB3C22002199
:108EB000184611F0FFF806238DF80B3002238DF8C9
:108EC000083001F00FFF0346002B04D0314B44F271
:108ED00021321A8003E02F4B41F234221A80139B77
:108EE000A0332C4A9360139BA033184611F061F80D
:108EF00003469AB2274B9A80264B0C9301238DF898
:108F0000343002AB00221946234804F0F0FB1290E3
:108F1000129B002B0CD01C4A1C4BD31ADB081B04E1
:108F200043F00303129A1D4918460FF0C2F90AE0F4
:108F3000154A164BD31ADB081B0443F003031849E8
:108F400018460FF0A9F904238DF84730124B93F817
:108F5000543019469DF947301A460120FFF7F8FCB6
:108F60001290129B002B0AD0074A084BD31ADB0839
:108F70001B0443F003030B4918460FF08DF900BFA3
:108F800015B000BD6C410020A8A4030080A403001C
:108F90007CAE03005C4900201C4500208CAE030021
:108FA000ACAE03004CAE030000B589B0034600919F
:108FB0008DF80730374A384BD31ADB081B0443F0CF
:108FC00003039DF80720354918460FF072F9FEF7A4
:108FD0000DFB07909DF80730002B3BD0079B1846F0
:108FE000FFF796FEFFF7B4FE2D4B052283F83C20D9
:108FF000079BB3F8C430DB002A4A82FB03125210ED
:10900000DB17D31A1A46264B5A64274A27492848A1
:10901000FFF78EFC0690069B0493049B002B05D063
:10902000244A4FF4B17104980BF0A8F81C4B93F844
:10903000543001211846FFF77FFC0690069B0393EE
:10904000039B002B23D01B4A40F2651103980BF0C1
:1090500095F81CE0079B1846FFF75AFEFFF70CFF38
:109060000F4BA0225A610E4B012283F83C200321B2
:109070000B4804F0FBF90690069B0593059B002B1B
:1090800005D00C4A40F2871105980BF077F800BF25
:1090900009B000BDA8A4030080A40300C4AE03006F
:1090A0001C45002067666666584500202C49002054
:1090B000704500207CAD030000B583B00190019B9A
:1090C000054A1A60019B054A5A60FFF7EFFCFFF75B
:1090D00029FD00BF03B000BDA98B0200F18B020087
:1090E00076DF704700BF18467FDF704700BF184625
:1090F0008FDF704700BF1846B1DF704700BF1846CA
:1091000000B583B00190019B1B68184600F0DBF8A6
:109110000346002B04D105494FF4F67001F026FBFD
:109120004FF0A043184603B000BD00BFD8AE030007
:1091300000B585B00190084611461A4603468DF8E1
:1091400003300B468DF8023013468DF8013001AB29
:109150001846FFF7D5FF03909DF803209DF80230D5
:109160005B001A439DF801309B001A439DF81830AC
:109170001B0242EA03019DF81C301B04019A1943AB
:10918000039B02F5E07243F8221000BF05B000BD5A
:1091900000B585B0039000230193002300930023C2
:1091A000012201210398FFF7C3FF00BF05B000BDF6
:1091B00000B585B003900B468DF80B309DF80B3051
:1091C0000022019200220092002200210398FFF762
:1091D000AFFF00BF05B000BD00B585B0019001AB89
:1091E0001846FFF78DFF0390019B012202FA03F35B
:1091F0001946039800F053F800BF05B000BD00B554
:1092000085B0019001AB1846FFF77AFF0390019BF0
:10921000012202FA03F31946039800F04AF800BF4E
:1092200005B000BD00B585B0019001AB1846FFF751
:1092300067FF0390039BD3F804350293029BDA4344
:10924000019B012101FA03F31A40039BC3F808258F
:10925000019B01229A40029B1A40039BC3F80C25F4
:1092600000BF05B000BD00B585B0019001AB184648
:10927000FFF746FF0390039800F009F80246019BB0
:1092800022FA03F303F00103184605B000BD82B0D3
:109290000190019BD3F81035184602B0704782B098
:1092A00001900091019B009AC3F8082500BF02B00D
:1092B000704782B001900091019B009AC3F80C2581
:1092C00000BF02B0704784B00190019B5B0902931C
:1092D00000230393029B002B03D14FF0FF33039332
:1092E00000BF019B03F01F030193039A019B22FA25
:1092F00003F303F00103DBB2184604B0704700002B
:1093000000B58BB00190009100238DF82730019BB0
:109310001B88562B00F08D80562B00F39C80522B1F
:1093200062D0522B00F397803B2B70D03B2B00F385
:109330009280212B2CD0212B00F38D80132B40D039
:10934000132B00F38880102B02D0112B0CD082E05D
:10935000484A494BD31ADB081B0443F0030347492F
:1093600018460EF099FF81E0424A434BD31ADB08BE
:109370001B0443F00303424918460EF08DFF019B86
:109380001B7A8DF80B303F4B4FF6FF721A806DE061
:1093900000238DF8083000238DF80930019B9B884D
:1093A00002AA11461846FFF7A3FE0890089B0493F3
:1093B000049B002B51D0344AC32104980AF0DEFEEE
:1093C0004BE0304B1888002300228521FFF78CFEEC
:1093D0000890089B0393039B002B40D02A4AC92185
:1093E00003980AF0CBFE3AE0264B188800230022AF
:1093F0000021FFF781FE0890089B0693069B002B37
:109400002FD0214ACF2106980AF0B8FE29E0019B0F
:109410009B8813211846FFF763FE0890089B05936D
:10942000059B002B1FD0184AD62105980AF0A6FEEE
:1094300019E0019B9B8813211846FFF751FE089005
:10944000089B0793079B002B0FD00F4ADD2107983D
:109450000AF094FE09E000BF08E000BF06E000BF8C
:1094600004E000BF02E000BF00E000BF00BF0BB09F
:1094700000BD00BFA8A4030080A4030050AF0300F8
:1094800058AF0300D041002008AF030008B50EF02C
:109490008BFF034683F00103DBB2002B01D00DF0FC
:1094A000D7FE00BF08BD00B583B001900B468DF814
:1094B0000330019B132B08D0019B132B1CD8019B5D
:1094C000072B10D0019B112B16E01320FFF7CBFECA
:1094D0000346002B03D00C20FFF791FE0CE00C207C
:1094E000FFF77AFE08E00720FFF7BDFE0346002BDA
:1094F00001D000F0AFFA00BF00BF03B000BD000014
:1095000000B589B0594A02AB12681146198002337E
:10951000120C1A7002AB564A1946132008F0F6FCDA
:109520000790079B002B05D0524A4FF4B371079860
:109530000AF024FE0121132008F064FD03238DF8B6
:10954000043000238DF805309DF8063023F0010328
:109550008DF806309DF8063023F002038DF80630B2
:109560009DF8063023F004038DF8063000238DF8B3
:10957000053001AB3E4A1946112008F0C7FC0690A1
:10958000069B002B05D03B4A4FF4B67106980AF0B3
:10959000F5FD0121112008F035FD03238DF8003081
:1095A00000238DF801309DF8023023F001038DF87F
:1095B00002309DF8023023F002038DF802309DF84E
:1095C000023023F004038DF8023000238DF80130BF
:1095D0006B46274A1946072008F098FC0590059B22
:1095E000002B05D0234A40F2711105980AF0C6FD00
:1095F0000121072008F006FD01211620FFF7D8FD04
:109600000B20FFF7C5FD0C20FFF7C2FD0D20FFF773
:10961000BFFD1820FFF7BCFD1820FFF7F0FD0BF091
:109620006FFA04904FF4004303930B20FFF7D4FD2F
:109630000C20FFF7D1FD0D20FFF7CEFD00BF0BF092
:109640005FFA0346049918460BF04EFA0246039B54
:109650009342F4D80B20FFF7D2FD0C20FFF7CFFD8B
:109660000D20FFF7CCFD00BF09B000BD84AF0300A3
:10967000A794020008AF0300024B01221A7000BF3A
:10968000704700BF8949002000B585B00190104B9C
:109690001B6801330E4A13600D4B1B68092B02D95E
:1096A0000C4B01221A70FCF7F9FE0390039B41F268
:1096B000CB02934204D8039B40F64852934203D80E
:1096C000054B01221A7000BF00BF05B000BD00BFEE
:1096D00084490020894900208849002000B583B0D2
:1096E0000190084B1B78002B02D00B20FFF79AFD4E
:1096F000054B1B78002B02D00D20FFF793FD00BF18
:1097000003B000BD884900208949002000B585B01C
:10971000FFF7F6FEFCF7F6FFFEF76AFA00F070F9C5
:1097200000F0A0FB01F0C0FD00210020FFF73CFC91
:109730001A4A01211A480BF001F90390039B029386
:10974000029B002B05D0174A4FF4E47102980AF0EF
:1097500015FD154B00224FF4804118460BF028F9F7
:10976000124A012112480BF0E9F80390039B019380
:10977000019B002B05D00B4A40F2CD1101980AF055
:10978000FDFC0C4B00224FF4804118460BF010F901
:1097900000F068FBFFF77AFEFAE700BF8996020047
:1097A00088AF030008AF030090410020DD9602005F
:1097B0008CAF0300B041002008B5064B00221A60B0
:1097C0000BF09EF90346044A1360044B00221A7002
:1097D00000BF08BD8C49002090490020944900201A
:1097E00070B590B00590059BD3F802300F930BF045
:1097F00087F90346144A1360144A0F9B1360144BF5
:1098000001221A7006AB184600F050F8114A124BAC
:10981000D31ADB081B0443F003000B9B03F26C73A9
:109820001D460A9B01331E46099B089A0799069C10
:10983000039402910192009333462A4607490EF0A1
:1098400089FD00BF10B070BD904900208C490020F8
:1098500094490020A8A4030080A4030090AF030053
:1098600000B585B00E4B1B7883F00103DBB2002BF3
:1098700001D0002310E00BF043F90390094B1B6863
:10988000194603980BF030F90290029BDB0B019311
:10989000054B1A68019B1344184605B000BD00BF74
:1098A00094490020904900208C49002030B585B0B3
:1098B0000190FFF7D5FF03460293019B002B11D0C7
:1098C00002AB184610F04BFD0390039B002B09D010
:1098D000019A039B14461D460FCD0FC40FCD0FC434
:1098E0002B68236000BF05B030BD000000B583B019
:1098F0000190019B1B68184600F02CF80346002BD2
:1099000004D105494FF4F67000F030FF4FF0A0434A
:10991000184603B000BD00BFC0AF030000B585B05E
:10992000019001AB1846FFF7E1FF0390039800F0A8
:1099300009F80246019B22FA03F303F001031846DB
:1099400005B000BD82B00190019BD3F810351846D8
:1099500002B0704784B00190019B5B090293002321
:109960000393029B002B03D14FF0FF33039300BFFF
:10997000019B03F01F030193039A019B22FA03F357
:1099800003F00103DBB2184604B0704700B585B0A0
:109990000023ADF804301B238DF80C3001AB1946C1
:1099A000002000F062FEBDF80430C3F308039BB250
:1099B000ADF80E30BDF80E30184605B000BD000001
:1099C00000B583B00023019310E00C4A019B12F80C
:1099D00013308DF8003000238DF801306B460221E2
:1099E000184600F08BFD019B01330193019B052B71
:1099F000EBD900BF00BF03B000BD00BFD4410020C1
:109A000000B583B000F0CEFDFFF7DAFF002301932D
:109A100014E00F4A019B12F813308DF800300C4A05
:109A2000019B5B0013445B788DF801306B4602218B
:109A3000184600F063FD019B01330193019B052B48
:109A4000E7D9FFF7A3FF00F095FD00BF03B000BD0D
:109A5000D4410020024B01221A7000BF704700BFA2
:109A60009549002000B589B00346ADF806300B4695
:109A7000ADF804301346ADF80230BDF9063007EEFC
:109A8000903AF8EEE77A9FED267A67EE877ACDED89
:109A9000067ABDF9043007EE903AF8EEE77A9FEDCA
:109AA000207A67EE877ACDED057ABDF9023007EEB0
:109AB000903AF8EEE77A9FED1A7A67EE877ACDED65
:109AC000047ADDED067A27EEA77ADDED057A67EEFA
:109AD000A77A37EE277ADDED047A67EEA77A77EE7C
:109AE000277AB0EE670A0FF08FFE8DED030ADDEDE9
:109AF000037AB7EE007A77EEC77ACDED077ADDED1F
:109B0000077AF5EEC07AF1EE10FA02D54FF00003B5
:109B10000793079B07EE903AB0EE670A09B000BDC5
:109B200040DA7F3800B587B00346ADF806300B4603
:109B3000ADF804301346ADF80230BDF9063007EE3B
:109B4000903AF8EEE77A9FED237A67EE877ACDEDCB
:109B5000047ABDF9043007EE903AF8EEE77A9FED0B
:109B60001D7A67EE877ACDED037ABDF9023007EEF4
:109B7000903AF8EEE77A9FED177A67EE877ACDEDA7
:109B8000027ADDED047A27EEA77ADDED037A67EE3F
:109B9000A77A37EE277ADDED027A67EEA77A77EEBD
:109BA000277AB0EE670A0FF02FFE8DED050ADDED86
:109BB000057AB0EE007AF4EEC77AF1EE10FA02D52B
:109BC0004FF000030593059B07EE903AB0EE670A4D
:109BD00007B000BD295C8F3D00B58FB001904FF0FC
:109BE00000030D934FF000030C930023ADF82E30CB
:109BF0000023ADF82C3000230A93A9E00A9A1346FB
:109C0000DB009B1A0693069B019A13441B78DB0822
:109C10008DF817309DF81730022B49D1069B02337F
:109C2000019A13441B781BB21B021AB2069B013324
:109C300001990B441B781BB21343ADF80E30069B01
:109C40000433019A13441B781BB21B021AB2069B01
:109C5000033301990B441B781BB21343ADF80C304E
:109C6000069B0633019A13441B781BB21B021AB2DF
:109C7000069B053301990B441B781BB21343ADF8C7
:109C80000A30BDF90E20BDF90C10BDF90A30184696
:109C9000FFF7E8FEB0EE407ADDED0D7A77EE877AD9
:109CA000CDED0D7ABDF82E300133ADF82E304CE0FD
:109CB0009DF81730012B48D1069B0233019A1344BB
:109CC0001B781BB21B021AB2069B013301990B448D
:109CD0001B781BB21343ADF81430069B0433019A72
:109CE00013441B781BB21B021AB2069B0333019963
:109CF0000B441B781BB21343ADF81230069B06339E
:109D0000019A13441B781BB21B021AB2069B05333F
:109D100001990B441B781BB21343ADF81030BDF909
:109D20001020BDF91210BDF914301846FFF7FAFEE5
:109D3000B0EE407ADDED0C7A77EE877ACDED0C7AD5
:109D4000BDF82C300133ADF82C300A9B01330A9357
:109D50000A9B4A2B7FF752AF4FF000030993BDF8DF
:109D60002E30002B0CD0BDF82E3007EE903AB8EE16
:109D7000677ADDED0D6AC6EE877ACDED087A02E0EE
:109D80004FF000030893BDF82C30002B0CD0BDF829
:109D90002C3007EE903AB8EE677ADDED0C6AC6EE2D
:109DA000877ACDED077A02E04FF000030793BDF804
:109DB0002E30002B0FD0BDF82E3007EE903AB8EEC3
:109DC000677ADDED0D6AC6EE877A9DED097A77EE4A
:109DD000277ACDED097ABDF82C30002B13D0BDF8D1
:109DE0002C3007EE903AB8EE677ADDED0C6AC6EEDD
:109DF000877A9FED0B7A67EE877A9DED097A77EE89
:109E0000277ACDED097ADDED097A9FED067A67EEC6
:109E1000877AFCEEE77A17EE903A18460FB000BD4D
:109E20006F12033B00007A4400B585B001900B46E9
:109E3000ADF8023078238DF80D3000238DF80F3007
:109E400000238DF80E30BDF802300DF10D00019A9F
:109E5000012100F067FB0198FFF7BEFE034618469C
:109E600005B000BD00B583B0002301931A4B1B78E9
:109E7000002B05D10720FFF751FD0346002B27D00B
:109E800000F090FBFFF782FD0346ADF80230124B65
:109E900000221A70BDF802304A2B14D940F20D216D
:109EA0000E48FFF7C1FF0190019800F00FF90C4A2E
:109EB0000C4BD31ADB081B0443F00303019A0A4935
:109EC00018460EF0F6F900F055FB0020FCF7F2FA08
:109ED00000BF03B000BD00BF954900209849002095
:109EE000A8A4030080A4030000B0030000B589B05B
:109EF0000190019B002B3ED0019BDB788DF81F3039
:109F0000019B9B788DF81E309DF81F30002B34D0BC
:109F10009DF81F30102B30D8019B5B78012B17D197
:109F20009DF81E308DF80C30019B191D9DF81F20E7
:109F300003AB0133184610F08BF89DF81F309BB22D
:109F400001339AB203AB1146184600F0D7FA0DE080
:109F5000019B5B78002B12D1019B1A1D9DF81F30CD
:109F60009BB20DF11E00012100F0DCFA14210198D2
:109F700000F0B2FF04E000BF02E000BF00E000BF5D
:109F800009B000BD014B1846704700BFA84B002028
:109F900086B00190019B08330593059BA3F58022B1
:109FA000144BA3FB0213590B0B465B000B441B0322
:109FB000D31A0493049BB3F5345F0FD3059BA3F529
:109FC00080230C4AA2FB03235B0B0393039A1346E3
:109FD0005B0013441B0303F586230593059BB3F530
:109FE000982F02D34FF480230593059B184606B0A3
:109FF000704700BFABAAAAAA8EB000230D9300231E
:10A000000C932F4B1B680B932E4B1B680A930B9AD8
:10A010000A9B9A421CD80A9A0B9BD31A0D930B9B4E
:10A02000A3F58023284AA2FB03235B0B03930A9B1F
:10A03000A3F58023244AA2FB03235B0B0293029A1D
:10A04000039BD21A13465B0013441B020C9327E0B8
:10A050000A9A0B9BD31A03F540430D930B9BA3F570
:10A060008023194AA2FB03235B0B09930423089363
:10A070000A9BA3F58023144AA2FB03235B0B0793DF
:10A08000089A099BD31A0693079B0593069A059B8A
:10A0900013440493049A13465B0013441B020C936D
:10A0A0000D9A0C9B9A4201D2002305E00D9A0C9B5D
:10A0B000D31A0193019BDB0818460EB0704700BF0E
:10A0C000EC410020E8410020ABAAAAAA00B58BB061
:10A0D000039004AB0822002118460FF0EBFF4A4B17
:10A0E0001B690133484A1361474B5A69039B134468
:10A0F000454A5361454A464BD31ADB081B0443F0DB
:10A100000300414B1A69404B5B690093039B414933
:10A110000EF0F2F8FDF76AFA09903B4B1B69099AB9
:10A12000B2F8C0203C49A1FB0212920892B29342BD
:10A1300067D33A4B1B681846FFF72AFF0890384B45
:10A140001B68089A9A422DD1344B1A68344B1B680D
:10A150009A4227D0324B1B68A3F58023314AA2FBD9
:10A1600003235B0B0793079A13465B0013441B03FF
:10A1700003F586232A4A1360294B1B68B3F5982FF1
:10A1800003D3274B4FF480221A60204A204BD31A66
:10A19000DB081B0443F00203214A126822491846D7
:10A1A0000EF087F8184B5A69174B1B69B2FBF3F393
:10A1B0009BB2ADF81030154A154BD31ADB081B04BF
:10A1C00043F00303BDF81020184918460EF071F84B
:10A1D000124B1B6804A908221846FDF74DFA069099
:10A1E000069B002B02D10D4A089B1360104B1B6885
:10A1F00001330F4A1360044B00225A61024B0022C4
:10A200001A6100BF0BB000BDA84B0020A8A403003A
:10A2100080A4030010B00300CDCCCCCCE0410020E2
:10A22000E4410020ABAAAAAA30B0030074B0030036
:10A23000244C002000B589B0019000238DF81F3018
:10A24000019B023306934B4B1A684B4B1B689A4297
:10A250006FD100238AE0474B1B6803A908221846E8
:10A26000FDF77CFABDF80C109DF81F305B00069AD4
:10A270001A440B46C3F30D0399B2138861F30D031F
:10A2800013809DF81F305B00069A13441B88C3F3AC
:10A290000D039BB2C82B0AD99DF81F305B00069AAC
:10A2A0001A445378022161F3871353701EE09DF81E
:10A2B0001F305B00069A13441B88C3F30D039BB247
:10A2C000502B0AD99DF81F305B00069A1A44537828
:10A2D000012161F38713537008E09DF81F305B0084
:10A2E000069A1A44537823F0C00353709DF81F3028
:10A2F00001338DF81F301F4B1B681846FFF748FECF
:10A3000005901C4B1B68059A9A420FD11B4A1C4BA7
:10A31000D31ADB081B0443F001031A4918460DF059
:10A32000BBFF154B1B68134A13600CE0114A059BD9
:10A3300013609DF81F30082B05D80E4B1A680E4B82
:10A340001B689A4287D19DF81F30002B07D0094B1C
:10A350001A68094B1B689A4201D0012306E09DF858
:10A360001F30002B01D0002300E00023184609B065
:10A3700000BD00BFEC410020E8410020A8A403007C
:10A3800080A4030094B00300024B1B68024A1360D0
:10A3900000BF7047EC410020E441002008B5134B9A
:10A3A0001B68134A1360134B1B68134A1360134A4C
:10A3B000134BD31ADB081B0443F003000C4B1A6841
:10A3C0000A4B1B680F490DF084FF0C4A0C4BD31A43
:10A3D000DB081B0443F00300074B1A68054B1B689E
:10A3E00009490DF076FF00BF08BD00BFE041002025
:10A3F000E8410020E4410020EC410020A8A4030033
:10A4000080A40300ACB00300E0B0030000B583B04B
:10A410000190019B1B68184600F054F80346002B7E
:10A4200004D105494FF4F67000F0A0F94FF0A043B5
:10A43000184603B000BD00BF1CB1030000B585B0D5
:10A440000190084611461A4603468DF803300B4624
:10A450008DF8023013468DF8013001AB1846FFF736
:10A46000D5FF03909DF803209DF802305B001A434E
:10A470009DF801309B001A439DF818301B0242EAF8
:10A4800003019DF81C301B04019A1943039B02F53C
:10A49000E07243F8221000BF05B000BD00B585B0E2
:10A4A00003900B468DF80B309DF80B300022019283
:10A4B00000220092002200210398FFF7BFFF00BF97
:10A4C00005B000BD84B00190019B5B09029300239D
:10A4D0000393029B002B03D14FF0FF33039300BF84
:10A4E000019B03F01F030193039A019B22FA03F3DC
:10A4F00003F00103DBB2184604B0704700B585B025
:10A5000003900B46ADF80A30BDF80A3000220092E5
:10A51000039A6A21024809F0F3FC00BF05B000BDB0
:10A5200014B1030000B587B0059003921A460B469C
:10A53000ADF812301346ADF81030BDF812300122DC
:10A540000092059A6A210A4809F0DAFCBDF8103039
:10A55000002B09D0039B002B06D0BDF81030039AC6
:10A560006A21034809F0F3FC00BF07B000BD00BF3B
:10A5700014B1030008B5084809F084F9064809F049
:10A5800013F9064B0022C3F80025054B00221A6080
:10A59000034B1B6800BF08BD14B10300003000402E
:10A5A000FC3F004010B586B003211920FFF776FF6D
:10A5B00003211A20FFF772FF124B0122C3F8002576
:10A5C000114B01221A60104B1B68104B6C460FCBCD
:10A5D00084E80F006946002300220D4809F03CF88A
:10A5E0000590059B0493049B002B04D0094A462147
:10A5F000049809F0C3FD064809F01CF900BF06B035
:10A6000010BD00BF00300040FC3F004094B103008B
:10A6100014B103004CB1030000B587B00390019260
:10A620001A460B468DF80B301346ADF80830002360
:10A630000593BDF808300DF10B00019A0121FFF7D9
:10A6400071FF059B184607B000BD82B001900091D4
:10A65000019B002B06D0009B002B03D0009B1A7897
:10A66000019B1A7000BF02B0704700B587B001901F
:10A6700000910023ADF8103000238DF80C3000233A
:10A68000059304AA02231B210198FFF7C5FF05903B
:10A69000059B002B01D0059B41E004AB5A1C03AB8A
:10A6A00011461846FFF7D1FF9DF80C30C3F3001395
:10A6B000D9B2009A537861F3410353709DF80C307E
:10A6C000C3F38013D9B2009A537861F3C303537074
:10A6D0009DF80C30C3F34013D9B2009A537861F35C
:10A6E000820353709DF80C30C3F3C013D9B2009AA3
:10A6F000537861F3041353709DF810301AB29DF82B
:10A7000011301BB21B021BB213431BB2C3F308036D
:10A7100099B2009A138861F308031380059B1846C9
:10A7200007B000BD76DF704700BF18467ADF70477C
:10A7300000BF18467FDF704700BF184688DF7047AC
:10A7400000BF184689DF704700BF18468EDF70478C
:10A7500000BF18468FDF704700BF1846B1DF704753
:10A7600000BF18463FDF704700BF184600B583B0F2
:10A7700003460091ADF80630BDF80630009A194640
:10A78000024809F0FBFC00BF03B000BDEFBEADDE28
:10A7900000B585B06B460822002118460FF08AFCF0
:10A7A0005023ADF80030A023ADF802300423ADF8FB
:10A7B00004304FF41673ADF806306B461846FFF7B9
:10A7C000B5FF0390039B0293029B002B04D0044A25
:10A7D000C621029809F0D2FC00BF05B000BD00BF41
:10A7E000D4B1030000B585B00190019B1B78002B0C
:10A7F00010D10A4B1B883B211846FFF793FF0390AB
:10A80000039B0293029B002B04D0054AE921029886
:10A8100009F0B4FC00BF05B000BD00BFF04100204E
:10A82000D4B1030000B583B00190044AF42101982B
:10A8300009F0A4FC00BF03B000BD00BFD4B1030009
:10A8400000B58BB001AB1C22002118460FF032FC82
:10A85000002301934FF4A03302934FF4F0230393AA
:10A8600003238DF810300023ADF8123000238DF84B
:10A8700014300B4B06930B4B079301AB184603F0B8
:10A8800005F90990099B0893089B002B05D0064AFF
:10A8900040F20B11089809F071FC00BF0BB000BD2D
:10A8A000E5A7020025A80200D4B1030000B58DB0D1
:10A8B0000190009100238DF82F30019B1B88562BAF
:10A8C00000F0D080562B00F3E080522B00F0A380E4
:10A8D000522B00F3DA803B2B00F0B1803B2B00F3CE
:10A8E000D480212B69D0212B00F3CF80132B7ED075
:10A8F000132B00F3CA80102B02D0112B33D0C4E0ED
:10A90000FDF7FCFA019B9A88674B1A80674B1B780E
:10A91000022B02D0032B0BD018E0654B9B68624AD8
:10A920001288114601989847624B00221A700DE078
:10A930005F4B1B685C4A12881146019898475D4B33
:10A9400001221A70019B0833039300BF01215A486A
:10A9500000F000FB00220021002000F0A5FB574B77
:10A9600004221A709CE0564A564BD31ADB081B048B
:10A9700043F00300019B1B7A1A4653490DF099FCE2
:10A98000019B9B88ADF81230474B1B884FF6FF7236
:10A99000934204D0444B1B881846FFF7D3FE00F0C7
:10A9A000FFFB012000F0DAFB0021002000F0D2FACA
:10A9B0003D4B4FF6FF721A8072E000238DF808308D
:10A9C00000238DF80930019B9B8802AA1146184686
:10A9D000FFF7C0FE0A900A9B0693069B002B56D0F9
:10A9E0003A4A4FF4A871069809F0C8FB4FE02E4B85
:10A9F0001888002300228521FFF79CFE0A900A9BFD
:10AA00000593059B002B44D0304A4FF4AB71059859
:10AA100009F0B4FB3DE0244B1888002300220021FC
:10AA2000FFF79CFE0A900A9B0893089B002B32D0EC
:10AA3000264A4FF4AE71089809F0A0FB2BE0019B69
:10AA40009B8813211846FFF76DFE0A900A9B079317
:10AA5000079B002B21D01D4A40F26311079809F093
:10AA60008DFB1AE0019B9B8813211846FFF75AFEC5
:10AA70000A900A9B0993099B002B10D0134A4FF4AC
:10AA8000B571099809F07AFB09E000BF08E000BF42
:10AA900006E000BF04E000BF02E000BF00E000BF2E
:10AAA00000BF0DB000BD00BFF0410020574C00209A
:10AAB000444C002058420020A0BB0D00564C002002
:10AAC000A8A4030080A4030018B20300D4B10300BB
:10AAD00000B587B00EF090FB0590059B0493049B96
:10AAE000002B05D0234A40F27D11049809F046FB63
:10AAF0000023019301AB194601200EF08FFC059055
:10AB0000059B0393039B002B05D01A4A40F2831147
:10AB1000039809F033FB184A184BD31ADB081B04BF
:10AB200043F00303019A164918460DF0C2FB01AB2E
:10AB300018460EF067FD0590059B042B0BD10E4ABD
:10AB40000E4BD31ADB081B0443F00103019A0D4995
:10AB500018460DF0AEFB059B0293029B002B05D01F
:10AB6000044A40F28F11029809F008FB00BF07B0B9
:10AB700000BD00BFD4B10300A8A4030080A403005B
:10AB800028B203004CB2030000B583B001900091DD
:10AB9000009B5A88104B1B889A421AD1009B1B8835
:10ABA00040F67722934214D1009B9B88033B9AB2D4
:10ABB0000A4B1A800A4A0B4BD31ADB081B0443F0DA
:10ABC0000300064B1B881A46044B1B8806490DF0F0
:10ABD00080FB00BF03B000BDF0410020F241002027
:10ABE000A8A4030080A4030080B2030000B585B0D0
:10ABF0001A491B4804F055FD0390039B0293029BE6
:10AC0000002B05D0174A4FF4D571029809F0B6FA17
:10AC10001721134804F06FFD0390039B0193019BE0
:10AC2000002B05D00F4A40F2AF11019809F0A6FAA7
:10AC3000FB224FF6FF710A4804F079FD0390039B55
:10AC40000093009B002B05D0064A40F2B3110098F8
:10AC500009F094FA00BF05B000BD00BF89AB020047
:10AC6000284C0020D4B1030000B583B04FF48041DC
:10AC700000200DF047F80190019B0093009B002BF2
:10AC800005D0054A4FF4DE71009809F077FA0CF010
:10AC9000D1FF00BF03B000BDD4B1030000B583B045
:10ACA0000CF0C0FA0190019B0093009B002B05D093
:10ACB000044A4FF4E471009809F060FA00BF03B051
:10ACC00000BD00BFD4B1030008B50DF06DFB034615
:10ACD00083F00103DBB2002B01D00CF0B9FA00BF06
:10ACE00008BD0000064B1B78032B03D0044B1B78D8
:10ACF000042B01D1012300E00023DBB2184670478A
:10AD0000564C002000B585B00190FCF76FFC039015
:10AD1000304B1A78304B1A702F4B1B78042B48D0CD
:10AD2000042B53DC032B34D0032B4FDC022B1ED01F
:10AD3000022B4BDC002B02D0012B10D046E0002070
:10AD4000FDF736F900210120FEF72EF9FCF740FB54
:10AD500042F210720121012000F0A6F936E000F065
:10AD6000F1F964220121022000F09EF92EE0FCF7A7
:10AD70007FFA0346002B05D064220121032000F056
:10AD800093F923E040F6B8320121032000F08CF95A
:10AD90001CE000F0D7F90120FDF70AF9002100209E
:10ADA000FEF702F942F210720121042000F07CF952
:10ADB0000CE0FDF76BFFFDF717F9FDF76FF842F2B6
:10ADC00010720121002000F06FF900BF00BF05B034
:10ADD00000BD00BF554C0020574C002000B585B089
:10ADE0000190114A114BD31ADB081B0443F00303F3
:10ADF0000F4918460DF050FA0E4B1B884FF6FF72A4
:10AE0000934204D000F010FA03468DF80F309DF9FC
:10AE10000F3019460020FBF729FD0121064800F0FC
:10AE200099F800BF05B000BDA8A4030080A40300EA
:10AE3000C8B20300F0410020A0BB0D0000B583B0F4
:10AE40000190234B1B78062B3AD0062B3ADC052BBE
:10AE50002DD0052B36DC042B1CD0042B32DC022B2E
:10AE60000FD0022B2EDC002B2ED0012B00D029E09E
:10AE700064220121002000F017F9154B03221A70FB
:10AE800023E064220121032000F00EF9104B03227D
:10AE90001A701AE0FDF7FAFE0E4B1B880022002103
:10AEA0001846FFF74BFC0A4B05221A700DE00021F3
:10AEB0000120FEF779F800F08FF9054B06221A7091
:10AEC00000BF02E000BF00E000BF00BF03B000BD54
:10AED000564C0020F041002000B585B001900B4693
:10AEE000ADF8023006230393144B1B78002B0BD0D4
:10AEF000012B13D1124B5B68124A1288BDF8021065
:10AF000001989847039009E00D4BDB680D4A1288C1
:10AF1000BDF8021001989847039000BF0A4A0B4BF6
:10AF2000D31ADB081B0443F00303039A08491846AD
:10AF30000DF0BFF9039B184605B000BD5842002034
:10AF4000444C0020F0410020A8A4030080A403008A
:10AF5000F0B20300F0B587B001900B468DF80330D6
:10AF6000019B00221C4615464FF000024FF00003E3
:10AF7000EB0343EA5443E20312F57A7643F1000708
:10AF80004FF4FA624FF00003304639460EF040FCB1
:10AF900002460B4613460593134B184609F060FD15
:10AFA0009DF80330002B1CD00F4B0022059918464A
:10AFB00009F0FEFC0490049B0393039B002B05D037
:10AFC0000A4A40F2A621039809F0D8F8084A094B2A
:10AFD000D31ADB081B0443F00303074918460DF09E
:10AFE0005BF900BF07B0F0BD18420020D4B10300E8
:10AFF000A8A4030080A4030004B3030000B587B035
:10B0000009F060FC0590059B0493049B002B05D080
:10B010001E4A40F2AE21049809F0B0F81C4A012102
:10B020001C4809F08BFC0590059B0393039B002BA8
:10B0300005D0164A4FF42D71039809F09FF8164A6F
:10B040000021164809F07AFC0590059B0293029BAB
:10B05000002B05D00D4A4FF42E71029809F08EF89E
:10B060000F4A01210F4809F069FC0590059B0193E7
:10B07000019B002B05D0054A40F2BE21019809F042
:10B080007DF8FBF777FD00BF07B000BDD4B103002A
:10B090003DAE0200A8B4030005AD0200B0B4030049
:10B0A000DDAD0200ACB40300F0B585B003468DF809
:10B0B00007300B468DF806301346ADF80430BDF866
:10B0C000043000221C4615464FF000024FF00003EA
:10B0D000EB0343EA5443E20312F57A7643F10007A7
:10B0E0004FF4FA624FF00003304639460EF090FB01
:10B0F00002460B46134603930F4A9DF80730137020
:10B100009DF80630002B0AD00C4B184609F0A8FC1D
:10B110000A4B00220399184609F04AFC08E0FCF7A4
:10B1200063FF074B00221A70044B184609F098FC85
:10B1300000BF05B0F0BD00BF554C002038420020D4
:10B14000544C002008B5FDF7A1FDFCF713F9FDF7FD
:10B1500067FDFCF757F800BF08BD000000B583B0DD
:10B1600003468DF80730FFF7EDFF9DF80730012B00
:10B1700002D0022B04D007E0084B01221A7009E02C
:10B18000064B02221A7005E0002200210020FFF782
:10B190008BFF00BF00BF03B000BD00BF564C0020B6
:10B1A00000B583B00A4B002240F26661184609F0F0
:10B1B000FFFB0190019B0093009B002B05D0054AEB
:10B1C00040F2FB21009808F0D9FF00BF03B000BD9A
:10B1D000F8410020D4B1030008B5034B184609F02C
:10B1E0003FFC00BF08BD00BFF841002008B5FFF7D5
:10B1F000F3FFFDF74BF9084A084BD31ADB081B0491
:10B2000043F00303064918460DF046F8054B0622A5
:10B210001A7000BF08BD00BFA8A4030080A40300EB
:10B2200020B30300564C002000B583B000238DF8F6
:10B23000033000238DF80230164B1B880DF10202FB
:10B240000DF103011846FFF781FA0190019B002BD5
:10B250001AD0019B052B0BD10F4A104BD31ADB08D8
:10B260001B0443F002030E4918460DF015F80BE0DD
:10B27000094A0A4BD31ADB081B0443F00103019A65
:10B28000084918460DF015F89DF90330184603B02B
:10B2900000BD00BFF0410020A8A4030080A403006B
:10B2A00018B4030048B4030008B5FFF7F7FCFFF734
:10B2B0006FFAFFF79BFC1148FDF7FEFEFFF7C0FA9F
:10B2C0000F4A104BD31ADB081B0443F003030E494B
:10B2D00018460CF0E1FF0A4A0A4BD31ADB081B049C
:10B2E00043F00303094918460CF0D6FF0348FCF766
:10B2F000C5F80120FFF736FA00BF08BD444C002016
:10B30000A8A4030080A403006CB403007CB4030071
:10B3100008B5FFF7A9FCFFF771FEFFF7D9FBFEF7B1
:10B320004BFAFDF73BF90020FBF7C4F8FCF760FC93
:10B33000FEF766FBFEF796FDFFF7B6FFFFF730FF5F
:10B340000120FFF70BFFFCF76DFAFEF78BFDFFF70F
:10B35000BBFCF8E7ADDF704700BF1846AEDF7047B3
:10B3600000BF1846B0DF704700BF18463CDF70478B
:10B3700000BF18463DDF704700BF184600B58BB0D0
:10B38000019005AB1022002118460EF093FE022317
:10B390008DF814300223ADF808300023ADF80A30E0
:10B3A00004AB03931B4B9B881A4A518902AA184687
:10B3B000FFF7D0FF0990099B002B10D104AB184672
:10B3C00003F0ECFD0346002B09D09DF81A3043F042
:10B3D00001038DF81A300023ADF8183003E040F275
:10B3E000FD13ADF818300B4B9B8805AA1146184683
:10B3F000FFF7B8FF0990099B112BF4D0BDF8183066
:10B40000002B03D1019800F0DBF900E000BF0BB086
:10B4100000BD00BF584C002000B585B00190019BD5
:10B420009A88134B9B889A421ED1019B0633039343
:10B43000039B1B78022B18D1039B5A880C4BDB888B
:10B440009A4212D1039B1B7A042B0ED0039B1B7ACA
:10B45000062B0AD0039B1B7A052B06D0039B0233D5
:10B460001846FFF78BFF00E000BF05B000BD00BF2E
:10B47000584C002082B00190019B9A88024B9A8020
:10B4800000BF02B0704700BF584C002082B001904E
:10B49000064B9A88019B9B889A4204D1034B4FF636
:10B4A000FF729A8000E000BF02B07047584C002045
:10B4B00000B585B00190019B06330393039B1A8866
:10B4C0000A4BDB889A420DD1084B1B7E002B09D01A
:10B4D00000F0E4F90290029B002B03D0034B5B6960
:10B4E0000220984700BF05B000BD00BF584C0020A7
:10B4F00000B583B001900091019B002B1FD0019BF0
:10B500001B88532B16D0532B18DC512B0ED0512BEC
:10B5100014DC102B02D0112B04D00FE00198FFF7A0
:10B52000A9FF0CE00198FFF7B1FF08E00198FFF7D1
:10B5300073FF04E00198FFF7BBFF00E000BF03B01A
:10B5400000BD000000B58BB003460A468DF80730F9
:10B5500013468DF806300323ADF8223003AB1022DA
:10B56000002118460EF0A6FDBDF82230ADF82030BF
:10B5700020238DF81C309DF807308DF81D309DF884
:10B5800006308DF81E30124BDB88ADF80C300223EC
:10B590008DF80E300023ADF8103008AB059307ABE3
:10B5A00006930B4B9B8803AA11461846FFF7D6FE5D
:10B5B0000990099B002B07D1BDF82030BDF822204F
:10B5C0009A4201D00C230993099B18460BB000BD89
:10B5D000584C002000B585B04FF0FF310020FFF738
:10B5E000C9FE0390039B0293029B002B01D0029B98
:10B5F00013E0B1210020FFF7B9FE0390039B0193F4
:10B60000019B002B01D0019B07E0054B5B690120EA
:10B61000984702200BF088FE0023184605B000BDB5
:10B62000584C002000B583B00190044B1B680449BE
:10B63000019898470346184603B000BD744C00209B
:10B640007C4C002000B583B00190044B5B6804493A
:10B65000019898470346184603B000BD744C00207B
:10B660007C4C0020064B1B68002B05D0044B5B680C
:10B67000002B01D0012300E000231846704700BFD3
:10B68000744C002000B585B00190124B1B685B7EA6
:10B69000002B01D006231AE00198FFF7C3FF0390A7
:10B6A000039B002B04D10B4B1B6801225A760DE043
:10B6B000039B0F2B0AD1084A084BD31ADB081B0443
:10B6C00043F00103064918460CF0E6FD039B1846BB
:10B6D00005B000BD804C0020A8A4030080A4030096
:10B6E000B4B4030000B583B0134B1B685B7E002B22
:10B6F0000ED006210120FFF725FF0190019B002BB2
:10B7000004D00D4B1B685B6903209847002310E0B1
:10B71000094B1B6801221A7601210120FFF712FF55
:10B720000190019B002B03D0034B1B6800221A766B
:10B73000019B184603B000BD804C002000B585B0C9
:10B7400001900091FFF78EFF0346002B32D0019845
:10B75000FFF778FF0390039B082B2CD0039B002B53
:10B7600011D1164B1B6800225A7601210220FFF7E7
:10B77000E9FE0390039B002B1DD0104B1B685B69F7
:10B780000320984717E00D4B1B6800225A760621CC
:10B790000220FFF7D7FE0390039B002B04D0074B3A
:10B7A0001B685B6903209847044B1B685B69022098
:10B7B000984700E000BF05B000BD00BF804C0020EE
:10B7C00000B585B0019004238DF80F30019B1B7BE1
:10B7D000012B02D0022B11D035E0FFF783FF02903E
:10B7E000029B002B03D101238DF80F302FE0029B29
:10B7F000112B2CD106238DF80F3028E0019B5B7BA9
:10B80000142B03D8019B5B7B002B03D105238DF800
:10B810000F301EE0019B03F10E01019B5B7B1A467A
:10B820001B480EF015FC019B5B7B1A46194B9A6175
:10B830001848FFF727FF0290029B002B09D1012334
:10B840008DF80F3005E002238DF80F3002E000BFC5
:10B8500000E000BF9DF80F30012B15D0019B1B7B32
:10B860009DF80F2011461846FFF76CFE0290029BD0
:10B87000002B04D0084B1B685B6903209847064BDC
:10B880001B685B690220984700BF05B000BD00BF80
:10B89000884C0020844C0020804C002000B583B0F0
:10B8A000054B1B685B6900209847FFF793FE0190EA
:10B8B000019B184603B000BD804C0020BFF34F8FA2
:10B8C00000BF064BDB6803F4E0620449044B1343FA
:10B8D000CB60BFF34F8F00BF00BFFDE700ED00E07E
:10B8E0000400FA0582B0214B1B68B3F1FF3F0AD177
:10B8F0001F4B1B68DBB201931E4B1B681B0903F037
:10B900000F03009305E0194B1B6801931A4B1B684A
:10B910000093019B062B24D1009B072B1DD0009B7D
:10B92000072B1CD8009B062B15D0009B062B16D886
:10B93000009B052B0DD0009B052B10D8009B032BE3
:10B9400003D0009B042B02D009E001230AE001236D
:10B9500008E0012306E0012304E0012302E00123C3
:10B9600000E00023184602B0704700BF300100100D
:10B97000E00F00F0E80F00F03401001082B01B4B24
:10B980001B68DBB201931A4B1B681B0903F00F0302
:10B990000093019B062B24D1009B072B1DD0009BFD
:10B9A000072B1CD8009B062B15D0009B062B16D806
:10B9B000009B052B0DD0009B052B10D8009B032B63
:10B9C00003D0009B042B02D009E001230AE00023EE
:10B9D00008E0002306E0002304E0002302E0002347
:10B9E00000E00023184602B0704700BFE00F00F0EF
:10B9F000E80F00F082B0214B1B68B3F1FF3F0AD182
:10BA00001F4B1B68DBB201931E4B1B681B0903F025
:10BA10000F03009305E0194B1B6801931A4B1B6839
:10BA20000093019B062B24D1009B072B1DD0009B6C
:10BA3000072B1CD8009B062B15D0009B062B16D875
:10BA4000009B052B0DD0009B052B10D8009B032BD2
:10BA500003D0009B042B02D009E001230AE001235C
:10BA600008E0012306E0012304E0012302E00123B2
:10BA700000E00023184602B0704700BF30010010FC
:10BA8000E00F00F0E80F00F03401001082B01B4B13
:10BA90001B68DBB201931A4B1B681B0903F00F03F1
:10BAA0000093019B062B24D1009B072B1DD0009BEC
:10BAB000072B1CD8009B062B15D0009B062B16D8F5
:10BAC000009B052B0DD0009B052B10D8009B032B52
:10BAD00003D0009B042B02D009E001230AE00023DD
