:020000022000DC
:106000000000012019620200016202000362020026
:10601000056202000762020009620200000000003F
:106020000000000000000000000000000B62020001
:106030000D620200000000000F6202001162020007
:10604000BD1F030013620200212D0300B14A0300AB
:1060500013620200136202001D2C03001D320300B4
:106060001362020013620200136202001362020054
:106070001362020013620200136202001362020044
:10608000D14C0300E16103001362020013620200BD
:10609000136202001362020099A10300136202005E
:1060A0001362020013620200136202001362020014
:1060B00013620200136202000000000000000000F2
:1060C00013620200136202001362020013620200F4
:1060D000136202001362020013620200000000005B
:1060E00000000000000000000000000000000000B0
:1060F00000000000000000000000000000000000A0
:10610000000000000000000000000000000000008F
:10611000000000000000000000000000000000007F
:10612000000000000000000000000000000000006F
:10613000000000000000000000000000000000005F
:10614000000000000000000000000000000000004F
:10615000000000000000000000000000000000003F
:10616000000000000000000000000000000000002F
:10617000000000000000000000000000000000001F
:10618000000000000000000000000000000000000F
:1061900000000000000000000000000000000000FF
:1061A00000000000000000000000000000000000EF
:1061B00000000000000000000000000000000000DF
:1061C00000000000000000000000000000000000CF
:1061D00000000000000000000000000000000000BF
:1061E00000000000000000000000000000000000AF
:1061F000000000000000000000000000000000009F
:10620000FEE7FEE7FEE7FEE7FEE7FEE7FEE7FEE766
:10621000FEE7FEE700F002B8FFF7FCBF0F484FF0C3
:106220000701884385460E4880470E48016841F4BF
:1062300070010160BFF34F8FBFF36F8F00F01AB88A
:1062400009480A490A4A884207D0521A05D00378F9
:1062500001300B700131013AF9D170470000012083
:1062600081C9020088ED00E004B50300C8390020B0
:10627000DC39002039493A480A1A02D007229143F2
:106280008D46384938480A1A06D00722914381F3CF
:106290000988022282F3148834483549354A00F0CF
:1062A0003EF835483549364A00F039F83548364920
:1062B000364A00F034F836483649374A00F02FF8AD
:1062C00036483749374A00F02AF837483749384ABC
:1062D00000F025F837483849384A00F020F83848A7
:1062E0003849002200F033F837483849002200F0DE
:1062F0002EF837483749091A14F0D7FD364A904727
:1063000024482549884205D00268043003B49047E8
:1063100003BCF7E700200021304A9047FEE788429F
:1063200014D0521A12D003460B43134303242342C2
:1063300006D1036804300B600431043AF9D1704788
:10634000037801300B700131013AF9D1704788426E
:1063500002D002700130FAE770470000000001200F
:1063600000F80020000001200000012048E40300A4
:10637000DC390020D0450020E0630200E063020029
:106380005EB3030048E40300DC390020DC39002060
:1063900018B5030018B5030018B5030018B50300BD
:1063A00018B5030018B5030018B5030018B50300AD
:1063B00046E403003CF00300D0450020D045002017
:1063C000D0450020A85A0020A85A0020A85A002032
:1063D000A85A0020A862002041620200D5BC020039
:1063E000024B0022C3F8002500BF70470070004038
:1063F00082B003468DF80730114B1B789DF80720BB
:106400009A420BD99DF807300D4A12789B1A012B3E
:1064100010DD0B4A9DF8073013700BE0084B1B781A
:106420001A469DF80730D31A012B03DD044A9DF864
:1064300007301370024B1B78184602B0704700BF3C
:10644000DC45002084B00346ADF80630BDF80630C8
:1064500041F26702934201D9642319E0BDF8063086
:1064600040F64852934201D8002311E0BDF80630AF
:10647000A3F64853642202FB03F303F5C873064AEC
:1064800082FB03121212DB17D31A0393039BDBB2B6
:10649000184604B0704700BF1F85EB51014B1B68C5
:1064A00018467047D8450020014B1B6818467047B6
:1064B000D445002010B586B0019000F013F90DF11D
:1064C0000E03194600200DF09BF90590BDF90E2032
:1064D000294B1A80059B002B39D1274B1B881BB2F7
:1064E0001A464FF4166302FB03F3244AA2FB03236C
:1064F0005B0A0493049B5B00214A1360204B1B68DA
:106500009BB21846FFF79EFF03461846FFF770FF41
:1065100003461A461B4B1A601B4A1C4BD31ADB0856
:106520001B0443F00304164B1B689BB21846FFF78D
:1065300089FF03461846FFF75BFF03461A460E4BDA
:106540001B881BB21249204612F01BFD0BE00E4ABD
:106550000E4BD31ADB081B0443F00103059A0D49C7
:10656000184612F0FEFC00F0A5F8034B1B881BB286
:106570009BB2184606B010BDD045002081808080B7
:10658000D8450020D44500207CB403004CB403005F
:1065900018B5030038B5030000B585B00190019B24
:1065A0001B78002B0CD1019B5B68B3F90020064BD4
:1065B0001A80019B5B68012118460DF0CBF903900E
:1065C00000BF05B000BD00BFD045002000B583B0BE
:1065D0000190019B1B68184600F050F80346002B01
:1065E00004D105494FF4F67004F032FC4FF0A0439B
:1065F000184603B000BD00BF4CB5030000B585B020
:106600000190084611461A4603468DF803300B46A2
:106610008DF8023013468DF8013001AB1846FFF7B4
:10662000D5FF03909DF803209DF802305B001A43CC
:106630009DF801309B001A439DF818301B0242EA76
:1066400003019DF81C301B04019A1943039B02F5BA
:10665000E07243F8221000BF05B000BD00B585B060
:1066600003900023019300230093002301220021C3
:106670000398FFF7C3FF00BF05B000BD84B00190D1
:10668000019B5B09029300230393029B002B03D120
:106690004FF0FF33039300BF019B03F01F030193EF
:1066A000039A019B22FA03F303F00103DBB21846BD
:1066B00004B0704708B5FFF793FE0CF04BFF074B93
:1066C0000022C3F80025064B00221A60044B1B6809
:1066D0000220FFF7C3FF00BF08BD00BF00700040ED
:1066E000FC7F004000B589B01F4B1B68049300235A
:1066F0008DF813301D4B0122C3F800251C4B0122DD
:106700001A601B4B1B6804AB1A4918460CF0B2FE0A
:106710000790079B0693069B002B04D0164A9A21EC
:1067200006980EF011FC154A01AB07CA03C31A7094
:1067300000238DF8073002238DF8063005238DF8ED
:10674000083001AB194600200CF06CFF0790079B46
:106750000593059B002B04D0074AA32105980EF052
:10676000F3FB00BF09B000BDC4B5030000700040DA
:10677000FC7F0040996502007CB50300C8B50300AA
:1067800000B585B001900B46ADF8023013468DF888
:106790000130019B0393012005F05CF8BDF8023045
:1067A000132B45D9039B1B78F02B32D0F02B41DC07
:1067B000302B31D0302B3DDC212B20D0212B39DC6C
:1067C000202B0ED0202B35DC182B2DD0182B31DCB4
:1067D000172B25D0172B2DDC122B09D0142B14D0FE
:1067E00028E09DF901301946039800F005F922E0F0
:1067F0009DF901301946039800F02CF81BE003982E
:1068000000F04EF901F012FB15E0039800F076F964
:1068100011E001F0ABF80EE0039803F091FD0AE0FF
:10682000039803F03DF806E0039801F0C7F802E092
:1068300000BF00E000BF05B000BD000082B00190C5
:10684000034B1B680133024A136000BF02B070475C
:10685000E445002000B58BB001900B468DF8033065
:1068600004AB14220021184614F00AFC13238DF8FF
:106870001030FFF719FE03468DF82730234B1B68B5
:10688000CDF811309DF827308DF81530FFF706FE52
:1068900003461F4AA2FB03235B098DF826309DF8AF
:1068A00026308DF8163001238DF8173001238DF82E
:1068B000183002238DF819309DF803308DF81A3006
:1068C0009DF82630222B07D89DF81B30022262F358
:1068D00001038DF81B3011E09DF82730272B07D8D6
:1068E0009DF81B30012262F301038DF81B3005E097
:1068F0009DF81B3023F003038DF81B3004AB1421EB
:10690000184604F0DBFE00BF0BB000BDE4450020DC
:106910001F85EB5100B589B001900B468DF803300F
:1069200003AB14220021184614F0AAFB16238DF89D
:106930000C3001238DF80D3003AB1421184604F000
:10694000BDFE00BF09B000BD00B58BB0019003AB28
:1069500014220021184614F093FB11238DF80C30FB
:106960001F4B1B88DBB28DF80D3003AB184603F0CC
:10697000EFFE03468DF8273003AB1421184604F0D0
:106980009DFE0890089B002B03D0164B00221A7026
:1069900023E09DF82730002B03D0114B1B88FF2BE1
:1069A0000ED1104B00221A700F4A104BD31ADB087D
:1069B0001B0443F003030E49184612F0C5FA0CE01D
:1069C000074B1B8801339AB2054B1A80094B0022F2
:1069D0004FF4005118460EF0D1FE0BB000BD00BFC1
:1069E000DE450020E04500207CB403004CB40300E9
:1069F000E0B50300E039002000B58BB001900B46F4
:106A00008DF8033003F064FD099000F05BFE089000
:106A100002AB14220021184614F032FB03F01EFFD3
:106A200010238DF8083003F097FD0346CDF80930A8
:106A3000DDF80930642B03D964238DF80D3004E0B0
:106A4000DDF80930DBB28DF80D30124B1B7883F086
:106A50000103DBB2002B19D002AB1421184604F05D
:106A60002DFE0790079B002B10D19DF80D30002BB9
:106A70000CD0094B00221A80064B01221A70074BDA
:106A800000224FF4005118460EF078FE00BF0BB004
:106A900000BD00BFE0450020DE450020E0390020B9
:106AA00000B585B0019003F013FD0390019B5B7866
:106AB0001A460B4B1B889A420ED103F0C5FE094AB9
:106AC000094BD31ADB081B0443F00300019B5B78DE
:106AD0001A46064912F045FA00BF05B000BD00BFD6
:106AE000DE4500207CB403004CB4030008B603006C
:106AF00082B0019000BF02B07047000000B58BB0BB
:106B0000019003AB14220021184614F0B9FA1523A2
:106B10008DF80C3001238DF80D30FFF7C5FC09907E
:106B200001238DF80E3003AB1421184604F0C6FD86
:106B30000890089B002B0AD19DF80E30002B06D13F
:106B4000044B002240F6CD4118460EF017FE00BF60
:106B50000BB000BD003A002000B583B0124A0021FE
:106B600012480EF0D1FD0190114A002111480EF09B
:106B7000CBFD0190104A012110480EF0C5FD019097
:106B80000F4B00224FF4804118460EF0F7FD019B99
:106B90000093009B002B04D00A4ACC2100980EF0F1
:106BA000D3F900BF03B000BD49690200D4B50300AA
:106BB000F16A0200D8B503003D680200DCB50300AD
:106BC000203A00201CB6030076DF704700BF18464D
:106BD0008BDF704700BF18468CDF704700BF184638
:106BE00000B583B00190019902480AF0EBFC00BFA8
:106BF00003B000BDE845002000B585B06B46082213
:106C00000021184614F03CFA0A4B00930A4B0193FA
:106C10006B46184608F0FAFC0390039B0293029B14
:106C2000002B04D0054A452102980EF08DF900BFD3
:106C300005B000BDE16B0200144000207CB60300EB
:106C400000B583B00190019B132B0BD1094A0A4B6D
:106C5000D31ADB081B0443F002030849184612F05C
:106C600073F904E0064A512101980EF06DF903B062
:106C700000BD00BF7CB403004CB40300CCB60300DD
:106C80007CB6030000B589B00190009100238DF817
:106C90001F30524A524BD31ADB081B0443F0030047
:106CA000009B1B781A464F4912F05BF9009B1B783A
:106CB000022B00F08380022B00F38C80002B02D08B
:106CC000012B38D086E0454A454BD31ADB081B041C
:106CD00043F003034449184612F036F9009B5988E3
:106CE000009B0E331A4601980AF056FE0590059B4C
:106CF0000493049B002B04D03C4A6F2104980EF0AF
:106D000023F901980AF0C6FD0590059B0393039BA8
:106D1000002B04D0354A712103980EF015F92F4A43
:106D20002F4BD31ADB081B0443F0030330491846EA
:106D300012F00AF94EE004F059FF03468DF81F30B7
:106D4000264A274BD31ADB081B0443F00300009BA1
:106D50009B891A46274912F004F90023069312E092
:106D60001E4A1F4BD31ADB081B0443F00300009B91
:106D70009A68069B13441B781A461F4912F0F1F8D3
:106D8000069B01330693009B9B891A46069B934200
:106D9000E6D3124A124BD31ADB081B0443F0030359
:106DA0001649184612F0D0F8009B9868009B9B8902
:106DB0009DF91F201946FFF7E3FC0BE0074A084B3B
:106DC000D31ADB081B0443F003030D49184612F0E5
:106DD000BBF800BF00BF09B000BD00BF7CB403001A
:106DE0004CB4030000B703001CB703007CB60300DB
:106DF00030B7030060B7030070B7030078B7030033
:106E00007CB7030000B587B00C4B01930C4B029389
:106E10000C4B039301AB19460B480AF065FC059037
:106E2000059B0493049B002B04D0084A99210498E5
:106E30000EF08AF800BF07B000BD00BF856C0200ED
:106E4000416C020014400020E84500207CB603009D
:106E500070B5ACB00590059B5B68269300F032FCE2
:106E60002590059B1B78062B1CD0062B00F3CF81A9
:106E7000052B08D0052B00F3CA81032B42D0042B2D
:106E800000F0B981C3E1059B5B682393239B2293A8
:106E9000229B002B00F0BD81AA4AAB2122980EF064
:106EA00053F8B6E1A84AA94BD31ADB081B0443F0F8
:106EB0000303A749184612F047F8059B5B68249323
:106EC000A14AA24BD31ADB081B0443F00300249B06
:106ED0005B781D46249B9B781E46249BDB781A46D4
:106EE000249B1B791946249B5B791C46249B9B7928
:106EF000039302940191009233462A46954912F079
:106F000098F88BE1059B5B682193219B002B00F097
:106F10008581219B9B69002B00F08081219B9B8BAD
:106F2000002B00F07B810023ADF8AE300023ADF8DC
:106F30006E300023ADF86E30219B9869219B998BB0
:106F40000DF16E02092306F0DCFB0346ADF8AE300E
:106F5000BDF8AE30002B0ED10023ADF86E30219B72
:106F60009869219B998B0DF16E02082306F0C9FBED
:106F70000346ADF8AE30BDF8AE30002B00F04E81C8
:106F8000BDF8AE301F2B00F24981BDF86E301A46B5
:106F9000BDF8AE301344219A928B934200F33B81AB
:106FA000219B9B69BDF86E201344209306AB2022E1
:106FB0000021184614F064F8BDF8AE2006AB209905
:106FC000184614F02BF8BDF8AE30B0336B440022F5
:106FD00003F8982C5C4A5D4BD31ADB081B0443F082
:106FE0000300BDF8AE2006AB5B4911F0CAFF259B3C
:106FF00020331793259B40331893259B60331993B7
:10700000259B80331A9304231F9300238DF8AD3002
:1070100000232A9349E02A9B9B00B0336B4453F82A
:10702000543C002B3BD02A9B9B00B0336B4453F85D
:10703000543C184613F0A3FF1E901E9B002B30D02B
:10704000BDF8AE301E9A9A422CD82A9B9B00B033D2
:107050006B4453F8543C1E9A1946209813F06AFF6B
:107060000346002B1ED10023ADF85A30219B9869AE
:10707000219B998B0DF15A02FF2306F042FB034638
:10708000ADF87630219B9A69BDF85A30023313442B
:107090001B78012B0ED101238DF8AD300AE000BF23
:1070A00000E000BF2A9B01332A932A9A1F9B9A4231
:1070B000B1D300E000BF9DF8AD30002B00F0AD80F3
:1070C000219B02331C9300238DF8A73000232893C3
:1070D0002BE02249289A1346DB0013440B441B780B
:1070E000002B1FD0289A1346DB0013441B4A13447D
:1070F000D81C1C9B01330622194613F01BFF0346C4
:10710000002B0FD1219B93F913001449289A1346A1
:10711000DB0013440B44013302461A7001238DF83F
:10712000A73005E0289B01332893289B032BD0DD53
:107130009DF8A73083F00103DBB2002B6DD0002354
:10714000279354E07CB603007CB403004CB40300E6
:107150008CB70300A8B70300D8B7030094480020F9
:107160003049279A1346DB0013440B441B78002B4D
:107170003AD12C49279A1346DB0013440B440122D1
:107180001A70279A1346DB001344264A134402332D
:1071900007221C99184613F041FF0EAB2022002154
:1071A000184613F06DFFBDF8AE200EAB20991846BF
:1071B00013F034FF1C4A1D4BD31ADB081B0443F0A9
:1071C00003030EAA1A49184611F0CBFE219B93F92E
:1071D00013001449279A1346DB0013440B44013370
:1071E00002461A7000BF18E0279B01332793279BA4
:1071F000032BB5DD11E00C4A0C4BD31ADB081B0442
:1072000043F003030B49184611F09EFE06E000BF51
:1072100004E000BF02E000BF00E000BF00BF2CB0F0
:1072200070BD00BF944800207CB403004CB4030040
:10723000F4B7030000B8030000B587B001900B4617
:10724000ADF80230019B0593154ABDF8023013805A
:10725000BDF802300022194612480AF09DFB049046
:10726000049B0393039B002B05D00F4A4FF4A2719C
:1072700003980DF069FE059B9B8819460B4808F0A2
:1072800089FA0490049B0293029B002B05D0064AC6
:1072900040F2471102980DF057FE00BF07B000BD45
:1072A00028400020E84500207CB60300403A00203A
:1072B00000B585B001900B46ADF802301346ADF82D
:1072C0000030BDF802301A46019904480AF0FEFA6F
:1072D0000390039B184605B000BD00BFE8450020A1
:1072E00000B583B0144B1B884FF6FF7293420BD14D
:1072F000124A134BD31ADB081B0443F00303114952
:10730000184611F021FE15E00B4B1B88132118467F
:10731000FFF75AFC0190019B002B0BD0074A084B4A
:10732000D31ADB081B0443F00103019A06491846EF
:1073300011F017FE03B000BD284000207CB403000C
:107340004CB4030014B8030024B8030010B58AB08D
:107350004FF0FF33099381238DF8233000230793E7
:1073600024E03949079A1346DB0013440B441B7889
:10737000002B18D03449079A1346DB0013440B4402
:10738000013393F900309DF923209A420BDA2E49FC
:10739000079A1346DB0013440B4401331B788DF826
:1073A0002330079B0993079B01330793079B032B0C
:1073B000D7DD099B002B01DA052341E0234A244B4A
:1073C000D31ADB081B0443F00300099A9DF923300C
:1073D000204911F0D6FD04AB07220021184613F016
:1073E0004FFE099A1346DB001344174A13449A1CB4
:1073F00004AB106818609188927999809A71164B45
:107400006C460C330FCB07C423804FF47A73ADF86E
:107410000630694604A80123104AFFF7DDFB0690F9
:10742000069B002B0BD0094A094BD31ADB081B041F
:1074300043F00303069A0A49184611F092FD069B91
:1074400018460AB010BD00BF944800207CB4030069
:107450004CB403003CB803004C4800204E480020C8
:107460005CB8030000B583B0114A124BD31ADB0895
:107470001B0443F003031049184611F065FDFFF7A4
:10748000A7FB0190019B002B0ED0019B082B0BD07A
:10749000074A084BD31ADB081B0443F00103019A87
:1074A0000649184611F05DFD00BF03B000BD00BFE6
:1074B0007CB403004CB4030070B8030080B8030030
:1074C00000B583B0104A114BD31ADB081B0443F0FC
:1074D00003030F49184611F037FD242200210D48FF
:1074E00013F0CEFD0C4809F09DFD0190019B009327
:1074F000009B002B05D0094A4FF4E97100980DF06C
:1075000023FD00BF03B000BD7CB403004CB40300F6
:107510009CB80300944800204C4800207CB603002F
:1075200000B587B06B4600221A605A609A60DA6034
:1075300000238DF80C300D4A137B43F004031373C2
:107540006B460B4A1946094809F013FD0590059B47
:107550000493049B002B05D0064A4FF4F171049864
:107560000DF0F2FC00BF07B000BD00BF4C4800208A
:10757000516E02007CB6030000B585B00190019BFE
:10758000084A9A60019B084ADA60FFF735FBFFF76B
:1075900039FCFFF7C5FF00F095F8039000BF05B078
:1075A00000BD00BF39720200B172020041DF7047B6
:1075B00000BF184600B583B00190019B5B68002BAB
:1075C00012D01A4A1A4BD31ADB081B0443F00100ED
:1075D000019B1B781A46019B5B68164911F0D1FC90
:1075E000012002F009F81EE0019B1B78012B02D05C
:1075F000022B0CD017E00D4A0D4BD31ADB081B04ED
:1076000043F003030C49184611F09EFC0BE0074AB7
:10761000074BD31ADB081B0443F003030749184642
:1076200011F092FC00BF03B000BD00BF7CB40300AA
:107630004CB40300ACB80300DCB80300F4B803009A
:1076400086B0019000914FF6FF73ADF8163000231D
:1076500004932DE0019A049B13441B781BB21B0278
:107660001AB2BDF9163053401BB2ADF816300023E4
:10767000039317E0BDF91630002B0BDABDF9163075
:107680005B001BB283F4815383F001031BB2ADF89E
:10769000163004E0BDF816305B00ADF81630039BE1
:1076A00001330393039B072BE4D9049B0133049319
:1076B000049A009B9A42CDD3BDF81630184606B006
:1076C00070470000014B1846704700BF2C40002057
:1076D00008B501E0FFF76AFF04480FF02DFE0346EE
:1076E000002BF7D100BF00BF08BD00BFC839002084
:1076F00000B585B0019000230393019B23F47F63C1
:1077000023F00F0302930023012202990C480FF08B
:107710007BFD0390039B002B0BD00A4A0A4BD31A24
:10772000DB081B0443F00103039A0849184611F0D3
:1077300018FCFFF7CDFF039B184605B000BD00BF46
:10774000C83900207CB403004CB403000CB903001A
:1077500000B589B0059004911346ADF80E300023B2
:107760000793059BC3F30B03002B4CD13E4A3F4BC1
:10777000D31ADB081B0443F00303059A3C4918465F
:1077800011F0EFFB384A394BD31ADB081B0443F0E6
:107790000303384AD2683849184611F0E2FB324AEE
:1077A000324BD31ADB081B0443F00303314A12693E
:1077B0003249184611F0D5FB2B4A2C4BD31ADB0863
:1077C0001B0443F00303059A2D49184611F0C9FB29
:1077D00000230122059927480FF016FD0790079B0B
:1077E000002B10D0012001F007FF1F4A1F4BD31AB6
:1077F000DB081B0443F00103079A2249184611F0E5
:10780000B0FB079B2DE0FFF763FFBDF80E300022B1
:107810000092049A059917480FF014FC0790079BF3
:10782000002B0CD1104A114BD31ADB081B0443F078
:107830000303059A1449184611F093FB0EE001204A
:1078400001F0DAFE084A094BD31ADB081B0443F0A7
:107850000103079A0D49184611F083FBFFF738FF23
:10786000079B184609B000BD7CB403004CB403006C
:1078700024B90300C839002054B9030068B90300D3
:107880007CB903000CB9030090B90300A4B903004C
:107890002DE9F04387B0039002911346ADF806300E
:1078A000029B002B03D0BDF80630002B01D107232B
:1078B0004DE0039BB3F5802F11D3039B0022984624
:1078C0009146BDF8063000221E46174618EB060406
:1078D00049EB0705204B9C4275F100030ED31F4A6C
:1078E0001F4BD31ADB081B0443F00100BDF8063020
:1078F000039A1C4911F045FB102328E00023ADF842
:10790000163010E0BDF81620039B13441946BDF84D
:107910001630029A13440A78D2B21A70BDF81630A3
:107920000133ADF81630BDF81620BDF806309A4286
:10793000E8D30A4A0A4BD31ADB081B0443F00300BE
:10794000BDF80630039A084911F01BFB00231846C6
:1079500007B0BDE8F08300BF017007007CB40300EE
:107960004CB40300BCB90300ECB90300024B012284
:107970001A7000BF704700BFB8480020024B0122B8
:107980001A7000BF704700BFB948002008B5094B06
:107990001B78002B04D0074B00221A7000F0B0F8BF
:1079A000054B1B78002B03D04FF4EC20FFF7A0FE13
:1079B00000BF08BDB9480020B848002000B585B018
:1079C000019000238DF80F30019B5B78082B70D05D
:1079D000082B7ADC072B61D0072B76DC062B49D0ED
:1079E000062B72DC042B3AD0042B6EDC032B2BD03D
:1079F000032B6ADC022B1CD0022B66DC002B02D08E
:107A0000012B0BD061E001238DF80F30019B033374
:107A100020221946354813F0C8FA56E001238DF8A4
:107A20000F30019B033320221946314813F0BDFA71
:107A30004BE001238DF80F30019B033320221946C0
:107A40002C4813F0B2FA40E001238DF80F30019B6F
:107A5000033320221946284813F0A7FA35E0012302
:107A60008DF80F30019B033320221946234813F071
:107A70009CFA2AE001238DF80F30019BB3F8033004
:107A80009AB21A4BA3F8C020184BB3F8C030042B9D
:107A90001AD8164B0522A3F8C02015E001238DF853
:107AA0000F30019BB3F903301AB2104BA3F8C22078
:107AB0000BE001238DF80F30019BB3F803309AB22D
:107AC0000A4BA3F8C42000E000BF9DF80F30002B44
:107AD00008D0FFF753FF019B19221A701421019857
:107AE00003F0ECFD00BF05B000BD00BF2C4000203E
:107AF0004C4000206C4000208C400020AC40002016
:107B000000B5BDB0EE211C48FFF79AFD03461A46AA
:107B1000194BA3F8EE20F02217494FF4EC20FFF7A1
:107B200017FE6B46F02219464FF4EC20FFF7B0FE2B
:107B30006B46F0221946104813F0FCF90346002B5F
:107B40000BD10E4A0E4BD31ADB081B0443F0030380
:107B50000C49184611F0F8F90AE0084A084BD31A04
:107B6000DB081B0443F003030749184611F0ECF946
:107B700000BF3DB000BD00BF2C4000207CB403001E
:107B80004CB40300A0BB0300B0BB030000B583B03E
:107B90000022044904480FF00FFA0190019B184697
:107BA00003B000BDC4D30300C8390020BFF34F8F1A
:107BB00000BF064BDB6803F4E0620449044B134347
:107BC000CB60BFF34F8F00BF00BFFDE700ED00E0CB
:107BD0000400FA0500B583B00190019B1B681846AC
:107BE00000F0F7F80346002B04D105494FF4F67076
:107BF00003F02EF94FF0A043184603B000BD00BFBC
:107C0000C4BB030000B585B00190084611461A4672
:107C100003468DF803300B468DF8023013468DF87D
:107C2000013001AB1846FFF7D5FF03909DF8032004
:107C30009DF802305B001A439DF801309B001A4307
:107C40009DF818301B0242EA03019DF81C301B040A
:107C5000019A1943039B02F5E07243F8221000BF1A
:107C600005B000BD00B585B003900023019300234B
:107C700000930023012201210398FFF7C3FF00BFF7
:107C800005B000BD00B585B003900B468DF80B30F4
:107C90009DF80B3000220192002200920022002168
:107CA0000398FFF7AFFF00BF05B000BD00B585B07A
:107CB000019001AB1846FFF78DFF0390019B012255
:107CC00002FA03F31946039800F06FF800BF05B0FD
:107CD00000BD00B585B0019001AB1846FFF77AFFF3
:107CE0000390019B012202FA03F31946039800F066
:107CF00066F800BF05B000BD00B585B0019001ABCE
:107D00001846FFF767FF0390039BD3F804350293EF
:107D1000029BDA43019B012101FA03F31A40039B02
:107D2000C3F80825019B01229A40029B1A40039B3D
:107D3000C3F80C2500BF05B000BD00B585B00190AB
:107D400001AB1846FFF746FF0390039800F01DF8BB
:107D50000246019B22FA03F303F00103184605B023
:107D600000BD00B585B0019001AB1846FFF732FFAA
:107D70000390039800F011F80246019B22FA03F3E6
:107D800003F00103184605B000BD82B00190019BCD
:107D9000D3F81035184602B0704782B00190019BAD
:107DA000D3F80435184602B0704782B001900091B4
:107DB000019B009AC3F8082500BF02B0704782B04B
:107DC00001900091019B009AC3F80C2500BF02B0FE
:107DD000704784B00190019B5B09029300230393D9
:107DE000029B002B03D14FF0FF33039300BF019B95
:107DF00003F01F030193039A019B22FA03F303F09C
:107E00000103DBB2184604B07047000008B5064B0A
:107E100001229A71044B3222DA71002200210020E3
:107E200000F052FB00BF08BDC0480020024B0522F5
:107E30001A7200BF704700BFC0480020024B0A22E0
:107E40005A7300BF704700BFC0480020024B012298
:107E5000DA7000BF704700BFC0480020034B01220A
:107E60009A70024B0022DA7000BF7047C0480020B1
:107E700008B5094B01225A711820FFF772FF03461B
:107E8000002B03D0044B1422DA7402E0024B0A22C6
:107E90009A7400BF08BD00BFC0480020024B2822D2
:107EA0001A7300BF704700BFC048002082B0019025
:107EB000019B452B03D9054B0A229A7302E0034B21
:107EC0000A22DA7300BF02B0704700BFC04800202A
:107ED00008B500220021012000F0F6FA054B01222E
:107EE0001A71044B03221A74024B0A225A7400BFFF
:107EF00008BD00BFC048002008B5002200210020B6
:107F000000F0E2FA024B00221A7100BF08BD00BF68
:107F1000C048002008B5FFF729FD012200210020FC
:107F200000F0D2FA064B01225A70054B0F225A720A
:107F3000034B0F229A72024B0F22DA7200BF08BD68
:107F4000C0480020024B00225A7000BF704700BF9B
:107F5000C048002082B003468DF80730064A9DF8DD
:107F600007301370054B01221A70044B05221A7555
:107F700000BF02B0704700BFBA480020C0480020D0
:107F8000024B00221A7000BF704700BFC04800209B
:107F900000B583B00190A04B1B68002B40F05781C7
:107FA0009E4B5B79DBB2002B2FD09C4B9B7CDBB2D2
:107FB000002B14D0994B9B7CDBB2013BDAB2974B80
:107FC0009A7400220121002000F07EFA934B9B7CE2
:107FD000DBB2002B40F03D8103F0B6FD39E18F4B61
:107FE000DB7CDBB2002B0CD08C4BDB7CDBB2013BAF
:107FF000DAB28A4BDA7400220021012000F064FA20
:1080000027E1864B00225A7123E1844B5B78DBB277
:10801000002B39D0814B5B7ADBB2002B0CD07F4B2D
:108020005B7ADBB2013BDAB27C4B5A72012200214F
:10803000002000F049FA13E1784B9B7ADBB2002B69
:108040000CD0764B9B7ADBB2013BDAB2734B9A725F
:1080500000220021012000F037FA01E16F4BDB7AAA
:10806000DBB2002B0CD06D4BDB7ADBB2013BDAB21A
:108070006A4BDA7200220121002000F025FAEFE0BD
:10808000FFF760FFFFF792FD644B9B79DBB2002B9B
:1080900013D0634B1B780133DAB2614B1A705F4B1C
:1080A000DB79DAB25E4B1B789A4280F0D4805C4B6D
:1080B00000221A7000F037FACDE0584B9B78DBB203
:1080C000002B18D01620FFF738FE0346002B01D0F6
:1080D000FFF7BCFE514BDB78DBB2002B05D0002252
:1080E0000121002000F0F0F9BAE000220021012077
:1080F00000F0EAF9B4E0494B1B79DBB2002B22D047
:10810000464B5B7CDBB2013BDAB2444B5A74434BC7
:108110005B7CDBB2002B40F0A080404B0A225A74FB
:108120000D20FFF7E9FD3D4B1B7CDBB2013BDAB2D2
:108130003A4B1A74394B1B7CDBB2002B40F08D801C
:10814000FFF7DAFE89E0354B1B78DBB2002B11D04C
:10815000324B1B7DDBB2013BDAB2304B1A752F4B31
:108160001B7DDBB2002B7AD12C4B05221A7500F057
:10817000E3F974E0294B5B7BDBB2002B0CD0274B7F
:108180005B7BDBB2013BDAB2244B5A730022002145
:10819000012000F099F963E0204B1B7BDBB2002B40
:1081A00015D01E4B1B7BDBB2013BDAB21B4B1A73A3
:1081B0001A4B1B7BDBB2002B03D100210020FEF702
:1081C000A9FB00220121002000F07EF948E0134BBA
:1081D0009B7BDBB2002B0CD0104B9B7BDBB2013BBB
:1081E000DAB20E4B9A7300220121002000F06CF9E4
:1081F00036E00A4BDB7BDBB2002B13D0074BDB7B7B
:10820000DBB2013BDAB2054BDA7300220121012017
:1082100000F05AF924E000BF544D0020C04800206F
:10822000D64800200F4B1B7ADBB2002B0CD00D4B35
:108230001B7ADBB2013BDAB20A4B1A72012201212E
:10824000012000F041F90BE000F032F908E000BF36
:1082500006E000BF04E000BF02E000BF00E000BF96
:1082600003B000BDC048002000B585B001901320C8
:10827000FFF763FD0346DAB22A4B1A702A4A2B4BEA
:10828000D31ADB081B0443F00303264A127828495B
:10829000184610F066FE234B1B78002B3ED1254B71
:1082A0001B680133234A1360224B1B680A2B08D139
:1082B0001820FFF756FD0346002B1ED0FFF72AFEBD
:1082C0001BE01C4B1B68032B0FD11820FFF749FD47
:1082D0000346002B04D1FFF7CBFD00F0E3F80CE0E0
:1082E000FFF7C6FD00F0D8F807E0124B1B68062B1D
:1082F00003D1FFF745FE03F00BFC0F4B00224FF4B8
:10830000804118460DF03AFA0390039B002B05D0EC
:108310000A4A4FF4AC7103980CF016FE00BF05B08A
:1083200000BD00BFD54800207CB403004CB403005E
:10833000F4BB0300BC480020204100200CBC03001B
:1083400000B585B001900B468DF8033000230393F0
:10835000019B132B0AD0019B132B00F28980019BF8
:10836000072B79D0019B112B6ED081E01320FFF7F2
:10837000E4FC0346DAB2404B1A703F4B1B78002BEB
:1083800039D03E4B18460DF051FA03903C4A3D4B14
:10839000D31ADB081B0443F00303039A3A49184637
:1083A00010F0DFFD394B1B68002B18D11820FFF7A8
:1083B000D8FC0346002B12D0FEF776F80290029B01
:1083C000452B03D90298FFF771FD08E0029B1D2B96
:1083D00003D90298FFF76AFD01E0FFF779FD284A0B
:1083E000284BD31ADB081B0443F003032849184623
:1083F00010F0AAFD3CE0254B00221A601F4B1846E6
:108400000DF014FA03901E4A1E4BD31ADB081B040E
:1084100043F00303039A1C49184610F0A2FD174BC2
:1084200000224FF4804118460DF0A8F90390144A39
:10843000144BD31ADB081B0443F00303039A1549BA
:10844000184610F08EFD13E01120FFF776FC03466E
:10845000002B0AD0FFF7AAFB0720FFF76EFC0346AC
:10846000002B04D001F0C4FC01E000BF00E000BF1D
:1084700000BF05B000BD00BFD5480020204100204E
:108480007CB403004CB4030054BC0300BC4800207F
:1084900068BC030080BC030008B51820FFF719FC76
:1084A00000BF08BD08B51820FFF700FC00BF08BDDD
:1084B00008B50B20FFF70DFC0C20FFF70AFC0D2080
:1084C000FFF707FC00BF08BD00B583B003468DF879
:1084D00007300B468DF8063013468DF805309DF8B1
:1084E0000730002B03D00D20FFF7E0FB02E00D204A
:1084F000FFF7EFFB9DF80630002B03D00B20FFF7B2
:10850000D5FB02E00B20FFF7E4FB9DF80530002BC4
:1085100003D00C20FFF7CAFB02E00C20FFF7D9FBC9
:1085200000BF03B000BD08B50B20FFF7E5FB0C2032
:10853000FFF7E2FB00BF08BD08B51D4B1B78002B01
:108540001AD11C4B1B78002B09D01A4B00221A7031
:108550000D20FFF7BEFB0C20FFF7A8FB08E0154B32
:1085600001221A700D20FFF7A1FB0C20FFF7B1FBD1
:108570000B20FFF7AEFB19E00E4B1B78002B09D048
:108580000C4B00221A700D20FFF7A3FB0B20FFF706
:108590008DFB08E0074B01221A700D20FFF786FBC8
:1085A0000B20FFF796FB0C20FFF793FB00BF08BDE5
:1085B000BA480020D748002000B595B00AF08CF9E1
:1085C000034683F00103DBB2002B0BD00AF020F945
:1085D0001390139B002B05D0714A40F2252113986C
:1085E0000CF0B2FC6F4A00216F480DF08DF812902C
:1085F000129B002B05D06A4A40F2272112980CF0FA
:10860000A3FC6A4A01216A480DF07EF81190119B83
:10861000002B05D0624A40F22A2111980CF094FCFC
:108620000B20FFF71FFB0C20FFF71CFB0D20FFF7B3
:1086300019FB1820FFF716FBFFF73AFFFFF72CFF97
:108640005C4B002240F2666118460DF097F81090DE
:10865000109B002B05D0524A40F2372110980CF0A5
:1086600073FC4FF420330F934FF480430E93002399
:108670008DF81B30002305930023049300230D93F2
:108680004D4A4E4BD31ADB081B0443F003034C49FD
:10869000184610F059FC00211620FFF7F3FA0021CC
:1086A0001320FFF7EFFA00211120FFF7EBFA11205A
:1086B000FFF743FB0346002B00F08C8003F078FAB1
:1086C000FFF7CCFB0DF002F90D901320FFF735FBFF
:1086D0000346002B50D19DF81B30DBB283F0010321
:1086E000DBB2002B12D001238DF81B300D9B0593BC
:1086F0000D9B0493304A314BD31ADB081B0443F023
:1087000003033049184610F01FFCDBE7059B1946B0
:108710000D980DF0CFF80890049B19460D980DF0B8
:10872000C9F802460E9B934210D80D9B0493089BF8
:108730009B0B0793204A214BD31ADB081B0443F001
:108740000303079A2049184610F00BFC089A0F9B68
:108750009A42B7D3174B18460DF068F8164A174BD4
:10876000D31ADB081B0443F003031849184610F022
:10877000EBFB01F045F8A5E79DF81B30DBB2002BC1
:10878000A0D00D4A0D4BD31ADB081B0443F00303A2
:108790000F49184610F0D8FB00238DF81B3091E7E5
:1087A0000CBC03006982020038BD0300917F020007
:1087B0003CBD0300404100207CB403004CB40300E6
:1087C00094BC0300B4BC0300D0BC0300E8BC0300AD
:1087D00010BD030003238DF80C3000238DF80D30FD
:1087E0009DF80E3023F001038DF80E309DF80E3009
:1087F00023F002038DF80E309DF80E3023F00403B1
:108800008DF80E3000238DF80D3003AB454A194624
:1088100013200AF06DF80C900C9B002B05D0424AF7
:1088200040F27D210C980CF08FFB012113200AF0FF
:10883000DBF803238DF8083000238DF809309DF80C
:108840000A3023F001038DF80A309DF80A3023F036
:1088500002038DF80A309DF80A3023F004038DF8E6
:108860000A3000238DF8093002AB2E4A1946072042
:108870000AF03EF80B900B9B002B05D02A4A40F2E1
:1088800082210B980CF060FB012107200AF0ACF864
:1088900003238DF8043000238DF805309DF8063051
:1088A00023F001038DF806309DF8063023F0020313
:1088B0008DF806309DF8063023F004038DF806305D
:1088C00000238DF8053001AB164A194611200AF035
:1088D0000FF80A900A9B002B05D0134A40F287211B
:1088E0000A980CF031FB012111200AF07DF81320C9
:1088F000FFF723FA0346002B10D10C4B00224FF454
:10890000804118460CF03AFF0990099B002B05D0D6
:10891000054A4FF4237109980CF016FB00BF15B0FF
:1089200000BD00BF418302000CBC030020410020B9
:1089300072DF704700BF184673DF704700BF1846EC
:1089400074DF704700BF184676DF704700BF1846D7
:1089500077DF704700BF18467CDF704700BF1846BE
:1089600033DF704700BF184600B587B00190002381
:108970008DF8173000238DF80F30019B1B78002BEA
:1089800002D0032B43D04EE003F030F903468DF8BC
:108990001730264A264BD31ADB081B0443F003008A
:1089A000019B9B8A1A46234910F0DBFA00230493AB
:1089B00012E01E4A1E4BD31ADB081B0443F00300CF
:1089C000019B1A69049B13441B781A461A4910F03C
:1089D000C8FA049B01330493019B9B8A1A46049BAB
:1089E0009342E6D3114A124BD31ADB081B0443F01F
:1089F00003031249184610F0A7FA019B1869019B5E
:108A00009B8A9DF917201946FDF7BAFE0BE0074A2D
:108A1000074BD31ADB081B0443F00303084918462D
:108A200010F092FA00BF00BF07B000BD7CB4030095
:108A30004CB4030040BD03004CBD030054BD030013
:108A400058BD030000B583B0FFF78AFF0190019B7A
:108A50000093009B002B04D0034A562100980CF091
:108A600073FA00BF03B000BD74BD030000B583B04E
:108A700003468DF807309DF80730002B01D0032BFB
:108A800002E0FFF7DFFF00BF00BF03B000BD000042
:108A900000B583B00190044A712101980CF054FA9A
:108AA00000BF03B000BD00BF74BD030000B587B0B8
:108AB00000230193164B019301AB1946154808F0AA
:108AC0001EF80590059B0493049B002B04D0124ACA
:108AD000802104980CF038FA02AB042200211846D9
:108AE00012F0CEFA0D4B029302AB19460C4808F077
:108AF00059FC0590059B0393039B002B04D0064A69
:108B0000882103980CF020FA00BF07B000BD00BF19
:108B1000918A0200E048002074BD030069890200C8
:108B20006C41002000B5AFB001ABAC22002118466B
:108B300012F0A6FA02238DF8043000238DF80630D7
:108B400005238DF807300123ADF85030124B1593F3
:108B500001238DF87C3001238DF88030A0232393EE
:108B6000002324930D4B2A9301AB19460C4805F0C2
:108B700097F82D902D9B2C932C9B002B04D0094A09
:108B8000A1212C980CF0E0F90121054805F07BF8B3
:108B900000BF2FB000BD00BF884100206D8A0200D9
:108BA000EC48002074BD030000B585B001900B4671
:108BB000ADF802300B4ABDF802301380BDF8023028
:108BC0001946094807F0BDFF0390039B0293029BDF
:108BD000002B04D0054AAB2102980CF0B5F900BF78
:108BE00005B000BD60410020E048002074BD0300D6
:108BF00000B585B001900B46ADF802301346ADF8D4
:108C00000030BDF800300DF102020199034808F070
:108C10006FFC0390039B184605B000BD6C4100201B
:108C200000B583B0144B1B884FF6FF7293420BD1F3
:108C3000124A134BD31ADB081B0443F003031149F8
:108C4000184610F081F915E00B4B1B8813211846CC
:108C5000FFF77AFE0190019B002B0BD0074A084BCF
:108C6000D31ADB081B0443F00103019A0649184696
:108C700010F077F903B000BD604100207CB4030020
:108C80004CB40300C8BD0300D8BD030000B583B0D9
:108C9000194A1A4BD31ADB081B0443F00303184983
:108CA000184610F051F9174B93F854301846FFF757
:108CB00047FE0190104A114BD31ADB081B0443F006
:108CC0000300104B93F854301A46019B0E4910F0E4
:108CD00058F9019B002B0CD0019B082B09D0019B5C
:108CE0000093009B002B04D0084AD22100980CF07E
:108CF0002BF900BF03B000BD7CB403004CB40300EB
:108D0000F0BD0300EC48002000BE030074BD03006A
:108D100000B585B001909DF80830012262F303038D
:108D20008DF808309DF80830012262F307138DF8A2
:108D30000830019812F023F903469AB202AB019968
:108D40001846FFF709FE039000BF05B000BD000004
:108D500000B59BB0FEF7B6FC189000238DF8673085
:108D600008AB3C220021184612F08AF902238DF844
:108D7000203004238DF8233000238DF8223002F0B8
:108D80006BFB0346002B07D0274B44F221321A809D
:108D900004238DF8673008E0234B41F234221A8017
:108DA000189BB3F9C2308DF86730189B03F1A0020D
:108DB0006B461E49184611F05BFD1B4A6B469360DB
:108DC0006B46184612F0DBF803469AB2164B9A80AF
:108DD000154B129301238DF84C30154B93F85430FA
:108DE00019469DF967301A460120FFF7B1FD17902B
:108DF000179B002B14D10F4A0F4BD31ADB081B040F
:108E000043F00303179A0D49184610F0AAF808AB6F
:108E100000221946064805F05CF91790179B00E000
:108E2000179B18461BB000BD204D002024BE030038
:108E3000EC4800207CB403004CB4030028BE0300BF
:108E400000B595B0FEF73EFC13902F4B1B788DF8C4
:108E500006302E4A2E4BD31ADB081B0443F00303C3
:108E6000294A12782B49184610F07BF80123ADF8F7
:108E7000043002AB3C220021184612F001F906230F
:108E80008DF80B3002238DF8083002F0E5FA034626
:108E9000002B04D0204B44F221321A8003E01E4BF9
:108EA00041F234221A80139BA0331B4A9360139B18
:108EB000A033184612F063F803469AB2164B9A8014
:108EC000154B0C9301238DF8343002AB0022194668
:108ED000124805F0FEF81290129B002B01D0129B55
:108EE0000EE004238DF847300C4B93F854301946AC
:108EF0009DF947301A460120FFF72AFD1290129B78
:108F0000184615B000BD00BF6C4100207CB40300C2
:108F10004CB4030044BE03002C4D0020EC4800205C
:108F200000B587B003900B4601928DF80B303A4A9A
:108F30003A4BD31ADB081B0443F003039DF80B20C4
:108F40003749184610F00DF8FEF7BCFB04900023DB
:108F50000593039B002B01D1049B03939DF80B30D9
:108F6000002B34D00398FFF7D3FEFFF7F1FE034642
:108F7000002B02D0059B013305932A4B052283F871
:108F80003C20049BB3F8C430DB00274A82FB031269
:108F90005210DB17D31A1A46224B5A64234A24492B
:108FA0002448FFF7C5FC0346002B02D0059B013384
:108FB00005931C4B93F8543001211846FFF7BCFC75
:108FC0000346002B1FD0059B013305931BE003983C
:108FD000FFF79EFEFFF734FF0346002B02D0059BF0
:108FE000013305930F4BA0225A610E4B012283F8E7
:108FF0003C2003210B4804F02BFF0346002B02D03A
:10900000059B01330593059B002B02D0082000F03F
:10901000F3FA00BF07B000BD7CB403004CB40300FA
:1090200054BE0300EC4800206766666628490020AD
:10903000FC4C00204049002000B583B00190019B0A
:10904000054A1A60019B054A5A60FFF72FFDFFF79A
:1090500069FD00BF03B000BDA98B0200F18B0200C7
:1090600076DF704700BF18467FDF704700BF1846A5
:109070008FDF704700BF1846B1DF704700BF18464A
:1090800000B583B00190019B1B68184600F0DBF827
:109090000346002B04D105494FF4F67001F0D8FEC9
:1090A0004FF0A043184603B000BD00BF68BE0300E8
:1090B00000B585B00190084611461A4603468DF862
:1090C00003300B468DF8023013468DF8013001ABAA
:1090D0001846FFF7D5FF03909DF803209DF8023056
:1090E0005B001A439DF801309B001A439DF818302D
:1090F0001B0242EA03019DF81C301B04019A19432C
:10910000039B02F5E07243F8221000BF05B000BDDA
:1091100000B585B003900023019300230093002342
:10912000012201210398FFF7C3FF00BF05B000BD76
:1091300000B585B003900B468DF80B309DF80B30D1
:109140000022019200220092002200210398FFF7E2
:10915000AFFF00BF05B000BD00B585B0019001AB09
:109160001846FFF78DFF0390019B012202FA03F3DB
:109170001946039800F053F800BF05B000BD00B5D4
:1091800085B0019001AB1846FFF77AFF0390019B71
:10919000012202FA03F31946039800F04AF800BFCF
:1091A00005B000BD00B585B0019001AB1846FFF7D2
:1091B00067FF0390039BD3F804350293029BDA43C5
:1091C000019B012101FA03F31A40039BC3F8082510
:1091D000019B01229A40029B1A40039BC3F80C2575
:1091E00000BF05B000BD00B585B0019001AB1846C9
:1091F000FFF746FF0390039800F009F80246019B31
:1092000022FA03F303F00103184605B000BD82B053
:109210000190019BD3F81035184602B0704782B018
:1092200001900091019B009AC3F8082500BF02B08D
:10923000704782B001900091019B009AC3F80C2501
:1092400000BF02B0704784B00190019B5B0902939C
:1092500000230393029B002B03D14FF0FF330393B2
:1092600000BF019B03F01F030193039A019B22FAA5
:1092700003F303F00103DBB2184604B070470000AB
:1092800000B58BB00190009100238DF82730019B31
:109290001B88562B00F08D80562B00F39C80522BA0
:1092A00062D0522B00F397803B2B70D03B2B00F306
:1092B0009280212B2CD0212B00F38D80132B40D0BA
:1092C000132B00F38880102B02D0112B0CD082E0DE
:1092D000484A494BD31ADB081B0443F003034749B0
:1092E00018460FF031FE81E0424A434BD31ADB08A7
:1092F0001B0443F00303424918460FF025FE019B6F
:109300001B7A8DF80B303F4B4FF6FF721A806DE0E1
:1093100000238DF8083000238DF80930019B9B88CD
:1093200002AA11461846FFF7A3FE0890089B049373
:10933000049B002B51D0344AC92104980BF004FE41
:109340004BE0304B1888002300228521FFF78CFE6C
:109350000890089B0393039B002B40D02A4ACF21FF
:1093600003980BF0F1FD3AE0264B18880023002209
:109370000021FFF781FE0890089B0693069B002BB7
:109380002FD0214AD52106980BF0DEFD29E0019B64
:109390009B8813211846FFF763FE0890089B0593EE
:1093A000059B002B1FD0184ADC2105980BF0CCFD43
:1093B00019E0019B9B8813211846FFF751FE089086
:1093C000089B0793079B002B0FD00F4AE3210798B8
:1093D0000BF0BAFD09E000BF08E000BF06E000BFE7
:1093E00004E000BF02E000BF00E000BF00BF0BB020
:1093F00000BD00BF7CB403004CB40300E0BE03001A
:10940000E8BE03001042002098BE030008B50FF02C
:1094100039FE034683F00103DBB2002B01D00EF0CE
:1094200055FD00BF08BD00B583B001900B468DF817
:109430000330019B132B08D0019B132B1CD8019BDD
:10944000072B10D0019B112B16E01320FFF7CBFE4A
:109450000346002B03D00C20FFF791FE0CE00C20FC
:10946000FFF77AFE08E00720FFF7BDFE0346002B5A
:1094700001D000F0BDFC00BF00BF03B000BD000084
:1094800000B589B0594A02AB1268114619800233FF
:10949000120C1A7002AB564A1946132009F028FA2A
:1094A0000790079B002B05D0524A4FF4B6710798DE
:1094B0000BF04AFD0121132009F096FA03238DF8E1
:1094C000043000238DF805309DF8063023F00103A9
:1094D0008DF806309DF8063023F002038DF8063033
:1094E0009DF8063023F004038DF8063000238DF834
:1094F000053001AB3E4A1946112009F0F9F90690F2
:10950000069B002B05D03B4A4FF4B97106980BF02F
:109510001BFD0121112009F067FA03238DF80030AB
:1095200000238DF801309DF8023023F001038DF8FF
:1095300002309DF8023023F002038DF802309DF8CE
:10954000023023F004038DF8023000238DF801303F
:109550006B46274A1946072009F0CAF90590059B72
:10956000002B05D0234A40F2771105980BF0ECFC54
:109570000121072009F038FA01211620FFF7D8FD54
:109580000B20FFF7C5FD0C20FFF7C2FD0D20FFF7F4
:10959000BFFD1820FFF7BCFD1820FFF7F0FD0CF011
:1095A00095F904904FF4004303930B20FFF7D4FD8B
:1095B0000C20FFF7D1FD0D20FFF7CEFD00BF0CF012
:1095C00085F90346049918460CF074F90246039B8A
:1095D0009342F4D80B20FFF7D2FD0C20FFF7CFFD0C
:1095E0000D20FFF7CCFD00BF09B000BD14BF030084
:1095F0002794020098BE030000B583B001901D4A75
:10960000019B13600B20FFF7BAFD0C20FFF7B7FD9D
:109610000D20FFF7B4FD174B1B68082B1FD0082B3C
:1096200024D8042B14D0042B20D8012B02D0022BD9
:1096300007D01BE0642301220021002000F066F81F
:1096400015E0642300220021012000F05FF80EE005
:10965000642300220121002000F058F807E0642371
:1096600001220121012000F051F800E000BF00BFFD
:1096700003B000BD544D0020024B05221A7000BFFC
:10968000704700BF1242002000B585B00190FCF782
:1096900005FF0390039B41F2CB02934204D8039B46
:1096A00040F64852934202D80220FFF7A5FF084B2C
:1096B0001B78013BDAB2064B1A70054B1B78002B66
:1096C00002D10420FFF798FF00BF05B000BD00BF26
:1096D0001242002000B583B001900D20FFF762FD1B
:1096E00000BF03B000BD00B583B001900C20FFF7B0
:1096F00059FD00BF03B000BD00B583B001900B2041
:10970000FFF750FD00BF03B000BD0000F0B585B00D
:10971000009303468DF807300B468DF8063013464C
:109720008DF80530009B00221C4615464FF00002C4
:109730004FF00003EB0343EA5443E20312F57A7659
:1097400043F100074FF4FA624FF000033046394608
:1097500010F082FF02460B46134603939DF8073034
:10976000002B09D0144B18460CF060F8124B002265
:10977000039918460CF002F89DF80630002B09D02A
:109780000E4B18460CF052F80C4B00220399184669
:109790000BF0F4FF9DF80530002B09D0084B18465C
:1097A0000CF044F8064B0022039918460BF0E6FF34
:1097B00000BF05B0F0BD00BFB0410020F041002067
:1097C000D041002008B5084A012108480BF09CFF51
:1097D000074A012107480BF097FF074A0121074874
:1097E0000BF092FF00BF08BDD596020024BF030016
:1097F000E796020028BF0300F99602002CBF030081
:1098000000B583B0FFF73CFEFFF7DCFF01F0FAF98B
:10981000FEF7BCF90346002B02D00120FFF7ECFE57
:10982000002000F0C5FA034683F00103DBB2002BF1
:1098300002D00420FFF7E0FE0020FCF73BFE00F022
:1098400033F902F013FA002200211048FFF768FBF9
:109850000F4A01210F480BF057FF0190019B009325
:10986000009B002B05D00C4A40F2062100980BF01B
:109870006BFB0A4B00224FF4804118460BF07EFF31
:1098800000F012F9FFF7C2FDFAE700BF18BF0300AE
:109890008996020020BF030098BE0300904100207B
:1098A00070B590B00590059BD3F8023003F5FD43E9
:1098B00010330F930CF00AF80346154A1360154A4B
:1098C0000F9B1360144B01221A7006AB184600F070
:1098D00051F8124A124BD31ADB081B0443F0030061
:1098E0000B9B03F26C731D460A9B01331E46099BBA
:1098F000089A0799069C03940291019200933346BB
:109900002A4608490FF095FB00BF10B070BD00BF9C
:109910005C4D0020584D0020604D00207CB40300B9
:109920004CB4030030BF030000B585B00E4B1B786C
:1099300083F00103DBB2002B01D0002310E00BF019
:10994000C5FF0390094B1B68194603980BF0B2FF43
:109950000290029BDB0B0193054B1A68019B134499
:10996000184605B000BD00BF604D00205C4D0020D2
:10997000584D002030B585B00190FFF7D5FF034664
:109980000293019B002B11D002AB184611F0CDFCC5
:109990000390039B002B09D0019A039B14461D469C
:1099A0000FCD0FC40FCD0FC42B68236000BF05B0CF
:1099B00030BD000000B583B00190019B1B681846C4
:1099C00000F02CF80346002B04D105494FF4F67043
:1099D00001F03EFA4FF0A043184603B000BD00BFAF
:1099E00060BF030000B585B0019001AB1846FFF7DA
:1099F000E1FF0390039800F009F80246019B22FA68
:109A000003F303F00103184605B000BD82B00190D6
:109A1000019BD3F81035184602B0704784B001900E
:109A2000019B5B09029300230393029B002B03D14C
:109A30004FF0FF33039300BF019B03F01F0301931B
:109A4000039A019B22FA03F303F00103DBB21846E9
:109A500004B0704700B587B0019000910023ADF8C5
:109A6000103078238DF80F300023059304AB19468E
:109A7000002001F058F903460593BDF81030C3F3F8
:109A800008039BB2002B0BD0059B002B08D1009B39
:109A90009BB20DF10F00019A012100F0BFFFE5E735
:109AA00000BF07B000BD000010B58AB000230993C5
:109AB0005C4B1B78DBB2002B06D10720FFF792FF2F
:109AC0000346002B00F0A980FFF7D6FD564B1A681D
:109AD0001346DB009B1A08930899012011F00FFA36
:109AE00003460793079B002B0BD1504A504BD31AC8
:109AF000DB081B0443F003034E4918460FF024FA19
:109B00008DE0484B00221A7001F01CF80023ADF8DC
:109B100014301B238DF8183005AB1946002001F0D6
:109B200002F99DF8153003F01003DBB2002B06D0CC
:109B3000089B9BB21946079800F0B0FB099048F2C9
:109B40000103ADF8103004AB0221184600F03AFFD3
:109B500070238DF80F300DF10F000423364A0121D8
:109B600000F05CFF354B1B78DBB283F00103DBB206
:109B7000002B04D0324B1B7B184600F055FD2B4ABE
:109B80002B4BD31ADB081B0443F003002C4B1B7B2D
:109B900019462B4B5B7B1C46294B9B7B1A46284B5B
:109BA000DB7B0193009223460A4626490FF011FA07
:109BB00000238DF8113004AB0221184600F002FF9B
:109BC0000020FCF777FC1D4B1B78DBB2002B1BD071
:109BD000142200211C4811F053FA1B4B31221A7039
:109BE000194B03225A70184B00229A70164B102200
:109BF000DA70154B124A1C1D13460FCB84E80F0078
:109C00001421114801F05AFD08990798FFF722FF27
:109C1000079811F069F900F07DFF00F0AFFB0AB082
:109C200010BD00BF884D00201C4200207CB4030002
:109C30004CB4030090BF0300844D0020894D0020E8
:109C4000784D0020A0BF0300644D002030B589B0DE
:109C50000023ADF814301B238DF81C3005AB1946DA
:109C6000002001F060F81C4A1C4BD31ADB081B04CF
:109C700043F00300BDF81430C3F308039BB21C4645
:109C80009DF81530C3F30013DBB21D469DF8153067
:109C9000C3F38003DBB21A469DF81530C3F3C0034B
:109CA000DBB219469DF81530C3F34003DBB20293D3
:109CB000019100922B46224609490FF0A1F9BDF807
:109CC0001430C3F308039BB2ADF81E30BDF81E304C
:109CD000184609B030BD00BF7CB403004CB403008B
:109CE000C8BF030000B583B00023019310E00C4A05
:109CF000019B12F813308DF8003000238DF80130ED
:109D00006B460221184600F05DFE019B0133019372
:109D1000019BB3F5937FEAD900BF00BF03B000BD3C
:109D20002042002000B583B01C4A1D4BD31ADB082B
:109D30001B0443F0030340F24E221A4918460FF069
:109D400010F90023019320E0174A019B12F8133009
:109D50008DF80030144A019B12F81330072B05D1FF
:109D6000124B1B68DBB28DF8013006E00E4A019BF6
:109D70005B0013445B788DF801306B460221184676
:109D800000F020FE019B01330193019BB3F5937F0B
:109D9000DAD900BF00BF03B000BD00BF7CB4030030
:109DA0004CB40300F4BF0300204200201C420020FA
:109DB00000B583B003468DF8073000F0C3FE00F015
:109DC00091FA034683F00103DBB2002B03D000F0CD
:109DD000A1FE002308E0FFF785FFFFF7A3FFFFF7D1
:109DE00035FF00F097FE0123184603B000BD0000C8
:109DF000024B01221A7000BF704700BF884D00203F
:109E000000B589B00346ADF806300B46ADF8043016
:109E10001346ADF80230BDF9063007EE903AB8EEC1
:109E2000E77A3E4BD3ED007A67EE277ACDED067ADE
:109E3000BDF9043007EE903AB8EEE77A374BD3ED30
:109E4000007A67EE277ACDED057ABDF9023007EE8C
:109E5000903AB8EEE77A314BD3ED007A67EE277A85
:109E6000CDED047A2E4B1B78DBB2002B26D0DDED36
:109E7000067A9FED2C7A67EE877AFDEEE77A17EE89
:109E8000903A1AB2284B1A80DDED057A9FED257ABB
:109E900067EE877AFDEEE77A17EE903A1AB2224B18
:109EA0005A80DDED047A9FED1F7A67EE877AFDEE2A
:109EB000E77A17EE903A1AB21B4B9A80DDED067ADC
:109EC00027EEA77ADDED057A67EEA77A37EE277AD7
:109ED000DDED047A67EEA77A77EE277AB0EE670AAF
:109EE00010F0B6FB8DED030ADDED037AB7EE007AD4
:109EF00077EEC77ACDED077ADDED077AF5EEC07A19
:109F0000F1EE10FA02D54FF000030793079B07EE1E
:109F1000903AB0EE670A09B000BD00BF14420020BD
:109F2000894D002000007A44784D002000B587B0AC
:109F30000346ADF806300B46ADF804301346ADF8D5
:109F40000230BDF9063007EE903AB8EEE77A3B4BA7
:109F5000D3ED007A67EE277ACDED047ABDF90430AF
:109F600007EE903AB8EEE77A344BD3ED007A67EE1D
:109F7000277ACDED037ABDF9023007EE903AB8EEBC
:109F8000E77A2E4BD3ED007A67EE277ACDED027A91
:109F90002B4B1B78DBB2002B26D0DDED047AB2EE22
:109FA000047A67EE877AFDEEE77A17EE903A1AB2F6
:109FB000244BDA80DDED037AB2EE047A67EE877A1D
:109FC000FDEEE77A17EE903A1AB21E4B1A81DDEDDC
:109FD000027AB2EE047A67EE877AFDEEE77A17EE40
:109FE000903A1AB2174B5A81DDED047A27EEA77A20
:109FF000DDED037A67EEA77A37EE277ADDED027A98
:10A0000067EEA77A77EE277AB0EE670A10F020FBAA
:10A010008DED050ADDED057AB0EE007AF4EEC77A33
:10A02000F1EE10FA02D54FF000030593059B07EE01
:10A03000903AB0EE670A07B000BD00BF184200209A
:10A04000894D0020784D002000B58FB0019000911F
:10A050004FF000030D934FF000030C930023ADF875
:10A060002E300023ADF82C3000230A93A9E00A9A81
:10A070001346DB009B1A0693069B019A13441B7838
:10A08000DB088DF817309DF81730022B49D1069B5D
:10A090000233019A13441B781BB21B021AB2069BAF
:10A0A000013301990B441B781BB21343ADF80E30FA
:10A0B000069B0433019A13441B781BB21B021AB28D
:10A0C000069B033301990B441B781BB21343ADF875
:10A0D0000C30069B0633019A13441B781BB21B02FB
:10A0E0001AB2069B053301990B441B781BB213432C
:10A0F000ADF80A30BDF90E20BDF90C10BDF90A30DB
:10A100001846FFF77DFEB0EE407ADDED0D7A77EE72
:10A11000877ACDED0D7ABDF82E300133ADF82E30B3
:10A120004CE09DF81730012B48D1069B0233019A71
:10A1300013441B781BB21B021AB2069B0133019910
:10A140000B441B781BB21343ADF81430069B043349
:10A15000019A13441B781BB21B021AB2069B0333ED
:10A1600001990B441B781BB21343ADF81230069BC8
:10A170000633019A13441B781BB21B021AB2069BCA
:10A18000053301990B441B781BB21343ADF8103013
:10A19000BDF91020BDF91210BDF914301846FFF7B3
:10A1A000C5FEB0EE407ADDED0C7A77EE877ACDED24
:10A1B0000C7ABDF82C300133ADF82C300A9B0133FA
:10A1C0000A930A9B009A9A423FF651AF4FF0000360
:10A1D0000993BDF82E30002B0CD0BDF82E3007EEC1
:10A1E000903AB8EE677ADDED0D6AC6EE877ACDED6E
:10A1F000087A02E04FF000030893BDF82C30002BE2
:10A200000CD0BDF82C3007EE903AB8EE677ADDED51
:10A210000C6AC6EE877ACDED077A02E04FF00003B4
:10A220000793BDF82E30002B0FD0BDF82E3007EE6F
:10A23000903AB8EE677ADDED0D6AC6EE877A9DED4D
:10A24000097A77EE277ACDED097ABDF82C30002B0C
:10A2500013D0BDF82C3007EE903AB8EE677ADDEDFA
:10A260000C6AC6EE877A9FED0B7A67EE877A9DEDD2
:10A27000097A77EE277ACDED097ADDED097A9FED3F
:10A28000067A67EE877AFCEEE77A17EE903A184680
:10A290000FB000BD6F12033B00007A4400B585B0DB
:10A2A00001900B46ADF8023078238DF80D30002375
:10A2B0008DF80F3000238DF80E30BDF802300DF10F
:10A2C0000D00019A012100F0A9FB054B1B681946FE
:10A2D0000198FFF7B9FE0346184605B000BD00BF60
:10A2E0001C42002000B583B00F238DF807300023F7
:10A2F0008DF806300DF106020DF107000123012152
:10A3000000F08CFB0B4A0C4BD31ADB081B0443F008
:10A3100003039DF80620094918460EF022FE9DF819
:10A320000630712B01D1012300E00023184603B051
:10A3300000BD00BF7CB403004CB403000CC003009C
:10A3400030B482B00190019B002B0ED0094A019BD2
:10A3500014461D4628686968AA68EB680FC4286916
:10A360002060054B01221A7000E000BF02B030BC33
:10A37000704700BF644D00208A4D002000B587B0B3
:10A380004E4B1B78002B00F097804C4B00221A702C
:10A390004B4BDB788DF81630494B9B788DF8153098
:10A3A00000238DF817309DF81630002B00F08380C5
:10A3B0009DF81630102B7ED800F0C4FB404B5B7824
:10A3C000032B4ED0032B68DC022B2DD0022B64DC38
:10A3D000002B02D0012B0DD05FE09DF816309BB210
:10A3E0000DF11500374A012100F018FB01238DF80B
:10A3F000173052E09DF815308DF804309DF8162086
:10A4000001AB01332F49184610F008FE9DF81630B5
:10A410009BB201339AB201AB1146184600F0D2FA52
:10A4200001238DF8173038E009238DF800305523CB
:10A430008DF801306B460221184600F0C3FA224B1A
:10A4400001221A7007238DF8003001238DF80130A6
:10A450006B460221184600F0B5FA1B4B01221A7018
:10A460001BE009238DF8003050238DF801306B4636
:10A470000221184600F0A6FA07238DF80030134B8E
:10A480001B68DBB28DF801306B460221184600F0E4
:10A4900099FA0D4B00221A7000BF00F03BFB9DF8AB
:10A4A0001730002B08D0064B31221A7014210448B3
:10A4B00001F004F900E000BF07B000BD8A4D0020A4
:10A4C000644D0020684D0020894D00201C42002072
:10A4D000014B1846704700BF8C4D002086B001909C
:10A4E0000B468DF803309DF80330019A1344059311
:10A4F000059BA3F58022174BA3FB0213590B0B46B8
:10A50000DB000B441B03D31A04939DF803304FF474
:10A51000074202FB03F31A46049B93420FD3059BA9
:10A52000A3F580230B4AA2FB03235B0B0393039A3F
:10A530001346DB0013441B0303F592230593059B8D
:10A54000B3F5EC2F02D34FF480230593059B1846F7
:10A5500006B07047398EE3388EB000230D93002388
:10A560000C932E4B1B680B932D4B1B680A930B9A75
:10A570000A9B9A421CD80A9A0B9BD31A0D930B9BE9
:10A58000A3F58023274AA2FB03235B0B03930A9BBB
:10A59000A3F58023234AA2FB03235B0B0293029AB9
:10A5A000039BD21A1346DB0013441B020C9327E0D3
:10A5B0000A9A0B9BD31A03F558330D930B9BA3F503
:10A5C0008023184AA2FB03235B0B099306230893FD
:10A5D0000A9BA3F58023134AA2FB03235B0B07937B
:10A5E000089A099BD31A0693079B0593069A059B25
:10A5F00013440493049A1346DB0013441B020C9388
:10A600000D9A0C9B9A4201D2002304E00D9A0C9BF8
:10A61000D31A0193019B18460EB070477C4400206A
:10A6200078440020398EE33830B58BB003468DF87E
:10A6300017303E4B1B7819463D4A9DF8173053544E
:10A640003A4B1B780133DAB2384B1A70FDF73AF8FF
:10A650000990364B1B78032B65D9344B00221A70B6
:10A66000344B1B6804211846FFF738FF0890324B23
:10A670001B68089A9A422DD12E4B1A682E4B1B68E4
:10A680009A4227D02C4B1B68A3F580232B4AA2FBB0
:10A6900003235B0B0793079A1346DB0013441B034A
:10A6A00003F59223244A1360234B1B68B3F5EC2F68
:10A6B00003D3214B4FF480221A60214A214BD31A35
:10A6C000DB081B0443F002031B4A12681E491846AC
:10A6D0000EF047FC1A4A1B4BD31ADB081B0443F04D
:10A6E0000300144B1A68124B1B781D46104B5B7805
:10A6F00019460F4B9B781C460D4BDB780293019457
:10A7000000912B4611490EF07BFC0A4B1B6804227A
:10A7100007491846FDF71CF80690069B002B02D14E
:10A72000044A089B136000BF0BB030BD0A4E0020E6
:10A730000C4E00207044002074440020398EE33811
:10A740007CB403004CB403001CC0030060C00300D1
:10A7500000B587B0019000238DF81730019B0233BC
:10A760000493334B1A68334B1B689A4240D1002341
:10A770005BE02F4B1B680DF10B0101221846FDF722
:10A7800087F89DF81730049A13449DF80B201A702F
:10A790009DF8173001338DF81730274B1B88013394
:10A7A0009AB2254B1A80224B1B6801211846FFF7ED
:10A7B00095FE03901E4B1B68039A9A420FD11F4AC5
:10A7C0001F4BD31ADB081B0443F001031D49184635
:10A7D0000EF0BAFB174B1B68154A136012E0144ABF
:10A7E000039B1360144B1B88632B01D900231CE0CF
:10A7F0009DF81730112B05D80D4B1A680D4B1B68AF
:10A800009A42B6D19DF81730002B07D0084B1A6832
:10A81000084B1B689A4201D0012306E09DF81730CF
:10A82000002B01D0002300E00023184607B000BD34
:10A830007C44002078440020084E00207CB40300B3
:10A840004CB4030084C00300024B1B68024A13602F
:10A8500000BF70477C4400207444002008B5144BAE
:10A8600000221A80134B1B68134A1360134B1B689A
:10A87000134A1360134A144BD31ADB081B0443F02A
:10A8800003000D4B1A680B4B1B6810490EF079FB47
:10A890000C4A0D4BD31ADB081B0443F00300084B92
:10A8A0001A68064B1B680A490EF06BFB00BF08BD17
:10A8B000084E00207044002078440020744400209A
:10A8C0007C4400207CB403004CB403009CC0030013
:10A8D000D0C0030000B583B00190019B1B681846EF
:10A8E00000F054F80346002B04D105494FF4F670EC
:10A8F00000F0AEFA4FF0A043184603B000BD00BF11
:10A900000CC1030000B585B00190084611461A46F7
:10A9100003468DF803300B468DF8023013468DF850
:10A92000013001AB1846FFF7D5FF03909DF80320D7
:10A930009DF802305B001A439DF801309B001A43DA
:10A940009DF818301B0242EA03019DF81C301B04DD
:10A95000019A1943039B02F5E07243F8221000BFED
:10A9600005B000BD00B585B003900B468DF80B30E7
:10A970009DF80B300022019200220092002200215B
:10A980000398FFF7BFFF00BF05B000BD84B0019082
:10A99000019B5B09029300230393029B002B03D1CD
:10A9A0004FF0FF33039300BF019B03F01F0301939C
:10A9B000039A019B22FA03F303F00103DBB218466A
:10A9C00004B0704700B587B003900B46ADF80A306D
:10A9D000104B00221A7000230593BDF80A300022A4
:10A9E0000092039A6A210C4809F07CFF0590059BB0
:10A9F000002B03D0059B0AE00DF068FA054B1B788D
:10AA0000DBB283F00103DBB2002BF5D1059B1846C6
:10AA100007B000BD104E002004C1030000B589B08E
:10AA2000059003921A460B46ADF812301346ADF866
:10AA300010301D4B00221A7000230793012300934E
:10AA40000123059A6A21194809F04CFF0790079BDA
:10AA5000002B03D0079B24E00DF038FA124B1B7833
:10AA6000DBB283F00103DBB2002BF5D10E4B0022E9
:10AA70001A70BDF81030039A6A210C4809F059FF8A
:10AA80000790079B002B03D0079B0AE00DF01EFAEE
:10AA9000054B1B78DBB283F00103DBB2002BF5D151
:10AAA000079B184609B000BD104E002004C10300EA
:10AAB00000B583B001900091019B1B78022B18D048
:10AAC000022B1ADC002B02D0012B04D015E00F4B17
:10AAD00001221A7016E00D4B01221A700C4B1B68F4
:10AAE000002B0ED10A4B01221A600420FEF784FDD0
:10AAF00007E0064B01221A7004E0044B01221A7091
:10AB000000E000BF00BF03B000BD00BF104E00203A
:10AB1000144E002008B5084809F0A6FB064809F0C5
:10AB200035FB064B0022C3F80025054B00221A60B6
:10AB3000034B1B6800BF08BD04C103000030004088
:10AB4000FC3F004010B586B003211920FFF70AFF33
:10AB500003211A20FFF706FF124B0122C3F800253C
:10AB6000114B01221A60104B1B68104B6C460FCB27
:10AB700084E80F00694600230D4A0E4809F05EFA8A
:10AB80000590059B0493049B002B04D00A4A8E2158
:10AB900004980AF0D9F9074809F03EFB00BF06B057
:10ABA00010BD00BF00300040FC3F004084C10300E6
:10ABB000B1AA020004C103003CC1030036DF7047A4
:10ABC00000BF184608B50EF0A1FC0EF05BFA034674
:10ABD000002BFAD1FDF760FC00BF08BD00B583B0C3
:10ABE0000190044B1B7818460AF048F900BF03B0E7
:10ABF00000BD00BF184E002008B50F20FFF7DEFF94
:10AC000000BF08BD00B589B0284A01AB07CA83E878
:10AC1000070041F28833029301238DF8043001AB21
:10AC2000234918460AF068F80790079B0693069B8D
:10AC3000002B04D01F4A4A2106980AF085F91E48C5
:10AC40000AF0DAF80790079B0593059B002B04D0C8
:10AC5000184A4E2105980AF077F90AF0ABF8FFF789
:10AC6000CBFF164A012116480AF04EFD0490049BC2
:10AC7000002B04D00F4A532104980AF065F9114BB8
:10AC800000224FF4804118460AF078FD0E4A0F4B1F
:10AC9000D31ADB081B0443F00303029A0C4918463D
:10ACA0000EF05FF900BF09B000BD00BF04C2030091
:10ACB000C5AB020098C10300184E0020DDAB0200B6
:10ACC00094C10300804400207CB403004CB4030012
:10ACD000E0C1030000B587B0039001921A460B460D
:10ACE0008DF80B301346ADF8083000230593BDF8FE
:10ACF00008300DF10B00019A0121FFF78FFE059B33
:10AD0000184607B000BD82B001900091019B002B56
:10AD100006D0009B002B03D0009B1A78019B1A7071
:10AD200000BF02B0704700B587B0019000910023CA
:10AD3000ADF8103000238DF80C300023059304AAE1
:10AD400002231B210198FFF7C5FF0590059B002BEF
:10AD500001D0059B41E004AB5A1C03AB11461846D9
:10AD6000FFF7D1FF9DF80C30C3F30013D9B2009A5E
:10AD7000537861F3410353709DF80C30C3F3801393
:10AD8000D9B2009A537861F3C30353709DF80C3025
:10AD9000C3F34013D9B2009A537861F3820353701E
:10ADA0009DF80C30C3F3C013D9B2009A537861F305
:10ADB000041353709DF810301AB29DF811301BB275
:10ADC0001B021BB213431BB2C3F3080399B2009AD0
:10ADD000138861F308031380059B184607B000BD74
:10ADE000BFF34F8F00BF064BDB6803F4E0620449FA
:10ADF000044B1343CB60BFF34F8F00BF00BFFDE791
:10AE000000ED00E00400FA0576DF704700BF184649
:10AE10007ADF704700BF18467FDF704700BF1846D3
:10AE200088DF704700BF184689DF704700BF1846AB
:10AE30008EDF704700BF18468FDF704700BF18468F
:10AE4000B1DF704700BF18463FDF704700BF1846AC
:10AE500000B583B003460091ADF80630BDF806306A
:10AE6000009A194602480AF06FF800BF03B000BD0F
:10AE7000EFBEADDE00B585B06B4608220021184656
:10AE800010F0FEF81023ADF800301023ADF80230BA
:10AE90003123ADF804304FF4FA73ADF806306B4649
:10AEA0001846FFF7B5FF0390039B0293029B002B0C
:10AEB00004D0044ADA2102980AF046F800BF05B02F
:10AEC00000BD00BF40C2030000B585B00190019BEA
:10AED0001B78002B10D10A4B1B883B211846FFF72B
:10AEE00093FF0390039B0293029B002B04D0054A1F
:10AEF000FD2102980AF028F800BF05B000BD00BF90
:10AF0000A044002040C2030000B583B00190044A71
:10AF10004FF4847101980AF017F800BF03B000BD28
:10AF200040C2030000B58BB001AB1C2200211846C3
:10AF300010F0A6F8002301934FF4A03302934FF4CE
:10AF4000F023039303238DF810300023ADF8123063
:10AF500000238DF814300B4B06930B4B079301AB7A
:10AF6000184603F085FA0990099B0893089B002B6B
:10AF700005D0064A40F21F11089809F0E5FF00BF0E
:10AF80000BB000BDC9AE020009AF020040C2030011
:10AF900000B58DB00190009100238DF82F30019BFA
:10AFA0001B88562B00F00881562B00F31881522B7A
:10AFB00000F0DB80522B00F312813B2B00F0E98084
:10AFC0003B2B00F30C81212B00F0A180212B00F3FF
:10AFD00006811B2B0DD01B2B00F30181132B00F0DE
:10AFE000B080132B00F3FB80102B25D0112B62D0E7
:10AFF000F5E0834A834BD31ADB081B0443F00100BE
:10B00000019B1B7A1A4680490DF0ABFF019B1B7A0E
:10B01000022B40F0E6807A4A7A4BD31ADB081B04F5
:10B0200043F00103794918460DF08EFF6422012197
:10B03000032000F017FDD4E0754B00221A600020B9
:10B0400000F042FC002000F0CBFB012000F002FCED
:10B05000FCF724FF019B9A886E4B1A806E4B1B787D
:10B06000022B02D0032B0BD018E06C4B9B68694A73
:10B070001288114601989847694B00221A700DE01A
:10B08000664B1B68634A1288114601989847644BC7
:10B0900001221A70019B0833039300BF012161480C
:10B0A00000F04AFB00220021002000F0DBFC5E4B98
:10B0B00004221A70A0E0524A524BD31ADB081B0438
:10B0C00043F00300019B1B7A1A4658490DF049FFD3
:10B0D000019B9B88ADF81230002000F0BBFB4D4B6C
:10B0E0001B884FF6FF72934204D04A4B1B881846C8
:10B0F000FFF79AFE00F036FD00F026FD002100204B
:10B1000000F01AFB434B4FF6FF721A8074E00023E5
:10B110008DF8083000238DF80930019B9B8802AA26
:10B1200011461846FFF788FE0A900A9B0693069B75
:10B13000002B58D03E4A40F27711069809F004FFE0
:10B1400051E0344B1888002300228521FFF764FE6C
:10B150000A900A9B0593059B002B46D0344A40F287
:10B160007D11059809F0F0FE3FE02A4B1888002376
:10B1700000220021FFF764FE0A900A9B0893089BB7
:10B18000002B34D02A4A40F28311089809F0DCFEE3
:10B190002DE0019B9B8813211846FFF735FE0A908E
:10B1A0000A9B0793079B002B23D0214A4FF4C571BC
:10B1B000079809F0C9FE1CE0019B9B8813211846E3
:10B1C000FFF722FE0A900A9B0993099B002B12D0DD
:10B1D000174A40F29111099809F0B6FE0BE000BF42
:10B1E0000AE000BF08E000BF06E000BF04E000BFC7
:10B1F00002E000BF00E000BF00BF0DB000BD00BF17
:10B200007CB403004CB4030084C20300A0C203005A
:10B210004C4E0020A0440020514E0020384E00200B
:10B2200068450020A0BB0D00504E0020BCC20300AA
:10B2300040C2030000B587B00EF0D2FE0590059B1A
:10B240000493049B002B05D0234A4FF4D271049839
:10B2500009F07AFE0023019301AB194601200EF09C
:10B26000D1FF0590059B0393039B002B05D01A4A41
:10B270004FF4D571039809F067FE184A184BD31A9A
:10B28000DB081B0443F00303019A164918460DF02E
:10B2900068FE01AB18460FF0D3F80590059B042B10
:10B2A0000BD10E4A0E4BD31ADB081B0443F00103EB
:10B2B000019A0D4918460DF054FE059B0293029B1E
:10B2C000002B05D0044A4FF4DB71029809F03CFED4
:10B2D00000BF07B000BD00BF40C203007CB4030044
:10B2E0004CB40300CCC20300F0C2030000B583B02D
:10B2F00001900091009B5A88104B1B889A421AD1EA
:10B30000009B1B8840F67722934214D1009B9B88B8
:10B31000033B9AB20A4B1A800A4A0B4BD31ADB083A
:10B320001B0443F00300064B1B881A46044B1B8882
:10B3300006490DF026FE00BF03B000BDA04400206A
:10B34000A24400207CB403004CB4030024C30300D7
:10B3500000B585B01A491B4804F095FE0390039B85
:10B360000293029B002B05D0174A40F2D11102989C
:10B3700009F0EAFDF721134804F0AFFE0390039BA8
:10B380000193019B002B05D00F4A4FF4EB710198FC
:10B3900009F0DAFDFB224FF6FF710A4804F0B9FE0E
:10B3A0000390039B0093009B002B05D0064A4FF4AB
:10B3B000ED71009809F0C8FD00BF05B000BD00BFE9
:10B3C000EDB202001C4E002040C2030008B50AF096
:10B3D0007DFA0346184608BD00B583B04FF480419E
:10B3E00009480DF0CDFA0190019B0093009B002BC2
:10B3F00005D0064A4FF4F371009809F0A5FD0DF051
:10B4000057FA00BF03B000BDCDB3020040C2030035
:10B4100000B583B00CF044FD0190019B0093009BAC
:10B42000002B05D0044A4FF4F971009809F08CFD07
:10B4300000BF03B000BD00BF40C2030008B50DF05F
:10B4400021FE034683F00103DBB2002B01D00CF098
:10B450003DFD00BF08BD0000064B1B78032B03D049
:10B46000044B1B78042B01D1012300E00023DBB245
:10B4700018467047504E002000B585B00190FCF78B
:10B4800021F902903C4B1A783C4B1A70002303932D
:10B490003B4B1B68B3F5E16F02D93A4B039313E0C2
:10B4A000374B1B68B3F5167F03D94EF66023039321
:10B4B0000AE0334B1B68B42B03D944F62063039393
:10B4C00002E042F2107303932C4B1B78042B42D002
:10B4D000042B4DDC032B2ED0032B49DC022B1FD079
:10B4E000022B45DC002B02D0012B11D040E00020C4
:10B4F000FCF730FD002201210020FDF711FDFBF7D4
:10B50000DFFF42F210720121012000F0ABFA2FE0C0
:10B5100000F0F2FA64220121022000F0A3FA27E0F1
:10B52000FBF714FF0346002B21D0642201210320E6
:10B5300000F098FA1BE000F0DFFA0120FCF70AFDAA
:10B54000002200210020FDF7EBFC039A01210420DA
:10B5500000F088FA0CE0FDF799FBFCF711FDFCF711
:10B560006DFC64220121002000F07CFA00E000BFA5
:10B5700000BF05B000BD00BF494E0020514E002065
:10B580004C4E0020E093040000B583B00190244BA2
:10B590001B78062B3BD0062B3BDC052B2DD0052B37
:10B5A00037DC042B1CD0042B33DC022B0FD0022BF6
:10B5B0002FDC002B2FD0012B00D02AE064220121A8
:10B5C000002000F04FFA164B03221A7024E0642288
:10B5D0000121032000F046FA114B03221A701BE0F0
:10B5E000FDF754FB0F4B1B88002200211846FFF784
:10B5F00017FC0B4B05221A700EE0002201210020DF
:10B60000FDF78EFC00F0CAFA054B06221A7000BF47
:10B6100002E000BF00E000BF00BF03B000BD00BFFC
:10B62000504E0020A044002000B585B00190114A82
:10B63000114BD31ADB081B0443F003030F491846D0
:10B640000DF082FC0E4B1B884FF6FF72934204D024
:10B6500000F0CCFA03468DF80F309DF90F301946F3
:10B660000020FBF7F7F80121064800F065F800BF5D
:10B6700005B000BD7CB403004CB403006CC30300F0
:10B68000A0440020A0BB0D0000B583B00190FFF7DF
:10B69000A7FB000000B583B00190074B1B884FF655
:10B6A000FF72934205D0044B1B8813211846FFF705
:10B6B000ABFB00BF03B000BDA044002000B585B0C7
:10B6C00001900B46ADF8023006230393144B1B7810
:10B6D000002B0BD0012B13D1124B5B68124A12883E
:10B6E000BDF8021001989847039009E00D4BDB6804
:10B6F0000D4A1288BDF8021001989847039000BFC8
:10B700000A4A0B4BD31ADB081B0443F00303039ACA
:10B71000084918460DF025FC039B184605B000BDEE
:10B7200068450020384E0020A04400207CB403006F
:10B730004CB4030094C30300F0B587B001900B46EE
:10B740008DF80330019B00221C4615464FF0000285
:10B750004FF00003EB0343EA5443E20312F57A7619
:10B7600043F100074FF4FA624FF0000330463946C8
:10B770000EF072FF02460B4613460593134B184614
:10B780000AF054F89DF80330002B1CD00F4B002218
:10B790000599184609F0F2FF0490049B0393039B5C
:10B7A000002B05D00A4A40F2B921039809F0CCFBDE
:10B7B000084A094BD31ADB081B0443F0030307496B
:10B7C00018460DF0C1FB00BF07B0F0BDC844002013
:10B7D00040C203007CB403004CB40300A8C30300C0
:10B7E00000B587B003468DF807304FF4F01305938A
:10B7F000134B18460AF01AF89DF80730002B1CD09E
:10B800000F4B00220599184609F0B8FF0490049BDD
:10B810000393039B002B05D00A4A40F2CA210398E8
:10B8200009F092FB084A094BD31ADB081B0443F0CA
:10B830000303074918460DF087FB00BF07B000BDA2
:10B840000845002040C203007CB403004CB4030050
:10B85000C4C3030000B587B003468DF807304FF42A
:10B8600061030593134B184609F0E0FF9DF807307C
:10B87000002B1CD00F4B00220599184609F07EFFC3
:10B880000490049B0393039B002B05D00A4A4FF4BA
:10B890003671039809F058FB084A094BD31ADB08A4
:10B8A0001B0443F00303074918460DF04DFB00BF8E
:10B8B00007B000BD2845002040C203007CB403004F
:10B8C0004CB40300D8C3030000B587B003468DF81D
:10B8D00007304FF480430593134B184609F0A6FF39
:10B8E0009DF80730002B1CD00F4B002205991846FD
:10B8F00009F044FF0490049B0393039B002B05D0A5
:10B900000A4A40F2E921039809F01EFB084A094B54
:10B91000D31ADB081B0443F00303074918460DF054
:10B9200013FB00BF07B000BD4845002040C2030024
:10B930007CB403004CB40300F4C3030000B589B029
:10B9400009F0A6FE0790079B0693069B002B05D0E7
:10B95000384A4FF43D71069809F0F6FA364A01214B
:10B96000364809F0D1FE0790079B0593059B002BF5
:10B9700005D0304A40F2FA21059809F0E5FA304A3C
:10B980000021304809F0C0FE0790079B0493049BF8
:10B99000002B05D0274A40F2FE21049809F0D4FA82
:10B9A000294A0121294809F0AFFE0790079B03931C
:10B9B000039B002B05D01F4A4FF44171039809F0F7
:10B9C000C3FA234A0021234809F09EFE0790079BF3
:10B9D0000293029B002B05D0164A40F20A310298CE
:10B9E00009F0B2FA1C4A00211C4809F08DFE0790AC
:10B9F000079B0193019B002B05D00E4A4FF4447125
:10BA0000019809F0A1FA144A0121154809F07CFEB9
:10BA10000790079B0093009B002B05D0054A40F23E
:10BA20001531009809F090FAFBF796F800BF09B0BD
:10BA300000BD00BF40C2030089B50200A4C50300D9
:10BA400079B40200ACC5030029B60200A8C5030002
:10BA500089B60200B0C5030095B60200B4C5030064
:10BA6000B8C50300F0B585B0034600928DF80730E5
:10BA70000B468DF80630009B00221C4615464FF001
:10BA800000024FF00003EB0343EA5443E20312F5D4
:10BA90007A7643F100074FF4FA624FF00003304624
:10BAA00039460EF0D9FD02460B46134603930F4A62
:10BAB0009DF8073013709DF80630002B0AD00C4B10
:10BAC000184609F0B3FE0A4B00220399184609F004
:10BAD00055FE08E0FCF754FA064B00221A70044B9E
